{
  "_format": "hh-sol-artifact-1",
  "contractName": "DonaTheta",
  "sourceName": "contracts/DonaTheta.sol",
  "abi": [
    {
      "inputs": [],
      "stateMutability": "nonpayable",
      "type": "constructor"
    },
    {
      "anonymous": false,
      "inputs": [
        {
          "indexed": true,
          "internalType": "uint256",
          "name": "projectId",
          "type": "uint256"
        },
        {
          "indexed": false,
          "internalType": "address",
          "name": "donor",
          "type": "address"
        },
        {
          "indexed": false,
          "internalType": "uint256",
          "name": "amount",
          "type": "uint256"
        }
      ],
      "name": "DonationMade",
      "type": "event"
    },
    {
      "anonymous": false,
      "inputs": [
        {
          "indexed": true,
          "internalType": "uint256",
          "name": "projectId",
          "type": "uint256"
        }
      ],
      "name": "DonationProjectApproved",
      "type": "event"
    },
    {
      "anonymous": false,
      "inputs": [
        {
          "indexed": true,
          "internalType": "uint256",
          "name": "projectId",
          "type": "uint256"
        },
        {
          "indexed": false,
          "internalType": "address[]",
          "name": "organizers",
          "type": "address[]"
        },
        {
          "indexed": false,
          "internalType": "uint256",
          "name": "donationTarget",
          "type": "uint256"
        }
      ],
      "name": "DonationProjectCreated",
      "type": "event"
    },
    {
      "anonymous": false,
      "inputs": [
        {
          "indexed": true,
          "internalType": "uint256",
          "name": "projectId",
          "type": "uint256"
        }
      ],
      "name": "DonationProjectFinalized",
      "type": "event"
    },
    {
      "anonymous": false,
      "inputs": [
        {
          "indexed": true,
          "internalType": "uint256",
          "name": "projectId",
          "type": "uint256"
        },
        {
          "indexed": false,
          "internalType": "uint256",
          "name": "requestId",
          "type": "uint256"
        },
        {
          "indexed": false,
          "internalType": "uint256",
          "name": "amount",
          "type": "uint256"
        }
      ],
      "name": "WithdrawalExecuted",
      "type": "event"
    },
    {
      "anonymous": false,
      "inputs": [
        {
          "indexed": true,
          "internalType": "uint256",
          "name": "projectId",
          "type": "uint256"
        },
        {
          "indexed": false,
          "internalType": "uint256",
          "name": "requestId",
          "type": "uint256"
        },
        {
          "indexed": false,
          "internalType": "address",
          "name": "approver",
          "type": "address"
        }
      ],
      "name": "WithdrawalRequestApproved",
      "type": "event"
    },
    {
      "anonymous": false,
      "inputs": [
        {
          "indexed": true,
          "internalType": "uint256",
          "name": "projectId",
          "type": "uint256"
        },
        {
          "indexed": false,
          "internalType": "uint256",
          "name": "requestId",
          "type": "uint256"
        },
        {
          "indexed": false,
          "internalType": "uint256",
          "name": "amount",
          "type": "uint256"
        }
      ],
      "name": "WithdrawalRequestCreated",
      "type": "event"
    },
    {
      "anonymous": false,
      "inputs": [
        {
          "indexed": true,
          "internalType": "uint256",
          "name": "projectId",
          "type": "uint256"
        },
        {
          "indexed": false,
          "internalType": "uint256",
          "name": "requestId",
          "type": "uint256"
        },
        {
          "indexed": false,
          "internalType": "enum DonaTheta.WithdrawalRequestStatus",
          "name": "status",
          "type": "uint8"
        }
      ],
      "name": "WithdrawalRequestFinalized",
      "type": "event"
    },
    {
      "anonymous": false,
      "inputs": [
        {
          "indexed": true,
          "internalType": "uint256",
          "name": "projectId",
          "type": "uint256"
        },
        {
          "indexed": false,
          "internalType": "uint256",
          "name": "requestId",
          "type": "uint256"
        },
        {
          "indexed": false,
          "internalType": "address",
          "name": "rejecter",
          "type": "address"
        }
      ],
      "name": "WithdrawalRequestRejected",
      "type": "event"
    },
    {
      "inputs": [
        {
          "internalType": "uint256",
          "name": "projectId",
          "type": "uint256"
        }
      ],
      "name": "approveDonationProject",
      "outputs": [],
      "stateMutability": "nonpayable",
      "type": "function"
    },
    {
      "inputs": [
        {
          "internalType": "uint256",
          "name": "projectId",
          "type": "uint256"
        },
        {
          "internalType": "uint256",
          "name": "requestId",
          "type": "uint256"
        }
      ],
      "name": "approveWithdrawalRequest",
      "outputs": [],
      "stateMutability": "nonpayable",
      "type": "function"
    },
    {
      "inputs": [
        {
          "internalType": "enum DonaTheta.DonationPeriodType",
          "name": "donationPeriodType",
          "type": "uint8"
        },
        {
          "internalType": "address[]",
          "name": "organizers",
          "type": "address[]"
        },
        {
          "internalType": "uint256",
          "name": "donationTarget",
          "type": "uint256"
        },
        {
          "internalType": "uint256",
          "name": "startDonationDate",
          "type": "uint256"
        },
        {
          "internalType": "uint256",
          "name": "endDonationDate",
          "type": "uint256"
        }
      ],
      "name": "createDonationProject",
      "outputs": [],
      "stateMutability": "nonpayable",
      "type": "function"
    },
    {
      "inputs": [
        {
          "internalType": "uint256",
          "name": "projectId",
          "type": "uint256"
        },
        {
          "internalType": "uint256",
          "name": "amount",
          "type": "uint256"
        }
      ],
      "name": "createWithdrawalRequest",
      "outputs": [],
      "stateMutability": "nonpayable",
      "type": "function"
    },
    {
      "inputs": [],
      "name": "currentTimeStamp",
      "outputs": [
        {
          "internalType": "uint256",
          "name": "",
          "type": "uint256"
        }
      ],
      "stateMutability": "view",
      "type": "function"
    },
    {
      "inputs": [
        {
          "internalType": "uint256",
          "name": "",
          "type": "uint256"
        }
      ],
      "name": "donaStaff",
      "outputs": [
        {
          "internalType": "address",
          "name": "",
          "type": "address"
        }
      ],
      "stateMutability": "view",
      "type": "function"
    },
    {
      "inputs": [
        {
          "internalType": "uint256",
          "name": "",
          "type": "uint256"
        }
      ],
      "name": "donationProjects",
      "outputs": [
        {
          "internalType": "enum DonaTheta.DonationPeriodType",
          "name": "donationPeriodType",
          "type": "uint8"
        },
        {
          "internalType": "uint256",
          "name": "donationTarget",
          "type": "uint256"
        },
        {
          "internalType": "uint256",
          "name": "startDonationDate",
          "type": "uint256"
        },
        {
          "internalType": "uint256",
          "name": "endDonationDate",
          "type": "uint256"
        },
        {
          "internalType": "bool",
          "name": "isApproved",
          "type": "bool"
        },
        {
          "internalType": "bool",
          "name": "isOpenForDonations",
          "type": "bool"
        },
        {
          "internalType": "uint256",
          "name": "totalAmountDonated",
          "type": "uint256"
        },
        {
          "internalType": "uint256",
          "name": "totalAmountWithdrawn",
          "type": "uint256"
        },
        {
          "internalType": "uint8",
          "name": "totalDonaApprovalCommitteeMembers",
          "type": "uint8"
        }
      ],
      "stateMutability": "view",
      "type": "function"
    },
    {
      "inputs": [
        {
          "internalType": "uint256",
          "name": "_projectId",
          "type": "uint256"
        }
      ],
      "name": "finalizeDonations",
      "outputs": [],
      "stateMutability": "nonpayable",
      "type": "function"
    },
    {
      "inputs": [
        {
          "internalType": "uint256",
          "name": "_projectId",
          "type": "uint256"
        },
        {
          "internalType": "uint256",
          "name": "_requestId",
          "type": "uint256"
        }
      ],
      "name": "fullyApproveWithdrawalRequest",
      "outputs": [],
      "stateMutability": "nonpayable",
      "type": "function"
    },
    {
      "inputs": [
        {
          "internalType": "uint256",
          "name": "projectId",
          "type": "uint256"
        }
      ],
      "name": "fullyApproveWithdrawalRequest",
      "outputs": [],
      "stateMutability": "nonpayable",
      "type": "function"
    },
    {
      "inputs": [
        {
          "internalType": "uint256",
          "name": "projectId",
          "type": "uint256"
        }
      ],
      "name": "getProjectDonatedFunds",
      "outputs": [
        {
          "internalType": "uint256",
          "name": "",
          "type": "uint256"
        }
      ],
      "stateMutability": "view",
      "type": "function"
    },
    {
      "inputs": [
        {
          "internalType": "uint256",
          "name": "projectId",
          "type": "uint256"
        }
      ],
      "name": "getProjectWithdrawnFunds",
      "outputs": [
        {
          "internalType": "uint256",
          "name": "",
          "type": "uint256"
        }
      ],
      "stateMutability": "view",
      "type": "function"
    },
    {
      "inputs": [
        {
          "internalType": "uint256",
          "name": "projectId",
          "type": "uint256"
        }
      ],
      "name": "makeDonation",
      "outputs": [],
      "stateMutability": "payable",
      "type": "function"
    },
    {
      "inputs": [],
      "name": "numberOfDonationProjects",
      "outputs": [
        {
          "internalType": "uint256",
          "name": "",
          "type": "uint256"
        }
      ],
      "stateMutability": "view",
      "type": "function"
    },
    {
      "inputs": [],
      "name": "numberOfWithdrawalRequests",
      "outputs": [
        {
          "internalType": "uint256",
          "name": "",
          "type": "uint256"
        }
      ],
      "stateMutability": "view",
      "type": "function"
    },
    {
      "inputs": [],
      "name": "owner",
      "outputs": [
        {
          "internalType": "address",
          "name": "",
          "type": "address"
        }
      ],
      "stateMutability": "view",
      "type": "function"
    },
    {
      "inputs": [
        {
          "internalType": "uint256",
          "name": "_projectId",
          "type": "uint256"
        },
        {
          "internalType": "uint256",
          "name": "_requestId",
          "type": "uint256"
        }
      ],
      "name": "recalculateWithdrawalRequestVotes",
      "outputs": [],
      "stateMutability": "nonpayable",
      "type": "function"
    },
    {
      "inputs": [
        {
          "internalType": "uint256",
          "name": "projectId",
          "type": "uint256"
        },
        {
          "internalType": "uint256",
          "name": "requestId",
          "type": "uint256"
        }
      ],
      "name": "rejectWithdrawalRequest",
      "outputs": [],
      "stateMutability": "nonpayable",
      "type": "function"
    },
    {
      "inputs": [],
      "name": "totalDonationsReceived",
      "outputs": [
        {
          "internalType": "uint256",
          "name": "",
          "type": "uint256"
        }
      ],
      "stateMutability": "view",
      "type": "function"
    },
    {
      "inputs": [],
      "name": "totalDonationsUtilized",
      "outputs": [
        {
          "internalType": "uint256",
          "name": "",
          "type": "uint256"
        }
      ],
      "stateMutability": "view",
      "type": "function"
    },
    {
      "inputs": [
        {
          "internalType": "uint256",
          "name": "projectId",
          "type": "uint256"
        },
        {
          "internalType": "uint256",
          "name": "requestId",
          "type": "uint256"
        }
      ],
      "name": "withdrawFunds",
      "outputs": [],
      "stateMutability": "nonpayable",
      "type": "function"
    },
    {
      "inputs": [
        {
          "internalType": "uint256",
          "name": "",
          "type": "uint256"
        },
        {
          "internalType": "uint256",
          "name": "",
          "type": "uint256"
        }
      ],
      "name": "withdrawalRequests",
      "outputs": [
        {
          "internalType": "uint256",
          "name": "projectId",
          "type": "uint256"
        },
        {
          "internalType": "enum DonaTheta.WithdrawalRequestStatus",
          "name": "withdrawalRequestStatus",
          "type": "uint8"
        },
        {
          "internalType": "address",
          "name": "owner",
          "type": "address"
        },
        {
          "internalType": "uint256",
          "name": "withdrawAmount",
          "type": "uint256"
        },
        {
          "internalType": "uint256",
          "name": "numberOfApprovals",
          "type": "uint256"
        },
        {
          "internalType": "uint256",
          "name": "numberOfRejections",
          "type": "uint256"
        }
      ],
      "stateMutability": "view",
      "type": "function"
    }
  ],
  "bytecode": "0x60806040526000600255600060035534801561001a57600080fd5b50600080546001600160a01b031916331790556129f98061003c6000396000f3fe6080604052600436106101755760003560e01c806388cd1b63116100cb578063b219f9161161007f578063e25edc3111610059578063e25edc311461048a578063e5253105146104aa578063f4c88b69146104ca57600080fd5b8063b219f916146103d0578063da1c6daf146103e3578063da903d131461041357600080fd5b80638da5cb5b116100b05780638da5cb5b14610384578063a17a37dd146103a4578063a80098b0146103ba57600080fd5b806388cd1b631461034e5780638c2f8b311461036457600080fd5b806356ac0d651161012d5780635d24e9e7116101075780635d24e9e7146102f857806367dbca0e14610318578063862e2fc81461033857600080fd5b806356ac0d651461029857806356c6ebfe146102b857806356f9c416146102d857600080fd5b8063340a9a1c1161015e578063340a9a1c146101d95780633866b6a3146101f65780634b720bbf1461021657600080fd5b80633138f0261461017a5780633238d32f1461019c575b600080fd5b34801561018657600080fd5b5061019a61019536600461267d565b6104fa565b005b3480156101a857600080fd5b506101bc6101b736600461269f565b61096a565b6040516001600160a01b0390911681526020015b60405180910390f35b3480156101e557600080fd5b50425b6040519081526020016101d0565b34801561020257600080fd5b5061019a61021136600461267d565b610994565b34801561022257600080fd5b5061028361023136600461269f565b60066020526000908152604090208054600282015460038301546004840154600585015460078601546008870154600c9097015460ff9687169795969495939483811694610100909404811693911689565b6040516101d0999897969594939291906126ce565b3480156102a457600080fd5b5061019a6102b336600461267d565b610e40565b3480156102c457600080fd5b5061019a6102d336600461269f565b610ff5565b3480156102e457600080fd5b5061019a6102f336600461267d565b611167565b34801561030457600080fd5b5061019a61031336600461269f565b6111ce565b34801561032457600080fd5b5061019a61033336600461267d565b6113e6565b34801561034457600080fd5b506101e860045481565b34801561035a57600080fd5b506101e860035481565b34801561037057600080fd5b5061019a61037f366004612756565b6115f8565b34801561039057600080fd5b506000546101bc906001600160a01b031681565b3480156103b057600080fd5b506101e860025481565b3480156103c657600080fd5b506101e860055481565b61019a6103de36600461269f565b611783565b3480156103ef57600080fd5b506101e86103fe36600461269f565b60009081526006602052604090206008015490565b34801561041f57600080fd5b5061047861042e36600461267d565b600760209081526000928352604080842090915290825290208054600182015460028301546003840154600490940154929360ff8316936101009093046001600160a01b03169286565b6040516101d096959493929190612861565b34801561049657600080fd5b5061019a6104a536600461269f565b611acb565b3480156104b657600080fd5b5061019a6104c536600461267d565b61221e565b3480156104d657600080fd5b506101e86104e536600461269f565b60009081526006602052604090206007015490565b60008281526006602052604081208391805b600a83015460ff8216101561055f5782600a018160ff1681548110610533576105336128a1565b6000918252602090912001546001600160a01b03163303610557576001915061055f565b60010161050c565b50806105bd5760005b600b83015460ff821610156105bb5782600b018160ff168154811061058f5761058f6128a1565b6000918252602090912001546001600160a01b031633036105b357600191506105bb565b600101610568565b505b8061061a5760005b600183015460ff8216101561061857826001018160ff16815481106105ec576105ec6128a1565b6000918252602090912001546001600160a01b031633036106105760019150610618565b6001016105c5565b505b806106a65760405162461bcd60e51b815260206004820152604b60248201527f5468697320616374696f6e2063616e206f6e6c7920626520706572666f726d6560448201527f64206279206d656d62657273206f662054686520446f6e6120417070726f766160648201526a6c20436f6d6d697474656560a81b608482015260a4015b60405180910390fd5b60008581526007602090815260408083208784529091529020859085906004600182015460ff1660048111156106de576106de6126b8565b036107435760405162461bcd60e51b815260206004820152602f60248201527f596f752063616e6e6f7420766f7465206f6e20616e20616c726561647920776960448201526e1d1a191c985ddb881c995c5d595cdd608a1b606482015260840161069d565b6000805b60058301548110156107a757336001600160a01b0316836005018281548110610772576107726128a1565b6000918252602090912001546001600160a01b03160361079557600191506107a7565b8061079f816128cd565b915050610747565b5060005b600683015481101561080b57336001600160a01b03168360060182815481106107d6576107d66128a1565b6000918252602090912001546001600160a01b0316036107f9576001915061080b565b80610803816128cd565b9150506107ab565b5080156108695760405162461bcd60e51b815260206004820152602660248201527f596f75206861766520616c726561647920766f746564206f6e20746869732072604482015265195c5d595cdd60d21b606482015260840161069d565b60008981526007602090815260408083208b8452909152812090600182015460ff16600481111561089c5761089c6126b8565b146108e95760405162461bcd60e51b815260206004820152601260248201527f52657175657374206973206e6f74206e65770000000000000000000000000000604482015260640161069d565b6006810180546001810182556000918252602082200180546001600160a01b031916331790556004820180549161091f836128cd565b9091555050604080518a81523360208201528b917f5da50088d8738b46cc7b30926418d584e9e48e80847571b7e8884cdfabca0fed910160405180910390a250505050505050505050565b6001818154811061097a57600080fd5b6000918252602090912001546001600160a01b0316905081565b60008281526006602052604081208391805b600a83015460ff821610156109f95782600a018160ff16815481106109cd576109cd6128a1565b6000918252602090912001546001600160a01b031633036109f157600191506109f9565b6001016109a6565b5080610a575760005b600b83015460ff82161015610a555782600b018160ff1681548110610a2957610a296128a1565b6000918252602090912001546001600160a01b03163303610a4d5760019150610a55565b600101610a02565b505b80610ab45760005b600183015460ff82161015610ab257826001018160ff1681548110610a8657610a866128a1565b6000918252602090912001546001600160a01b03163303610aaa5760019150610ab2565b600101610a5f565b505b80610b3b5760405162461bcd60e51b815260206004820152604b60248201527f5468697320616374696f6e2063616e206f6e6c7920626520706572666f726d6560448201527f64206279206d656d62657273206f662054686520446f6e6120417070726f766160648201526a6c20436f6d6d697474656560a81b608482015260a40161069d565b60008581526007602090815260408083208784529091529020859085906004600182015460ff166004811115610b7357610b736126b8565b03610bd85760405162461bcd60e51b815260206004820152602f60248201527f596f752063616e6e6f7420766f7465206f6e20616e20616c726561647920776960448201526e1d1a191c985ddb881c995c5d595cdd608a1b606482015260840161069d565b6000805b6005830154811015610c3c57336001600160a01b0316836005018281548110610c0757610c076128a1565b6000918252602090912001546001600160a01b031603610c2a5760019150610c3c565b80610c34816128cd565b915050610bdc565b5060005b6006830154811015610ca057336001600160a01b0316836006018281548110610c6b57610c6b6128a1565b6000918252602090912001546001600160a01b031603610c8e5760019150610ca0565b80610c98816128cd565b915050610c40565b508015610cfe5760405162461bcd60e51b815260206004820152602660248201527f596f75206861766520616c726561647920766f746564206f6e20746869732072604482015265195c5d595cdd60d21b606482015260840161069d565b60008981526007602090815260408083208b8452909152812090600182015460ff166004811115610d3157610d316126b8565b14610d7e5760405162461bcd60e51b815260206004820152601260248201527f52657175657374206973206e6f74206e65770000000000000000000000000000604482015260640161069d565b6005810180546001810182556000918252602082200180546001600160a01b0319163317905560038201805491610db4836128cd565b9091555050604080518a81523360208201528b917f4e5ce1cb06aa29af468a006340fa6dff0543170a81764ade02834a9c489922ea910160405180910390a260008a8152600660205260408120600c810154909190610e189060029060ff166128fc565b60ff1690508083600301541115610e3257610e3283612565565b505050505050505050505050565b6000546001600160a01b0316331480610e9d5760005b600154811015610e9b5760018181548110610e7357610e736128a1565b6000918252602090912001546001600160a01b03163303610e9357600191505b600101610e56565b505b80610efd5760405162461bcd60e51b815260206004820152602a60248201527f4f6e6c79206f776e6572206f722073746166662063616e2063616c6c207468696044820152693990333ab731ba34b7b760b11b606482015260840161069d565b6000838152600760209081526040808320858452909152902060018082015460ff166004811115610f3057610f306126b8565b14610fa35760405162461bcd60e51b815260206004820152603e60248201527f596f752063616e206f6e6c792066756c6c7920617070726f766520612072657160448201527f7565737420617070726f7665642062792074686520636f6d6d69747465650000606482015260840161069d565b60018101805460ff1916600290811790915560405185917fe5549c035383eeb8c2e776cb4280dd0853cb1a62324e9e4cd322b630915c0db491610fe791879161291e565b60405180910390a250505050565b6000546001600160a01b03163314806110525760005b6001548110156110505760018181548110611028576110286128a1565b6000918252602090912001546001600160a01b0316330361104857600191505b60010161100b565b505b806110b25760405162461bcd60e51b815260206004820152602a60248201527f4f6e6c79206f776e6572206f722073746166662063616e2063616c6c207468696044820152693990333ab731ba34b7b760b11b606482015260840161069d565b6000828152600660205260409020600581015483919060ff16156111185760405162461bcd60e51b815260206004820152601c60248201527f50726f6a65637420697320616c726561647920417070726f7665642100000000604482015260640161069d565b60008481526006602052604080822060058101805460ff191660011790559051909186917f5382406121492e13eb8b00a0122012025548dbd3b07f9b3184c26db775732b229190a25050505050565b6000828152600660209081526040808320600783528184208585529092528220600c8201549192909161119f9060029060ff166128fc565b60ff16905080826003015411156111be576111b982612565565b6111c7565b6111c7826125b8565b5050505050565b6000546001600160a01b031633148061122b5760005b6001548110156112295760018181548110611201576112016128a1565b6000918252602090912001546001600160a01b0316330361122157600191505b6001016111e4565b505b8061128b5760405162461bcd60e51b815260206004820152602a60248201527f4f6e6c79206f776e6572206f722073746166662063616e2063616c6c207468696044820152693990333ab731ba34b7b760b11b606482015260840161069d565b600082815260066020526040902060050154829060ff166113085760405162461bcd60e51b815260206004820152603160248201527f54686520616374696f6e2063616e206f6e6c792068617070656e206f6e20616e60448201527008185c1c1c9bdd9959081c1c9bda9958dd607a1b606482015260840161069d565b60008381526006602052604090206005810154849190610100900460ff166113985760405162461bcd60e51b815260206004820152603060248201527f54686520446f6e6174696f6e2050726f6a656374206973206e6f7420636c6f7360448201527f656420666f7220646f6e6174696f6e7300000000000000000000000000000000606482015260840161069d565b60008581526006602052604080822060058101805461ff00191690559051909187917fd312a8f16f4214218cb0334da9a62aa94a5bf7c208659435e4b35b5a4b7d44089190a2505050505050565b60008281526006602052604081208391805b600183015460ff8216101561144b57826001018160ff168154811061141f5761141f6128a1565b6000918252602090912001546001600160a01b03163303611443576001915061144b565b6001016113f8565b50806114bf5760405162461bcd60e51b815260206004820152603d60248201527f54686520616374696f6e2063616e206f6e6c7920626520706572666f726d656460448201527f206279206f7267616e697a657273206f66207468652070726f6a656374000000606482015260840161069d565b600085815260066020526040902060050154859060ff1661153c5760405162461bcd60e51b815260206004820152603160248201527f54686520616374696f6e2063616e206f6e6c792068617070656e206f6e20616e60448201527008185c1c1c9bdd9959081c1c9bda9958dd607a1b606482015260840161069d565b6000868152600760209081526040808320600380548552925282208881556001810180547fffffffffffffffffffffff00000000000000000000000000000000000000000016336101000217905560028101889055815490929091906115a1836128cd565b9190505550867f72edc12715c8390dc175c5974d223d1801990d7de2797ce9a476a9d6993260f860016003546115d79190612939565b60408051918252602082018a9052015b60405180910390a250505050505050565b6000546001600160a01b03163314806116555760005b600154811015611653576001818154811061162b5761162b6128a1565b6000918252602090912001546001600160a01b0316330361164b57600191505b60010161160e565b505b806116b55760405162461bcd60e51b815260206004820152602a60248201527f4f6e6c79206f776e6572206f722073746166662063616e2063616c6c207468696044820152693990333ab731ba34b7b760b11b606482015260840161069d565b600254600090815260066020526040902080548790829060ff1916600183818111156116e3576116e36126b8565b021790555085516116fd9060018301906020890190612603565b506002808201869055600382018590556004820184905560058201805461ffff19169055600060078301819055600883018190558154919061173e836128cd565b919050555060016002546117529190612939565b7fd2a5012dc4bd19dc1abee5a94a684343c01b625110482b114fc5124f5e37cb9f87876040516115e7929190612950565b6000818152600660205260409020600581015482919060ff1661180e5760405162461bcd60e51b815260206004820152602f60248201527f446f6e6174696f6e2063616e206f6e6c792068617070656e206f6e20616e206160448201527f7070726f7665642070726f6a6563740000000000000000000000000000000000606482015260840161069d565b6000815460ff166001811115611826576118266126b8565b0361198a576003810154429081116118a65760405162461bcd60e51b815260206004820152602d60248201527f446f6e6174696f6e2063616e6e6f742068617070656e206265666f726520736560448201527f6c656374656420706572696f6400000000000000000000000000000000000000606482015260840161069d565b8160040154811061191f5760405162461bcd60e51b815260206004820152602c60248201527f446f6e6174696f6e2063616e6e6f742068617070656e2061667465722073656c60448201527f656374656420706572696f640000000000000000000000000000000000000000606482015260840161069d565b6005820154610100900460ff166119845760405162461bcd60e51b8152602060048201526024808201527f54686520446f6e6174696f6e2050726f6a65637420686173206265656e20636c6044820152631bdcd95960e21b606482015260840161069d565b50611a09565b6005810154610100900460ff16611a095760405162461bcd60e51b815260206004820152603160248201527f54686520446f6e6174696f6e2050726f6a65637420686173206265656e20636c60448201527f6f73656420746f20646f6e6174696f6e73000000000000000000000000000000606482015260840161069d565b6000838152600660208181526040832091820180546001810182559084529083200180546001600160a01b0319163317905560078101805491923492611a509084906129a1565b909155505033600090815260098201602052604081208054349290611a769084906129a1565b925050819055503460046000828254611a8f91906129a1565b90915550506040805133815234602082015285917fe555da28bdb778f65d22794d88927ebaeca03f7de9d1b7d39245bc8fb5ca078a9101610fe7565b60008181526006602052604081208291805b600183015460ff82161015611b3057826001018160ff1681548110611b0457611b046128a1565b6000918252602090912001546001600160a01b03163303611b285760019150611b30565b600101611add565b5080611ba45760405162461bcd60e51b815260206004820152603d60248201527f54686520616374696f6e2063616e206f6e6c7920626520706572666f726d656460448201527f206279206f7267616e697a657273206f66207468652070726f6a656374000000606482015260840161069d565b60008481526006602052604090206005810154610100900460ff16611c0b5760405162461bcd60e51b815260206004820152601c60248201527f446f6e6174696f6e732061726520616c726561647920636c6f73656400000000604482015260640161069d565b60058101805461ff0019169055600681015480611c6a5760405162461bcd60e51b815260206004820152601460248201527f4e6f20646f6e6f727320746f2070726f63657373000000000000000000000000604482015260640161069d565b60008167ffffffffffffffff811115611c8557611c85612724565b604051908082528060200260200182016040528015611cae578160200160208202803683370190505b50905060008267ffffffffffffffff811115611ccc57611ccc612724565b604051908082528060200260200182016040528015611cf5578160200160208202803683370190505b50905060005b83811015611dc5576000856006018281548110611d1a57611d1a6128a1565b9060005260206000200160009054906101000a90046001600160a01b0316905080848381518110611d4d57611d4d6128a1565b60200260200101906001600160a01b031690816001600160a01b031681525050856009016000826001600160a01b03166001600160a01b0316815260200190815260200160002054838381518110611da757611da76128a1565b60209081029190910101525080611dbd816128cd565b915050611cfb565b5060005b611dd4600185612939565b811015611f785760005b6001611dea8387612939565b611df49190612939565b811015611f655782611e078260016129a1565b81518110611e1757611e176128a1565b6020026020010151838281518110611e3157611e316128a1565b60200260200101511015611f535782611e4b8260016129a1565b81518110611e5b57611e5b6128a1565b6020026020010151838281518110611e7557611e756128a1565b6020026020010151848381518110611e8f57611e8f6128a1565b6020026020010185846001611ea491906129a1565b81518110611eb457611eb46128a1565b60209081029190910101919091525283611ecf8260016129a1565b81518110611edf57611edf6128a1565b6020026020010151848281518110611ef957611ef96128a1565b6020026020010151858381518110611f1357611f136128a1565b6020026020010186846001611f2891906129a1565b81518110611f3857611f386128a1565b6001600160a01b039384166020918202929092010152911690525b80611f5d816128cd565b915050611dde565b5080611f70816128cd565b915050611dc9565b5060006064611f888560056129b9565b611f9291906129d8565b905060005b818110156120025785600a01848281518110611fb557611fb56128a1565b60209081029190910181015182546001810184556000938452919092200180546001600160a01b0319166001600160a01b0390921691909117905580611ffa816128cd565b915050611f97565b50600061200f8286612939565b9050600081116120875760405162461bcd60e51b815260206004820152602f60248201527f4e6f7420656e6f75676820646f6e6f727320746f2073656c6563742072616e6460448201527f6f6d20636f6e7472696275746f72730000000000000000000000000000000000606482015260840161069d565b60008167ffffffffffffffff8111156120a2576120a2612724565b6040519080825280602002602001820160405280156120cb578160200160208202803683370190505b5090506000835b8781101561213c578681815181106120ec576120ec6128a1565b6020026020010151838380612100906128cd565b945081518110612112576121126128a1565b6001600160a01b039092166020928302919091019091015280612134816128cd565b9150506120d2565b5060005b848110156121ab5788600b0183828151811061215e5761215e6128a1565b60209081029190910181015182546001810184556000938452919092200180546001600160a01b0319166001600160a01b03909216919091179055806121a3816128cd565b915050612140565b506001880154600b890154600a8a01546121c591906129a1565b6121cf91906129a1565b600c8901805460ff191660ff929092169190911790556040518c907fd312a8f16f4214218cb0334da9a62aa94a5bf7c208659435e4b35b5a4b7d440890600090a2505050505050505050505050565b60008281526006602052604081208391805b600183015460ff8216101561228357826001018160ff1681548110612257576122576128a1565b6000918252602090912001546001600160a01b0316330361227b5760019150612283565b600101612230565b50806122f75760405162461bcd60e51b815260206004820152603d60248201527f54686520616374696f6e2063616e206f6e6c7920626520706572666f726d656460448201527f206279206f7267616e697a657273206f66207468652070726f6a656374000000606482015260840161069d565b600085815260066020526040902060050154859060ff166123745760405162461bcd60e51b815260206004820152603160248201527f54686520616374696f6e2063616e206f6e6c792068617070656e206f6e20616e60448201527008185c1c1c9bdd9959081c1c9bda9958dd607a1b606482015260840161069d565b6000868152600760209081526040808320888452825280832089845260069092529091206002600183015460ff1660048111156123b3576123b36126b8565b146124265760405162461bcd60e51b815260206004820152603060248201527f52657175657374206d7573742062652066756c6c7920617070726f766564207460448201527f6f2077697468647261772066756e647300000000000000000000000000000000606482015260840161069d565b8160020154816007015410156124885760405162461bcd60e51b815260206004820152602160248201527f496e73756666696369656e742066756e647320696e207468652070726f6a65636044820152601d60fa1b606482015260840161069d565b81600201548160080160008282546124a091906129a1565b90915550506002820154600580546000906124bc9084906129a1565b9091555050600182018054600460ff19909116179081905560028301546040516101009092046001600160a01b0316916108fc82150291906000818181858888f19350505050158015612513573d6000803e3d6000fd5b50877fef687a8f1519b4c5091105cbc704634d2f17927ba995f9044c74476dc623c046888460020154604051612553929190918252602082015260400190565b60405180910390a25050505050505050565b6001818101805460ff1916909117905580546002820154604080519182523360208301527f4e5ce1cb06aa29af468a006340fa6dff0543170a81764ade02834a9c489922ea91015b60405180910390a250565b60018101805460ff1916600317905580546002820154604080519182523360208301527f5da50088d8738b46cc7b30926418d584e9e48e80847571b7e8884cdfabca0fed91016125ad565b828054828255906000526020600020908101928215612658579160200282015b8281111561265857825182546001600160a01b0319166001600160a01b03909116178255602090920191600190910190612623565b50612664929150612668565b5090565b5b808211156126645760008155600101612669565b6000806040838503121561269057600080fd5b50508035926020909101359150565b6000602082840312156126b157600080fd5b5035919050565b634e487b7160e01b600052602160045260246000fd5b610120810160028b106126e3576126e36126b8565b9981526020810198909852604088019690965260608701949094529115156080860152151560a085015260c084015260e083015260ff166101009091015290565b634e487b7160e01b600052604160045260246000fd5b80356001600160a01b038116811461275157600080fd5b919050565b600080600080600060a0868803121561276e57600080fd5b85356002811061277d57600080fd5b945060208681013567ffffffffffffffff8082111561279b57600080fd5b818901915089601f8301126127af57600080fd5b8135818111156127c1576127c1612724565b8060051b604051601f19603f830116810181811085821117156127e6576127e6612724565b60405291825284820192508381018501918c83111561280457600080fd5b938501935b828510156128295761281a8561273a565b84529385019392850192612809565b999c999b505050506040880135976060810135976080909101359650945050505050565b6005811061285d5761285d6126b8565b9052565b86815260c08101612875602083018861284d565b6001600160a01b03861660408301528460608301528360808301528260a0830152979650505050505050565b634e487b7160e01b600052603260045260246000fd5b634e487b7160e01b600052601160045260246000fd5b6000600182016128df576128df6128b7565b5060010190565b634e487b7160e01b600052601260045260246000fd5b600060ff83168061290f5761290f6128e6565b8060ff84160491505092915050565b82815260408101612932602083018461284d565b9392505050565b60008282101561294b5761294b6128b7565b500390565b604080825283519082018190526000906020906060840190828701845b828110156129925781516001600160a01b03168452928401929084019060010161296d565b50505092019290925292915050565b600082198211156129b4576129b46128b7565b500190565b60008160001904831182151516156129d3576129d36128b7565b500290565b6000826129e7576129e76128e6565b50049056fea164736f6c634300080e000a",
  "linkReferences": {},
  "deployedLinkReferences": {}
}