{
  "_format": "hh-sol-artifact-1",
  "contractName": "DonaTheta",
  "sourceName": "contracts/DonaTheta.sol",
  "abi": [
    {
      "inputs": [],
      "stateMutability": "payable",
      "type": "constructor"
    },
    {
      "anonymous": false,
      "inputs": [
        {
          "indexed": true,
          "internalType": "uint256",
          "name": "projectId",
          "type": "uint256"
        },
        {
          "indexed": false,
          "internalType": "address",
          "name": "donor",
          "type": "address"
        },
        {
          "indexed": false,
          "internalType": "uint256",
          "name": "amount",
          "type": "uint256"
        }
      ],
      "name": "DonationMade",
      "type": "event"
    },
    {
      "anonymous": false,
      "inputs": [
        {
          "indexed": true,
          "internalType": "uint256",
          "name": "projectId",
          "type": "uint256"
        }
      ],
      "name": "DonationProjectApproved",
      "type": "event"
    },
    {
      "anonymous": false,
      "inputs": [
        {
          "indexed": true,
          "internalType": "uint256",
          "name": "projectId",
          "type": "uint256"
        },
        {
          "indexed": false,
          "internalType": "address[]",
          "name": "organizers",
          "type": "address[]"
        },
        {
          "indexed": false,
          "internalType": "uint256",
          "name": "donationTarget",
          "type": "uint256"
        }
      ],
      "name": "DonationProjectCreated",
      "type": "event"
    },
    {
      "anonymous": false,
      "inputs": [
        {
          "indexed": true,
          "internalType": "uint256",
          "name": "projectId",
          "type": "uint256"
        }
      ],
      "name": "DonationProjectFinalized",
      "type": "event"
    },
    {
      "anonymous": false,
      "inputs": [
        {
          "indexed": true,
          "internalType": "uint256",
          "name": "projectId",
          "type": "uint256"
        },
        {
          "indexed": false,
          "internalType": "uint256",
          "name": "requestId",
          "type": "uint256"
        },
        {
          "indexed": false,
          "internalType": "uint256",
          "name": "amount",
          "type": "uint256"
        }
      ],
      "name": "WithdrawalExecuted",
      "type": "event"
    },
    {
      "inputs": [
        {
          "internalType": "address",
          "name": "member",
          "type": "address"
        }
      ],
      "name": "addDonaStaffMember",
      "outputs": [],
      "stateMutability": "nonpayable",
      "type": "function"
    },
    {
      "inputs": [
        {
          "internalType": "uint256",
          "name": "projectId",
          "type": "uint256"
        },
        {
          "internalType": "string",
          "name": "mediaItemName",
          "type": "string"
        },
        {
          "internalType": "string",
          "name": "mediaItemDescription",
          "type": "string"
        },
        {
          "internalType": "string",
          "name": "mediaItemUrl",
          "type": "string"
        },
        {
          "internalType": "enum DonaTheta.MediaItemType",
          "name": "mediaItemType",
          "type": "uint8"
        }
      ],
      "name": "addDonationProjectMediaItem",
      "outputs": [],
      "stateMutability": "nonpayable",
      "type": "function"
    },
    {
      "inputs": [
        {
          "internalType": "uint256",
          "name": "projectId",
          "type": "uint256"
        },
        {
          "internalType": "uint256",
          "name": "requestId",
          "type": "uint256"
        },
        {
          "internalType": "string",
          "name": "mediaItemName",
          "type": "string"
        },
        {
          "internalType": "string",
          "name": "mediaItemDescription",
          "type": "string"
        },
        {
          "internalType": "string",
          "name": "mediaItemUrl",
          "type": "string"
        },
        {
          "internalType": "enum DonaTheta.MediaItemType",
          "name": "mediaItemType",
          "type": "uint8"
        }
      ],
      "name": "addWithdrawalRequestMediaItem",
      "outputs": [],
      "stateMutability": "nonpayable",
      "type": "function"
    },
    {
      "inputs": [
        {
          "internalType": "uint256",
          "name": "projectId",
          "type": "uint256"
        }
      ],
      "name": "approveDonationProject",
      "outputs": [],
      "stateMutability": "nonpayable",
      "type": "function"
    },
    {
      "inputs": [
        {
          "internalType": "uint256",
          "name": "projectId",
          "type": "uint256"
        },
        {
          "internalType": "uint256",
          "name": "requestId",
          "type": "uint256"
        }
      ],
      "name": "approveWithdrawalRequest",
      "outputs": [],
      "stateMutability": "nonpayable",
      "type": "function"
    },
    {
      "inputs": [
        {
          "internalType": "enum DonaTheta.DonationPeriodType",
          "name": "donationPeriodType",
          "type": "uint8"
        },
        {
          "internalType": "string",
          "name": "projectName",
          "type": "string"
        },
        {
          "internalType": "string",
          "name": "projectDescription",
          "type": "string"
        },
        {
          "internalType": "address[]",
          "name": "organizers",
          "type": "address[]"
        },
        {
          "internalType": "uint256",
          "name": "donationTarget",
          "type": "uint256"
        },
        {
          "internalType": "uint256",
          "name": "startDonationDate",
          "type": "uint256"
        },
        {
          "internalType": "uint256",
          "name": "endDonationDate",
          "type": "uint256"
        }
      ],
      "name": "createDonationProject",
      "outputs": [],
      "stateMutability": "nonpayable",
      "type": "function"
    },
    {
      "inputs": [
        {
          "internalType": "uint256",
          "name": "projectId",
          "type": "uint256"
        },
        {
          "internalType": "string",
          "name": "requestName",
          "type": "string"
        },
        {
          "internalType": "string",
          "name": "requestDescription",
          "type": "string"
        },
        {
          "internalType": "uint256",
          "name": "amount",
          "type": "uint256"
        }
      ],
      "name": "createWithdrawalRequest",
      "outputs": [],
      "stateMutability": "nonpayable",
      "type": "function"
    },
    {
      "inputs": [
        {
          "internalType": "uint256",
          "name": "projectId",
          "type": "uint256"
        },
        {
          "internalType": "uint256",
          "name": "mediaItemIndex",
          "type": "uint256"
        },
        {
          "internalType": "enum DonaTheta.MediaItemType",
          "name": "mediaItemType",
          "type": "uint8"
        }
      ],
      "name": "deleteDonationProjectMediaItem",
      "outputs": [],
      "stateMutability": "nonpayable",
      "type": "function"
    },
    {
      "inputs": [
        {
          "internalType": "uint256",
          "name": "projectId",
          "type": "uint256"
        },
        {
          "internalType": "uint256",
          "name": "requestId",
          "type": "uint256"
        },
        {
          "internalType": "uint256",
          "name": "mediaItemIndex",
          "type": "uint256"
        },
        {
          "internalType": "enum DonaTheta.MediaItemType",
          "name": "mediaItemType",
          "type": "uint8"
        }
      ],
      "name": "deleteWithdrawalRequestMediaItem",
      "outputs": [],
      "stateMutability": "nonpayable",
      "type": "function"
    },
    {
      "inputs": [
        {
          "internalType": "uint256",
          "name": "projectId",
          "type": "uint256"
        },
        {
          "internalType": "uint256",
          "name": "mediaItemIndex",
          "type": "uint256"
        },
        {
          "internalType": "string",
          "name": "mediaItemName",
          "type": "string"
        },
        {
          "internalType": "string",
          "name": "mediaItemDescription",
          "type": "string"
        },
        {
          "internalType": "string",
          "name": "mediaItemUrl",
          "type": "string"
        },
        {
          "internalType": "enum DonaTheta.MediaItemType",
          "name": "mediaItemType",
          "type": "uint8"
        }
      ],
      "name": "editDonationProjectMediaItem",
      "outputs": [],
      "stateMutability": "nonpayable",
      "type": "function"
    },
    {
      "inputs": [
        {
          "internalType": "uint256",
          "name": "projectId",
          "type": "uint256"
        },
        {
          "internalType": "uint256",
          "name": "requestId",
          "type": "uint256"
        },
        {
          "internalType": "uint256",
          "name": "mediaItemIndex",
          "type": "uint256"
        },
        {
          "internalType": "string",
          "name": "mediaItemName",
          "type": "string"
        },
        {
          "internalType": "string",
          "name": "mediaItemDescription",
          "type": "string"
        },
        {
          "internalType": "string",
          "name": "mediaItemUrl",
          "type": "string"
        },
        {
          "internalType": "enum DonaTheta.MediaItemType",
          "name": "mediaItemType",
          "type": "uint8"
        }
      ],
      "name": "editWithdrawalRequestMediaItem",
      "outputs": [],
      "stateMutability": "nonpayable",
      "type": "function"
    },
    {
      "inputs": [
        {
          "internalType": "uint256",
          "name": "_projectId",
          "type": "uint256"
        }
      ],
      "name": "finalizeDonations",
      "outputs": [],
      "stateMutability": "nonpayable",
      "type": "function"
    },
    {
      "inputs": [],
      "name": "getDonaStaffMembers",
      "outputs": [
        {
          "internalType": "address[]",
          "name": "",
          "type": "address[]"
        }
      ],
      "stateMutability": "view",
      "type": "function"
    },
    {
      "inputs": [
        {
          "internalType": "uint256",
          "name": "projectId",
          "type": "uint256"
        },
        {
          "internalType": "uint8",
          "name": "requestType",
          "type": "uint8"
        }
      ],
      "name": "getDonationProjectAddressDetails",
      "outputs": [
        {
          "internalType": "address[]",
          "name": "",
          "type": "address[]"
        }
      ],
      "stateMutability": "view",
      "type": "function"
    },
    {
      "inputs": [
        {
          "internalType": "uint256",
          "name": "projectId",
          "type": "uint256"
        },
        {
          "internalType": "enum DonaTheta.MediaItemType",
          "name": "mediaItemType",
          "type": "uint8"
        }
      ],
      "name": "getDonationProjectMediaItems",
      "outputs": [
        {
          "components": [
            {
              "internalType": "string",
              "name": "mediaItemName",
              "type": "string"
            },
            {
              "internalType": "string",
              "name": "mediaItemDescription",
              "type": "string"
            },
            {
              "internalType": "enum DonaTheta.MediaItemType",
              "name": "mediaItemType",
              "type": "uint8"
            },
            {
              "internalType": "string",
              "name": "mediaItemUrl",
              "type": "string"
            }
          ],
          "internalType": "struct DonaTheta.MediaItem[]",
          "name": "",
          "type": "tuple[]"
        }
      ],
      "stateMutability": "view",
      "type": "function"
    },
    {
      "inputs": [
        {
          "internalType": "uint256",
          "name": "projectId",
          "type": "uint256"
        },
        {
          "internalType": "uint8",
          "name": "requestType",
          "type": "uint8"
        }
      ],
      "name": "getDonationProjectNumericalDetails",
      "outputs": [
        {
          "internalType": "uint256",
          "name": "",
          "type": "uint256"
        }
      ],
      "stateMutability": "view",
      "type": "function"
    },
    {
      "inputs": [
        {
          "internalType": "uint256",
          "name": "projectId",
          "type": "uint256"
        },
        {
          "internalType": "uint256",
          "name": "requestType",
          "type": "uint256"
        }
      ],
      "name": "getDonationProjectTextDetails",
      "outputs": [
        {
          "internalType": "string",
          "name": "",
          "type": "string"
        }
      ],
      "stateMutability": "view",
      "type": "function"
    },
    {
      "inputs": [],
      "name": "getUnapprovedDonationProjects",
      "outputs": [
        {
          "internalType": "uint256[]",
          "name": "",
          "type": "uint256[]"
        }
      ],
      "stateMutability": "view",
      "type": "function"
    },
    {
      "inputs": [
        {
          "internalType": "uint256",
          "name": "requestType",
          "type": "uint256"
        }
      ],
      "name": "getUserProjects",
      "outputs": [
        {
          "internalType": "uint256[]",
          "name": "",
          "type": "uint256[]"
        }
      ],
      "stateMutability": "view",
      "type": "function"
    },
    {
      "inputs": [
        {
          "internalType": "uint256",
          "name": "projectId",
          "type": "uint256"
        },
        {
          "internalType": "uint256",
          "name": "requestId",
          "type": "uint256"
        },
        {
          "internalType": "uint8",
          "name": "requestType",
          "type": "uint8"
        }
      ],
      "name": "getWithdrawalRequestAddressesDetails",
      "outputs": [
        {
          "internalType": "address[]",
          "name": "",
          "type": "address[]"
        }
      ],
      "stateMutability": "view",
      "type": "function"
    },
    {
      "inputs": [
        {
          "internalType": "uint256",
          "name": "projectId",
          "type": "uint256"
        },
        {
          "internalType": "uint256",
          "name": "requestId",
          "type": "uint256"
        },
        {
          "internalType": "enum DonaTheta.MediaItemType",
          "name": "mediaItemType",
          "type": "uint8"
        }
      ],
      "name": "getWithdrawalRequestMediaItems",
      "outputs": [
        {
          "components": [
            {
              "internalType": "string",
              "name": "mediaItemName",
              "type": "string"
            },
            {
              "internalType": "string",
              "name": "mediaItemDescription",
              "type": "string"
            },
            {
              "internalType": "enum DonaTheta.MediaItemType",
              "name": "mediaItemType",
              "type": "uint8"
            },
            {
              "internalType": "string",
              "name": "mediaItemUrl",
              "type": "string"
            }
          ],
          "internalType": "struct DonaTheta.MediaItem[]",
          "name": "",
          "type": "tuple[]"
        }
      ],
      "stateMutability": "view",
      "type": "function"
    },
    {
      "inputs": [
        {
          "internalType": "uint256",
          "name": "projectId",
          "type": "uint256"
        },
        {
          "internalType": "uint256",
          "name": "requestId",
          "type": "uint256"
        },
        {
          "internalType": "uint8",
          "name": "requestType",
          "type": "uint8"
        }
      ],
      "name": "getWithdrawalRequestNumericalDetails",
      "outputs": [
        {
          "internalType": "uint256",
          "name": "",
          "type": "uint256"
        }
      ],
      "stateMutability": "view",
      "type": "function"
    },
    {
      "inputs": [
        {
          "internalType": "uint256",
          "name": "projectId",
          "type": "uint256"
        },
        {
          "internalType": "uint256",
          "name": "requestId",
          "type": "uint256"
        }
      ],
      "name": "getWithdrawalRequestOwner",
      "outputs": [
        {
          "internalType": "address",
          "name": "",
          "type": "address"
        }
      ],
      "stateMutability": "view",
      "type": "function"
    },
    {
      "inputs": [
        {
          "internalType": "uint256",
          "name": "projectId",
          "type": "uint256"
        },
        {
          "internalType": "uint256",
          "name": "requestId",
          "type": "uint256"
        },
        {
          "internalType": "uint8",
          "name": "requestType",
          "type": "uint8"
        }
      ],
      "name": "getWithdrawalRequestTextDetails",
      "outputs": [
        {
          "internalType": "string",
          "name": "",
          "type": "string"
        }
      ],
      "stateMutability": "view",
      "type": "function"
    },
    {
      "inputs": [],
      "name": "isUserDonaStaff",
      "outputs": [
        {
          "internalType": "bool",
          "name": "",
          "type": "bool"
        }
      ],
      "stateMutability": "view",
      "type": "function"
    },
    {
      "inputs": [
        {
          "internalType": "uint256",
          "name": "projectId",
          "type": "uint256"
        }
      ],
      "name": "makeDonation",
      "outputs": [],
      "stateMutability": "payable",
      "type": "function"
    },
    {
      "inputs": [],
      "name": "numberOfDonationProjects",
      "outputs": [
        {
          "internalType": "uint256",
          "name": "",
          "type": "uint256"
        }
      ],
      "stateMutability": "view",
      "type": "function"
    },
    {
      "inputs": [],
      "name": "owner",
      "outputs": [
        {
          "internalType": "address payable",
          "name": "",
          "type": "address"
        }
      ],
      "stateMutability": "view",
      "type": "function"
    },
    {
      "inputs": [
        {
          "internalType": "uint256",
          "name": "projectId",
          "type": "uint256"
        },
        {
          "internalType": "uint256",
          "name": "requestId",
          "type": "uint256"
        }
      ],
      "name": "rejectWithdrawalRequest",
      "outputs": [],
      "stateMutability": "nonpayable",
      "type": "function"
    },
    {
      "inputs": [],
      "name": "totalDonationsReceived",
      "outputs": [
        {
          "internalType": "uint256",
          "name": "",
          "type": "uint256"
        }
      ],
      "stateMutability": "view",
      "type": "function"
    },
    {
      "inputs": [],
      "name": "totalDonationsUtilized",
      "outputs": [
        {
          "internalType": "uint256",
          "name": "",
          "type": "uint256"
        }
      ],
      "stateMutability": "view",
      "type": "function"
    },
    {
      "inputs": [],
      "name": "totalTargetAmount",
      "outputs": [
        {
          "internalType": "uint256",
          "name": "",
          "type": "uint256"
        }
      ],
      "stateMutability": "view",
      "type": "function"
    },
    {
      "inputs": [
        {
          "internalType": "uint256",
          "name": "projectId",
          "type": "uint256"
        },
        {
          "internalType": "uint256",
          "name": "requestId",
          "type": "uint256"
        }
      ],
      "name": "withdrawFunds",
      "outputs": [],
      "stateMutability": "nonpayable",
      "type": "function"
    }
  ],
  "bytecode": "0x60806040526000600281905560038190556004819055600581905580546001600160a01b03191633179055615c5e806100396000396000f3fe6080604052600436106101fe5760003560e01c8063a80098b01161011d578063dd931eec116100b0578063f49e73001161007f578063fcc686a911610064578063fcc686a914610653578063fce2e92714610673578063fec3afed1461069357600080fd5b8063f49e73001461060e578063fb812a0b1461063357600080fd5b8063dd931eec1461058e578063e25edc31146105ae578063e5253105146105ce578063f3bf0888146105ee57600080fd5b8063b42766fa116100ec578063b42766fa146104ff578063b7aebde21461052c578063c2d1a1af1461054c578063d630b8121461056e57600080fd5b8063a80098b014610489578063a98b15f01461049f578063b00d29e8146104cc578063b219f916146104ec57600080fd5b8063708cdfe6116101955780638da5cb5b116101645780638da5cb5b146104115780639eef250c14610431578063a17a37dd14610453578063a7dbcb761461046957600080fd5b8063708cdfe61461035a5780638398b7c11461037a578063862e2fc81461039a57806387a7fcbc146103b057600080fd5b806331b03254116101d157806331b03254146102da5780633866b6a3146102fa57806356c6ebfe1461031a57806359f822ae1461033a57600080fd5b806322043b5c146102035780632a957529146102255780632b95b559146102915780633138f026146102ba575b600080fd5b34801561020f57600080fd5b5061022361021e36600461543b565b6106b3565b005b34801561023157600080fd5b506102236102403660046154fd565b6001805480820182556000919091527fb10e2d527612073b26eecdfd717e6a320cf44b4afac2b0732d9fcbe2b7fa0cf60180546001600160a01b0319166001600160a01b0392909216919091179055565b34801561029d57600080fd5b506102a760035481565b6040519081526020015b60405180910390f35b3480156102c657600080fd5b506102236102d5366004615518565b6109fd565b3480156102e657600080fd5b506102a76102f536600461554b565b610e7f565b34801561030657600080fd5b50610223610315366004615518565b61101e565b34801561032657600080fd5b50610223610335366004615580565b61148b565b34801561034657600080fd5b506102a7610355366004615599565b6116ba565b34801561036657600080fd5b5061022361037536600461564c565b611869565b34801561038657600080fd5b50610223610395366004615706565b611bae565b3480156103a657600080fd5b506102a760045481565b3480156103bc57600080fd5b506103f96103cb366004615518565b600091825260086020908152604080842092845291905290206001015461010090046001600160a01b031690565b6040516001600160a01b0390911681526020016102b1565b34801561041d57600080fd5b506000546103f9906001600160a01b031681565b34801561043d57600080fd5b50610446611e88565b6040516102b191906157a9565b34801561045f57600080fd5b506102a760025481565b34801561047557600080fd5b506102236104843660046157ed565b611ee0565b34801561049557600080fd5b506102a760055481565b3480156104ab57600080fd5b506104bf6104ba36600461554b565b61221d565b6040516102b19190615879565b3480156104d857600080fd5b506102236104e736600461588c565b612308565b6102236104fa366004615580565b61258d565b34801561050b57600080fd5b5061051f61051a366004615942565b612692565b6040516102b1919061597b565b34801561053857600080fd5b50610223610547366004615a46565b61301f565b34801561055857600080fd5b50610561613244565b6040516102b19190615abb565b34801561057a57600080fd5b5061051f610589366004615afc565b6132a5565b34801561059a57600080fd5b506104466105a9366004615580565b613c52565b3480156105ba57600080fd5b506102236105c9366004615580565b613d29565b3480156105da57600080fd5b506102236105e9366004615518565b61450c565b3480156105fa57600080fd5b50610561610609366004615599565b61486d565b34801561061a57600080fd5b50610623614a49565b60405190151581526020016102b1565b34801561063f57600080fd5b5061022361064e36600461543b565b614aaf565b34801561065f57600080fd5b5061022361066e366004615afc565b614cf9565b34801561067f57600080fd5b5061056161068e36600461554b565b615009565b34801561069f57600080fd5b506104bf6106ae366004615518565b615108565b60008681526007602052604081208791805b600483015460ff8216101561071857826004018160ff16815481106106ec576106ec615b28565b6000918252602090912001546001600160a01b031633036107105760019150610718565b6001016106c5565b50806107915760405162461bcd60e51b815260206004820152603d60248201527f54686520616374696f6e2063616e206f6e6c7920626520706572666f726d656460448201527f206279206f7267616e697a657273206f66207468652070726f6a65637400000060648201526084015b60405180910390fd5b600060405180608001604052808981526020018881526020018660038111156107bc576107bc615965565b8152602001879052905060008560038111156107da576107da615965565b0361088c5760008a81526008602090815260408083208c845282528220600490810180546001810182559084529282902084518051869590930290910192610827928492909101906151cf565b50602082810151805161084092600185019201906151cf565b50604082015160028201805460ff1916600183600381111561086457610864615965565b0217905550606082015180516108849160038401916020909101906151cf565b5050506109f1565b60028560038111156108a0576108a0615965565b036108eb5760008a81526008602090815260408083208c84528252822060060180546001810182559083529181902083518051859460040290920192610827928492909101906151cf565b60018560038111156108ff576108ff615965565b0361094a5760008a81526008602090815260408083208c84528252822060050180546001810182559083529181902083518051859460040290920192610827928492909101906151cf565b600385600381111561095e5761095e615965565b036109a95760008a81526008602090815260408083208c84528252822060070180546001810182559083529181902083518051859460040290920192610827928492909101906151cf565b60405162461bcd60e51b815260206004820152601760248201527f496e76616c6964206d65646961206974656d20747970650000000000000000006044820152606401610788565b50505050505050505050565b60008281526007602052604081208391805b601283015460ff82161015610a6257826012018160ff1681548110610a3657610a36615b28565b6000918252602090912001546001600160a01b03163303610a5a5760019150610a62565b600101610a0f565b5080610ac05760005b601383015460ff82161015610abe57826013018160ff1681548110610a9257610a92615b28565b6000918252602090912001546001600160a01b03163303610ab65760019150610abe565b600101610a6b565b505b80610b1d5760005b600483015460ff82161015610b1b57826004018160ff1681548110610aef57610aef615b28565b6000918252602090912001546001600160a01b03163303610b135760019150610b1b565b600101610ac8565b505b80610ba45760405162461bcd60e51b815260206004820152604b60248201527f5468697320616374696f6e2063616e206f6e6c7920626520706572666f726d6560448201527f64206279206d656d62657273206f662054686520446f6e6120417070726f766160648201526a6c20436f6d6d697474656560a81b608482015260a401610788565b60008581526008602090815260408083208784529091529020859085906003600182015460ff166003811115610bdc57610bdc615965565b03610c415760405162461bcd60e51b815260206004820152602f60248201527f596f752063616e6e6f7420766f7465206f6e20616e20616c726561647920776960448201526e1d1a191c985ddb881c995c5d595cdd608a1b6064820152608401610788565b6000805b600b830154811015610ca557336001600160a01b031683600b018281548110610c7057610c70615b28565b6000918252602090912001546001600160a01b031603610c935760019150610ca5565b80610c9d81615b54565b915050610c45565b5060005b600c830154811015610d0957336001600160a01b031683600c018281548110610cd457610cd4615b28565b6000918252602090912001546001600160a01b031603610cf75760019150610d09565b80610d0181615b54565b915050610ca9565b508015610d675760405162461bcd60e51b815260206004820152602660248201527f596f75206861766520616c726561647920766f746564206f6e20746869732072604482015265195c5d595cdd60d21b6064820152608401610788565b60008981526008602090815260408083208b8452909152812090600182015460ff166003811115610d9a57610d9a615965565b14610de75760405162461bcd60e51b815260206004820152601260248201527f52657175657374206973206e6f74206e657700000000000000000000000000006044820152606401610788565b600c810180546001810182556000918252602082200180546001600160a01b03191633179055600a8201805491610e1d83615b54565b909155505060008a81526007602052604081206014810154909190610e479060029060ff16615b83565b60ff1690508083600a01541115610e71576001808401805460029260ff1990911690835b02179055505b505050505050505050505050565b60008160ff16600003610eae575060008381526008602081815260408084208685529091529091200154611017565b8160ff16600103610f4d576000848152600860209081526040808320868452909152902060019081015460ff1690816003811115610eee57610eee615965565b03610efd576001915050611017565b6002816003811115610f1157610f11615965565b03610f20576002915050611017565b6003816003811115610f3457610f34615965565b03610f43576003915050611017565b6000915050611017565b8160ff16600203610f7b57506000838152600860209081526040808320858452909152902060090154611017565b8160ff16600303610fa9575060008381526008602090815260408083208584529091529020600a0154611017565b8160ff16600403610fcf575060008381526007602052604090206014015460ff16611017565b60405162461bcd60e51b815260206004820152601460248201527f496e76616c6964205265717565737420547970650000000000000000000000006044820152606401610788565b9392505050565b60008281526007602052604081208391805b601283015460ff8216101561108357826012018160ff168154811061105757611057615b28565b6000918252602090912001546001600160a01b0316330361107b5760019150611083565b600101611030565b50806110e15760005b601383015460ff821610156110df57826013018160ff16815481106110b3576110b3615b28565b6000918252602090912001546001600160a01b031633036110d757600191506110df565b60010161108c565b505b8061113e5760005b600483015460ff8216101561113c57826004018160ff168154811061111057611110615b28565b6000918252602090912001546001600160a01b03163303611134576001915061113c565b6001016110e9565b505b806111c55760405162461bcd60e51b815260206004820152604b60248201527f5468697320616374696f6e2063616e206f6e6c7920626520706572666f726d6560448201527f64206279206d656d62657273206f662054686520446f6e6120417070726f766160648201526a6c20436f6d6d697474656560a81b608482015260a401610788565b60008581526008602090815260408083208784529091529020859085906003600182015460ff1660038111156111fd576111fd615965565b036112625760405162461bcd60e51b815260206004820152602f60248201527f596f752063616e6e6f7420766f7465206f6e20616e20616c726561647920776960448201526e1d1a191c985ddb881c995c5d595cdd608a1b6064820152608401610788565b6000805b600b8301548110156112c657336001600160a01b031683600b01828154811061129157611291615b28565b6000918252602090912001546001600160a01b0316036112b457600191506112c6565b806112be81615b54565b915050611266565b5060005b600c83015481101561132a57336001600160a01b031683600c0182815481106112f5576112f5615b28565b6000918252602090912001546001600160a01b031603611318576001915061132a565b8061132281615b54565b9150506112ca565b5080156113885760405162461bcd60e51b815260206004820152602660248201527f596f75206861766520616c726561647920766f746564206f6e20746869732072604482015265195c5d595cdd60d21b6064820152608401610788565b60008981526008602090815260408083208b8452909152812090600182015460ff1660038111156113bb576113bb615965565b146114085760405162461bcd60e51b815260206004820152601260248201527f52657175657374206973206e6f74206e657700000000000000000000000000006044820152606401610788565b600b810180546001810182556000918252602082200180546001600160a01b031916331790556009820180549161143e83615b54565b909155505060008a815260076020526040812060148101549091906114689060029060ff16615b83565b60ff1690508083600901541115610e71576001838101805460ff19168280610e6b565b6000546001600160a01b03163314806114ec5760005b6001548110156114ea57600181815481106114be576114be615b28565b6000918252602090912001546001600160a01b031633036114e257600191506114ea565b6001016114a1565b505b8061154c5760405162461bcd60e51b815260206004820152602a60248201527f4f6e6c79206f776e6572206f722073746166662063616e2063616c6c207468696044820152693990333ab731ba34b7b760b11b6064820152608401610788565b6000828152600760205260409020600c81015483919060ff16156115b25760405162461bcd60e51b815260206004820152601c60248201527f50726f6a65637420697320616c726561647920417070726f76656421000000006044820152606401610788565b6000848152600760205260408120600c8101805460ff19166001179055905b6006548110156116875785600682815481106115ef576115ef615b28565b906000526020600020015403611675576006805461160f90600190615ba5565b8154811061161f5761161f615b28565b90600052602060002001546006828154811061163d5761163d615b28565b600091825260209091200155600680548061165a5761165a615bbc565b60019003818190600052602060002001600090559055611687565b8061167f81615b54565b9150506115d1565b5060405185907f5382406121492e13eb8b00a0122012025548dbd3b07f9b3184c26db775732b2290600090a25050505050565b60008160ff166000036116dc5750600082815260076020526040902054611863565b8160ff16600103611711576000838152600760205260409020600c015460ff161561170957506001611863565b506000611863565b8160ff16600203611743576000838152600760205260409020600c0154610100900460ff161561170957506001611863565b8160ff166003036117665750600082815260076020526040902060050154611863565b8160ff1660040361178957506000828152600760205260409020600f0154611863565b8160ff166005036117ac5750600082815260076020526040902060100154611863565b8160ff166006036117cf57506000828152600760205260409020600e0154611863565b8160ff166007036117f25750600082815260076020526040902060060154611863565b8160ff16600803611816575060008281526007602081905260409091200154611863565b8160ff1660090361183957506000828152600760205260409020600d0154611863565b8160ff16600a03610fcf575060008281526007602090815260408083203384526011019091529020545b92915050565b6002546000908152600760205260409020600180820180548a9260ff1990911690838181111561189b5761189b615965565b021790555086516118b590600283019060208a01906151cf565b5085516118cb90600383019060208901906151cf565b506000805b865181101561192657336001600160a01b03168782815181106118f5576118f5615b28565b60200260200101516001600160a01b0316036119145760019150611926565b8061191e81615b54565b9150506118d0565b5080611a295760008651600161193c9190615bd2565b67ffffffffffffffff81111561195457611954615375565b60405190808252806020026020018201604052801561197d578160200160208202803683370190505b50905060005b87518110156119e25787818151811061199e5761199e615b28565b60200260200101518282815181106119b8576119b8615b28565b6001600160a01b0390921660209283029190910190910152806119da81615b54565b915050611983565b5033818851815181106119f7576119f7615b28565b6001600160a01b039092166020928302919091018201528151611a2291600486019190840190615253565b5050611a40565b8551611a3e9060048401906020890190615253565b505b6002548255600582018590556006820184905560078201839055600c8201805461ffff191690556000600f83018190556010830181905560038054879290611a89908490615bd2565b90915550600090505b6004830154811015611b5c5760096000846004018381548110611ab757611ab7615b28565b60009182526020808320909101546001600160a01b03168352828101939093526040909101812060025481546001810183559183529282200191909155600484018054600a92919084908110611b0f57611b0f615b28565b60009182526020808320909101546001600160a01b031683528281019390935260409091018120600254815460018101835591835292909120015580611b5481615b54565b915050611a92565b5060025460068054600181810183556000929092527ff652222313e28459528d920b65115c16c04f3efc82aaedc97be59f3f377c0d3f01829055611ba09190615bd2565b600255505050505050505050565b60008581526007602052604081208691805b600483015460ff82161015611c1357826004018160ff1681548110611be757611be7615b28565b6000918252602090912001546001600160a01b03163303611c0b5760019150611c13565b600101611bc0565b5080611c875760405162461bcd60e51b815260206004820152603d60248201527f54686520616374696f6e2063616e206f6e6c7920626520706572666f726d656460448201527f206279206f7267616e697a657273206f66207468652070726f6a6563740000006064820152608401610788565b60006040518060800160405280898152602001888152602001866003811115611cb257611cb2615965565b815260200187905290506000856003811115611cd057611cd0615965565b03611d78576000898152600760209081526040822060080180546001810182559083529181902083518051859460040290920192611d13928492909101906151cf565b506020828101518051611d2c92600185019201906151cf565b50604082015160028201805460ff19166001836003811115611d5057611d50615965565b021790555060608201518051611d709160038401916020909101906151cf565b505050611e7d565b6002856003811115611d8c57611d8c615965565b03611dcf5760008981526007602090815260408220600a0180546001810182559083529181902083518051859460040290920192611d13928492909101906151cf565b6001856003811115611de357611de3615965565b03611e26576000898152600760209081526040822060090180546001810182559083529181902083518051859460040290920192611d13928492909101906151cf565b6003856003811115611e3a57611e3a615965565b036109a95760008981526007602090815260408220600b0180546001810182559083529181902083518051859460040290920192611d13928492909101906151cf565b505050505050505050565b60606006805480602002602001604051908101604052809291908181526020018280548015611ed657602002820191906000526020600020905b815481526020019060010190808311611ec2575b5050505050905090565b6000546001600160a01b0316331480611f415760005b600154811015611f3f5760018181548110611f1357611f13615b28565b6000918252602090912001546001600160a01b03163303611f375760019150611f3f565b600101611ef6565b505b80611fa15760405162461bcd60e51b815260206004820152602a60248201527f4f6e6c79206f776e6572206f722073746166662063616e2063616c6c207468696044820152693990333ab731ba34b7b760b11b6064820152608401610788565b600080836003811115611fb657611fb6615965565b03611fdd57506000858152600860209081526040808320878452909152902060040161208a565b6002836003811115611ff157611ff1615965565b0361201857506000858152600860209081526040808320878452909152902060060161208a565b600183600381111561202c5761202c615965565b0361205357506000858152600860209081526040808320878452909152902060050161208a565b600383600381111561206757612067615965565b036109a95750600085815260086020908152604080832087845290915290206007015b805484106120da5760405162461bcd60e51b815260206004820152601860248201527f496e76616c6964204d65646961204974656d20496e64657800000000000000006044820152606401610788565b805481906120ea90600190615ba5565b815481106120fa576120fa615b28565b906000526020600020906004020181858154811061211a5761211a615b28565b9060005260206000209060040201600082018160000190805461213c90615bea565b6121479291906152a8565b50600182018160010190805461215c90615bea565b6121679291906152a8565b50600282810154908201805460ff9092169160ff1916600183600381111561219157612191615965565b021790555060038201816003019080546121aa90615bea565b6121b59291906152a8565b50905050808054806121c9576121c9615bbc565b600082815260208120600019909201916004830201906121e98282615323565b6121f7600183016000615323565b60028201805460ff19169055612211600383016000615323565b50509055505050505050565b60608160ff166000036122d65760008481526008602090815260408083208684529091529020600201805461225190615bea565b80601f016020809104026020016040519081016040528092919081815260200182805461227d90615bea565b80156122ca5780601f1061229f576101008083540402835291602001916122ca565b820191906000526020600020905b8154815290600101906020018083116122ad57829003601f168201915b50505050509050611017565b8160ff16600103610fcf5760008481526008602090815260408083208684529091529020600301805461225190615bea565b60008781526007602052604081208891805b600483015460ff8216101561236d57826004018160ff168154811061234157612341615b28565b6000918252602090912001546001600160a01b03163303612365576001915061236d565b60010161231a565b50806123e15760405162461bcd60e51b815260206004820152603d60248201527f54686520616374696f6e2063616e206f6e6c7920626520706572666f726d656460448201527f206279206f7267616e697a657273206f66207468652070726f6a6563740000006064820152608401610788565b6000808560038111156123f6576123f6615965565b0361241d575060008a81526008602090815260408083208c845290915290206004016124ca565b600285600381111561243157612431615965565b03612458575060008a81526008602090815260408083208c845290915290206006016124ca565b600185600381111561246c5761246c615965565b03612493575060008a81526008602090815260408083208c845290915290206005016124ca565b60038560038111156124a7576124a7615965565b036109a9575060008a81526008602090815260408083208c845290915290206007015b8054891061251a5760405162461bcd60e51b815260206004820152601860248201527f496e76616c6964204d65646961204974656d20496e64657800000000000000006044820152606401610788565b6000818a8154811061252e5761252e615b28565b60009182526020918290208b516004909202019250612552918391908c01906151cf565b50875161256890600183019060208b01906151cf565b50865161257e90600383019060208a01906151cf565b50505050505050505050505050565b6000818152600760205260408082208254915190926001600160a01b03909216913480156108fc02929091818181858888f193505050501580156125d5573d6000803e3d6000fd5b50600e810180546001810182556000918252602082200180546001600160a01b03191633179055600f82018054349290612610908490615bd2565b909155505033600090815260118201602052604081208054349290612636908490615bd2565b92505081905550346004600082825461264f9190615bd2565b90915550506040805133815234602082015283917fe555da28bdb778f65d22794d88927ebaeca03f7de9d1b7d39245bc8fb5ca078a910160405180910390a25050565b606060008260038111156126a8576126a8615965565b036128ff57600083815260076020908152604080832060080180548251818502810185019093528083529193909284015b828210156128f4578382906000526020600020906004020160405180608001604052908160008201805461270c90615bea565b80601f016020809104026020016040519081016040528092919081815260200182805461273890615bea565b80156127855780601f1061275a57610100808354040283529160200191612785565b820191906000526020600020905b81548152906001019060200180831161276857829003601f168201915b5050505050815260200160018201805461279e90615bea565b80601f01602080910402602001604051908101604052809291908181526020018280546127ca90615bea565b80156128175780601f106127ec57610100808354040283529160200191612817565b820191906000526020600020905b8154815290600101906020018083116127fa57829003601f168201915b5050509183525050600282015460209091019060ff16600381111561283e5761283e615965565b600381111561284f5761284f615965565b815260200160038201805461286390615bea565b80601f016020809104026020016040519081016040528092919081815260200182805461288f90615bea565b80156128dc5780601f106128b1576101008083540402835291602001916128dc565b820191906000526020600020905b8154815290600101906020018083116128bf57829003601f168201915b505050505081525050815260200190600101906126d9565b505050509050611863565b600282600381111561291357612913615965565b03612b5f576000838152600760209081526040808320600a0180548251818502810185019093528083529193909284015b828210156128f4578382906000526020600020906004020160405180608001604052908160008201805461297790615bea565b80601f01602080910402602001604051908101604052809291908181526020018280546129a390615bea565b80156129f05780601f106129c5576101008083540402835291602001916129f0565b820191906000526020600020905b8154815290600101906020018083116129d357829003601f168201915b50505050508152602001600182018054612a0990615bea565b80601f0160208091040260200160405190810160405280929190818152602001828054612a3590615bea565b8015612a825780601f10612a5757610100808354040283529160200191612a82565b820191906000526020600020905b815481529060010190602001808311612a6557829003601f168201915b5050509183525050600282015460209091019060ff166003811115612aa957612aa9615965565b6003811115612aba57612aba615965565b8152602001600382018054612ace90615bea565b80601f0160208091040260200160405190810160405280929190818152602001828054612afa90615bea565b8015612b475780601f10612b1c57610100808354040283529160200191612b47565b820191906000526020600020905b815481529060010190602001808311612b2a57829003601f168201915b50505050508152505081526020019060010190612944565b6001826003811115612b7357612b73615965565b03612dbf57600083815260076020908152604080832060090180548251818502810185019093528083529193909284015b828210156128f45783829060005260206000209060040201604051806080016040529081600082018054612bd790615bea565b80601f0160208091040260200160405190810160405280929190818152602001828054612c0390615bea565b8015612c505780601f10612c2557610100808354040283529160200191612c50565b820191906000526020600020905b815481529060010190602001808311612c3357829003601f168201915b50505050508152602001600182018054612c6990615bea565b80601f0160208091040260200160405190810160405280929190818152602001828054612c9590615bea565b8015612ce25780601f10612cb757610100808354040283529160200191612ce2565b820191906000526020600020905b815481529060010190602001808311612cc557829003601f168201915b5050509183525050600282015460209091019060ff166003811115612d0957612d09615965565b6003811115612d1a57612d1a615965565b8152602001600382018054612d2e90615bea565b80601f0160208091040260200160405190810160405280929190818152602001828054612d5a90615bea565b8015612da75780601f10612d7c57610100808354040283529160200191612da7565b820191906000526020600020905b815481529060010190602001808311612d8a57829003601f168201915b50505050508152505081526020019060010190612ba4565b6003826003811115612dd357612dd3615965565b036109a9576000838152600760209081526040808320600b0180548251818502810185019093528083529193909284015b828210156128f45783829060005260206000209060040201604051806080016040529081600082018054612e3790615bea565b80601f0160208091040260200160405190810160405280929190818152602001828054612e6390615bea565b8015612eb05780601f10612e8557610100808354040283529160200191612eb0565b820191906000526020600020905b815481529060010190602001808311612e9357829003601f168201915b50505050508152602001600182018054612ec990615bea565b80601f0160208091040260200160405190810160405280929190818152602001828054612ef590615bea565b8015612f425780601f10612f1757610100808354040283529160200191612f42565b820191906000526020600020905b815481529060010190602001808311612f2557829003601f168201915b5050509183525050600282015460209091019060ff166003811115612f6957612f69615965565b6003811115612f7a57612f7a615965565b8152602001600382018054612f8e90615bea565b80601f0160208091040260200160405190810160405280929190818152602001828054612fba90615bea565b80156130075780601f10612fdc57610100808354040283529160200191613007565b820191906000526020600020905b815481529060010190602001808311612fea57829003601f168201915b50505050508152505081526020019060010190612e04565b60008481526007602052604081208591805b600483015460ff8216101561308457826004018160ff168154811061305857613058615b28565b6000918252602090912001546001600160a01b0316330361307c5760019150613084565b600101613031565b50806130f85760405162461bcd60e51b815260206004820152603d60248201527f54686520616374696f6e2063616e206f6e6c7920626520706572666f726d656460448201527f206279206f7267616e697a657273206f66207468652070726f6a6563740000006064820152608401610788565b6000878152600760205260409020600c0154879060ff166131815760405162461bcd60e51b815260206004820152603160248201527f54686520616374696f6e2063616e206f6e6c792068617070656e206f6e20616e60448201527f20617070726f7665642070726f6a6563740000000000000000000000000000006064820152608401610788565b6000888152600760209081526040808320600d015460088352818420818552835292208a815560018101805460ff19169055895190916131c89160028401918c01906151cf565b5087516131de90600383019060208b01906151cf565b506001810180547fffffffffffffffffffffff0000000000000000000000000000000000000000ff1633610100021790556008810187905560008a8152600760205260408120600d0180549161323383615b54565b919050555050505050505050505050565b60606001805480602002602001604051908101604052809291908181526020018280548015611ed657602002820191906000526020600020905b81546001600160a01b0316815260019091019060200180831161327e575050505050905090565b606060008260038111156132bb576132bb615965565b0361351a576000848152600860209081526040808320868452825280832060040180548251818502810185019093528083529193909284015b8282101561350f578382906000526020600020906004020160405180608001604052908160008201805461332790615bea565b80601f016020809104026020016040519081016040528092919081815260200182805461335390615bea565b80156133a05780601f10613375576101008083540402835291602001916133a0565b820191906000526020600020905b81548152906001019060200180831161338357829003601f168201915b505050505081526020016001820180546133b990615bea565b80601f01602080910402602001604051908101604052809291908181526020018280546133e590615bea565b80156134325780601f1061340757610100808354040283529160200191613432565b820191906000526020600020905b81548152906001019060200180831161341557829003601f168201915b5050509183525050600282015460209091019060ff16600381111561345957613459615965565b600381111561346a5761346a615965565b815260200160038201805461347e90615bea565b80601f01602080910402602001604051908101604052809291908181526020018280546134aa90615bea565b80156134f75780601f106134cc576101008083540402835291602001916134f7565b820191906000526020600020905b8154815290600101906020018083116134da57829003601f168201915b505050505081525050815260200190600101906132f4565b505050509050611017565b600282600381111561352e5761352e615965565b03613782576000848152600860209081526040808320868452825280832060060180548251818502810185019093528083529193909284015b8282101561350f578382906000526020600020906004020160405180608001604052908160008201805461359a90615bea565b80601f01602080910402602001604051908101604052809291908181526020018280546135c690615bea565b80156136135780601f106135e857610100808354040283529160200191613613565b820191906000526020600020905b8154815290600101906020018083116135f657829003601f168201915b5050505050815260200160018201805461362c90615bea565b80601f016020809104026020016040519081016040528092919081815260200182805461365890615bea565b80156136a55780601f1061367a576101008083540402835291602001916136a5565b820191906000526020600020905b81548152906001019060200180831161368857829003601f168201915b5050509183525050600282015460209091019060ff1660038111156136cc576136cc615965565b60038111156136dd576136dd615965565b81526020016003820180546136f190615bea565b80601f016020809104026020016040519081016040528092919081815260200182805461371d90615bea565b801561376a5780601f1061373f5761010080835404028352916020019161376a565b820191906000526020600020905b81548152906001019060200180831161374d57829003601f168201915b50505050508152505081526020019060010190613567565b600182600381111561379657613796615965565b036139ea576000848152600860209081526040808320868452825280832060050180548251818502810185019093528083529193909284015b8282101561350f578382906000526020600020906004020160405180608001604052908160008201805461380290615bea565b80601f016020809104026020016040519081016040528092919081815260200182805461382e90615bea565b801561387b5780601f106138505761010080835404028352916020019161387b565b820191906000526020600020905b81548152906001019060200180831161385e57829003601f168201915b5050505050815260200160018201805461389490615bea565b80601f01602080910402602001604051908101604052809291908181526020018280546138c090615bea565b801561390d5780601f106138e25761010080835404028352916020019161390d565b820191906000526020600020905b8154815290600101906020018083116138f057829003601f168201915b5050509183525050600282015460209091019060ff16600381111561393457613934615965565b600381111561394557613945615965565b815260200160038201805461395990615bea565b80601f016020809104026020016040519081016040528092919081815260200182805461398590615bea565b80156139d25780601f106139a7576101008083540402835291602001916139d2565b820191906000526020600020905b8154815290600101906020018083116139b557829003601f168201915b505050505081525050815260200190600101906137cf565b60038260038111156139fe576139fe615965565b036109a9576000848152600860209081526040808320868452825280832060070180548251818502810185019093528083529193909284015b8282101561350f5783829060005260206000209060040201604051806080016040529081600082018054613a6a90615bea565b80601f0160208091040260200160405190810160405280929190818152602001828054613a9690615bea565b8015613ae35780601f10613ab857610100808354040283529160200191613ae3565b820191906000526020600020905b815481529060010190602001808311613ac657829003601f168201915b50505050508152602001600182018054613afc90615bea565b80601f0160208091040260200160405190810160405280929190818152602001828054613b2890615bea565b8015613b755780601f10613b4a57610100808354040283529160200191613b75565b820191906000526020600020905b815481529060010190602001808311613b5857829003601f168201915b5050509183525050600282015460209091019060ff166003811115613b9c57613b9c615965565b6003811115613bad57613bad615965565b8152602001600382018054613bc190615bea565b80601f0160208091040260200160405190810160405280929190818152602001828054613bed90615bea565b8015613c3a5780601f10613c0f57610100808354040283529160200191613c3a565b820191906000526020600020905b815481529060010190602001808311613c1d57829003601f168201915b50505050508152505081526020019060010190613a37565b606081600003613cbd573360009081526009602090815260409182902080548351818402810184019094528084529091830182828015613cb157602002820191906000526020600020905b815481526020019060010190808311613c9d575b50505050509050919050565b81600103610fcf57336000908152600a602090815260409182902080548351818402810184019094528084529091830182828015613cb15760200282019190600052602060002090815481526020019060010190808311613c9d5750505050509050919050565b919050565b60008181526007602052604081208291805b600483015460ff82161015613d8e57826004018160ff1681548110613d6257613d62615b28565b6000918252602090912001546001600160a01b03163303613d865760019150613d8e565b600101613d3b565b5080613e025760405162461bcd60e51b815260206004820152603d60248201527f54686520616374696f6e2063616e206f6e6c7920626520706572666f726d656460448201527f206279206f7267616e697a657273206f66207468652070726f6a6563740000006064820152608401610788565b6000848152600760205260409020600c810154610100900460ff16613e275750614506565b600c8101805461ff0019169055600e8101546000819003613e49575050614506565b60008167ffffffffffffffff811115613e6457613e64615375565b604051908082528060200260200182016040528015613e8d578160200160208202803683370190505b50905060008267ffffffffffffffff811115613eab57613eab615375565b604051908082528060200260200182016040528015613ed4578160200160208202803683370190505b50905060005b83811015613fa457600085600e018281548110613ef957613ef9615b28565b9060005260206000200160009054906101000a90046001600160a01b0316905080848381518110613f2c57613f2c615b28565b60200260200101906001600160a01b031690816001600160a01b031681525050856011016000826001600160a01b03166001600160a01b0316815260200190815260200160002054838381518110613f8657613f86615b28565b60209081029190910101525080613f9c81615b54565b915050613eda565b50600a8311156143dc5760005b613fbc600185615ba5565b8110156141605760005b6001613fd28387615ba5565b613fdc9190615ba5565b81101561414d5782613fef826001615bd2565b81518110613fff57613fff615b28565b602002602001015183828151811061401957614019615b28565b6020026020010151101561413b5782614033826001615bd2565b8151811061404357614043615b28565b602002602001015183828151811061405d5761405d615b28565b602002602001015184838151811061407757614077615b28565b602002602001018584600161408c9190615bd2565b8151811061409c5761409c615b28565b602090810291909101019190915252836140b7826001615bd2565b815181106140c7576140c7615b28565b60200260200101518482815181106140e1576140e1615b28565b60200260200101518583815181106140fb576140fb615b28565b60200260200101868460016141109190615bd2565b8151811061412057614120615b28565b6001600160a01b039384166020918202929092010152911690525b8061414581615b54565b915050613fc6565b508061415881615b54565b915050613fb1565b5060006064614170856005615c1e565b61417a9190615c3d565b905060005b8181101561423b578560120184828151811061419d5761419d615b28565b6020908102919091018101518254600181018455600093845291832090910180546001600160a01b0319166001600160a01b039092169190911790558451600a91908690849081106141f1576141f1615b28565b6020908102919091018101516001600160a01b031682528181019290925260400160009081208054600181018255908252919020018a90558061423381615b54565b91505061417f565b5060006142488286615ba5565b90508060000361425d57505050505050614506565b60008167ffffffffffffffff81111561427857614278615375565b6040519080825280602002602001820160405280156142a1578160200160208202803683370190505b5090506000835b87811015614312578681815181106142c2576142c2615b28565b60200260200101518383806142d690615b54565b9450815181106142e8576142e8615b28565b6001600160a01b03909216602092830291909101909101528061430a81615b54565b9150506142a8565b5060005b838110156143d2578860130183828151811061433457614334615b28565b6020908102919091018101518254600181018455600093845291832090910180546001600160a01b0319166001600160a01b039092169190911790558351600a919085908490811061438857614388615b28565b6020908102919091018101516001600160a01b031682528181019290925260400160009081208054600181018255908252919020018d9055806143ca81615b54565b915050614316565b505050505061449d565b60005b8381101561449b57846013018382815181106143fd576143fd615b28565b6020908102919091018101518254600181018455600093845291832090910180546001600160a01b0319166001600160a01b039092169190911790558351600a919085908490811061445157614451615b28565b6020908102919091018101516001600160a01b031682528181019290925260400160009081208054600181018255908252919020018990558061449381615b54565b9150506143df565b505b6004840154601385015460128601546144b69190615bd2565b6144c09190615bd2565b60148501805460ff191660ff9290921691909117905560405188907fd312a8f16f4214218cb0334da9a62aa94a5bf7c208659435e4b35b5a4b7d440890600090a2505050505b50505050565b60008281526007602052604081208391805b600483015460ff8216101561457157826004018160ff168154811061454557614545615b28565b6000918252602090912001546001600160a01b031633036145695760019150614571565b60010161451e565b50806145e55760405162461bcd60e51b815260206004820152603d60248201527f54686520616374696f6e2063616e206f6e6c7920626520706572666f726d656460448201527f206279206f7267616e697a657273206f66207468652070726f6a6563740000006064820152608401610788565b6000858152600760205260409020600c0154859060ff1661466e5760405162461bcd60e51b815260206004820152603160248201527f54686520616374696f6e2063616e206f6e6c792068617070656e206f6e20616e60448201527f20617070726f7665642070726f6a6563740000000000000000000000000000006064820152608401610788565b60008681526008602090815260408083208884528252808320898452600790925290912060018083015460ff1660038111156146ac576146ac615965565b1461471f5760405162461bcd60e51b815260206004820152603060248201527f52657175657374206d7573742062652066756c6c7920617070726f766564207460448201527f6f2077697468647261772066756e6473000000000000000000000000000000006064820152608401610788565b8160080154816010015482600f01546147389190615ba5565b10156147905760405162461bcd60e51b815260206004820152602160248201527f496e73756666696369656e742066756e647320696e207468652070726f6a65636044820152601d60fa1b6064820152608401610788565b81600801548160100160008282546147a89190615bd2565b90915550506008820154600580546000906147c4908490615bd2565b9091555050600182018054600360ff19909116179081905560088301546040516101009092046001600160a01b0316916108fc82150291906000818181858888f1935050505015801561481b573d6000803e3d6000fd5b50877fef687a8f1519b4c5091105cbc704634d2f17927ba995f9044c74476dc623c04688846008015460405161485b929190918252602082015260400190565b60405180910390a25050505050505050565b60608160ff166000036148e757600083815260076020908152604091829020600401805483518184028101840190945280845290918301828280156148db57602002820191906000526020600020905b81546001600160a01b031681526001909101906020018083116148bd575b50505050509050611863565b8160ff1660010361495d57600083815260076020908152604091829020600e01805483518184028101840190945280845290918301828280156148db576020028201919060005260206000209081546001600160a01b031681526001909101906020018083116148bd5750505050509050611863565b8160ff166002036149d357600083815260076020908152604091829020601201805483518184028101840190945280845290918301828280156148db576020028201919060005260206000209081546001600160a01b031681526001909101906020018083116148bd5750505050509050611863565b8160ff16600203610fcf57600083815260076020908152604091829020601301805483518184028101840190945280845290918301828280156148db576020028201919060005260206000209081546001600160a01b031681526001909101906020018083116148bd5750505050509050611863565b600080546001600160a01b0316331480613d245760005b600154811015614aa95760018181548110614a7d57614a7d615b28565b6000918252602090912001546001600160a01b03163303614aa15760019150614aa9565b600101614a60565b50919050565b60008681526007602052604081208791805b600483015460ff82161015614b1457826004018160ff1681548110614ae857614ae8615b28565b6000918252602090912001546001600160a01b03163303614b0c5760019150614b14565b600101614ac1565b5080614b885760405162461bcd60e51b815260206004820152603d60248201527f54686520616374696f6e2063616e206f6e6c7920626520706572666f726d656460448201527f206279206f7267616e697a657273206f66207468652070726f6a6563740000006064820152608401610788565b600080856003811115614b9d57614b9d615965565b03614bb957506000898152600760205260409020600801614c45565b6002856003811115614bcd57614bcd615965565b03614be957506000898152600760205260409020600a01614c45565b6001856003811115614bfd57614bfd615965565b03614c1957506000898152600760205260409020600901614c45565b6003856003811115614c2d57614c2d615965565b036109a957506000898152600760205260409020600b015b80548910614c955760405162461bcd60e51b815260206004820152601860248201527f496e76616c6964204d65646961204974656d20496e64657800000000000000006044820152606401610788565b6000818a81548110614ca957614ca9615b28565b60009182526020918290208b516004909202019250614ccd918391908c01906151cf565b508751614ce390600183019060208b01906151cf565b508651610e7190600383019060208a01906151cf565b6000546001600160a01b0316331480614d5a5760005b600154811015614d585760018181548110614d2c57614d2c615b28565b6000918252602090912001546001600160a01b03163303614d505760019150614d58565b600101614d0f565b505b80614dba5760405162461bcd60e51b815260206004820152602a60248201527f4f6e6c79206f776e6572206f722073746166662063616e2063616c6c207468696044820152693990333ab731ba34b7b760b11b6064820152608401610788565b600080836003811115614dcf57614dcf615965565b03614deb57506000848152600760205260409020600801614e77565b6002836003811115614dff57614dff615965565b03614e1b57506000848152600760205260409020600a01614e77565b6001836003811115614e2f57614e2f615965565b03614e4b57506000848152600760205260409020600901614e77565b6003836003811115614e5f57614e5f615965565b036109a957506000848152600760205260409020600b015b80548410614ec75760405162461bcd60e51b815260206004820152601860248201527f496e76616c6964204d65646961204974656d20496e64657800000000000000006044820152606401610788565b80548190614ed790600190615ba5565b81548110614ee757614ee7615b28565b9060005260206000209060040201818581548110614f0757614f07615b28565b90600052602060002090600402016000820181600001908054614f2990615bea565b614f349291906152a8565b506001820181600101908054614f4990615bea565b614f549291906152a8565b50600282810154908201805460ff9092169160ff19166001836003811115614f7e57614f7e615965565b02179055506003820181600301908054614f9790615bea565b614fa29291906152a8565b5090505080805480614fb657614fb6615bbc565b60008281526020812060001990920191600483020190614fd68282615323565b614fe4600183016000615323565b60028201805460ff19169055614ffe600383016000615323565b505090555050505050565b60608160ff1660000361508a576000848152600860209081526040808320868452825291829020600b01805483518184028101840190945280845290918301828280156122ca57602002820191906000526020600020905b81546001600160a01b031681526001909101906020018083116150615750505050509050611017565b8160ff16600103610fcf576000848152600860209081526040808320868452825291829020600c01805483518184028101840190945280845290918301828280156122ca576020028201919060005260206000209081546001600160a01b031681526001909101906020018083116150615750505050509050611017565b6060816000036151ab576000838152600760205260409020600201805461512e90615bea565b80601f016020809104026020016040519081016040528092919081815260200182805461515a90615bea565b80156148db5780601f1061517c576101008083540402835291602001916148db565b820191906000526020600020905b81548152906001019060200180831161518a57509394506118639350505050565b81600103610fcf576000838152600760205260409020600301805461512e90615bea565b8280546151db90615bea565b90600052602060002090601f0160209004810192826151fd5760008555615243565b82601f1061521657805160ff1916838001178555615243565b82800160010185558215615243579182015b82811115615243578251825591602001919060010190615228565b5061524f929150615360565b5090565b828054828255906000526020600020908101928215615243579160200282015b8281111561524357825182546001600160a01b0319166001600160a01b03909116178255602090920191600190910190615273565b8280546152b490615bea565b90600052602060002090601f0160209004810192826152d65760008555615243565b82601f106152e75780548555615243565b8280016001018555821561524357600052602060002091601f016020900482015b82811115615243578254825591600101919060010190615308565b50805461532f90615bea565b6000825580601f1061533f575050565b601f01602090049060005260206000209081019061535d9190615360565b50565b5b8082111561524f5760008155600101615361565b634e487b7160e01b600052604160045260246000fd5b604051601f8201601f1916810167ffffffffffffffff811182821017156153b4576153b4615375565b604052919050565b600082601f8301126153cd57600080fd5b813567ffffffffffffffff8111156153e7576153e7615375565b6153fa601f8201601f191660200161538b565b81815284602083860101111561540f57600080fd5b816020850160208301376000918101602001919091529392505050565b803560048110613d2457600080fd5b60008060008060008060c0878903121561545457600080fd5b8635955060208701359450604087013567ffffffffffffffff8082111561547a57600080fd5b6154868a838b016153bc565b9550606089013591508082111561549c57600080fd5b6154a88a838b016153bc565b945060808901359150808211156154be57600080fd5b506154cb89828a016153bc565b9250506154da60a0880161542c565b90509295509295509295565b80356001600160a01b0381168114613d2457600080fd5b60006020828403121561550f57600080fd5b611017826154e6565b6000806040838503121561552b57600080fd5b50508035926020909101359150565b803560ff81168114613d2457600080fd5b60008060006060848603121561556057600080fd5b83359250602084013591506155776040850161553a565b90509250925092565b60006020828403121561559257600080fd5b5035919050565b600080604083850312156155ac57600080fd5b823591506155bc6020840161553a565b90509250929050565b600082601f8301126155d657600080fd5b8135602067ffffffffffffffff8211156155f2576155f2615375565b8160051b61560182820161538b565b928352848101820192828101908785111561561b57600080fd5b83870192505b8483101561564157615632836154e6565b82529183019190830190615621565b979650505050505050565b600080600080600080600060e0888a03121561566757600080fd5b87356002811061567657600080fd5b9650602088013567ffffffffffffffff8082111561569357600080fd5b61569f8b838c016153bc565b975060408a01359150808211156156b557600080fd5b6156c18b838c016153bc565b965060608a01359150808211156156d757600080fd5b506156e48a828b016155c5565b979a969950949760808101359660a0820135965060c090910135945092505050565b600080600080600060a0868803121561571e57600080fd5b85359450602086013567ffffffffffffffff8082111561573d57600080fd5b61574989838a016153bc565b9550604088013591508082111561575f57600080fd5b61576b89838a016153bc565b9450606088013591508082111561578157600080fd5b5061578e888289016153bc565b92505061579d6080870161542c565b90509295509295909350565b6020808252825182820181905260009190848201906040850190845b818110156157e1578351835292840192918401916001016157c5565b50909695505050505050565b6000806000806080858703121561580357600080fd5b8435935060208501359250604085013591506158216060860161542c565b905092959194509250565b6000815180845260005b8181101561585257602081850181015186830182015201615836565b81811115615864576000602083870101525b50601f01601f19169290920160200192915050565b602081526000611017602083018461582c565b600080600080600080600060e0888a0312156158a757600080fd5b873596506020880135955060408801359450606088013567ffffffffffffffff808211156158d457600080fd5b6158e08b838c016153bc565b955060808a01359150808211156158f657600080fd5b6159028b838c016153bc565b945060a08a013591508082111561591857600080fd5b506159258a828b016153bc565b92505061593460c0890161542c565b905092959891949750929550565b6000806040838503121561595557600080fd5b823591506155bc6020840161542c565b634e487b7160e01b600052602160045260246000fd5b60006020808301818452808551808352604092508286019150828160051b8701018488016000805b84811015615a3757603f198a85030186528251608081518187526159c98288018261582c565b915050898201518682038b8801526159e1828261582c565b915050888201516004808210615a0457634e487b7160e01b865260218152602486fd5b50868a015260609182015186820392870192909252615a23818361582c565b978a019795505050918701916001016159a3565b50919998505050505050505050565b60008060008060808587031215615a5c57600080fd5b84359350602085013567ffffffffffffffff80821115615a7b57600080fd5b615a87888389016153bc565b94506040870135915080821115615a9d57600080fd5b50615aaa878288016153bc565b949793965093946060013593505050565b6020808252825182820181905260009190848201906040850190845b818110156157e15783516001600160a01b031683529284019291840191600101615ad7565b600080600060608486031215615b1157600080fd5b83359250602084013591506155776040850161542c565b634e487b7160e01b600052603260045260246000fd5b634e487b7160e01b600052601160045260246000fd5b600060018201615b6657615b66615b3e565b5060010190565b634e487b7160e01b600052601260045260246000fd5b600060ff831680615b9657615b96615b6d565b8060ff84160491505092915050565b600082821015615bb757615bb7615b3e565b500390565b634e487b7160e01b600052603160045260246000fd5b60008219821115615be557615be5615b3e565b500190565b600181811c90821680615bfe57607f821691505b602082108103614aa957634e487b7160e01b600052602260045260246000fd5b6000816000190483118215151615615c3857615c38615b3e565b500290565b600082615c4c57615c4c615b6d565b50049056fea164736f6c634300080e000a",
  "linkReferences": {},
  "deployedLinkReferences": {}
}