{"contracts/DonaTheta.sol":{"DonaTheta":{"abi":[{"inputs":[],"stateMutability":"nonpayable","type":"constructor"},{"anonymous":false,"inputs":[{"indexed":true,"internalType":"uint256","name":"projectId","type":"uint256"},{"indexed":false,"internalType":"address","name":"donor","type":"address"},{"indexed":false,"internalType":"uint256","name":"amount","type":"uint256"}],"name":"DonationMade","type":"event"},{"anonymous":false,"inputs":[{"indexed":true,"internalType":"uint256","name":"projectId","type":"uint256"}],"name":"DonationProjectApproved","type":"event"},{"anonymous":false,"inputs":[{"indexed":true,"internalType":"uint256","name":"projectId","type":"uint256"},{"indexed":false,"internalType":"address[]","name":"organizers","type":"address[]"},{"indexed":false,"internalType":"uint256","name":"donationTarget","type":"uint256"}],"name":"DonationProjectCreated","type":"event"},{"anonymous":false,"inputs":[{"indexed":true,"internalType":"uint256","name":"projectId","type":"uint256"}],"name":"DonationProjectFinalized","type":"event"},{"anonymous":false,"inputs":[{"indexed":true,"internalType":"uint256","name":"projectId","type":"uint256"},{"indexed":false,"internalType":"uint256","name":"requestId","type":"uint256"},{"indexed":false,"internalType":"uint256","name":"amount","type":"uint256"}],"name":"WithdrawalExecuted","type":"event"},{"anonymous":false,"inputs":[{"indexed":true,"internalType":"uint256","name":"projectId","type":"uint256"},{"indexed":false,"internalType":"uint256","name":"requestId","type":"uint256"},{"indexed":false,"internalType":"address","name":"approver","type":"address"}],"name":"WithdrawalRequestApproved","type":"event"},{"anonymous":false,"inputs":[{"indexed":true,"internalType":"uint256","name":"projectId","type":"uint256"},{"indexed":false,"internalType":"uint256","name":"requestId","type":"uint256"},{"indexed":false,"internalType":"uint256","name":"amount","type":"uint256"}],"name":"WithdrawalRequestCreated","type":"event"},{"anonymous":false,"inputs":[{"indexed":true,"internalType":"uint256","name":"projectId","type":"uint256"},{"indexed":false,"internalType":"uint256","name":"requestId","type":"uint256"},{"indexed":false,"internalType":"enum DonaTheta.WithdrawalRequestStatus","name":"status","type":"uint8"}],"name":"WithdrawalRequestFinalized","type":"event"},{"anonymous":false,"inputs":[{"indexed":true,"internalType":"uint256","name":"projectId","type":"uint256"},{"indexed":false,"internalType":"uint256","name":"requestId","type":"uint256"},{"indexed":false,"internalType":"address","name":"rejecter","type":"address"}],"name":"WithdrawalRequestRejected","type":"event"},{"inputs":[{"internalType":"uint256","name":"projectId","type":"uint256"}],"name":"approveDonationProject","outputs":[],"stateMutability":"nonpayable","type":"function"},{"inputs":[{"internalType":"uint256","name":"projectId","type":"uint256"},{"internalType":"uint256","name":"requestId","type":"uint256"}],"name":"approveWithdrawalRequest","outputs":[],"stateMutability":"nonpayable","type":"function"},{"inputs":[{"internalType":"enum DonaTheta.DonationPeriodType","name":"donationPeriodType","type":"uint8"},{"internalType":"address[]","name":"organizers","type":"address[]"},{"internalType":"uint256","name":"donationTarget","type":"uint256"},{"internalType":"uint256","name":"startDonationDate","type":"uint256"},{"internalType":"uint256","name":"endDonationDate","type":"uint256"}],"name":"createDonationProject","outputs":[],"stateMutability":"nonpayable","type":"function"},{"inputs":[{"internalType":"uint256","name":"projectId","type":"uint256"},{"internalType":"uint256","name":"amount","type":"uint256"}],"name":"createWithdrawalRequest","outputs":[],"stateMutability":"nonpayable","type":"function"},{"inputs":[],"name":"currentTimeStamp","outputs":[{"internalType":"uint256","name":"","type":"uint256"}],"stateMutability":"view","type":"function"},{"inputs":[{"internalType":"uint256","name":"","type":"uint256"}],"name":"donaStaff","outputs":[{"internalType":"address","name":"","type":"address"}],"stateMutability":"view","type":"function"},{"inputs":[{"internalType":"uint256","name":"","type":"uint256"}],"name":"donationProjects","outputs":[{"internalType":"enum DonaTheta.DonationPeriodType","name":"donationPeriodType","type":"uint8"},{"internalType":"uint256","name":"donationTarget","type":"uint256"},{"internalType":"uint256","name":"startDonationDate","type":"uint256"},{"internalType":"uint256","name":"endDonationDate","type":"uint256"},{"internalType":"bool","name":"isApproved","type":"bool"},{"internalType":"bool","name":"isOpenForDonations","type":"bool"},{"internalType":"uint256","name":"totalAmountDonated","type":"uint256"},{"internalType":"uint256","name":"totalAmountWithdrawn","type":"uint256"},{"internalType":"uint8","name":"totalDonaApprovalCommitteeMembers","type":"uint8"}],"stateMutability":"view","type":"function"},{"inputs":[{"internalType":"uint256","name":"_projectId","type":"uint256"}],"name":"finalizeDonations","outputs":[],"stateMutability":"nonpayable","type":"function"},{"inputs":[{"internalType":"uint256","name":"_projectId","type":"uint256"},{"internalType":"uint256","name":"_requestId","type":"uint256"}],"name":"fullyApproveWithdrawalRequest","outputs":[],"stateMutability":"nonpayable","type":"function"},{"inputs":[{"internalType":"uint256","name":"projectId","type":"uint256"}],"name":"fullyApproveWithdrawalRequest","outputs":[],"stateMutability":"nonpayable","type":"function"},{"inputs":[{"internalType":"uint256","name":"projectId","type":"uint256"}],"name":"getProjectDonatedFunds","outputs":[{"internalType":"uint256","name":"","type":"uint256"}],"stateMutability":"view","type":"function"},{"inputs":[{"internalType":"uint256","name":"projectId","type":"uint256"}],"name":"getProjectWithdrawnFunds","outputs":[{"internalType":"uint256","name":"","type":"uint256"}],"stateMutability":"view","type":"function"},{"inputs":[{"internalType":"uint256","name":"projectId","type":"uint256"}],"name":"makeDonation","outputs":[],"stateMutability":"payable","type":"function"},{"inputs":[],"name":"numberOfDonationProjects","outputs":[{"internalType":"uint256","name":"","type":"uint256"}],"stateMutability":"view","type":"function"},{"inputs":[],"name":"numberOfWithdrawalRequests","outputs":[{"internalType":"uint256","name":"","type":"uint256"}],"stateMutability":"view","type":"function"},{"inputs":[],"name":"owner","outputs":[{"internalType":"address","name":"","type":"address"}],"stateMutability":"view","type":"function"},{"inputs":[{"internalType":"uint256","name":"_projectId","type":"uint256"},{"internalType":"uint256","name":"_requestId","type":"uint256"}],"name":"recalculateWithdrawalRequestVotes","outputs":[],"stateMutability":"nonpayable","type":"function"},{"inputs":[{"internalType":"uint256","name":"projectId","type":"uint256"},{"internalType":"uint256","name":"requestId","type":"uint256"}],"name":"rejectWithdrawalRequest","outputs":[],"stateMutability":"nonpayable","type":"function"},{"inputs":[],"name":"totalDonationsReceived","outputs":[{"internalType":"uint256","name":"","type":"uint256"}],"stateMutability":"view","type":"function"},{"inputs":[],"name":"totalDonationsUtilized","outputs":[{"internalType":"uint256","name":"","type":"uint256"}],"stateMutability":"view","type":"function"},{"inputs":[{"internalType":"uint256","name":"projectId","type":"uint256"},{"internalType":"uint256","name":"requestId","type":"uint256"}],"name":"withdrawFunds","outputs":[],"stateMutability":"nonpayable","type":"function"},{"inputs":[{"internalType":"uint256","name":"","type":"uint256"},{"internalType":"uint256","name":"","type":"uint256"}],"name":"withdrawalRequests","outputs":[{"internalType":"uint256","name":"projectId","type":"uint256"},{"internalType":"enum DonaTheta.WithdrawalRequestStatus","name":"withdrawalRequestStatus","type":"uint8"},{"internalType":"address","name":"owner","type":"address"},{"internalType":"uint256","name":"withdrawAmount","type":"uint256"},{"internalType":"uint256","name":"numberOfApprovals","type":"uint256"},{"internalType":"uint256","name":"numberOfRejections","type":"uint256"}],"stateMutability":"view","type":"function"}],"evm":{"bytecode":{"linkReferences":{},"object":"60806040526000600255600060035534801561001a57600080fd5b50600080546001600160a01b031916331790556129f98061003c6000396000f3fe6080604052600436106101755760003560e01c806388cd1b63116100cb578063b219f9161161007f578063e25edc3111610059578063e25edc311461048a578063e5253105146104aa578063f4c88b69146104ca57600080fd5b8063b219f916146103d0578063da1c6daf146103e3578063da903d131461041357600080fd5b80638da5cb5b116100b05780638da5cb5b14610384578063a17a37dd146103a4578063a80098b0146103ba57600080fd5b806388cd1b631461034e5780638c2f8b311461036457600080fd5b806356ac0d651161012d5780635d24e9e7116101075780635d24e9e7146102f857806367dbca0e14610318578063862e2fc81461033857600080fd5b806356ac0d651461029857806356c6ebfe146102b857806356f9c416146102d857600080fd5b8063340a9a1c1161015e578063340a9a1c146101d95780633866b6a3146101f65780634b720bbf1461021657600080fd5b80633138f0261461017a5780633238d32f1461019c575b600080fd5b34801561018657600080fd5b5061019a61019536600461267d565b6104fa565b005b3480156101a857600080fd5b506101bc6101b736600461269f565b61096a565b6040516001600160a01b0390911681526020015b60405180910390f35b3480156101e557600080fd5b50425b6040519081526020016101d0565b34801561020257600080fd5b5061019a61021136600461267d565b610994565b34801561022257600080fd5b5061028361023136600461269f565b60066020526000908152604090208054600282015460038301546004840154600585015460078601546008870154600c9097015460ff9687169795969495939483811694610100909404811693911689565b6040516101d0999897969594939291906126ce565b3480156102a457600080fd5b5061019a6102b336600461267d565b610e40565b3480156102c457600080fd5b5061019a6102d336600461269f565b610ff5565b3480156102e457600080fd5b5061019a6102f336600461267d565b611167565b34801561030457600080fd5b5061019a61031336600461269f565b6111ce565b34801561032457600080fd5b5061019a61033336600461267d565b6113e6565b34801561034457600080fd5b506101e860045481565b34801561035a57600080fd5b506101e860035481565b34801561037057600080fd5b5061019a61037f366004612756565b6115f8565b34801561039057600080fd5b506000546101bc906001600160a01b031681565b3480156103b057600080fd5b506101e860025481565b3480156103c657600080fd5b506101e860055481565b61019a6103de36600461269f565b611783565b3480156103ef57600080fd5b506101e86103fe36600461269f565b60009081526006602052604090206008015490565b34801561041f57600080fd5b5061047861042e36600461267d565b600760209081526000928352604080842090915290825290208054600182015460028301546003840154600490940154929360ff8316936101009093046001600160a01b03169286565b6040516101d096959493929190612861565b34801561049657600080fd5b5061019a6104a536600461269f565b611acb565b3480156104b657600080fd5b5061019a6104c536600461267d565b61221e565b3480156104d657600080fd5b506101e86104e536600461269f565b60009081526006602052604090206007015490565b60008281526006602052604081208391805b600a83015460ff8216101561055f5782600a018160ff1681548110610533576105336128a1565b6000918252602090912001546001600160a01b03163303610557576001915061055f565b60010161050c565b50806105bd5760005b600b83015460ff821610156105bb5782600b018160ff168154811061058f5761058f6128a1565b6000918252602090912001546001600160a01b031633036105b357600191506105bb565b600101610568565b505b8061061a5760005b600183015460ff8216101561061857826001018160ff16815481106105ec576105ec6128a1565b6000918252602090912001546001600160a01b031633036106105760019150610618565b6001016105c5565b505b806106a65760405162461bcd60e51b815260206004820152604b60248201527f5468697320616374696f6e2063616e206f6e6c7920626520706572666f726d6560448201527f64206279206d656d62657273206f662054686520446f6e6120417070726f766160648201526a6c20436f6d6d697474656560a81b608482015260a4015b60405180910390fd5b60008581526007602090815260408083208784529091529020859085906004600182015460ff1660048111156106de576106de6126b8565b036107435760405162461bcd60e51b815260206004820152602f60248201527f596f752063616e6e6f7420766f7465206f6e20616e20616c726561647920776960448201526e1d1a191c985ddb881c995c5d595cdd608a1b606482015260840161069d565b6000805b60058301548110156107a757336001600160a01b0316836005018281548110610772576107726128a1565b6000918252602090912001546001600160a01b03160361079557600191506107a7565b8061079f816128cd565b915050610747565b5060005b600683015481101561080b57336001600160a01b03168360060182815481106107d6576107d66128a1565b6000918252602090912001546001600160a01b0316036107f9576001915061080b565b80610803816128cd565b9150506107ab565b5080156108695760405162461bcd60e51b815260206004820152602660248201527f596f75206861766520616c726561647920766f746564206f6e20746869732072604482015265195c5d595cdd60d21b606482015260840161069d565b60008981526007602090815260408083208b8452909152812090600182015460ff16600481111561089c5761089c6126b8565b146108e95760405162461bcd60e51b815260206004820152601260248201527f52657175657374206973206e6f74206e65770000000000000000000000000000604482015260640161069d565b6006810180546001810182556000918252602082200180546001600160a01b031916331790556004820180549161091f836128cd565b9091555050604080518a81523360208201528b917f5da50088d8738b46cc7b30926418d584e9e48e80847571b7e8884cdfabca0fed910160405180910390a250505050505050505050565b6001818154811061097a57600080fd5b6000918252602090912001546001600160a01b0316905081565b60008281526006602052604081208391805b600a83015460ff821610156109f95782600a018160ff16815481106109cd576109cd6128a1565b6000918252602090912001546001600160a01b031633036109f157600191506109f9565b6001016109a6565b5080610a575760005b600b83015460ff82161015610a555782600b018160ff1681548110610a2957610a296128a1565b6000918252602090912001546001600160a01b03163303610a4d5760019150610a55565b600101610a02565b505b80610ab45760005b600183015460ff82161015610ab257826001018160ff1681548110610a8657610a866128a1565b6000918252602090912001546001600160a01b03163303610aaa5760019150610ab2565b600101610a5f565b505b80610b3b5760405162461bcd60e51b815260206004820152604b60248201527f5468697320616374696f6e2063616e206f6e6c7920626520706572666f726d6560448201527f64206279206d656d62657273206f662054686520446f6e6120417070726f766160648201526a6c20436f6d6d697474656560a81b608482015260a40161069d565b60008581526007602090815260408083208784529091529020859085906004600182015460ff166004811115610b7357610b736126b8565b03610bd85760405162461bcd60e51b815260206004820152602f60248201527f596f752063616e6e6f7420766f7465206f6e20616e20616c726561647920776960448201526e1d1a191c985ddb881c995c5d595cdd608a1b606482015260840161069d565b6000805b6005830154811015610c3c57336001600160a01b0316836005018281548110610c0757610c076128a1565b6000918252602090912001546001600160a01b031603610c2a5760019150610c3c565b80610c34816128cd565b915050610bdc565b5060005b6006830154811015610ca057336001600160a01b0316836006018281548110610c6b57610c6b6128a1565b6000918252602090912001546001600160a01b031603610c8e5760019150610ca0565b80610c98816128cd565b915050610c40565b508015610cfe5760405162461bcd60e51b815260206004820152602660248201527f596f75206861766520616c726561647920766f746564206f6e20746869732072604482015265195c5d595cdd60d21b606482015260840161069d565b60008981526007602090815260408083208b8452909152812090600182015460ff166004811115610d3157610d316126b8565b14610d7e5760405162461bcd60e51b815260206004820152601260248201527f52657175657374206973206e6f74206e65770000000000000000000000000000604482015260640161069d565b6005810180546001810182556000918252602082200180546001600160a01b0319163317905560038201805491610db4836128cd565b9091555050604080518a81523360208201528b917f4e5ce1cb06aa29af468a006340fa6dff0543170a81764ade02834a9c489922ea910160405180910390a260008a8152600660205260408120600c810154909190610e189060029060ff166128fc565b60ff1690508083600301541115610e3257610e3283612565565b505050505050505050505050565b6000546001600160a01b0316331480610e9d5760005b600154811015610e9b5760018181548110610e7357610e736128a1565b6000918252602090912001546001600160a01b03163303610e9357600191505b600101610e56565b505b80610efd5760405162461bcd60e51b815260206004820152602a60248201527f4f6e6c79206f776e6572206f722073746166662063616e2063616c6c207468696044820152693990333ab731ba34b7b760b11b606482015260840161069d565b6000838152600760209081526040808320858452909152902060018082015460ff166004811115610f3057610f306126b8565b14610fa35760405162461bcd60e51b815260206004820152603e60248201527f596f752063616e206f6e6c792066756c6c7920617070726f766520612072657160448201527f7565737420617070726f7665642062792074686520636f6d6d69747465650000606482015260840161069d565b60018101805460ff1916600290811790915560405185917fe5549c035383eeb8c2e776cb4280dd0853cb1a62324e9e4cd322b630915c0db491610fe791879161291e565b60405180910390a250505050565b6000546001600160a01b03163314806110525760005b6001548110156110505760018181548110611028576110286128a1565b6000918252602090912001546001600160a01b0316330361104857600191505b60010161100b565b505b806110b25760405162461bcd60e51b815260206004820152602a60248201527f4f6e6c79206f776e6572206f722073746166662063616e2063616c6c207468696044820152693990333ab731ba34b7b760b11b606482015260840161069d565b6000828152600660205260409020600581015483919060ff16156111185760405162461bcd60e51b815260206004820152601c60248201527f50726f6a65637420697320616c726561647920417070726f7665642100000000604482015260640161069d565b60008481526006602052604080822060058101805460ff191660011790559051909186917f5382406121492e13eb8b00a0122012025548dbd3b07f9b3184c26db775732b229190a25050505050565b6000828152600660209081526040808320600783528184208585529092528220600c8201549192909161119f9060029060ff166128fc565b60ff16905080826003015411156111be576111b982612565565b6111c7565b6111c7826125b8565b5050505050565b6000546001600160a01b031633148061122b5760005b6001548110156112295760018181548110611201576112016128a1565b6000918252602090912001546001600160a01b0316330361122157600191505b6001016111e4565b505b8061128b5760405162461bcd60e51b815260206004820152602a60248201527f4f6e6c79206f776e6572206f722073746166662063616e2063616c6c207468696044820152693990333ab731ba34b7b760b11b606482015260840161069d565b600082815260066020526040902060050154829060ff166113085760405162461bcd60e51b815260206004820152603160248201527f54686520616374696f6e2063616e206f6e6c792068617070656e206f6e20616e60448201527008185c1c1c9bdd9959081c1c9bda9958dd607a1b606482015260840161069d565b60008381526006602052604090206005810154849190610100900460ff166113985760405162461bcd60e51b815260206004820152603060248201527f54686520446f6e6174696f6e2050726f6a656374206973206e6f7420636c6f7360448201527f656420666f7220646f6e6174696f6e7300000000000000000000000000000000606482015260840161069d565b60008581526006602052604080822060058101805461ff00191690559051909187917fd312a8f16f4214218cb0334da9a62aa94a5bf7c208659435e4b35b5a4b7d44089190a2505050505050565b60008281526006602052604081208391805b600183015460ff8216101561144b57826001018160ff168154811061141f5761141f6128a1565b6000918252602090912001546001600160a01b03163303611443576001915061144b565b6001016113f8565b50806114bf5760405162461bcd60e51b815260206004820152603d60248201527f54686520616374696f6e2063616e206f6e6c7920626520706572666f726d656460448201527f206279206f7267616e697a657273206f66207468652070726f6a656374000000606482015260840161069d565b600085815260066020526040902060050154859060ff1661153c5760405162461bcd60e51b815260206004820152603160248201527f54686520616374696f6e2063616e206f6e6c792068617070656e206f6e20616e60448201527008185c1c1c9bdd9959081c1c9bda9958dd607a1b606482015260840161069d565b6000868152600760209081526040808320600380548552925282208881556001810180547fffffffffffffffffffffff00000000000000000000000000000000000000000016336101000217905560028101889055815490929091906115a1836128cd565b9190505550867f72edc12715c8390dc175c5974d223d1801990d7de2797ce9a476a9d6993260f860016003546115d79190612939565b60408051918252602082018a9052015b60405180910390a250505050505050565b6000546001600160a01b03163314806116555760005b600154811015611653576001818154811061162b5761162b6128a1565b6000918252602090912001546001600160a01b0316330361164b57600191505b60010161160e565b505b806116b55760405162461bcd60e51b815260206004820152602a60248201527f4f6e6c79206f776e6572206f722073746166662063616e2063616c6c207468696044820152693990333ab731ba34b7b760b11b606482015260840161069d565b600254600090815260066020526040902080548790829060ff1916600183818111156116e3576116e36126b8565b021790555085516116fd9060018301906020890190612603565b506002808201869055600382018590556004820184905560058201805461ffff19169055600060078301819055600883018190558154919061173e836128cd565b919050555060016002546117529190612939565b7fd2a5012dc4bd19dc1abee5a94a684343c01b625110482b114fc5124f5e37cb9f87876040516115e7929190612950565b6000818152600660205260409020600581015482919060ff1661180e5760405162461bcd60e51b815260206004820152602f60248201527f446f6e6174696f6e2063616e206f6e6c792068617070656e206f6e20616e206160448201527f7070726f7665642070726f6a6563740000000000000000000000000000000000606482015260840161069d565b6000815460ff166001811115611826576118266126b8565b0361198a576003810154429081116118a65760405162461bcd60e51b815260206004820152602d60248201527f446f6e6174696f6e2063616e6e6f742068617070656e206265666f726520736560448201527f6c656374656420706572696f6400000000000000000000000000000000000000606482015260840161069d565b8160040154811061191f5760405162461bcd60e51b815260206004820152602c60248201527f446f6e6174696f6e2063616e6e6f742068617070656e2061667465722073656c60448201527f656374656420706572696f640000000000000000000000000000000000000000606482015260840161069d565b6005820154610100900460ff166119845760405162461bcd60e51b8152602060048201526024808201527f54686520446f6e6174696f6e2050726f6a65637420686173206265656e20636c6044820152631bdcd95960e21b606482015260840161069d565b50611a09565b6005810154610100900460ff16611a095760405162461bcd60e51b815260206004820152603160248201527f54686520446f6e6174696f6e2050726f6a65637420686173206265656e20636c60448201527f6f73656420746f20646f6e6174696f6e73000000000000000000000000000000606482015260840161069d565b6000838152600660208181526040832091820180546001810182559084529083200180546001600160a01b0319163317905560078101805491923492611a509084906129a1565b909155505033600090815260098201602052604081208054349290611a769084906129a1565b925050819055503460046000828254611a8f91906129a1565b90915550506040805133815234602082015285917fe555da28bdb778f65d22794d88927ebaeca03f7de9d1b7d39245bc8fb5ca078a9101610fe7565b60008181526006602052604081208291805b600183015460ff82161015611b3057826001018160ff1681548110611b0457611b046128a1565b6000918252602090912001546001600160a01b03163303611b285760019150611b30565b600101611add565b5080611ba45760405162461bcd60e51b815260206004820152603d60248201527f54686520616374696f6e2063616e206f6e6c7920626520706572666f726d656460448201527f206279206f7267616e697a657273206f66207468652070726f6a656374000000606482015260840161069d565b60008481526006602052604090206005810154610100900460ff16611c0b5760405162461bcd60e51b815260206004820152601c60248201527f446f6e6174696f6e732061726520616c726561647920636c6f73656400000000604482015260640161069d565b60058101805461ff0019169055600681015480611c6a5760405162461bcd60e51b815260206004820152601460248201527f4e6f20646f6e6f727320746f2070726f63657373000000000000000000000000604482015260640161069d565b60008167ffffffffffffffff811115611c8557611c85612724565b604051908082528060200260200182016040528015611cae578160200160208202803683370190505b50905060008267ffffffffffffffff811115611ccc57611ccc612724565b604051908082528060200260200182016040528015611cf5578160200160208202803683370190505b50905060005b83811015611dc5576000856006018281548110611d1a57611d1a6128a1565b9060005260206000200160009054906101000a90046001600160a01b0316905080848381518110611d4d57611d4d6128a1565b60200260200101906001600160a01b031690816001600160a01b031681525050856009016000826001600160a01b03166001600160a01b0316815260200190815260200160002054838381518110611da757611da76128a1565b60209081029190910101525080611dbd816128cd565b915050611cfb565b5060005b611dd4600185612939565b811015611f785760005b6001611dea8387612939565b611df49190612939565b811015611f655782611e078260016129a1565b81518110611e1757611e176128a1565b6020026020010151838281518110611e3157611e316128a1565b60200260200101511015611f535782611e4b8260016129a1565b81518110611e5b57611e5b6128a1565b6020026020010151838281518110611e7557611e756128a1565b6020026020010151848381518110611e8f57611e8f6128a1565b6020026020010185846001611ea491906129a1565b81518110611eb457611eb46128a1565b60209081029190910101919091525283611ecf8260016129a1565b81518110611edf57611edf6128a1565b6020026020010151848281518110611ef957611ef96128a1565b6020026020010151858381518110611f1357611f136128a1565b6020026020010186846001611f2891906129a1565b81518110611f3857611f386128a1565b6001600160a01b039384166020918202929092010152911690525b80611f5d816128cd565b915050611dde565b5080611f70816128cd565b915050611dc9565b5060006064611f888560056129b9565b611f9291906129d8565b905060005b818110156120025785600a01848281518110611fb557611fb56128a1565b60209081029190910181015182546001810184556000938452919092200180546001600160a01b0319166001600160a01b0390921691909117905580611ffa816128cd565b915050611f97565b50600061200f8286612939565b9050600081116120875760405162461bcd60e51b815260206004820152602f60248201527f4e6f7420656e6f75676820646f6e6f727320746f2073656c6563742072616e6460448201527f6f6d20636f6e7472696275746f72730000000000000000000000000000000000606482015260840161069d565b60008167ffffffffffffffff8111156120a2576120a2612724565b6040519080825280602002602001820160405280156120cb578160200160208202803683370190505b5090506000835b8781101561213c578681815181106120ec576120ec6128a1565b6020026020010151838380612100906128cd565b945081518110612112576121126128a1565b6001600160a01b039092166020928302919091019091015280612134816128cd565b9150506120d2565b5060005b848110156121ab5788600b0183828151811061215e5761215e6128a1565b60209081029190910181015182546001810184556000938452919092200180546001600160a01b0319166001600160a01b03909216919091179055806121a3816128cd565b915050612140565b506001880154600b890154600a8a01546121c591906129a1565b6121cf91906129a1565b600c8901805460ff191660ff929092169190911790556040518c907fd312a8f16f4214218cb0334da9a62aa94a5bf7c208659435e4b35b5a4b7d440890600090a2505050505050505050505050565b60008281526006602052604081208391805b600183015460ff8216101561228357826001018160ff1681548110612257576122576128a1565b6000918252602090912001546001600160a01b0316330361227b5760019150612283565b600101612230565b50806122f75760405162461bcd60e51b815260206004820152603d60248201527f54686520616374696f6e2063616e206f6e6c7920626520706572666f726d656460448201527f206279206f7267616e697a657273206f66207468652070726f6a656374000000606482015260840161069d565b600085815260066020526040902060050154859060ff166123745760405162461bcd60e51b815260206004820152603160248201527f54686520616374696f6e2063616e206f6e6c792068617070656e206f6e20616e60448201527008185c1c1c9bdd9959081c1c9bda9958dd607a1b606482015260840161069d565b6000868152600760209081526040808320888452825280832089845260069092529091206002600183015460ff1660048111156123b3576123b36126b8565b146124265760405162461bcd60e51b815260206004820152603060248201527f52657175657374206d7573742062652066756c6c7920617070726f766564207460448201527f6f2077697468647261772066756e647300000000000000000000000000000000606482015260840161069d565b8160020154816007015410156124885760405162461bcd60e51b815260206004820152602160248201527f496e73756666696369656e742066756e647320696e207468652070726f6a65636044820152601d60fa1b606482015260840161069d565b81600201548160080160008282546124a091906129a1565b90915550506002820154600580546000906124bc9084906129a1565b9091555050600182018054600460ff19909116179081905560028301546040516101009092046001600160a01b0316916108fc82150291906000818181858888f19350505050158015612513573d6000803e3d6000fd5b50877fef687a8f1519b4c5091105cbc704634d2f17927ba995f9044c74476dc623c046888460020154604051612553929190918252602082015260400190565b60405180910390a25050505050505050565b6001818101805460ff1916909117905580546002820154604080519182523360208301527f4e5ce1cb06aa29af468a006340fa6dff0543170a81764ade02834a9c489922ea91015b60405180910390a250565b60018101805460ff1916600317905580546002820154604080519182523360208301527f5da50088d8738b46cc7b30926418d584e9e48e80847571b7e8884cdfabca0fed91016125ad565b828054828255906000526020600020908101928215612658579160200282015b8281111561265857825182546001600160a01b0319166001600160a01b03909116178255602090920191600190910190612623565b50612664929150612668565b5090565b5b808211156126645760008155600101612669565b6000806040838503121561269057600080fd5b50508035926020909101359150565b6000602082840312156126b157600080fd5b5035919050565b634e487b7160e01b600052602160045260246000fd5b610120810160028b106126e3576126e36126b8565b9981526020810198909852604088019690965260608701949094529115156080860152151560a085015260c084015260e083015260ff166101009091015290565b634e487b7160e01b600052604160045260246000fd5b80356001600160a01b038116811461275157600080fd5b919050565b600080600080600060a0868803121561276e57600080fd5b85356002811061277d57600080fd5b945060208681013567ffffffffffffffff8082111561279b57600080fd5b818901915089601f8301126127af57600080fd5b8135818111156127c1576127c1612724565b8060051b604051601f19603f830116810181811085821117156127e6576127e6612724565b60405291825284820192508381018501918c83111561280457600080fd5b938501935b828510156128295761281a8561273a565b84529385019392850192612809565b999c999b505050506040880135976060810135976080909101359650945050505050565b6005811061285d5761285d6126b8565b9052565b86815260c08101612875602083018861284d565b6001600160a01b03861660408301528460608301528360808301528260a0830152979650505050505050565b634e487b7160e01b600052603260045260246000fd5b634e487b7160e01b600052601160045260246000fd5b6000600182016128df576128df6128b7565b5060010190565b634e487b7160e01b600052601260045260246000fd5b600060ff83168061290f5761290f6128e6565b8060ff84160491505092915050565b82815260408101612932602083018461284d565b9392505050565b60008282101561294b5761294b6128b7565b500390565b604080825283519082018190526000906020906060840190828701845b828110156129925781516001600160a01b03168452928401929084019060010161296d565b50505092019290925292915050565b600082198211156129b4576129b46128b7565b500190565b60008160001904831182151516156129d3576129d36128b7565b500290565b6000826129e7576129e76128e6565b50049056fea164736f6c634300080e000a","opcodes":"PUSH1 0x80 PUSH1 0x40 MSTORE PUSH1 0x0 PUSH1 0x2 SSTORE PUSH1 0x0 PUSH1 0x3 SSTORE CALLVALUE DUP1 ISZERO PUSH2 0x1A JUMPI PUSH1 0x0 DUP1 REVERT JUMPDEST POP PUSH1 0x0 DUP1 SLOAD PUSH1 0x1 PUSH1 0x1 PUSH1 0xA0 SHL SUB NOT AND CALLER OR SWAP1 SSTORE PUSH2 0x29F9 DUP1 PUSH2 0x3C PUSH1 0x0 CODECOPY PUSH1 0x0 RETURN INVALID PUSH1 0x80 PUSH1 0x40 MSTORE PUSH1 0x4 CALLDATASIZE LT PUSH2 0x175 JUMPI PUSH1 0x0 CALLDATALOAD PUSH1 0xE0 SHR DUP1 PUSH4 0x88CD1B63 GT PUSH2 0xCB JUMPI DUP1 PUSH4 0xB219F916 GT PUSH2 0x7F JUMPI DUP1 PUSH4 0xE25EDC31 GT PUSH2 0x59 JUMPI DUP1 PUSH4 0xE25EDC31 EQ PUSH2 0x48A JUMPI DUP1 PUSH4 0xE5253105 EQ PUSH2 0x4AA JUMPI DUP1 PUSH4 0xF4C88B69 EQ PUSH2 0x4CA JUMPI PUSH1 0x0 DUP1 REVERT JUMPDEST DUP1 PUSH4 0xB219F916 EQ PUSH2 0x3D0 JUMPI DUP1 PUSH4 0xDA1C6DAF EQ PUSH2 0x3E3 JUMPI DUP1 PUSH4 0xDA903D13 EQ PUSH2 0x413 JUMPI PUSH1 0x0 DUP1 REVERT JUMPDEST DUP1 PUSH4 0x8DA5CB5B GT PUSH2 0xB0 JUMPI DUP1 PUSH4 0x8DA5CB5B EQ PUSH2 0x384 JUMPI DUP1 PUSH4 0xA17A37DD EQ PUSH2 0x3A4 JUMPI DUP1 PUSH4 0xA80098B0 EQ PUSH2 0x3BA JUMPI PUSH1 0x0 DUP1 REVERT JUMPDEST DUP1 PUSH4 0x88CD1B63 EQ PUSH2 0x34E JUMPI DUP1 PUSH4 0x8C2F8B31 EQ PUSH2 0x364 JUMPI PUSH1 0x0 DUP1 REVERT JUMPDEST DUP1 PUSH4 0x56AC0D65 GT PUSH2 0x12D JUMPI DUP1 PUSH4 0x5D24E9E7 GT PUSH2 0x107 JUMPI DUP1 PUSH4 0x5D24E9E7 EQ PUSH2 0x2F8 JUMPI DUP1 PUSH4 0x67DBCA0E EQ PUSH2 0x318 JUMPI DUP1 PUSH4 0x862E2FC8 EQ PUSH2 0x338 JUMPI PUSH1 0x0 DUP1 REVERT JUMPDEST DUP1 PUSH4 0x56AC0D65 EQ PUSH2 0x298 JUMPI DUP1 PUSH4 0x56C6EBFE EQ PUSH2 0x2B8 JUMPI DUP1 PUSH4 0x56F9C416 EQ PUSH2 0x2D8 JUMPI PUSH1 0x0 DUP1 REVERT JUMPDEST DUP1 PUSH4 0x340A9A1C GT PUSH2 0x15E JUMPI DUP1 PUSH4 0x340A9A1C EQ PUSH2 0x1D9 JUMPI DUP1 PUSH4 0x3866B6A3 EQ PUSH2 0x1F6 JUMPI DUP1 PUSH4 0x4B720BBF EQ PUSH2 0x216 JUMPI PUSH1 0x0 DUP1 REVERT JUMPDEST DUP1 PUSH4 0x3138F026 EQ PUSH2 0x17A JUMPI DUP1 PUSH4 0x3238D32F EQ PUSH2 0x19C JUMPI JUMPDEST PUSH1 0x0 DUP1 REVERT JUMPDEST CALLVALUE DUP1 ISZERO PUSH2 0x186 JUMPI PUSH1 0x0 DUP1 REVERT JUMPDEST POP PUSH2 0x19A PUSH2 0x195 CALLDATASIZE PUSH1 0x4 PUSH2 0x267D JUMP JUMPDEST PUSH2 0x4FA JUMP JUMPDEST STOP JUMPDEST CALLVALUE DUP1 ISZERO PUSH2 0x1A8 JUMPI PUSH1 0x0 DUP1 REVERT JUMPDEST POP PUSH2 0x1BC PUSH2 0x1B7 CALLDATASIZE PUSH1 0x4 PUSH2 0x269F JUMP JUMPDEST PUSH2 0x96A JUMP JUMPDEST PUSH1 0x40 MLOAD PUSH1 0x1 PUSH1 0x1 PUSH1 0xA0 SHL SUB SWAP1 SWAP2 AND DUP2 MSTORE PUSH1 0x20 ADD JUMPDEST PUSH1 0x40 MLOAD DUP1 SWAP2 SUB SWAP1 RETURN JUMPDEST CALLVALUE DUP1 ISZERO PUSH2 0x1E5 JUMPI PUSH1 0x0 DUP1 REVERT JUMPDEST POP TIMESTAMP JUMPDEST PUSH1 0x40 MLOAD SWAP1 DUP2 MSTORE PUSH1 0x20 ADD PUSH2 0x1D0 JUMP JUMPDEST CALLVALUE DUP1 ISZERO PUSH2 0x202 JUMPI PUSH1 0x0 DUP1 REVERT JUMPDEST POP PUSH2 0x19A PUSH2 0x211 CALLDATASIZE PUSH1 0x4 PUSH2 0x267D JUMP JUMPDEST PUSH2 0x994 JUMP JUMPDEST CALLVALUE DUP1 ISZERO PUSH2 0x222 JUMPI PUSH1 0x0 DUP1 REVERT JUMPDEST POP PUSH2 0x283 PUSH2 0x231 CALLDATASIZE PUSH1 0x4 PUSH2 0x269F JUMP JUMPDEST PUSH1 0x6 PUSH1 0x20 MSTORE PUSH1 0x0 SWAP1 DUP2 MSTORE PUSH1 0x40 SWAP1 KECCAK256 DUP1 SLOAD PUSH1 0x2 DUP3 ADD SLOAD PUSH1 0x3 DUP4 ADD SLOAD PUSH1 0x4 DUP5 ADD SLOAD PUSH1 0x5 DUP6 ADD SLOAD PUSH1 0x7 DUP7 ADD SLOAD PUSH1 0x8 DUP8 ADD SLOAD PUSH1 0xC SWAP1 SWAP8 ADD SLOAD PUSH1 0xFF SWAP7 DUP8 AND SWAP8 SWAP6 SWAP7 SWAP5 SWAP6 SWAP4 SWAP5 DUP4 DUP2 AND SWAP5 PUSH2 0x100 SWAP1 SWAP5 DIV DUP2 AND SWAP4 SWAP2 AND DUP10 JUMP JUMPDEST PUSH1 0x40 MLOAD PUSH2 0x1D0 SWAP10 SWAP9 SWAP8 SWAP7 SWAP6 SWAP5 SWAP4 SWAP3 SWAP2 SWAP1 PUSH2 0x26CE JUMP JUMPDEST CALLVALUE DUP1 ISZERO PUSH2 0x2A4 JUMPI PUSH1 0x0 DUP1 REVERT JUMPDEST POP PUSH2 0x19A PUSH2 0x2B3 CALLDATASIZE PUSH1 0x4 PUSH2 0x267D JUMP JUMPDEST PUSH2 0xE40 JUMP JUMPDEST CALLVALUE DUP1 ISZERO PUSH2 0x2C4 JUMPI PUSH1 0x0 DUP1 REVERT JUMPDEST POP PUSH2 0x19A PUSH2 0x2D3 CALLDATASIZE PUSH1 0x4 PUSH2 0x269F JUMP JUMPDEST PUSH2 0xFF5 JUMP JUMPDEST CALLVALUE DUP1 ISZERO PUSH2 0x2E4 JUMPI PUSH1 0x0 DUP1 REVERT JUMPDEST POP PUSH2 0x19A PUSH2 0x2F3 CALLDATASIZE PUSH1 0x4 PUSH2 0x267D JUMP JUMPDEST PUSH2 0x1167 JUMP JUMPDEST CALLVALUE DUP1 ISZERO PUSH2 0x304 JUMPI PUSH1 0x0 DUP1 REVERT JUMPDEST POP PUSH2 0x19A PUSH2 0x313 CALLDATASIZE PUSH1 0x4 PUSH2 0x269F JUMP JUMPDEST PUSH2 0x11CE JUMP JUMPDEST CALLVALUE DUP1 ISZERO PUSH2 0x324 JUMPI PUSH1 0x0 DUP1 REVERT JUMPDEST POP PUSH2 0x19A PUSH2 0x333 CALLDATASIZE PUSH1 0x4 PUSH2 0x267D JUMP JUMPDEST PUSH2 0x13E6 JUMP JUMPDEST CALLVALUE DUP1 ISZERO PUSH2 0x344 JUMPI PUSH1 0x0 DUP1 REVERT JUMPDEST POP PUSH2 0x1E8 PUSH1 0x4 SLOAD DUP2 JUMP JUMPDEST CALLVALUE DUP1 ISZERO PUSH2 0x35A JUMPI PUSH1 0x0 DUP1 REVERT JUMPDEST POP PUSH2 0x1E8 PUSH1 0x3 SLOAD DUP2 JUMP JUMPDEST CALLVALUE DUP1 ISZERO PUSH2 0x370 JUMPI PUSH1 0x0 DUP1 REVERT JUMPDEST POP PUSH2 0x19A PUSH2 0x37F CALLDATASIZE PUSH1 0x4 PUSH2 0x2756 JUMP JUMPDEST PUSH2 0x15F8 JUMP JUMPDEST CALLVALUE DUP1 ISZERO PUSH2 0x390 JUMPI PUSH1 0x0 DUP1 REVERT JUMPDEST POP PUSH1 0x0 SLOAD PUSH2 0x1BC SWAP1 PUSH1 0x1 PUSH1 0x1 PUSH1 0xA0 SHL SUB AND DUP2 JUMP JUMPDEST CALLVALUE DUP1 ISZERO PUSH2 0x3B0 JUMPI PUSH1 0x0 DUP1 REVERT JUMPDEST POP PUSH2 0x1E8 PUSH1 0x2 SLOAD DUP2 JUMP JUMPDEST CALLVALUE DUP1 ISZERO PUSH2 0x3C6 JUMPI PUSH1 0x0 DUP1 REVERT JUMPDEST POP PUSH2 0x1E8 PUSH1 0x5 SLOAD DUP2 JUMP JUMPDEST PUSH2 0x19A PUSH2 0x3DE CALLDATASIZE PUSH1 0x4 PUSH2 0x269F JUMP JUMPDEST PUSH2 0x1783 JUMP JUMPDEST CALLVALUE DUP1 ISZERO PUSH2 0x3EF JUMPI PUSH1 0x0 DUP1 REVERT JUMPDEST POP PUSH2 0x1E8 PUSH2 0x3FE CALLDATASIZE PUSH1 0x4 PUSH2 0x269F JUMP JUMPDEST PUSH1 0x0 SWAP1 DUP2 MSTORE PUSH1 0x6 PUSH1 0x20 MSTORE PUSH1 0x40 SWAP1 KECCAK256 PUSH1 0x8 ADD SLOAD SWAP1 JUMP JUMPDEST CALLVALUE DUP1 ISZERO PUSH2 0x41F JUMPI PUSH1 0x0 DUP1 REVERT JUMPDEST POP PUSH2 0x478 PUSH2 0x42E CALLDATASIZE PUSH1 0x4 PUSH2 0x267D JUMP JUMPDEST PUSH1 0x7 PUSH1 0x20 SWAP1 DUP2 MSTORE PUSH1 0x0 SWAP3 DUP4 MSTORE PUSH1 0x40 DUP1 DUP5 KECCAK256 SWAP1 SWAP2 MSTORE SWAP1 DUP3 MSTORE SWAP1 KECCAK256 DUP1 SLOAD PUSH1 0x1 DUP3 ADD SLOAD PUSH1 0x2 DUP4 ADD SLOAD PUSH1 0x3 DUP5 ADD SLOAD PUSH1 0x4 SWAP1 SWAP5 ADD SLOAD SWAP3 SWAP4 PUSH1 0xFF DUP4 AND SWAP4 PUSH2 0x100 SWAP1 SWAP4 DIV PUSH1 0x1 PUSH1 0x1 PUSH1 0xA0 SHL SUB AND SWAP3 DUP7 JUMP JUMPDEST PUSH1 0x40 MLOAD PUSH2 0x1D0 SWAP7 SWAP6 SWAP5 SWAP4 SWAP3 SWAP2 SWAP1 PUSH2 0x2861 JUMP JUMPDEST CALLVALUE DUP1 ISZERO PUSH2 0x496 JUMPI PUSH1 0x0 DUP1 REVERT JUMPDEST POP PUSH2 0x19A PUSH2 0x4A5 CALLDATASIZE PUSH1 0x4 PUSH2 0x269F JUMP JUMPDEST PUSH2 0x1ACB JUMP JUMPDEST CALLVALUE DUP1 ISZERO PUSH2 0x4B6 JUMPI PUSH1 0x0 DUP1 REVERT JUMPDEST POP PUSH2 0x19A PUSH2 0x4C5 CALLDATASIZE PUSH1 0x4 PUSH2 0x267D JUMP JUMPDEST PUSH2 0x221E JUMP JUMPDEST CALLVALUE DUP1 ISZERO PUSH2 0x4D6 JUMPI PUSH1 0x0 DUP1 REVERT JUMPDEST POP PUSH2 0x1E8 PUSH2 0x4E5 CALLDATASIZE PUSH1 0x4 PUSH2 0x269F JUMP JUMPDEST PUSH1 0x0 SWAP1 DUP2 MSTORE PUSH1 0x6 PUSH1 0x20 MSTORE PUSH1 0x40 SWAP1 KECCAK256 PUSH1 0x7 ADD SLOAD SWAP1 JUMP JUMPDEST PUSH1 0x0 DUP3 DUP2 MSTORE PUSH1 0x6 PUSH1 0x20 MSTORE PUSH1 0x40 DUP2 KECCAK256 DUP4 SWAP2 DUP1 JUMPDEST PUSH1 0xA DUP4 ADD SLOAD PUSH1 0xFF DUP3 AND LT ISZERO PUSH2 0x55F JUMPI DUP3 PUSH1 0xA ADD DUP2 PUSH1 0xFF AND DUP2 SLOAD DUP2 LT PUSH2 0x533 JUMPI PUSH2 0x533 PUSH2 0x28A1 JUMP JUMPDEST PUSH1 0x0 SWAP2 DUP3 MSTORE PUSH1 0x20 SWAP1 SWAP2 KECCAK256 ADD SLOAD PUSH1 0x1 PUSH1 0x1 PUSH1 0xA0 SHL SUB AND CALLER SUB PUSH2 0x557 JUMPI PUSH1 0x1 SWAP2 POP PUSH2 0x55F JUMP JUMPDEST PUSH1 0x1 ADD PUSH2 0x50C JUMP JUMPDEST POP DUP1 PUSH2 0x5BD JUMPI PUSH1 0x0 JUMPDEST PUSH1 0xB DUP4 ADD SLOAD PUSH1 0xFF DUP3 AND LT ISZERO PUSH2 0x5BB JUMPI DUP3 PUSH1 0xB ADD DUP2 PUSH1 0xFF AND DUP2 SLOAD DUP2 LT PUSH2 0x58F JUMPI PUSH2 0x58F PUSH2 0x28A1 JUMP JUMPDEST PUSH1 0x0 SWAP2 DUP3 MSTORE PUSH1 0x20 SWAP1 SWAP2 KECCAK256 ADD SLOAD PUSH1 0x1 PUSH1 0x1 PUSH1 0xA0 SHL SUB AND CALLER SUB PUSH2 0x5B3 JUMPI PUSH1 0x1 SWAP2 POP PUSH2 0x5BB JUMP JUMPDEST PUSH1 0x1 ADD PUSH2 0x568 JUMP JUMPDEST POP JUMPDEST DUP1 PUSH2 0x61A JUMPI PUSH1 0x0 JUMPDEST PUSH1 0x1 DUP4 ADD SLOAD PUSH1 0xFF DUP3 AND LT ISZERO PUSH2 0x618 JUMPI DUP3 PUSH1 0x1 ADD DUP2 PUSH1 0xFF AND DUP2 SLOAD DUP2 LT PUSH2 0x5EC JUMPI PUSH2 0x5EC PUSH2 0x28A1 JUMP JUMPDEST PUSH1 0x0 SWAP2 DUP3 MSTORE PUSH1 0x20 SWAP1 SWAP2 KECCAK256 ADD SLOAD PUSH1 0x1 PUSH1 0x1 PUSH1 0xA0 SHL SUB AND CALLER SUB PUSH2 0x610 JUMPI PUSH1 0x1 SWAP2 POP PUSH2 0x618 JUMP JUMPDEST PUSH1 0x1 ADD PUSH2 0x5C5 JUMP JUMPDEST POP JUMPDEST DUP1 PUSH2 0x6A6 JUMPI PUSH1 0x40 MLOAD PUSH3 0x461BCD PUSH1 0xE5 SHL DUP2 MSTORE PUSH1 0x20 PUSH1 0x4 DUP3 ADD MSTORE PUSH1 0x4B PUSH1 0x24 DUP3 ADD MSTORE PUSH32 0x5468697320616374696F6E2063616E206F6E6C7920626520706572666F726D65 PUSH1 0x44 DUP3 ADD MSTORE PUSH32 0x64206279206D656D62657273206F662054686520446F6E6120417070726F7661 PUSH1 0x64 DUP3 ADD MSTORE PUSH11 0x6C20436F6D6D6974746565 PUSH1 0xA8 SHL PUSH1 0x84 DUP3 ADD MSTORE PUSH1 0xA4 ADD JUMPDEST PUSH1 0x40 MLOAD DUP1 SWAP2 SUB SWAP1 REVERT JUMPDEST PUSH1 0x0 DUP6 DUP2 MSTORE PUSH1 0x7 PUSH1 0x20 SWAP1 DUP2 MSTORE PUSH1 0x40 DUP1 DUP4 KECCAK256 DUP8 DUP5 MSTORE SWAP1 SWAP2 MSTORE SWAP1 KECCAK256 DUP6 SWAP1 DUP6 SWAP1 PUSH1 0x4 PUSH1 0x1 DUP3 ADD SLOAD PUSH1 0xFF AND PUSH1 0x4 DUP2 GT ISZERO PUSH2 0x6DE JUMPI PUSH2 0x6DE PUSH2 0x26B8 JUMP JUMPDEST SUB PUSH2 0x743 JUMPI PUSH1 0x40 MLOAD PUSH3 0x461BCD PUSH1 0xE5 SHL DUP2 MSTORE PUSH1 0x20 PUSH1 0x4 DUP3 ADD MSTORE PUSH1 0x2F PUSH1 0x24 DUP3 ADD MSTORE PUSH32 0x596F752063616E6E6F7420766F7465206F6E20616E20616C7265616479207769 PUSH1 0x44 DUP3 ADD MSTORE PUSH15 0x1D1A191C985DDB881C995C5D595CDD PUSH1 0x8A SHL PUSH1 0x64 DUP3 ADD MSTORE PUSH1 0x84 ADD PUSH2 0x69D JUMP JUMPDEST PUSH1 0x0 DUP1 JUMPDEST PUSH1 0x5 DUP4 ADD SLOAD DUP2 LT ISZERO PUSH2 0x7A7 JUMPI CALLER PUSH1 0x1 PUSH1 0x1 PUSH1 0xA0 SHL SUB AND DUP4 PUSH1 0x5 ADD DUP3 DUP2 SLOAD DUP2 LT PUSH2 0x772 JUMPI PUSH2 0x772 PUSH2 0x28A1 JUMP JUMPDEST PUSH1 0x0 SWAP2 DUP3 MSTORE PUSH1 0x20 SWAP1 SWAP2 KECCAK256 ADD SLOAD PUSH1 0x1 PUSH1 0x1 PUSH1 0xA0 SHL SUB AND SUB PUSH2 0x795 JUMPI PUSH1 0x1 SWAP2 POP PUSH2 0x7A7 JUMP JUMPDEST DUP1 PUSH2 0x79F DUP2 PUSH2 0x28CD JUMP JUMPDEST SWAP2 POP POP PUSH2 0x747 JUMP JUMPDEST POP PUSH1 0x0 JUMPDEST PUSH1 0x6 DUP4 ADD SLOAD DUP2 LT ISZERO PUSH2 0x80B JUMPI CALLER PUSH1 0x1 PUSH1 0x1 PUSH1 0xA0 SHL SUB AND DUP4 PUSH1 0x6 ADD DUP3 DUP2 SLOAD DUP2 LT PUSH2 0x7D6 JUMPI PUSH2 0x7D6 PUSH2 0x28A1 JUMP JUMPDEST PUSH1 0x0 SWAP2 DUP3 MSTORE PUSH1 0x20 SWAP1 SWAP2 KECCAK256 ADD SLOAD PUSH1 0x1 PUSH1 0x1 PUSH1 0xA0 SHL SUB AND SUB PUSH2 0x7F9 JUMPI PUSH1 0x1 SWAP2 POP PUSH2 0x80B JUMP JUMPDEST DUP1 PUSH2 0x803 DUP2 PUSH2 0x28CD JUMP JUMPDEST SWAP2 POP POP PUSH2 0x7AB JUMP JUMPDEST POP DUP1 ISZERO PUSH2 0x869 JUMPI PUSH1 0x40 MLOAD PUSH3 0x461BCD PUSH1 0xE5 SHL DUP2 MSTORE PUSH1 0x20 PUSH1 0x4 DUP3 ADD MSTORE PUSH1 0x26 PUSH1 0x24 DUP3 ADD MSTORE PUSH32 0x596F75206861766520616C726561647920766F746564206F6E20746869732072 PUSH1 0x44 DUP3 ADD MSTORE PUSH6 0x195C5D595CDD PUSH1 0xD2 SHL PUSH1 0x64 DUP3 ADD MSTORE PUSH1 0x84 ADD PUSH2 0x69D JUMP JUMPDEST PUSH1 0x0 DUP10 DUP2 MSTORE PUSH1 0x7 PUSH1 0x20 SWAP1 DUP2 MSTORE PUSH1 0x40 DUP1 DUP4 KECCAK256 DUP12 DUP5 MSTORE SWAP1 SWAP2 MSTORE DUP2 KECCAK256 SWAP1 PUSH1 0x1 DUP3 ADD SLOAD PUSH1 0xFF AND PUSH1 0x4 DUP2 GT ISZERO PUSH2 0x89C JUMPI PUSH2 0x89C PUSH2 0x26B8 JUMP JUMPDEST EQ PUSH2 0x8E9 JUMPI PUSH1 0x40 MLOAD PUSH3 0x461BCD PUSH1 0xE5 SHL DUP2 MSTORE PUSH1 0x20 PUSH1 0x4 DUP3 ADD MSTORE PUSH1 0x12 PUSH1 0x24 DUP3 ADD MSTORE PUSH32 0x52657175657374206973206E6F74206E65770000000000000000000000000000 PUSH1 0x44 DUP3 ADD MSTORE PUSH1 0x64 ADD PUSH2 0x69D JUMP JUMPDEST PUSH1 0x6 DUP2 ADD DUP1 SLOAD PUSH1 0x1 DUP2 ADD DUP3 SSTORE PUSH1 0x0 SWAP2 DUP3 MSTORE PUSH1 0x20 DUP3 KECCAK256 ADD DUP1 SLOAD PUSH1 0x1 PUSH1 0x1 PUSH1 0xA0 SHL SUB NOT AND CALLER OR SWAP1 SSTORE PUSH1 0x4 DUP3 ADD DUP1 SLOAD SWAP2 PUSH2 0x91F DUP4 PUSH2 0x28CD JUMP JUMPDEST SWAP1 SWAP2 SSTORE POP POP PUSH1 0x40 DUP1 MLOAD DUP11 DUP2 MSTORE CALLER PUSH1 0x20 DUP3 ADD MSTORE DUP12 SWAP2 PUSH32 0x5DA50088D8738B46CC7B30926418D584E9E48E80847571B7E8884CDFABCA0FED SWAP2 ADD PUSH1 0x40 MLOAD DUP1 SWAP2 SUB SWAP1 LOG2 POP POP POP POP POP POP POP POP POP POP JUMP JUMPDEST PUSH1 0x1 DUP2 DUP2 SLOAD DUP2 LT PUSH2 0x97A JUMPI PUSH1 0x0 DUP1 REVERT JUMPDEST PUSH1 0x0 SWAP2 DUP3 MSTORE PUSH1 0x20 SWAP1 SWAP2 KECCAK256 ADD SLOAD PUSH1 0x1 PUSH1 0x1 PUSH1 0xA0 SHL SUB AND SWAP1 POP DUP2 JUMP JUMPDEST PUSH1 0x0 DUP3 DUP2 MSTORE PUSH1 0x6 PUSH1 0x20 MSTORE PUSH1 0x40 DUP2 KECCAK256 DUP4 SWAP2 DUP1 JUMPDEST PUSH1 0xA DUP4 ADD SLOAD PUSH1 0xFF DUP3 AND LT ISZERO PUSH2 0x9F9 JUMPI DUP3 PUSH1 0xA ADD DUP2 PUSH1 0xFF AND DUP2 SLOAD DUP2 LT PUSH2 0x9CD JUMPI PUSH2 0x9CD PUSH2 0x28A1 JUMP JUMPDEST PUSH1 0x0 SWAP2 DUP3 MSTORE PUSH1 0x20 SWAP1 SWAP2 KECCAK256 ADD SLOAD PUSH1 0x1 PUSH1 0x1 PUSH1 0xA0 SHL SUB AND CALLER SUB PUSH2 0x9F1 JUMPI PUSH1 0x1 SWAP2 POP PUSH2 0x9F9 JUMP JUMPDEST PUSH1 0x1 ADD PUSH2 0x9A6 JUMP JUMPDEST POP DUP1 PUSH2 0xA57 JUMPI PUSH1 0x0 JUMPDEST PUSH1 0xB DUP4 ADD SLOAD PUSH1 0xFF DUP3 AND LT ISZERO PUSH2 0xA55 JUMPI DUP3 PUSH1 0xB ADD DUP2 PUSH1 0xFF AND DUP2 SLOAD DUP2 LT PUSH2 0xA29 JUMPI PUSH2 0xA29 PUSH2 0x28A1 JUMP JUMPDEST PUSH1 0x0 SWAP2 DUP3 MSTORE PUSH1 0x20 SWAP1 SWAP2 KECCAK256 ADD SLOAD PUSH1 0x1 PUSH1 0x1 PUSH1 0xA0 SHL SUB AND CALLER SUB PUSH2 0xA4D JUMPI PUSH1 0x1 SWAP2 POP PUSH2 0xA55 JUMP JUMPDEST PUSH1 0x1 ADD PUSH2 0xA02 JUMP JUMPDEST POP JUMPDEST DUP1 PUSH2 0xAB4 JUMPI PUSH1 0x0 JUMPDEST PUSH1 0x1 DUP4 ADD SLOAD PUSH1 0xFF DUP3 AND LT ISZERO PUSH2 0xAB2 JUMPI DUP3 PUSH1 0x1 ADD DUP2 PUSH1 0xFF AND DUP2 SLOAD DUP2 LT PUSH2 0xA86 JUMPI PUSH2 0xA86 PUSH2 0x28A1 JUMP JUMPDEST PUSH1 0x0 SWAP2 DUP3 MSTORE PUSH1 0x20 SWAP1 SWAP2 KECCAK256 ADD SLOAD PUSH1 0x1 PUSH1 0x1 PUSH1 0xA0 SHL SUB AND CALLER SUB PUSH2 0xAAA JUMPI PUSH1 0x1 SWAP2 POP PUSH2 0xAB2 JUMP JUMPDEST PUSH1 0x1 ADD PUSH2 0xA5F JUMP JUMPDEST POP JUMPDEST DUP1 PUSH2 0xB3B JUMPI PUSH1 0x40 MLOAD PUSH3 0x461BCD PUSH1 0xE5 SHL DUP2 MSTORE PUSH1 0x20 PUSH1 0x4 DUP3 ADD MSTORE PUSH1 0x4B PUSH1 0x24 DUP3 ADD MSTORE PUSH32 0x5468697320616374696F6E2063616E206F6E6C7920626520706572666F726D65 PUSH1 0x44 DUP3 ADD MSTORE PUSH32 0x64206279206D656D62657273206F662054686520446F6E6120417070726F7661 PUSH1 0x64 DUP3 ADD MSTORE PUSH11 0x6C20436F6D6D6974746565 PUSH1 0xA8 SHL PUSH1 0x84 DUP3 ADD MSTORE PUSH1 0xA4 ADD PUSH2 0x69D JUMP JUMPDEST PUSH1 0x0 DUP6 DUP2 MSTORE PUSH1 0x7 PUSH1 0x20 SWAP1 DUP2 MSTORE PUSH1 0x40 DUP1 DUP4 KECCAK256 DUP8 DUP5 MSTORE SWAP1 SWAP2 MSTORE SWAP1 KECCAK256 DUP6 SWAP1 DUP6 SWAP1 PUSH1 0x4 PUSH1 0x1 DUP3 ADD SLOAD PUSH1 0xFF AND PUSH1 0x4 DUP2 GT ISZERO PUSH2 0xB73 JUMPI PUSH2 0xB73 PUSH2 0x26B8 JUMP JUMPDEST SUB PUSH2 0xBD8 JUMPI PUSH1 0x40 MLOAD PUSH3 0x461BCD PUSH1 0xE5 SHL DUP2 MSTORE PUSH1 0x20 PUSH1 0x4 DUP3 ADD MSTORE PUSH1 0x2F PUSH1 0x24 DUP3 ADD MSTORE PUSH32 0x596F752063616E6E6F7420766F7465206F6E20616E20616C7265616479207769 PUSH1 0x44 DUP3 ADD MSTORE PUSH15 0x1D1A191C985DDB881C995C5D595CDD PUSH1 0x8A SHL PUSH1 0x64 DUP3 ADD MSTORE PUSH1 0x84 ADD PUSH2 0x69D JUMP JUMPDEST PUSH1 0x0 DUP1 JUMPDEST PUSH1 0x5 DUP4 ADD SLOAD DUP2 LT ISZERO PUSH2 0xC3C JUMPI CALLER PUSH1 0x1 PUSH1 0x1 PUSH1 0xA0 SHL SUB AND DUP4 PUSH1 0x5 ADD DUP3 DUP2 SLOAD DUP2 LT PUSH2 0xC07 JUMPI PUSH2 0xC07 PUSH2 0x28A1 JUMP JUMPDEST PUSH1 0x0 SWAP2 DUP3 MSTORE PUSH1 0x20 SWAP1 SWAP2 KECCAK256 ADD SLOAD PUSH1 0x1 PUSH1 0x1 PUSH1 0xA0 SHL SUB AND SUB PUSH2 0xC2A JUMPI PUSH1 0x1 SWAP2 POP PUSH2 0xC3C JUMP JUMPDEST DUP1 PUSH2 0xC34 DUP2 PUSH2 0x28CD JUMP JUMPDEST SWAP2 POP POP PUSH2 0xBDC JUMP JUMPDEST POP PUSH1 0x0 JUMPDEST PUSH1 0x6 DUP4 ADD SLOAD DUP2 LT ISZERO PUSH2 0xCA0 JUMPI CALLER PUSH1 0x1 PUSH1 0x1 PUSH1 0xA0 SHL SUB AND DUP4 PUSH1 0x6 ADD DUP3 DUP2 SLOAD DUP2 LT PUSH2 0xC6B JUMPI PUSH2 0xC6B PUSH2 0x28A1 JUMP JUMPDEST PUSH1 0x0 SWAP2 DUP3 MSTORE PUSH1 0x20 SWAP1 SWAP2 KECCAK256 ADD SLOAD PUSH1 0x1 PUSH1 0x1 PUSH1 0xA0 SHL SUB AND SUB PUSH2 0xC8E JUMPI PUSH1 0x1 SWAP2 POP PUSH2 0xCA0 JUMP JUMPDEST DUP1 PUSH2 0xC98 DUP2 PUSH2 0x28CD JUMP JUMPDEST SWAP2 POP POP PUSH2 0xC40 JUMP JUMPDEST POP DUP1 ISZERO PUSH2 0xCFE JUMPI PUSH1 0x40 MLOAD PUSH3 0x461BCD PUSH1 0xE5 SHL DUP2 MSTORE PUSH1 0x20 PUSH1 0x4 DUP3 ADD MSTORE PUSH1 0x26 PUSH1 0x24 DUP3 ADD MSTORE PUSH32 0x596F75206861766520616C726561647920766F746564206F6E20746869732072 PUSH1 0x44 DUP3 ADD MSTORE PUSH6 0x195C5D595CDD PUSH1 0xD2 SHL PUSH1 0x64 DUP3 ADD MSTORE PUSH1 0x84 ADD PUSH2 0x69D JUMP JUMPDEST PUSH1 0x0 DUP10 DUP2 MSTORE PUSH1 0x7 PUSH1 0x20 SWAP1 DUP2 MSTORE PUSH1 0x40 DUP1 DUP4 KECCAK256 DUP12 DUP5 MSTORE SWAP1 SWAP2 MSTORE DUP2 KECCAK256 SWAP1 PUSH1 0x1 DUP3 ADD SLOAD PUSH1 0xFF AND PUSH1 0x4 DUP2 GT ISZERO PUSH2 0xD31 JUMPI PUSH2 0xD31 PUSH2 0x26B8 JUMP JUMPDEST EQ PUSH2 0xD7E JUMPI PUSH1 0x40 MLOAD PUSH3 0x461BCD PUSH1 0xE5 SHL DUP2 MSTORE PUSH1 0x20 PUSH1 0x4 DUP3 ADD MSTORE PUSH1 0x12 PUSH1 0x24 DUP3 ADD MSTORE PUSH32 0x52657175657374206973206E6F74206E65770000000000000000000000000000 PUSH1 0x44 DUP3 ADD MSTORE PUSH1 0x64 ADD PUSH2 0x69D JUMP JUMPDEST PUSH1 0x5 DUP2 ADD DUP1 SLOAD PUSH1 0x1 DUP2 ADD DUP3 SSTORE PUSH1 0x0 SWAP2 DUP3 MSTORE PUSH1 0x20 DUP3 KECCAK256 ADD DUP1 SLOAD PUSH1 0x1 PUSH1 0x1 PUSH1 0xA0 SHL SUB NOT AND CALLER OR SWAP1 SSTORE PUSH1 0x3 DUP3 ADD DUP1 SLOAD SWAP2 PUSH2 0xDB4 DUP4 PUSH2 0x28CD JUMP JUMPDEST SWAP1 SWAP2 SSTORE POP POP PUSH1 0x40 DUP1 MLOAD DUP11 DUP2 MSTORE CALLER PUSH1 0x20 DUP3 ADD MSTORE DUP12 SWAP2 PUSH32 0x4E5CE1CB06AA29AF468A006340FA6DFF0543170A81764ADE02834A9C489922EA SWAP2 ADD PUSH1 0x40 MLOAD DUP1 SWAP2 SUB SWAP1 LOG2 PUSH1 0x0 DUP11 DUP2 MSTORE PUSH1 0x6 PUSH1 0x20 MSTORE PUSH1 0x40 DUP2 KECCAK256 PUSH1 0xC DUP2 ADD SLOAD SWAP1 SWAP2 SWAP1 PUSH2 0xE18 SWAP1 PUSH1 0x2 SWAP1 PUSH1 0xFF AND PUSH2 0x28FC JUMP JUMPDEST PUSH1 0xFF AND SWAP1 POP DUP1 DUP4 PUSH1 0x3 ADD SLOAD GT ISZERO PUSH2 0xE32 JUMPI PUSH2 0xE32 DUP4 PUSH2 0x2565 JUMP JUMPDEST POP POP POP POP POP POP POP POP POP POP POP POP JUMP JUMPDEST PUSH1 0x0 SLOAD PUSH1 0x1 PUSH1 0x1 PUSH1 0xA0 SHL SUB AND CALLER EQ DUP1 PUSH2 0xE9D JUMPI PUSH1 0x0 JUMPDEST PUSH1 0x1 SLOAD DUP2 LT ISZERO PUSH2 0xE9B JUMPI PUSH1 0x1 DUP2 DUP2 SLOAD DUP2 LT PUSH2 0xE73 JUMPI PUSH2 0xE73 PUSH2 0x28A1 JUMP JUMPDEST PUSH1 0x0 SWAP2 DUP3 MSTORE PUSH1 0x20 SWAP1 SWAP2 KECCAK256 ADD SLOAD PUSH1 0x1 PUSH1 0x1 PUSH1 0xA0 SHL SUB AND CALLER SUB PUSH2 0xE93 JUMPI PUSH1 0x1 SWAP2 POP JUMPDEST PUSH1 0x1 ADD PUSH2 0xE56 JUMP JUMPDEST POP JUMPDEST DUP1 PUSH2 0xEFD JUMPI PUSH1 0x40 MLOAD PUSH3 0x461BCD PUSH1 0xE5 SHL DUP2 MSTORE PUSH1 0x20 PUSH1 0x4 DUP3 ADD MSTORE PUSH1 0x2A PUSH1 0x24 DUP3 ADD MSTORE PUSH32 0x4F6E6C79206F776E6572206F722073746166662063616E2063616C6C20746869 PUSH1 0x44 DUP3 ADD MSTORE PUSH10 0x3990333AB731BA34B7B7 PUSH1 0xB1 SHL PUSH1 0x64 DUP3 ADD MSTORE PUSH1 0x84 ADD PUSH2 0x69D JUMP JUMPDEST PUSH1 0x0 DUP4 DUP2 MSTORE PUSH1 0x7 PUSH1 0x20 SWAP1 DUP2 MSTORE PUSH1 0x40 DUP1 DUP4 KECCAK256 DUP6 DUP5 MSTORE SWAP1 SWAP2 MSTORE SWAP1 KECCAK256 PUSH1 0x1 DUP1 DUP3 ADD SLOAD PUSH1 0xFF AND PUSH1 0x4 DUP2 GT ISZERO PUSH2 0xF30 JUMPI PUSH2 0xF30 PUSH2 0x26B8 JUMP JUMPDEST EQ PUSH2 0xFA3 JUMPI PUSH1 0x40 MLOAD PUSH3 0x461BCD PUSH1 0xE5 SHL DUP2 MSTORE PUSH1 0x20 PUSH1 0x4 DUP3 ADD MSTORE PUSH1 0x3E PUSH1 0x24 DUP3 ADD MSTORE PUSH32 0x596F752063616E206F6E6C792066756C6C7920617070726F7665206120726571 PUSH1 0x44 DUP3 ADD MSTORE PUSH32 0x7565737420617070726F7665642062792074686520636F6D6D69747465650000 PUSH1 0x64 DUP3 ADD MSTORE PUSH1 0x84 ADD PUSH2 0x69D JUMP JUMPDEST PUSH1 0x1 DUP2 ADD DUP1 SLOAD PUSH1 0xFF NOT AND PUSH1 0x2 SWAP1 DUP2 OR SWAP1 SWAP2 SSTORE PUSH1 0x40 MLOAD DUP6 SWAP2 PUSH32 0xE5549C035383EEB8C2E776CB4280DD0853CB1A62324E9E4CD322B630915C0DB4 SWAP2 PUSH2 0xFE7 SWAP2 DUP8 SWAP2 PUSH2 0x291E JUMP JUMPDEST PUSH1 0x40 MLOAD DUP1 SWAP2 SUB SWAP1 LOG2 POP POP POP POP JUMP JUMPDEST PUSH1 0x0 SLOAD PUSH1 0x1 PUSH1 0x1 PUSH1 0xA0 SHL SUB AND CALLER EQ DUP1 PUSH2 0x1052 JUMPI PUSH1 0x0 JUMPDEST PUSH1 0x1 SLOAD DUP2 LT ISZERO PUSH2 0x1050 JUMPI PUSH1 0x1 DUP2 DUP2 SLOAD DUP2 LT PUSH2 0x1028 JUMPI PUSH2 0x1028 PUSH2 0x28A1 JUMP JUMPDEST PUSH1 0x0 SWAP2 DUP3 MSTORE PUSH1 0x20 SWAP1 SWAP2 KECCAK256 ADD SLOAD PUSH1 0x1 PUSH1 0x1 PUSH1 0xA0 SHL SUB AND CALLER SUB PUSH2 0x1048 JUMPI PUSH1 0x1 SWAP2 POP JUMPDEST PUSH1 0x1 ADD PUSH2 0x100B JUMP JUMPDEST POP JUMPDEST DUP1 PUSH2 0x10B2 JUMPI PUSH1 0x40 MLOAD PUSH3 0x461BCD PUSH1 0xE5 SHL DUP2 MSTORE PUSH1 0x20 PUSH1 0x4 DUP3 ADD MSTORE PUSH1 0x2A PUSH1 0x24 DUP3 ADD MSTORE PUSH32 0x4F6E6C79206F776E6572206F722073746166662063616E2063616C6C20746869 PUSH1 0x44 DUP3 ADD MSTORE PUSH10 0x3990333AB731BA34B7B7 PUSH1 0xB1 SHL PUSH1 0x64 DUP3 ADD MSTORE PUSH1 0x84 ADD PUSH2 0x69D JUMP JUMPDEST PUSH1 0x0 DUP3 DUP2 MSTORE PUSH1 0x6 PUSH1 0x20 MSTORE PUSH1 0x40 SWAP1 KECCAK256 PUSH1 0x5 DUP2 ADD SLOAD DUP4 SWAP2 SWAP1 PUSH1 0xFF AND ISZERO PUSH2 0x1118 JUMPI PUSH1 0x40 MLOAD PUSH3 0x461BCD PUSH1 0xE5 SHL DUP2 MSTORE PUSH1 0x20 PUSH1 0x4 DUP3 ADD MSTORE PUSH1 0x1C PUSH1 0x24 DUP3 ADD MSTORE PUSH32 0x50726F6A65637420697320616C726561647920417070726F7665642100000000 PUSH1 0x44 DUP3 ADD MSTORE PUSH1 0x64 ADD PUSH2 0x69D JUMP JUMPDEST PUSH1 0x0 DUP5 DUP2 MSTORE PUSH1 0x6 PUSH1 0x20 MSTORE PUSH1 0x40 DUP1 DUP3 KECCAK256 PUSH1 0x5 DUP2 ADD DUP1 SLOAD PUSH1 0xFF NOT AND PUSH1 0x1 OR SWAP1 SSTORE SWAP1 MLOAD SWAP1 SWAP2 DUP7 SWAP2 PUSH32 0x5382406121492E13EB8B00A0122012025548DBD3B07F9B3184C26DB775732B22 SWAP2 SWAP1 LOG2 POP POP POP POP POP JUMP JUMPDEST PUSH1 0x0 DUP3 DUP2 MSTORE PUSH1 0x6 PUSH1 0x20 SWAP1 DUP2 MSTORE PUSH1 0x40 DUP1 DUP4 KECCAK256 PUSH1 0x7 DUP4 MSTORE DUP2 DUP5 KECCAK256 DUP6 DUP6 MSTORE SWAP1 SWAP3 MSTORE DUP3 KECCAK256 PUSH1 0xC DUP3 ADD SLOAD SWAP2 SWAP3 SWAP1 SWAP2 PUSH2 0x119F SWAP1 PUSH1 0x2 SWAP1 PUSH1 0xFF AND PUSH2 0x28FC JUMP JUMPDEST PUSH1 0xFF AND SWAP1 POP DUP1 DUP3 PUSH1 0x3 ADD SLOAD GT ISZERO PUSH2 0x11BE JUMPI PUSH2 0x11B9 DUP3 PUSH2 0x2565 JUMP JUMPDEST PUSH2 0x11C7 JUMP JUMPDEST PUSH2 0x11C7 DUP3 PUSH2 0x25B8 JUMP JUMPDEST POP POP POP POP POP JUMP JUMPDEST PUSH1 0x0 SLOAD PUSH1 0x1 PUSH1 0x1 PUSH1 0xA0 SHL SUB AND CALLER EQ DUP1 PUSH2 0x122B JUMPI PUSH1 0x0 JUMPDEST PUSH1 0x1 SLOAD DUP2 LT ISZERO PUSH2 0x1229 JUMPI PUSH1 0x1 DUP2 DUP2 SLOAD DUP2 LT PUSH2 0x1201 JUMPI PUSH2 0x1201 PUSH2 0x28A1 JUMP JUMPDEST PUSH1 0x0 SWAP2 DUP3 MSTORE PUSH1 0x20 SWAP1 SWAP2 KECCAK256 ADD SLOAD PUSH1 0x1 PUSH1 0x1 PUSH1 0xA0 SHL SUB AND CALLER SUB PUSH2 0x1221 JUMPI PUSH1 0x1 SWAP2 POP JUMPDEST PUSH1 0x1 ADD PUSH2 0x11E4 JUMP JUMPDEST POP JUMPDEST DUP1 PUSH2 0x128B JUMPI PUSH1 0x40 MLOAD PUSH3 0x461BCD PUSH1 0xE5 SHL DUP2 MSTORE PUSH1 0x20 PUSH1 0x4 DUP3 ADD MSTORE PUSH1 0x2A PUSH1 0x24 DUP3 ADD MSTORE PUSH32 0x4F6E6C79206F776E6572206F722073746166662063616E2063616C6C20746869 PUSH1 0x44 DUP3 ADD MSTORE PUSH10 0x3990333AB731BA34B7B7 PUSH1 0xB1 SHL PUSH1 0x64 DUP3 ADD MSTORE PUSH1 0x84 ADD PUSH2 0x69D JUMP JUMPDEST PUSH1 0x0 DUP3 DUP2 MSTORE PUSH1 0x6 PUSH1 0x20 MSTORE PUSH1 0x40 SWAP1 KECCAK256 PUSH1 0x5 ADD SLOAD DUP3 SWAP1 PUSH1 0xFF AND PUSH2 0x1308 JUMPI PUSH1 0x40 MLOAD PUSH3 0x461BCD PUSH1 0xE5 SHL DUP2 MSTORE PUSH1 0x20 PUSH1 0x4 DUP3 ADD MSTORE PUSH1 0x31 PUSH1 0x24 DUP3 ADD MSTORE PUSH32 0x54686520616374696F6E2063616E206F6E6C792068617070656E206F6E20616E PUSH1 0x44 DUP3 ADD MSTORE PUSH17 0x8185C1C1C9BDD9959081C1C9BDA9958DD PUSH1 0x7A SHL PUSH1 0x64 DUP3 ADD MSTORE PUSH1 0x84 ADD PUSH2 0x69D JUMP JUMPDEST PUSH1 0x0 DUP4 DUP2 MSTORE PUSH1 0x6 PUSH1 0x20 MSTORE PUSH1 0x40 SWAP1 KECCAK256 PUSH1 0x5 DUP2 ADD SLOAD DUP5 SWAP2 SWAP1 PUSH2 0x100 SWAP1 DIV PUSH1 0xFF AND PUSH2 0x1398 JUMPI PUSH1 0x40 MLOAD PUSH3 0x461BCD PUSH1 0xE5 SHL DUP2 MSTORE PUSH1 0x20 PUSH1 0x4 DUP3 ADD MSTORE PUSH1 0x30 PUSH1 0x24 DUP3 ADD MSTORE PUSH32 0x54686520446F6E6174696F6E2050726F6A656374206973206E6F7420636C6F73 PUSH1 0x44 DUP3 ADD MSTORE PUSH32 0x656420666F7220646F6E6174696F6E7300000000000000000000000000000000 PUSH1 0x64 DUP3 ADD MSTORE PUSH1 0x84 ADD PUSH2 0x69D JUMP JUMPDEST PUSH1 0x0 DUP6 DUP2 MSTORE PUSH1 0x6 PUSH1 0x20 MSTORE PUSH1 0x40 DUP1 DUP3 KECCAK256 PUSH1 0x5 DUP2 ADD DUP1 SLOAD PUSH2 0xFF00 NOT AND SWAP1 SSTORE SWAP1 MLOAD SWAP1 SWAP2 DUP8 SWAP2 PUSH32 0xD312A8F16F4214218CB0334DA9A62AA94A5BF7C208659435E4B35B5A4B7D4408 SWAP2 SWAP1 LOG2 POP POP POP POP POP POP JUMP JUMPDEST PUSH1 0x0 DUP3 DUP2 MSTORE PUSH1 0x6 PUSH1 0x20 MSTORE PUSH1 0x40 DUP2 KECCAK256 DUP4 SWAP2 DUP1 JUMPDEST PUSH1 0x1 DUP4 ADD SLOAD PUSH1 0xFF DUP3 AND LT ISZERO PUSH2 0x144B JUMPI DUP3 PUSH1 0x1 ADD DUP2 PUSH1 0xFF AND DUP2 SLOAD DUP2 LT PUSH2 0x141F JUMPI PUSH2 0x141F PUSH2 0x28A1 JUMP JUMPDEST PUSH1 0x0 SWAP2 DUP3 MSTORE PUSH1 0x20 SWAP1 SWAP2 KECCAK256 ADD SLOAD PUSH1 0x1 PUSH1 0x1 PUSH1 0xA0 SHL SUB AND CALLER SUB PUSH2 0x1443 JUMPI PUSH1 0x1 SWAP2 POP PUSH2 0x144B JUMP JUMPDEST PUSH1 0x1 ADD PUSH2 0x13F8 JUMP JUMPDEST POP DUP1 PUSH2 0x14BF JUMPI PUSH1 0x40 MLOAD PUSH3 0x461BCD PUSH1 0xE5 SHL DUP2 MSTORE PUSH1 0x20 PUSH1 0x4 DUP3 ADD MSTORE PUSH1 0x3D PUSH1 0x24 DUP3 ADD MSTORE PUSH32 0x54686520616374696F6E2063616E206F6E6C7920626520706572666F726D6564 PUSH1 0x44 DUP3 ADD MSTORE PUSH32 0x206279206F7267616E697A657273206F66207468652070726F6A656374000000 PUSH1 0x64 DUP3 ADD MSTORE PUSH1 0x84 ADD PUSH2 0x69D JUMP JUMPDEST PUSH1 0x0 DUP6 DUP2 MSTORE PUSH1 0x6 PUSH1 0x20 MSTORE PUSH1 0x40 SWAP1 KECCAK256 PUSH1 0x5 ADD SLOAD DUP6 SWAP1 PUSH1 0xFF AND PUSH2 0x153C JUMPI PUSH1 0x40 MLOAD PUSH3 0x461BCD PUSH1 0xE5 SHL DUP2 MSTORE PUSH1 0x20 PUSH1 0x4 DUP3 ADD MSTORE PUSH1 0x31 PUSH1 0x24 DUP3 ADD MSTORE PUSH32 0x54686520616374696F6E2063616E206F6E6C792068617070656E206F6E20616E PUSH1 0x44 DUP3 ADD MSTORE PUSH17 0x8185C1C1C9BDD9959081C1C9BDA9958DD PUSH1 0x7A SHL PUSH1 0x64 DUP3 ADD MSTORE PUSH1 0x84 ADD PUSH2 0x69D JUMP JUMPDEST PUSH1 0x0 DUP7 DUP2 MSTORE PUSH1 0x7 PUSH1 0x20 SWAP1 DUP2 MSTORE PUSH1 0x40 DUP1 DUP4 KECCAK256 PUSH1 0x3 DUP1 SLOAD DUP6 MSTORE SWAP3 MSTORE DUP3 KECCAK256 DUP9 DUP2 SSTORE PUSH1 0x1 DUP2 ADD DUP1 SLOAD PUSH32 0xFFFFFFFFFFFFFFFFFFFFFF000000000000000000000000000000000000000000 AND CALLER PUSH2 0x100 MUL OR SWAP1 SSTORE PUSH1 0x2 DUP2 ADD DUP9 SWAP1 SSTORE DUP2 SLOAD SWAP1 SWAP3 SWAP1 SWAP2 SWAP1 PUSH2 0x15A1 DUP4 PUSH2 0x28CD JUMP JUMPDEST SWAP2 SWAP1 POP SSTORE POP DUP7 PUSH32 0x72EDC12715C8390DC175C5974D223D1801990D7DE2797CE9A476A9D6993260F8 PUSH1 0x1 PUSH1 0x3 SLOAD PUSH2 0x15D7 SWAP2 SWAP1 PUSH2 0x2939 JUMP JUMPDEST PUSH1 0x40 DUP1 MLOAD SWAP2 DUP3 MSTORE PUSH1 0x20 DUP3 ADD DUP11 SWAP1 MSTORE ADD JUMPDEST PUSH1 0x40 MLOAD DUP1 SWAP2 SUB SWAP1 LOG2 POP POP POP POP POP POP POP JUMP JUMPDEST PUSH1 0x0 SLOAD PUSH1 0x1 PUSH1 0x1 PUSH1 0xA0 SHL SUB AND CALLER EQ DUP1 PUSH2 0x1655 JUMPI PUSH1 0x0 JUMPDEST PUSH1 0x1 SLOAD DUP2 LT ISZERO PUSH2 0x1653 JUMPI PUSH1 0x1 DUP2 DUP2 SLOAD DUP2 LT PUSH2 0x162B JUMPI PUSH2 0x162B PUSH2 0x28A1 JUMP JUMPDEST PUSH1 0x0 SWAP2 DUP3 MSTORE PUSH1 0x20 SWAP1 SWAP2 KECCAK256 ADD SLOAD PUSH1 0x1 PUSH1 0x1 PUSH1 0xA0 SHL SUB AND CALLER SUB PUSH2 0x164B JUMPI PUSH1 0x1 SWAP2 POP JUMPDEST PUSH1 0x1 ADD PUSH2 0x160E JUMP JUMPDEST POP JUMPDEST DUP1 PUSH2 0x16B5 JUMPI PUSH1 0x40 MLOAD PUSH3 0x461BCD PUSH1 0xE5 SHL DUP2 MSTORE PUSH1 0x20 PUSH1 0x4 DUP3 ADD MSTORE PUSH1 0x2A PUSH1 0x24 DUP3 ADD MSTORE PUSH32 0x4F6E6C79206F776E6572206F722073746166662063616E2063616C6C20746869 PUSH1 0x44 DUP3 ADD MSTORE PUSH10 0x3990333AB731BA34B7B7 PUSH1 0xB1 SHL PUSH1 0x64 DUP3 ADD MSTORE PUSH1 0x84 ADD PUSH2 0x69D JUMP JUMPDEST PUSH1 0x2 SLOAD PUSH1 0x0 SWAP1 DUP2 MSTORE PUSH1 0x6 PUSH1 0x20 MSTORE PUSH1 0x40 SWAP1 KECCAK256 DUP1 SLOAD DUP8 SWAP1 DUP3 SWAP1 PUSH1 0xFF NOT AND PUSH1 0x1 DUP4 DUP2 DUP2 GT ISZERO PUSH2 0x16E3 JUMPI PUSH2 0x16E3 PUSH2 0x26B8 JUMP JUMPDEST MUL OR SWAP1 SSTORE POP DUP6 MLOAD PUSH2 0x16FD SWAP1 PUSH1 0x1 DUP4 ADD SWAP1 PUSH1 0x20 DUP10 ADD SWAP1 PUSH2 0x2603 JUMP JUMPDEST POP PUSH1 0x2 DUP1 DUP3 ADD DUP7 SWAP1 SSTORE PUSH1 0x3 DUP3 ADD DUP6 SWAP1 SSTORE PUSH1 0x4 DUP3 ADD DUP5 SWAP1 SSTORE PUSH1 0x5 DUP3 ADD DUP1 SLOAD PUSH2 0xFFFF NOT AND SWAP1 SSTORE PUSH1 0x0 PUSH1 0x7 DUP4 ADD DUP2 SWAP1 SSTORE PUSH1 0x8 DUP4 ADD DUP2 SWAP1 SSTORE DUP2 SLOAD SWAP2 SWAP1 PUSH2 0x173E DUP4 PUSH2 0x28CD JUMP JUMPDEST SWAP2 SWAP1 POP SSTORE POP PUSH1 0x1 PUSH1 0x2 SLOAD PUSH2 0x1752 SWAP2 SWAP1 PUSH2 0x2939 JUMP JUMPDEST PUSH32 0xD2A5012DC4BD19DC1ABEE5A94A684343C01B625110482B114FC5124F5E37CB9F DUP8 DUP8 PUSH1 0x40 MLOAD PUSH2 0x15E7 SWAP3 SWAP2 SWAP1 PUSH2 0x2950 JUMP JUMPDEST PUSH1 0x0 DUP2 DUP2 MSTORE PUSH1 0x6 PUSH1 0x20 MSTORE PUSH1 0x40 SWAP1 KECCAK256 PUSH1 0x5 DUP2 ADD SLOAD DUP3 SWAP2 SWAP1 PUSH1 0xFF AND PUSH2 0x180E JUMPI PUSH1 0x40 MLOAD PUSH3 0x461BCD PUSH1 0xE5 SHL DUP2 MSTORE PUSH1 0x20 PUSH1 0x4 DUP3 ADD MSTORE PUSH1 0x2F PUSH1 0x24 DUP3 ADD MSTORE PUSH32 0x446F6E6174696F6E2063616E206F6E6C792068617070656E206F6E20616E2061 PUSH1 0x44 DUP3 ADD MSTORE PUSH32 0x7070726F7665642070726F6A6563740000000000000000000000000000000000 PUSH1 0x64 DUP3 ADD MSTORE PUSH1 0x84 ADD PUSH2 0x69D JUMP JUMPDEST PUSH1 0x0 DUP2 SLOAD PUSH1 0xFF AND PUSH1 0x1 DUP2 GT ISZERO PUSH2 0x1826 JUMPI PUSH2 0x1826 PUSH2 0x26B8 JUMP JUMPDEST SUB PUSH2 0x198A JUMPI PUSH1 0x3 DUP2 ADD SLOAD TIMESTAMP SWAP1 DUP2 GT PUSH2 0x18A6 JUMPI PUSH1 0x40 MLOAD PUSH3 0x461BCD PUSH1 0xE5 SHL DUP2 MSTORE PUSH1 0x20 PUSH1 0x4 DUP3 ADD MSTORE PUSH1 0x2D PUSH1 0x24 DUP3 ADD MSTORE PUSH32 0x446F6E6174696F6E2063616E6E6F742068617070656E206265666F7265207365 PUSH1 0x44 DUP3 ADD MSTORE PUSH32 0x6C656374656420706572696F6400000000000000000000000000000000000000 PUSH1 0x64 DUP3 ADD MSTORE PUSH1 0x84 ADD PUSH2 0x69D JUMP JUMPDEST DUP2 PUSH1 0x4 ADD SLOAD DUP2 LT PUSH2 0x191F JUMPI PUSH1 0x40 MLOAD PUSH3 0x461BCD PUSH1 0xE5 SHL DUP2 MSTORE PUSH1 0x20 PUSH1 0x4 DUP3 ADD MSTORE PUSH1 0x2C PUSH1 0x24 DUP3 ADD MSTORE PUSH32 0x446F6E6174696F6E2063616E6E6F742068617070656E2061667465722073656C PUSH1 0x44 DUP3 ADD MSTORE PUSH32 0x656374656420706572696F640000000000000000000000000000000000000000 PUSH1 0x64 DUP3 ADD MSTORE PUSH1 0x84 ADD PUSH2 0x69D JUMP JUMPDEST PUSH1 0x5 DUP3 ADD SLOAD PUSH2 0x100 SWAP1 DIV PUSH1 0xFF AND PUSH2 0x1984 JUMPI PUSH1 0x40 MLOAD PUSH3 0x461BCD PUSH1 0xE5 SHL DUP2 MSTORE PUSH1 0x20 PUSH1 0x4 DUP3 ADD MSTORE PUSH1 0x24 DUP1 DUP3 ADD MSTORE PUSH32 0x54686520446F6E6174696F6E2050726F6A65637420686173206265656E20636C PUSH1 0x44 DUP3 ADD MSTORE PUSH4 0x1BDCD959 PUSH1 0xE2 SHL PUSH1 0x64 DUP3 ADD MSTORE PUSH1 0x84 ADD PUSH2 0x69D JUMP JUMPDEST POP PUSH2 0x1A09 JUMP JUMPDEST PUSH1 0x5 DUP2 ADD SLOAD PUSH2 0x100 SWAP1 DIV PUSH1 0xFF AND PUSH2 0x1A09 JUMPI PUSH1 0x40 MLOAD PUSH3 0x461BCD PUSH1 0xE5 SHL DUP2 MSTORE PUSH1 0x20 PUSH1 0x4 DUP3 ADD MSTORE PUSH1 0x31 PUSH1 0x24 DUP3 ADD MSTORE PUSH32 0x54686520446F6E6174696F6E2050726F6A65637420686173206265656E20636C PUSH1 0x44 DUP3 ADD MSTORE PUSH32 0x6F73656420746F20646F6E6174696F6E73000000000000000000000000000000 PUSH1 0x64 DUP3 ADD MSTORE PUSH1 0x84 ADD PUSH2 0x69D JUMP JUMPDEST PUSH1 0x0 DUP4 DUP2 MSTORE PUSH1 0x6 PUSH1 0x20 DUP2 DUP2 MSTORE PUSH1 0x40 DUP4 KECCAK256 SWAP2 DUP3 ADD DUP1 SLOAD PUSH1 0x1 DUP2 ADD DUP3 SSTORE SWAP1 DUP5 MSTORE SWAP1 DUP4 KECCAK256 ADD DUP1 SLOAD PUSH1 0x1 PUSH1 0x1 PUSH1 0xA0 SHL SUB NOT AND CALLER OR SWAP1 SSTORE PUSH1 0x7 DUP2 ADD DUP1 SLOAD SWAP2 SWAP3 CALLVALUE SWAP3 PUSH2 0x1A50 SWAP1 DUP5 SWAP1 PUSH2 0x29A1 JUMP JUMPDEST SWAP1 SWAP2 SSTORE POP POP CALLER PUSH1 0x0 SWAP1 DUP2 MSTORE PUSH1 0x9 DUP3 ADD PUSH1 0x20 MSTORE PUSH1 0x40 DUP2 KECCAK256 DUP1 SLOAD CALLVALUE SWAP3 SWAP1 PUSH2 0x1A76 SWAP1 DUP5 SWAP1 PUSH2 0x29A1 JUMP JUMPDEST SWAP3 POP POP DUP2 SWAP1 SSTORE POP CALLVALUE PUSH1 0x4 PUSH1 0x0 DUP3 DUP3 SLOAD PUSH2 0x1A8F SWAP2 SWAP1 PUSH2 0x29A1 JUMP JUMPDEST SWAP1 SWAP2 SSTORE POP POP PUSH1 0x40 DUP1 MLOAD CALLER DUP2 MSTORE CALLVALUE PUSH1 0x20 DUP3 ADD MSTORE DUP6 SWAP2 PUSH32 0xE555DA28BDB778F65D22794D88927EBAECA03F7DE9D1B7D39245BC8FB5CA078A SWAP2 ADD PUSH2 0xFE7 JUMP JUMPDEST PUSH1 0x0 DUP2 DUP2 MSTORE PUSH1 0x6 PUSH1 0x20 MSTORE PUSH1 0x40 DUP2 KECCAK256 DUP3 SWAP2 DUP1 JUMPDEST PUSH1 0x1 DUP4 ADD SLOAD PUSH1 0xFF DUP3 AND LT ISZERO PUSH2 0x1B30 JUMPI DUP3 PUSH1 0x1 ADD DUP2 PUSH1 0xFF AND DUP2 SLOAD DUP2 LT PUSH2 0x1B04 JUMPI PUSH2 0x1B04 PUSH2 0x28A1 JUMP JUMPDEST PUSH1 0x0 SWAP2 DUP3 MSTORE PUSH1 0x20 SWAP1 SWAP2 KECCAK256 ADD SLOAD PUSH1 0x1 PUSH1 0x1 PUSH1 0xA0 SHL SUB AND CALLER SUB PUSH2 0x1B28 JUMPI PUSH1 0x1 SWAP2 POP PUSH2 0x1B30 JUMP JUMPDEST PUSH1 0x1 ADD PUSH2 0x1ADD JUMP JUMPDEST POP DUP1 PUSH2 0x1BA4 JUMPI PUSH1 0x40 MLOAD PUSH3 0x461BCD PUSH1 0xE5 SHL DUP2 MSTORE PUSH1 0x20 PUSH1 0x4 DUP3 ADD MSTORE PUSH1 0x3D PUSH1 0x24 DUP3 ADD MSTORE PUSH32 0x54686520616374696F6E2063616E206F6E6C7920626520706572666F726D6564 PUSH1 0x44 DUP3 ADD MSTORE PUSH32 0x206279206F7267616E697A657273206F66207468652070726F6A656374000000 PUSH1 0x64 DUP3 ADD MSTORE PUSH1 0x84 ADD PUSH2 0x69D JUMP JUMPDEST PUSH1 0x0 DUP5 DUP2 MSTORE PUSH1 0x6 PUSH1 0x20 MSTORE PUSH1 0x40 SWAP1 KECCAK256 PUSH1 0x5 DUP2 ADD SLOAD PUSH2 0x100 SWAP1 DIV PUSH1 0xFF AND PUSH2 0x1C0B JUMPI PUSH1 0x40 MLOAD PUSH3 0x461BCD PUSH1 0xE5 SHL DUP2 MSTORE PUSH1 0x20 PUSH1 0x4 DUP3 ADD MSTORE PUSH1 0x1C PUSH1 0x24 DUP3 ADD MSTORE PUSH32 0x446F6E6174696F6E732061726520616C726561647920636C6F73656400000000 PUSH1 0x44 DUP3 ADD MSTORE PUSH1 0x64 ADD PUSH2 0x69D JUMP JUMPDEST PUSH1 0x5 DUP2 ADD DUP1 SLOAD PUSH2 0xFF00 NOT AND SWAP1 SSTORE PUSH1 0x6 DUP2 ADD SLOAD DUP1 PUSH2 0x1C6A JUMPI PUSH1 0x40 MLOAD PUSH3 0x461BCD PUSH1 0xE5 SHL DUP2 MSTORE PUSH1 0x20 PUSH1 0x4 DUP3 ADD MSTORE PUSH1 0x14 PUSH1 0x24 DUP3 ADD MSTORE PUSH32 0x4E6F20646F6E6F727320746F2070726F63657373000000000000000000000000 PUSH1 0x44 DUP3 ADD MSTORE PUSH1 0x64 ADD PUSH2 0x69D JUMP JUMPDEST PUSH1 0x0 DUP2 PUSH8 0xFFFFFFFFFFFFFFFF DUP2 GT ISZERO PUSH2 0x1C85 JUMPI PUSH2 0x1C85 PUSH2 0x2724 JUMP JUMPDEST PUSH1 0x40 MLOAD SWAP1 DUP1 DUP3 MSTORE DUP1 PUSH1 0x20 MUL PUSH1 0x20 ADD DUP3 ADD PUSH1 0x40 MSTORE DUP1 ISZERO PUSH2 0x1CAE JUMPI DUP2 PUSH1 0x20 ADD PUSH1 0x20 DUP3 MUL DUP1 CALLDATASIZE DUP4 CALLDATACOPY ADD SWAP1 POP JUMPDEST POP SWAP1 POP PUSH1 0x0 DUP3 PUSH8 0xFFFFFFFFFFFFFFFF DUP2 GT ISZERO PUSH2 0x1CCC JUMPI PUSH2 0x1CCC PUSH2 0x2724 JUMP JUMPDEST PUSH1 0x40 MLOAD SWAP1 DUP1 DUP3 MSTORE DUP1 PUSH1 0x20 MUL PUSH1 0x20 ADD DUP3 ADD PUSH1 0x40 MSTORE DUP1 ISZERO PUSH2 0x1CF5 JUMPI DUP2 PUSH1 0x20 ADD PUSH1 0x20 DUP3 MUL DUP1 CALLDATASIZE DUP4 CALLDATACOPY ADD SWAP1 POP JUMPDEST POP SWAP1 POP PUSH1 0x0 JUMPDEST DUP4 DUP2 LT ISZERO PUSH2 0x1DC5 JUMPI PUSH1 0x0 DUP6 PUSH1 0x6 ADD DUP3 DUP2 SLOAD DUP2 LT PUSH2 0x1D1A JUMPI PUSH2 0x1D1A PUSH2 0x28A1 JUMP JUMPDEST SWAP1 PUSH1 0x0 MSTORE PUSH1 0x20 PUSH1 0x0 KECCAK256 ADD PUSH1 0x0 SWAP1 SLOAD SWAP1 PUSH2 0x100 EXP SWAP1 DIV PUSH1 0x1 PUSH1 0x1 PUSH1 0xA0 SHL SUB AND SWAP1 POP DUP1 DUP5 DUP4 DUP2 MLOAD DUP2 LT PUSH2 0x1D4D JUMPI PUSH2 0x1D4D PUSH2 0x28A1 JUMP JUMPDEST PUSH1 0x20 MUL PUSH1 0x20 ADD ADD SWAP1 PUSH1 0x1 PUSH1 0x1 PUSH1 0xA0 SHL SUB AND SWAP1 DUP2 PUSH1 0x1 PUSH1 0x1 PUSH1 0xA0 SHL SUB AND DUP2 MSTORE POP POP DUP6 PUSH1 0x9 ADD PUSH1 0x0 DUP3 PUSH1 0x1 PUSH1 0x1 PUSH1 0xA0 SHL SUB AND PUSH1 0x1 PUSH1 0x1 PUSH1 0xA0 SHL SUB AND DUP2 MSTORE PUSH1 0x20 ADD SWAP1 DUP2 MSTORE PUSH1 0x20 ADD PUSH1 0x0 KECCAK256 SLOAD DUP4 DUP4 DUP2 MLOAD DUP2 LT PUSH2 0x1DA7 JUMPI PUSH2 0x1DA7 PUSH2 0x28A1 JUMP JUMPDEST PUSH1 0x20 SWAP1 DUP2 MUL SWAP2 SWAP1 SWAP2 ADD ADD MSTORE POP DUP1 PUSH2 0x1DBD DUP2 PUSH2 0x28CD JUMP JUMPDEST SWAP2 POP POP PUSH2 0x1CFB JUMP JUMPDEST POP PUSH1 0x0 JUMPDEST PUSH2 0x1DD4 PUSH1 0x1 DUP6 PUSH2 0x2939 JUMP JUMPDEST DUP2 LT ISZERO PUSH2 0x1F78 JUMPI PUSH1 0x0 JUMPDEST PUSH1 0x1 PUSH2 0x1DEA DUP4 DUP8 PUSH2 0x2939 JUMP JUMPDEST PUSH2 0x1DF4 SWAP2 SWAP1 PUSH2 0x2939 JUMP JUMPDEST DUP2 LT ISZERO PUSH2 0x1F65 JUMPI DUP3 PUSH2 0x1E07 DUP3 PUSH1 0x1 PUSH2 0x29A1 JUMP JUMPDEST DUP2 MLOAD DUP2 LT PUSH2 0x1E17 JUMPI PUSH2 0x1E17 PUSH2 0x28A1 JUMP JUMPDEST PUSH1 0x20 MUL PUSH1 0x20 ADD ADD MLOAD DUP4 DUP3 DUP2 MLOAD DUP2 LT PUSH2 0x1E31 JUMPI PUSH2 0x1E31 PUSH2 0x28A1 JUMP JUMPDEST PUSH1 0x20 MUL PUSH1 0x20 ADD ADD MLOAD LT ISZERO PUSH2 0x1F53 JUMPI DUP3 PUSH2 0x1E4B DUP3 PUSH1 0x1 PUSH2 0x29A1 JUMP JUMPDEST DUP2 MLOAD DUP2 LT PUSH2 0x1E5B JUMPI PUSH2 0x1E5B PUSH2 0x28A1 JUMP JUMPDEST PUSH1 0x20 MUL PUSH1 0x20 ADD ADD MLOAD DUP4 DUP3 DUP2 MLOAD DUP2 LT PUSH2 0x1E75 JUMPI PUSH2 0x1E75 PUSH2 0x28A1 JUMP JUMPDEST PUSH1 0x20 MUL PUSH1 0x20 ADD ADD MLOAD DUP5 DUP4 DUP2 MLOAD DUP2 LT PUSH2 0x1E8F JUMPI PUSH2 0x1E8F PUSH2 0x28A1 JUMP JUMPDEST PUSH1 0x20 MUL PUSH1 0x20 ADD ADD DUP6 DUP5 PUSH1 0x1 PUSH2 0x1EA4 SWAP2 SWAP1 PUSH2 0x29A1 JUMP JUMPDEST DUP2 MLOAD DUP2 LT PUSH2 0x1EB4 JUMPI PUSH2 0x1EB4 PUSH2 0x28A1 JUMP JUMPDEST PUSH1 0x20 SWAP1 DUP2 MUL SWAP2 SWAP1 SWAP2 ADD ADD SWAP2 SWAP1 SWAP2 MSTORE MSTORE DUP4 PUSH2 0x1ECF DUP3 PUSH1 0x1 PUSH2 0x29A1 JUMP JUMPDEST DUP2 MLOAD DUP2 LT PUSH2 0x1EDF JUMPI PUSH2 0x1EDF PUSH2 0x28A1 JUMP JUMPDEST PUSH1 0x20 MUL PUSH1 0x20 ADD ADD MLOAD DUP5 DUP3 DUP2 MLOAD DUP2 LT PUSH2 0x1EF9 JUMPI PUSH2 0x1EF9 PUSH2 0x28A1 JUMP JUMPDEST PUSH1 0x20 MUL PUSH1 0x20 ADD ADD MLOAD DUP6 DUP4 DUP2 MLOAD DUP2 LT PUSH2 0x1F13 JUMPI PUSH2 0x1F13 PUSH2 0x28A1 JUMP JUMPDEST PUSH1 0x20 MUL PUSH1 0x20 ADD ADD DUP7 DUP5 PUSH1 0x1 PUSH2 0x1F28 SWAP2 SWAP1 PUSH2 0x29A1 JUMP JUMPDEST DUP2 MLOAD DUP2 LT PUSH2 0x1F38 JUMPI PUSH2 0x1F38 PUSH2 0x28A1 JUMP JUMPDEST PUSH1 0x1 PUSH1 0x1 PUSH1 0xA0 SHL SUB SWAP4 DUP5 AND PUSH1 0x20 SWAP2 DUP3 MUL SWAP3 SWAP1 SWAP3 ADD ADD MSTORE SWAP2 AND SWAP1 MSTORE JUMPDEST DUP1 PUSH2 0x1F5D DUP2 PUSH2 0x28CD JUMP JUMPDEST SWAP2 POP POP PUSH2 0x1DDE JUMP JUMPDEST POP DUP1 PUSH2 0x1F70 DUP2 PUSH2 0x28CD JUMP JUMPDEST SWAP2 POP POP PUSH2 0x1DC9 JUMP JUMPDEST POP PUSH1 0x0 PUSH1 0x64 PUSH2 0x1F88 DUP6 PUSH1 0x5 PUSH2 0x29B9 JUMP JUMPDEST PUSH2 0x1F92 SWAP2 SWAP1 PUSH2 0x29D8 JUMP JUMPDEST SWAP1 POP PUSH1 0x0 JUMPDEST DUP2 DUP2 LT ISZERO PUSH2 0x2002 JUMPI DUP6 PUSH1 0xA ADD DUP5 DUP3 DUP2 MLOAD DUP2 LT PUSH2 0x1FB5 JUMPI PUSH2 0x1FB5 PUSH2 0x28A1 JUMP JUMPDEST PUSH1 0x20 SWAP1 DUP2 MUL SWAP2 SWAP1 SWAP2 ADD DUP2 ADD MLOAD DUP3 SLOAD PUSH1 0x1 DUP2 ADD DUP5 SSTORE PUSH1 0x0 SWAP4 DUP5 MSTORE SWAP2 SWAP1 SWAP3 KECCAK256 ADD DUP1 SLOAD PUSH1 0x1 PUSH1 0x1 PUSH1 0xA0 SHL SUB NOT AND PUSH1 0x1 PUSH1 0x1 PUSH1 0xA0 SHL SUB SWAP1 SWAP3 AND SWAP2 SWAP1 SWAP2 OR SWAP1 SSTORE DUP1 PUSH2 0x1FFA DUP2 PUSH2 0x28CD JUMP JUMPDEST SWAP2 POP POP PUSH2 0x1F97 JUMP JUMPDEST POP PUSH1 0x0 PUSH2 0x200F DUP3 DUP7 PUSH2 0x2939 JUMP JUMPDEST SWAP1 POP PUSH1 0x0 DUP2 GT PUSH2 0x2087 JUMPI PUSH1 0x40 MLOAD PUSH3 0x461BCD PUSH1 0xE5 SHL DUP2 MSTORE PUSH1 0x20 PUSH1 0x4 DUP3 ADD MSTORE PUSH1 0x2F PUSH1 0x24 DUP3 ADD MSTORE PUSH32 0x4E6F7420656E6F75676820646F6E6F727320746F2073656C6563742072616E64 PUSH1 0x44 DUP3 ADD MSTORE PUSH32 0x6F6D20636F6E7472696275746F72730000000000000000000000000000000000 PUSH1 0x64 DUP3 ADD MSTORE PUSH1 0x84 ADD PUSH2 0x69D JUMP JUMPDEST PUSH1 0x0 DUP2 PUSH8 0xFFFFFFFFFFFFFFFF DUP2 GT ISZERO PUSH2 0x20A2 JUMPI PUSH2 0x20A2 PUSH2 0x2724 JUMP JUMPDEST PUSH1 0x40 MLOAD SWAP1 DUP1 DUP3 MSTORE DUP1 PUSH1 0x20 MUL PUSH1 0x20 ADD DUP3 ADD PUSH1 0x40 MSTORE DUP1 ISZERO PUSH2 0x20CB JUMPI DUP2 PUSH1 0x20 ADD PUSH1 0x20 DUP3 MUL DUP1 CALLDATASIZE DUP4 CALLDATACOPY ADD SWAP1 POP JUMPDEST POP SWAP1 POP PUSH1 0x0 DUP4 JUMPDEST DUP8 DUP2 LT ISZERO PUSH2 0x213C JUMPI DUP7 DUP2 DUP2 MLOAD DUP2 LT PUSH2 0x20EC JUMPI PUSH2 0x20EC PUSH2 0x28A1 JUMP JUMPDEST PUSH1 0x20 MUL PUSH1 0x20 ADD ADD MLOAD DUP4 DUP4 DUP1 PUSH2 0x2100 SWAP1 PUSH2 0x28CD JUMP JUMPDEST SWAP5 POP DUP2 MLOAD DUP2 LT PUSH2 0x2112 JUMPI PUSH2 0x2112 PUSH2 0x28A1 JUMP JUMPDEST PUSH1 0x1 PUSH1 0x1 PUSH1 0xA0 SHL SUB SWAP1 SWAP3 AND PUSH1 0x20 SWAP3 DUP4 MUL SWAP2 SWAP1 SWAP2 ADD SWAP1 SWAP2 ADD MSTORE DUP1 PUSH2 0x2134 DUP2 PUSH2 0x28CD JUMP JUMPDEST SWAP2 POP POP PUSH2 0x20D2 JUMP JUMPDEST POP PUSH1 0x0 JUMPDEST DUP5 DUP2 LT ISZERO PUSH2 0x21AB JUMPI DUP9 PUSH1 0xB ADD DUP4 DUP3 DUP2 MLOAD DUP2 LT PUSH2 0x215E JUMPI PUSH2 0x215E PUSH2 0x28A1 JUMP JUMPDEST PUSH1 0x20 SWAP1 DUP2 MUL SWAP2 SWAP1 SWAP2 ADD DUP2 ADD MLOAD DUP3 SLOAD PUSH1 0x1 DUP2 ADD DUP5 SSTORE PUSH1 0x0 SWAP4 DUP5 MSTORE SWAP2 SWAP1 SWAP3 KECCAK256 ADD DUP1 SLOAD PUSH1 0x1 PUSH1 0x1 PUSH1 0xA0 SHL SUB NOT AND PUSH1 0x1 PUSH1 0x1 PUSH1 0xA0 SHL SUB SWAP1 SWAP3 AND SWAP2 SWAP1 SWAP2 OR SWAP1 SSTORE DUP1 PUSH2 0x21A3 DUP2 PUSH2 0x28CD JUMP JUMPDEST SWAP2 POP POP PUSH2 0x2140 JUMP JUMPDEST POP PUSH1 0x1 DUP9 ADD SLOAD PUSH1 0xB DUP10 ADD SLOAD PUSH1 0xA DUP11 ADD SLOAD PUSH2 0x21C5 SWAP2 SWAP1 PUSH2 0x29A1 JUMP JUMPDEST PUSH2 0x21CF SWAP2 SWAP1 PUSH2 0x29A1 JUMP JUMPDEST PUSH1 0xC DUP10 ADD DUP1 SLOAD PUSH1 0xFF NOT AND PUSH1 0xFF SWAP3 SWAP1 SWAP3 AND SWAP2 SWAP1 SWAP2 OR SWAP1 SSTORE PUSH1 0x40 MLOAD DUP13 SWAP1 PUSH32 0xD312A8F16F4214218CB0334DA9A62AA94A5BF7C208659435E4B35B5A4B7D4408 SWAP1 PUSH1 0x0 SWAP1 LOG2 POP POP POP POP POP POP POP POP POP POP POP POP JUMP JUMPDEST PUSH1 0x0 DUP3 DUP2 MSTORE PUSH1 0x6 PUSH1 0x20 MSTORE PUSH1 0x40 DUP2 KECCAK256 DUP4 SWAP2 DUP1 JUMPDEST PUSH1 0x1 DUP4 ADD SLOAD PUSH1 0xFF DUP3 AND LT ISZERO PUSH2 0x2283 JUMPI DUP3 PUSH1 0x1 ADD DUP2 PUSH1 0xFF AND DUP2 SLOAD DUP2 LT PUSH2 0x2257 JUMPI PUSH2 0x2257 PUSH2 0x28A1 JUMP JUMPDEST PUSH1 0x0 SWAP2 DUP3 MSTORE PUSH1 0x20 SWAP1 SWAP2 KECCAK256 ADD SLOAD PUSH1 0x1 PUSH1 0x1 PUSH1 0xA0 SHL SUB AND CALLER SUB PUSH2 0x227B JUMPI PUSH1 0x1 SWAP2 POP PUSH2 0x2283 JUMP JUMPDEST PUSH1 0x1 ADD PUSH2 0x2230 JUMP JUMPDEST POP DUP1 PUSH2 0x22F7 JUMPI PUSH1 0x40 MLOAD PUSH3 0x461BCD PUSH1 0xE5 SHL DUP2 MSTORE PUSH1 0x20 PUSH1 0x4 DUP3 ADD MSTORE PUSH1 0x3D PUSH1 0x24 DUP3 ADD MSTORE PUSH32 0x54686520616374696F6E2063616E206F6E6C7920626520706572666F726D6564 PUSH1 0x44 DUP3 ADD MSTORE PUSH32 0x206279206F7267616E697A657273206F66207468652070726F6A656374000000 PUSH1 0x64 DUP3 ADD MSTORE PUSH1 0x84 ADD PUSH2 0x69D JUMP JUMPDEST PUSH1 0x0 DUP6 DUP2 MSTORE PUSH1 0x6 PUSH1 0x20 MSTORE PUSH1 0x40 SWAP1 KECCAK256 PUSH1 0x5 ADD SLOAD DUP6 SWAP1 PUSH1 0xFF AND PUSH2 0x2374 JUMPI PUSH1 0x40 MLOAD PUSH3 0x461BCD PUSH1 0xE5 SHL DUP2 MSTORE PUSH1 0x20 PUSH1 0x4 DUP3 ADD MSTORE PUSH1 0x31 PUSH1 0x24 DUP3 ADD MSTORE PUSH32 0x54686520616374696F6E2063616E206F6E6C792068617070656E206F6E20616E PUSH1 0x44 DUP3 ADD MSTORE PUSH17 0x8185C1C1C9BDD9959081C1C9BDA9958DD PUSH1 0x7A SHL PUSH1 0x64 DUP3 ADD MSTORE PUSH1 0x84 ADD PUSH2 0x69D JUMP JUMPDEST PUSH1 0x0 DUP7 DUP2 MSTORE PUSH1 0x7 PUSH1 0x20 SWAP1 DUP2 MSTORE PUSH1 0x40 DUP1 DUP4 KECCAK256 DUP9 DUP5 MSTORE DUP3 MSTORE DUP1 DUP4 KECCAK256 DUP10 DUP5 MSTORE PUSH1 0x6 SWAP1 SWAP3 MSTORE SWAP1 SWAP2 KECCAK256 PUSH1 0x2 PUSH1 0x1 DUP4 ADD SLOAD PUSH1 0xFF AND PUSH1 0x4 DUP2 GT ISZERO PUSH2 0x23B3 JUMPI PUSH2 0x23B3 PUSH2 0x26B8 JUMP JUMPDEST EQ PUSH2 0x2426 JUMPI PUSH1 0x40 MLOAD PUSH3 0x461BCD PUSH1 0xE5 SHL DUP2 MSTORE PUSH1 0x20 PUSH1 0x4 DUP3 ADD MSTORE PUSH1 0x30 PUSH1 0x24 DUP3 ADD MSTORE PUSH32 0x52657175657374206D7573742062652066756C6C7920617070726F7665642074 PUSH1 0x44 DUP3 ADD MSTORE PUSH32 0x6F2077697468647261772066756E647300000000000000000000000000000000 PUSH1 0x64 DUP3 ADD MSTORE PUSH1 0x84 ADD PUSH2 0x69D JUMP JUMPDEST DUP2 PUSH1 0x2 ADD SLOAD DUP2 PUSH1 0x7 ADD SLOAD LT ISZERO PUSH2 0x2488 JUMPI PUSH1 0x40 MLOAD PUSH3 0x461BCD PUSH1 0xE5 SHL DUP2 MSTORE PUSH1 0x20 PUSH1 0x4 DUP3 ADD MSTORE PUSH1 0x21 PUSH1 0x24 DUP3 ADD MSTORE PUSH32 0x496E73756666696369656E742066756E647320696E207468652070726F6A6563 PUSH1 0x44 DUP3 ADD MSTORE PUSH1 0x1D PUSH1 0xFA SHL PUSH1 0x64 DUP3 ADD MSTORE PUSH1 0x84 ADD PUSH2 0x69D JUMP JUMPDEST DUP2 PUSH1 0x2 ADD SLOAD DUP2 PUSH1 0x8 ADD PUSH1 0x0 DUP3 DUP3 SLOAD PUSH2 0x24A0 SWAP2 SWAP1 PUSH2 0x29A1 JUMP JUMPDEST SWAP1 SWAP2 SSTORE POP POP PUSH1 0x2 DUP3 ADD SLOAD PUSH1 0x5 DUP1 SLOAD PUSH1 0x0 SWAP1 PUSH2 0x24BC SWAP1 DUP5 SWAP1 PUSH2 0x29A1 JUMP JUMPDEST SWAP1 SWAP2 SSTORE POP POP PUSH1 0x1 DUP3 ADD DUP1 SLOAD PUSH1 0x4 PUSH1 0xFF NOT SWAP1 SWAP2 AND OR SWAP1 DUP2 SWAP1 SSTORE PUSH1 0x2 DUP4 ADD SLOAD PUSH1 0x40 MLOAD PUSH2 0x100 SWAP1 SWAP3 DIV PUSH1 0x1 PUSH1 0x1 PUSH1 0xA0 SHL SUB AND SWAP2 PUSH2 0x8FC DUP3 ISZERO MUL SWAP2 SWAP1 PUSH1 0x0 DUP2 DUP2 DUP2 DUP6 DUP9 DUP9 CALL SWAP4 POP POP POP POP ISZERO DUP1 ISZERO PUSH2 0x2513 JUMPI RETURNDATASIZE PUSH1 0x0 DUP1 RETURNDATACOPY RETURNDATASIZE PUSH1 0x0 REVERT JUMPDEST POP DUP8 PUSH32 0xEF687A8F1519B4C5091105CBC704634D2F17927BA995F9044C74476DC623C046 DUP9 DUP5 PUSH1 0x2 ADD SLOAD PUSH1 0x40 MLOAD PUSH2 0x2553 SWAP3 SWAP2 SWAP1 SWAP2 DUP3 MSTORE PUSH1 0x20 DUP3 ADD MSTORE PUSH1 0x40 ADD SWAP1 JUMP JUMPDEST PUSH1 0x40 MLOAD DUP1 SWAP2 SUB SWAP1 LOG2 POP POP POP POP POP POP POP POP JUMP JUMPDEST PUSH1 0x1 DUP2 DUP2 ADD DUP1 SLOAD PUSH1 0xFF NOT AND SWAP1 SWAP2 OR SWAP1 SSTORE DUP1 SLOAD PUSH1 0x2 DUP3 ADD SLOAD PUSH1 0x40 DUP1 MLOAD SWAP2 DUP3 MSTORE CALLER PUSH1 0x20 DUP4 ADD MSTORE PUSH32 0x4E5CE1CB06AA29AF468A006340FA6DFF0543170A81764ADE02834A9C489922EA SWAP2 ADD JUMPDEST PUSH1 0x40 MLOAD DUP1 SWAP2 SUB SWAP1 LOG2 POP JUMP JUMPDEST PUSH1 0x1 DUP2 ADD DUP1 SLOAD PUSH1 0xFF NOT AND PUSH1 0x3 OR SWAP1 SSTORE DUP1 SLOAD PUSH1 0x2 DUP3 ADD SLOAD PUSH1 0x40 DUP1 MLOAD SWAP2 DUP3 MSTORE CALLER PUSH1 0x20 DUP4 ADD MSTORE PUSH32 0x5DA50088D8738B46CC7B30926418D584E9E48E80847571B7E8884CDFABCA0FED SWAP2 ADD PUSH2 0x25AD JUMP JUMPDEST DUP3 DUP1 SLOAD DUP3 DUP3 SSTORE SWAP1 PUSH1 0x0 MSTORE PUSH1 0x20 PUSH1 0x0 KECCAK256 SWAP1 DUP2 ADD SWAP3 DUP3 ISZERO PUSH2 0x2658 JUMPI SWAP2 PUSH1 0x20 MUL DUP3 ADD JUMPDEST DUP3 DUP2 GT ISZERO PUSH2 0x2658 JUMPI DUP3 MLOAD DUP3 SLOAD PUSH1 0x1 PUSH1 0x1 PUSH1 0xA0 SHL SUB NOT AND PUSH1 0x1 PUSH1 0x1 PUSH1 0xA0 SHL SUB SWAP1 SWAP2 AND OR DUP3 SSTORE PUSH1 0x20 SWAP1 SWAP3 ADD SWAP2 PUSH1 0x1 SWAP1 SWAP2 ADD SWAP1 PUSH2 0x2623 JUMP JUMPDEST POP PUSH2 0x2664 SWAP3 SWAP2 POP PUSH2 0x2668 JUMP JUMPDEST POP SWAP1 JUMP JUMPDEST JUMPDEST DUP1 DUP3 GT ISZERO PUSH2 0x2664 JUMPI PUSH1 0x0 DUP2 SSTORE PUSH1 0x1 ADD PUSH2 0x2669 JUMP JUMPDEST PUSH1 0x0 DUP1 PUSH1 0x40 DUP4 DUP6 SUB SLT ISZERO PUSH2 0x2690 JUMPI PUSH1 0x0 DUP1 REVERT JUMPDEST POP POP DUP1 CALLDATALOAD SWAP3 PUSH1 0x20 SWAP1 SWAP2 ADD CALLDATALOAD SWAP2 POP JUMP JUMPDEST PUSH1 0x0 PUSH1 0x20 DUP3 DUP5 SUB SLT ISZERO PUSH2 0x26B1 JUMPI PUSH1 0x0 DUP1 REVERT JUMPDEST POP CALLDATALOAD SWAP2 SWAP1 POP JUMP JUMPDEST PUSH4 0x4E487B71 PUSH1 0xE0 SHL PUSH1 0x0 MSTORE PUSH1 0x21 PUSH1 0x4 MSTORE PUSH1 0x24 PUSH1 0x0 REVERT JUMPDEST PUSH2 0x120 DUP2 ADD PUSH1 0x2 DUP12 LT PUSH2 0x26E3 JUMPI PUSH2 0x26E3 PUSH2 0x26B8 JUMP JUMPDEST SWAP10 DUP2 MSTORE PUSH1 0x20 DUP2 ADD SWAP9 SWAP1 SWAP9 MSTORE PUSH1 0x40 DUP9 ADD SWAP7 SWAP1 SWAP7 MSTORE PUSH1 0x60 DUP8 ADD SWAP5 SWAP1 SWAP5 MSTORE SWAP2 ISZERO ISZERO PUSH1 0x80 DUP7 ADD MSTORE ISZERO ISZERO PUSH1 0xA0 DUP6 ADD MSTORE PUSH1 0xC0 DUP5 ADD MSTORE PUSH1 0xE0 DUP4 ADD MSTORE PUSH1 0xFF AND PUSH2 0x100 SWAP1 SWAP2 ADD MSTORE SWAP1 JUMP JUMPDEST PUSH4 0x4E487B71 PUSH1 0xE0 SHL PUSH1 0x0 MSTORE PUSH1 0x41 PUSH1 0x4 MSTORE PUSH1 0x24 PUSH1 0x0 REVERT JUMPDEST DUP1 CALLDATALOAD PUSH1 0x1 PUSH1 0x1 PUSH1 0xA0 SHL SUB DUP2 AND DUP2 EQ PUSH2 0x2751 JUMPI PUSH1 0x0 DUP1 REVERT JUMPDEST SWAP2 SWAP1 POP JUMP JUMPDEST PUSH1 0x0 DUP1 PUSH1 0x0 DUP1 PUSH1 0x0 PUSH1 0xA0 DUP7 DUP9 SUB SLT ISZERO PUSH2 0x276E JUMPI PUSH1 0x0 DUP1 REVERT JUMPDEST DUP6 CALLDATALOAD PUSH1 0x2 DUP2 LT PUSH2 0x277D JUMPI PUSH1 0x0 DUP1 REVERT JUMPDEST SWAP5 POP PUSH1 0x20 DUP7 DUP2 ADD CALLDATALOAD PUSH8 0xFFFFFFFFFFFFFFFF DUP1 DUP3 GT ISZERO PUSH2 0x279B JUMPI PUSH1 0x0 DUP1 REVERT JUMPDEST DUP2 DUP10 ADD SWAP2 POP DUP10 PUSH1 0x1F DUP4 ADD SLT PUSH2 0x27AF JUMPI PUSH1 0x0 DUP1 REVERT JUMPDEST DUP2 CALLDATALOAD DUP2 DUP2 GT ISZERO PUSH2 0x27C1 JUMPI PUSH2 0x27C1 PUSH2 0x2724 JUMP JUMPDEST DUP1 PUSH1 0x5 SHL PUSH1 0x40 MLOAD PUSH1 0x1F NOT PUSH1 0x3F DUP4 ADD AND DUP2 ADD DUP2 DUP2 LT DUP6 DUP3 GT OR ISZERO PUSH2 0x27E6 JUMPI PUSH2 0x27E6 PUSH2 0x2724 JUMP JUMPDEST PUSH1 0x40 MSTORE SWAP2 DUP3 MSTORE DUP5 DUP3 ADD SWAP3 POP DUP4 DUP2 ADD DUP6 ADD SWAP2 DUP13 DUP4 GT ISZERO PUSH2 0x2804 JUMPI PUSH1 0x0 DUP1 REVERT JUMPDEST SWAP4 DUP6 ADD SWAP4 JUMPDEST DUP3 DUP6 LT ISZERO PUSH2 0x2829 JUMPI PUSH2 0x281A DUP6 PUSH2 0x273A JUMP JUMPDEST DUP5 MSTORE SWAP4 DUP6 ADD SWAP4 SWAP3 DUP6 ADD SWAP3 PUSH2 0x2809 JUMP JUMPDEST SWAP10 SWAP13 SWAP10 SWAP12 POP POP POP POP PUSH1 0x40 DUP9 ADD CALLDATALOAD SWAP8 PUSH1 0x60 DUP2 ADD CALLDATALOAD SWAP8 PUSH1 0x80 SWAP1 SWAP2 ADD CALLDATALOAD SWAP7 POP SWAP5 POP POP POP POP POP JUMP JUMPDEST PUSH1 0x5 DUP2 LT PUSH2 0x285D JUMPI PUSH2 0x285D PUSH2 0x26B8 JUMP JUMPDEST SWAP1 MSTORE JUMP JUMPDEST DUP7 DUP2 MSTORE PUSH1 0xC0 DUP2 ADD PUSH2 0x2875 PUSH1 0x20 DUP4 ADD DUP9 PUSH2 0x284D JUMP JUMPDEST PUSH1 0x1 PUSH1 0x1 PUSH1 0xA0 SHL SUB DUP7 AND PUSH1 0x40 DUP4 ADD MSTORE DUP5 PUSH1 0x60 DUP4 ADD MSTORE DUP4 PUSH1 0x80 DUP4 ADD MSTORE DUP3 PUSH1 0xA0 DUP4 ADD MSTORE SWAP8 SWAP7 POP POP POP POP POP POP POP JUMP JUMPDEST PUSH4 0x4E487B71 PUSH1 0xE0 SHL PUSH1 0x0 MSTORE PUSH1 0x32 PUSH1 0x4 MSTORE PUSH1 0x24 PUSH1 0x0 REVERT JUMPDEST PUSH4 0x4E487B71 PUSH1 0xE0 SHL PUSH1 0x0 MSTORE PUSH1 0x11 PUSH1 0x4 MSTORE PUSH1 0x24 PUSH1 0x0 REVERT JUMPDEST PUSH1 0x0 PUSH1 0x1 DUP3 ADD PUSH2 0x28DF JUMPI PUSH2 0x28DF PUSH2 0x28B7 JUMP JUMPDEST POP PUSH1 0x1 ADD SWAP1 JUMP JUMPDEST PUSH4 0x4E487B71 PUSH1 0xE0 SHL PUSH1 0x0 MSTORE PUSH1 0x12 PUSH1 0x4 MSTORE PUSH1 0x24 PUSH1 0x0 REVERT JUMPDEST PUSH1 0x0 PUSH1 0xFF DUP4 AND DUP1 PUSH2 0x290F JUMPI PUSH2 0x290F PUSH2 0x28E6 JUMP JUMPDEST DUP1 PUSH1 0xFF DUP5 AND DIV SWAP2 POP POP SWAP3 SWAP2 POP POP JUMP JUMPDEST DUP3 DUP2 MSTORE PUSH1 0x40 DUP2 ADD PUSH2 0x2932 PUSH1 0x20 DUP4 ADD DUP5 PUSH2 0x284D JUMP JUMPDEST SWAP4 SWAP3 POP POP POP JUMP JUMPDEST PUSH1 0x0 DUP3 DUP3 LT ISZERO PUSH2 0x294B JUMPI PUSH2 0x294B PUSH2 0x28B7 JUMP JUMPDEST POP SUB SWAP1 JUMP JUMPDEST PUSH1 0x40 DUP1 DUP3 MSTORE DUP4 MLOAD SWAP1 DUP3 ADD DUP2 SWAP1 MSTORE PUSH1 0x0 SWAP1 PUSH1 0x20 SWAP1 PUSH1 0x60 DUP5 ADD SWAP1 DUP3 DUP8 ADD DUP5 JUMPDEST DUP3 DUP2 LT ISZERO PUSH2 0x2992 JUMPI DUP2 MLOAD PUSH1 0x1 PUSH1 0x1 PUSH1 0xA0 SHL SUB AND DUP5 MSTORE SWAP3 DUP5 ADD SWAP3 SWAP1 DUP5 ADD SWAP1 PUSH1 0x1 ADD PUSH2 0x296D JUMP JUMPDEST POP POP POP SWAP3 ADD SWAP3 SWAP1 SWAP3 MSTORE SWAP3 SWAP2 POP POP JUMP JUMPDEST PUSH1 0x0 DUP3 NOT DUP3 GT ISZERO PUSH2 0x29B4 JUMPI PUSH2 0x29B4 PUSH2 0x28B7 JUMP JUMPDEST POP ADD SWAP1 JUMP JUMPDEST PUSH1 0x0 DUP2 PUSH1 0x0 NOT DIV DUP4 GT DUP3 ISZERO ISZERO AND ISZERO PUSH2 0x29D3 JUMPI PUSH2 0x29D3 PUSH2 0x28B7 JUMP JUMPDEST POP MUL SWAP1 JUMP JUMPDEST PUSH1 0x0 DUP3 PUSH2 0x29E7 JUMPI PUSH2 0x29E7 PUSH2 0x28E6 JUMP JUMPDEST POP DIV SWAP1 JUMP INVALID LOG1 PUSH5 0x736F6C6343 STOP ADDMOD 0xE STOP EXP "},"methodIdentifiers":{"approveDonationProject(uint256)":"56c6ebfe","approveWithdrawalRequest(uint256,uint256)":"3866b6a3","createDonationProject(uint8,address[],uint256,uint256,uint256)":"8c2f8b31","createWithdrawalRequest(uint256,uint256)":"67dbca0e","currentTimeStamp()":"340a9a1c","donaStaff(uint256)":"3238d32f","donationProjects(uint256)":"4b720bbf","finalizeDonations(uint256)":"e25edc31","fullyApproveWithdrawalRequest(uint256)":"5d24e9e7","fullyApproveWithdrawalRequest(uint256,uint256)":"56ac0d65","getProjectDonatedFunds(uint256)":"f4c88b69","getProjectWithdrawnFunds(uint256)":"da1c6daf","makeDonation(uint256)":"b219f916","numberOfDonationProjects()":"a17a37dd","numberOfWithdrawalRequests()":"88cd1b63","owner()":"8da5cb5b","recalculateWithdrawalRequestVotes(uint256,uint256)":"56f9c416","rejectWithdrawalRequest(uint256,uint256)":"3138f026","totalDonationsReceived()":"862e2fc8","totalDonationsUtilized()":"a80098b0","withdrawFunds(uint256,uint256)":"e5253105","withdrawalRequests(uint256,uint256)":"da903d13"}}}}}