{"contracts/DonaTheta.sol":{"DonaTheta":{"abi":[{"inputs":[],"stateMutability":"payable","type":"constructor"},{"anonymous":false,"inputs":[{"indexed":true,"internalType":"uint256","name":"projectId","type":"uint256"},{"indexed":false,"internalType":"address","name":"donor","type":"address"},{"indexed":false,"internalType":"uint256","name":"amount","type":"uint256"}],"name":"DonationMade","type":"event"},{"anonymous":false,"inputs":[{"indexed":true,"internalType":"uint256","name":"projectId","type":"uint256"}],"name":"DonationProjectApproved","type":"event"},{"anonymous":false,"inputs":[{"indexed":true,"internalType":"uint256","name":"projectId","type":"uint256"},{"indexed":false,"internalType":"address[]","name":"organizers","type":"address[]"},{"indexed":false,"internalType":"uint256","name":"donationTarget","type":"uint256"}],"name":"DonationProjectCreated","type":"event"},{"anonymous":false,"inputs":[{"indexed":true,"internalType":"uint256","name":"projectId","type":"uint256"}],"name":"DonationProjectFinalized","type":"event"},{"anonymous":false,"inputs":[{"indexed":true,"internalType":"uint256","name":"projectId","type":"uint256"},{"indexed":false,"internalType":"uint256","name":"requestId","type":"uint256"},{"indexed":false,"internalType":"uint256","name":"amount","type":"uint256"}],"name":"WithdrawalExecuted","type":"event"},{"inputs":[{"internalType":"address","name":"member","type":"address"}],"name":"addDonaStaffMember","outputs":[],"stateMutability":"nonpayable","type":"function"},{"inputs":[{"internalType":"uint256","name":"projectId","type":"uint256"},{"internalType":"string","name":"mediaItemName","type":"string"},{"internalType":"string","name":"mediaItemDescription","type":"string"},{"internalType":"string","name":"mediaItemUrl","type":"string"},{"internalType":"enum DonaTheta.MediaItemType","name":"mediaItemType","type":"uint8"}],"name":"addDonationProjectMediaItem","outputs":[],"stateMutability":"nonpayable","type":"function"},{"inputs":[{"internalType":"uint256","name":"projectId","type":"uint256"},{"internalType":"uint256","name":"requestId","type":"uint256"},{"internalType":"string","name":"mediaItemName","type":"string"},{"internalType":"string","name":"mediaItemDescription","type":"string"},{"internalType":"string","name":"mediaItemUrl","type":"string"},{"internalType":"enum DonaTheta.MediaItemType","name":"mediaItemType","type":"uint8"}],"name":"addWithdrawalRequestMediaItem","outputs":[],"stateMutability":"nonpayable","type":"function"},{"inputs":[{"internalType":"uint256","name":"projectId","type":"uint256"}],"name":"approveDonationProject","outputs":[],"stateMutability":"nonpayable","type":"function"},{"inputs":[{"internalType":"uint256","name":"projectId","type":"uint256"},{"internalType":"uint256","name":"requestId","type":"uint256"}],"name":"approveWithdrawalRequest","outputs":[],"stateMutability":"nonpayable","type":"function"},{"inputs":[{"internalType":"enum DonaTheta.DonationPeriodType","name":"donationPeriodType","type":"uint8"},{"internalType":"string","name":"projectName","type":"string"},{"internalType":"string","name":"projectDescription","type":"string"},{"internalType":"address[]","name":"organizers","type":"address[]"},{"internalType":"uint256","name":"donationTarget","type":"uint256"},{"internalType":"uint256","name":"startDonationDate","type":"uint256"},{"internalType":"uint256","name":"endDonationDate","type":"uint256"}],"name":"createDonationProject","outputs":[],"stateMutability":"nonpayable","type":"function"},{"inputs":[{"internalType":"uint256","name":"projectId","type":"uint256"},{"internalType":"string","name":"requestName","type":"string"},{"internalType":"string","name":"requestDescription","type":"string"},{"internalType":"uint256","name":"amount","type":"uint256"}],"name":"createWithdrawalRequest","outputs":[],"stateMutability":"nonpayable","type":"function"},{"inputs":[{"internalType":"uint256","name":"projectId","type":"uint256"},{"internalType":"uint256","name":"mediaItemIndex","type":"uint256"},{"internalType":"enum DonaTheta.MediaItemType","name":"mediaItemType","type":"uint8"}],"name":"deleteDonationProjectMediaItem","outputs":[],"stateMutability":"nonpayable","type":"function"},{"inputs":[{"internalType":"uint256","name":"projectId","type":"uint256"},{"internalType":"uint256","name":"requestId","type":"uint256"},{"internalType":"uint256","name":"mediaItemIndex","type":"uint256"},{"internalType":"enum DonaTheta.MediaItemType","name":"mediaItemType","type":"uint8"}],"name":"deleteWithdrawalRequestMediaItem","outputs":[],"stateMutability":"nonpayable","type":"function"},{"inputs":[{"internalType":"uint256","name":"projectId","type":"uint256"},{"internalType":"uint256","name":"mediaItemIndex","type":"uint256"},{"internalType":"string","name":"mediaItemName","type":"string"},{"internalType":"string","name":"mediaItemDescription","type":"string"},{"internalType":"string","name":"mediaItemUrl","type":"string"},{"internalType":"enum DonaTheta.MediaItemType","name":"mediaItemType","type":"uint8"}],"name":"editDonationProjectMediaItem","outputs":[],"stateMutability":"nonpayable","type":"function"},{"inputs":[{"internalType":"uint256","name":"projectId","type":"uint256"},{"internalType":"uint256","name":"requestId","type":"uint256"},{"internalType":"uint256","name":"mediaItemIndex","type":"uint256"},{"internalType":"string","name":"mediaItemName","type":"string"},{"internalType":"string","name":"mediaItemDescription","type":"string"},{"internalType":"string","name":"mediaItemUrl","type":"string"},{"internalType":"enum DonaTheta.MediaItemType","name":"mediaItemType","type":"uint8"}],"name":"editWithdrawalRequestMediaItem","outputs":[],"stateMutability":"nonpayable","type":"function"},{"inputs":[{"internalType":"uint256","name":"_projectId","type":"uint256"}],"name":"finalizeDonations","outputs":[],"stateMutability":"nonpayable","type":"function"},{"inputs":[],"name":"getDonaStaffMembers","outputs":[{"internalType":"address[]","name":"","type":"address[]"}],"stateMutability":"view","type":"function"},{"inputs":[{"internalType":"uint256","name":"projectId","type":"uint256"},{"internalType":"uint8","name":"requestType","type":"uint8"}],"name":"getDonationProjectAddressDetails","outputs":[{"internalType":"address[]","name":"","type":"address[]"}],"stateMutability":"view","type":"function"},{"inputs":[{"internalType":"uint256","name":"projectId","type":"uint256"},{"internalType":"enum DonaTheta.MediaItemType","name":"mediaItemType","type":"uint8"}],"name":"getDonationProjectMediaItems","outputs":[{"components":[{"internalType":"string","name":"mediaItemName","type":"string"},{"internalType":"string","name":"mediaItemDescription","type":"string"},{"internalType":"enum DonaTheta.MediaItemType","name":"mediaItemType","type":"uint8"},{"internalType":"string","name":"mediaItemUrl","type":"string"}],"internalType":"struct DonaTheta.MediaItem[]","name":"","type":"tuple[]"}],"stateMutability":"view","type":"function"},{"inputs":[{"internalType":"uint256","name":"projectId","type":"uint256"},{"internalType":"uint8","name":"requestType","type":"uint8"}],"name":"getDonationProjectNumericalDetails","outputs":[{"internalType":"uint256","name":"","type":"uint256"}],"stateMutability":"view","type":"function"},{"inputs":[{"internalType":"uint256","name":"projectId","type":"uint256"},{"internalType":"uint256","name":"requestType","type":"uint256"}],"name":"getDonationProjectTextDetails","outputs":[{"internalType":"string","name":"","type":"string"}],"stateMutability":"view","type":"function"},{"inputs":[],"name":"getUnapprovedDonationProjects","outputs":[{"internalType":"uint256[]","name":"","type":"uint256[]"}],"stateMutability":"view","type":"function"},{"inputs":[{"internalType":"uint256","name":"requestType","type":"uint256"}],"name":"getUserProjects","outputs":[{"internalType":"uint256[]","name":"","type":"uint256[]"}],"stateMutability":"view","type":"function"},{"inputs":[{"internalType":"uint256","name":"projectId","type":"uint256"},{"internalType":"uint256","name":"requestId","type":"uint256"},{"internalType":"uint8","name":"requestType","type":"uint8"}],"name":"getWithdrawalRequestAddressesDetails","outputs":[{"internalType":"address[]","name":"","type":"address[]"}],"stateMutability":"view","type":"function"},{"inputs":[{"internalType":"uint256","name":"projectId","type":"uint256"},{"internalType":"uint256","name":"requestId","type":"uint256"},{"internalType":"enum DonaTheta.MediaItemType","name":"mediaItemType","type":"uint8"}],"name":"getWithdrawalRequestMediaItems","outputs":[{"components":[{"internalType":"string","name":"mediaItemName","type":"string"},{"internalType":"string","name":"mediaItemDescription","type":"string"},{"internalType":"enum DonaTheta.MediaItemType","name":"mediaItemType","type":"uint8"},{"internalType":"string","name":"mediaItemUrl","type":"string"}],"internalType":"struct DonaTheta.MediaItem[]","name":"","type":"tuple[]"}],"stateMutability":"view","type":"function"},{"inputs":[{"internalType":"uint256","name":"projectId","type":"uint256"},{"internalType":"uint256","name":"requestId","type":"uint256"},{"internalType":"uint8","name":"requestType","type":"uint8"}],"name":"getWithdrawalRequestNumericalDetails","outputs":[{"internalType":"uint256","name":"","type":"uint256"}],"stateMutability":"view","type":"function"},{"inputs":[{"internalType":"uint256","name":"projectId","type":"uint256"},{"internalType":"uint256","name":"requestId","type":"uint256"}],"name":"getWithdrawalRequestOwner","outputs":[{"internalType":"address","name":"","type":"address"}],"stateMutability":"view","type":"function"},{"inputs":[{"internalType":"uint256","name":"projectId","type":"uint256"},{"internalType":"uint256","name":"requestId","type":"uint256"},{"internalType":"uint8","name":"requestType","type":"uint8"}],"name":"getWithdrawalRequestTextDetails","outputs":[{"internalType":"string","name":"","type":"string"}],"stateMutability":"view","type":"function"},{"inputs":[],"name":"isUserDonaStaff","outputs":[{"internalType":"bool","name":"","type":"bool"}],"stateMutability":"view","type":"function"},{"inputs":[{"internalType":"uint256","name":"projectId","type":"uint256"}],"name":"makeDonation","outputs":[],"stateMutability":"payable","type":"function"},{"inputs":[],"name":"numberOfDonationProjects","outputs":[{"internalType":"uint256","name":"","type":"uint256"}],"stateMutability":"view","type":"function"},{"inputs":[],"name":"owner","outputs":[{"internalType":"address payable","name":"","type":"address"}],"stateMutability":"view","type":"function"},{"inputs":[{"internalType":"uint256","name":"projectId","type":"uint256"},{"internalType":"uint256","name":"requestId","type":"uint256"}],"name":"rejectWithdrawalRequest","outputs":[],"stateMutability":"nonpayable","type":"function"},{"inputs":[],"name":"totalDonationsReceived","outputs":[{"internalType":"uint256","name":"","type":"uint256"}],"stateMutability":"view","type":"function"},{"inputs":[],"name":"totalDonationsUtilized","outputs":[{"internalType":"uint256","name":"","type":"uint256"}],"stateMutability":"view","type":"function"},{"inputs":[],"name":"totalTargetAmount","outputs":[{"internalType":"uint256","name":"","type":"uint256"}],"stateMutability":"view","type":"function"},{"inputs":[{"internalType":"uint256","name":"projectId","type":"uint256"},{"internalType":"uint256","name":"requestId","type":"uint256"}],"name":"withdrawFunds","outputs":[],"stateMutability":"nonpayable","type":"function"}],"evm":{"bytecode":{"linkReferences":{},"object":"60806040526000600281905560038190556004819055600581905580546001600160a01b03191633179055615c5e806100396000396000f3fe6080604052600436106101fe5760003560e01c8063a80098b01161011d578063dd931eec116100b0578063f49e73001161007f578063fcc686a911610064578063fcc686a914610653578063fce2e92714610673578063fec3afed1461069357600080fd5b8063f49e73001461060e578063fb812a0b1461063357600080fd5b8063dd931eec1461058e578063e25edc31146105ae578063e5253105146105ce578063f3bf0888146105ee57600080fd5b8063b42766fa116100ec578063b42766fa146104ff578063b7aebde21461052c578063c2d1a1af1461054c578063d630b8121461056e57600080fd5b8063a80098b014610489578063a98b15f01461049f578063b00d29e8146104cc578063b219f916146104ec57600080fd5b8063708cdfe6116101955780638da5cb5b116101645780638da5cb5b146104115780639eef250c14610431578063a17a37dd14610453578063a7dbcb761461046957600080fd5b8063708cdfe61461035a5780638398b7c11461037a578063862e2fc81461039a57806387a7fcbc146103b057600080fd5b806331b03254116101d157806331b03254146102da5780633866b6a3146102fa57806356c6ebfe1461031a57806359f822ae1461033a57600080fd5b806322043b5c146102035780632a957529146102255780632b95b559146102915780633138f026146102ba575b600080fd5b34801561020f57600080fd5b5061022361021e36600461543b565b6106b3565b005b34801561023157600080fd5b506102236102403660046154fd565b6001805480820182556000919091527fb10e2d527612073b26eecdfd717e6a320cf44b4afac2b0732d9fcbe2b7fa0cf60180546001600160a01b0319166001600160a01b0392909216919091179055565b34801561029d57600080fd5b506102a760035481565b6040519081526020015b60405180910390f35b3480156102c657600080fd5b506102236102d5366004615518565b6109fd565b3480156102e657600080fd5b506102a76102f536600461554b565b610e7f565b34801561030657600080fd5b50610223610315366004615518565b61101e565b34801561032657600080fd5b50610223610335366004615580565b61148b565b34801561034657600080fd5b506102a7610355366004615599565b6116ba565b34801561036657600080fd5b5061022361037536600461564c565b611869565b34801561038657600080fd5b50610223610395366004615706565b611bae565b3480156103a657600080fd5b506102a760045481565b3480156103bc57600080fd5b506103f96103cb366004615518565b600091825260086020908152604080842092845291905290206001015461010090046001600160a01b031690565b6040516001600160a01b0390911681526020016102b1565b34801561041d57600080fd5b506000546103f9906001600160a01b031681565b34801561043d57600080fd5b50610446611e88565b6040516102b191906157a9565b34801561045f57600080fd5b506102a760025481565b34801561047557600080fd5b506102236104843660046157ed565b611ee0565b34801561049557600080fd5b506102a760055481565b3480156104ab57600080fd5b506104bf6104ba36600461554b565b61221d565b6040516102b19190615879565b3480156104d857600080fd5b506102236104e736600461588c565b612308565b6102236104fa366004615580565b61258d565b34801561050b57600080fd5b5061051f61051a366004615942565b612692565b6040516102b1919061597b565b34801561053857600080fd5b50610223610547366004615a46565b61301f565b34801561055857600080fd5b50610561613244565b6040516102b19190615abb565b34801561057a57600080fd5b5061051f610589366004615afc565b6132a5565b34801561059a57600080fd5b506104466105a9366004615580565b613c52565b3480156105ba57600080fd5b506102236105c9366004615580565b613d29565b3480156105da57600080fd5b506102236105e9366004615518565b61450c565b3480156105fa57600080fd5b50610561610609366004615599565b61486d565b34801561061a57600080fd5b50610623614a49565b60405190151581526020016102b1565b34801561063f57600080fd5b5061022361064e36600461543b565b614aaf565b34801561065f57600080fd5b5061022361066e366004615afc565b614cf9565b34801561067f57600080fd5b5061056161068e36600461554b565b615009565b34801561069f57600080fd5b506104bf6106ae366004615518565b615108565b60008681526007602052604081208791805b600483015460ff8216101561071857826004018160ff16815481106106ec576106ec615b28565b6000918252602090912001546001600160a01b031633036107105760019150610718565b6001016106c5565b50806107915760405162461bcd60e51b815260206004820152603d60248201527f54686520616374696f6e2063616e206f6e6c7920626520706572666f726d656460448201527f206279206f7267616e697a657273206f66207468652070726f6a65637400000060648201526084015b60405180910390fd5b600060405180608001604052808981526020018881526020018660038111156107bc576107bc615965565b8152602001879052905060008560038111156107da576107da615965565b0361088c5760008a81526008602090815260408083208c845282528220600490810180546001810182559084529282902084518051869590930290910192610827928492909101906151cf565b50602082810151805161084092600185019201906151cf565b50604082015160028201805460ff1916600183600381111561086457610864615965565b0217905550606082015180516108849160038401916020909101906151cf565b5050506109f1565b60028560038111156108a0576108a0615965565b036108eb5760008a81526008602090815260408083208c84528252822060060180546001810182559083529181902083518051859460040290920192610827928492909101906151cf565b60018560038111156108ff576108ff615965565b0361094a5760008a81526008602090815260408083208c84528252822060050180546001810182559083529181902083518051859460040290920192610827928492909101906151cf565b600385600381111561095e5761095e615965565b036109a95760008a81526008602090815260408083208c84528252822060070180546001810182559083529181902083518051859460040290920192610827928492909101906151cf565b60405162461bcd60e51b815260206004820152601760248201527f496e76616c6964206d65646961206974656d20747970650000000000000000006044820152606401610788565b50505050505050505050565b60008281526007602052604081208391805b601283015460ff82161015610a6257826012018160ff1681548110610a3657610a36615b28565b6000918252602090912001546001600160a01b03163303610a5a5760019150610a62565b600101610a0f565b5080610ac05760005b601383015460ff82161015610abe57826013018160ff1681548110610a9257610a92615b28565b6000918252602090912001546001600160a01b03163303610ab65760019150610abe565b600101610a6b565b505b80610b1d5760005b600483015460ff82161015610b1b57826004018160ff1681548110610aef57610aef615b28565b6000918252602090912001546001600160a01b03163303610b135760019150610b1b565b600101610ac8565b505b80610ba45760405162461bcd60e51b815260206004820152604b60248201527f5468697320616374696f6e2063616e206f6e6c7920626520706572666f726d6560448201527f64206279206d656d62657273206f662054686520446f6e6120417070726f766160648201526a6c20436f6d6d697474656560a81b608482015260a401610788565b60008581526008602090815260408083208784529091529020859085906003600182015460ff166003811115610bdc57610bdc615965565b03610c415760405162461bcd60e51b815260206004820152602f60248201527f596f752063616e6e6f7420766f7465206f6e20616e20616c726561647920776960448201526e1d1a191c985ddb881c995c5d595cdd608a1b6064820152608401610788565b6000805b600b830154811015610ca557336001600160a01b031683600b018281548110610c7057610c70615b28565b6000918252602090912001546001600160a01b031603610c935760019150610ca5565b80610c9d81615b54565b915050610c45565b5060005b600c830154811015610d0957336001600160a01b031683600c018281548110610cd457610cd4615b28565b6000918252602090912001546001600160a01b031603610cf75760019150610d09565b80610d0181615b54565b915050610ca9565b508015610d675760405162461bcd60e51b815260206004820152602660248201527f596f75206861766520616c726561647920766f746564206f6e20746869732072604482015265195c5d595cdd60d21b6064820152608401610788565b60008981526008602090815260408083208b8452909152812090600182015460ff166003811115610d9a57610d9a615965565b14610de75760405162461bcd60e51b815260206004820152601260248201527f52657175657374206973206e6f74206e657700000000000000000000000000006044820152606401610788565b600c810180546001810182556000918252602082200180546001600160a01b03191633179055600a8201805491610e1d83615b54565b909155505060008a81526007602052604081206014810154909190610e479060029060ff16615b83565b60ff1690508083600a01541115610e71576001808401805460029260ff1990911690835b02179055505b505050505050505050505050565b60008160ff16600003610eae575060008381526008602081815260408084208685529091529091200154611017565b8160ff16600103610f4d576000848152600860209081526040808320868452909152902060019081015460ff1690816003811115610eee57610eee615965565b03610efd576001915050611017565b6002816003811115610f1157610f11615965565b03610f20576002915050611017565b6003816003811115610f3457610f34615965565b03610f43576003915050611017565b6000915050611017565b8160ff16600203610f7b57506000838152600860209081526040808320858452909152902060090154611017565b8160ff16600303610fa9575060008381526008602090815260408083208584529091529020600a0154611017565b8160ff16600403610fcf575060008381526007602052604090206014015460ff16611017565b60405162461bcd60e51b815260206004820152601460248201527f496e76616c6964205265717565737420547970650000000000000000000000006044820152606401610788565b9392505050565b60008281526007602052604081208391805b601283015460ff8216101561108357826012018160ff168154811061105757611057615b28565b6000918252602090912001546001600160a01b0316330361107b5760019150611083565b600101611030565b50806110e15760005b601383015460ff821610156110df57826013018160ff16815481106110b3576110b3615b28565b6000918252602090912001546001600160a01b031633036110d757600191506110df565b60010161108c565b505b8061113e5760005b600483015460ff8216101561113c57826004018160ff168154811061111057611110615b28565b6000918252602090912001546001600160a01b03163303611134576001915061113c565b6001016110e9565b505b806111c55760405162461bcd60e51b815260206004820152604b60248201527f5468697320616374696f6e2063616e206f6e6c7920626520706572666f726d6560448201527f64206279206d656d62657273206f662054686520446f6e6120417070726f766160648201526a6c20436f6d6d697474656560a81b608482015260a401610788565b60008581526008602090815260408083208784529091529020859085906003600182015460ff1660038111156111fd576111fd615965565b036112625760405162461bcd60e51b815260206004820152602f60248201527f596f752063616e6e6f7420766f7465206f6e20616e20616c726561647920776960448201526e1d1a191c985ddb881c995c5d595cdd608a1b6064820152608401610788565b6000805b600b8301548110156112c657336001600160a01b031683600b01828154811061129157611291615b28565b6000918252602090912001546001600160a01b0316036112b457600191506112c6565b806112be81615b54565b915050611266565b5060005b600c83015481101561132a57336001600160a01b031683600c0182815481106112f5576112f5615b28565b6000918252602090912001546001600160a01b031603611318576001915061132a565b8061132281615b54565b9150506112ca565b5080156113885760405162461bcd60e51b815260206004820152602660248201527f596f75206861766520616c726561647920766f746564206f6e20746869732072604482015265195c5d595cdd60d21b6064820152608401610788565b60008981526008602090815260408083208b8452909152812090600182015460ff1660038111156113bb576113bb615965565b146114085760405162461bcd60e51b815260206004820152601260248201527f52657175657374206973206e6f74206e657700000000000000000000000000006044820152606401610788565b600b810180546001810182556000918252602082200180546001600160a01b031916331790556009820180549161143e83615b54565b909155505060008a815260076020526040812060148101549091906114689060029060ff16615b83565b60ff1690508083600901541115610e71576001838101805460ff19168280610e6b565b6000546001600160a01b03163314806114ec5760005b6001548110156114ea57600181815481106114be576114be615b28565b6000918252602090912001546001600160a01b031633036114e257600191506114ea565b6001016114a1565b505b8061154c5760405162461bcd60e51b815260206004820152602a60248201527f4f6e6c79206f776e6572206f722073746166662063616e2063616c6c207468696044820152693990333ab731ba34b7b760b11b6064820152608401610788565b6000828152600760205260409020600c81015483919060ff16156115b25760405162461bcd60e51b815260206004820152601c60248201527f50726f6a65637420697320616c726561647920417070726f76656421000000006044820152606401610788565b6000848152600760205260408120600c8101805460ff19166001179055905b6006548110156116875785600682815481106115ef576115ef615b28565b906000526020600020015403611675576006805461160f90600190615ba5565b8154811061161f5761161f615b28565b90600052602060002001546006828154811061163d5761163d615b28565b600091825260209091200155600680548061165a5761165a615bbc565b60019003818190600052602060002001600090559055611687565b8061167f81615b54565b9150506115d1565b5060405185907f5382406121492e13eb8b00a0122012025548dbd3b07f9b3184c26db775732b2290600090a25050505050565b60008160ff166000036116dc5750600082815260076020526040902054611863565b8160ff16600103611711576000838152600760205260409020600c015460ff161561170957506001611863565b506000611863565b8160ff16600203611743576000838152600760205260409020600c0154610100900460ff161561170957506001611863565b8160ff166003036117665750600082815260076020526040902060050154611863565b8160ff1660040361178957506000828152600760205260409020600f0154611863565b8160ff166005036117ac5750600082815260076020526040902060100154611863565b8160ff166006036117cf57506000828152600760205260409020600e0154611863565b8160ff166007036117f25750600082815260076020526040902060060154611863565b8160ff16600803611816575060008281526007602081905260409091200154611863565b8160ff1660090361183957506000828152600760205260409020600d0154611863565b8160ff16600a03610fcf575060008281526007602090815260408083203384526011019091529020545b92915050565b6002546000908152600760205260409020600180820180548a9260ff1990911690838181111561189b5761189b615965565b021790555086516118b590600283019060208a01906151cf565b5085516118cb90600383019060208901906151cf565b506000805b865181101561192657336001600160a01b03168782815181106118f5576118f5615b28565b60200260200101516001600160a01b0316036119145760019150611926565b8061191e81615b54565b9150506118d0565b5080611a295760008651600161193c9190615bd2565b67ffffffffffffffff81111561195457611954615375565b60405190808252806020026020018201604052801561197d578160200160208202803683370190505b50905060005b87518110156119e25787818151811061199e5761199e615b28565b60200260200101518282815181106119b8576119b8615b28565b6001600160a01b0390921660209283029190910190910152806119da81615b54565b915050611983565b5033818851815181106119f7576119f7615b28565b6001600160a01b039092166020928302919091018201528151611a2291600486019190840190615253565b5050611a40565b8551611a3e9060048401906020890190615253565b505b6002548255600582018590556006820184905560078201839055600c8201805461ffff191690556000600f83018190556010830181905560038054879290611a89908490615bd2565b90915550600090505b6004830154811015611b5c5760096000846004018381548110611ab757611ab7615b28565b60009182526020808320909101546001600160a01b03168352828101939093526040909101812060025481546001810183559183529282200191909155600484018054600a92919084908110611b0f57611b0f615b28565b60009182526020808320909101546001600160a01b031683528281019390935260409091018120600254815460018101835591835292909120015580611b5481615b54565b915050611a92565b5060025460068054600181810183556000929092527ff652222313e28459528d920b65115c16c04f3efc82aaedc97be59f3f377c0d3f01829055611ba09190615bd2565b600255505050505050505050565b60008581526007602052604081208691805b600483015460ff82161015611c1357826004018160ff1681548110611be757611be7615b28565b6000918252602090912001546001600160a01b03163303611c0b5760019150611c13565b600101611bc0565b5080611c875760405162461bcd60e51b815260206004820152603d60248201527f54686520616374696f6e2063616e206f6e6c7920626520706572666f726d656460448201527f206279206f7267616e697a657273206f66207468652070726f6a6563740000006064820152608401610788565b60006040518060800160405280898152602001888152602001866003811115611cb257611cb2615965565b815260200187905290506000856003811115611cd057611cd0615965565b03611d78576000898152600760209081526040822060080180546001810182559083529181902083518051859460040290920192611d13928492909101906151cf565b506020828101518051611d2c92600185019201906151cf565b50604082015160028201805460ff19166001836003811115611d5057611d50615965565b021790555060608201518051611d709160038401916020909101906151cf565b505050611e7d565b6002856003811115611d8c57611d8c615965565b03611dcf5760008981526007602090815260408220600a0180546001810182559083529181902083518051859460040290920192611d13928492909101906151cf565b6001856003811115611de357611de3615965565b03611e26576000898152600760209081526040822060090180546001810182559083529181902083518051859460040290920192611d13928492909101906151cf565b6003856003811115611e3a57611e3a615965565b036109a95760008981526007602090815260408220600b0180546001810182559083529181902083518051859460040290920192611d13928492909101906151cf565b505050505050505050565b60606006805480602002602001604051908101604052809291908181526020018280548015611ed657602002820191906000526020600020905b815481526020019060010190808311611ec2575b5050505050905090565b6000546001600160a01b0316331480611f415760005b600154811015611f3f5760018181548110611f1357611f13615b28565b6000918252602090912001546001600160a01b03163303611f375760019150611f3f565b600101611ef6565b505b80611fa15760405162461bcd60e51b815260206004820152602a60248201527f4f6e6c79206f776e6572206f722073746166662063616e2063616c6c207468696044820152693990333ab731ba34b7b760b11b6064820152608401610788565b600080836003811115611fb657611fb6615965565b03611fdd57506000858152600860209081526040808320878452909152902060040161208a565b6002836003811115611ff157611ff1615965565b0361201857506000858152600860209081526040808320878452909152902060060161208a565b600183600381111561202c5761202c615965565b0361205357506000858152600860209081526040808320878452909152902060050161208a565b600383600381111561206757612067615965565b036109a95750600085815260086020908152604080832087845290915290206007015b805484106120da5760405162461bcd60e51b815260206004820152601860248201527f496e76616c6964204d65646961204974656d20496e64657800000000000000006044820152606401610788565b805481906120ea90600190615ba5565b815481106120fa576120fa615b28565b906000526020600020906004020181858154811061211a5761211a615b28565b9060005260206000209060040201600082018160000190805461213c90615bea565b6121479291906152a8565b50600182018160010190805461215c90615bea565b6121679291906152a8565b50600282810154908201805460ff9092169160ff1916600183600381111561219157612191615965565b021790555060038201816003019080546121aa90615bea565b6121b59291906152a8565b50905050808054806121c9576121c9615bbc565b600082815260208120600019909201916004830201906121e98282615323565b6121f7600183016000615323565b60028201805460ff19169055612211600383016000615323565b50509055505050505050565b60608160ff166000036122d65760008481526008602090815260408083208684529091529020600201805461225190615bea565b80601f016020809104026020016040519081016040528092919081815260200182805461227d90615bea565b80156122ca5780601f1061229f576101008083540402835291602001916122ca565b820191906000526020600020905b8154815290600101906020018083116122ad57829003601f168201915b50505050509050611017565b8160ff16600103610fcf5760008481526008602090815260408083208684529091529020600301805461225190615bea565b60008781526007602052604081208891805b600483015460ff8216101561236d57826004018160ff168154811061234157612341615b28565b6000918252602090912001546001600160a01b03163303612365576001915061236d565b60010161231a565b50806123e15760405162461bcd60e51b815260206004820152603d60248201527f54686520616374696f6e2063616e206f6e6c7920626520706572666f726d656460448201527f206279206f7267616e697a657273206f66207468652070726f6a6563740000006064820152608401610788565b6000808560038111156123f6576123f6615965565b0361241d575060008a81526008602090815260408083208c845290915290206004016124ca565b600285600381111561243157612431615965565b03612458575060008a81526008602090815260408083208c845290915290206006016124ca565b600185600381111561246c5761246c615965565b03612493575060008a81526008602090815260408083208c845290915290206005016124ca565b60038560038111156124a7576124a7615965565b036109a9575060008a81526008602090815260408083208c845290915290206007015b8054891061251a5760405162461bcd60e51b815260206004820152601860248201527f496e76616c6964204d65646961204974656d20496e64657800000000000000006044820152606401610788565b6000818a8154811061252e5761252e615b28565b60009182526020918290208b516004909202019250612552918391908c01906151cf565b50875161256890600183019060208b01906151cf565b50865161257e90600383019060208a01906151cf565b50505050505050505050505050565b6000818152600760205260408082208254915190926001600160a01b03909216913480156108fc02929091818181858888f193505050501580156125d5573d6000803e3d6000fd5b50600e810180546001810182556000918252602082200180546001600160a01b03191633179055600f82018054349290612610908490615bd2565b909155505033600090815260118201602052604081208054349290612636908490615bd2565b92505081905550346004600082825461264f9190615bd2565b90915550506040805133815234602082015283917fe555da28bdb778f65d22794d88927ebaeca03f7de9d1b7d39245bc8fb5ca078a910160405180910390a25050565b606060008260038111156126a8576126a8615965565b036128ff57600083815260076020908152604080832060080180548251818502810185019093528083529193909284015b828210156128f4578382906000526020600020906004020160405180608001604052908160008201805461270c90615bea565b80601f016020809104026020016040519081016040528092919081815260200182805461273890615bea565b80156127855780601f1061275a57610100808354040283529160200191612785565b820191906000526020600020905b81548152906001019060200180831161276857829003601f168201915b5050505050815260200160018201805461279e90615bea565b80601f01602080910402602001604051908101604052809291908181526020018280546127ca90615bea565b80156128175780601f106127ec57610100808354040283529160200191612817565b820191906000526020600020905b8154815290600101906020018083116127fa57829003601f168201915b5050509183525050600282015460209091019060ff16600381111561283e5761283e615965565b600381111561284f5761284f615965565b815260200160038201805461286390615bea565b80601f016020809104026020016040519081016040528092919081815260200182805461288f90615bea565b80156128dc5780601f106128b1576101008083540402835291602001916128dc565b820191906000526020600020905b8154815290600101906020018083116128bf57829003601f168201915b505050505081525050815260200190600101906126d9565b505050509050611863565b600282600381111561291357612913615965565b03612b5f576000838152600760209081526040808320600a0180548251818502810185019093528083529193909284015b828210156128f4578382906000526020600020906004020160405180608001604052908160008201805461297790615bea565b80601f01602080910402602001604051908101604052809291908181526020018280546129a390615bea565b80156129f05780601f106129c5576101008083540402835291602001916129f0565b820191906000526020600020905b8154815290600101906020018083116129d357829003601f168201915b50505050508152602001600182018054612a0990615bea565b80601f0160208091040260200160405190810160405280929190818152602001828054612a3590615bea565b8015612a825780601f10612a5757610100808354040283529160200191612a82565b820191906000526020600020905b815481529060010190602001808311612a6557829003601f168201915b5050509183525050600282015460209091019060ff166003811115612aa957612aa9615965565b6003811115612aba57612aba615965565b8152602001600382018054612ace90615bea565b80601f0160208091040260200160405190810160405280929190818152602001828054612afa90615bea565b8015612b475780601f10612b1c57610100808354040283529160200191612b47565b820191906000526020600020905b815481529060010190602001808311612b2a57829003601f168201915b50505050508152505081526020019060010190612944565b6001826003811115612b7357612b73615965565b03612dbf57600083815260076020908152604080832060090180548251818502810185019093528083529193909284015b828210156128f45783829060005260206000209060040201604051806080016040529081600082018054612bd790615bea565b80601f0160208091040260200160405190810160405280929190818152602001828054612c0390615bea565b8015612c505780601f10612c2557610100808354040283529160200191612c50565b820191906000526020600020905b815481529060010190602001808311612c3357829003601f168201915b50505050508152602001600182018054612c6990615bea565b80601f0160208091040260200160405190810160405280929190818152602001828054612c9590615bea565b8015612ce25780601f10612cb757610100808354040283529160200191612ce2565b820191906000526020600020905b815481529060010190602001808311612cc557829003601f168201915b5050509183525050600282015460209091019060ff166003811115612d0957612d09615965565b6003811115612d1a57612d1a615965565b8152602001600382018054612d2e90615bea565b80601f0160208091040260200160405190810160405280929190818152602001828054612d5a90615bea565b8015612da75780601f10612d7c57610100808354040283529160200191612da7565b820191906000526020600020905b815481529060010190602001808311612d8a57829003601f168201915b50505050508152505081526020019060010190612ba4565b6003826003811115612dd357612dd3615965565b036109a9576000838152600760209081526040808320600b0180548251818502810185019093528083529193909284015b828210156128f45783829060005260206000209060040201604051806080016040529081600082018054612e3790615bea565b80601f0160208091040260200160405190810160405280929190818152602001828054612e6390615bea565b8015612eb05780601f10612e8557610100808354040283529160200191612eb0565b820191906000526020600020905b815481529060010190602001808311612e9357829003601f168201915b50505050508152602001600182018054612ec990615bea565b80601f0160208091040260200160405190810160405280929190818152602001828054612ef590615bea565b8015612f425780601f10612f1757610100808354040283529160200191612f42565b820191906000526020600020905b815481529060010190602001808311612f2557829003601f168201915b5050509183525050600282015460209091019060ff166003811115612f6957612f69615965565b6003811115612f7a57612f7a615965565b8152602001600382018054612f8e90615bea565b80601f0160208091040260200160405190810160405280929190818152602001828054612fba90615bea565b80156130075780601f10612fdc57610100808354040283529160200191613007565b820191906000526020600020905b815481529060010190602001808311612fea57829003601f168201915b50505050508152505081526020019060010190612e04565b60008481526007602052604081208591805b600483015460ff8216101561308457826004018160ff168154811061305857613058615b28565b6000918252602090912001546001600160a01b0316330361307c5760019150613084565b600101613031565b50806130f85760405162461bcd60e51b815260206004820152603d60248201527f54686520616374696f6e2063616e206f6e6c7920626520706572666f726d656460448201527f206279206f7267616e697a657273206f66207468652070726f6a6563740000006064820152608401610788565b6000878152600760205260409020600c0154879060ff166131815760405162461bcd60e51b815260206004820152603160248201527f54686520616374696f6e2063616e206f6e6c792068617070656e206f6e20616e60448201527f20617070726f7665642070726f6a6563740000000000000000000000000000006064820152608401610788565b6000888152600760209081526040808320600d015460088352818420818552835292208a815560018101805460ff19169055895190916131c89160028401918c01906151cf565b5087516131de90600383019060208b01906151cf565b506001810180547fffffffffffffffffffffff0000000000000000000000000000000000000000ff1633610100021790556008810187905560008a8152600760205260408120600d0180549161323383615b54565b919050555050505050505050505050565b60606001805480602002602001604051908101604052809291908181526020018280548015611ed657602002820191906000526020600020905b81546001600160a01b0316815260019091019060200180831161327e575050505050905090565b606060008260038111156132bb576132bb615965565b0361351a576000848152600860209081526040808320868452825280832060040180548251818502810185019093528083529193909284015b8282101561350f578382906000526020600020906004020160405180608001604052908160008201805461332790615bea565b80601f016020809104026020016040519081016040528092919081815260200182805461335390615bea565b80156133a05780601f10613375576101008083540402835291602001916133a0565b820191906000526020600020905b81548152906001019060200180831161338357829003601f168201915b505050505081526020016001820180546133b990615bea565b80601f01602080910402602001604051908101604052809291908181526020018280546133e590615bea565b80156134325780601f1061340757610100808354040283529160200191613432565b820191906000526020600020905b81548152906001019060200180831161341557829003601f168201915b5050509183525050600282015460209091019060ff16600381111561345957613459615965565b600381111561346a5761346a615965565b815260200160038201805461347e90615bea565b80601f01602080910402602001604051908101604052809291908181526020018280546134aa90615bea565b80156134f75780601f106134cc576101008083540402835291602001916134f7565b820191906000526020600020905b8154815290600101906020018083116134da57829003601f168201915b505050505081525050815260200190600101906132f4565b505050509050611017565b600282600381111561352e5761352e615965565b03613782576000848152600860209081526040808320868452825280832060060180548251818502810185019093528083529193909284015b8282101561350f578382906000526020600020906004020160405180608001604052908160008201805461359a90615bea565b80601f01602080910402602001604051908101604052809291908181526020018280546135c690615bea565b80156136135780601f106135e857610100808354040283529160200191613613565b820191906000526020600020905b8154815290600101906020018083116135f657829003601f168201915b5050505050815260200160018201805461362c90615bea565b80601f016020809104026020016040519081016040528092919081815260200182805461365890615bea565b80156136a55780601f1061367a576101008083540402835291602001916136a5565b820191906000526020600020905b81548152906001019060200180831161368857829003601f168201915b5050509183525050600282015460209091019060ff1660038111156136cc576136cc615965565b60038111156136dd576136dd615965565b81526020016003820180546136f190615bea565b80601f016020809104026020016040519081016040528092919081815260200182805461371d90615bea565b801561376a5780601f1061373f5761010080835404028352916020019161376a565b820191906000526020600020905b81548152906001019060200180831161374d57829003601f168201915b50505050508152505081526020019060010190613567565b600182600381111561379657613796615965565b036139ea576000848152600860209081526040808320868452825280832060050180548251818502810185019093528083529193909284015b8282101561350f578382906000526020600020906004020160405180608001604052908160008201805461380290615bea565b80601f016020809104026020016040519081016040528092919081815260200182805461382e90615bea565b801561387b5780601f106138505761010080835404028352916020019161387b565b820191906000526020600020905b81548152906001019060200180831161385e57829003601f168201915b5050505050815260200160018201805461389490615bea565b80601f01602080910402602001604051908101604052809291908181526020018280546138c090615bea565b801561390d5780601f106138e25761010080835404028352916020019161390d565b820191906000526020600020905b8154815290600101906020018083116138f057829003601f168201915b5050509183525050600282015460209091019060ff16600381111561393457613934615965565b600381111561394557613945615965565b815260200160038201805461395990615bea565b80601f016020809104026020016040519081016040528092919081815260200182805461398590615bea565b80156139d25780601f106139a7576101008083540402835291602001916139d2565b820191906000526020600020905b8154815290600101906020018083116139b557829003601f168201915b505050505081525050815260200190600101906137cf565b60038260038111156139fe576139fe615965565b036109a9576000848152600860209081526040808320868452825280832060070180548251818502810185019093528083529193909284015b8282101561350f5783829060005260206000209060040201604051806080016040529081600082018054613a6a90615bea565b80601f0160208091040260200160405190810160405280929190818152602001828054613a9690615bea565b8015613ae35780601f10613ab857610100808354040283529160200191613ae3565b820191906000526020600020905b815481529060010190602001808311613ac657829003601f168201915b50505050508152602001600182018054613afc90615bea565b80601f0160208091040260200160405190810160405280929190818152602001828054613b2890615bea565b8015613b755780601f10613b4a57610100808354040283529160200191613b75565b820191906000526020600020905b815481529060010190602001808311613b5857829003601f168201915b5050509183525050600282015460209091019060ff166003811115613b9c57613b9c615965565b6003811115613bad57613bad615965565b8152602001600382018054613bc190615bea565b80601f0160208091040260200160405190810160405280929190818152602001828054613bed90615bea565b8015613c3a5780601f10613c0f57610100808354040283529160200191613c3a565b820191906000526020600020905b815481529060010190602001808311613c1d57829003601f168201915b50505050508152505081526020019060010190613a37565b606081600003613cbd573360009081526009602090815260409182902080548351818402810184019094528084529091830182828015613cb157602002820191906000526020600020905b815481526020019060010190808311613c9d575b50505050509050919050565b81600103610fcf57336000908152600a602090815260409182902080548351818402810184019094528084529091830182828015613cb15760200282019190600052602060002090815481526020019060010190808311613c9d5750505050509050919050565b919050565b60008181526007602052604081208291805b600483015460ff82161015613d8e57826004018160ff1681548110613d6257613d62615b28565b6000918252602090912001546001600160a01b03163303613d865760019150613d8e565b600101613d3b565b5080613e025760405162461bcd60e51b815260206004820152603d60248201527f54686520616374696f6e2063616e206f6e6c7920626520706572666f726d656460448201527f206279206f7267616e697a657273206f66207468652070726f6a6563740000006064820152608401610788565b6000848152600760205260409020600c810154610100900460ff16613e275750614506565b600c8101805461ff0019169055600e8101546000819003613e49575050614506565b60008167ffffffffffffffff811115613e6457613e64615375565b604051908082528060200260200182016040528015613e8d578160200160208202803683370190505b50905060008267ffffffffffffffff811115613eab57613eab615375565b604051908082528060200260200182016040528015613ed4578160200160208202803683370190505b50905060005b83811015613fa457600085600e018281548110613ef957613ef9615b28565b9060005260206000200160009054906101000a90046001600160a01b0316905080848381518110613f2c57613f2c615b28565b60200260200101906001600160a01b031690816001600160a01b031681525050856011016000826001600160a01b03166001600160a01b0316815260200190815260200160002054838381518110613f8657613f86615b28565b60209081029190910101525080613f9c81615b54565b915050613eda565b50600a8311156143dc5760005b613fbc600185615ba5565b8110156141605760005b6001613fd28387615ba5565b613fdc9190615ba5565b81101561414d5782613fef826001615bd2565b81518110613fff57613fff615b28565b602002602001015183828151811061401957614019615b28565b6020026020010151101561413b5782614033826001615bd2565b8151811061404357614043615b28565b602002602001015183828151811061405d5761405d615b28565b602002602001015184838151811061407757614077615b28565b602002602001018584600161408c9190615bd2565b8151811061409c5761409c615b28565b602090810291909101019190915252836140b7826001615bd2565b815181106140c7576140c7615b28565b60200260200101518482815181106140e1576140e1615b28565b60200260200101518583815181106140fb576140fb615b28565b60200260200101868460016141109190615bd2565b8151811061412057614120615b28565b6001600160a01b039384166020918202929092010152911690525b8061414581615b54565b915050613fc6565b508061415881615b54565b915050613fb1565b5060006064614170856005615c1e565b61417a9190615c3d565b905060005b8181101561423b578560120184828151811061419d5761419d615b28565b6020908102919091018101518254600181018455600093845291832090910180546001600160a01b0319166001600160a01b039092169190911790558451600a91908690849081106141f1576141f1615b28565b6020908102919091018101516001600160a01b031682528181019290925260400160009081208054600181018255908252919020018a90558061423381615b54565b91505061417f565b5060006142488286615ba5565b90508060000361425d57505050505050614506565b60008167ffffffffffffffff81111561427857614278615375565b6040519080825280602002602001820160405280156142a1578160200160208202803683370190505b5090506000835b87811015614312578681815181106142c2576142c2615b28565b60200260200101518383806142d690615b54565b9450815181106142e8576142e8615b28565b6001600160a01b03909216602092830291909101909101528061430a81615b54565b9150506142a8565b5060005b838110156143d2578860130183828151811061433457614334615b28565b6020908102919091018101518254600181018455600093845291832090910180546001600160a01b0319166001600160a01b039092169190911790558351600a919085908490811061438857614388615b28565b6020908102919091018101516001600160a01b031682528181019290925260400160009081208054600181018255908252919020018d9055806143ca81615b54565b915050614316565b505050505061449d565b60005b8381101561449b57846013018382815181106143fd576143fd615b28565b6020908102919091018101518254600181018455600093845291832090910180546001600160a01b0319166001600160a01b039092169190911790558351600a919085908490811061445157614451615b28565b6020908102919091018101516001600160a01b031682528181019290925260400160009081208054600181018255908252919020018990558061449381615b54565b9150506143df565b505b6004840154601385015460128601546144b69190615bd2565b6144c09190615bd2565b60148501805460ff191660ff9290921691909117905560405188907fd312a8f16f4214218cb0334da9a62aa94a5bf7c208659435e4b35b5a4b7d440890600090a2505050505b50505050565b60008281526007602052604081208391805b600483015460ff8216101561457157826004018160ff168154811061454557614545615b28565b6000918252602090912001546001600160a01b031633036145695760019150614571565b60010161451e565b50806145e55760405162461bcd60e51b815260206004820152603d60248201527f54686520616374696f6e2063616e206f6e6c7920626520706572666f726d656460448201527f206279206f7267616e697a657273206f66207468652070726f6a6563740000006064820152608401610788565b6000858152600760205260409020600c0154859060ff1661466e5760405162461bcd60e51b815260206004820152603160248201527f54686520616374696f6e2063616e206f6e6c792068617070656e206f6e20616e60448201527f20617070726f7665642070726f6a6563740000000000000000000000000000006064820152608401610788565b60008681526008602090815260408083208884528252808320898452600790925290912060018083015460ff1660038111156146ac576146ac615965565b1461471f5760405162461bcd60e51b815260206004820152603060248201527f52657175657374206d7573742062652066756c6c7920617070726f766564207460448201527f6f2077697468647261772066756e6473000000000000000000000000000000006064820152608401610788565b8160080154816010015482600f01546147389190615ba5565b10156147905760405162461bcd60e51b815260206004820152602160248201527f496e73756666696369656e742066756e647320696e207468652070726f6a65636044820152601d60fa1b6064820152608401610788565b81600801548160100160008282546147a89190615bd2565b90915550506008820154600580546000906147c4908490615bd2565b9091555050600182018054600360ff19909116179081905560088301546040516101009092046001600160a01b0316916108fc82150291906000818181858888f1935050505015801561481b573d6000803e3d6000fd5b50877fef687a8f1519b4c5091105cbc704634d2f17927ba995f9044c74476dc623c04688846008015460405161485b929190918252602082015260400190565b60405180910390a25050505050505050565b60608160ff166000036148e757600083815260076020908152604091829020600401805483518184028101840190945280845290918301828280156148db57602002820191906000526020600020905b81546001600160a01b031681526001909101906020018083116148bd575b50505050509050611863565b8160ff1660010361495d57600083815260076020908152604091829020600e01805483518184028101840190945280845290918301828280156148db576020028201919060005260206000209081546001600160a01b031681526001909101906020018083116148bd5750505050509050611863565b8160ff166002036149d357600083815260076020908152604091829020601201805483518184028101840190945280845290918301828280156148db576020028201919060005260206000209081546001600160a01b031681526001909101906020018083116148bd5750505050509050611863565b8160ff16600203610fcf57600083815260076020908152604091829020601301805483518184028101840190945280845290918301828280156148db576020028201919060005260206000209081546001600160a01b031681526001909101906020018083116148bd5750505050509050611863565b600080546001600160a01b0316331480613d245760005b600154811015614aa95760018181548110614a7d57614a7d615b28565b6000918252602090912001546001600160a01b03163303614aa15760019150614aa9565b600101614a60565b50919050565b60008681526007602052604081208791805b600483015460ff82161015614b1457826004018160ff1681548110614ae857614ae8615b28565b6000918252602090912001546001600160a01b03163303614b0c5760019150614b14565b600101614ac1565b5080614b885760405162461bcd60e51b815260206004820152603d60248201527f54686520616374696f6e2063616e206f6e6c7920626520706572666f726d656460448201527f206279206f7267616e697a657273206f66207468652070726f6a6563740000006064820152608401610788565b600080856003811115614b9d57614b9d615965565b03614bb957506000898152600760205260409020600801614c45565b6002856003811115614bcd57614bcd615965565b03614be957506000898152600760205260409020600a01614c45565b6001856003811115614bfd57614bfd615965565b03614c1957506000898152600760205260409020600901614c45565b6003856003811115614c2d57614c2d615965565b036109a957506000898152600760205260409020600b015b80548910614c955760405162461bcd60e51b815260206004820152601860248201527f496e76616c6964204d65646961204974656d20496e64657800000000000000006044820152606401610788565b6000818a81548110614ca957614ca9615b28565b60009182526020918290208b516004909202019250614ccd918391908c01906151cf565b508751614ce390600183019060208b01906151cf565b508651610e7190600383019060208a01906151cf565b6000546001600160a01b0316331480614d5a5760005b600154811015614d585760018181548110614d2c57614d2c615b28565b6000918252602090912001546001600160a01b03163303614d505760019150614d58565b600101614d0f565b505b80614dba5760405162461bcd60e51b815260206004820152602a60248201527f4f6e6c79206f776e6572206f722073746166662063616e2063616c6c207468696044820152693990333ab731ba34b7b760b11b6064820152608401610788565b600080836003811115614dcf57614dcf615965565b03614deb57506000848152600760205260409020600801614e77565b6002836003811115614dff57614dff615965565b03614e1b57506000848152600760205260409020600a01614e77565b6001836003811115614e2f57614e2f615965565b03614e4b57506000848152600760205260409020600901614e77565b6003836003811115614e5f57614e5f615965565b036109a957506000848152600760205260409020600b015b80548410614ec75760405162461bcd60e51b815260206004820152601860248201527f496e76616c6964204d65646961204974656d20496e64657800000000000000006044820152606401610788565b80548190614ed790600190615ba5565b81548110614ee757614ee7615b28565b9060005260206000209060040201818581548110614f0757614f07615b28565b90600052602060002090600402016000820181600001908054614f2990615bea565b614f349291906152a8565b506001820181600101908054614f4990615bea565b614f549291906152a8565b50600282810154908201805460ff9092169160ff19166001836003811115614f7e57614f7e615965565b02179055506003820181600301908054614f9790615bea565b614fa29291906152a8565b5090505080805480614fb657614fb6615bbc565b60008281526020812060001990920191600483020190614fd68282615323565b614fe4600183016000615323565b60028201805460ff19169055614ffe600383016000615323565b505090555050505050565b60608160ff1660000361508a576000848152600860209081526040808320868452825291829020600b01805483518184028101840190945280845290918301828280156122ca57602002820191906000526020600020905b81546001600160a01b031681526001909101906020018083116150615750505050509050611017565b8160ff16600103610fcf576000848152600860209081526040808320868452825291829020600c01805483518184028101840190945280845290918301828280156122ca576020028201919060005260206000209081546001600160a01b031681526001909101906020018083116150615750505050509050611017565b6060816000036151ab576000838152600760205260409020600201805461512e90615bea565b80601f016020809104026020016040519081016040528092919081815260200182805461515a90615bea565b80156148db5780601f1061517c576101008083540402835291602001916148db565b820191906000526020600020905b81548152906001019060200180831161518a57509394506118639350505050565b81600103610fcf576000838152600760205260409020600301805461512e90615bea565b8280546151db90615bea565b90600052602060002090601f0160209004810192826151fd5760008555615243565b82601f1061521657805160ff1916838001178555615243565b82800160010185558215615243579182015b82811115615243578251825591602001919060010190615228565b5061524f929150615360565b5090565b828054828255906000526020600020908101928215615243579160200282015b8281111561524357825182546001600160a01b0319166001600160a01b03909116178255602090920191600190910190615273565b8280546152b490615bea565b90600052602060002090601f0160209004810192826152d65760008555615243565b82601f106152e75780548555615243565b8280016001018555821561524357600052602060002091601f016020900482015b82811115615243578254825591600101919060010190615308565b50805461532f90615bea565b6000825580601f1061533f575050565b601f01602090049060005260206000209081019061535d9190615360565b50565b5b8082111561524f5760008155600101615361565b634e487b7160e01b600052604160045260246000fd5b604051601f8201601f1916810167ffffffffffffffff811182821017156153b4576153b4615375565b604052919050565b600082601f8301126153cd57600080fd5b813567ffffffffffffffff8111156153e7576153e7615375565b6153fa601f8201601f191660200161538b565b81815284602083860101111561540f57600080fd5b816020850160208301376000918101602001919091529392505050565b803560048110613d2457600080fd5b60008060008060008060c0878903121561545457600080fd5b8635955060208701359450604087013567ffffffffffffffff8082111561547a57600080fd5b6154868a838b016153bc565b9550606089013591508082111561549c57600080fd5b6154a88a838b016153bc565b945060808901359150808211156154be57600080fd5b506154cb89828a016153bc565b9250506154da60a0880161542c565b90509295509295509295565b80356001600160a01b0381168114613d2457600080fd5b60006020828403121561550f57600080fd5b611017826154e6565b6000806040838503121561552b57600080fd5b50508035926020909101359150565b803560ff81168114613d2457600080fd5b60008060006060848603121561556057600080fd5b83359250602084013591506155776040850161553a565b90509250925092565b60006020828403121561559257600080fd5b5035919050565b600080604083850312156155ac57600080fd5b823591506155bc6020840161553a565b90509250929050565b600082601f8301126155d657600080fd5b8135602067ffffffffffffffff8211156155f2576155f2615375565b8160051b61560182820161538b565b928352848101820192828101908785111561561b57600080fd5b83870192505b8483101561564157615632836154e6565b82529183019190830190615621565b979650505050505050565b600080600080600080600060e0888a03121561566757600080fd5b87356002811061567657600080fd5b9650602088013567ffffffffffffffff8082111561569357600080fd5b61569f8b838c016153bc565b975060408a01359150808211156156b557600080fd5b6156c18b838c016153bc565b965060608a01359150808211156156d757600080fd5b506156e48a828b016155c5565b979a969950949760808101359660a0820135965060c090910135945092505050565b600080600080600060a0868803121561571e57600080fd5b85359450602086013567ffffffffffffffff8082111561573d57600080fd5b61574989838a016153bc565b9550604088013591508082111561575f57600080fd5b61576b89838a016153bc565b9450606088013591508082111561578157600080fd5b5061578e888289016153bc565b92505061579d6080870161542c565b90509295509295909350565b6020808252825182820181905260009190848201906040850190845b818110156157e1578351835292840192918401916001016157c5565b50909695505050505050565b6000806000806080858703121561580357600080fd5b8435935060208501359250604085013591506158216060860161542c565b905092959194509250565b6000815180845260005b8181101561585257602081850181015186830182015201615836565b81811115615864576000602083870101525b50601f01601f19169290920160200192915050565b602081526000611017602083018461582c565b600080600080600080600060e0888a0312156158a757600080fd5b873596506020880135955060408801359450606088013567ffffffffffffffff808211156158d457600080fd5b6158e08b838c016153bc565b955060808a01359150808211156158f657600080fd5b6159028b838c016153bc565b945060a08a013591508082111561591857600080fd5b506159258a828b016153bc565b92505061593460c0890161542c565b905092959891949750929550565b6000806040838503121561595557600080fd5b823591506155bc6020840161542c565b634e487b7160e01b600052602160045260246000fd5b60006020808301818452808551808352604092508286019150828160051b8701018488016000805b84811015615a3757603f198a85030186528251608081518187526159c98288018261582c565b915050898201518682038b8801526159e1828261582c565b915050888201516004808210615a0457634e487b7160e01b865260218152602486fd5b50868a015260609182015186820392870192909252615a23818361582c565b978a019795505050918701916001016159a3565b50919998505050505050505050565b60008060008060808587031215615a5c57600080fd5b84359350602085013567ffffffffffffffff80821115615a7b57600080fd5b615a87888389016153bc565b94506040870135915080821115615a9d57600080fd5b50615aaa878288016153bc565b949793965093946060013593505050565b6020808252825182820181905260009190848201906040850190845b818110156157e15783516001600160a01b031683529284019291840191600101615ad7565b600080600060608486031215615b1157600080fd5b83359250602084013591506155776040850161542c565b634e487b7160e01b600052603260045260246000fd5b634e487b7160e01b600052601160045260246000fd5b600060018201615b6657615b66615b3e565b5060010190565b634e487b7160e01b600052601260045260246000fd5b600060ff831680615b9657615b96615b6d565b8060ff84160491505092915050565b600082821015615bb757615bb7615b3e565b500390565b634e487b7160e01b600052603160045260246000fd5b60008219821115615be557615be5615b3e565b500190565b600181811c90821680615bfe57607f821691505b602082108103614aa957634e487b7160e01b600052602260045260246000fd5b6000816000190483118215151615615c3857615c38615b3e565b500290565b600082615c4c57615c4c615b6d565b50049056fea164736f6c634300080e000a","opcodes":"PUSH1 0x80 PUSH1 0x40 MSTORE PUSH1 0x0 PUSH1 0x2 DUP2 SWAP1 SSTORE PUSH1 0x3 DUP2 SWAP1 SSTORE PUSH1 0x4 DUP2 SWAP1 SSTORE PUSH1 0x5 DUP2 SWAP1 SSTORE DUP1 SLOAD PUSH1 0x1 PUSH1 0x1 PUSH1 0xA0 SHL SUB NOT AND CALLER OR SWAP1 SSTORE PUSH2 0x5C5E DUP1 PUSH2 0x39 PUSH1 0x0 CODECOPY PUSH1 0x0 RETURN INVALID PUSH1 0x80 PUSH1 0x40 MSTORE PUSH1 0x4 CALLDATASIZE LT PUSH2 0x1FE JUMPI PUSH1 0x0 CALLDATALOAD PUSH1 0xE0 SHR DUP1 PUSH4 0xA80098B0 GT PUSH2 0x11D JUMPI DUP1 PUSH4 0xDD931EEC GT PUSH2 0xB0 JUMPI DUP1 PUSH4 0xF49E7300 GT PUSH2 0x7F JUMPI DUP1 PUSH4 0xFCC686A9 GT PUSH2 0x64 JUMPI DUP1 PUSH4 0xFCC686A9 EQ PUSH2 0x653 JUMPI DUP1 PUSH4 0xFCE2E927 EQ PUSH2 0x673 JUMPI DUP1 PUSH4 0xFEC3AFED EQ PUSH2 0x693 JUMPI PUSH1 0x0 DUP1 REVERT JUMPDEST DUP1 PUSH4 0xF49E7300 EQ PUSH2 0x60E JUMPI DUP1 PUSH4 0xFB812A0B EQ PUSH2 0x633 JUMPI PUSH1 0x0 DUP1 REVERT JUMPDEST DUP1 PUSH4 0xDD931EEC EQ PUSH2 0x58E JUMPI DUP1 PUSH4 0xE25EDC31 EQ PUSH2 0x5AE JUMPI DUP1 PUSH4 0xE5253105 EQ PUSH2 0x5CE JUMPI DUP1 PUSH4 0xF3BF0888 EQ PUSH2 0x5EE JUMPI PUSH1 0x0 DUP1 REVERT JUMPDEST DUP1 PUSH4 0xB42766FA GT PUSH2 0xEC JUMPI DUP1 PUSH4 0xB42766FA EQ PUSH2 0x4FF JUMPI DUP1 PUSH4 0xB7AEBDE2 EQ PUSH2 0x52C JUMPI DUP1 PUSH4 0xC2D1A1AF EQ PUSH2 0x54C JUMPI DUP1 PUSH4 0xD630B812 EQ PUSH2 0x56E JUMPI PUSH1 0x0 DUP1 REVERT JUMPDEST DUP1 PUSH4 0xA80098B0 EQ PUSH2 0x489 JUMPI DUP1 PUSH4 0xA98B15F0 EQ PUSH2 0x49F JUMPI DUP1 PUSH4 0xB00D29E8 EQ PUSH2 0x4CC JUMPI DUP1 PUSH4 0xB219F916 EQ PUSH2 0x4EC JUMPI PUSH1 0x0 DUP1 REVERT JUMPDEST DUP1 PUSH4 0x708CDFE6 GT PUSH2 0x195 JUMPI DUP1 PUSH4 0x8DA5CB5B GT PUSH2 0x164 JUMPI DUP1 PUSH4 0x8DA5CB5B EQ PUSH2 0x411 JUMPI DUP1 PUSH4 0x9EEF250C EQ PUSH2 0x431 JUMPI DUP1 PUSH4 0xA17A37DD EQ PUSH2 0x453 JUMPI DUP1 PUSH4 0xA7DBCB76 EQ PUSH2 0x469 JUMPI PUSH1 0x0 DUP1 REVERT JUMPDEST DUP1 PUSH4 0x708CDFE6 EQ PUSH2 0x35A JUMPI DUP1 PUSH4 0x8398B7C1 EQ PUSH2 0x37A JUMPI DUP1 PUSH4 0x862E2FC8 EQ PUSH2 0x39A JUMPI DUP1 PUSH4 0x87A7FCBC EQ PUSH2 0x3B0 JUMPI PUSH1 0x0 DUP1 REVERT JUMPDEST DUP1 PUSH4 0x31B03254 GT PUSH2 0x1D1 JUMPI DUP1 PUSH4 0x31B03254 EQ PUSH2 0x2DA JUMPI DUP1 PUSH4 0x3866B6A3 EQ PUSH2 0x2FA JUMPI DUP1 PUSH4 0x56C6EBFE EQ PUSH2 0x31A JUMPI DUP1 PUSH4 0x59F822AE EQ PUSH2 0x33A JUMPI PUSH1 0x0 DUP1 REVERT JUMPDEST DUP1 PUSH4 0x22043B5C EQ PUSH2 0x203 JUMPI DUP1 PUSH4 0x2A957529 EQ PUSH2 0x225 JUMPI DUP1 PUSH4 0x2B95B559 EQ PUSH2 0x291 JUMPI DUP1 PUSH4 0x3138F026 EQ PUSH2 0x2BA JUMPI JUMPDEST PUSH1 0x0 DUP1 REVERT JUMPDEST CALLVALUE DUP1 ISZERO PUSH2 0x20F JUMPI PUSH1 0x0 DUP1 REVERT JUMPDEST POP PUSH2 0x223 PUSH2 0x21E CALLDATASIZE PUSH1 0x4 PUSH2 0x543B JUMP JUMPDEST PUSH2 0x6B3 JUMP JUMPDEST STOP JUMPDEST CALLVALUE DUP1 ISZERO PUSH2 0x231 JUMPI PUSH1 0x0 DUP1 REVERT JUMPDEST POP PUSH2 0x223 PUSH2 0x240 CALLDATASIZE PUSH1 0x4 PUSH2 0x54FD JUMP JUMPDEST PUSH1 0x1 DUP1 SLOAD DUP1 DUP3 ADD DUP3 SSTORE PUSH1 0x0 SWAP2 SWAP1 SWAP2 MSTORE PUSH32 0xB10E2D527612073B26EECDFD717E6A320CF44B4AFAC2B0732D9FCBE2B7FA0CF6 ADD DUP1 SLOAD PUSH1 0x1 PUSH1 0x1 PUSH1 0xA0 SHL SUB NOT AND PUSH1 0x1 PUSH1 0x1 PUSH1 0xA0 SHL SUB SWAP3 SWAP1 SWAP3 AND SWAP2 SWAP1 SWAP2 OR SWAP1 SSTORE JUMP JUMPDEST CALLVALUE DUP1 ISZERO PUSH2 0x29D JUMPI PUSH1 0x0 DUP1 REVERT JUMPDEST POP PUSH2 0x2A7 PUSH1 0x3 SLOAD DUP2 JUMP JUMPDEST PUSH1 0x40 MLOAD SWAP1 DUP2 MSTORE PUSH1 0x20 ADD JUMPDEST PUSH1 0x40 MLOAD DUP1 SWAP2 SUB SWAP1 RETURN JUMPDEST CALLVALUE DUP1 ISZERO PUSH2 0x2C6 JUMPI PUSH1 0x0 DUP1 REVERT JUMPDEST POP PUSH2 0x223 PUSH2 0x2D5 CALLDATASIZE PUSH1 0x4 PUSH2 0x5518 JUMP JUMPDEST PUSH2 0x9FD JUMP JUMPDEST CALLVALUE DUP1 ISZERO PUSH2 0x2E6 JUMPI PUSH1 0x0 DUP1 REVERT JUMPDEST POP PUSH2 0x2A7 PUSH2 0x2F5 CALLDATASIZE PUSH1 0x4 PUSH2 0x554B JUMP JUMPDEST PUSH2 0xE7F JUMP JUMPDEST CALLVALUE DUP1 ISZERO PUSH2 0x306 JUMPI PUSH1 0x0 DUP1 REVERT JUMPDEST POP PUSH2 0x223 PUSH2 0x315 CALLDATASIZE PUSH1 0x4 PUSH2 0x5518 JUMP JUMPDEST PUSH2 0x101E JUMP JUMPDEST CALLVALUE DUP1 ISZERO PUSH2 0x326 JUMPI PUSH1 0x0 DUP1 REVERT JUMPDEST POP PUSH2 0x223 PUSH2 0x335 CALLDATASIZE PUSH1 0x4 PUSH2 0x5580 JUMP JUMPDEST PUSH2 0x148B JUMP JUMPDEST CALLVALUE DUP1 ISZERO PUSH2 0x346 JUMPI PUSH1 0x0 DUP1 REVERT JUMPDEST POP PUSH2 0x2A7 PUSH2 0x355 CALLDATASIZE PUSH1 0x4 PUSH2 0x5599 JUMP JUMPDEST PUSH2 0x16BA JUMP JUMPDEST CALLVALUE DUP1 ISZERO PUSH2 0x366 JUMPI PUSH1 0x0 DUP1 REVERT JUMPDEST POP PUSH2 0x223 PUSH2 0x375 CALLDATASIZE PUSH1 0x4 PUSH2 0x564C JUMP JUMPDEST PUSH2 0x1869 JUMP JUMPDEST CALLVALUE DUP1 ISZERO PUSH2 0x386 JUMPI PUSH1 0x0 DUP1 REVERT JUMPDEST POP PUSH2 0x223 PUSH2 0x395 CALLDATASIZE PUSH1 0x4 PUSH2 0x5706 JUMP JUMPDEST PUSH2 0x1BAE JUMP JUMPDEST CALLVALUE DUP1 ISZERO PUSH2 0x3A6 JUMPI PUSH1 0x0 DUP1 REVERT JUMPDEST POP PUSH2 0x2A7 PUSH1 0x4 SLOAD DUP2 JUMP JUMPDEST CALLVALUE DUP1 ISZERO PUSH2 0x3BC JUMPI PUSH1 0x0 DUP1 REVERT JUMPDEST POP PUSH2 0x3F9 PUSH2 0x3CB CALLDATASIZE PUSH1 0x4 PUSH2 0x5518 JUMP JUMPDEST PUSH1 0x0 SWAP2 DUP3 MSTORE PUSH1 0x8 PUSH1 0x20 SWAP1 DUP2 MSTORE PUSH1 0x40 DUP1 DUP5 KECCAK256 SWAP3 DUP5 MSTORE SWAP2 SWAP1 MSTORE SWAP1 KECCAK256 PUSH1 0x1 ADD SLOAD PUSH2 0x100 SWAP1 DIV PUSH1 0x1 PUSH1 0x1 PUSH1 0xA0 SHL SUB AND SWAP1 JUMP JUMPDEST PUSH1 0x40 MLOAD PUSH1 0x1 PUSH1 0x1 PUSH1 0xA0 SHL SUB SWAP1 SWAP2 AND DUP2 MSTORE PUSH1 0x20 ADD PUSH2 0x2B1 JUMP JUMPDEST CALLVALUE DUP1 ISZERO PUSH2 0x41D JUMPI PUSH1 0x0 DUP1 REVERT JUMPDEST POP PUSH1 0x0 SLOAD PUSH2 0x3F9 SWAP1 PUSH1 0x1 PUSH1 0x1 PUSH1 0xA0 SHL SUB AND DUP2 JUMP JUMPDEST CALLVALUE DUP1 ISZERO PUSH2 0x43D JUMPI PUSH1 0x0 DUP1 REVERT JUMPDEST POP PUSH2 0x446 PUSH2 0x1E88 JUMP JUMPDEST PUSH1 0x40 MLOAD PUSH2 0x2B1 SWAP2 SWAP1 PUSH2 0x57A9 JUMP JUMPDEST CALLVALUE DUP1 ISZERO PUSH2 0x45F JUMPI PUSH1 0x0 DUP1 REVERT JUMPDEST POP PUSH2 0x2A7 PUSH1 0x2 SLOAD DUP2 JUMP JUMPDEST CALLVALUE DUP1 ISZERO PUSH2 0x475 JUMPI PUSH1 0x0 DUP1 REVERT JUMPDEST POP PUSH2 0x223 PUSH2 0x484 CALLDATASIZE PUSH1 0x4 PUSH2 0x57ED JUMP JUMPDEST PUSH2 0x1EE0 JUMP JUMPDEST CALLVALUE DUP1 ISZERO PUSH2 0x495 JUMPI PUSH1 0x0 DUP1 REVERT JUMPDEST POP PUSH2 0x2A7 PUSH1 0x5 SLOAD DUP2 JUMP JUMPDEST CALLVALUE DUP1 ISZERO PUSH2 0x4AB JUMPI PUSH1 0x0 DUP1 REVERT JUMPDEST POP PUSH2 0x4BF PUSH2 0x4BA CALLDATASIZE PUSH1 0x4 PUSH2 0x554B JUMP JUMPDEST PUSH2 0x221D JUMP JUMPDEST PUSH1 0x40 MLOAD PUSH2 0x2B1 SWAP2 SWAP1 PUSH2 0x5879 JUMP JUMPDEST CALLVALUE DUP1 ISZERO PUSH2 0x4D8 JUMPI PUSH1 0x0 DUP1 REVERT JUMPDEST POP PUSH2 0x223 PUSH2 0x4E7 CALLDATASIZE PUSH1 0x4 PUSH2 0x588C JUMP JUMPDEST PUSH2 0x2308 JUMP JUMPDEST PUSH2 0x223 PUSH2 0x4FA CALLDATASIZE PUSH1 0x4 PUSH2 0x5580 JUMP JUMPDEST PUSH2 0x258D JUMP JUMPDEST CALLVALUE DUP1 ISZERO PUSH2 0x50B JUMPI PUSH1 0x0 DUP1 REVERT JUMPDEST POP PUSH2 0x51F PUSH2 0x51A CALLDATASIZE PUSH1 0x4 PUSH2 0x5942 JUMP JUMPDEST PUSH2 0x2692 JUMP JUMPDEST PUSH1 0x40 MLOAD PUSH2 0x2B1 SWAP2 SWAP1 PUSH2 0x597B JUMP JUMPDEST CALLVALUE DUP1 ISZERO PUSH2 0x538 JUMPI PUSH1 0x0 DUP1 REVERT JUMPDEST POP PUSH2 0x223 PUSH2 0x547 CALLDATASIZE PUSH1 0x4 PUSH2 0x5A46 JUMP JUMPDEST PUSH2 0x301F JUMP JUMPDEST CALLVALUE DUP1 ISZERO PUSH2 0x558 JUMPI PUSH1 0x0 DUP1 REVERT JUMPDEST POP PUSH2 0x561 PUSH2 0x3244 JUMP JUMPDEST PUSH1 0x40 MLOAD PUSH2 0x2B1 SWAP2 SWAP1 PUSH2 0x5ABB JUMP JUMPDEST CALLVALUE DUP1 ISZERO PUSH2 0x57A JUMPI PUSH1 0x0 DUP1 REVERT JUMPDEST POP PUSH2 0x51F PUSH2 0x589 CALLDATASIZE PUSH1 0x4 PUSH2 0x5AFC JUMP JUMPDEST PUSH2 0x32A5 JUMP JUMPDEST CALLVALUE DUP1 ISZERO PUSH2 0x59A JUMPI PUSH1 0x0 DUP1 REVERT JUMPDEST POP PUSH2 0x446 PUSH2 0x5A9 CALLDATASIZE PUSH1 0x4 PUSH2 0x5580 JUMP JUMPDEST PUSH2 0x3C52 JUMP JUMPDEST CALLVALUE DUP1 ISZERO PUSH2 0x5BA JUMPI PUSH1 0x0 DUP1 REVERT JUMPDEST POP PUSH2 0x223 PUSH2 0x5C9 CALLDATASIZE PUSH1 0x4 PUSH2 0x5580 JUMP JUMPDEST PUSH2 0x3D29 JUMP JUMPDEST CALLVALUE DUP1 ISZERO PUSH2 0x5DA JUMPI PUSH1 0x0 DUP1 REVERT JUMPDEST POP PUSH2 0x223 PUSH2 0x5E9 CALLDATASIZE PUSH1 0x4 PUSH2 0x5518 JUMP JUMPDEST PUSH2 0x450C JUMP JUMPDEST CALLVALUE DUP1 ISZERO PUSH2 0x5FA JUMPI PUSH1 0x0 DUP1 REVERT JUMPDEST POP PUSH2 0x561 PUSH2 0x609 CALLDATASIZE PUSH1 0x4 PUSH2 0x5599 JUMP JUMPDEST PUSH2 0x486D JUMP JUMPDEST CALLVALUE DUP1 ISZERO PUSH2 0x61A JUMPI PUSH1 0x0 DUP1 REVERT JUMPDEST POP PUSH2 0x623 PUSH2 0x4A49 JUMP JUMPDEST PUSH1 0x40 MLOAD SWAP1 ISZERO ISZERO DUP2 MSTORE PUSH1 0x20 ADD PUSH2 0x2B1 JUMP JUMPDEST CALLVALUE DUP1 ISZERO PUSH2 0x63F JUMPI PUSH1 0x0 DUP1 REVERT JUMPDEST POP PUSH2 0x223 PUSH2 0x64E CALLDATASIZE PUSH1 0x4 PUSH2 0x543B JUMP JUMPDEST PUSH2 0x4AAF JUMP JUMPDEST CALLVALUE DUP1 ISZERO PUSH2 0x65F JUMPI PUSH1 0x0 DUP1 REVERT JUMPDEST POP PUSH2 0x223 PUSH2 0x66E CALLDATASIZE PUSH1 0x4 PUSH2 0x5AFC JUMP JUMPDEST PUSH2 0x4CF9 JUMP JUMPDEST CALLVALUE DUP1 ISZERO PUSH2 0x67F JUMPI PUSH1 0x0 DUP1 REVERT JUMPDEST POP PUSH2 0x561 PUSH2 0x68E CALLDATASIZE PUSH1 0x4 PUSH2 0x554B JUMP JUMPDEST PUSH2 0x5009 JUMP JUMPDEST CALLVALUE DUP1 ISZERO PUSH2 0x69F JUMPI PUSH1 0x0 DUP1 REVERT JUMPDEST POP PUSH2 0x4BF PUSH2 0x6AE CALLDATASIZE PUSH1 0x4 PUSH2 0x5518 JUMP JUMPDEST PUSH2 0x5108 JUMP JUMPDEST PUSH1 0x0 DUP7 DUP2 MSTORE PUSH1 0x7 PUSH1 0x20 MSTORE PUSH1 0x40 DUP2 KECCAK256 DUP8 SWAP2 DUP1 JUMPDEST PUSH1 0x4 DUP4 ADD SLOAD PUSH1 0xFF DUP3 AND LT ISZERO PUSH2 0x718 JUMPI DUP3 PUSH1 0x4 ADD DUP2 PUSH1 0xFF AND DUP2 SLOAD DUP2 LT PUSH2 0x6EC JUMPI PUSH2 0x6EC PUSH2 0x5B28 JUMP JUMPDEST PUSH1 0x0 SWAP2 DUP3 MSTORE PUSH1 0x20 SWAP1 SWAP2 KECCAK256 ADD SLOAD PUSH1 0x1 PUSH1 0x1 PUSH1 0xA0 SHL SUB AND CALLER SUB PUSH2 0x710 JUMPI PUSH1 0x1 SWAP2 POP PUSH2 0x718 JUMP JUMPDEST PUSH1 0x1 ADD PUSH2 0x6C5 JUMP JUMPDEST POP DUP1 PUSH2 0x791 JUMPI PUSH1 0x40 MLOAD PUSH3 0x461BCD PUSH1 0xE5 SHL DUP2 MSTORE PUSH1 0x20 PUSH1 0x4 DUP3 ADD MSTORE PUSH1 0x3D PUSH1 0x24 DUP3 ADD MSTORE PUSH32 0x54686520616374696F6E2063616E206F6E6C7920626520706572666F726D6564 PUSH1 0x44 DUP3 ADD MSTORE PUSH32 0x206279206F7267616E697A657273206F66207468652070726F6A656374000000 PUSH1 0x64 DUP3 ADD MSTORE PUSH1 0x84 ADD JUMPDEST PUSH1 0x40 MLOAD DUP1 SWAP2 SUB SWAP1 REVERT JUMPDEST PUSH1 0x0 PUSH1 0x40 MLOAD DUP1 PUSH1 0x80 ADD PUSH1 0x40 MSTORE DUP1 DUP10 DUP2 MSTORE PUSH1 0x20 ADD DUP9 DUP2 MSTORE PUSH1 0x20 ADD DUP7 PUSH1 0x3 DUP2 GT ISZERO PUSH2 0x7BC JUMPI PUSH2 0x7BC PUSH2 0x5965 JUMP JUMPDEST DUP2 MSTORE PUSH1 0x20 ADD DUP8 SWAP1 MSTORE SWAP1 POP PUSH1 0x0 DUP6 PUSH1 0x3 DUP2 GT ISZERO PUSH2 0x7DA JUMPI PUSH2 0x7DA PUSH2 0x5965 JUMP JUMPDEST SUB PUSH2 0x88C JUMPI PUSH1 0x0 DUP11 DUP2 MSTORE PUSH1 0x8 PUSH1 0x20 SWAP1 DUP2 MSTORE PUSH1 0x40 DUP1 DUP4 KECCAK256 DUP13 DUP5 MSTORE DUP3 MSTORE DUP3 KECCAK256 PUSH1 0x4 SWAP1 DUP2 ADD DUP1 SLOAD PUSH1 0x1 DUP2 ADD DUP3 SSTORE SWAP1 DUP5 MSTORE SWAP3 DUP3 SWAP1 KECCAK256 DUP5 MLOAD DUP1 MLOAD DUP7 SWAP6 SWAP1 SWAP4 MUL SWAP1 SWAP2 ADD SWAP3 PUSH2 0x827 SWAP3 DUP5 SWAP3 SWAP1 SWAP2 ADD SWAP1 PUSH2 0x51CF JUMP JUMPDEST POP PUSH1 0x20 DUP3 DUP2 ADD MLOAD DUP1 MLOAD PUSH2 0x840 SWAP3 PUSH1 0x1 DUP6 ADD SWAP3 ADD SWAP1 PUSH2 0x51CF JUMP JUMPDEST POP PUSH1 0x40 DUP3 ADD MLOAD PUSH1 0x2 DUP3 ADD DUP1 SLOAD PUSH1 0xFF NOT AND PUSH1 0x1 DUP4 PUSH1 0x3 DUP2 GT ISZERO PUSH2 0x864 JUMPI PUSH2 0x864 PUSH2 0x5965 JUMP JUMPDEST MUL OR SWAP1 SSTORE POP PUSH1 0x60 DUP3 ADD MLOAD DUP1 MLOAD PUSH2 0x884 SWAP2 PUSH1 0x3 DUP5 ADD SWAP2 PUSH1 0x20 SWAP1 SWAP2 ADD SWAP1 PUSH2 0x51CF JUMP JUMPDEST POP POP POP PUSH2 0x9F1 JUMP JUMPDEST PUSH1 0x2 DUP6 PUSH1 0x3 DUP2 GT ISZERO PUSH2 0x8A0 JUMPI PUSH2 0x8A0 PUSH2 0x5965 JUMP JUMPDEST SUB PUSH2 0x8EB JUMPI PUSH1 0x0 DUP11 DUP2 MSTORE PUSH1 0x8 PUSH1 0x20 SWAP1 DUP2 MSTORE PUSH1 0x40 DUP1 DUP4 KECCAK256 DUP13 DUP5 MSTORE DUP3 MSTORE DUP3 KECCAK256 PUSH1 0x6 ADD DUP1 SLOAD PUSH1 0x1 DUP2 ADD DUP3 SSTORE SWAP1 DUP4 MSTORE SWAP2 DUP2 SWAP1 KECCAK256 DUP4 MLOAD DUP1 MLOAD DUP6 SWAP5 PUSH1 0x4 MUL SWAP1 SWAP3 ADD SWAP3 PUSH2 0x827 SWAP3 DUP5 SWAP3 SWAP1 SWAP2 ADD SWAP1 PUSH2 0x51CF JUMP JUMPDEST PUSH1 0x1 DUP6 PUSH1 0x3 DUP2 GT ISZERO PUSH2 0x8FF JUMPI PUSH2 0x8FF PUSH2 0x5965 JUMP JUMPDEST SUB PUSH2 0x94A JUMPI PUSH1 0x0 DUP11 DUP2 MSTORE PUSH1 0x8 PUSH1 0x20 SWAP1 DUP2 MSTORE PUSH1 0x40 DUP1 DUP4 KECCAK256 DUP13 DUP5 MSTORE DUP3 MSTORE DUP3 KECCAK256 PUSH1 0x5 ADD DUP1 SLOAD PUSH1 0x1 DUP2 ADD DUP3 SSTORE SWAP1 DUP4 MSTORE SWAP2 DUP2 SWAP1 KECCAK256 DUP4 MLOAD DUP1 MLOAD DUP6 SWAP5 PUSH1 0x4 MUL SWAP1 SWAP3 ADD SWAP3 PUSH2 0x827 SWAP3 DUP5 SWAP3 SWAP1 SWAP2 ADD SWAP1 PUSH2 0x51CF JUMP JUMPDEST PUSH1 0x3 DUP6 PUSH1 0x3 DUP2 GT ISZERO PUSH2 0x95E JUMPI PUSH2 0x95E PUSH2 0x5965 JUMP JUMPDEST SUB PUSH2 0x9A9 JUMPI PUSH1 0x0 DUP11 DUP2 MSTORE PUSH1 0x8 PUSH1 0x20 SWAP1 DUP2 MSTORE PUSH1 0x40 DUP1 DUP4 KECCAK256 DUP13 DUP5 MSTORE DUP3 MSTORE DUP3 KECCAK256 PUSH1 0x7 ADD DUP1 SLOAD PUSH1 0x1 DUP2 ADD DUP3 SSTORE SWAP1 DUP4 MSTORE SWAP2 DUP2 SWAP1 KECCAK256 DUP4 MLOAD DUP1 MLOAD DUP6 SWAP5 PUSH1 0x4 MUL SWAP1 SWAP3 ADD SWAP3 PUSH2 0x827 SWAP3 DUP5 SWAP3 SWAP1 SWAP2 ADD SWAP1 PUSH2 0x51CF JUMP JUMPDEST PUSH1 0x40 MLOAD PUSH3 0x461BCD PUSH1 0xE5 SHL DUP2 MSTORE PUSH1 0x20 PUSH1 0x4 DUP3 ADD MSTORE PUSH1 0x17 PUSH1 0x24 DUP3 ADD MSTORE PUSH32 0x496E76616C6964206D65646961206974656D2074797065000000000000000000 PUSH1 0x44 DUP3 ADD MSTORE PUSH1 0x64 ADD PUSH2 0x788 JUMP JUMPDEST POP POP POP POP POP POP POP POP POP POP JUMP JUMPDEST PUSH1 0x0 DUP3 DUP2 MSTORE PUSH1 0x7 PUSH1 0x20 MSTORE PUSH1 0x40 DUP2 KECCAK256 DUP4 SWAP2 DUP1 JUMPDEST PUSH1 0x12 DUP4 ADD SLOAD PUSH1 0xFF DUP3 AND LT ISZERO PUSH2 0xA62 JUMPI DUP3 PUSH1 0x12 ADD DUP2 PUSH1 0xFF AND DUP2 SLOAD DUP2 LT PUSH2 0xA36 JUMPI PUSH2 0xA36 PUSH2 0x5B28 JUMP JUMPDEST PUSH1 0x0 SWAP2 DUP3 MSTORE PUSH1 0x20 SWAP1 SWAP2 KECCAK256 ADD SLOAD PUSH1 0x1 PUSH1 0x1 PUSH1 0xA0 SHL SUB AND CALLER SUB PUSH2 0xA5A JUMPI PUSH1 0x1 SWAP2 POP PUSH2 0xA62 JUMP JUMPDEST PUSH1 0x1 ADD PUSH2 0xA0F JUMP JUMPDEST POP DUP1 PUSH2 0xAC0 JUMPI PUSH1 0x0 JUMPDEST PUSH1 0x13 DUP4 ADD SLOAD PUSH1 0xFF DUP3 AND LT ISZERO PUSH2 0xABE JUMPI DUP3 PUSH1 0x13 ADD DUP2 PUSH1 0xFF AND DUP2 SLOAD DUP2 LT PUSH2 0xA92 JUMPI PUSH2 0xA92 PUSH2 0x5B28 JUMP JUMPDEST PUSH1 0x0 SWAP2 DUP3 MSTORE PUSH1 0x20 SWAP1 SWAP2 KECCAK256 ADD SLOAD PUSH1 0x1 PUSH1 0x1 PUSH1 0xA0 SHL SUB AND CALLER SUB PUSH2 0xAB6 JUMPI PUSH1 0x1 SWAP2 POP PUSH2 0xABE JUMP JUMPDEST PUSH1 0x1 ADD PUSH2 0xA6B JUMP JUMPDEST POP JUMPDEST DUP1 PUSH2 0xB1D JUMPI PUSH1 0x0 JUMPDEST PUSH1 0x4 DUP4 ADD SLOAD PUSH1 0xFF DUP3 AND LT ISZERO PUSH2 0xB1B JUMPI DUP3 PUSH1 0x4 ADD DUP2 PUSH1 0xFF AND DUP2 SLOAD DUP2 LT PUSH2 0xAEF JUMPI PUSH2 0xAEF PUSH2 0x5B28 JUMP JUMPDEST PUSH1 0x0 SWAP2 DUP3 MSTORE PUSH1 0x20 SWAP1 SWAP2 KECCAK256 ADD SLOAD PUSH1 0x1 PUSH1 0x1 PUSH1 0xA0 SHL SUB AND CALLER SUB PUSH2 0xB13 JUMPI PUSH1 0x1 SWAP2 POP PUSH2 0xB1B JUMP JUMPDEST PUSH1 0x1 ADD PUSH2 0xAC8 JUMP JUMPDEST POP JUMPDEST DUP1 PUSH2 0xBA4 JUMPI PUSH1 0x40 MLOAD PUSH3 0x461BCD PUSH1 0xE5 SHL DUP2 MSTORE PUSH1 0x20 PUSH1 0x4 DUP3 ADD MSTORE PUSH1 0x4B PUSH1 0x24 DUP3 ADD MSTORE PUSH32 0x5468697320616374696F6E2063616E206F6E6C7920626520706572666F726D65 PUSH1 0x44 DUP3 ADD MSTORE PUSH32 0x64206279206D656D62657273206F662054686520446F6E6120417070726F7661 PUSH1 0x64 DUP3 ADD MSTORE PUSH11 0x6C20436F6D6D6974746565 PUSH1 0xA8 SHL PUSH1 0x84 DUP3 ADD MSTORE PUSH1 0xA4 ADD PUSH2 0x788 JUMP JUMPDEST PUSH1 0x0 DUP6 DUP2 MSTORE PUSH1 0x8 PUSH1 0x20 SWAP1 DUP2 MSTORE PUSH1 0x40 DUP1 DUP4 KECCAK256 DUP8 DUP5 MSTORE SWAP1 SWAP2 MSTORE SWAP1 KECCAK256 DUP6 SWAP1 DUP6 SWAP1 PUSH1 0x3 PUSH1 0x1 DUP3 ADD SLOAD PUSH1 0xFF AND PUSH1 0x3 DUP2 GT ISZERO PUSH2 0xBDC JUMPI PUSH2 0xBDC PUSH2 0x5965 JUMP JUMPDEST SUB PUSH2 0xC41 JUMPI PUSH1 0x40 MLOAD PUSH3 0x461BCD PUSH1 0xE5 SHL DUP2 MSTORE PUSH1 0x20 PUSH1 0x4 DUP3 ADD MSTORE PUSH1 0x2F PUSH1 0x24 DUP3 ADD MSTORE PUSH32 0x596F752063616E6E6F7420766F7465206F6E20616E20616C7265616479207769 PUSH1 0x44 DUP3 ADD MSTORE PUSH15 0x1D1A191C985DDB881C995C5D595CDD PUSH1 0x8A SHL PUSH1 0x64 DUP3 ADD MSTORE PUSH1 0x84 ADD PUSH2 0x788 JUMP JUMPDEST PUSH1 0x0 DUP1 JUMPDEST PUSH1 0xB DUP4 ADD SLOAD DUP2 LT ISZERO PUSH2 0xCA5 JUMPI CALLER PUSH1 0x1 PUSH1 0x1 PUSH1 0xA0 SHL SUB AND DUP4 PUSH1 0xB ADD DUP3 DUP2 SLOAD DUP2 LT PUSH2 0xC70 JUMPI PUSH2 0xC70 PUSH2 0x5B28 JUMP JUMPDEST PUSH1 0x0 SWAP2 DUP3 MSTORE PUSH1 0x20 SWAP1 SWAP2 KECCAK256 ADD SLOAD PUSH1 0x1 PUSH1 0x1 PUSH1 0xA0 SHL SUB AND SUB PUSH2 0xC93 JUMPI PUSH1 0x1 SWAP2 POP PUSH2 0xCA5 JUMP JUMPDEST DUP1 PUSH2 0xC9D DUP2 PUSH2 0x5B54 JUMP JUMPDEST SWAP2 POP POP PUSH2 0xC45 JUMP JUMPDEST POP PUSH1 0x0 JUMPDEST PUSH1 0xC DUP4 ADD SLOAD DUP2 LT ISZERO PUSH2 0xD09 JUMPI CALLER PUSH1 0x1 PUSH1 0x1 PUSH1 0xA0 SHL SUB AND DUP4 PUSH1 0xC ADD DUP3 DUP2 SLOAD DUP2 LT PUSH2 0xCD4 JUMPI PUSH2 0xCD4 PUSH2 0x5B28 JUMP JUMPDEST PUSH1 0x0 SWAP2 DUP3 MSTORE PUSH1 0x20 SWAP1 SWAP2 KECCAK256 ADD SLOAD PUSH1 0x1 PUSH1 0x1 PUSH1 0xA0 SHL SUB AND SUB PUSH2 0xCF7 JUMPI PUSH1 0x1 SWAP2 POP PUSH2 0xD09 JUMP JUMPDEST DUP1 PUSH2 0xD01 DUP2 PUSH2 0x5B54 JUMP JUMPDEST SWAP2 POP POP PUSH2 0xCA9 JUMP JUMPDEST POP DUP1 ISZERO PUSH2 0xD67 JUMPI PUSH1 0x40 MLOAD PUSH3 0x461BCD PUSH1 0xE5 SHL DUP2 MSTORE PUSH1 0x20 PUSH1 0x4 DUP3 ADD MSTORE PUSH1 0x26 PUSH1 0x24 DUP3 ADD MSTORE PUSH32 0x596F75206861766520616C726561647920766F746564206F6E20746869732072 PUSH1 0x44 DUP3 ADD MSTORE PUSH6 0x195C5D595CDD PUSH1 0xD2 SHL PUSH1 0x64 DUP3 ADD MSTORE PUSH1 0x84 ADD PUSH2 0x788 JUMP JUMPDEST PUSH1 0x0 DUP10 DUP2 MSTORE PUSH1 0x8 PUSH1 0x20 SWAP1 DUP2 MSTORE PUSH1 0x40 DUP1 DUP4 KECCAK256 DUP12 DUP5 MSTORE SWAP1 SWAP2 MSTORE DUP2 KECCAK256 SWAP1 PUSH1 0x1 DUP3 ADD SLOAD PUSH1 0xFF AND PUSH1 0x3 DUP2 GT ISZERO PUSH2 0xD9A JUMPI PUSH2 0xD9A PUSH2 0x5965 JUMP JUMPDEST EQ PUSH2 0xDE7 JUMPI PUSH1 0x40 MLOAD PUSH3 0x461BCD PUSH1 0xE5 SHL DUP2 MSTORE PUSH1 0x20 PUSH1 0x4 DUP3 ADD MSTORE PUSH1 0x12 PUSH1 0x24 DUP3 ADD MSTORE PUSH32 0x52657175657374206973206E6F74206E65770000000000000000000000000000 PUSH1 0x44 DUP3 ADD MSTORE PUSH1 0x64 ADD PUSH2 0x788 JUMP JUMPDEST PUSH1 0xC DUP2 ADD DUP1 SLOAD PUSH1 0x1 DUP2 ADD DUP3 SSTORE PUSH1 0x0 SWAP2 DUP3 MSTORE PUSH1 0x20 DUP3 KECCAK256 ADD DUP1 SLOAD PUSH1 0x1 PUSH1 0x1 PUSH1 0xA0 SHL SUB NOT AND CALLER OR SWAP1 SSTORE PUSH1 0xA DUP3 ADD DUP1 SLOAD SWAP2 PUSH2 0xE1D DUP4 PUSH2 0x5B54 JUMP JUMPDEST SWAP1 SWAP2 SSTORE POP POP PUSH1 0x0 DUP11 DUP2 MSTORE PUSH1 0x7 PUSH1 0x20 MSTORE PUSH1 0x40 DUP2 KECCAK256 PUSH1 0x14 DUP2 ADD SLOAD SWAP1 SWAP2 SWAP1 PUSH2 0xE47 SWAP1 PUSH1 0x2 SWAP1 PUSH1 0xFF AND PUSH2 0x5B83 JUMP JUMPDEST PUSH1 0xFF AND SWAP1 POP DUP1 DUP4 PUSH1 0xA ADD SLOAD GT ISZERO PUSH2 0xE71 JUMPI PUSH1 0x1 DUP1 DUP5 ADD DUP1 SLOAD PUSH1 0x2 SWAP3 PUSH1 0xFF NOT SWAP1 SWAP2 AND SWAP1 DUP4 JUMPDEST MUL OR SWAP1 SSTORE POP JUMPDEST POP POP POP POP POP POP POP POP POP POP POP POP JUMP JUMPDEST PUSH1 0x0 DUP2 PUSH1 0xFF AND PUSH1 0x0 SUB PUSH2 0xEAE JUMPI POP PUSH1 0x0 DUP4 DUP2 MSTORE PUSH1 0x8 PUSH1 0x20 DUP2 DUP2 MSTORE PUSH1 0x40 DUP1 DUP5 KECCAK256 DUP7 DUP6 MSTORE SWAP1 SWAP2 MSTORE SWAP1 SWAP2 KECCAK256 ADD SLOAD PUSH2 0x1017 JUMP JUMPDEST DUP2 PUSH1 0xFF AND PUSH1 0x1 SUB PUSH2 0xF4D JUMPI PUSH1 0x0 DUP5 DUP2 MSTORE PUSH1 0x8 PUSH1 0x20 SWAP1 DUP2 MSTORE PUSH1 0x40 DUP1 DUP4 KECCAK256 DUP7 DUP5 MSTORE SWAP1 SWAP2 MSTORE SWAP1 KECCAK256 PUSH1 0x1 SWAP1 DUP2 ADD SLOAD PUSH1 0xFF AND SWAP1 DUP2 PUSH1 0x3 DUP2 GT ISZERO PUSH2 0xEEE JUMPI PUSH2 0xEEE PUSH2 0x5965 JUMP JUMPDEST SUB PUSH2 0xEFD JUMPI PUSH1 0x1 SWAP2 POP POP PUSH2 0x1017 JUMP JUMPDEST PUSH1 0x2 DUP2 PUSH1 0x3 DUP2 GT ISZERO PUSH2 0xF11 JUMPI PUSH2 0xF11 PUSH2 0x5965 JUMP JUMPDEST SUB PUSH2 0xF20 JUMPI PUSH1 0x2 SWAP2 POP POP PUSH2 0x1017 JUMP JUMPDEST PUSH1 0x3 DUP2 PUSH1 0x3 DUP2 GT ISZERO PUSH2 0xF34 JUMPI PUSH2 0xF34 PUSH2 0x5965 JUMP JUMPDEST SUB PUSH2 0xF43 JUMPI PUSH1 0x3 SWAP2 POP POP PUSH2 0x1017 JUMP JUMPDEST PUSH1 0x0 SWAP2 POP POP PUSH2 0x1017 JUMP JUMPDEST DUP2 PUSH1 0xFF AND PUSH1 0x2 SUB PUSH2 0xF7B JUMPI POP PUSH1 0x0 DUP4 DUP2 MSTORE PUSH1 0x8 PUSH1 0x20 SWAP1 DUP2 MSTORE PUSH1 0x40 DUP1 DUP4 KECCAK256 DUP6 DUP5 MSTORE SWAP1 SWAP2 MSTORE SWAP1 KECCAK256 PUSH1 0x9 ADD SLOAD PUSH2 0x1017 JUMP JUMPDEST DUP2 PUSH1 0xFF AND PUSH1 0x3 SUB PUSH2 0xFA9 JUMPI POP PUSH1 0x0 DUP4 DUP2 MSTORE PUSH1 0x8 PUSH1 0x20 SWAP1 DUP2 MSTORE PUSH1 0x40 DUP1 DUP4 KECCAK256 DUP6 DUP5 MSTORE SWAP1 SWAP2 MSTORE SWAP1 KECCAK256 PUSH1 0xA ADD SLOAD PUSH2 0x1017 JUMP JUMPDEST DUP2 PUSH1 0xFF AND PUSH1 0x4 SUB PUSH2 0xFCF JUMPI POP PUSH1 0x0 DUP4 DUP2 MSTORE PUSH1 0x7 PUSH1 0x20 MSTORE PUSH1 0x40 SWAP1 KECCAK256 PUSH1 0x14 ADD SLOAD PUSH1 0xFF AND PUSH2 0x1017 JUMP JUMPDEST PUSH1 0x40 MLOAD PUSH3 0x461BCD PUSH1 0xE5 SHL DUP2 MSTORE PUSH1 0x20 PUSH1 0x4 DUP3 ADD MSTORE PUSH1 0x14 PUSH1 0x24 DUP3 ADD MSTORE PUSH32 0x496E76616C696420526571756573742054797065000000000000000000000000 PUSH1 0x44 DUP3 ADD MSTORE PUSH1 0x64 ADD PUSH2 0x788 JUMP JUMPDEST SWAP4 SWAP3 POP POP POP JUMP JUMPDEST PUSH1 0x0 DUP3 DUP2 MSTORE PUSH1 0x7 PUSH1 0x20 MSTORE PUSH1 0x40 DUP2 KECCAK256 DUP4 SWAP2 DUP1 JUMPDEST PUSH1 0x12 DUP4 ADD SLOAD PUSH1 0xFF DUP3 AND LT ISZERO PUSH2 0x1083 JUMPI DUP3 PUSH1 0x12 ADD DUP2 PUSH1 0xFF AND DUP2 SLOAD DUP2 LT PUSH2 0x1057 JUMPI PUSH2 0x1057 PUSH2 0x5B28 JUMP JUMPDEST PUSH1 0x0 SWAP2 DUP3 MSTORE PUSH1 0x20 SWAP1 SWAP2 KECCAK256 ADD SLOAD PUSH1 0x1 PUSH1 0x1 PUSH1 0xA0 SHL SUB AND CALLER SUB PUSH2 0x107B JUMPI PUSH1 0x1 SWAP2 POP PUSH2 0x1083 JUMP JUMPDEST PUSH1 0x1 ADD PUSH2 0x1030 JUMP JUMPDEST POP DUP1 PUSH2 0x10E1 JUMPI PUSH1 0x0 JUMPDEST PUSH1 0x13 DUP4 ADD SLOAD PUSH1 0xFF DUP3 AND LT ISZERO PUSH2 0x10DF JUMPI DUP3 PUSH1 0x13 ADD DUP2 PUSH1 0xFF AND DUP2 SLOAD DUP2 LT PUSH2 0x10B3 JUMPI PUSH2 0x10B3 PUSH2 0x5B28 JUMP JUMPDEST PUSH1 0x0 SWAP2 DUP3 MSTORE PUSH1 0x20 SWAP1 SWAP2 KECCAK256 ADD SLOAD PUSH1 0x1 PUSH1 0x1 PUSH1 0xA0 SHL SUB AND CALLER SUB PUSH2 0x10D7 JUMPI PUSH1 0x1 SWAP2 POP PUSH2 0x10DF JUMP JUMPDEST PUSH1 0x1 ADD PUSH2 0x108C JUMP JUMPDEST POP JUMPDEST DUP1 PUSH2 0x113E JUMPI PUSH1 0x0 JUMPDEST PUSH1 0x4 DUP4 ADD SLOAD PUSH1 0xFF DUP3 AND LT ISZERO PUSH2 0x113C JUMPI DUP3 PUSH1 0x4 ADD DUP2 PUSH1 0xFF AND DUP2 SLOAD DUP2 LT PUSH2 0x1110 JUMPI PUSH2 0x1110 PUSH2 0x5B28 JUMP JUMPDEST PUSH1 0x0 SWAP2 DUP3 MSTORE PUSH1 0x20 SWAP1 SWAP2 KECCAK256 ADD SLOAD PUSH1 0x1 PUSH1 0x1 PUSH1 0xA0 SHL SUB AND CALLER SUB PUSH2 0x1134 JUMPI PUSH1 0x1 SWAP2 POP PUSH2 0x113C JUMP JUMPDEST PUSH1 0x1 ADD PUSH2 0x10E9 JUMP JUMPDEST POP JUMPDEST DUP1 PUSH2 0x11C5 JUMPI PUSH1 0x40 MLOAD PUSH3 0x461BCD PUSH1 0xE5 SHL DUP2 MSTORE PUSH1 0x20 PUSH1 0x4 DUP3 ADD MSTORE PUSH1 0x4B PUSH1 0x24 DUP3 ADD MSTORE PUSH32 0x5468697320616374696F6E2063616E206F6E6C7920626520706572666F726D65 PUSH1 0x44 DUP3 ADD MSTORE PUSH32 0x64206279206D656D62657273206F662054686520446F6E6120417070726F7661 PUSH1 0x64 DUP3 ADD MSTORE PUSH11 0x6C20436F6D6D6974746565 PUSH1 0xA8 SHL PUSH1 0x84 DUP3 ADD MSTORE PUSH1 0xA4 ADD PUSH2 0x788 JUMP JUMPDEST PUSH1 0x0 DUP6 DUP2 MSTORE PUSH1 0x8 PUSH1 0x20 SWAP1 DUP2 MSTORE PUSH1 0x40 DUP1 DUP4 KECCAK256 DUP8 DUP5 MSTORE SWAP1 SWAP2 MSTORE SWAP1 KECCAK256 DUP6 SWAP1 DUP6 SWAP1 PUSH1 0x3 PUSH1 0x1 DUP3 ADD SLOAD PUSH1 0xFF AND PUSH1 0x3 DUP2 GT ISZERO PUSH2 0x11FD JUMPI PUSH2 0x11FD PUSH2 0x5965 JUMP JUMPDEST SUB PUSH2 0x1262 JUMPI PUSH1 0x40 MLOAD PUSH3 0x461BCD PUSH1 0xE5 SHL DUP2 MSTORE PUSH1 0x20 PUSH1 0x4 DUP3 ADD MSTORE PUSH1 0x2F PUSH1 0x24 DUP3 ADD MSTORE PUSH32 0x596F752063616E6E6F7420766F7465206F6E20616E20616C7265616479207769 PUSH1 0x44 DUP3 ADD MSTORE PUSH15 0x1D1A191C985DDB881C995C5D595CDD PUSH1 0x8A SHL PUSH1 0x64 DUP3 ADD MSTORE PUSH1 0x84 ADD PUSH2 0x788 JUMP JUMPDEST PUSH1 0x0 DUP1 JUMPDEST PUSH1 0xB DUP4 ADD SLOAD DUP2 LT ISZERO PUSH2 0x12C6 JUMPI CALLER PUSH1 0x1 PUSH1 0x1 PUSH1 0xA0 SHL SUB AND DUP4 PUSH1 0xB ADD DUP3 DUP2 SLOAD DUP2 LT PUSH2 0x1291 JUMPI PUSH2 0x1291 PUSH2 0x5B28 JUMP JUMPDEST PUSH1 0x0 SWAP2 DUP3 MSTORE PUSH1 0x20 SWAP1 SWAP2 KECCAK256 ADD SLOAD PUSH1 0x1 PUSH1 0x1 PUSH1 0xA0 SHL SUB AND SUB PUSH2 0x12B4 JUMPI PUSH1 0x1 SWAP2 POP PUSH2 0x12C6 JUMP JUMPDEST DUP1 PUSH2 0x12BE DUP2 PUSH2 0x5B54 JUMP JUMPDEST SWAP2 POP POP PUSH2 0x1266 JUMP JUMPDEST POP PUSH1 0x0 JUMPDEST PUSH1 0xC DUP4 ADD SLOAD DUP2 LT ISZERO PUSH2 0x132A JUMPI CALLER PUSH1 0x1 PUSH1 0x1 PUSH1 0xA0 SHL SUB AND DUP4 PUSH1 0xC ADD DUP3 DUP2 SLOAD DUP2 LT PUSH2 0x12F5 JUMPI PUSH2 0x12F5 PUSH2 0x5B28 JUMP JUMPDEST PUSH1 0x0 SWAP2 DUP3 MSTORE PUSH1 0x20 SWAP1 SWAP2 KECCAK256 ADD SLOAD PUSH1 0x1 PUSH1 0x1 PUSH1 0xA0 SHL SUB AND SUB PUSH2 0x1318 JUMPI PUSH1 0x1 SWAP2 POP PUSH2 0x132A JUMP JUMPDEST DUP1 PUSH2 0x1322 DUP2 PUSH2 0x5B54 JUMP JUMPDEST SWAP2 POP POP PUSH2 0x12CA JUMP JUMPDEST POP DUP1 ISZERO PUSH2 0x1388 JUMPI PUSH1 0x40 MLOAD PUSH3 0x461BCD PUSH1 0xE5 SHL DUP2 MSTORE PUSH1 0x20 PUSH1 0x4 DUP3 ADD MSTORE PUSH1 0x26 PUSH1 0x24 DUP3 ADD MSTORE PUSH32 0x596F75206861766520616C726561647920766F746564206F6E20746869732072 PUSH1 0x44 DUP3 ADD MSTORE PUSH6 0x195C5D595CDD PUSH1 0xD2 SHL PUSH1 0x64 DUP3 ADD MSTORE PUSH1 0x84 ADD PUSH2 0x788 JUMP JUMPDEST PUSH1 0x0 DUP10 DUP2 MSTORE PUSH1 0x8 PUSH1 0x20 SWAP1 DUP2 MSTORE PUSH1 0x40 DUP1 DUP4 KECCAK256 DUP12 DUP5 MSTORE SWAP1 SWAP2 MSTORE DUP2 KECCAK256 SWAP1 PUSH1 0x1 DUP3 ADD SLOAD PUSH1 0xFF AND PUSH1 0x3 DUP2 GT ISZERO PUSH2 0x13BB JUMPI PUSH2 0x13BB PUSH2 0x5965 JUMP JUMPDEST EQ PUSH2 0x1408 JUMPI PUSH1 0x40 MLOAD PUSH3 0x461BCD PUSH1 0xE5 SHL DUP2 MSTORE PUSH1 0x20 PUSH1 0x4 DUP3 ADD MSTORE PUSH1 0x12 PUSH1 0x24 DUP3 ADD MSTORE PUSH32 0x52657175657374206973206E6F74206E65770000000000000000000000000000 PUSH1 0x44 DUP3 ADD MSTORE PUSH1 0x64 ADD PUSH2 0x788 JUMP JUMPDEST PUSH1 0xB DUP2 ADD DUP1 SLOAD PUSH1 0x1 DUP2 ADD DUP3 SSTORE PUSH1 0x0 SWAP2 DUP3 MSTORE PUSH1 0x20 DUP3 KECCAK256 ADD DUP1 SLOAD PUSH1 0x1 PUSH1 0x1 PUSH1 0xA0 SHL SUB NOT AND CALLER OR SWAP1 SSTORE PUSH1 0x9 DUP3 ADD DUP1 SLOAD SWAP2 PUSH2 0x143E DUP4 PUSH2 0x5B54 JUMP JUMPDEST SWAP1 SWAP2 SSTORE POP POP PUSH1 0x0 DUP11 DUP2 MSTORE PUSH1 0x7 PUSH1 0x20 MSTORE PUSH1 0x40 DUP2 KECCAK256 PUSH1 0x14 DUP2 ADD SLOAD SWAP1 SWAP2 SWAP1 PUSH2 0x1468 SWAP1 PUSH1 0x2 SWAP1 PUSH1 0xFF AND PUSH2 0x5B83 JUMP JUMPDEST PUSH1 0xFF AND SWAP1 POP DUP1 DUP4 PUSH1 0x9 ADD SLOAD GT ISZERO PUSH2 0xE71 JUMPI PUSH1 0x1 DUP4 DUP2 ADD DUP1 SLOAD PUSH1 0xFF NOT AND DUP3 DUP1 PUSH2 0xE6B JUMP JUMPDEST PUSH1 0x0 SLOAD PUSH1 0x1 PUSH1 0x1 PUSH1 0xA0 SHL SUB AND CALLER EQ DUP1 PUSH2 0x14EC JUMPI PUSH1 0x0 JUMPDEST PUSH1 0x1 SLOAD DUP2 LT ISZERO PUSH2 0x14EA JUMPI PUSH1 0x1 DUP2 DUP2 SLOAD DUP2 LT PUSH2 0x14BE JUMPI PUSH2 0x14BE PUSH2 0x5B28 JUMP JUMPDEST PUSH1 0x0 SWAP2 DUP3 MSTORE PUSH1 0x20 SWAP1 SWAP2 KECCAK256 ADD SLOAD PUSH1 0x1 PUSH1 0x1 PUSH1 0xA0 SHL SUB AND CALLER SUB PUSH2 0x14E2 JUMPI PUSH1 0x1 SWAP2 POP PUSH2 0x14EA JUMP JUMPDEST PUSH1 0x1 ADD PUSH2 0x14A1 JUMP JUMPDEST POP JUMPDEST DUP1 PUSH2 0x154C JUMPI PUSH1 0x40 MLOAD PUSH3 0x461BCD PUSH1 0xE5 SHL DUP2 MSTORE PUSH1 0x20 PUSH1 0x4 DUP3 ADD MSTORE PUSH1 0x2A PUSH1 0x24 DUP3 ADD MSTORE PUSH32 0x4F6E6C79206F776E6572206F722073746166662063616E2063616C6C20746869 PUSH1 0x44 DUP3 ADD MSTORE PUSH10 0x3990333AB731BA34B7B7 PUSH1 0xB1 SHL PUSH1 0x64 DUP3 ADD MSTORE PUSH1 0x84 ADD PUSH2 0x788 JUMP JUMPDEST PUSH1 0x0 DUP3 DUP2 MSTORE PUSH1 0x7 PUSH1 0x20 MSTORE PUSH1 0x40 SWAP1 KECCAK256 PUSH1 0xC DUP2 ADD SLOAD DUP4 SWAP2 SWAP1 PUSH1 0xFF AND ISZERO PUSH2 0x15B2 JUMPI PUSH1 0x40 MLOAD PUSH3 0x461BCD PUSH1 0xE5 SHL DUP2 MSTORE PUSH1 0x20 PUSH1 0x4 DUP3 ADD MSTORE PUSH1 0x1C PUSH1 0x24 DUP3 ADD MSTORE PUSH32 0x50726F6A65637420697320616C726561647920417070726F7665642100000000 PUSH1 0x44 DUP3 ADD MSTORE PUSH1 0x64 ADD PUSH2 0x788 JUMP JUMPDEST PUSH1 0x0 DUP5 DUP2 MSTORE PUSH1 0x7 PUSH1 0x20 MSTORE PUSH1 0x40 DUP2 KECCAK256 PUSH1 0xC DUP2 ADD DUP1 SLOAD PUSH1 0xFF NOT AND PUSH1 0x1 OR SWAP1 SSTORE SWAP1 JUMPDEST PUSH1 0x6 SLOAD DUP2 LT ISZERO PUSH2 0x1687 JUMPI DUP6 PUSH1 0x6 DUP3 DUP2 SLOAD DUP2 LT PUSH2 0x15EF JUMPI PUSH2 0x15EF PUSH2 0x5B28 JUMP JUMPDEST SWAP1 PUSH1 0x0 MSTORE PUSH1 0x20 PUSH1 0x0 KECCAK256 ADD SLOAD SUB PUSH2 0x1675 JUMPI PUSH1 0x6 DUP1 SLOAD PUSH2 0x160F SWAP1 PUSH1 0x1 SWAP1 PUSH2 0x5BA5 JUMP JUMPDEST DUP2 SLOAD DUP2 LT PUSH2 0x161F JUMPI PUSH2 0x161F PUSH2 0x5B28 JUMP JUMPDEST SWAP1 PUSH1 0x0 MSTORE PUSH1 0x20 PUSH1 0x0 KECCAK256 ADD SLOAD PUSH1 0x6 DUP3 DUP2 SLOAD DUP2 LT PUSH2 0x163D JUMPI PUSH2 0x163D PUSH2 0x5B28 JUMP JUMPDEST PUSH1 0x0 SWAP2 DUP3 MSTORE PUSH1 0x20 SWAP1 SWAP2 KECCAK256 ADD SSTORE PUSH1 0x6 DUP1 SLOAD DUP1 PUSH2 0x165A JUMPI PUSH2 0x165A PUSH2 0x5BBC JUMP JUMPDEST PUSH1 0x1 SWAP1 SUB DUP2 DUP2 SWAP1 PUSH1 0x0 MSTORE PUSH1 0x20 PUSH1 0x0 KECCAK256 ADD PUSH1 0x0 SWAP1 SSTORE SWAP1 SSTORE PUSH2 0x1687 JUMP JUMPDEST DUP1 PUSH2 0x167F DUP2 PUSH2 0x5B54 JUMP JUMPDEST SWAP2 POP POP PUSH2 0x15D1 JUMP JUMPDEST POP PUSH1 0x40 MLOAD DUP6 SWAP1 PUSH32 0x5382406121492E13EB8B00A0122012025548DBD3B07F9B3184C26DB775732B22 SWAP1 PUSH1 0x0 SWAP1 LOG2 POP POP POP POP POP JUMP JUMPDEST PUSH1 0x0 DUP2 PUSH1 0xFF AND PUSH1 0x0 SUB PUSH2 0x16DC JUMPI POP PUSH1 0x0 DUP3 DUP2 MSTORE PUSH1 0x7 PUSH1 0x20 MSTORE PUSH1 0x40 SWAP1 KECCAK256 SLOAD PUSH2 0x1863 JUMP JUMPDEST DUP2 PUSH1 0xFF AND PUSH1 0x1 SUB PUSH2 0x1711 JUMPI PUSH1 0x0 DUP4 DUP2 MSTORE PUSH1 0x7 PUSH1 0x20 MSTORE PUSH1 0x40 SWAP1 KECCAK256 PUSH1 0xC ADD SLOAD PUSH1 0xFF AND ISZERO PUSH2 0x1709 JUMPI POP PUSH1 0x1 PUSH2 0x1863 JUMP JUMPDEST POP PUSH1 0x0 PUSH2 0x1863 JUMP JUMPDEST DUP2 PUSH1 0xFF AND PUSH1 0x2 SUB PUSH2 0x1743 JUMPI PUSH1 0x0 DUP4 DUP2 MSTORE PUSH1 0x7 PUSH1 0x20 MSTORE PUSH1 0x40 SWAP1 KECCAK256 PUSH1 0xC ADD SLOAD PUSH2 0x100 SWAP1 DIV PUSH1 0xFF AND ISZERO PUSH2 0x1709 JUMPI POP PUSH1 0x1 PUSH2 0x1863 JUMP JUMPDEST DUP2 PUSH1 0xFF AND PUSH1 0x3 SUB PUSH2 0x1766 JUMPI POP PUSH1 0x0 DUP3 DUP2 MSTORE PUSH1 0x7 PUSH1 0x20 MSTORE PUSH1 0x40 SWAP1 KECCAK256 PUSH1 0x5 ADD SLOAD PUSH2 0x1863 JUMP JUMPDEST DUP2 PUSH1 0xFF AND PUSH1 0x4 SUB PUSH2 0x1789 JUMPI POP PUSH1 0x0 DUP3 DUP2 MSTORE PUSH1 0x7 PUSH1 0x20 MSTORE PUSH1 0x40 SWAP1 KECCAK256 PUSH1 0xF ADD SLOAD PUSH2 0x1863 JUMP JUMPDEST DUP2 PUSH1 0xFF AND PUSH1 0x5 SUB PUSH2 0x17AC JUMPI POP PUSH1 0x0 DUP3 DUP2 MSTORE PUSH1 0x7 PUSH1 0x20 MSTORE PUSH1 0x40 SWAP1 KECCAK256 PUSH1 0x10 ADD SLOAD PUSH2 0x1863 JUMP JUMPDEST DUP2 PUSH1 0xFF AND PUSH1 0x6 SUB PUSH2 0x17CF JUMPI POP PUSH1 0x0 DUP3 DUP2 MSTORE PUSH1 0x7 PUSH1 0x20 MSTORE PUSH1 0x40 SWAP1 KECCAK256 PUSH1 0xE ADD SLOAD PUSH2 0x1863 JUMP JUMPDEST DUP2 PUSH1 0xFF AND PUSH1 0x7 SUB PUSH2 0x17F2 JUMPI POP PUSH1 0x0 DUP3 DUP2 MSTORE PUSH1 0x7 PUSH1 0x20 MSTORE PUSH1 0x40 SWAP1 KECCAK256 PUSH1 0x6 ADD SLOAD PUSH2 0x1863 JUMP JUMPDEST DUP2 PUSH1 0xFF AND PUSH1 0x8 SUB PUSH2 0x1816 JUMPI POP PUSH1 0x0 DUP3 DUP2 MSTORE PUSH1 0x7 PUSH1 0x20 DUP2 SWAP1 MSTORE PUSH1 0x40 SWAP1 SWAP2 KECCAK256 ADD SLOAD PUSH2 0x1863 JUMP JUMPDEST DUP2 PUSH1 0xFF AND PUSH1 0x9 SUB PUSH2 0x1839 JUMPI POP PUSH1 0x0 DUP3 DUP2 MSTORE PUSH1 0x7 PUSH1 0x20 MSTORE PUSH1 0x40 SWAP1 KECCAK256 PUSH1 0xD ADD SLOAD PUSH2 0x1863 JUMP JUMPDEST DUP2 PUSH1 0xFF AND PUSH1 0xA SUB PUSH2 0xFCF JUMPI POP PUSH1 0x0 DUP3 DUP2 MSTORE PUSH1 0x7 PUSH1 0x20 SWAP1 DUP2 MSTORE PUSH1 0x40 DUP1 DUP4 KECCAK256 CALLER DUP5 MSTORE PUSH1 0x11 ADD SWAP1 SWAP2 MSTORE SWAP1 KECCAK256 SLOAD JUMPDEST SWAP3 SWAP2 POP POP JUMP JUMPDEST PUSH1 0x2 SLOAD PUSH1 0x0 SWAP1 DUP2 MSTORE PUSH1 0x7 PUSH1 0x20 MSTORE PUSH1 0x40 SWAP1 KECCAK256 PUSH1 0x1 DUP1 DUP3 ADD DUP1 SLOAD DUP11 SWAP3 PUSH1 0xFF NOT SWAP1 SWAP2 AND SWAP1 DUP4 DUP2 DUP2 GT ISZERO PUSH2 0x189B JUMPI PUSH2 0x189B PUSH2 0x5965 JUMP JUMPDEST MUL OR SWAP1 SSTORE POP DUP7 MLOAD PUSH2 0x18B5 SWAP1 PUSH1 0x2 DUP4 ADD SWAP1 PUSH1 0x20 DUP11 ADD SWAP1 PUSH2 0x51CF JUMP JUMPDEST POP DUP6 MLOAD PUSH2 0x18CB SWAP1 PUSH1 0x3 DUP4 ADD SWAP1 PUSH1 0x20 DUP10 ADD SWAP1 PUSH2 0x51CF JUMP JUMPDEST POP PUSH1 0x0 DUP1 JUMPDEST DUP7 MLOAD DUP2 LT ISZERO PUSH2 0x1926 JUMPI CALLER PUSH1 0x1 PUSH1 0x1 PUSH1 0xA0 SHL SUB AND DUP8 DUP3 DUP2 MLOAD DUP2 LT PUSH2 0x18F5 JUMPI PUSH2 0x18F5 PUSH2 0x5B28 JUMP JUMPDEST PUSH1 0x20 MUL PUSH1 0x20 ADD ADD MLOAD PUSH1 0x1 PUSH1 0x1 PUSH1 0xA0 SHL SUB AND SUB PUSH2 0x1914 JUMPI PUSH1 0x1 SWAP2 POP PUSH2 0x1926 JUMP JUMPDEST DUP1 PUSH2 0x191E DUP2 PUSH2 0x5B54 JUMP JUMPDEST SWAP2 POP POP PUSH2 0x18D0 JUMP JUMPDEST POP DUP1 PUSH2 0x1A29 JUMPI PUSH1 0x0 DUP7 MLOAD PUSH1 0x1 PUSH2 0x193C SWAP2 SWAP1 PUSH2 0x5BD2 JUMP JUMPDEST PUSH8 0xFFFFFFFFFFFFFFFF DUP2 GT ISZERO PUSH2 0x1954 JUMPI PUSH2 0x1954 PUSH2 0x5375 JUMP JUMPDEST PUSH1 0x40 MLOAD SWAP1 DUP1 DUP3 MSTORE DUP1 PUSH1 0x20 MUL PUSH1 0x20 ADD DUP3 ADD PUSH1 0x40 MSTORE DUP1 ISZERO PUSH2 0x197D JUMPI DUP2 PUSH1 0x20 ADD PUSH1 0x20 DUP3 MUL DUP1 CALLDATASIZE DUP4 CALLDATACOPY ADD SWAP1 POP JUMPDEST POP SWAP1 POP PUSH1 0x0 JUMPDEST DUP8 MLOAD DUP2 LT ISZERO PUSH2 0x19E2 JUMPI DUP8 DUP2 DUP2 MLOAD DUP2 LT PUSH2 0x199E JUMPI PUSH2 0x199E PUSH2 0x5B28 JUMP JUMPDEST PUSH1 0x20 MUL PUSH1 0x20 ADD ADD MLOAD DUP3 DUP3 DUP2 MLOAD DUP2 LT PUSH2 0x19B8 JUMPI PUSH2 0x19B8 PUSH2 0x5B28 JUMP JUMPDEST PUSH1 0x1 PUSH1 0x1 PUSH1 0xA0 SHL SUB SWAP1 SWAP3 AND PUSH1 0x20 SWAP3 DUP4 MUL SWAP2 SWAP1 SWAP2 ADD SWAP1 SWAP2 ADD MSTORE DUP1 PUSH2 0x19DA DUP2 PUSH2 0x5B54 JUMP JUMPDEST SWAP2 POP POP PUSH2 0x1983 JUMP JUMPDEST POP CALLER DUP2 DUP9 MLOAD DUP2 MLOAD DUP2 LT PUSH2 0x19F7 JUMPI PUSH2 0x19F7 PUSH2 0x5B28 JUMP JUMPDEST PUSH1 0x1 PUSH1 0x1 PUSH1 0xA0 SHL SUB SWAP1 SWAP3 AND PUSH1 0x20 SWAP3 DUP4 MUL SWAP2 SWAP1 SWAP2 ADD DUP3 ADD MSTORE DUP2 MLOAD PUSH2 0x1A22 SWAP2 PUSH1 0x4 DUP7 ADD SWAP2 SWAP1 DUP5 ADD SWAP1 PUSH2 0x5253 JUMP JUMPDEST POP POP PUSH2 0x1A40 JUMP JUMPDEST DUP6 MLOAD PUSH2 0x1A3E SWAP1 PUSH1 0x4 DUP5 ADD SWAP1 PUSH1 0x20 DUP10 ADD SWAP1 PUSH2 0x5253 JUMP JUMPDEST POP JUMPDEST PUSH1 0x2 SLOAD DUP3 SSTORE PUSH1 0x5 DUP3 ADD DUP6 SWAP1 SSTORE PUSH1 0x6 DUP3 ADD DUP5 SWAP1 SSTORE PUSH1 0x7 DUP3 ADD DUP4 SWAP1 SSTORE PUSH1 0xC DUP3 ADD DUP1 SLOAD PUSH2 0xFFFF NOT AND SWAP1 SSTORE PUSH1 0x0 PUSH1 0xF DUP4 ADD DUP2 SWAP1 SSTORE PUSH1 0x10 DUP4 ADD DUP2 SWAP1 SSTORE PUSH1 0x3 DUP1 SLOAD DUP8 SWAP3 SWAP1 PUSH2 0x1A89 SWAP1 DUP5 SWAP1 PUSH2 0x5BD2 JUMP JUMPDEST SWAP1 SWAP2 SSTORE POP PUSH1 0x0 SWAP1 POP JUMPDEST PUSH1 0x4 DUP4 ADD SLOAD DUP2 LT ISZERO PUSH2 0x1B5C JUMPI PUSH1 0x9 PUSH1 0x0 DUP5 PUSH1 0x4 ADD DUP4 DUP2 SLOAD DUP2 LT PUSH2 0x1AB7 JUMPI PUSH2 0x1AB7 PUSH2 0x5B28 JUMP JUMPDEST PUSH1 0x0 SWAP2 DUP3 MSTORE PUSH1 0x20 DUP1 DUP4 KECCAK256 SWAP1 SWAP2 ADD SLOAD PUSH1 0x1 PUSH1 0x1 PUSH1 0xA0 SHL SUB AND DUP4 MSTORE DUP3 DUP2 ADD SWAP4 SWAP1 SWAP4 MSTORE PUSH1 0x40 SWAP1 SWAP2 ADD DUP2 KECCAK256 PUSH1 0x2 SLOAD DUP2 SLOAD PUSH1 0x1 DUP2 ADD DUP4 SSTORE SWAP2 DUP4 MSTORE SWAP3 DUP3 KECCAK256 ADD SWAP2 SWAP1 SWAP2 SSTORE PUSH1 0x4 DUP5 ADD DUP1 SLOAD PUSH1 0xA SWAP3 SWAP2 SWAP1 DUP5 SWAP1 DUP2 LT PUSH2 0x1B0F JUMPI PUSH2 0x1B0F PUSH2 0x5B28 JUMP JUMPDEST PUSH1 0x0 SWAP2 DUP3 MSTORE PUSH1 0x20 DUP1 DUP4 KECCAK256 SWAP1 SWAP2 ADD SLOAD PUSH1 0x1 PUSH1 0x1 PUSH1 0xA0 SHL SUB AND DUP4 MSTORE DUP3 DUP2 ADD SWAP4 SWAP1 SWAP4 MSTORE PUSH1 0x40 SWAP1 SWAP2 ADD DUP2 KECCAK256 PUSH1 0x2 SLOAD DUP2 SLOAD PUSH1 0x1 DUP2 ADD DUP4 SSTORE SWAP2 DUP4 MSTORE SWAP3 SWAP1 SWAP2 KECCAK256 ADD SSTORE DUP1 PUSH2 0x1B54 DUP2 PUSH2 0x5B54 JUMP JUMPDEST SWAP2 POP POP PUSH2 0x1A92 JUMP JUMPDEST POP PUSH1 0x2 SLOAD PUSH1 0x6 DUP1 SLOAD PUSH1 0x1 DUP2 DUP2 ADD DUP4 SSTORE PUSH1 0x0 SWAP3 SWAP1 SWAP3 MSTORE PUSH32 0xF652222313E28459528D920B65115C16C04F3EFC82AAEDC97BE59F3F377C0D3F ADD DUP3 SWAP1 SSTORE PUSH2 0x1BA0 SWAP2 SWAP1 PUSH2 0x5BD2 JUMP JUMPDEST PUSH1 0x2 SSTORE POP POP POP POP POP POP POP POP POP JUMP JUMPDEST PUSH1 0x0 DUP6 DUP2 MSTORE PUSH1 0x7 PUSH1 0x20 MSTORE PUSH1 0x40 DUP2 KECCAK256 DUP7 SWAP2 DUP1 JUMPDEST PUSH1 0x4 DUP4 ADD SLOAD PUSH1 0xFF DUP3 AND LT ISZERO PUSH2 0x1C13 JUMPI DUP3 PUSH1 0x4 ADD DUP2 PUSH1 0xFF AND DUP2 SLOAD DUP2 LT PUSH2 0x1BE7 JUMPI PUSH2 0x1BE7 PUSH2 0x5B28 JUMP JUMPDEST PUSH1 0x0 SWAP2 DUP3 MSTORE PUSH1 0x20 SWAP1 SWAP2 KECCAK256 ADD SLOAD PUSH1 0x1 PUSH1 0x1 PUSH1 0xA0 SHL SUB AND CALLER SUB PUSH2 0x1C0B JUMPI PUSH1 0x1 SWAP2 POP PUSH2 0x1C13 JUMP JUMPDEST PUSH1 0x1 ADD PUSH2 0x1BC0 JUMP JUMPDEST POP DUP1 PUSH2 0x1C87 JUMPI PUSH1 0x40 MLOAD PUSH3 0x461BCD PUSH1 0xE5 SHL DUP2 MSTORE PUSH1 0x20 PUSH1 0x4 DUP3 ADD MSTORE PUSH1 0x3D PUSH1 0x24 DUP3 ADD MSTORE PUSH32 0x54686520616374696F6E2063616E206F6E6C7920626520706572666F726D6564 PUSH1 0x44 DUP3 ADD MSTORE PUSH32 0x206279206F7267616E697A657273206F66207468652070726F6A656374000000 PUSH1 0x64 DUP3 ADD MSTORE PUSH1 0x84 ADD PUSH2 0x788 JUMP JUMPDEST PUSH1 0x0 PUSH1 0x40 MLOAD DUP1 PUSH1 0x80 ADD PUSH1 0x40 MSTORE DUP1 DUP10 DUP2 MSTORE PUSH1 0x20 ADD DUP9 DUP2 MSTORE PUSH1 0x20 ADD DUP7 PUSH1 0x3 DUP2 GT ISZERO PUSH2 0x1CB2 JUMPI PUSH2 0x1CB2 PUSH2 0x5965 JUMP JUMPDEST DUP2 MSTORE PUSH1 0x20 ADD DUP8 SWAP1 MSTORE SWAP1 POP PUSH1 0x0 DUP6 PUSH1 0x3 DUP2 GT ISZERO PUSH2 0x1CD0 JUMPI PUSH2 0x1CD0 PUSH2 0x5965 JUMP JUMPDEST SUB PUSH2 0x1D78 JUMPI PUSH1 0x0 DUP10 DUP2 MSTORE PUSH1 0x7 PUSH1 0x20 SWAP1 DUP2 MSTORE PUSH1 0x40 DUP3 KECCAK256 PUSH1 0x8 ADD DUP1 SLOAD PUSH1 0x1 DUP2 ADD DUP3 SSTORE SWAP1 DUP4 MSTORE SWAP2 DUP2 SWAP1 KECCAK256 DUP4 MLOAD DUP1 MLOAD DUP6 SWAP5 PUSH1 0x4 MUL SWAP1 SWAP3 ADD SWAP3 PUSH2 0x1D13 SWAP3 DUP5 SWAP3 SWAP1 SWAP2 ADD SWAP1 PUSH2 0x51CF JUMP JUMPDEST POP PUSH1 0x20 DUP3 DUP2 ADD MLOAD DUP1 MLOAD PUSH2 0x1D2C SWAP3 PUSH1 0x1 DUP6 ADD SWAP3 ADD SWAP1 PUSH2 0x51CF JUMP JUMPDEST POP PUSH1 0x40 DUP3 ADD MLOAD PUSH1 0x2 DUP3 ADD DUP1 SLOAD PUSH1 0xFF NOT AND PUSH1 0x1 DUP4 PUSH1 0x3 DUP2 GT ISZERO PUSH2 0x1D50 JUMPI PUSH2 0x1D50 PUSH2 0x5965 JUMP JUMPDEST MUL OR SWAP1 SSTORE POP PUSH1 0x60 DUP3 ADD MLOAD DUP1 MLOAD PUSH2 0x1D70 SWAP2 PUSH1 0x3 DUP5 ADD SWAP2 PUSH1 0x20 SWAP1 SWAP2 ADD SWAP1 PUSH2 0x51CF JUMP JUMPDEST POP POP POP PUSH2 0x1E7D JUMP JUMPDEST PUSH1 0x2 DUP6 PUSH1 0x3 DUP2 GT ISZERO PUSH2 0x1D8C JUMPI PUSH2 0x1D8C PUSH2 0x5965 JUMP JUMPDEST SUB PUSH2 0x1DCF JUMPI PUSH1 0x0 DUP10 DUP2 MSTORE PUSH1 0x7 PUSH1 0x20 SWAP1 DUP2 MSTORE PUSH1 0x40 DUP3 KECCAK256 PUSH1 0xA ADD DUP1 SLOAD PUSH1 0x1 DUP2 ADD DUP3 SSTORE SWAP1 DUP4 MSTORE SWAP2 DUP2 SWAP1 KECCAK256 DUP4 MLOAD DUP1 MLOAD DUP6 SWAP5 PUSH1 0x4 MUL SWAP1 SWAP3 ADD SWAP3 PUSH2 0x1D13 SWAP3 DUP5 SWAP3 SWAP1 SWAP2 ADD SWAP1 PUSH2 0x51CF JUMP JUMPDEST PUSH1 0x1 DUP6 PUSH1 0x3 DUP2 GT ISZERO PUSH2 0x1DE3 JUMPI PUSH2 0x1DE3 PUSH2 0x5965 JUMP JUMPDEST SUB PUSH2 0x1E26 JUMPI PUSH1 0x0 DUP10 DUP2 MSTORE PUSH1 0x7 PUSH1 0x20 SWAP1 DUP2 MSTORE PUSH1 0x40 DUP3 KECCAK256 PUSH1 0x9 ADD DUP1 SLOAD PUSH1 0x1 DUP2 ADD DUP3 SSTORE SWAP1 DUP4 MSTORE SWAP2 DUP2 SWAP1 KECCAK256 DUP4 MLOAD DUP1 MLOAD DUP6 SWAP5 PUSH1 0x4 MUL SWAP1 SWAP3 ADD SWAP3 PUSH2 0x1D13 SWAP3 DUP5 SWAP3 SWAP1 SWAP2 ADD SWAP1 PUSH2 0x51CF JUMP JUMPDEST PUSH1 0x3 DUP6 PUSH1 0x3 DUP2 GT ISZERO PUSH2 0x1E3A JUMPI PUSH2 0x1E3A PUSH2 0x5965 JUMP JUMPDEST SUB PUSH2 0x9A9 JUMPI PUSH1 0x0 DUP10 DUP2 MSTORE PUSH1 0x7 PUSH1 0x20 SWAP1 DUP2 MSTORE PUSH1 0x40 DUP3 KECCAK256 PUSH1 0xB ADD DUP1 SLOAD PUSH1 0x1 DUP2 ADD DUP3 SSTORE SWAP1 DUP4 MSTORE SWAP2 DUP2 SWAP1 KECCAK256 DUP4 MLOAD DUP1 MLOAD DUP6 SWAP5 PUSH1 0x4 MUL SWAP1 SWAP3 ADD SWAP3 PUSH2 0x1D13 SWAP3 DUP5 SWAP3 SWAP1 SWAP2 ADD SWAP1 PUSH2 0x51CF JUMP JUMPDEST POP POP POP POP POP POP POP POP POP JUMP JUMPDEST PUSH1 0x60 PUSH1 0x6 DUP1 SLOAD DUP1 PUSH1 0x20 MUL PUSH1 0x20 ADD PUSH1 0x40 MLOAD SWAP1 DUP2 ADD PUSH1 0x40 MSTORE DUP1 SWAP3 SWAP2 SWAP1 DUP2 DUP2 MSTORE PUSH1 0x20 ADD DUP3 DUP1 SLOAD DUP1 ISZERO PUSH2 0x1ED6 JUMPI PUSH1 0x20 MUL DUP3 ADD SWAP2 SWAP1 PUSH1 0x0 MSTORE PUSH1 0x20 PUSH1 0x0 KECCAK256 SWAP1 JUMPDEST DUP2 SLOAD DUP2 MSTORE PUSH1 0x20 ADD SWAP1 PUSH1 0x1 ADD SWAP1 DUP1 DUP4 GT PUSH2 0x1EC2 JUMPI JUMPDEST POP POP POP POP POP SWAP1 POP SWAP1 JUMP JUMPDEST PUSH1 0x0 SLOAD PUSH1 0x1 PUSH1 0x1 PUSH1 0xA0 SHL SUB AND CALLER EQ DUP1 PUSH2 0x1F41 JUMPI PUSH1 0x0 JUMPDEST PUSH1 0x1 SLOAD DUP2 LT ISZERO PUSH2 0x1F3F JUMPI PUSH1 0x1 DUP2 DUP2 SLOAD DUP2 LT PUSH2 0x1F13 JUMPI PUSH2 0x1F13 PUSH2 0x5B28 JUMP JUMPDEST PUSH1 0x0 SWAP2 DUP3 MSTORE PUSH1 0x20 SWAP1 SWAP2 KECCAK256 ADD SLOAD PUSH1 0x1 PUSH1 0x1 PUSH1 0xA0 SHL SUB AND CALLER SUB PUSH2 0x1F37 JUMPI PUSH1 0x1 SWAP2 POP PUSH2 0x1F3F JUMP JUMPDEST PUSH1 0x1 ADD PUSH2 0x1EF6 JUMP JUMPDEST POP JUMPDEST DUP1 PUSH2 0x1FA1 JUMPI PUSH1 0x40 MLOAD PUSH3 0x461BCD PUSH1 0xE5 SHL DUP2 MSTORE PUSH1 0x20 PUSH1 0x4 DUP3 ADD MSTORE PUSH1 0x2A PUSH1 0x24 DUP3 ADD MSTORE PUSH32 0x4F6E6C79206F776E6572206F722073746166662063616E2063616C6C20746869 PUSH1 0x44 DUP3 ADD MSTORE PUSH10 0x3990333AB731BA34B7B7 PUSH1 0xB1 SHL PUSH1 0x64 DUP3 ADD MSTORE PUSH1 0x84 ADD PUSH2 0x788 JUMP JUMPDEST PUSH1 0x0 DUP1 DUP4 PUSH1 0x3 DUP2 GT ISZERO PUSH2 0x1FB6 JUMPI PUSH2 0x1FB6 PUSH2 0x5965 JUMP JUMPDEST SUB PUSH2 0x1FDD JUMPI POP PUSH1 0x0 DUP6 DUP2 MSTORE PUSH1 0x8 PUSH1 0x20 SWAP1 DUP2 MSTORE PUSH1 0x40 DUP1 DUP4 KECCAK256 DUP8 DUP5 MSTORE SWAP1 SWAP2 MSTORE SWAP1 KECCAK256 PUSH1 0x4 ADD PUSH2 0x208A JUMP JUMPDEST PUSH1 0x2 DUP4 PUSH1 0x3 DUP2 GT ISZERO PUSH2 0x1FF1 JUMPI PUSH2 0x1FF1 PUSH2 0x5965 JUMP JUMPDEST SUB PUSH2 0x2018 JUMPI POP PUSH1 0x0 DUP6 DUP2 MSTORE PUSH1 0x8 PUSH1 0x20 SWAP1 DUP2 MSTORE PUSH1 0x40 DUP1 DUP4 KECCAK256 DUP8 DUP5 MSTORE SWAP1 SWAP2 MSTORE SWAP1 KECCAK256 PUSH1 0x6 ADD PUSH2 0x208A JUMP JUMPDEST PUSH1 0x1 DUP4 PUSH1 0x3 DUP2 GT ISZERO PUSH2 0x202C JUMPI PUSH2 0x202C PUSH2 0x5965 JUMP JUMPDEST SUB PUSH2 0x2053 JUMPI POP PUSH1 0x0 DUP6 DUP2 MSTORE PUSH1 0x8 PUSH1 0x20 SWAP1 DUP2 MSTORE PUSH1 0x40 DUP1 DUP4 KECCAK256 DUP8 DUP5 MSTORE SWAP1 SWAP2 MSTORE SWAP1 KECCAK256 PUSH1 0x5 ADD PUSH2 0x208A JUMP JUMPDEST PUSH1 0x3 DUP4 PUSH1 0x3 DUP2 GT ISZERO PUSH2 0x2067 JUMPI PUSH2 0x2067 PUSH2 0x5965 JUMP JUMPDEST SUB PUSH2 0x9A9 JUMPI POP PUSH1 0x0 DUP6 DUP2 MSTORE PUSH1 0x8 PUSH1 0x20 SWAP1 DUP2 MSTORE PUSH1 0x40 DUP1 DUP4 KECCAK256 DUP8 DUP5 MSTORE SWAP1 SWAP2 MSTORE SWAP1 KECCAK256 PUSH1 0x7 ADD JUMPDEST DUP1 SLOAD DUP5 LT PUSH2 0x20DA JUMPI PUSH1 0x40 MLOAD PUSH3 0x461BCD PUSH1 0xE5 SHL DUP2 MSTORE PUSH1 0x20 PUSH1 0x4 DUP3 ADD MSTORE PUSH1 0x18 PUSH1 0x24 DUP3 ADD MSTORE PUSH32 0x496E76616C6964204D65646961204974656D20496E6465780000000000000000 PUSH1 0x44 DUP3 ADD MSTORE PUSH1 0x64 ADD PUSH2 0x788 JUMP JUMPDEST DUP1 SLOAD DUP2 SWAP1 PUSH2 0x20EA SWAP1 PUSH1 0x1 SWAP1 PUSH2 0x5BA5 JUMP JUMPDEST DUP2 SLOAD DUP2 LT PUSH2 0x20FA JUMPI PUSH2 0x20FA PUSH2 0x5B28 JUMP JUMPDEST SWAP1 PUSH1 0x0 MSTORE PUSH1 0x20 PUSH1 0x0 KECCAK256 SWAP1 PUSH1 0x4 MUL ADD DUP2 DUP6 DUP2 SLOAD DUP2 LT PUSH2 0x211A JUMPI PUSH2 0x211A PUSH2 0x5B28 JUMP JUMPDEST SWAP1 PUSH1 0x0 MSTORE PUSH1 0x20 PUSH1 0x0 KECCAK256 SWAP1 PUSH1 0x4 MUL ADD PUSH1 0x0 DUP3 ADD DUP2 PUSH1 0x0 ADD SWAP1 DUP1 SLOAD PUSH2 0x213C SWAP1 PUSH2 0x5BEA JUMP JUMPDEST PUSH2 0x2147 SWAP3 SWAP2 SWAP1 PUSH2 0x52A8 JUMP JUMPDEST POP PUSH1 0x1 DUP3 ADD DUP2 PUSH1 0x1 ADD SWAP1 DUP1 SLOAD PUSH2 0x215C SWAP1 PUSH2 0x5BEA JUMP JUMPDEST PUSH2 0x2167 SWAP3 SWAP2 SWAP1 PUSH2 0x52A8 JUMP JUMPDEST POP PUSH1 0x2 DUP3 DUP2 ADD SLOAD SWAP1 DUP3 ADD DUP1 SLOAD PUSH1 0xFF SWAP1 SWAP3 AND SWAP2 PUSH1 0xFF NOT AND PUSH1 0x1 DUP4 PUSH1 0x3 DUP2 GT ISZERO PUSH2 0x2191 JUMPI PUSH2 0x2191 PUSH2 0x5965 JUMP JUMPDEST MUL OR SWAP1 SSTORE POP PUSH1 0x3 DUP3 ADD DUP2 PUSH1 0x3 ADD SWAP1 DUP1 SLOAD PUSH2 0x21AA SWAP1 PUSH2 0x5BEA JUMP JUMPDEST PUSH2 0x21B5 SWAP3 SWAP2 SWAP1 PUSH2 0x52A8 JUMP JUMPDEST POP SWAP1 POP POP DUP1 DUP1 SLOAD DUP1 PUSH2 0x21C9 JUMPI PUSH2 0x21C9 PUSH2 0x5BBC JUMP JUMPDEST PUSH1 0x0 DUP3 DUP2 MSTORE PUSH1 0x20 DUP2 KECCAK256 PUSH1 0x0 NOT SWAP1 SWAP3 ADD SWAP2 PUSH1 0x4 DUP4 MUL ADD SWAP1 PUSH2 0x21E9 DUP3 DUP3 PUSH2 0x5323 JUMP JUMPDEST PUSH2 0x21F7 PUSH1 0x1 DUP4 ADD PUSH1 0x0 PUSH2 0x5323 JUMP JUMPDEST PUSH1 0x2 DUP3 ADD DUP1 SLOAD PUSH1 0xFF NOT AND SWAP1 SSTORE PUSH2 0x2211 PUSH1 0x3 DUP4 ADD PUSH1 0x0 PUSH2 0x5323 JUMP JUMPDEST POP POP SWAP1 SSTORE POP POP POP POP POP POP JUMP JUMPDEST PUSH1 0x60 DUP2 PUSH1 0xFF AND PUSH1 0x0 SUB PUSH2 0x22D6 JUMPI PUSH1 0x0 DUP5 DUP2 MSTORE PUSH1 0x8 PUSH1 0x20 SWAP1 DUP2 MSTORE PUSH1 0x40 DUP1 DUP4 KECCAK256 DUP7 DUP5 MSTORE SWAP1 SWAP2 MSTORE SWAP1 KECCAK256 PUSH1 0x2 ADD DUP1 SLOAD PUSH2 0x2251 SWAP1 PUSH2 0x5BEA JUMP JUMPDEST DUP1 PUSH1 0x1F ADD PUSH1 0x20 DUP1 SWAP2 DIV MUL PUSH1 0x20 ADD PUSH1 0x40 MLOAD SWAP1 DUP2 ADD PUSH1 0x40 MSTORE DUP1 SWAP3 SWAP2 SWAP1 DUP2 DUP2 MSTORE PUSH1 0x20 ADD DUP3 DUP1 SLOAD PUSH2 0x227D SWAP1 PUSH2 0x5BEA JUMP JUMPDEST DUP1 ISZERO PUSH2 0x22CA JUMPI DUP1 PUSH1 0x1F LT PUSH2 0x229F JUMPI PUSH2 0x100 DUP1 DUP4 SLOAD DIV MUL DUP4 MSTORE SWAP2 PUSH1 0x20 ADD SWAP2 PUSH2 0x22CA JUMP JUMPDEST DUP3 ADD SWAP2 SWAP1 PUSH1 0x0 MSTORE PUSH1 0x20 PUSH1 0x0 KECCAK256 SWAP1 JUMPDEST DUP2 SLOAD DUP2 MSTORE SWAP1 PUSH1 0x1 ADD SWAP1 PUSH1 0x20 ADD DUP1 DUP4 GT PUSH2 0x22AD JUMPI DUP3 SWAP1 SUB PUSH1 0x1F AND DUP3 ADD SWAP2 JUMPDEST POP POP POP POP POP SWAP1 POP PUSH2 0x1017 JUMP JUMPDEST DUP2 PUSH1 0xFF AND PUSH1 0x1 SUB PUSH2 0xFCF JUMPI PUSH1 0x0 DUP5 DUP2 MSTORE PUSH1 0x8 PUSH1 0x20 SWAP1 DUP2 MSTORE PUSH1 0x40 DUP1 DUP4 KECCAK256 DUP7 DUP5 MSTORE SWAP1 SWAP2 MSTORE SWAP1 KECCAK256 PUSH1 0x3 ADD DUP1 SLOAD PUSH2 0x2251 SWAP1 PUSH2 0x5BEA JUMP JUMPDEST PUSH1 0x0 DUP8 DUP2 MSTORE PUSH1 0x7 PUSH1 0x20 MSTORE PUSH1 0x40 DUP2 KECCAK256 DUP9 SWAP2 DUP1 JUMPDEST PUSH1 0x4 DUP4 ADD SLOAD PUSH1 0xFF DUP3 AND LT ISZERO PUSH2 0x236D JUMPI DUP3 PUSH1 0x4 ADD DUP2 PUSH1 0xFF AND DUP2 SLOAD DUP2 LT PUSH2 0x2341 JUMPI PUSH2 0x2341 PUSH2 0x5B28 JUMP JUMPDEST PUSH1 0x0 SWAP2 DUP3 MSTORE PUSH1 0x20 SWAP1 SWAP2 KECCAK256 ADD SLOAD PUSH1 0x1 PUSH1 0x1 PUSH1 0xA0 SHL SUB AND CALLER SUB PUSH2 0x2365 JUMPI PUSH1 0x1 SWAP2 POP PUSH2 0x236D JUMP JUMPDEST PUSH1 0x1 ADD PUSH2 0x231A JUMP JUMPDEST POP DUP1 PUSH2 0x23E1 JUMPI PUSH1 0x40 MLOAD PUSH3 0x461BCD PUSH1 0xE5 SHL DUP2 MSTORE PUSH1 0x20 PUSH1 0x4 DUP3 ADD MSTORE PUSH1 0x3D PUSH1 0x24 DUP3 ADD MSTORE PUSH32 0x54686520616374696F6E2063616E206F6E6C7920626520706572666F726D6564 PUSH1 0x44 DUP3 ADD MSTORE PUSH32 0x206279206F7267616E697A657273206F66207468652070726F6A656374000000 PUSH1 0x64 DUP3 ADD MSTORE PUSH1 0x84 ADD PUSH2 0x788 JUMP JUMPDEST PUSH1 0x0 DUP1 DUP6 PUSH1 0x3 DUP2 GT ISZERO PUSH2 0x23F6 JUMPI PUSH2 0x23F6 PUSH2 0x5965 JUMP JUMPDEST SUB PUSH2 0x241D JUMPI POP PUSH1 0x0 DUP11 DUP2 MSTORE PUSH1 0x8 PUSH1 0x20 SWAP1 DUP2 MSTORE PUSH1 0x40 DUP1 DUP4 KECCAK256 DUP13 DUP5 MSTORE SWAP1 SWAP2 MSTORE SWAP1 KECCAK256 PUSH1 0x4 ADD PUSH2 0x24CA JUMP JUMPDEST PUSH1 0x2 DUP6 PUSH1 0x3 DUP2 GT ISZERO PUSH2 0x2431 JUMPI PUSH2 0x2431 PUSH2 0x5965 JUMP JUMPDEST SUB PUSH2 0x2458 JUMPI POP PUSH1 0x0 DUP11 DUP2 MSTORE PUSH1 0x8 PUSH1 0x20 SWAP1 DUP2 MSTORE PUSH1 0x40 DUP1 DUP4 KECCAK256 DUP13 DUP5 MSTORE SWAP1 SWAP2 MSTORE SWAP1 KECCAK256 PUSH1 0x6 ADD PUSH2 0x24CA JUMP JUMPDEST PUSH1 0x1 DUP6 PUSH1 0x3 DUP2 GT ISZERO PUSH2 0x246C JUMPI PUSH2 0x246C PUSH2 0x5965 JUMP JUMPDEST SUB PUSH2 0x2493 JUMPI POP PUSH1 0x0 DUP11 DUP2 MSTORE PUSH1 0x8 PUSH1 0x20 SWAP1 DUP2 MSTORE PUSH1 0x40 DUP1 DUP4 KECCAK256 DUP13 DUP5 MSTORE SWAP1 SWAP2 MSTORE SWAP1 KECCAK256 PUSH1 0x5 ADD PUSH2 0x24CA JUMP JUMPDEST PUSH1 0x3 DUP6 PUSH1 0x3 DUP2 GT ISZERO PUSH2 0x24A7 JUMPI PUSH2 0x24A7 PUSH2 0x5965 JUMP JUMPDEST SUB PUSH2 0x9A9 JUMPI POP PUSH1 0x0 DUP11 DUP2 MSTORE PUSH1 0x8 PUSH1 0x20 SWAP1 DUP2 MSTORE PUSH1 0x40 DUP1 DUP4 KECCAK256 DUP13 DUP5 MSTORE SWAP1 SWAP2 MSTORE SWAP1 KECCAK256 PUSH1 0x7 ADD JUMPDEST DUP1 SLOAD DUP10 LT PUSH2 0x251A JUMPI PUSH1 0x40 MLOAD PUSH3 0x461BCD PUSH1 0xE5 SHL DUP2 MSTORE PUSH1 0x20 PUSH1 0x4 DUP3 ADD MSTORE PUSH1 0x18 PUSH1 0x24 DUP3 ADD MSTORE PUSH32 0x496E76616C6964204D65646961204974656D20496E6465780000000000000000 PUSH1 0x44 DUP3 ADD MSTORE PUSH1 0x64 ADD PUSH2 0x788 JUMP JUMPDEST PUSH1 0x0 DUP2 DUP11 DUP2 SLOAD DUP2 LT PUSH2 0x252E JUMPI PUSH2 0x252E PUSH2 0x5B28 JUMP JUMPDEST PUSH1 0x0 SWAP2 DUP3 MSTORE PUSH1 0x20 SWAP2 DUP3 SWAP1 KECCAK256 DUP12 MLOAD PUSH1 0x4 SWAP1 SWAP3 MUL ADD SWAP3 POP PUSH2 0x2552 SWAP2 DUP4 SWAP2 SWAP1 DUP13 ADD SWAP1 PUSH2 0x51CF JUMP JUMPDEST POP DUP8 MLOAD PUSH2 0x2568 SWAP1 PUSH1 0x1 DUP4 ADD SWAP1 PUSH1 0x20 DUP12 ADD SWAP1 PUSH2 0x51CF JUMP JUMPDEST POP DUP7 MLOAD PUSH2 0x257E SWAP1 PUSH1 0x3 DUP4 ADD SWAP1 PUSH1 0x20 DUP11 ADD SWAP1 PUSH2 0x51CF JUMP JUMPDEST POP POP POP POP POP POP POP POP POP POP POP POP POP JUMP JUMPDEST PUSH1 0x0 DUP2 DUP2 MSTORE PUSH1 0x7 PUSH1 0x20 MSTORE PUSH1 0x40 DUP1 DUP3 KECCAK256 DUP3 SLOAD SWAP2 MLOAD SWAP1 SWAP3 PUSH1 0x1 PUSH1 0x1 PUSH1 0xA0 SHL SUB SWAP1 SWAP3 AND SWAP2 CALLVALUE DUP1 ISZERO PUSH2 0x8FC MUL SWAP3 SWAP1 SWAP2 DUP2 DUP2 DUP2 DUP6 DUP9 DUP9 CALL SWAP4 POP POP POP POP ISZERO DUP1 ISZERO PUSH2 0x25D5 JUMPI RETURNDATASIZE PUSH1 0x0 DUP1 RETURNDATACOPY RETURNDATASIZE PUSH1 0x0 REVERT JUMPDEST POP PUSH1 0xE DUP2 ADD DUP1 SLOAD PUSH1 0x1 DUP2 ADD DUP3 SSTORE PUSH1 0x0 SWAP2 DUP3 MSTORE PUSH1 0x20 DUP3 KECCAK256 ADD DUP1 SLOAD PUSH1 0x1 PUSH1 0x1 PUSH1 0xA0 SHL SUB NOT AND CALLER OR SWAP1 SSTORE PUSH1 0xF DUP3 ADD DUP1 SLOAD CALLVALUE SWAP3 SWAP1 PUSH2 0x2610 SWAP1 DUP5 SWAP1 PUSH2 0x5BD2 JUMP JUMPDEST SWAP1 SWAP2 SSTORE POP POP CALLER PUSH1 0x0 SWAP1 DUP2 MSTORE PUSH1 0x11 DUP3 ADD PUSH1 0x20 MSTORE PUSH1 0x40 DUP2 KECCAK256 DUP1 SLOAD CALLVALUE SWAP3 SWAP1 PUSH2 0x2636 SWAP1 DUP5 SWAP1 PUSH2 0x5BD2 JUMP JUMPDEST SWAP3 POP POP DUP2 SWAP1 SSTORE POP CALLVALUE PUSH1 0x4 PUSH1 0x0 DUP3 DUP3 SLOAD PUSH2 0x264F SWAP2 SWAP1 PUSH2 0x5BD2 JUMP JUMPDEST SWAP1 SWAP2 SSTORE POP POP PUSH1 0x40 DUP1 MLOAD CALLER DUP2 MSTORE CALLVALUE PUSH1 0x20 DUP3 ADD MSTORE DUP4 SWAP2 PUSH32 0xE555DA28BDB778F65D22794D88927EBAECA03F7DE9D1B7D39245BC8FB5CA078A SWAP2 ADD PUSH1 0x40 MLOAD DUP1 SWAP2 SUB SWAP1 LOG2 POP POP JUMP JUMPDEST PUSH1 0x60 PUSH1 0x0 DUP3 PUSH1 0x3 DUP2 GT ISZERO PUSH2 0x26A8 JUMPI PUSH2 0x26A8 PUSH2 0x5965 JUMP JUMPDEST SUB PUSH2 0x28FF JUMPI PUSH1 0x0 DUP4 DUP2 MSTORE PUSH1 0x7 PUSH1 0x20 SWAP1 DUP2 MSTORE PUSH1 0x40 DUP1 DUP4 KECCAK256 PUSH1 0x8 ADD DUP1 SLOAD DUP3 MLOAD DUP2 DUP6 MUL DUP2 ADD DUP6 ADD SWAP1 SWAP4 MSTORE DUP1 DUP4 MSTORE SWAP2 SWAP4 SWAP1 SWAP3 DUP5 ADD JUMPDEST DUP3 DUP3 LT ISZERO PUSH2 0x28F4 JUMPI DUP4 DUP3 SWAP1 PUSH1 0x0 MSTORE PUSH1 0x20 PUSH1 0x0 KECCAK256 SWAP1 PUSH1 0x4 MUL ADD PUSH1 0x40 MLOAD DUP1 PUSH1 0x80 ADD PUSH1 0x40 MSTORE SWAP1 DUP2 PUSH1 0x0 DUP3 ADD DUP1 SLOAD PUSH2 0x270C SWAP1 PUSH2 0x5BEA JUMP JUMPDEST DUP1 PUSH1 0x1F ADD PUSH1 0x20 DUP1 SWAP2 DIV MUL PUSH1 0x20 ADD PUSH1 0x40 MLOAD SWAP1 DUP2 ADD PUSH1 0x40 MSTORE DUP1 SWAP3 SWAP2 SWAP1 DUP2 DUP2 MSTORE PUSH1 0x20 ADD DUP3 DUP1 SLOAD PUSH2 0x2738 SWAP1 PUSH2 0x5BEA JUMP JUMPDEST DUP1 ISZERO PUSH2 0x2785 JUMPI DUP1 PUSH1 0x1F LT PUSH2 0x275A JUMPI PUSH2 0x100 DUP1 DUP4 SLOAD DIV MUL DUP4 MSTORE SWAP2 PUSH1 0x20 ADD SWAP2 PUSH2 0x2785 JUMP JUMPDEST DUP3 ADD SWAP2 SWAP1 PUSH1 0x0 MSTORE PUSH1 0x20 PUSH1 0x0 KECCAK256 SWAP1 JUMPDEST DUP2 SLOAD DUP2 MSTORE SWAP1 PUSH1 0x1 ADD SWAP1 PUSH1 0x20 ADD DUP1 DUP4 GT PUSH2 0x2768 JUMPI DUP3 SWAP1 SUB PUSH1 0x1F AND DUP3 ADD SWAP2 JUMPDEST POP POP POP POP POP DUP2 MSTORE PUSH1 0x20 ADD PUSH1 0x1 DUP3 ADD DUP1 SLOAD PUSH2 0x279E SWAP1 PUSH2 0x5BEA JUMP JUMPDEST DUP1 PUSH1 0x1F ADD PUSH1 0x20 DUP1 SWAP2 DIV MUL PUSH1 0x20 ADD PUSH1 0x40 MLOAD SWAP1 DUP2 ADD PUSH1 0x40 MSTORE DUP1 SWAP3 SWAP2 SWAP1 DUP2 DUP2 MSTORE PUSH1 0x20 ADD DUP3 DUP1 SLOAD PUSH2 0x27CA SWAP1 PUSH2 0x5BEA JUMP JUMPDEST DUP1 ISZERO PUSH2 0x2817 JUMPI DUP1 PUSH1 0x1F LT PUSH2 0x27EC JUMPI PUSH2 0x100 DUP1 DUP4 SLOAD DIV MUL DUP4 MSTORE SWAP2 PUSH1 0x20 ADD SWAP2 PUSH2 0x2817 JUMP JUMPDEST DUP3 ADD SWAP2 SWAP1 PUSH1 0x0 MSTORE PUSH1 0x20 PUSH1 0x0 KECCAK256 SWAP1 JUMPDEST DUP2 SLOAD DUP2 MSTORE SWAP1 PUSH1 0x1 ADD SWAP1 PUSH1 0x20 ADD DUP1 DUP4 GT PUSH2 0x27FA JUMPI DUP3 SWAP1 SUB PUSH1 0x1F AND DUP3 ADD SWAP2 JUMPDEST POP POP POP SWAP2 DUP4 MSTORE POP POP PUSH1 0x2 DUP3 ADD SLOAD PUSH1 0x20 SWAP1 SWAP2 ADD SWAP1 PUSH1 0xFF AND PUSH1 0x3 DUP2 GT ISZERO PUSH2 0x283E JUMPI PUSH2 0x283E PUSH2 0x5965 JUMP JUMPDEST PUSH1 0x3 DUP2 GT ISZERO PUSH2 0x284F JUMPI PUSH2 0x284F PUSH2 0x5965 JUMP JUMPDEST DUP2 MSTORE PUSH1 0x20 ADD PUSH1 0x3 DUP3 ADD DUP1 SLOAD PUSH2 0x2863 SWAP1 PUSH2 0x5BEA JUMP JUMPDEST DUP1 PUSH1 0x1F ADD PUSH1 0x20 DUP1 SWAP2 DIV MUL PUSH1 0x20 ADD PUSH1 0x40 MLOAD SWAP1 DUP2 ADD PUSH1 0x40 MSTORE DUP1 SWAP3 SWAP2 SWAP1 DUP2 DUP2 MSTORE PUSH1 0x20 ADD DUP3 DUP1 SLOAD PUSH2 0x288F SWAP1 PUSH2 0x5BEA JUMP JUMPDEST DUP1 ISZERO PUSH2 0x28DC JUMPI DUP1 PUSH1 0x1F LT PUSH2 0x28B1 JUMPI PUSH2 0x100 DUP1 DUP4 SLOAD DIV MUL DUP4 MSTORE SWAP2 PUSH1 0x20 ADD SWAP2 PUSH2 0x28DC JUMP JUMPDEST DUP3 ADD SWAP2 SWAP1 PUSH1 0x0 MSTORE PUSH1 0x20 PUSH1 0x0 KECCAK256 SWAP1 JUMPDEST DUP2 SLOAD DUP2 MSTORE SWAP1 PUSH1 0x1 ADD SWAP1 PUSH1 0x20 ADD DUP1 DUP4 GT PUSH2 0x28BF JUMPI DUP3 SWAP1 SUB PUSH1 0x1F AND DUP3 ADD SWAP2 JUMPDEST POP POP POP POP POP DUP2 MSTORE POP POP DUP2 MSTORE PUSH1 0x20 ADD SWAP1 PUSH1 0x1 ADD SWAP1 PUSH2 0x26D9 JUMP JUMPDEST POP POP POP POP SWAP1 POP PUSH2 0x1863 JUMP JUMPDEST PUSH1 0x2 DUP3 PUSH1 0x3 DUP2 GT ISZERO PUSH2 0x2913 JUMPI PUSH2 0x2913 PUSH2 0x5965 JUMP JUMPDEST SUB PUSH2 0x2B5F JUMPI PUSH1 0x0 DUP4 DUP2 MSTORE PUSH1 0x7 PUSH1 0x20 SWAP1 DUP2 MSTORE PUSH1 0x40 DUP1 DUP4 KECCAK256 PUSH1 0xA ADD DUP1 SLOAD DUP3 MLOAD DUP2 DUP6 MUL DUP2 ADD DUP6 ADD SWAP1 SWAP4 MSTORE DUP1 DUP4 MSTORE SWAP2 SWAP4 SWAP1 SWAP3 DUP5 ADD JUMPDEST DUP3 DUP3 LT ISZERO PUSH2 0x28F4 JUMPI DUP4 DUP3 SWAP1 PUSH1 0x0 MSTORE PUSH1 0x20 PUSH1 0x0 KECCAK256 SWAP1 PUSH1 0x4 MUL ADD PUSH1 0x40 MLOAD DUP1 PUSH1 0x80 ADD PUSH1 0x40 MSTORE SWAP1 DUP2 PUSH1 0x0 DUP3 ADD DUP1 SLOAD PUSH2 0x2977 SWAP1 PUSH2 0x5BEA JUMP JUMPDEST DUP1 PUSH1 0x1F ADD PUSH1 0x20 DUP1 SWAP2 DIV MUL PUSH1 0x20 ADD PUSH1 0x40 MLOAD SWAP1 DUP2 ADD PUSH1 0x40 MSTORE DUP1 SWAP3 SWAP2 SWAP1 DUP2 DUP2 MSTORE PUSH1 0x20 ADD DUP3 DUP1 SLOAD PUSH2 0x29A3 SWAP1 PUSH2 0x5BEA JUMP JUMPDEST DUP1 ISZERO PUSH2 0x29F0 JUMPI DUP1 PUSH1 0x1F LT PUSH2 0x29C5 JUMPI PUSH2 0x100 DUP1 DUP4 SLOAD DIV MUL DUP4 MSTORE SWAP2 PUSH1 0x20 ADD SWAP2 PUSH2 0x29F0 JUMP JUMPDEST DUP3 ADD SWAP2 SWAP1 PUSH1 0x0 MSTORE PUSH1 0x20 PUSH1 0x0 KECCAK256 SWAP1 JUMPDEST DUP2 SLOAD DUP2 MSTORE SWAP1 PUSH1 0x1 ADD SWAP1 PUSH1 0x20 ADD DUP1 DUP4 GT PUSH2 0x29D3 JUMPI DUP3 SWAP1 SUB PUSH1 0x1F AND DUP3 ADD SWAP2 JUMPDEST POP POP POP POP POP DUP2 MSTORE PUSH1 0x20 ADD PUSH1 0x1 DUP3 ADD DUP1 SLOAD PUSH2 0x2A09 SWAP1 PUSH2 0x5BEA JUMP JUMPDEST DUP1 PUSH1 0x1F ADD PUSH1 0x20 DUP1 SWAP2 DIV MUL PUSH1 0x20 ADD PUSH1 0x40 MLOAD SWAP1 DUP2 ADD PUSH1 0x40 MSTORE DUP1 SWAP3 SWAP2 SWAP1 DUP2 DUP2 MSTORE PUSH1 0x20 ADD DUP3 DUP1 SLOAD PUSH2 0x2A35 SWAP1 PUSH2 0x5BEA JUMP JUMPDEST DUP1 ISZERO PUSH2 0x2A82 JUMPI DUP1 PUSH1 0x1F LT PUSH2 0x2A57 JUMPI PUSH2 0x100 DUP1 DUP4 SLOAD DIV MUL DUP4 MSTORE SWAP2 PUSH1 0x20 ADD SWAP2 PUSH2 0x2A82 JUMP JUMPDEST DUP3 ADD SWAP2 SWAP1 PUSH1 0x0 MSTORE PUSH1 0x20 PUSH1 0x0 KECCAK256 SWAP1 JUMPDEST DUP2 SLOAD DUP2 MSTORE SWAP1 PUSH1 0x1 ADD SWAP1 PUSH1 0x20 ADD DUP1 DUP4 GT PUSH2 0x2A65 JUMPI DUP3 SWAP1 SUB PUSH1 0x1F AND DUP3 ADD SWAP2 JUMPDEST POP POP POP SWAP2 DUP4 MSTORE POP POP PUSH1 0x2 DUP3 ADD SLOAD PUSH1 0x20 SWAP1 SWAP2 ADD SWAP1 PUSH1 0xFF AND PUSH1 0x3 DUP2 GT ISZERO PUSH2 0x2AA9 JUMPI PUSH2 0x2AA9 PUSH2 0x5965 JUMP JUMPDEST PUSH1 0x3 DUP2 GT ISZERO PUSH2 0x2ABA JUMPI PUSH2 0x2ABA PUSH2 0x5965 JUMP JUMPDEST DUP2 MSTORE PUSH1 0x20 ADD PUSH1 0x3 DUP3 ADD DUP1 SLOAD PUSH2 0x2ACE SWAP1 PUSH2 0x5BEA JUMP JUMPDEST DUP1 PUSH1 0x1F ADD PUSH1 0x20 DUP1 SWAP2 DIV MUL PUSH1 0x20 ADD PUSH1 0x40 MLOAD SWAP1 DUP2 ADD PUSH1 0x40 MSTORE DUP1 SWAP3 SWAP2 SWAP1 DUP2 DUP2 MSTORE PUSH1 0x20 ADD DUP3 DUP1 SLOAD PUSH2 0x2AFA SWAP1 PUSH2 0x5BEA JUMP JUMPDEST DUP1 ISZERO PUSH2 0x2B47 JUMPI DUP1 PUSH1 0x1F LT PUSH2 0x2B1C JUMPI PUSH2 0x100 DUP1 DUP4 SLOAD DIV MUL DUP4 MSTORE SWAP2 PUSH1 0x20 ADD SWAP2 PUSH2 0x2B47 JUMP JUMPDEST DUP3 ADD SWAP2 SWAP1 PUSH1 0x0 MSTORE PUSH1 0x20 PUSH1 0x0 KECCAK256 SWAP1 JUMPDEST DUP2 SLOAD DUP2 MSTORE SWAP1 PUSH1 0x1 ADD SWAP1 PUSH1 0x20 ADD DUP1 DUP4 GT PUSH2 0x2B2A JUMPI DUP3 SWAP1 SUB PUSH1 0x1F AND DUP3 ADD SWAP2 JUMPDEST POP POP POP POP POP DUP2 MSTORE POP POP DUP2 MSTORE PUSH1 0x20 ADD SWAP1 PUSH1 0x1 ADD SWAP1 PUSH2 0x2944 JUMP JUMPDEST PUSH1 0x1 DUP3 PUSH1 0x3 DUP2 GT ISZERO PUSH2 0x2B73 JUMPI PUSH2 0x2B73 PUSH2 0x5965 JUMP JUMPDEST SUB PUSH2 0x2DBF JUMPI PUSH1 0x0 DUP4 DUP2 MSTORE PUSH1 0x7 PUSH1 0x20 SWAP1 DUP2 MSTORE PUSH1 0x40 DUP1 DUP4 KECCAK256 PUSH1 0x9 ADD DUP1 SLOAD DUP3 MLOAD DUP2 DUP6 MUL DUP2 ADD DUP6 ADD SWAP1 SWAP4 MSTORE DUP1 DUP4 MSTORE SWAP2 SWAP4 SWAP1 SWAP3 DUP5 ADD JUMPDEST DUP3 DUP3 LT ISZERO PUSH2 0x28F4 JUMPI DUP4 DUP3 SWAP1 PUSH1 0x0 MSTORE PUSH1 0x20 PUSH1 0x0 KECCAK256 SWAP1 PUSH1 0x4 MUL ADD PUSH1 0x40 MLOAD DUP1 PUSH1 0x80 ADD PUSH1 0x40 MSTORE SWAP1 DUP2 PUSH1 0x0 DUP3 ADD DUP1 SLOAD PUSH2 0x2BD7 SWAP1 PUSH2 0x5BEA JUMP JUMPDEST DUP1 PUSH1 0x1F ADD PUSH1 0x20 DUP1 SWAP2 DIV MUL PUSH1 0x20 ADD PUSH1 0x40 MLOAD SWAP1 DUP2 ADD PUSH1 0x40 MSTORE DUP1 SWAP3 SWAP2 SWAP1 DUP2 DUP2 MSTORE PUSH1 0x20 ADD DUP3 DUP1 SLOAD PUSH2 0x2C03 SWAP1 PUSH2 0x5BEA JUMP JUMPDEST DUP1 ISZERO PUSH2 0x2C50 JUMPI DUP1 PUSH1 0x1F LT PUSH2 0x2C25 JUMPI PUSH2 0x100 DUP1 DUP4 SLOAD DIV MUL DUP4 MSTORE SWAP2 PUSH1 0x20 ADD SWAP2 PUSH2 0x2C50 JUMP JUMPDEST DUP3 ADD SWAP2 SWAP1 PUSH1 0x0 MSTORE PUSH1 0x20 PUSH1 0x0 KECCAK256 SWAP1 JUMPDEST DUP2 SLOAD DUP2 MSTORE SWAP1 PUSH1 0x1 ADD SWAP1 PUSH1 0x20 ADD DUP1 DUP4 GT PUSH2 0x2C33 JUMPI DUP3 SWAP1 SUB PUSH1 0x1F AND DUP3 ADD SWAP2 JUMPDEST POP POP POP POP POP DUP2 MSTORE PUSH1 0x20 ADD PUSH1 0x1 DUP3 ADD DUP1 SLOAD PUSH2 0x2C69 SWAP1 PUSH2 0x5BEA JUMP JUMPDEST DUP1 PUSH1 0x1F ADD PUSH1 0x20 DUP1 SWAP2 DIV MUL PUSH1 0x20 ADD PUSH1 0x40 MLOAD SWAP1 DUP2 ADD PUSH1 0x40 MSTORE DUP1 SWAP3 SWAP2 SWAP1 DUP2 DUP2 MSTORE PUSH1 0x20 ADD DUP3 DUP1 SLOAD PUSH2 0x2C95 SWAP1 PUSH2 0x5BEA JUMP JUMPDEST DUP1 ISZERO PUSH2 0x2CE2 JUMPI DUP1 PUSH1 0x1F LT PUSH2 0x2CB7 JUMPI PUSH2 0x100 DUP1 DUP4 SLOAD DIV MUL DUP4 MSTORE SWAP2 PUSH1 0x20 ADD SWAP2 PUSH2 0x2CE2 JUMP JUMPDEST DUP3 ADD SWAP2 SWAP1 PUSH1 0x0 MSTORE PUSH1 0x20 PUSH1 0x0 KECCAK256 SWAP1 JUMPDEST DUP2 SLOAD DUP2 MSTORE SWAP1 PUSH1 0x1 ADD SWAP1 PUSH1 0x20 ADD DUP1 DUP4 GT PUSH2 0x2CC5 JUMPI DUP3 SWAP1 SUB PUSH1 0x1F AND DUP3 ADD SWAP2 JUMPDEST POP POP POP SWAP2 DUP4 MSTORE POP POP PUSH1 0x2 DUP3 ADD SLOAD PUSH1 0x20 SWAP1 SWAP2 ADD SWAP1 PUSH1 0xFF AND PUSH1 0x3 DUP2 GT ISZERO PUSH2 0x2D09 JUMPI PUSH2 0x2D09 PUSH2 0x5965 JUMP JUMPDEST PUSH1 0x3 DUP2 GT ISZERO PUSH2 0x2D1A JUMPI PUSH2 0x2D1A PUSH2 0x5965 JUMP JUMPDEST DUP2 MSTORE PUSH1 0x20 ADD PUSH1 0x3 DUP3 ADD DUP1 SLOAD PUSH2 0x2D2E SWAP1 PUSH2 0x5BEA JUMP JUMPDEST DUP1 PUSH1 0x1F ADD PUSH1 0x20 DUP1 SWAP2 DIV MUL PUSH1 0x20 ADD PUSH1 0x40 MLOAD SWAP1 DUP2 ADD PUSH1 0x40 MSTORE DUP1 SWAP3 SWAP2 SWAP1 DUP2 DUP2 MSTORE PUSH1 0x20 ADD DUP3 DUP1 SLOAD PUSH2 0x2D5A SWAP1 PUSH2 0x5BEA JUMP JUMPDEST DUP1 ISZERO PUSH2 0x2DA7 JUMPI DUP1 PUSH1 0x1F LT PUSH2 0x2D7C JUMPI PUSH2 0x100 DUP1 DUP4 SLOAD DIV MUL DUP4 MSTORE SWAP2 PUSH1 0x20 ADD SWAP2 PUSH2 0x2DA7 JUMP JUMPDEST DUP3 ADD SWAP2 SWAP1 PUSH1 0x0 MSTORE PUSH1 0x20 PUSH1 0x0 KECCAK256 SWAP1 JUMPDEST DUP2 SLOAD DUP2 MSTORE SWAP1 PUSH1 0x1 ADD SWAP1 PUSH1 0x20 ADD DUP1 DUP4 GT PUSH2 0x2D8A JUMPI DUP3 SWAP1 SUB PUSH1 0x1F AND DUP3 ADD SWAP2 JUMPDEST POP POP POP POP POP DUP2 MSTORE POP POP DUP2 MSTORE PUSH1 0x20 ADD SWAP1 PUSH1 0x1 ADD SWAP1 PUSH2 0x2BA4 JUMP JUMPDEST PUSH1 0x3 DUP3 PUSH1 0x3 DUP2 GT ISZERO PUSH2 0x2DD3 JUMPI PUSH2 0x2DD3 PUSH2 0x5965 JUMP JUMPDEST SUB PUSH2 0x9A9 JUMPI PUSH1 0x0 DUP4 DUP2 MSTORE PUSH1 0x7 PUSH1 0x20 SWAP1 DUP2 MSTORE PUSH1 0x40 DUP1 DUP4 KECCAK256 PUSH1 0xB ADD DUP1 SLOAD DUP3 MLOAD DUP2 DUP6 MUL DUP2 ADD DUP6 ADD SWAP1 SWAP4 MSTORE DUP1 DUP4 MSTORE SWAP2 SWAP4 SWAP1 SWAP3 DUP5 ADD JUMPDEST DUP3 DUP3 LT ISZERO PUSH2 0x28F4 JUMPI DUP4 DUP3 SWAP1 PUSH1 0x0 MSTORE PUSH1 0x20 PUSH1 0x0 KECCAK256 SWAP1 PUSH1 0x4 MUL ADD PUSH1 0x40 MLOAD DUP1 PUSH1 0x80 ADD PUSH1 0x40 MSTORE SWAP1 DUP2 PUSH1 0x0 DUP3 ADD DUP1 SLOAD PUSH2 0x2E37 SWAP1 PUSH2 0x5BEA JUMP JUMPDEST DUP1 PUSH1 0x1F ADD PUSH1 0x20 DUP1 SWAP2 DIV MUL PUSH1 0x20 ADD PUSH1 0x40 MLOAD SWAP1 DUP2 ADD PUSH1 0x40 MSTORE DUP1 SWAP3 SWAP2 SWAP1 DUP2 DUP2 MSTORE PUSH1 0x20 ADD DUP3 DUP1 SLOAD PUSH2 0x2E63 SWAP1 PUSH2 0x5BEA JUMP JUMPDEST DUP1 ISZERO PUSH2 0x2EB0 JUMPI DUP1 PUSH1 0x1F LT PUSH2 0x2E85 JUMPI PUSH2 0x100 DUP1 DUP4 SLOAD DIV MUL DUP4 MSTORE SWAP2 PUSH1 0x20 ADD SWAP2 PUSH2 0x2EB0 JUMP JUMPDEST DUP3 ADD SWAP2 SWAP1 PUSH1 0x0 MSTORE PUSH1 0x20 PUSH1 0x0 KECCAK256 SWAP1 JUMPDEST DUP2 SLOAD DUP2 MSTORE SWAP1 PUSH1 0x1 ADD SWAP1 PUSH1 0x20 ADD DUP1 DUP4 GT PUSH2 0x2E93 JUMPI DUP3 SWAP1 SUB PUSH1 0x1F AND DUP3 ADD SWAP2 JUMPDEST POP POP POP POP POP DUP2 MSTORE PUSH1 0x20 ADD PUSH1 0x1 DUP3 ADD DUP1 SLOAD PUSH2 0x2EC9 SWAP1 PUSH2 0x5BEA JUMP JUMPDEST DUP1 PUSH1 0x1F ADD PUSH1 0x20 DUP1 SWAP2 DIV MUL PUSH1 0x20 ADD PUSH1 0x40 MLOAD SWAP1 DUP2 ADD PUSH1 0x40 MSTORE DUP1 SWAP3 SWAP2 SWAP1 DUP2 DUP2 MSTORE PUSH1 0x20 ADD DUP3 DUP1 SLOAD PUSH2 0x2EF5 SWAP1 PUSH2 0x5BEA JUMP JUMPDEST DUP1 ISZERO PUSH2 0x2F42 JUMPI DUP1 PUSH1 0x1F LT PUSH2 0x2F17 JUMPI PUSH2 0x100 DUP1 DUP4 SLOAD DIV MUL DUP4 MSTORE SWAP2 PUSH1 0x20 ADD SWAP2 PUSH2 0x2F42 JUMP JUMPDEST DUP3 ADD SWAP2 SWAP1 PUSH1 0x0 MSTORE PUSH1 0x20 PUSH1 0x0 KECCAK256 SWAP1 JUMPDEST DUP2 SLOAD DUP2 MSTORE SWAP1 PUSH1 0x1 ADD SWAP1 PUSH1 0x20 ADD DUP1 DUP4 GT PUSH2 0x2F25 JUMPI DUP3 SWAP1 SUB PUSH1 0x1F AND DUP3 ADD SWAP2 JUMPDEST POP POP POP SWAP2 DUP4 MSTORE POP POP PUSH1 0x2 DUP3 ADD SLOAD PUSH1 0x20 SWAP1 SWAP2 ADD SWAP1 PUSH1 0xFF AND PUSH1 0x3 DUP2 GT ISZERO PUSH2 0x2F69 JUMPI PUSH2 0x2F69 PUSH2 0x5965 JUMP JUMPDEST PUSH1 0x3 DUP2 GT ISZERO PUSH2 0x2F7A JUMPI PUSH2 0x2F7A PUSH2 0x5965 JUMP JUMPDEST DUP2 MSTORE PUSH1 0x20 ADD PUSH1 0x3 DUP3 ADD DUP1 SLOAD PUSH2 0x2F8E SWAP1 PUSH2 0x5BEA JUMP JUMPDEST DUP1 PUSH1 0x1F ADD PUSH1 0x20 DUP1 SWAP2 DIV MUL PUSH1 0x20 ADD PUSH1 0x40 MLOAD SWAP1 DUP2 ADD PUSH1 0x40 MSTORE DUP1 SWAP3 SWAP2 SWAP1 DUP2 DUP2 MSTORE PUSH1 0x20 ADD DUP3 DUP1 SLOAD PUSH2 0x2FBA SWAP1 PUSH2 0x5BEA JUMP JUMPDEST DUP1 ISZERO PUSH2 0x3007 JUMPI DUP1 PUSH1 0x1F LT PUSH2 0x2FDC JUMPI PUSH2 0x100 DUP1 DUP4 SLOAD DIV MUL DUP4 MSTORE SWAP2 PUSH1 0x20 ADD SWAP2 PUSH2 0x3007 JUMP JUMPDEST DUP3 ADD SWAP2 SWAP1 PUSH1 0x0 MSTORE PUSH1 0x20 PUSH1 0x0 KECCAK256 SWAP1 JUMPDEST DUP2 SLOAD DUP2 MSTORE SWAP1 PUSH1 0x1 ADD SWAP1 PUSH1 0x20 ADD DUP1 DUP4 GT PUSH2 0x2FEA JUMPI DUP3 SWAP1 SUB PUSH1 0x1F AND DUP3 ADD SWAP2 JUMPDEST POP POP POP POP POP DUP2 MSTORE POP POP DUP2 MSTORE PUSH1 0x20 ADD SWAP1 PUSH1 0x1 ADD SWAP1 PUSH2 0x2E04 JUMP JUMPDEST PUSH1 0x0 DUP5 DUP2 MSTORE PUSH1 0x7 PUSH1 0x20 MSTORE PUSH1 0x40 DUP2 KECCAK256 DUP6 SWAP2 DUP1 JUMPDEST PUSH1 0x4 DUP4 ADD SLOAD PUSH1 0xFF DUP3 AND LT ISZERO PUSH2 0x3084 JUMPI DUP3 PUSH1 0x4 ADD DUP2 PUSH1 0xFF AND DUP2 SLOAD DUP2 LT PUSH2 0x3058 JUMPI PUSH2 0x3058 PUSH2 0x5B28 JUMP JUMPDEST PUSH1 0x0 SWAP2 DUP3 MSTORE PUSH1 0x20 SWAP1 SWAP2 KECCAK256 ADD SLOAD PUSH1 0x1 PUSH1 0x1 PUSH1 0xA0 SHL SUB AND CALLER SUB PUSH2 0x307C JUMPI PUSH1 0x1 SWAP2 POP PUSH2 0x3084 JUMP JUMPDEST PUSH1 0x1 ADD PUSH2 0x3031 JUMP JUMPDEST POP DUP1 PUSH2 0x30F8 JUMPI PUSH1 0x40 MLOAD PUSH3 0x461BCD PUSH1 0xE5 SHL DUP2 MSTORE PUSH1 0x20 PUSH1 0x4 DUP3 ADD MSTORE PUSH1 0x3D PUSH1 0x24 DUP3 ADD MSTORE PUSH32 0x54686520616374696F6E2063616E206F6E6C7920626520706572666F726D6564 PUSH1 0x44 DUP3 ADD MSTORE PUSH32 0x206279206F7267616E697A657273206F66207468652070726F6A656374000000 PUSH1 0x64 DUP3 ADD MSTORE PUSH1 0x84 ADD PUSH2 0x788 JUMP JUMPDEST PUSH1 0x0 DUP8 DUP2 MSTORE PUSH1 0x7 PUSH1 0x20 MSTORE PUSH1 0x40 SWAP1 KECCAK256 PUSH1 0xC ADD SLOAD DUP8 SWAP1 PUSH1 0xFF AND PUSH2 0x3181 JUMPI PUSH1 0x40 MLOAD PUSH3 0x461BCD PUSH1 0xE5 SHL DUP2 MSTORE PUSH1 0x20 PUSH1 0x4 DUP3 ADD MSTORE PUSH1 0x31 PUSH1 0x24 DUP3 ADD MSTORE PUSH32 0x54686520616374696F6E2063616E206F6E6C792068617070656E206F6E20616E PUSH1 0x44 DUP3 ADD MSTORE PUSH32 0x20617070726F7665642070726F6A656374000000000000000000000000000000 PUSH1 0x64 DUP3 ADD MSTORE PUSH1 0x84 ADD PUSH2 0x788 JUMP JUMPDEST PUSH1 0x0 DUP9 DUP2 MSTORE PUSH1 0x7 PUSH1 0x20 SWAP1 DUP2 MSTORE PUSH1 0x40 DUP1 DUP4 KECCAK256 PUSH1 0xD ADD SLOAD PUSH1 0x8 DUP4 MSTORE DUP2 DUP5 KECCAK256 DUP2 DUP6 MSTORE DUP4 MSTORE SWAP3 KECCAK256 DUP11 DUP2 SSTORE PUSH1 0x1 DUP2 ADD DUP1 SLOAD PUSH1 0xFF NOT AND SWAP1 SSTORE DUP10 MLOAD SWAP1 SWAP2 PUSH2 0x31C8 SWAP2 PUSH1 0x2 DUP5 ADD SWAP2 DUP13 ADD SWAP1 PUSH2 0x51CF JUMP JUMPDEST POP DUP8 MLOAD PUSH2 0x31DE SWAP1 PUSH1 0x3 DUP4 ADD SWAP1 PUSH1 0x20 DUP12 ADD SWAP1 PUSH2 0x51CF JUMP JUMPDEST POP PUSH1 0x1 DUP2 ADD DUP1 SLOAD PUSH32 0xFFFFFFFFFFFFFFFFFFFFFF0000000000000000000000000000000000000000FF AND CALLER PUSH2 0x100 MUL OR SWAP1 SSTORE PUSH1 0x8 DUP2 ADD DUP8 SWAP1 SSTORE PUSH1 0x0 DUP11 DUP2 MSTORE PUSH1 0x7 PUSH1 0x20 MSTORE PUSH1 0x40 DUP2 KECCAK256 PUSH1 0xD ADD DUP1 SLOAD SWAP2 PUSH2 0x3233 DUP4 PUSH2 0x5B54 JUMP JUMPDEST SWAP2 SWAP1 POP SSTORE POP POP POP POP POP POP POP POP POP POP POP JUMP JUMPDEST PUSH1 0x60 PUSH1 0x1 DUP1 SLOAD DUP1 PUSH1 0x20 MUL PUSH1 0x20 ADD PUSH1 0x40 MLOAD SWAP1 DUP2 ADD PUSH1 0x40 MSTORE DUP1 SWAP3 SWAP2 SWAP1 DUP2 DUP2 MSTORE PUSH1 0x20 ADD DUP3 DUP1 SLOAD DUP1 ISZERO PUSH2 0x1ED6 JUMPI PUSH1 0x20 MUL DUP3 ADD SWAP2 SWAP1 PUSH1 0x0 MSTORE PUSH1 0x20 PUSH1 0x0 KECCAK256 SWAP1 JUMPDEST DUP2 SLOAD PUSH1 0x1 PUSH1 0x1 PUSH1 0xA0 SHL SUB AND DUP2 MSTORE PUSH1 0x1 SWAP1 SWAP2 ADD SWAP1 PUSH1 0x20 ADD DUP1 DUP4 GT PUSH2 0x327E JUMPI POP POP POP POP POP SWAP1 POP SWAP1 JUMP JUMPDEST PUSH1 0x60 PUSH1 0x0 DUP3 PUSH1 0x3 DUP2 GT ISZERO PUSH2 0x32BB JUMPI PUSH2 0x32BB PUSH2 0x5965 JUMP JUMPDEST SUB PUSH2 0x351A JUMPI PUSH1 0x0 DUP5 DUP2 MSTORE PUSH1 0x8 PUSH1 0x20 SWAP1 DUP2 MSTORE PUSH1 0x40 DUP1 DUP4 KECCAK256 DUP7 DUP5 MSTORE DUP3 MSTORE DUP1 DUP4 KECCAK256 PUSH1 0x4 ADD DUP1 SLOAD DUP3 MLOAD DUP2 DUP6 MUL DUP2 ADD DUP6 ADD SWAP1 SWAP4 MSTORE DUP1 DUP4 MSTORE SWAP2 SWAP4 SWAP1 SWAP3 DUP5 ADD JUMPDEST DUP3 DUP3 LT ISZERO PUSH2 0x350F JUMPI DUP4 DUP3 SWAP1 PUSH1 0x0 MSTORE PUSH1 0x20 PUSH1 0x0 KECCAK256 SWAP1 PUSH1 0x4 MUL ADD PUSH1 0x40 MLOAD DUP1 PUSH1 0x80 ADD PUSH1 0x40 MSTORE SWAP1 DUP2 PUSH1 0x0 DUP3 ADD DUP1 SLOAD PUSH2 0x3327 SWAP1 PUSH2 0x5BEA JUMP JUMPDEST DUP1 PUSH1 0x1F ADD PUSH1 0x20 DUP1 SWAP2 DIV MUL PUSH1 0x20 ADD PUSH1 0x40 MLOAD SWAP1 DUP2 ADD PUSH1 0x40 MSTORE DUP1 SWAP3 SWAP2 SWAP1 DUP2 DUP2 MSTORE PUSH1 0x20 ADD DUP3 DUP1 SLOAD PUSH2 0x3353 SWAP1 PUSH2 0x5BEA JUMP JUMPDEST DUP1 ISZERO PUSH2 0x33A0 JUMPI DUP1 PUSH1 0x1F LT PUSH2 0x3375 JUMPI PUSH2 0x100 DUP1 DUP4 SLOAD DIV MUL DUP4 MSTORE SWAP2 PUSH1 0x20 ADD SWAP2 PUSH2 0x33A0 JUMP JUMPDEST DUP3 ADD SWAP2 SWAP1 PUSH1 0x0 MSTORE PUSH1 0x20 PUSH1 0x0 KECCAK256 SWAP1 JUMPDEST DUP2 SLOAD DUP2 MSTORE SWAP1 PUSH1 0x1 ADD SWAP1 PUSH1 0x20 ADD DUP1 DUP4 GT PUSH2 0x3383 JUMPI DUP3 SWAP1 SUB PUSH1 0x1F AND DUP3 ADD SWAP2 JUMPDEST POP POP POP POP POP DUP2 MSTORE PUSH1 0x20 ADD PUSH1 0x1 DUP3 ADD DUP1 SLOAD PUSH2 0x33B9 SWAP1 PUSH2 0x5BEA JUMP JUMPDEST DUP1 PUSH1 0x1F ADD PUSH1 0x20 DUP1 SWAP2 DIV MUL PUSH1 0x20 ADD PUSH1 0x40 MLOAD SWAP1 DUP2 ADD PUSH1 0x40 MSTORE DUP1 SWAP3 SWAP2 SWAP1 DUP2 DUP2 MSTORE PUSH1 0x20 ADD DUP3 DUP1 SLOAD PUSH2 0x33E5 SWAP1 PUSH2 0x5BEA JUMP JUMPDEST DUP1 ISZERO PUSH2 0x3432 JUMPI DUP1 PUSH1 0x1F LT PUSH2 0x3407 JUMPI PUSH2 0x100 DUP1 DUP4 SLOAD DIV MUL DUP4 MSTORE SWAP2 PUSH1 0x20 ADD SWAP2 PUSH2 0x3432 JUMP JUMPDEST DUP3 ADD SWAP2 SWAP1 PUSH1 0x0 MSTORE PUSH1 0x20 PUSH1 0x0 KECCAK256 SWAP1 JUMPDEST DUP2 SLOAD DUP2 MSTORE SWAP1 PUSH1 0x1 ADD SWAP1 PUSH1 0x20 ADD DUP1 DUP4 GT PUSH2 0x3415 JUMPI DUP3 SWAP1 SUB PUSH1 0x1F AND DUP3 ADD SWAP2 JUMPDEST POP POP POP SWAP2 DUP4 MSTORE POP POP PUSH1 0x2 DUP3 ADD SLOAD PUSH1 0x20 SWAP1 SWAP2 ADD SWAP1 PUSH1 0xFF AND PUSH1 0x3 DUP2 GT ISZERO PUSH2 0x3459 JUMPI PUSH2 0x3459 PUSH2 0x5965 JUMP JUMPDEST PUSH1 0x3 DUP2 GT ISZERO PUSH2 0x346A JUMPI PUSH2 0x346A PUSH2 0x5965 JUMP JUMPDEST DUP2 MSTORE PUSH1 0x20 ADD PUSH1 0x3 DUP3 ADD DUP1 SLOAD PUSH2 0x347E SWAP1 PUSH2 0x5BEA JUMP JUMPDEST DUP1 PUSH1 0x1F ADD PUSH1 0x20 DUP1 SWAP2 DIV MUL PUSH1 0x20 ADD PUSH1 0x40 MLOAD SWAP1 DUP2 ADD PUSH1 0x40 MSTORE DUP1 SWAP3 SWAP2 SWAP1 DUP2 DUP2 MSTORE PUSH1 0x20 ADD DUP3 DUP1 SLOAD PUSH2 0x34AA SWAP1 PUSH2 0x5BEA JUMP JUMPDEST DUP1 ISZERO PUSH2 0x34F7 JUMPI DUP1 PUSH1 0x1F LT PUSH2 0x34CC JUMPI PUSH2 0x100 DUP1 DUP4 SLOAD DIV MUL DUP4 MSTORE SWAP2 PUSH1 0x20 ADD SWAP2 PUSH2 0x34F7 JUMP JUMPDEST DUP3 ADD SWAP2 SWAP1 PUSH1 0x0 MSTORE PUSH1 0x20 PUSH1 0x0 KECCAK256 SWAP1 JUMPDEST DUP2 SLOAD DUP2 MSTORE SWAP1 PUSH1 0x1 ADD SWAP1 PUSH1 0x20 ADD DUP1 DUP4 GT PUSH2 0x34DA JUMPI DUP3 SWAP1 SUB PUSH1 0x1F AND DUP3 ADD SWAP2 JUMPDEST POP POP POP POP POP DUP2 MSTORE POP POP DUP2 MSTORE PUSH1 0x20 ADD SWAP1 PUSH1 0x1 ADD SWAP1 PUSH2 0x32F4 JUMP JUMPDEST POP POP POP POP SWAP1 POP PUSH2 0x1017 JUMP JUMPDEST PUSH1 0x2 DUP3 PUSH1 0x3 DUP2 GT ISZERO PUSH2 0x352E JUMPI PUSH2 0x352E PUSH2 0x5965 JUMP JUMPDEST SUB PUSH2 0x3782 JUMPI PUSH1 0x0 DUP5 DUP2 MSTORE PUSH1 0x8 PUSH1 0x20 SWAP1 DUP2 MSTORE PUSH1 0x40 DUP1 DUP4 KECCAK256 DUP7 DUP5 MSTORE DUP3 MSTORE DUP1 DUP4 KECCAK256 PUSH1 0x6 ADD DUP1 SLOAD DUP3 MLOAD DUP2 DUP6 MUL DUP2 ADD DUP6 ADD SWAP1 SWAP4 MSTORE DUP1 DUP4 MSTORE SWAP2 SWAP4 SWAP1 SWAP3 DUP5 ADD JUMPDEST DUP3 DUP3 LT ISZERO PUSH2 0x350F JUMPI DUP4 DUP3 SWAP1 PUSH1 0x0 MSTORE PUSH1 0x20 PUSH1 0x0 KECCAK256 SWAP1 PUSH1 0x4 MUL ADD PUSH1 0x40 MLOAD DUP1 PUSH1 0x80 ADD PUSH1 0x40 MSTORE SWAP1 DUP2 PUSH1 0x0 DUP3 ADD DUP1 SLOAD PUSH2 0x359A SWAP1 PUSH2 0x5BEA JUMP JUMPDEST DUP1 PUSH1 0x1F ADD PUSH1 0x20 DUP1 SWAP2 DIV MUL PUSH1 0x20 ADD PUSH1 0x40 MLOAD SWAP1 DUP2 ADD PUSH1 0x40 MSTORE DUP1 SWAP3 SWAP2 SWAP1 DUP2 DUP2 MSTORE PUSH1 0x20 ADD DUP3 DUP1 SLOAD PUSH2 0x35C6 SWAP1 PUSH2 0x5BEA JUMP JUMPDEST DUP1 ISZERO PUSH2 0x3613 JUMPI DUP1 PUSH1 0x1F LT PUSH2 0x35E8 JUMPI PUSH2 0x100 DUP1 DUP4 SLOAD DIV MUL DUP4 MSTORE SWAP2 PUSH1 0x20 ADD SWAP2 PUSH2 0x3613 JUMP JUMPDEST DUP3 ADD SWAP2 SWAP1 PUSH1 0x0 MSTORE PUSH1 0x20 PUSH1 0x0 KECCAK256 SWAP1 JUMPDEST DUP2 SLOAD DUP2 MSTORE SWAP1 PUSH1 0x1 ADD SWAP1 PUSH1 0x20 ADD DUP1 DUP4 GT PUSH2 0x35F6 JUMPI DUP3 SWAP1 SUB PUSH1 0x1F AND DUP3 ADD SWAP2 JUMPDEST POP POP POP POP POP DUP2 MSTORE PUSH1 0x20 ADD PUSH1 0x1 DUP3 ADD DUP1 SLOAD PUSH2 0x362C SWAP1 PUSH2 0x5BEA JUMP JUMPDEST DUP1 PUSH1 0x1F ADD PUSH1 0x20 DUP1 SWAP2 DIV MUL PUSH1 0x20 ADD PUSH1 0x40 MLOAD SWAP1 DUP2 ADD PUSH1 0x40 MSTORE DUP1 SWAP3 SWAP2 SWAP1 DUP2 DUP2 MSTORE PUSH1 0x20 ADD DUP3 DUP1 SLOAD PUSH2 0x3658 SWAP1 PUSH2 0x5BEA JUMP JUMPDEST DUP1 ISZERO PUSH2 0x36A5 JUMPI DUP1 PUSH1 0x1F LT PUSH2 0x367A JUMPI PUSH2 0x100 DUP1 DUP4 SLOAD DIV MUL DUP4 MSTORE SWAP2 PUSH1 0x20 ADD SWAP2 PUSH2 0x36A5 JUMP JUMPDEST DUP3 ADD SWAP2 SWAP1 PUSH1 0x0 MSTORE PUSH1 0x20 PUSH1 0x0 KECCAK256 SWAP1 JUMPDEST DUP2 SLOAD DUP2 MSTORE SWAP1 PUSH1 0x1 ADD SWAP1 PUSH1 0x20 ADD DUP1 DUP4 GT PUSH2 0x3688 JUMPI DUP3 SWAP1 SUB PUSH1 0x1F AND DUP3 ADD SWAP2 JUMPDEST POP POP POP SWAP2 DUP4 MSTORE POP POP PUSH1 0x2 DUP3 ADD SLOAD PUSH1 0x20 SWAP1 SWAP2 ADD SWAP1 PUSH1 0xFF AND PUSH1 0x3 DUP2 GT ISZERO PUSH2 0x36CC JUMPI PUSH2 0x36CC PUSH2 0x5965 JUMP JUMPDEST PUSH1 0x3 DUP2 GT ISZERO PUSH2 0x36DD JUMPI PUSH2 0x36DD PUSH2 0x5965 JUMP JUMPDEST DUP2 MSTORE PUSH1 0x20 ADD PUSH1 0x3 DUP3 ADD DUP1 SLOAD PUSH2 0x36F1 SWAP1 PUSH2 0x5BEA JUMP JUMPDEST DUP1 PUSH1 0x1F ADD PUSH1 0x20 DUP1 SWAP2 DIV MUL PUSH1 0x20 ADD PUSH1 0x40 MLOAD SWAP1 DUP2 ADD PUSH1 0x40 MSTORE DUP1 SWAP3 SWAP2 SWAP1 DUP2 DUP2 MSTORE PUSH1 0x20 ADD DUP3 DUP1 SLOAD PUSH2 0x371D SWAP1 PUSH2 0x5BEA JUMP JUMPDEST DUP1 ISZERO PUSH2 0x376A JUMPI DUP1 PUSH1 0x1F LT PUSH2 0x373F JUMPI PUSH2 0x100 DUP1 DUP4 SLOAD DIV MUL DUP4 MSTORE SWAP2 PUSH1 0x20 ADD SWAP2 PUSH2 0x376A JUMP JUMPDEST DUP3 ADD SWAP2 SWAP1 PUSH1 0x0 MSTORE PUSH1 0x20 PUSH1 0x0 KECCAK256 SWAP1 JUMPDEST DUP2 SLOAD DUP2 MSTORE SWAP1 PUSH1 0x1 ADD SWAP1 PUSH1 0x20 ADD DUP1 DUP4 GT PUSH2 0x374D JUMPI DUP3 SWAP1 SUB PUSH1 0x1F AND DUP3 ADD SWAP2 JUMPDEST POP POP POP POP POP DUP2 MSTORE POP POP DUP2 MSTORE PUSH1 0x20 ADD SWAP1 PUSH1 0x1 ADD SWAP1 PUSH2 0x3567 JUMP JUMPDEST PUSH1 0x1 DUP3 PUSH1 0x3 DUP2 GT ISZERO PUSH2 0x3796 JUMPI PUSH2 0x3796 PUSH2 0x5965 JUMP JUMPDEST SUB PUSH2 0x39EA JUMPI PUSH1 0x0 DUP5 DUP2 MSTORE PUSH1 0x8 PUSH1 0x20 SWAP1 DUP2 MSTORE PUSH1 0x40 DUP1 DUP4 KECCAK256 DUP7 DUP5 MSTORE DUP3 MSTORE DUP1 DUP4 KECCAK256 PUSH1 0x5 ADD DUP1 SLOAD DUP3 MLOAD DUP2 DUP6 MUL DUP2 ADD DUP6 ADD SWAP1 SWAP4 MSTORE DUP1 DUP4 MSTORE SWAP2 SWAP4 SWAP1 SWAP3 DUP5 ADD JUMPDEST DUP3 DUP3 LT ISZERO PUSH2 0x350F JUMPI DUP4 DUP3 SWAP1 PUSH1 0x0 MSTORE PUSH1 0x20 PUSH1 0x0 KECCAK256 SWAP1 PUSH1 0x4 MUL ADD PUSH1 0x40 MLOAD DUP1 PUSH1 0x80 ADD PUSH1 0x40 MSTORE SWAP1 DUP2 PUSH1 0x0 DUP3 ADD DUP1 SLOAD PUSH2 0x3802 SWAP1 PUSH2 0x5BEA JUMP JUMPDEST DUP1 PUSH1 0x1F ADD PUSH1 0x20 DUP1 SWAP2 DIV MUL PUSH1 0x20 ADD PUSH1 0x40 MLOAD SWAP1 DUP2 ADD PUSH1 0x40 MSTORE DUP1 SWAP3 SWAP2 SWAP1 DUP2 DUP2 MSTORE PUSH1 0x20 ADD DUP3 DUP1 SLOAD PUSH2 0x382E SWAP1 PUSH2 0x5BEA JUMP JUMPDEST DUP1 ISZERO PUSH2 0x387B JUMPI DUP1 PUSH1 0x1F LT PUSH2 0x3850 JUMPI PUSH2 0x100 DUP1 DUP4 SLOAD DIV MUL DUP4 MSTORE SWAP2 PUSH1 0x20 ADD SWAP2 PUSH2 0x387B JUMP JUMPDEST DUP3 ADD SWAP2 SWAP1 PUSH1 0x0 MSTORE PUSH1 0x20 PUSH1 0x0 KECCAK256 SWAP1 JUMPDEST DUP2 SLOAD DUP2 MSTORE SWAP1 PUSH1 0x1 ADD SWAP1 PUSH1 0x20 ADD DUP1 DUP4 GT PUSH2 0x385E JUMPI DUP3 SWAP1 SUB PUSH1 0x1F AND DUP3 ADD SWAP2 JUMPDEST POP POP POP POP POP DUP2 MSTORE PUSH1 0x20 ADD PUSH1 0x1 DUP3 ADD DUP1 SLOAD PUSH2 0x3894 SWAP1 PUSH2 0x5BEA JUMP JUMPDEST DUP1 PUSH1 0x1F ADD PUSH1 0x20 DUP1 SWAP2 DIV MUL PUSH1 0x20 ADD PUSH1 0x40 MLOAD SWAP1 DUP2 ADD PUSH1 0x40 MSTORE DUP1 SWAP3 SWAP2 SWAP1 DUP2 DUP2 MSTORE PUSH1 0x20 ADD DUP3 DUP1 SLOAD PUSH2 0x38C0 SWAP1 PUSH2 0x5BEA JUMP JUMPDEST DUP1 ISZERO PUSH2 0x390D JUMPI DUP1 PUSH1 0x1F LT PUSH2 0x38E2 JUMPI PUSH2 0x100 DUP1 DUP4 SLOAD DIV MUL DUP4 MSTORE SWAP2 PUSH1 0x20 ADD SWAP2 PUSH2 0x390D JUMP JUMPDEST DUP3 ADD SWAP2 SWAP1 PUSH1 0x0 MSTORE PUSH1 0x20 PUSH1 0x0 KECCAK256 SWAP1 JUMPDEST DUP2 SLOAD DUP2 MSTORE SWAP1 PUSH1 0x1 ADD SWAP1 PUSH1 0x20 ADD DUP1 DUP4 GT PUSH2 0x38F0 JUMPI DUP3 SWAP1 SUB PUSH1 0x1F AND DUP3 ADD SWAP2 JUMPDEST POP POP POP SWAP2 DUP4 MSTORE POP POP PUSH1 0x2 DUP3 ADD SLOAD PUSH1 0x20 SWAP1 SWAP2 ADD SWAP1 PUSH1 0xFF AND PUSH1 0x3 DUP2 GT ISZERO PUSH2 0x3934 JUMPI PUSH2 0x3934 PUSH2 0x5965 JUMP JUMPDEST PUSH1 0x3 DUP2 GT ISZERO PUSH2 0x3945 JUMPI PUSH2 0x3945 PUSH2 0x5965 JUMP JUMPDEST DUP2 MSTORE PUSH1 0x20 ADD PUSH1 0x3 DUP3 ADD DUP1 SLOAD PUSH2 0x3959 SWAP1 PUSH2 0x5BEA JUMP JUMPDEST DUP1 PUSH1 0x1F ADD PUSH1 0x20 DUP1 SWAP2 DIV MUL PUSH1 0x20 ADD PUSH1 0x40 MLOAD SWAP1 DUP2 ADD PUSH1 0x40 MSTORE DUP1 SWAP3 SWAP2 SWAP1 DUP2 DUP2 MSTORE PUSH1 0x20 ADD DUP3 DUP1 SLOAD PUSH2 0x3985 SWAP1 PUSH2 0x5BEA JUMP JUMPDEST DUP1 ISZERO PUSH2 0x39D2 JUMPI DUP1 PUSH1 0x1F LT PUSH2 0x39A7 JUMPI PUSH2 0x100 DUP1 DUP4 SLOAD DIV MUL DUP4 MSTORE SWAP2 PUSH1 0x20 ADD SWAP2 PUSH2 0x39D2 JUMP JUMPDEST DUP3 ADD SWAP2 SWAP1 PUSH1 0x0 MSTORE PUSH1 0x20 PUSH1 0x0 KECCAK256 SWAP1 JUMPDEST DUP2 SLOAD DUP2 MSTORE SWAP1 PUSH1 0x1 ADD SWAP1 PUSH1 0x20 ADD DUP1 DUP4 GT PUSH2 0x39B5 JUMPI DUP3 SWAP1 SUB PUSH1 0x1F AND DUP3 ADD SWAP2 JUMPDEST POP POP POP POP POP DUP2 MSTORE POP POP DUP2 MSTORE PUSH1 0x20 ADD SWAP1 PUSH1 0x1 ADD SWAP1 PUSH2 0x37CF JUMP JUMPDEST PUSH1 0x3 DUP3 PUSH1 0x3 DUP2 GT ISZERO PUSH2 0x39FE JUMPI PUSH2 0x39FE PUSH2 0x5965 JUMP JUMPDEST SUB PUSH2 0x9A9 JUMPI PUSH1 0x0 DUP5 DUP2 MSTORE PUSH1 0x8 PUSH1 0x20 SWAP1 DUP2 MSTORE PUSH1 0x40 DUP1 DUP4 KECCAK256 DUP7 DUP5 MSTORE DUP3 MSTORE DUP1 DUP4 KECCAK256 PUSH1 0x7 ADD DUP1 SLOAD DUP3 MLOAD DUP2 DUP6 MUL DUP2 ADD DUP6 ADD SWAP1 SWAP4 MSTORE DUP1 DUP4 MSTORE SWAP2 SWAP4 SWAP1 SWAP3 DUP5 ADD JUMPDEST DUP3 DUP3 LT ISZERO PUSH2 0x350F JUMPI DUP4 DUP3 SWAP1 PUSH1 0x0 MSTORE PUSH1 0x20 PUSH1 0x0 KECCAK256 SWAP1 PUSH1 0x4 MUL ADD PUSH1 0x40 MLOAD DUP1 PUSH1 0x80 ADD PUSH1 0x40 MSTORE SWAP1 DUP2 PUSH1 0x0 DUP3 ADD DUP1 SLOAD PUSH2 0x3A6A SWAP1 PUSH2 0x5BEA JUMP JUMPDEST DUP1 PUSH1 0x1F ADD PUSH1 0x20 DUP1 SWAP2 DIV MUL PUSH1 0x20 ADD PUSH1 0x40 MLOAD SWAP1 DUP2 ADD PUSH1 0x40 MSTORE DUP1 SWAP3 SWAP2 SWAP1 DUP2 DUP2 MSTORE PUSH1 0x20 ADD DUP3 DUP1 SLOAD PUSH2 0x3A96 SWAP1 PUSH2 0x5BEA JUMP JUMPDEST DUP1 ISZERO PUSH2 0x3AE3 JUMPI DUP1 PUSH1 0x1F LT PUSH2 0x3AB8 JUMPI PUSH2 0x100 DUP1 DUP4 SLOAD DIV MUL DUP4 MSTORE SWAP2 PUSH1 0x20 ADD SWAP2 PUSH2 0x3AE3 JUMP JUMPDEST DUP3 ADD SWAP2 SWAP1 PUSH1 0x0 MSTORE PUSH1 0x20 PUSH1 0x0 KECCAK256 SWAP1 JUMPDEST DUP2 SLOAD DUP2 MSTORE SWAP1 PUSH1 0x1 ADD SWAP1 PUSH1 0x20 ADD DUP1 DUP4 GT PUSH2 0x3AC6 JUMPI DUP3 SWAP1 SUB PUSH1 0x1F AND DUP3 ADD SWAP2 JUMPDEST POP POP POP POP POP DUP2 MSTORE PUSH1 0x20 ADD PUSH1 0x1 DUP3 ADD DUP1 SLOAD PUSH2 0x3AFC SWAP1 PUSH2 0x5BEA JUMP JUMPDEST DUP1 PUSH1 0x1F ADD PUSH1 0x20 DUP1 SWAP2 DIV MUL PUSH1 0x20 ADD PUSH1 0x40 MLOAD SWAP1 DUP2 ADD PUSH1 0x40 MSTORE DUP1 SWAP3 SWAP2 SWAP1 DUP2 DUP2 MSTORE PUSH1 0x20 ADD DUP3 DUP1 SLOAD PUSH2 0x3B28 SWAP1 PUSH2 0x5BEA JUMP JUMPDEST DUP1 ISZERO PUSH2 0x3B75 JUMPI DUP1 PUSH1 0x1F LT PUSH2 0x3B4A JUMPI PUSH2 0x100 DUP1 DUP4 SLOAD DIV MUL DUP4 MSTORE SWAP2 PUSH1 0x20 ADD SWAP2 PUSH2 0x3B75 JUMP JUMPDEST DUP3 ADD SWAP2 SWAP1 PUSH1 0x0 MSTORE PUSH1 0x20 PUSH1 0x0 KECCAK256 SWAP1 JUMPDEST DUP2 SLOAD DUP2 MSTORE SWAP1 PUSH1 0x1 ADD SWAP1 PUSH1 0x20 ADD DUP1 DUP4 GT PUSH2 0x3B58 JUMPI DUP3 SWAP1 SUB PUSH1 0x1F AND DUP3 ADD SWAP2 JUMPDEST POP POP POP SWAP2 DUP4 MSTORE POP POP PUSH1 0x2 DUP3 ADD SLOAD PUSH1 0x20 SWAP1 SWAP2 ADD SWAP1 PUSH1 0xFF AND PUSH1 0x3 DUP2 GT ISZERO PUSH2 0x3B9C JUMPI PUSH2 0x3B9C PUSH2 0x5965 JUMP JUMPDEST PUSH1 0x3 DUP2 GT ISZERO PUSH2 0x3BAD JUMPI PUSH2 0x3BAD PUSH2 0x5965 JUMP JUMPDEST DUP2 MSTORE PUSH1 0x20 ADD PUSH1 0x3 DUP3 ADD DUP1 SLOAD PUSH2 0x3BC1 SWAP1 PUSH2 0x5BEA JUMP JUMPDEST DUP1 PUSH1 0x1F ADD PUSH1 0x20 DUP1 SWAP2 DIV MUL PUSH1 0x20 ADD PUSH1 0x40 MLOAD SWAP1 DUP2 ADD PUSH1 0x40 MSTORE DUP1 SWAP3 SWAP2 SWAP1 DUP2 DUP2 MSTORE PUSH1 0x20 ADD DUP3 DUP1 SLOAD PUSH2 0x3BED SWAP1 PUSH2 0x5BEA JUMP JUMPDEST DUP1 ISZERO PUSH2 0x3C3A JUMPI DUP1 PUSH1 0x1F LT PUSH2 0x3C0F JUMPI PUSH2 0x100 DUP1 DUP4 SLOAD DIV MUL DUP4 MSTORE SWAP2 PUSH1 0x20 ADD SWAP2 PUSH2 0x3C3A JUMP JUMPDEST DUP3 ADD SWAP2 SWAP1 PUSH1 0x0 MSTORE PUSH1 0x20 PUSH1 0x0 KECCAK256 SWAP1 JUMPDEST DUP2 SLOAD DUP2 MSTORE SWAP1 PUSH1 0x1 ADD SWAP1 PUSH1 0x20 ADD DUP1 DUP4 GT PUSH2 0x3C1D JUMPI DUP3 SWAP1 SUB PUSH1 0x1F AND DUP3 ADD SWAP2 JUMPDEST POP POP POP POP POP DUP2 MSTORE POP POP DUP2 MSTORE PUSH1 0x20 ADD SWAP1 PUSH1 0x1 ADD SWAP1 PUSH2 0x3A37 JUMP JUMPDEST PUSH1 0x60 DUP2 PUSH1 0x0 SUB PUSH2 0x3CBD JUMPI CALLER PUSH1 0x0 SWAP1 DUP2 MSTORE PUSH1 0x9 PUSH1 0x20 SWAP1 DUP2 MSTORE PUSH1 0x40 SWAP2 DUP3 SWAP1 KECCAK256 DUP1 SLOAD DUP4 MLOAD DUP2 DUP5 MUL DUP2 ADD DUP5 ADD SWAP1 SWAP5 MSTORE DUP1 DUP5 MSTORE SWAP1 SWAP2 DUP4 ADD DUP3 DUP3 DUP1 ISZERO PUSH2 0x3CB1 JUMPI PUSH1 0x20 MUL DUP3 ADD SWAP2 SWAP1 PUSH1 0x0 MSTORE PUSH1 0x20 PUSH1 0x0 KECCAK256 SWAP1 JUMPDEST DUP2 SLOAD DUP2 MSTORE PUSH1 0x20 ADD SWAP1 PUSH1 0x1 ADD SWAP1 DUP1 DUP4 GT PUSH2 0x3C9D JUMPI JUMPDEST POP POP POP POP POP SWAP1 POP SWAP2 SWAP1 POP JUMP JUMPDEST DUP2 PUSH1 0x1 SUB PUSH2 0xFCF JUMPI CALLER PUSH1 0x0 SWAP1 DUP2 MSTORE PUSH1 0xA PUSH1 0x20 SWAP1 DUP2 MSTORE PUSH1 0x40 SWAP2 DUP3 SWAP1 KECCAK256 DUP1 SLOAD DUP4 MLOAD DUP2 DUP5 MUL DUP2 ADD DUP5 ADD SWAP1 SWAP5 MSTORE DUP1 DUP5 MSTORE SWAP1 SWAP2 DUP4 ADD DUP3 DUP3 DUP1 ISZERO PUSH2 0x3CB1 JUMPI PUSH1 0x20 MUL DUP3 ADD SWAP2 SWAP1 PUSH1 0x0 MSTORE PUSH1 0x20 PUSH1 0x0 KECCAK256 SWAP1 DUP2 SLOAD DUP2 MSTORE PUSH1 0x20 ADD SWAP1 PUSH1 0x1 ADD SWAP1 DUP1 DUP4 GT PUSH2 0x3C9D JUMPI POP POP POP POP POP SWAP1 POP SWAP2 SWAP1 POP JUMP JUMPDEST SWAP2 SWAP1 POP JUMP JUMPDEST PUSH1 0x0 DUP2 DUP2 MSTORE PUSH1 0x7 PUSH1 0x20 MSTORE PUSH1 0x40 DUP2 KECCAK256 DUP3 SWAP2 DUP1 JUMPDEST PUSH1 0x4 DUP4 ADD SLOAD PUSH1 0xFF DUP3 AND LT ISZERO PUSH2 0x3D8E JUMPI DUP3 PUSH1 0x4 ADD DUP2 PUSH1 0xFF AND DUP2 SLOAD DUP2 LT PUSH2 0x3D62 JUMPI PUSH2 0x3D62 PUSH2 0x5B28 JUMP JUMPDEST PUSH1 0x0 SWAP2 DUP3 MSTORE PUSH1 0x20 SWAP1 SWAP2 KECCAK256 ADD SLOAD PUSH1 0x1 PUSH1 0x1 PUSH1 0xA0 SHL SUB AND CALLER SUB PUSH2 0x3D86 JUMPI PUSH1 0x1 SWAP2 POP PUSH2 0x3D8E JUMP JUMPDEST PUSH1 0x1 ADD PUSH2 0x3D3B JUMP JUMPDEST POP DUP1 PUSH2 0x3E02 JUMPI PUSH1 0x40 MLOAD PUSH3 0x461BCD PUSH1 0xE5 SHL DUP2 MSTORE PUSH1 0x20 PUSH1 0x4 DUP3 ADD MSTORE PUSH1 0x3D PUSH1 0x24 DUP3 ADD MSTORE PUSH32 0x54686520616374696F6E2063616E206F6E6C7920626520706572666F726D6564 PUSH1 0x44 DUP3 ADD MSTORE PUSH32 0x206279206F7267616E697A657273206F66207468652070726F6A656374000000 PUSH1 0x64 DUP3 ADD MSTORE PUSH1 0x84 ADD PUSH2 0x788 JUMP JUMPDEST PUSH1 0x0 DUP5 DUP2 MSTORE PUSH1 0x7 PUSH1 0x20 MSTORE PUSH1 0x40 SWAP1 KECCAK256 PUSH1 0xC DUP2 ADD SLOAD PUSH2 0x100 SWAP1 DIV PUSH1 0xFF AND PUSH2 0x3E27 JUMPI POP PUSH2 0x4506 JUMP JUMPDEST PUSH1 0xC DUP2 ADD DUP1 SLOAD PUSH2 0xFF00 NOT AND SWAP1 SSTORE PUSH1 0xE DUP2 ADD SLOAD PUSH1 0x0 DUP2 SWAP1 SUB PUSH2 0x3E49 JUMPI POP POP PUSH2 0x4506 JUMP JUMPDEST PUSH1 0x0 DUP2 PUSH8 0xFFFFFFFFFFFFFFFF DUP2 GT ISZERO PUSH2 0x3E64 JUMPI PUSH2 0x3E64 PUSH2 0x5375 JUMP JUMPDEST PUSH1 0x40 MLOAD SWAP1 DUP1 DUP3 MSTORE DUP1 PUSH1 0x20 MUL PUSH1 0x20 ADD DUP3 ADD PUSH1 0x40 MSTORE DUP1 ISZERO PUSH2 0x3E8D JUMPI DUP2 PUSH1 0x20 ADD PUSH1 0x20 DUP3 MUL DUP1 CALLDATASIZE DUP4 CALLDATACOPY ADD SWAP1 POP JUMPDEST POP SWAP1 POP PUSH1 0x0 DUP3 PUSH8 0xFFFFFFFFFFFFFFFF DUP2 GT ISZERO PUSH2 0x3EAB JUMPI PUSH2 0x3EAB PUSH2 0x5375 JUMP JUMPDEST PUSH1 0x40 MLOAD SWAP1 DUP1 DUP3 MSTORE DUP1 PUSH1 0x20 MUL PUSH1 0x20 ADD DUP3 ADD PUSH1 0x40 MSTORE DUP1 ISZERO PUSH2 0x3ED4 JUMPI DUP2 PUSH1 0x20 ADD PUSH1 0x20 DUP3 MUL DUP1 CALLDATASIZE DUP4 CALLDATACOPY ADD SWAP1 POP JUMPDEST POP SWAP1 POP PUSH1 0x0 JUMPDEST DUP4 DUP2 LT ISZERO PUSH2 0x3FA4 JUMPI PUSH1 0x0 DUP6 PUSH1 0xE ADD DUP3 DUP2 SLOAD DUP2 LT PUSH2 0x3EF9 JUMPI PUSH2 0x3EF9 PUSH2 0x5B28 JUMP JUMPDEST SWAP1 PUSH1 0x0 MSTORE PUSH1 0x20 PUSH1 0x0 KECCAK256 ADD PUSH1 0x0 SWAP1 SLOAD SWAP1 PUSH2 0x100 EXP SWAP1 DIV PUSH1 0x1 PUSH1 0x1 PUSH1 0xA0 SHL SUB AND SWAP1 POP DUP1 DUP5 DUP4 DUP2 MLOAD DUP2 LT PUSH2 0x3F2C JUMPI PUSH2 0x3F2C PUSH2 0x5B28 JUMP JUMPDEST PUSH1 0x20 MUL PUSH1 0x20 ADD ADD SWAP1 PUSH1 0x1 PUSH1 0x1 PUSH1 0xA0 SHL SUB AND SWAP1 DUP2 PUSH1 0x1 PUSH1 0x1 PUSH1 0xA0 SHL SUB AND DUP2 MSTORE POP POP DUP6 PUSH1 0x11 ADD PUSH1 0x0 DUP3 PUSH1 0x1 PUSH1 0x1 PUSH1 0xA0 SHL SUB AND PUSH1 0x1 PUSH1 0x1 PUSH1 0xA0 SHL SUB AND DUP2 MSTORE PUSH1 0x20 ADD SWAP1 DUP2 MSTORE PUSH1 0x20 ADD PUSH1 0x0 KECCAK256 SLOAD DUP4 DUP4 DUP2 MLOAD DUP2 LT PUSH2 0x3F86 JUMPI PUSH2 0x3F86 PUSH2 0x5B28 JUMP JUMPDEST PUSH1 0x20 SWAP1 DUP2 MUL SWAP2 SWAP1 SWAP2 ADD ADD MSTORE POP DUP1 PUSH2 0x3F9C DUP2 PUSH2 0x5B54 JUMP JUMPDEST SWAP2 POP POP PUSH2 0x3EDA JUMP JUMPDEST POP PUSH1 0xA DUP4 GT ISZERO PUSH2 0x43DC JUMPI PUSH1 0x0 JUMPDEST PUSH2 0x3FBC PUSH1 0x1 DUP6 PUSH2 0x5BA5 JUMP JUMPDEST DUP2 LT ISZERO PUSH2 0x4160 JUMPI PUSH1 0x0 JUMPDEST PUSH1 0x1 PUSH2 0x3FD2 DUP4 DUP8 PUSH2 0x5BA5 JUMP JUMPDEST PUSH2 0x3FDC SWAP2 SWAP1 PUSH2 0x5BA5 JUMP JUMPDEST DUP2 LT ISZERO PUSH2 0x414D JUMPI DUP3 PUSH2 0x3FEF DUP3 PUSH1 0x1 PUSH2 0x5BD2 JUMP JUMPDEST DUP2 MLOAD DUP2 LT PUSH2 0x3FFF JUMPI PUSH2 0x3FFF PUSH2 0x5B28 JUMP JUMPDEST PUSH1 0x20 MUL PUSH1 0x20 ADD ADD MLOAD DUP4 DUP3 DUP2 MLOAD DUP2 LT PUSH2 0x4019 JUMPI PUSH2 0x4019 PUSH2 0x5B28 JUMP JUMPDEST PUSH1 0x20 MUL PUSH1 0x20 ADD ADD MLOAD LT ISZERO PUSH2 0x413B JUMPI DUP3 PUSH2 0x4033 DUP3 PUSH1 0x1 PUSH2 0x5BD2 JUMP JUMPDEST DUP2 MLOAD DUP2 LT PUSH2 0x4043 JUMPI PUSH2 0x4043 PUSH2 0x5B28 JUMP JUMPDEST PUSH1 0x20 MUL PUSH1 0x20 ADD ADD MLOAD DUP4 DUP3 DUP2 MLOAD DUP2 LT PUSH2 0x405D JUMPI PUSH2 0x405D PUSH2 0x5B28 JUMP JUMPDEST PUSH1 0x20 MUL PUSH1 0x20 ADD ADD MLOAD DUP5 DUP4 DUP2 MLOAD DUP2 LT PUSH2 0x4077 JUMPI PUSH2 0x4077 PUSH2 0x5B28 JUMP JUMPDEST PUSH1 0x20 MUL PUSH1 0x20 ADD ADD DUP6 DUP5 PUSH1 0x1 PUSH2 0x408C SWAP2 SWAP1 PUSH2 0x5BD2 JUMP JUMPDEST DUP2 MLOAD DUP2 LT PUSH2 0x409C JUMPI PUSH2 0x409C PUSH2 0x5B28 JUMP JUMPDEST PUSH1 0x20 SWAP1 DUP2 MUL SWAP2 SWAP1 SWAP2 ADD ADD SWAP2 SWAP1 SWAP2 MSTORE MSTORE DUP4 PUSH2 0x40B7 DUP3 PUSH1 0x1 PUSH2 0x5BD2 JUMP JUMPDEST DUP2 MLOAD DUP2 LT PUSH2 0x40C7 JUMPI PUSH2 0x40C7 PUSH2 0x5B28 JUMP JUMPDEST PUSH1 0x20 MUL PUSH1 0x20 ADD ADD MLOAD DUP5 DUP3 DUP2 MLOAD DUP2 LT PUSH2 0x40E1 JUMPI PUSH2 0x40E1 PUSH2 0x5B28 JUMP JUMPDEST PUSH1 0x20 MUL PUSH1 0x20 ADD ADD MLOAD DUP6 DUP4 DUP2 MLOAD DUP2 LT PUSH2 0x40FB JUMPI PUSH2 0x40FB PUSH2 0x5B28 JUMP JUMPDEST PUSH1 0x20 MUL PUSH1 0x20 ADD ADD DUP7 DUP5 PUSH1 0x1 PUSH2 0x4110 SWAP2 SWAP1 PUSH2 0x5BD2 JUMP JUMPDEST DUP2 MLOAD DUP2 LT PUSH2 0x4120 JUMPI PUSH2 0x4120 PUSH2 0x5B28 JUMP JUMPDEST PUSH1 0x1 PUSH1 0x1 PUSH1 0xA0 SHL SUB SWAP4 DUP5 AND PUSH1 0x20 SWAP2 DUP3 MUL SWAP3 SWAP1 SWAP3 ADD ADD MSTORE SWAP2 AND SWAP1 MSTORE JUMPDEST DUP1 PUSH2 0x4145 DUP2 PUSH2 0x5B54 JUMP JUMPDEST SWAP2 POP POP PUSH2 0x3FC6 JUMP JUMPDEST POP DUP1 PUSH2 0x4158 DUP2 PUSH2 0x5B54 JUMP JUMPDEST SWAP2 POP POP PUSH2 0x3FB1 JUMP JUMPDEST POP PUSH1 0x0 PUSH1 0x64 PUSH2 0x4170 DUP6 PUSH1 0x5 PUSH2 0x5C1E JUMP JUMPDEST PUSH2 0x417A SWAP2 SWAP1 PUSH2 0x5C3D JUMP JUMPDEST SWAP1 POP PUSH1 0x0 JUMPDEST DUP2 DUP2 LT ISZERO PUSH2 0x423B JUMPI DUP6 PUSH1 0x12 ADD DUP5 DUP3 DUP2 MLOAD DUP2 LT PUSH2 0x419D JUMPI PUSH2 0x419D PUSH2 0x5B28 JUMP JUMPDEST PUSH1 0x20 SWAP1 DUP2 MUL SWAP2 SWAP1 SWAP2 ADD DUP2 ADD MLOAD DUP3 SLOAD PUSH1 0x1 DUP2 ADD DUP5 SSTORE PUSH1 0x0 SWAP4 DUP5 MSTORE SWAP2 DUP4 KECCAK256 SWAP1 SWAP2 ADD DUP1 SLOAD PUSH1 0x1 PUSH1 0x1 PUSH1 0xA0 SHL SUB NOT AND PUSH1 0x1 PUSH1 0x1 PUSH1 0xA0 SHL SUB SWAP1 SWAP3 AND SWAP2 SWAP1 SWAP2 OR SWAP1 SSTORE DUP5 MLOAD PUSH1 0xA SWAP2 SWAP1 DUP7 SWAP1 DUP5 SWAP1 DUP2 LT PUSH2 0x41F1 JUMPI PUSH2 0x41F1 PUSH2 0x5B28 JUMP JUMPDEST PUSH1 0x20 SWAP1 DUP2 MUL SWAP2 SWAP1 SWAP2 ADD DUP2 ADD MLOAD PUSH1 0x1 PUSH1 0x1 PUSH1 0xA0 SHL SUB AND DUP3 MSTORE DUP2 DUP2 ADD SWAP3 SWAP1 SWAP3 MSTORE PUSH1 0x40 ADD PUSH1 0x0 SWAP1 DUP2 KECCAK256 DUP1 SLOAD PUSH1 0x1 DUP2 ADD DUP3 SSTORE SWAP1 DUP3 MSTORE SWAP2 SWAP1 KECCAK256 ADD DUP11 SWAP1 SSTORE DUP1 PUSH2 0x4233 DUP2 PUSH2 0x5B54 JUMP JUMPDEST SWAP2 POP POP PUSH2 0x417F JUMP JUMPDEST POP PUSH1 0x0 PUSH2 0x4248 DUP3 DUP7 PUSH2 0x5BA5 JUMP JUMPDEST SWAP1 POP DUP1 PUSH1 0x0 SUB PUSH2 0x425D JUMPI POP POP POP POP POP POP PUSH2 0x4506 JUMP JUMPDEST PUSH1 0x0 DUP2 PUSH8 0xFFFFFFFFFFFFFFFF DUP2 GT ISZERO PUSH2 0x4278 JUMPI PUSH2 0x4278 PUSH2 0x5375 JUMP JUMPDEST PUSH1 0x40 MLOAD SWAP1 DUP1 DUP3 MSTORE DUP1 PUSH1 0x20 MUL PUSH1 0x20 ADD DUP3 ADD PUSH1 0x40 MSTORE DUP1 ISZERO PUSH2 0x42A1 JUMPI DUP2 PUSH1 0x20 ADD PUSH1 0x20 DUP3 MUL DUP1 CALLDATASIZE DUP4 CALLDATACOPY ADD SWAP1 POP JUMPDEST POP SWAP1 POP PUSH1 0x0 DUP4 JUMPDEST DUP8 DUP2 LT ISZERO PUSH2 0x4312 JUMPI DUP7 DUP2 DUP2 MLOAD DUP2 LT PUSH2 0x42C2 JUMPI PUSH2 0x42C2 PUSH2 0x5B28 JUMP JUMPDEST PUSH1 0x20 MUL PUSH1 0x20 ADD ADD MLOAD DUP4 DUP4 DUP1 PUSH2 0x42D6 SWAP1 PUSH2 0x5B54 JUMP JUMPDEST SWAP5 POP DUP2 MLOAD DUP2 LT PUSH2 0x42E8 JUMPI PUSH2 0x42E8 PUSH2 0x5B28 JUMP JUMPDEST PUSH1 0x1 PUSH1 0x1 PUSH1 0xA0 SHL SUB SWAP1 SWAP3 AND PUSH1 0x20 SWAP3 DUP4 MUL SWAP2 SWAP1 SWAP2 ADD SWAP1 SWAP2 ADD MSTORE DUP1 PUSH2 0x430A DUP2 PUSH2 0x5B54 JUMP JUMPDEST SWAP2 POP POP PUSH2 0x42A8 JUMP JUMPDEST POP PUSH1 0x0 JUMPDEST DUP4 DUP2 LT ISZERO PUSH2 0x43D2 JUMPI DUP9 PUSH1 0x13 ADD DUP4 DUP3 DUP2 MLOAD DUP2 LT PUSH2 0x4334 JUMPI PUSH2 0x4334 PUSH2 0x5B28 JUMP JUMPDEST PUSH1 0x20 SWAP1 DUP2 MUL SWAP2 SWAP1 SWAP2 ADD DUP2 ADD MLOAD DUP3 SLOAD PUSH1 0x1 DUP2 ADD DUP5 SSTORE PUSH1 0x0 SWAP4 DUP5 MSTORE SWAP2 DUP4 KECCAK256 SWAP1 SWAP2 ADD DUP1 SLOAD PUSH1 0x1 PUSH1 0x1 PUSH1 0xA0 SHL SUB NOT AND PUSH1 0x1 PUSH1 0x1 PUSH1 0xA0 SHL SUB SWAP1 SWAP3 AND SWAP2 SWAP1 SWAP2 OR SWAP1 SSTORE DUP4 MLOAD PUSH1 0xA SWAP2 SWAP1 DUP6 SWAP1 DUP5 SWAP1 DUP2 LT PUSH2 0x4388 JUMPI PUSH2 0x4388 PUSH2 0x5B28 JUMP JUMPDEST PUSH1 0x20 SWAP1 DUP2 MUL SWAP2 SWAP1 SWAP2 ADD DUP2 ADD MLOAD PUSH1 0x1 PUSH1 0x1 PUSH1 0xA0 SHL SUB AND DUP3 MSTORE DUP2 DUP2 ADD SWAP3 SWAP1 SWAP3 MSTORE PUSH1 0x40 ADD PUSH1 0x0 SWAP1 DUP2 KECCAK256 DUP1 SLOAD PUSH1 0x1 DUP2 ADD DUP3 SSTORE SWAP1 DUP3 MSTORE SWAP2 SWAP1 KECCAK256 ADD DUP14 SWAP1 SSTORE DUP1 PUSH2 0x43CA DUP2 PUSH2 0x5B54 JUMP JUMPDEST SWAP2 POP POP PUSH2 0x4316 JUMP JUMPDEST POP POP POP POP POP PUSH2 0x449D JUMP JUMPDEST PUSH1 0x0 JUMPDEST DUP4 DUP2 LT ISZERO PUSH2 0x449B JUMPI DUP5 PUSH1 0x13 ADD DUP4 DUP3 DUP2 MLOAD DUP2 LT PUSH2 0x43FD JUMPI PUSH2 0x43FD PUSH2 0x5B28 JUMP JUMPDEST PUSH1 0x20 SWAP1 DUP2 MUL SWAP2 SWAP1 SWAP2 ADD DUP2 ADD MLOAD DUP3 SLOAD PUSH1 0x1 DUP2 ADD DUP5 SSTORE PUSH1 0x0 SWAP4 DUP5 MSTORE SWAP2 DUP4 KECCAK256 SWAP1 SWAP2 ADD DUP1 SLOAD PUSH1 0x1 PUSH1 0x1 PUSH1 0xA0 SHL SUB NOT AND PUSH1 0x1 PUSH1 0x1 PUSH1 0xA0 SHL SUB SWAP1 SWAP3 AND SWAP2 SWAP1 SWAP2 OR SWAP1 SSTORE DUP4 MLOAD PUSH1 0xA SWAP2 SWAP1 DUP6 SWAP1 DUP5 SWAP1 DUP2 LT PUSH2 0x4451 JUMPI PUSH2 0x4451 PUSH2 0x5B28 JUMP JUMPDEST PUSH1 0x20 SWAP1 DUP2 MUL SWAP2 SWAP1 SWAP2 ADD DUP2 ADD MLOAD PUSH1 0x1 PUSH1 0x1 PUSH1 0xA0 SHL SUB AND DUP3 MSTORE DUP2 DUP2 ADD SWAP3 SWAP1 SWAP3 MSTORE PUSH1 0x40 ADD PUSH1 0x0 SWAP1 DUP2 KECCAK256 DUP1 SLOAD PUSH1 0x1 DUP2 ADD DUP3 SSTORE SWAP1 DUP3 MSTORE SWAP2 SWAP1 KECCAK256 ADD DUP10 SWAP1 SSTORE DUP1 PUSH2 0x4493 DUP2 PUSH2 0x5B54 JUMP JUMPDEST SWAP2 POP POP PUSH2 0x43DF JUMP JUMPDEST POP JUMPDEST PUSH1 0x4 DUP5 ADD SLOAD PUSH1 0x13 DUP6 ADD SLOAD PUSH1 0x12 DUP7 ADD SLOAD PUSH2 0x44B6 SWAP2 SWAP1 PUSH2 0x5BD2 JUMP JUMPDEST PUSH2 0x44C0 SWAP2 SWAP1 PUSH2 0x5BD2 JUMP JUMPDEST PUSH1 0x14 DUP6 ADD DUP1 SLOAD PUSH1 0xFF NOT AND PUSH1 0xFF SWAP3 SWAP1 SWAP3 AND SWAP2 SWAP1 SWAP2 OR SWAP1 SSTORE PUSH1 0x40 MLOAD DUP9 SWAP1 PUSH32 0xD312A8F16F4214218CB0334DA9A62AA94A5BF7C208659435E4B35B5A4B7D4408 SWAP1 PUSH1 0x0 SWAP1 LOG2 POP POP POP POP JUMPDEST POP POP POP POP JUMP JUMPDEST PUSH1 0x0 DUP3 DUP2 MSTORE PUSH1 0x7 PUSH1 0x20 MSTORE PUSH1 0x40 DUP2 KECCAK256 DUP4 SWAP2 DUP1 JUMPDEST PUSH1 0x4 DUP4 ADD SLOAD PUSH1 0xFF DUP3 AND LT ISZERO PUSH2 0x4571 JUMPI DUP3 PUSH1 0x4 ADD DUP2 PUSH1 0xFF AND DUP2 SLOAD DUP2 LT PUSH2 0x4545 JUMPI PUSH2 0x4545 PUSH2 0x5B28 JUMP JUMPDEST PUSH1 0x0 SWAP2 DUP3 MSTORE PUSH1 0x20 SWAP1 SWAP2 KECCAK256 ADD SLOAD PUSH1 0x1 PUSH1 0x1 PUSH1 0xA0 SHL SUB AND CALLER SUB PUSH2 0x4569 JUMPI PUSH1 0x1 SWAP2 POP PUSH2 0x4571 JUMP JUMPDEST PUSH1 0x1 ADD PUSH2 0x451E JUMP JUMPDEST POP DUP1 PUSH2 0x45E5 JUMPI PUSH1 0x40 MLOAD PUSH3 0x461BCD PUSH1 0xE5 SHL DUP2 MSTORE PUSH1 0x20 PUSH1 0x4 DUP3 ADD MSTORE PUSH1 0x3D PUSH1 0x24 DUP3 ADD MSTORE PUSH32 0x54686520616374696F6E2063616E206F6E6C7920626520706572666F726D6564 PUSH1 0x44 DUP3 ADD MSTORE PUSH32 0x206279206F7267616E697A657273206F66207468652070726F6A656374000000 PUSH1 0x64 DUP3 ADD MSTORE PUSH1 0x84 ADD PUSH2 0x788 JUMP JUMPDEST PUSH1 0x0 DUP6 DUP2 MSTORE PUSH1 0x7 PUSH1 0x20 MSTORE PUSH1 0x40 SWAP1 KECCAK256 PUSH1 0xC ADD SLOAD DUP6 SWAP1 PUSH1 0xFF AND PUSH2 0x466E JUMPI PUSH1 0x40 MLOAD PUSH3 0x461BCD PUSH1 0xE5 SHL DUP2 MSTORE PUSH1 0x20 PUSH1 0x4 DUP3 ADD MSTORE PUSH1 0x31 PUSH1 0x24 DUP3 ADD MSTORE PUSH32 0x54686520616374696F6E2063616E206F6E6C792068617070656E206F6E20616E PUSH1 0x44 DUP3 ADD MSTORE PUSH32 0x20617070726F7665642070726F6A656374000000000000000000000000000000 PUSH1 0x64 DUP3 ADD MSTORE PUSH1 0x84 ADD PUSH2 0x788 JUMP JUMPDEST PUSH1 0x0 DUP7 DUP2 MSTORE PUSH1 0x8 PUSH1 0x20 SWAP1 DUP2 MSTORE PUSH1 0x40 DUP1 DUP4 KECCAK256 DUP9 DUP5 MSTORE DUP3 MSTORE DUP1 DUP4 KECCAK256 DUP10 DUP5 MSTORE PUSH1 0x7 SWAP1 SWAP3 MSTORE SWAP1 SWAP2 KECCAK256 PUSH1 0x1 DUP1 DUP4 ADD SLOAD PUSH1 0xFF AND PUSH1 0x3 DUP2 GT ISZERO PUSH2 0x46AC JUMPI PUSH2 0x46AC PUSH2 0x5965 JUMP JUMPDEST EQ PUSH2 0x471F JUMPI PUSH1 0x40 MLOAD PUSH3 0x461BCD PUSH1 0xE5 SHL DUP2 MSTORE PUSH1 0x20 PUSH1 0x4 DUP3 ADD MSTORE PUSH1 0x30 PUSH1 0x24 DUP3 ADD MSTORE PUSH32 0x52657175657374206D7573742062652066756C6C7920617070726F7665642074 PUSH1 0x44 DUP3 ADD MSTORE PUSH32 0x6F2077697468647261772066756E647300000000000000000000000000000000 PUSH1 0x64 DUP3 ADD MSTORE PUSH1 0x84 ADD PUSH2 0x788 JUMP JUMPDEST DUP2 PUSH1 0x8 ADD SLOAD DUP2 PUSH1 0x10 ADD SLOAD DUP3 PUSH1 0xF ADD SLOAD PUSH2 0x4738 SWAP2 SWAP1 PUSH2 0x5BA5 JUMP JUMPDEST LT ISZERO PUSH2 0x4790 JUMPI PUSH1 0x40 MLOAD PUSH3 0x461BCD PUSH1 0xE5 SHL DUP2 MSTORE PUSH1 0x20 PUSH1 0x4 DUP3 ADD MSTORE PUSH1 0x21 PUSH1 0x24 DUP3 ADD MSTORE PUSH32 0x496E73756666696369656E742066756E647320696E207468652070726F6A6563 PUSH1 0x44 DUP3 ADD MSTORE PUSH1 0x1D PUSH1 0xFA SHL PUSH1 0x64 DUP3 ADD MSTORE PUSH1 0x84 ADD PUSH2 0x788 JUMP JUMPDEST DUP2 PUSH1 0x8 ADD SLOAD DUP2 PUSH1 0x10 ADD PUSH1 0x0 DUP3 DUP3 SLOAD PUSH2 0x47A8 SWAP2 SWAP1 PUSH2 0x5BD2 JUMP JUMPDEST SWAP1 SWAP2 SSTORE POP POP PUSH1 0x8 DUP3 ADD SLOAD PUSH1 0x5 DUP1 SLOAD PUSH1 0x0 SWAP1 PUSH2 0x47C4 SWAP1 DUP5 SWAP1 PUSH2 0x5BD2 JUMP JUMPDEST SWAP1 SWAP2 SSTORE POP POP PUSH1 0x1 DUP3 ADD DUP1 SLOAD PUSH1 0x3 PUSH1 0xFF NOT SWAP1 SWAP2 AND OR SWAP1 DUP2 SWAP1 SSTORE PUSH1 0x8 DUP4 ADD SLOAD PUSH1 0x40 MLOAD PUSH2 0x100 SWAP1 SWAP3 DIV PUSH1 0x1 PUSH1 0x1 PUSH1 0xA0 SHL SUB AND SWAP2 PUSH2 0x8FC DUP3 ISZERO MUL SWAP2 SWAP1 PUSH1 0x0 DUP2 DUP2 DUP2 DUP6 DUP9 DUP9 CALL SWAP4 POP POP POP POP ISZERO DUP1 ISZERO PUSH2 0x481B JUMPI RETURNDATASIZE PUSH1 0x0 DUP1 RETURNDATACOPY RETURNDATASIZE PUSH1 0x0 REVERT JUMPDEST POP DUP8 PUSH32 0xEF687A8F1519B4C5091105CBC704634D2F17927BA995F9044C74476DC623C046 DUP9 DUP5 PUSH1 0x8 ADD SLOAD PUSH1 0x40 MLOAD PUSH2 0x485B SWAP3 SWAP2 SWAP1 SWAP2 DUP3 MSTORE PUSH1 0x20 DUP3 ADD MSTORE PUSH1 0x40 ADD SWAP1 JUMP JUMPDEST PUSH1 0x40 MLOAD DUP1 SWAP2 SUB SWAP1 LOG2 POP POP POP POP POP POP POP POP JUMP JUMPDEST PUSH1 0x60 DUP2 PUSH1 0xFF AND PUSH1 0x0 SUB PUSH2 0x48E7 JUMPI PUSH1 0x0 DUP4 DUP2 MSTORE PUSH1 0x7 PUSH1 0x20 SWAP1 DUP2 MSTORE PUSH1 0x40 SWAP2 DUP3 SWAP1 KECCAK256 PUSH1 0x4 ADD DUP1 SLOAD DUP4 MLOAD DUP2 DUP5 MUL DUP2 ADD DUP5 ADD SWAP1 SWAP5 MSTORE DUP1 DUP5 MSTORE SWAP1 SWAP2 DUP4 ADD DUP3 DUP3 DUP1 ISZERO PUSH2 0x48DB JUMPI PUSH1 0x20 MUL DUP3 ADD SWAP2 SWAP1 PUSH1 0x0 MSTORE PUSH1 0x20 PUSH1 0x0 KECCAK256 SWAP1 JUMPDEST DUP2 SLOAD PUSH1 0x1 PUSH1 0x1 PUSH1 0xA0 SHL SUB AND DUP2 MSTORE PUSH1 0x1 SWAP1 SWAP2 ADD SWAP1 PUSH1 0x20 ADD DUP1 DUP4 GT PUSH2 0x48BD JUMPI JUMPDEST POP POP POP POP POP SWAP1 POP PUSH2 0x1863 JUMP JUMPDEST DUP2 PUSH1 0xFF AND PUSH1 0x1 SUB PUSH2 0x495D JUMPI PUSH1 0x0 DUP4 DUP2 MSTORE PUSH1 0x7 PUSH1 0x20 SWAP1 DUP2 MSTORE PUSH1 0x40 SWAP2 DUP3 SWAP1 KECCAK256 PUSH1 0xE ADD DUP1 SLOAD DUP4 MLOAD DUP2 DUP5 MUL DUP2 ADD DUP5 ADD SWAP1 SWAP5 MSTORE DUP1 DUP5 MSTORE SWAP1 SWAP2 DUP4 ADD DUP3 DUP3 DUP1 ISZERO PUSH2 0x48DB JUMPI PUSH1 0x20 MUL DUP3 ADD SWAP2 SWAP1 PUSH1 0x0 MSTORE PUSH1 0x20 PUSH1 0x0 KECCAK256 SWAP1 DUP2 SLOAD PUSH1 0x1 PUSH1 0x1 PUSH1 0xA0 SHL SUB AND DUP2 MSTORE PUSH1 0x1 SWAP1 SWAP2 ADD SWAP1 PUSH1 0x20 ADD DUP1 DUP4 GT PUSH2 0x48BD JUMPI POP POP POP POP POP SWAP1 POP PUSH2 0x1863 JUMP JUMPDEST DUP2 PUSH1 0xFF AND PUSH1 0x2 SUB PUSH2 0x49D3 JUMPI PUSH1 0x0 DUP4 DUP2 MSTORE PUSH1 0x7 PUSH1 0x20 SWAP1 DUP2 MSTORE PUSH1 0x40 SWAP2 DUP3 SWAP1 KECCAK256 PUSH1 0x12 ADD DUP1 SLOAD DUP4 MLOAD DUP2 DUP5 MUL DUP2 ADD DUP5 ADD SWAP1 SWAP5 MSTORE DUP1 DUP5 MSTORE SWAP1 SWAP2 DUP4 ADD DUP3 DUP3 DUP1 ISZERO PUSH2 0x48DB JUMPI PUSH1 0x20 MUL DUP3 ADD SWAP2 SWAP1 PUSH1 0x0 MSTORE PUSH1 0x20 PUSH1 0x0 KECCAK256 SWAP1 DUP2 SLOAD PUSH1 0x1 PUSH1 0x1 PUSH1 0xA0 SHL SUB AND DUP2 MSTORE PUSH1 0x1 SWAP1 SWAP2 ADD SWAP1 PUSH1 0x20 ADD DUP1 DUP4 GT PUSH2 0x48BD JUMPI POP POP POP POP POP SWAP1 POP PUSH2 0x1863 JUMP JUMPDEST DUP2 PUSH1 0xFF AND PUSH1 0x2 SUB PUSH2 0xFCF JUMPI PUSH1 0x0 DUP4 DUP2 MSTORE PUSH1 0x7 PUSH1 0x20 SWAP1 DUP2 MSTORE PUSH1 0x40 SWAP2 DUP3 SWAP1 KECCAK256 PUSH1 0x13 ADD DUP1 SLOAD DUP4 MLOAD DUP2 DUP5 MUL DUP2 ADD DUP5 ADD SWAP1 SWAP5 MSTORE DUP1 DUP5 MSTORE SWAP1 SWAP2 DUP4 ADD DUP3 DUP3 DUP1 ISZERO PUSH2 0x48DB JUMPI PUSH1 0x20 MUL DUP3 ADD SWAP2 SWAP1 PUSH1 0x0 MSTORE PUSH1 0x20 PUSH1 0x0 KECCAK256 SWAP1 DUP2 SLOAD PUSH1 0x1 PUSH1 0x1 PUSH1 0xA0 SHL SUB AND DUP2 MSTORE PUSH1 0x1 SWAP1 SWAP2 ADD SWAP1 PUSH1 0x20 ADD DUP1 DUP4 GT PUSH2 0x48BD JUMPI POP POP POP POP POP SWAP1 POP PUSH2 0x1863 JUMP JUMPDEST PUSH1 0x0 DUP1 SLOAD PUSH1 0x1 PUSH1 0x1 PUSH1 0xA0 SHL SUB AND CALLER EQ DUP1 PUSH2 0x3D24 JUMPI PUSH1 0x0 JUMPDEST PUSH1 0x1 SLOAD DUP2 LT ISZERO PUSH2 0x4AA9 JUMPI PUSH1 0x1 DUP2 DUP2 SLOAD DUP2 LT PUSH2 0x4A7D JUMPI PUSH2 0x4A7D PUSH2 0x5B28 JUMP JUMPDEST PUSH1 0x0 SWAP2 DUP3 MSTORE PUSH1 0x20 SWAP1 SWAP2 KECCAK256 ADD SLOAD PUSH1 0x1 PUSH1 0x1 PUSH1 0xA0 SHL SUB AND CALLER SUB PUSH2 0x4AA1 JUMPI PUSH1 0x1 SWAP2 POP PUSH2 0x4AA9 JUMP JUMPDEST PUSH1 0x1 ADD PUSH2 0x4A60 JUMP JUMPDEST POP SWAP2 SWAP1 POP JUMP JUMPDEST PUSH1 0x0 DUP7 DUP2 MSTORE PUSH1 0x7 PUSH1 0x20 MSTORE PUSH1 0x40 DUP2 KECCAK256 DUP8 SWAP2 DUP1 JUMPDEST PUSH1 0x4 DUP4 ADD SLOAD PUSH1 0xFF DUP3 AND LT ISZERO PUSH2 0x4B14 JUMPI DUP3 PUSH1 0x4 ADD DUP2 PUSH1 0xFF AND DUP2 SLOAD DUP2 LT PUSH2 0x4AE8 JUMPI PUSH2 0x4AE8 PUSH2 0x5B28 JUMP JUMPDEST PUSH1 0x0 SWAP2 DUP3 MSTORE PUSH1 0x20 SWAP1 SWAP2 KECCAK256 ADD SLOAD PUSH1 0x1 PUSH1 0x1 PUSH1 0xA0 SHL SUB AND CALLER SUB PUSH2 0x4B0C JUMPI PUSH1 0x1 SWAP2 POP PUSH2 0x4B14 JUMP JUMPDEST PUSH1 0x1 ADD PUSH2 0x4AC1 JUMP JUMPDEST POP DUP1 PUSH2 0x4B88 JUMPI PUSH1 0x40 MLOAD PUSH3 0x461BCD PUSH1 0xE5 SHL DUP2 MSTORE PUSH1 0x20 PUSH1 0x4 DUP3 ADD MSTORE PUSH1 0x3D PUSH1 0x24 DUP3 ADD MSTORE PUSH32 0x54686520616374696F6E2063616E206F6E6C7920626520706572666F726D6564 PUSH1 0x44 DUP3 ADD MSTORE PUSH32 0x206279206F7267616E697A657273206F66207468652070726F6A656374000000 PUSH1 0x64 DUP3 ADD MSTORE PUSH1 0x84 ADD PUSH2 0x788 JUMP JUMPDEST PUSH1 0x0 DUP1 DUP6 PUSH1 0x3 DUP2 GT ISZERO PUSH2 0x4B9D JUMPI PUSH2 0x4B9D PUSH2 0x5965 JUMP JUMPDEST SUB PUSH2 0x4BB9 JUMPI POP PUSH1 0x0 DUP10 DUP2 MSTORE PUSH1 0x7 PUSH1 0x20 MSTORE PUSH1 0x40 SWAP1 KECCAK256 PUSH1 0x8 ADD PUSH2 0x4C45 JUMP JUMPDEST PUSH1 0x2 DUP6 PUSH1 0x3 DUP2 GT ISZERO PUSH2 0x4BCD JUMPI PUSH2 0x4BCD PUSH2 0x5965 JUMP JUMPDEST SUB PUSH2 0x4BE9 JUMPI POP PUSH1 0x0 DUP10 DUP2 MSTORE PUSH1 0x7 PUSH1 0x20 MSTORE PUSH1 0x40 SWAP1 KECCAK256 PUSH1 0xA ADD PUSH2 0x4C45 JUMP JUMPDEST PUSH1 0x1 DUP6 PUSH1 0x3 DUP2 GT ISZERO PUSH2 0x4BFD JUMPI PUSH2 0x4BFD PUSH2 0x5965 JUMP JUMPDEST SUB PUSH2 0x4C19 JUMPI POP PUSH1 0x0 DUP10 DUP2 MSTORE PUSH1 0x7 PUSH1 0x20 MSTORE PUSH1 0x40 SWAP1 KECCAK256 PUSH1 0x9 ADD PUSH2 0x4C45 JUMP JUMPDEST PUSH1 0x3 DUP6 PUSH1 0x3 DUP2 GT ISZERO PUSH2 0x4C2D JUMPI PUSH2 0x4C2D PUSH2 0x5965 JUMP JUMPDEST SUB PUSH2 0x9A9 JUMPI POP PUSH1 0x0 DUP10 DUP2 MSTORE PUSH1 0x7 PUSH1 0x20 MSTORE PUSH1 0x40 SWAP1 KECCAK256 PUSH1 0xB ADD JUMPDEST DUP1 SLOAD DUP10 LT PUSH2 0x4C95 JUMPI PUSH1 0x40 MLOAD PUSH3 0x461BCD PUSH1 0xE5 SHL DUP2 MSTORE PUSH1 0x20 PUSH1 0x4 DUP3 ADD MSTORE PUSH1 0x18 PUSH1 0x24 DUP3 ADD MSTORE PUSH32 0x496E76616C6964204D65646961204974656D20496E6465780000000000000000 PUSH1 0x44 DUP3 ADD MSTORE PUSH1 0x64 ADD PUSH2 0x788 JUMP JUMPDEST PUSH1 0x0 DUP2 DUP11 DUP2 SLOAD DUP2 LT PUSH2 0x4CA9 JUMPI PUSH2 0x4CA9 PUSH2 0x5B28 JUMP JUMPDEST PUSH1 0x0 SWAP2 DUP3 MSTORE PUSH1 0x20 SWAP2 DUP3 SWAP1 KECCAK256 DUP12 MLOAD PUSH1 0x4 SWAP1 SWAP3 MUL ADD SWAP3 POP PUSH2 0x4CCD SWAP2 DUP4 SWAP2 SWAP1 DUP13 ADD SWAP1 PUSH2 0x51CF JUMP JUMPDEST POP DUP8 MLOAD PUSH2 0x4CE3 SWAP1 PUSH1 0x1 DUP4 ADD SWAP1 PUSH1 0x20 DUP12 ADD SWAP1 PUSH2 0x51CF JUMP JUMPDEST POP DUP7 MLOAD PUSH2 0xE71 SWAP1 PUSH1 0x3 DUP4 ADD SWAP1 PUSH1 0x20 DUP11 ADD SWAP1 PUSH2 0x51CF JUMP JUMPDEST PUSH1 0x0 SLOAD PUSH1 0x1 PUSH1 0x1 PUSH1 0xA0 SHL SUB AND CALLER EQ DUP1 PUSH2 0x4D5A JUMPI PUSH1 0x0 JUMPDEST PUSH1 0x1 SLOAD DUP2 LT ISZERO PUSH2 0x4D58 JUMPI PUSH1 0x1 DUP2 DUP2 SLOAD DUP2 LT PUSH2 0x4D2C JUMPI PUSH2 0x4D2C PUSH2 0x5B28 JUMP JUMPDEST PUSH1 0x0 SWAP2 DUP3 MSTORE PUSH1 0x20 SWAP1 SWAP2 KECCAK256 ADD SLOAD PUSH1 0x1 PUSH1 0x1 PUSH1 0xA0 SHL SUB AND CALLER SUB PUSH2 0x4D50 JUMPI PUSH1 0x1 SWAP2 POP PUSH2 0x4D58 JUMP JUMPDEST PUSH1 0x1 ADD PUSH2 0x4D0F JUMP JUMPDEST POP JUMPDEST DUP1 PUSH2 0x4DBA JUMPI PUSH1 0x40 MLOAD PUSH3 0x461BCD PUSH1 0xE5 SHL DUP2 MSTORE PUSH1 0x20 PUSH1 0x4 DUP3 ADD MSTORE PUSH1 0x2A PUSH1 0x24 DUP3 ADD MSTORE PUSH32 0x4F6E6C79206F776E6572206F722073746166662063616E2063616C6C20746869 PUSH1 0x44 DUP3 ADD MSTORE PUSH10 0x3990333AB731BA34B7B7 PUSH1 0xB1 SHL PUSH1 0x64 DUP3 ADD MSTORE PUSH1 0x84 ADD PUSH2 0x788 JUMP JUMPDEST PUSH1 0x0 DUP1 DUP4 PUSH1 0x3 DUP2 GT ISZERO PUSH2 0x4DCF JUMPI PUSH2 0x4DCF PUSH2 0x5965 JUMP JUMPDEST SUB PUSH2 0x4DEB JUMPI POP PUSH1 0x0 DUP5 DUP2 MSTORE PUSH1 0x7 PUSH1 0x20 MSTORE PUSH1 0x40 SWAP1 KECCAK256 PUSH1 0x8 ADD PUSH2 0x4E77 JUMP JUMPDEST PUSH1 0x2 DUP4 PUSH1 0x3 DUP2 GT ISZERO PUSH2 0x4DFF JUMPI PUSH2 0x4DFF PUSH2 0x5965 JUMP JUMPDEST SUB PUSH2 0x4E1B JUMPI POP PUSH1 0x0 DUP5 DUP2 MSTORE PUSH1 0x7 PUSH1 0x20 MSTORE PUSH1 0x40 SWAP1 KECCAK256 PUSH1 0xA ADD PUSH2 0x4E77 JUMP JUMPDEST PUSH1 0x1 DUP4 PUSH1 0x3 DUP2 GT ISZERO PUSH2 0x4E2F JUMPI PUSH2 0x4E2F PUSH2 0x5965 JUMP JUMPDEST SUB PUSH2 0x4E4B JUMPI POP PUSH1 0x0 DUP5 DUP2 MSTORE PUSH1 0x7 PUSH1 0x20 MSTORE PUSH1 0x40 SWAP1 KECCAK256 PUSH1 0x9 ADD PUSH2 0x4E77 JUMP JUMPDEST PUSH1 0x3 DUP4 PUSH1 0x3 DUP2 GT ISZERO PUSH2 0x4E5F JUMPI PUSH2 0x4E5F PUSH2 0x5965 JUMP JUMPDEST SUB PUSH2 0x9A9 JUMPI POP PUSH1 0x0 DUP5 DUP2 MSTORE PUSH1 0x7 PUSH1 0x20 MSTORE PUSH1 0x40 SWAP1 KECCAK256 PUSH1 0xB ADD JUMPDEST DUP1 SLOAD DUP5 LT PUSH2 0x4EC7 JUMPI PUSH1 0x40 MLOAD PUSH3 0x461BCD PUSH1 0xE5 SHL DUP2 MSTORE PUSH1 0x20 PUSH1 0x4 DUP3 ADD MSTORE PUSH1 0x18 PUSH1 0x24 DUP3 ADD MSTORE PUSH32 0x496E76616C6964204D65646961204974656D20496E6465780000000000000000 PUSH1 0x44 DUP3 ADD MSTORE PUSH1 0x64 ADD PUSH2 0x788 JUMP JUMPDEST DUP1 SLOAD DUP2 SWAP1 PUSH2 0x4ED7 SWAP1 PUSH1 0x1 SWAP1 PUSH2 0x5BA5 JUMP JUMPDEST DUP2 SLOAD DUP2 LT PUSH2 0x4EE7 JUMPI PUSH2 0x4EE7 PUSH2 0x5B28 JUMP JUMPDEST SWAP1 PUSH1 0x0 MSTORE PUSH1 0x20 PUSH1 0x0 KECCAK256 SWAP1 PUSH1 0x4 MUL ADD DUP2 DUP6 DUP2 SLOAD DUP2 LT PUSH2 0x4F07 JUMPI PUSH2 0x4F07 PUSH2 0x5B28 JUMP JUMPDEST SWAP1 PUSH1 0x0 MSTORE PUSH1 0x20 PUSH1 0x0 KECCAK256 SWAP1 PUSH1 0x4 MUL ADD PUSH1 0x0 DUP3 ADD DUP2 PUSH1 0x0 ADD SWAP1 DUP1 SLOAD PUSH2 0x4F29 SWAP1 PUSH2 0x5BEA JUMP JUMPDEST PUSH2 0x4F34 SWAP3 SWAP2 SWAP1 PUSH2 0x52A8 JUMP JUMPDEST POP PUSH1 0x1 DUP3 ADD DUP2 PUSH1 0x1 ADD SWAP1 DUP1 SLOAD PUSH2 0x4F49 SWAP1 PUSH2 0x5BEA JUMP JUMPDEST PUSH2 0x4F54 SWAP3 SWAP2 SWAP1 PUSH2 0x52A8 JUMP JUMPDEST POP PUSH1 0x2 DUP3 DUP2 ADD SLOAD SWAP1 DUP3 ADD DUP1 SLOAD PUSH1 0xFF SWAP1 SWAP3 AND SWAP2 PUSH1 0xFF NOT AND PUSH1 0x1 DUP4 PUSH1 0x3 DUP2 GT ISZERO PUSH2 0x4F7E JUMPI PUSH2 0x4F7E PUSH2 0x5965 JUMP JUMPDEST MUL OR SWAP1 SSTORE POP PUSH1 0x3 DUP3 ADD DUP2 PUSH1 0x3 ADD SWAP1 DUP1 SLOAD PUSH2 0x4F97 SWAP1 PUSH2 0x5BEA JUMP JUMPDEST PUSH2 0x4FA2 SWAP3 SWAP2 SWAP1 PUSH2 0x52A8 JUMP JUMPDEST POP SWAP1 POP POP DUP1 DUP1 SLOAD DUP1 PUSH2 0x4FB6 JUMPI PUSH2 0x4FB6 PUSH2 0x5BBC JUMP JUMPDEST PUSH1 0x0 DUP3 DUP2 MSTORE PUSH1 0x20 DUP2 KECCAK256 PUSH1 0x0 NOT SWAP1 SWAP3 ADD SWAP2 PUSH1 0x4 DUP4 MUL ADD SWAP1 PUSH2 0x4FD6 DUP3 DUP3 PUSH2 0x5323 JUMP JUMPDEST PUSH2 0x4FE4 PUSH1 0x1 DUP4 ADD PUSH1 0x0 PUSH2 0x5323 JUMP JUMPDEST PUSH1 0x2 DUP3 ADD DUP1 SLOAD PUSH1 0xFF NOT AND SWAP1 SSTORE PUSH2 0x4FFE PUSH1 0x3 DUP4 ADD PUSH1 0x0 PUSH2 0x5323 JUMP JUMPDEST POP POP SWAP1 SSTORE POP POP POP POP POP JUMP JUMPDEST PUSH1 0x60 DUP2 PUSH1 0xFF AND PUSH1 0x0 SUB PUSH2 0x508A JUMPI PUSH1 0x0 DUP5 DUP2 MSTORE PUSH1 0x8 PUSH1 0x20 SWAP1 DUP2 MSTORE PUSH1 0x40 DUP1 DUP4 KECCAK256 DUP7 DUP5 MSTORE DUP3 MSTORE SWAP2 DUP3 SWAP1 KECCAK256 PUSH1 0xB ADD DUP1 SLOAD DUP4 MLOAD DUP2 DUP5 MUL DUP2 ADD DUP5 ADD SWAP1 SWAP5 MSTORE DUP1 DUP5 MSTORE SWAP1 SWAP2 DUP4 ADD DUP3 DUP3 DUP1 ISZERO PUSH2 0x22CA JUMPI PUSH1 0x20 MUL DUP3 ADD SWAP2 SWAP1 PUSH1 0x0 MSTORE PUSH1 0x20 PUSH1 0x0 KECCAK256 SWAP1 JUMPDEST DUP2 SLOAD PUSH1 0x1 PUSH1 0x1 PUSH1 0xA0 SHL SUB AND DUP2 MSTORE PUSH1 0x1 SWAP1 SWAP2 ADD SWAP1 PUSH1 0x20 ADD DUP1 DUP4 GT PUSH2 0x5061 JUMPI POP POP POP POP POP SWAP1 POP PUSH2 0x1017 JUMP JUMPDEST DUP2 PUSH1 0xFF AND PUSH1 0x1 SUB PUSH2 0xFCF JUMPI PUSH1 0x0 DUP5 DUP2 MSTORE PUSH1 0x8 PUSH1 0x20 SWAP1 DUP2 MSTORE PUSH1 0x40 DUP1 DUP4 KECCAK256 DUP7 DUP5 MSTORE DUP3 MSTORE SWAP2 DUP3 SWAP1 KECCAK256 PUSH1 0xC ADD DUP1 SLOAD DUP4 MLOAD DUP2 DUP5 MUL DUP2 ADD DUP5 ADD SWAP1 SWAP5 MSTORE DUP1 DUP5 MSTORE SWAP1 SWAP2 DUP4 ADD DUP3 DUP3 DUP1 ISZERO PUSH2 0x22CA JUMPI PUSH1 0x20 MUL DUP3 ADD SWAP2 SWAP1 PUSH1 0x0 MSTORE PUSH1 0x20 PUSH1 0x0 KECCAK256 SWAP1 DUP2 SLOAD PUSH1 0x1 PUSH1 0x1 PUSH1 0xA0 SHL SUB AND DUP2 MSTORE PUSH1 0x1 SWAP1 SWAP2 ADD SWAP1 PUSH1 0x20 ADD DUP1 DUP4 GT PUSH2 0x5061 JUMPI POP POP POP POP POP SWAP1 POP PUSH2 0x1017 JUMP JUMPDEST PUSH1 0x60 DUP2 PUSH1 0x0 SUB PUSH2 0x51AB JUMPI PUSH1 0x0 DUP4 DUP2 MSTORE PUSH1 0x7 PUSH1 0x20 MSTORE PUSH1 0x40 SWAP1 KECCAK256 PUSH1 0x2 ADD DUP1 SLOAD PUSH2 0x512E SWAP1 PUSH2 0x5BEA JUMP JUMPDEST DUP1 PUSH1 0x1F ADD PUSH1 0x20 DUP1 SWAP2 DIV MUL PUSH1 0x20 ADD PUSH1 0x40 MLOAD SWAP1 DUP2 ADD PUSH1 0x40 MSTORE DUP1 SWAP3 SWAP2 SWAP1 DUP2 DUP2 MSTORE PUSH1 0x20 ADD DUP3 DUP1 SLOAD PUSH2 0x515A SWAP1 PUSH2 0x5BEA JUMP JUMPDEST DUP1 ISZERO PUSH2 0x48DB JUMPI DUP1 PUSH1 0x1F LT PUSH2 0x517C JUMPI PUSH2 0x100 DUP1 DUP4 SLOAD DIV MUL DUP4 MSTORE SWAP2 PUSH1 0x20 ADD SWAP2 PUSH2 0x48DB JUMP JUMPDEST DUP3 ADD SWAP2 SWAP1 PUSH1 0x0 MSTORE PUSH1 0x20 PUSH1 0x0 KECCAK256 SWAP1 JUMPDEST DUP2 SLOAD DUP2 MSTORE SWAP1 PUSH1 0x1 ADD SWAP1 PUSH1 0x20 ADD DUP1 DUP4 GT PUSH2 0x518A JUMPI POP SWAP4 SWAP5 POP PUSH2 0x1863 SWAP4 POP POP POP POP JUMP JUMPDEST DUP2 PUSH1 0x1 SUB PUSH2 0xFCF JUMPI PUSH1 0x0 DUP4 DUP2 MSTORE PUSH1 0x7 PUSH1 0x20 MSTORE PUSH1 0x40 SWAP1 KECCAK256 PUSH1 0x3 ADD DUP1 SLOAD PUSH2 0x512E SWAP1 PUSH2 0x5BEA JUMP JUMPDEST DUP3 DUP1 SLOAD PUSH2 0x51DB SWAP1 PUSH2 0x5BEA JUMP JUMPDEST SWAP1 PUSH1 0x0 MSTORE PUSH1 0x20 PUSH1 0x0 KECCAK256 SWAP1 PUSH1 0x1F ADD PUSH1 0x20 SWAP1 DIV DUP2 ADD SWAP3 DUP3 PUSH2 0x51FD JUMPI PUSH1 0x0 DUP6 SSTORE PUSH2 0x5243 JUMP JUMPDEST DUP3 PUSH1 0x1F LT PUSH2 0x5216 JUMPI DUP1 MLOAD PUSH1 0xFF NOT AND DUP4 DUP1 ADD OR DUP6 SSTORE PUSH2 0x5243 JUMP JUMPDEST DUP3 DUP1 ADD PUSH1 0x1 ADD DUP6 SSTORE DUP3 ISZERO PUSH2 0x5243 JUMPI SWAP2 DUP3 ADD JUMPDEST DUP3 DUP2 GT ISZERO PUSH2 0x5243 JUMPI DUP3 MLOAD DUP3 SSTORE SWAP2 PUSH1 0x20 ADD SWAP2 SWAP1 PUSH1 0x1 ADD SWAP1 PUSH2 0x5228 JUMP JUMPDEST POP PUSH2 0x524F SWAP3 SWAP2 POP PUSH2 0x5360 JUMP JUMPDEST POP SWAP1 JUMP JUMPDEST DUP3 DUP1 SLOAD DUP3 DUP3 SSTORE SWAP1 PUSH1 0x0 MSTORE PUSH1 0x20 PUSH1 0x0 KECCAK256 SWAP1 DUP2 ADD SWAP3 DUP3 ISZERO PUSH2 0x5243 JUMPI SWAP2 PUSH1 0x20 MUL DUP3 ADD JUMPDEST DUP3 DUP2 GT ISZERO PUSH2 0x5243 JUMPI DUP3 MLOAD DUP3 SLOAD PUSH1 0x1 PUSH1 0x1 PUSH1 0xA0 SHL SUB NOT AND PUSH1 0x1 PUSH1 0x1 PUSH1 0xA0 SHL SUB SWAP1 SWAP2 AND OR DUP3 SSTORE PUSH1 0x20 SWAP1 SWAP3 ADD SWAP2 PUSH1 0x1 SWAP1 SWAP2 ADD SWAP1 PUSH2 0x5273 JUMP JUMPDEST DUP3 DUP1 SLOAD PUSH2 0x52B4 SWAP1 PUSH2 0x5BEA JUMP JUMPDEST SWAP1 PUSH1 0x0 MSTORE PUSH1 0x20 PUSH1 0x0 KECCAK256 SWAP1 PUSH1 0x1F ADD PUSH1 0x20 SWAP1 DIV DUP2 ADD SWAP3 DUP3 PUSH2 0x52D6 JUMPI PUSH1 0x0 DUP6 SSTORE PUSH2 0x5243 JUMP JUMPDEST DUP3 PUSH1 0x1F LT PUSH2 0x52E7 JUMPI DUP1 SLOAD DUP6 SSTORE PUSH2 0x5243 JUMP JUMPDEST DUP3 DUP1 ADD PUSH1 0x1 ADD DUP6 SSTORE DUP3 ISZERO PUSH2 0x5243 JUMPI PUSH1 0x0 MSTORE PUSH1 0x20 PUSH1 0x0 KECCAK256 SWAP2 PUSH1 0x1F ADD PUSH1 0x20 SWAP1 DIV DUP3 ADD JUMPDEST DUP3 DUP2 GT ISZERO PUSH2 0x5243 JUMPI DUP3 SLOAD DUP3 SSTORE SWAP2 PUSH1 0x1 ADD SWAP2 SWAP1 PUSH1 0x1 ADD SWAP1 PUSH2 0x5308 JUMP JUMPDEST POP DUP1 SLOAD PUSH2 0x532F SWAP1 PUSH2 0x5BEA JUMP JUMPDEST PUSH1 0x0 DUP3 SSTORE DUP1 PUSH1 0x1F LT PUSH2 0x533F JUMPI POP POP JUMP JUMPDEST PUSH1 0x1F ADD PUSH1 0x20 SWAP1 DIV SWAP1 PUSH1 0x0 MSTORE PUSH1 0x20 PUSH1 0x0 KECCAK256 SWAP1 DUP2 ADD SWAP1 PUSH2 0x535D SWAP2 SWAP1 PUSH2 0x5360 JUMP JUMPDEST POP JUMP JUMPDEST JUMPDEST DUP1 DUP3 GT ISZERO PUSH2 0x524F JUMPI PUSH1 0x0 DUP2 SSTORE PUSH1 0x1 ADD PUSH2 0x5361 JUMP JUMPDEST PUSH4 0x4E487B71 PUSH1 0xE0 SHL PUSH1 0x0 MSTORE PUSH1 0x41 PUSH1 0x4 MSTORE PUSH1 0x24 PUSH1 0x0 REVERT JUMPDEST PUSH1 0x40 MLOAD PUSH1 0x1F DUP3 ADD PUSH1 0x1F NOT AND DUP2 ADD PUSH8 0xFFFFFFFFFFFFFFFF DUP2 GT DUP3 DUP3 LT OR ISZERO PUSH2 0x53B4 JUMPI PUSH2 0x53B4 PUSH2 0x5375 JUMP JUMPDEST PUSH1 0x40 MSTORE SWAP2 SWAP1 POP JUMP JUMPDEST PUSH1 0x0 DUP3 PUSH1 0x1F DUP4 ADD SLT PUSH2 0x53CD JUMPI PUSH1 0x0 DUP1 REVERT JUMPDEST DUP2 CALLDATALOAD PUSH8 0xFFFFFFFFFFFFFFFF DUP2 GT ISZERO PUSH2 0x53E7 JUMPI PUSH2 0x53E7 PUSH2 0x5375 JUMP JUMPDEST PUSH2 0x53FA PUSH1 0x1F DUP3 ADD PUSH1 0x1F NOT AND PUSH1 0x20 ADD PUSH2 0x538B JUMP JUMPDEST DUP2 DUP2 MSTORE DUP5 PUSH1 0x20 DUP4 DUP7 ADD ADD GT ISZERO PUSH2 0x540F JUMPI PUSH1 0x0 DUP1 REVERT JUMPDEST DUP2 PUSH1 0x20 DUP6 ADD PUSH1 0x20 DUP4 ADD CALLDATACOPY PUSH1 0x0 SWAP2 DUP2 ADD PUSH1 0x20 ADD SWAP2 SWAP1 SWAP2 MSTORE SWAP4 SWAP3 POP POP POP JUMP JUMPDEST DUP1 CALLDATALOAD PUSH1 0x4 DUP2 LT PUSH2 0x3D24 JUMPI PUSH1 0x0 DUP1 REVERT JUMPDEST PUSH1 0x0 DUP1 PUSH1 0x0 DUP1 PUSH1 0x0 DUP1 PUSH1 0xC0 DUP8 DUP10 SUB SLT ISZERO PUSH2 0x5454 JUMPI PUSH1 0x0 DUP1 REVERT JUMPDEST DUP7 CALLDATALOAD SWAP6 POP PUSH1 0x20 DUP8 ADD CALLDATALOAD SWAP5 POP PUSH1 0x40 DUP8 ADD CALLDATALOAD PUSH8 0xFFFFFFFFFFFFFFFF DUP1 DUP3 GT ISZERO PUSH2 0x547A JUMPI PUSH1 0x0 DUP1 REVERT JUMPDEST PUSH2 0x5486 DUP11 DUP4 DUP12 ADD PUSH2 0x53BC JUMP JUMPDEST SWAP6 POP PUSH1 0x60 DUP10 ADD CALLDATALOAD SWAP2 POP DUP1 DUP3 GT ISZERO PUSH2 0x549C JUMPI PUSH1 0x0 DUP1 REVERT JUMPDEST PUSH2 0x54A8 DUP11 DUP4 DUP12 ADD PUSH2 0x53BC JUMP JUMPDEST SWAP5 POP PUSH1 0x80 DUP10 ADD CALLDATALOAD SWAP2 POP DUP1 DUP3 GT ISZERO PUSH2 0x54BE JUMPI PUSH1 0x0 DUP1 REVERT JUMPDEST POP PUSH2 0x54CB DUP10 DUP3 DUP11 ADD PUSH2 0x53BC JUMP JUMPDEST SWAP3 POP POP PUSH2 0x54DA PUSH1 0xA0 DUP9 ADD PUSH2 0x542C JUMP JUMPDEST SWAP1 POP SWAP3 SWAP6 POP SWAP3 SWAP6 POP SWAP3 SWAP6 JUMP JUMPDEST DUP1 CALLDATALOAD PUSH1 0x1 PUSH1 0x1 PUSH1 0xA0 SHL SUB DUP2 AND DUP2 EQ PUSH2 0x3D24 JUMPI PUSH1 0x0 DUP1 REVERT JUMPDEST PUSH1 0x0 PUSH1 0x20 DUP3 DUP5 SUB SLT ISZERO PUSH2 0x550F JUMPI PUSH1 0x0 DUP1 REVERT JUMPDEST PUSH2 0x1017 DUP3 PUSH2 0x54E6 JUMP JUMPDEST PUSH1 0x0 DUP1 PUSH1 0x40 DUP4 DUP6 SUB SLT ISZERO PUSH2 0x552B JUMPI PUSH1 0x0 DUP1 REVERT JUMPDEST POP POP DUP1 CALLDATALOAD SWAP3 PUSH1 0x20 SWAP1 SWAP2 ADD CALLDATALOAD SWAP2 POP JUMP JUMPDEST DUP1 CALLDATALOAD PUSH1 0xFF DUP2 AND DUP2 EQ PUSH2 0x3D24 JUMPI PUSH1 0x0 DUP1 REVERT JUMPDEST PUSH1 0x0 DUP1 PUSH1 0x0 PUSH1 0x60 DUP5 DUP7 SUB SLT ISZERO PUSH2 0x5560 JUMPI PUSH1 0x0 DUP1 REVERT JUMPDEST DUP4 CALLDATALOAD SWAP3 POP PUSH1 0x20 DUP5 ADD CALLDATALOAD SWAP2 POP PUSH2 0x5577 PUSH1 0x40 DUP6 ADD PUSH2 0x553A JUMP JUMPDEST SWAP1 POP SWAP3 POP SWAP3 POP SWAP3 JUMP JUMPDEST PUSH1 0x0 PUSH1 0x20 DUP3 DUP5 SUB SLT ISZERO PUSH2 0x5592 JUMPI PUSH1 0x0 DUP1 REVERT JUMPDEST POP CALLDATALOAD SWAP2 SWAP1 POP JUMP JUMPDEST PUSH1 0x0 DUP1 PUSH1 0x40 DUP4 DUP6 SUB SLT ISZERO PUSH2 0x55AC JUMPI PUSH1 0x0 DUP1 REVERT JUMPDEST DUP3 CALLDATALOAD SWAP2 POP PUSH2 0x55BC PUSH1 0x20 DUP5 ADD PUSH2 0x553A JUMP JUMPDEST SWAP1 POP SWAP3 POP SWAP3 SWAP1 POP JUMP JUMPDEST PUSH1 0x0 DUP3 PUSH1 0x1F DUP4 ADD SLT PUSH2 0x55D6 JUMPI PUSH1 0x0 DUP1 REVERT JUMPDEST DUP2 CALLDATALOAD PUSH1 0x20 PUSH8 0xFFFFFFFFFFFFFFFF DUP3 GT ISZERO PUSH2 0x55F2 JUMPI PUSH2 0x55F2 PUSH2 0x5375 JUMP JUMPDEST DUP2 PUSH1 0x5 SHL PUSH2 0x5601 DUP3 DUP3 ADD PUSH2 0x538B JUMP JUMPDEST SWAP3 DUP4 MSTORE DUP5 DUP2 ADD DUP3 ADD SWAP3 DUP3 DUP2 ADD SWAP1 DUP8 DUP6 GT ISZERO PUSH2 0x561B JUMPI PUSH1 0x0 DUP1 REVERT JUMPDEST DUP4 DUP8 ADD SWAP3 POP JUMPDEST DUP5 DUP4 LT ISZERO PUSH2 0x5641 JUMPI PUSH2 0x5632 DUP4 PUSH2 0x54E6 JUMP JUMPDEST DUP3 MSTORE SWAP2 DUP4 ADD SWAP2 SWAP1 DUP4 ADD SWAP1 PUSH2 0x5621 JUMP JUMPDEST SWAP8 SWAP7 POP POP POP POP POP POP POP JUMP JUMPDEST PUSH1 0x0 DUP1 PUSH1 0x0 DUP1 PUSH1 0x0 DUP1 PUSH1 0x0 PUSH1 0xE0 DUP9 DUP11 SUB SLT ISZERO PUSH2 0x5667 JUMPI PUSH1 0x0 DUP1 REVERT JUMPDEST DUP8 CALLDATALOAD PUSH1 0x2 DUP2 LT PUSH2 0x5676 JUMPI PUSH1 0x0 DUP1 REVERT JUMPDEST SWAP7 POP PUSH1 0x20 DUP9 ADD CALLDATALOAD PUSH8 0xFFFFFFFFFFFFFFFF DUP1 DUP3 GT ISZERO PUSH2 0x5693 JUMPI PUSH1 0x0 DUP1 REVERT JUMPDEST PUSH2 0x569F DUP12 DUP4 DUP13 ADD PUSH2 0x53BC JUMP JUMPDEST SWAP8 POP PUSH1 0x40 DUP11 ADD CALLDATALOAD SWAP2 POP DUP1 DUP3 GT ISZERO PUSH2 0x56B5 JUMPI PUSH1 0x0 DUP1 REVERT JUMPDEST PUSH2 0x56C1 DUP12 DUP4 DUP13 ADD PUSH2 0x53BC JUMP JUMPDEST SWAP7 POP PUSH1 0x60 DUP11 ADD CALLDATALOAD SWAP2 POP DUP1 DUP3 GT ISZERO PUSH2 0x56D7 JUMPI PUSH1 0x0 DUP1 REVERT JUMPDEST POP PUSH2 0x56E4 DUP11 DUP3 DUP12 ADD PUSH2 0x55C5 JUMP JUMPDEST SWAP8 SWAP11 SWAP7 SWAP10 POP SWAP5 SWAP8 PUSH1 0x80 DUP2 ADD CALLDATALOAD SWAP7 PUSH1 0xA0 DUP3 ADD CALLDATALOAD SWAP7 POP PUSH1 0xC0 SWAP1 SWAP2 ADD CALLDATALOAD SWAP5 POP SWAP3 POP POP POP JUMP JUMPDEST PUSH1 0x0 DUP1 PUSH1 0x0 DUP1 PUSH1 0x0 PUSH1 0xA0 DUP7 DUP9 SUB SLT ISZERO PUSH2 0x571E JUMPI PUSH1 0x0 DUP1 REVERT JUMPDEST DUP6 CALLDATALOAD SWAP5 POP PUSH1 0x20 DUP7 ADD CALLDATALOAD PUSH8 0xFFFFFFFFFFFFFFFF DUP1 DUP3 GT ISZERO PUSH2 0x573D JUMPI PUSH1 0x0 DUP1 REVERT JUMPDEST PUSH2 0x5749 DUP10 DUP4 DUP11 ADD PUSH2 0x53BC JUMP JUMPDEST SWAP6 POP PUSH1 0x40 DUP9 ADD CALLDATALOAD SWAP2 POP DUP1 DUP3 GT ISZERO PUSH2 0x575F JUMPI PUSH1 0x0 DUP1 REVERT JUMPDEST PUSH2 0x576B DUP10 DUP4 DUP11 ADD PUSH2 0x53BC JUMP JUMPDEST SWAP5 POP PUSH1 0x60 DUP9 ADD CALLDATALOAD SWAP2 POP DUP1 DUP3 GT ISZERO PUSH2 0x5781 JUMPI PUSH1 0x0 DUP1 REVERT JUMPDEST POP PUSH2 0x578E DUP9 DUP3 DUP10 ADD PUSH2 0x53BC JUMP JUMPDEST SWAP3 POP POP PUSH2 0x579D PUSH1 0x80 DUP8 ADD PUSH2 0x542C JUMP JUMPDEST SWAP1 POP SWAP3 SWAP6 POP SWAP3 SWAP6 SWAP1 SWAP4 POP JUMP JUMPDEST PUSH1 0x20 DUP1 DUP3 MSTORE DUP3 MLOAD DUP3 DUP3 ADD DUP2 SWAP1 MSTORE PUSH1 0x0 SWAP2 SWAP1 DUP5 DUP3 ADD SWAP1 PUSH1 0x40 DUP6 ADD SWAP1 DUP5 JUMPDEST DUP2 DUP2 LT ISZERO PUSH2 0x57E1 JUMPI DUP4 MLOAD DUP4 MSTORE SWAP3 DUP5 ADD SWAP3 SWAP2 DUP5 ADD SWAP2 PUSH1 0x1 ADD PUSH2 0x57C5 JUMP JUMPDEST POP SWAP1 SWAP7 SWAP6 POP POP POP POP POP POP JUMP JUMPDEST PUSH1 0x0 DUP1 PUSH1 0x0 DUP1 PUSH1 0x80 DUP6 DUP8 SUB SLT ISZERO PUSH2 0x5803 JUMPI PUSH1 0x0 DUP1 REVERT JUMPDEST DUP5 CALLDATALOAD SWAP4 POP PUSH1 0x20 DUP6 ADD CALLDATALOAD SWAP3 POP PUSH1 0x40 DUP6 ADD CALLDATALOAD SWAP2 POP PUSH2 0x5821 PUSH1 0x60 DUP7 ADD PUSH2 0x542C JUMP JUMPDEST SWAP1 POP SWAP3 SWAP6 SWAP2 SWAP5 POP SWAP3 POP JUMP JUMPDEST PUSH1 0x0 DUP2 MLOAD DUP1 DUP5 MSTORE PUSH1 0x0 JUMPDEST DUP2 DUP2 LT ISZERO PUSH2 0x5852 JUMPI PUSH1 0x20 DUP2 DUP6 ADD DUP2 ADD MLOAD DUP7 DUP4 ADD DUP3 ADD MSTORE ADD PUSH2 0x5836 JUMP JUMPDEST DUP2 DUP2 GT ISZERO PUSH2 0x5864 JUMPI PUSH1 0x0 PUSH1 0x20 DUP4 DUP8 ADD ADD MSTORE JUMPDEST POP PUSH1 0x1F ADD PUSH1 0x1F NOT AND SWAP3 SWAP1 SWAP3 ADD PUSH1 0x20 ADD SWAP3 SWAP2 POP POP JUMP JUMPDEST PUSH1 0x20 DUP2 MSTORE PUSH1 0x0 PUSH2 0x1017 PUSH1 0x20 DUP4 ADD DUP5 PUSH2 0x582C JUMP JUMPDEST PUSH1 0x0 DUP1 PUSH1 0x0 DUP1 PUSH1 0x0 DUP1 PUSH1 0x0 PUSH1 0xE0 DUP9 DUP11 SUB SLT ISZERO PUSH2 0x58A7 JUMPI PUSH1 0x0 DUP1 REVERT JUMPDEST DUP8 CALLDATALOAD SWAP7 POP PUSH1 0x20 DUP9 ADD CALLDATALOAD SWAP6 POP PUSH1 0x40 DUP9 ADD CALLDATALOAD SWAP5 POP PUSH1 0x60 DUP9 ADD CALLDATALOAD PUSH8 0xFFFFFFFFFFFFFFFF DUP1 DUP3 GT ISZERO PUSH2 0x58D4 JUMPI PUSH1 0x0 DUP1 REVERT JUMPDEST PUSH2 0x58E0 DUP12 DUP4 DUP13 ADD PUSH2 0x53BC JUMP JUMPDEST SWAP6 POP PUSH1 0x80 DUP11 ADD CALLDATALOAD SWAP2 POP DUP1 DUP3 GT ISZERO PUSH2 0x58F6 JUMPI PUSH1 0x0 DUP1 REVERT JUMPDEST PUSH2 0x5902 DUP12 DUP4 DUP13 ADD PUSH2 0x53BC JUMP JUMPDEST SWAP5 POP PUSH1 0xA0 DUP11 ADD CALLDATALOAD SWAP2 POP DUP1 DUP3 GT ISZERO PUSH2 0x5918 JUMPI PUSH1 0x0 DUP1 REVERT JUMPDEST POP PUSH2 0x5925 DUP11 DUP3 DUP12 ADD PUSH2 0x53BC JUMP JUMPDEST SWAP3 POP POP PUSH2 0x5934 PUSH1 0xC0 DUP10 ADD PUSH2 0x542C JUMP JUMPDEST SWAP1 POP SWAP3 SWAP6 SWAP9 SWAP2 SWAP5 SWAP8 POP SWAP3 SWAP6 POP JUMP JUMPDEST PUSH1 0x0 DUP1 PUSH1 0x40 DUP4 DUP6 SUB SLT ISZERO PUSH2 0x5955 JUMPI PUSH1 0x0 DUP1 REVERT JUMPDEST DUP3 CALLDATALOAD SWAP2 POP PUSH2 0x55BC PUSH1 0x20 DUP5 ADD PUSH2 0x542C JUMP JUMPDEST PUSH4 0x4E487B71 PUSH1 0xE0 SHL PUSH1 0x0 MSTORE PUSH1 0x21 PUSH1 0x4 MSTORE PUSH1 0x24 PUSH1 0x0 REVERT JUMPDEST PUSH1 0x0 PUSH1 0x20 DUP1 DUP4 ADD DUP2 DUP5 MSTORE DUP1 DUP6 MLOAD DUP1 DUP4 MSTORE PUSH1 0x40 SWAP3 POP DUP3 DUP7 ADD SWAP2 POP DUP3 DUP2 PUSH1 0x5 SHL DUP8 ADD ADD DUP5 DUP9 ADD PUSH1 0x0 DUP1 JUMPDEST DUP5 DUP2 LT ISZERO PUSH2 0x5A37 JUMPI PUSH1 0x3F NOT DUP11 DUP6 SUB ADD DUP7 MSTORE DUP3 MLOAD PUSH1 0x80 DUP2 MLOAD DUP2 DUP8 MSTORE PUSH2 0x59C9 DUP3 DUP9 ADD DUP3 PUSH2 0x582C JUMP JUMPDEST SWAP2 POP POP DUP10 DUP3 ADD MLOAD DUP7 DUP3 SUB DUP12 DUP9 ADD MSTORE PUSH2 0x59E1 DUP3 DUP3 PUSH2 0x582C JUMP JUMPDEST SWAP2 POP POP DUP9 DUP3 ADD MLOAD PUSH1 0x4 DUP1 DUP3 LT PUSH2 0x5A04 JUMPI PUSH4 0x4E487B71 PUSH1 0xE0 SHL DUP7 MSTORE PUSH1 0x21 DUP2 MSTORE PUSH1 0x24 DUP7 REVERT JUMPDEST POP DUP7 DUP11 ADD MSTORE PUSH1 0x60 SWAP2 DUP3 ADD MLOAD DUP7 DUP3 SUB SWAP3 DUP8 ADD SWAP3 SWAP1 SWAP3 MSTORE PUSH2 0x5A23 DUP2 DUP4 PUSH2 0x582C JUMP JUMPDEST SWAP8 DUP11 ADD SWAP8 SWAP6 POP POP POP SWAP2 DUP8 ADD SWAP2 PUSH1 0x1 ADD PUSH2 0x59A3 JUMP JUMPDEST POP SWAP2 SWAP10 SWAP9 POP POP POP POP POP POP POP POP POP JUMP JUMPDEST PUSH1 0x0 DUP1 PUSH1 0x0 DUP1 PUSH1 0x80 DUP6 DUP8 SUB SLT ISZERO PUSH2 0x5A5C JUMPI PUSH1 0x0 DUP1 REVERT JUMPDEST DUP5 CALLDATALOAD SWAP4 POP PUSH1 0x20 DUP6 ADD CALLDATALOAD PUSH8 0xFFFFFFFFFFFFFFFF DUP1 DUP3 GT ISZERO PUSH2 0x5A7B JUMPI PUSH1 0x0 DUP1 REVERT JUMPDEST PUSH2 0x5A87 DUP9 DUP4 DUP10 ADD PUSH2 0x53BC JUMP JUMPDEST SWAP5 POP PUSH1 0x40 DUP8 ADD CALLDATALOAD SWAP2 POP DUP1 DUP3 GT ISZERO PUSH2 0x5A9D JUMPI PUSH1 0x0 DUP1 REVERT JUMPDEST POP PUSH2 0x5AAA DUP8 DUP3 DUP9 ADD PUSH2 0x53BC JUMP JUMPDEST SWAP5 SWAP8 SWAP4 SWAP7 POP SWAP4 SWAP5 PUSH1 0x60 ADD CALLDATALOAD SWAP4 POP POP POP JUMP JUMPDEST PUSH1 0x20 DUP1 DUP3 MSTORE DUP3 MLOAD DUP3 DUP3 ADD DUP2 SWAP1 MSTORE PUSH1 0x0 SWAP2 SWAP1 DUP5 DUP3 ADD SWAP1 PUSH1 0x40 DUP6 ADD SWAP1 DUP5 JUMPDEST DUP2 DUP2 LT ISZERO PUSH2 0x57E1 JUMPI DUP4 MLOAD PUSH1 0x1 PUSH1 0x1 PUSH1 0xA0 SHL SUB AND DUP4 MSTORE SWAP3 DUP5 ADD SWAP3 SWAP2 DUP5 ADD SWAP2 PUSH1 0x1 ADD PUSH2 0x5AD7 JUMP JUMPDEST PUSH1 0x0 DUP1 PUSH1 0x0 PUSH1 0x60 DUP5 DUP7 SUB SLT ISZERO PUSH2 0x5B11 JUMPI PUSH1 0x0 DUP1 REVERT JUMPDEST DUP4 CALLDATALOAD SWAP3 POP PUSH1 0x20 DUP5 ADD CALLDATALOAD SWAP2 POP PUSH2 0x5577 PUSH1 0x40 DUP6 ADD PUSH2 0x542C JUMP JUMPDEST PUSH4 0x4E487B71 PUSH1 0xE0 SHL PUSH1 0x0 MSTORE PUSH1 0x32 PUSH1 0x4 MSTORE PUSH1 0x24 PUSH1 0x0 REVERT JUMPDEST PUSH4 0x4E487B71 PUSH1 0xE0 SHL PUSH1 0x0 MSTORE PUSH1 0x11 PUSH1 0x4 MSTORE PUSH1 0x24 PUSH1 0x0 REVERT JUMPDEST PUSH1 0x0 PUSH1 0x1 DUP3 ADD PUSH2 0x5B66 JUMPI PUSH2 0x5B66 PUSH2 0x5B3E JUMP JUMPDEST POP PUSH1 0x1 ADD SWAP1 JUMP JUMPDEST PUSH4 0x4E487B71 PUSH1 0xE0 SHL PUSH1 0x0 MSTORE PUSH1 0x12 PUSH1 0x4 MSTORE PUSH1 0x24 PUSH1 0x0 REVERT JUMPDEST PUSH1 0x0 PUSH1 0xFF DUP4 AND DUP1 PUSH2 0x5B96 JUMPI PUSH2 0x5B96 PUSH2 0x5B6D JUMP JUMPDEST DUP1 PUSH1 0xFF DUP5 AND DIV SWAP2 POP POP SWAP3 SWAP2 POP POP JUMP JUMPDEST PUSH1 0x0 DUP3 DUP3 LT ISZERO PUSH2 0x5BB7 JUMPI PUSH2 0x5BB7 PUSH2 0x5B3E JUMP JUMPDEST POP SUB SWAP1 JUMP JUMPDEST PUSH4 0x4E487B71 PUSH1 0xE0 SHL PUSH1 0x0 MSTORE PUSH1 0x31 PUSH1 0x4 MSTORE PUSH1 0x24 PUSH1 0x0 REVERT JUMPDEST PUSH1 0x0 DUP3 NOT DUP3 GT ISZERO PUSH2 0x5BE5 JUMPI PUSH2 0x5BE5 PUSH2 0x5B3E JUMP JUMPDEST POP ADD SWAP1 JUMP JUMPDEST PUSH1 0x1 DUP2 DUP2 SHR SWAP1 DUP3 AND DUP1 PUSH2 0x5BFE JUMPI PUSH1 0x7F DUP3 AND SWAP2 POP JUMPDEST PUSH1 0x20 DUP3 LT DUP2 SUB PUSH2 0x4AA9 JUMPI PUSH4 0x4E487B71 PUSH1 0xE0 SHL PUSH1 0x0 MSTORE PUSH1 0x22 PUSH1 0x4 MSTORE PUSH1 0x24 PUSH1 0x0 REVERT JUMPDEST PUSH1 0x0 DUP2 PUSH1 0x0 NOT DIV DUP4 GT DUP3 ISZERO ISZERO AND ISZERO PUSH2 0x5C38 JUMPI PUSH2 0x5C38 PUSH2 0x5B3E JUMP JUMPDEST POP MUL SWAP1 JUMP JUMPDEST PUSH1 0x0 DUP3 PUSH2 0x5C4C JUMPI PUSH2 0x5C4C PUSH2 0x5B6D JUMP JUMPDEST POP DIV SWAP1 JUMP INVALID LOG1 PUSH5 0x736F6C6343 STOP ADDMOD 0xE STOP EXP "},"methodIdentifiers":{"addDonaStaffMember(address)":"2a957529","addDonationProjectMediaItem(uint256,string,string,string,uint8)":"8398b7c1","addWithdrawalRequestMediaItem(uint256,uint256,string,string,string,uint8)":"22043b5c","approveDonationProject(uint256)":"56c6ebfe","approveWithdrawalRequest(uint256,uint256)":"3866b6a3","createDonationProject(uint8,string,string,address[],uint256,uint256,uint256)":"708cdfe6","createWithdrawalRequest(uint256,string,string,uint256)":"b7aebde2","deleteDonationProjectMediaItem(uint256,uint256,uint8)":"fcc686a9","deleteWithdrawalRequestMediaItem(uint256,uint256,uint256,uint8)":"a7dbcb76","editDonationProjectMediaItem(uint256,uint256,string,string,string,uint8)":"fb812a0b","editWithdrawalRequestMediaItem(uint256,uint256,uint256,string,string,string,uint8)":"b00d29e8","finalizeDonations(uint256)":"e25edc31","getDonaStaffMembers()":"c2d1a1af","getDonationProjectAddressDetails(uint256,uint8)":"f3bf0888","getDonationProjectMediaItems(uint256,uint8)":"b42766fa","getDonationProjectNumericalDetails(uint256,uint8)":"59f822ae","getDonationProjectTextDetails(uint256,uint256)":"fec3afed","getUnapprovedDonationProjects()":"9eef250c","getUserProjects(uint256)":"dd931eec","getWithdrawalRequestAddressesDetails(uint256,uint256,uint8)":"fce2e927","getWithdrawalRequestMediaItems(uint256,uint256,uint8)":"d630b812","getWithdrawalRequestNumericalDetails(uint256,uint256,uint8)":"31b03254","getWithdrawalRequestOwner(uint256,uint256)":"87a7fcbc","getWithdrawalRequestTextDetails(uint256,uint256,uint8)":"a98b15f0","isUserDonaStaff()":"f49e7300","makeDonation(uint256)":"b219f916","numberOfDonationProjects()":"a17a37dd","owner()":"8da5cb5b","rejectWithdrawalRequest(uint256,uint256)":"3138f026","totalDonationsReceived()":"862e2fc8","totalDonationsUtilized()":"a80098b0","totalTargetAmount()":"2b95b559","withdrawFunds(uint256,uint256)":"e5253105"}}}}}