{"contracts/DonaTheta.sol":{"DonaTheta":{"abi":[{"inputs":[],"stateMutability":"nonpayable","type":"constructor"},{"anonymous":false,"inputs":[{"indexed":true,"internalType":"uint256","name":"projectId","type":"uint256"},{"indexed":false,"internalType":"address","name":"donor","type":"address"},{"indexed":false,"internalType":"uint256","name":"amount","type":"uint256"}],"name":"DonationMade","type":"event"},{"anonymous":false,"inputs":[{"indexed":true,"internalType":"uint256","name":"projectId","type":"uint256"}],"name":"DonationProjectApproved","type":"event"},{"anonymous":false,"inputs":[{"indexed":true,"internalType":"uint256","name":"projectId","type":"uint256"},{"indexed":false,"internalType":"address[]","name":"organizers","type":"address[]"},{"indexed":false,"internalType":"uint256","name":"donationTarget","type":"uint256"}],"name":"DonationProjectCreated","type":"event"},{"anonymous":false,"inputs":[{"indexed":true,"internalType":"uint256","name":"projectId","type":"uint256"}],"name":"DonationProjectFinalized","type":"event"},{"anonymous":false,"inputs":[{"indexed":true,"internalType":"uint256","name":"projectId","type":"uint256"},{"indexed":false,"internalType":"uint256","name":"requestId","type":"uint256"},{"indexed":false,"internalType":"uint256","name":"amount","type":"uint256"}],"name":"WithdrawalExecuted","type":"event"},{"inputs":[{"internalType":"uint256","name":"projectId","type":"uint256"},{"internalType":"string","name":"name","type":"string"},{"internalType":"string","name":"description","type":"string"},{"internalType":"string","name":"url","type":"string"},{"internalType":"enum DonaTheta.MediaItemType","name":"mediaItemType","type":"uint8"}],"name":"addDonationProjectMediaItem","outputs":[],"stateMutability":"nonpayable","type":"function"},{"inputs":[{"internalType":"uint256","name":"projectId","type":"uint256"},{"internalType":"uint256","name":"requestId","type":"uint256"},{"internalType":"string","name":"name","type":"string"},{"internalType":"string","name":"description","type":"string"},{"internalType":"string","name":"url","type":"string"},{"internalType":"enum DonaTheta.MediaItemType","name":"mediaItemType","type":"uint8"}],"name":"addWithdrawalRequestMediaItem","outputs":[],"stateMutability":"nonpayable","type":"function"},{"inputs":[{"internalType":"uint256","name":"projectId","type":"uint256"}],"name":"approveDonationProject","outputs":[],"stateMutability":"nonpayable","type":"function"},{"inputs":[{"internalType":"uint256","name":"projectId","type":"uint256"},{"internalType":"uint256","name":"requestId","type":"uint256"}],"name":"approveWithdrawalRequest","outputs":[],"stateMutability":"nonpayable","type":"function"},{"inputs":[{"internalType":"uint256","name":"projectId","type":"uint256"},{"internalType":"uint256","name":"requestId","type":"uint256"},{"internalType":"enum DonaTheta.MediaItemType","name":"mediaItemType","type":"uint8"}],"name":"clearWithdrawalRequestMediaItems","outputs":[],"stateMutability":"nonpayable","type":"function"},{"inputs":[{"internalType":"address","name":"","type":"address"},{"internalType":"uint256","name":"","type":"uint256"}],"name":"committeeProjects","outputs":[{"internalType":"uint256","name":"","type":"uint256"}],"stateMutability":"view","type":"function"},{"inputs":[{"internalType":"enum DonaTheta.DonationPeriodType","name":"donationPeriodType","type":"uint8"},{"internalType":"string","name":"projectName","type":"string"},{"internalType":"string","name":"projectDescription","type":"string"},{"internalType":"address[]","name":"organizers","type":"address[]"},{"internalType":"uint256","name":"donationTarget","type":"uint256"},{"internalType":"uint256","name":"startDonationDate","type":"uint256"},{"internalType":"uint256","name":"endDonationDate","type":"uint256"}],"name":"createDonationProject","outputs":[],"stateMutability":"nonpayable","type":"function"},{"inputs":[{"internalType":"uint256","name":"projectId","type":"uint256"},{"internalType":"uint256","name":"amount","type":"uint256"}],"name":"createWithdrawalRequest","outputs":[],"stateMutability":"nonpayable","type":"function"},{"inputs":[{"internalType":"uint256","name":"projectId","type":"uint256"},{"internalType":"uint256","name":"mediaItemIndex","type":"uint256"},{"internalType":"enum DonaTheta.MediaItemType","name":"mediaItemType","type":"uint8"}],"name":"deleteDonationProjectMediaItem","outputs":[],"stateMutability":"nonpayable","type":"function"},{"inputs":[{"internalType":"uint256","name":"projectId","type":"uint256"},{"internalType":"uint256","name":"requestId","type":"uint256"},{"internalType":"uint256","name":"mediaItemIndex","type":"uint256"},{"internalType":"enum DonaTheta.MediaItemType","name":"mediaItemType","type":"uint8"}],"name":"deleteWithdrawalRequestMediaItem","outputs":[],"stateMutability":"nonpayable","type":"function"},{"inputs":[{"internalType":"uint256","name":"","type":"uint256"}],"name":"donaStaff","outputs":[{"internalType":"address","name":"","type":"address"}],"stateMutability":"view","type":"function"},{"inputs":[{"internalType":"address","name":"","type":"address"},{"internalType":"uint256","name":"","type":"uint256"}],"name":"donationHistory","outputs":[{"internalType":"address","name":"donor","type":"address"},{"internalType":"uint256","name":"projectId","type":"uint256"},{"internalType":"uint256","name":"dateTime","type":"uint256"},{"internalType":"uint256","name":"amount","type":"uint256"}],"stateMutability":"view","type":"function"},{"inputs":[{"internalType":"uint256","name":"","type":"uint256"}],"name":"donationProjects","outputs":[{"internalType":"uint256","name":"projectId","type":"uint256"},{"internalType":"enum DonaTheta.DonationPeriodType","name":"donationPeriodType","type":"uint8"},{"internalType":"string","name":"projectName","type":"string"},{"internalType":"string","name":"projectDescription","type":"string"},{"internalType":"uint256","name":"donationTarget","type":"uint256"},{"internalType":"uint256","name":"startDonationDate","type":"uint256"},{"internalType":"uint256","name":"endDonationDate","type":"uint256"},{"internalType":"bool","name":"isApproved","type":"bool"},{"internalType":"bool","name":"isOpenForDonations","type":"bool"},{"internalType":"uint256","name":"totalAmountDonated","type":"uint256"},{"internalType":"uint256","name":"totalAmountWithdrawn","type":"uint256"},{"internalType":"uint8","name":"totalDonaApprovalCommitteeMembers","type":"uint8"}],"stateMutability":"view","type":"function"},{"inputs":[{"internalType":"uint256","name":"projectId","type":"uint256"},{"internalType":"uint256","name":"mediaItemIndex","type":"uint256"},{"internalType":"string","name":"name","type":"string"},{"internalType":"string","name":"description","type":"string"},{"internalType":"string","name":"url","type":"string"},{"internalType":"enum DonaTheta.MediaItemType","name":"mediaItemType","type":"uint8"}],"name":"editDonationProjectMediaItem","outputs":[],"stateMutability":"nonpayable","type":"function"},{"inputs":[{"internalType":"uint256","name":"projectId","type":"uint256"},{"internalType":"uint256","name":"requestId","type":"uint256"},{"internalType":"uint256","name":"mediaItemIndex","type":"uint256"},{"internalType":"string","name":"name","type":"string"},{"internalType":"string","name":"description","type":"string"},{"internalType":"string","name":"url","type":"string"},{"internalType":"enum DonaTheta.MediaItemType","name":"mediaItemType","type":"uint8"}],"name":"editWithdrawalRequestMediaItem","outputs":[],"stateMutability":"nonpayable","type":"function"},{"inputs":[{"internalType":"uint256","name":"_projectId","type":"uint256"}],"name":"finalizeDonations","outputs":[],"stateMutability":"nonpayable","type":"function"},{"inputs":[{"internalType":"uint256","name":"_projectId","type":"uint256"},{"internalType":"uint256","name":"_requestId","type":"uint256"}],"name":"fullyApproveWithdrawalRequest","outputs":[],"stateMutability":"nonpayable","type":"function"},{"inputs":[{"internalType":"uint256","name":"projectId","type":"uint256"},{"internalType":"enum DonaTheta.MediaItemType","name":"mediaItemType","type":"uint8"}],"name":"getDonationProjectMediaItems","outputs":[{"components":[{"internalType":"string","name":"name","type":"string"},{"internalType":"string","name":"description","type":"string"},{"internalType":"enum DonaTheta.MediaItemType","name":"mediaItemType","type":"uint8"},{"internalType":"string","name":"url","type":"string"}],"internalType":"struct DonaTheta.MediaItem[]","name":"","type":"tuple[]"}],"stateMutability":"view","type":"function"},{"inputs":[{"internalType":"uint256","name":"projectId","type":"uint256"}],"name":"getProjectDonatedFunds","outputs":[{"internalType":"uint256","name":"","type":"uint256"}],"stateMutability":"view","type":"function"},{"inputs":[{"internalType":"uint256","name":"projectId","type":"uint256"}],"name":"getProjectWithdrawnFunds","outputs":[{"internalType":"uint256","name":"","type":"uint256"}],"stateMutability":"view","type":"function"},{"inputs":[{"internalType":"uint256","name":"projectId","type":"uint256"},{"internalType":"uint256","name":"requestId","type":"uint256"},{"internalType":"enum DonaTheta.MediaItemType","name":"mediaItemType","type":"uint8"}],"name":"getWithdrawalRequestMediaItems","outputs":[{"components":[{"internalType":"string","name":"name","type":"string"},{"internalType":"string","name":"description","type":"string"},{"internalType":"enum DonaTheta.MediaItemType","name":"mediaItemType","type":"uint8"},{"internalType":"string","name":"url","type":"string"}],"internalType":"struct DonaTheta.MediaItem[]","name":"","type":"tuple[]"}],"stateMutability":"view","type":"function"},{"inputs":[],"name":"isUserDonaStaff","outputs":[{"internalType":"bool","name":"","type":"bool"}],"stateMutability":"view","type":"function"},{"inputs":[{"internalType":"uint256","name":"projectId","type":"uint256"}],"name":"makeDonation","outputs":[],"stateMutability":"payable","type":"function"},{"inputs":[],"name":"numberOfDonationProjects","outputs":[{"internalType":"uint256","name":"","type":"uint256"}],"stateMutability":"view","type":"function"},{"inputs":[],"name":"numberOfWithdrawalRequests","outputs":[{"internalType":"uint256","name":"","type":"uint256"}],"stateMutability":"view","type":"function"},{"inputs":[{"internalType":"address","name":"","type":"address"},{"internalType":"uint256","name":"","type":"uint256"}],"name":"organizingProjects","outputs":[{"internalType":"uint256","name":"","type":"uint256"}],"stateMutability":"view","type":"function"},{"inputs":[],"name":"owner","outputs":[{"internalType":"address","name":"","type":"address"}],"stateMutability":"view","type":"function"},{"inputs":[{"internalType":"uint256","name":"_projectId","type":"uint256"},{"internalType":"uint256","name":"_requestId","type":"uint256"}],"name":"recalculateWithdrawalRequestVotes","outputs":[],"stateMutability":"nonpayable","type":"function"},{"inputs":[{"internalType":"uint256","name":"projectId","type":"uint256"},{"internalType":"uint256","name":"requestId","type":"uint256"}],"name":"rejectWithdrawalRequest","outputs":[],"stateMutability":"nonpayable","type":"function"},{"inputs":[],"name":"totalDonationsReceived","outputs":[{"internalType":"uint256","name":"","type":"uint256"}],"stateMutability":"view","type":"function"},{"inputs":[],"name":"totalDonationsUtilized","outputs":[{"internalType":"uint256","name":"","type":"uint256"}],"stateMutability":"view","type":"function"},{"inputs":[],"name":"totalTargetAmount","outputs":[{"internalType":"uint256","name":"","type":"uint256"}],"stateMutability":"view","type":"function"},{"inputs":[{"internalType":"uint256","name":"projectId","type":"uint256"},{"internalType":"uint256","name":"requestId","type":"uint256"}],"name":"withdrawFunds","outputs":[],"stateMutability":"nonpayable","type":"function"},{"inputs":[{"internalType":"uint256","name":"","type":"uint256"},{"internalType":"uint256","name":"","type":"uint256"}],"name":"withdrawalRequests","outputs":[{"internalType":"uint256","name":"projectId","type":"uint256"},{"internalType":"enum DonaTheta.WithdrawalRequestStatus","name":"withdrawalRequestStatus","type":"uint8"},{"internalType":"address","name":"owner","type":"address"},{"internalType":"string","name":"name","type":"string"},{"internalType":"string","name":"description","type":"string"},{"internalType":"uint256","name":"withdrawAmount","type":"uint256"},{"internalType":"uint256","name":"numberOfApprovals","type":"uint256"},{"internalType":"uint256","name":"numberOfRejections","type":"uint256"}],"stateMutability":"view","type":"function"}],"evm":{"bytecode":{"linkReferences":{},"object":"60806040526000600255600060035534801561001a57600080fd5b50600080546001600160a01b03191633179055615dde806200003d6000396000f3fe6080604052600436106102195760003560e01c8063a17a37dd1161011d578063da1c6daf116100b0578063f49e73001161007f578063f7d6ab4611610064578063f7d6ab4614610674578063fb812a0b14610694578063fcc686a9146106b457600080fd5b8063f49e73001461061f578063f4c88b691461064457600080fd5b8063da1c6daf1461057b578063da903d13146105ab578063e25edc31146105df578063e5253105146105ff57600080fd5b8063b219f916116100ec578063b219f916146104fb578063b42766fa1461050e578063b97c6b591461053b578063d630b8121461055b57600080fd5b8063a17a37dd1461048f578063a7dbcb76146104a5578063a80098b0146104c5578063b00d29e8146104db57600080fd5b806356ac0d65116101b0578063708cdfe61161017f578063862e2fc811610164578063862e2fc81461044357806388cd1b63146104595780638da5cb5b1461046f57600080fd5b8063708cdfe6146104035780638398b7c11461042357600080fd5b806356ac0d651461038357806356c6ebfe146103a357806356f9c416146103c357806367dbca0e146103e357600080fd5b80633866b6a3116101ec5780633866b6a3146102c15780633d31bdb4146102e15780634b720bbf1461032b5780635121959f1461036357600080fd5b806322043b5c1461021e5780632b95b559146102405780633138f026146102695780633238d32f14610289575b600080fd5b34801561022a57600080fd5b5061023e6102393660046155ba565b6106d4565b005b34801561024c57600080fd5b5061025660045481565b6040519081526020015b60405180910390f35b34801561027557600080fd5b5061023e610284366004615665565b610a1e565b34801561029557600080fd5b506102a96102a4366004615687565b610e4f565b6040516001600160a01b039091168152602001610260565b3480156102cd57600080fd5b5061023e6102dc366004615665565b610e79565b3480156102ed57600080fd5b506103016102fc3660046156b7565b6112eb565b604080516001600160a01b0390951685526020850193909352918301526060820152608001610260565b34801561033757600080fd5b5061034b610346366004615687565b61133b565b6040516102609c9b9a99989796959493929190615744565b34801561036f57600080fd5b5061023e61037e3660046157e3565b6114b2565b34801561038f57600080fd5b5061023e61039e366004615665565b611700565b3480156103af57600080fd5b5061023e6103be366004615687565b61187a565b3480156103cf57600080fd5b5061023e6103de366004615665565b6119f0565b3480156103ef57600080fd5b5061023e6103fe366004615665565b611a57565b34801561040f57600080fd5b5061023e61041e36600461589f565b611c28565b34801561042f57600080fd5b5061023e61043e366004615959565b612055565b34801561044f57600080fd5b5061025660055481565b34801561046557600080fd5b5061025660035481565b34801561047b57600080fd5b506000546102a9906001600160a01b031681565b34801561049b57600080fd5b5061025660025481565b3480156104b157600080fd5b5061023e6104c03660046159fc565b61232f565b3480156104d157600080fd5b5061025660065481565b3480156104e757600080fd5b5061023e6104f6366004615a3b565b61266c565b61023e610509366004615687565b6128f1565b34801561051a57600080fd5b5061052e610529366004615af1565b612cc8565b6040516102609190615b2d565b34801561054757600080fd5b506102566105563660046156b7565b61365b565b34801561056757600080fd5b5061052e6105763660046157e3565b61368c565b34801561058757600080fd5b50610256610596366004615687565b6000908152600760205260409020600f015490565b3480156105b757600080fd5b506105cb6105c6366004615665565b614040565b604051610260989796959493929190615be2565b3480156105eb57600080fd5b5061023e6105fa366004615687565b6141ac565b34801561060b57600080fd5b5061023e61061a366004615665565b61498f565b34801561062b57600080fd5b50610634614ce2565b6040519015158152602001610260565b34801561065057600080fd5b5061025661065f366004615687565b6000908152600760205260409020600e015490565b34801561068057600080fd5b5061025661068f3660046156b7565b614d49565b3480156106a057600080fd5b5061023e6106af3660046155ba565b614d65565b3480156106c057600080fd5b5061023e6106cf3660046157e3565b614faf565b60008681526007602052604081208791805b600483015460ff8216101561073957826004018160ff168154811061070d5761070d615c4f565b6000918252602090912001546001600160a01b031633036107315760019150610739565b6001016106e6565b50806107b25760405162461bcd60e51b815260206004820152603d60248201527f54686520616374696f6e2063616e206f6e6c7920626520706572666f726d656460448201527f206279206f7267616e697a657273206f66207468652070726f6a65637400000060648201526084015b60405180910390fd5b600060405180608001604052808981526020018881526020018660048111156107dd576107dd6156e1565b8152602001879052905060008560048111156107fb576107fb6156e1565b036108ad5760008a81526008602090815260408083208c845282528220600490810180546001810182559084529282902084518051869590930290910192610848928492909101906152ec565b50602082810151805161086192600185019201906152ec565b50604082015160028201805460ff19166001836004811115610885576108856156e1565b0217905550606082015180516108a59160038401916020909101906152ec565b505050610a12565b60028560048111156108c1576108c16156e1565b0361090c5760008a81526008602090815260408083208c84528252822060060180546001810182559083529181902083518051859460040290920192610848928492909101906152ec565b6001856004811115610920576109206156e1565b0361096b5760008a81526008602090815260408083208c84528252822060050180546001810182559083529181902083518051859460040290920192610848928492909101906152ec565b600385600481111561097f5761097f6156e1565b036109ca5760008a81526008602090815260408083208c84528252822060070180546001810182559083529181902083518051859460040290920192610848928492909101906152ec565b60405162461bcd60e51b815260206004820152601760248201527f496e76616c6964206d65646961206974656d207479706500000000000000000060448201526064016107a9565b50505050505050505050565b60008281526007602052604081208391805b601183015460ff82161015610a8357826011018160ff1681548110610a5757610a57615c4f565b6000918252602090912001546001600160a01b03163303610a7b5760019150610a83565b600101610a30565b5080610ae15760005b601283015460ff82161015610adf57826012018160ff1681548110610ab357610ab3615c4f565b6000918252602090912001546001600160a01b03163303610ad75760019150610adf565b600101610a8c565b505b80610b3e5760005b600483015460ff82161015610b3c57826004018160ff1681548110610b1057610b10615c4f565b6000918252602090912001546001600160a01b03163303610b345760019150610b3c565b600101610ae9565b505b80610bc55760405162461bcd60e51b815260206004820152604b60248201527f5468697320616374696f6e2063616e206f6e6c7920626520706572666f726d6560448201527f64206279206d656d62657273206f662054686520446f6e6120417070726f766160648201526a6c20436f6d6d697474656560a81b608482015260a4016107a9565b60008581526008602090815260408083208784529091529020859085906004600182015460ff166004811115610bfd57610bfd6156e1565b03610c625760405162461bcd60e51b815260206004820152602f60248201527f596f752063616e6e6f7420766f7465206f6e20616e20616c726561647920776960448201526e1d1a191c985ddb881c995c5d595cdd608a1b60648201526084016107a9565b6000805b600b830154811015610cc657336001600160a01b031683600b018281548110610c9157610c91615c4f565b6000918252602090912001546001600160a01b031603610cb45760019150610cc6565b80610cbe81615c7b565b915050610c66565b5060005b600c830154811015610d2a57336001600160a01b031683600c018281548110610cf557610cf5615c4f565b6000918252602090912001546001600160a01b031603610d185760019150610d2a565b80610d2281615c7b565b915050610cca565b508015610d885760405162461bcd60e51b815260206004820152602660248201527f596f75206861766520616c726561647920766f746564206f6e20746869732072604482015265195c5d595cdd60d21b60648201526084016107a9565b60008981526008602090815260408083208b8452909152812090600182015460ff166004811115610dbb57610dbb6156e1565b14610e085760405162461bcd60e51b815260206004820152601260248201527f52657175657374206973206e6f74206e6577000000000000000000000000000060448201526064016107a9565b600c810180546001810182556000918252602082200180546001600160a01b03191633179055600a8201805491610e3e83615c7b565b919050555050505050505050505050565b60018181548110610e5f57600080fd5b6000918252602090912001546001600160a01b0316905081565b60008281526007602052604081208391805b601183015460ff82161015610ede57826011018160ff1681548110610eb257610eb2615c4f565b6000918252602090912001546001600160a01b03163303610ed65760019150610ede565b600101610e8b565b5080610f3c5760005b601283015460ff82161015610f3a57826012018160ff1681548110610f0e57610f0e615c4f565b6000918252602090912001546001600160a01b03163303610f325760019150610f3a565b600101610ee7565b505b80610f995760005b600483015460ff82161015610f9757826004018160ff1681548110610f6b57610f6b615c4f565b6000918252602090912001546001600160a01b03163303610f8f5760019150610f97565b600101610f44565b505b806110205760405162461bcd60e51b815260206004820152604b60248201527f5468697320616374696f6e2063616e206f6e6c7920626520706572666f726d6560448201527f64206279206d656d62657273206f662054686520446f6e6120417070726f766160648201526a6c20436f6d6d697474656560a81b608482015260a4016107a9565b60008581526008602090815260408083208784529091529020859085906004600182015460ff166004811115611058576110586156e1565b036110bd5760405162461bcd60e51b815260206004820152602f60248201527f596f752063616e6e6f7420766f7465206f6e20616e20616c726561647920776960448201526e1d1a191c985ddb881c995c5d595cdd608a1b60648201526084016107a9565b6000805b600b83015481101561112157336001600160a01b031683600b0182815481106110ec576110ec615c4f565b6000918252602090912001546001600160a01b03160361110f5760019150611121565b8061111981615c7b565b9150506110c1565b5060005b600c83015481101561118557336001600160a01b031683600c01828154811061115057611150615c4f565b6000918252602090912001546001600160a01b0316036111735760019150611185565b8061117d81615c7b565b915050611125565b5080156111e35760405162461bcd60e51b815260206004820152602660248201527f596f75206861766520616c726561647920766f746564206f6e20746869732072604482015265195c5d595cdd60d21b60648201526084016107a9565b60008981526008602090815260408083208b8452909152812090600182015460ff166004811115611216576112166156e1565b146112635760405162461bcd60e51b815260206004820152601260248201527f52657175657374206973206e6f74206e6577000000000000000000000000000060448201526064016107a9565b600b810180546001810182556000918252602082200180546001600160a01b031916331790556009820180549161129983615c7b565b909155505060008a815260076020526040812060138101549091906112c39060029060ff16615caa565b60ff16905080836009015411156112dd576112dd836152bf565b505050505050505050505050565b600b602052816000526040600020818154811061130757600080fd5b600091825260209091206004909102018054600182015460028301546003909301546001600160a01b039092169450925084565b600760205260009081526040902080546001820154600283018054929360ff9092169261136790615ccc565b80601f016020809104026020016040519081016040528092919081815260200182805461139390615ccc565b80156113e05780601f106113b5576101008083540402835291602001916113e0565b820191906000526020600020905b8154815290600101906020018083116113c357829003601f168201915b5050505050908060030180546113f590615ccc565b80601f016020809104026020016040519081016040528092919081815260200182805461142190615ccc565b801561146e5780601f106114435761010080835404028352916020019161146e565b820191906000526020600020905b81548152906001019060200180831161145157829003601f168201915b505050600584015460068501546007860154600c870154600e880154600f8901546013909901549798949793965091945060ff80821694610100909204811693168c565b600083815260076020526040812090548491906001600160a01b031633148061152d5760005b600483015460ff8216101561152b57826004018160ff16815481106114ff576114ff615c4f565b6000918252602090912001546001600160a01b03163303611523576001915061152b565b6001016114d8565b505b8061157c5760005b60015481101561157a576001818154811061155257611552615c4f565b6000918252602090912001546001600160a01b0316330361157257600191505b600101611535565b505b806115ef5760405162461bcd60e51b815260206004820152603d60248201527f54686520616374696f6e2063616e206f6e6c7920626520706572666f726d656460448201527f206279206f7267616e697a657273206f66207468652070726f6a65637400000060648201526084016107a9565b6000846004811115611603576116036156e1565b03611635576000868152600860209081526040808320888452909152812061163091600490910190615370565b6116f8565b6002846004811115611649576116496156e1565b03611676576000868152600860209081526040808320888452909152812061163091600690910190615370565b600184600481111561168a5761168a6156e1565b036116b7576000868152600860209081526040808320888452909152812061163091600590910190615370565b60038460048111156116cb576116cb6156e1565b036109ca576000868152600860209081526040808320888452909152812061163091600790910190615370565b505050505050565b6000546001600160a01b03163314806117615760005b60015481101561175f576001818154811061173357611733615c4f565b6000918252602090912001546001600160a01b03163303611757576001915061175f565b600101611716565b505b806117c15760405162461bcd60e51b815260206004820152602a60248201527f4f6e6c79206f776e6572206f722073746166662063616e2063616c6c207468696044820152693990333ab731ba34b7b760b11b60648201526084016107a9565b6000838152600860209081526040808320858452909152902060018082015460ff1660048111156117f4576117f46156e1565b146118675760405162461bcd60e51b815260206004820152603e60248201527f596f752063616e206f6e6c792066756c6c7920617070726f766520612072657160448201527f7565737420617070726f7665642062792074686520636f6d6d6974746565000060648201526084016107a9565b600101805460ff19166002179055505050565b6000546001600160a01b03163314806118db5760005b6001548110156118d957600181815481106118ad576118ad615c4f565b6000918252602090912001546001600160a01b031633036118d157600191506118d9565b600101611890565b505b8061193b5760405162461bcd60e51b815260206004820152602a60248201527f4f6e6c79206f776e6572206f722073746166662063616e2063616c6c207468696044820152693990333ab731ba34b7b760b11b60648201526084016107a9565b6000828152600760205260409020600c81015483919060ff16156119a15760405162461bcd60e51b815260206004820152601c60248201527f50726f6a65637420697320616c726561647920417070726f766564210000000060448201526064016107a9565b600084815260076020526040808220600c8101805460ff191660011790559051909186917f5382406121492e13eb8b00a0122012025548dbd3b07f9b3184c26db775732b229190a25050505050565b6000828152600760209081526040808320600883528184208585529092528220601382015491929091611a289060029060ff16615caa565b60ff1690508082600901541115611a4757611a42826152bf565b611a50565b611a50826152d5565b5050505050565b60008281526007602052604081208391805b600483015460ff82161015611abc57826004018160ff1681548110611a9057611a90615c4f565b6000918252602090912001546001600160a01b03163303611ab45760019150611abc565b600101611a69565b5080611b305760405162461bcd60e51b815260206004820152603d60248201527f54686520616374696f6e2063616e206f6e6c7920626520706572666f726d656460448201527f206279206f7267616e697a657273206f66207468652070726f6a65637400000060648201526084016107a9565b6000858152600760205260409020600c0154859060ff16611bb95760405162461bcd60e51b815260206004820152603160248201527f54686520616374696f6e2063616e206f6e6c792068617070656e206f6e20616e60448201527f20617070726f7665642070726f6a65637400000000000000000000000000000060648201526084016107a9565b6000868152600860208181526040808420600380548652925283208981556001810180547fffffffffffffffffffffff00000000000000000000000000000000000000000016336101000217905591820188905580549192611c1a83615c7b565b919050555050505050505050565b6000546001600160a01b0316331480611c895760005b600154811015611c875760018181548110611c5b57611c5b615c4f565b6000918252602090912001546001600160a01b03163303611c7f5760019150611c87565b600101611c3e565b505b80611ce95760405162461bcd60e51b815260206004820152602a60248201527f4f6e6c79206f776e6572206f722073746166662063616e2063616c6c207468696044820152693990333ab731ba34b7b760b11b60648201526084016107a9565b6002546000908152600760205260409020600180820180548b9260ff19909116908381811115611d1b57611d1b6156e1565b02179055508751611d3590600283019060208b01906152ec565b508651611d4b90600383019060208a01906152ec565b506000805b8751811015611da657336001600160a01b0316888281518110611d7557611d75615c4f565b60200260200101516001600160a01b031603611d945760019150611da6565b80611d9e81615c7b565b915050611d50565b5080611ea957600087516001611dbc9190615d00565b67ffffffffffffffff811115611dd457611dd46154f4565b604051908082528060200260200182016040528015611dfd578160200160208202803683370190505b50905060005b8851811015611e6257888181518110611e1e57611e1e615c4f565b6020026020010151828281518110611e3857611e38615c4f565b6001600160a01b039092166020928302919091019091015280611e5a81615c7b565b915050611e03565b503381895181518110611e7757611e77615c4f565b6001600160a01b039092166020928302919091018201528151611ea291600486019190840190615394565b5050611ec0565b8651611ebe90600484019060208a0190615394565b505b6001600254611ecf9190615d18565b8255600582018690556006820185905560078201849055600c8201805461ffff191690556000600e8301819055600f830181905560048054889290611f15908490615d00565b90915550600090505b6004830154811015611fe85760096000846004018381548110611f4357611f43615c4f565b60009182526020808320909101546001600160a01b03168352828101939093526040909101812060025481546001810183559183529282200191909155600484018054600a92919084908110611f9b57611f9b615c4f565b60009182526020808320909101546001600160a01b031683528281019390935260409091018120600254815460018101835591835292909120015580611fe081615c7b565b915050611f1e565b5060028054906000611ff983615c7b565b9190505550600160025461200d9190615d18565b7fd2a5012dc4bd19dc1abee5a94a684343c01b625110482b114fc5124f5e37cb9f8360040188604051612041929190615d2f565b60405180910390a250505050505050505050565b60008581526007602052604081208691805b600483015460ff821610156120ba57826004018160ff168154811061208e5761208e615c4f565b6000918252602090912001546001600160a01b031633036120b257600191506120ba565b600101612067565b508061212e5760405162461bcd60e51b815260206004820152603d60248201527f54686520616374696f6e2063616e206f6e6c7920626520706572666f726d656460448201527f206279206f7267616e697a657273206f66207468652070726f6a65637400000060648201526084016107a9565b60006040518060800160405280898152602001888152602001866004811115612159576121596156e1565b815260200187905290506000856004811115612177576121776156e1565b0361221f5760008981526007602090815260408220600801805460018101825590835291819020835180518594600402909201926121ba928492909101906152ec565b5060208281015180516121d392600185019201906152ec565b50604082015160028201805460ff191660018360048111156121f7576121f76156e1565b0217905550606082015180516122179160038401916020909101906152ec565b505050612324565b6002856004811115612233576122336156e1565b036122765760008981526007602090815260408220600a01805460018101825590835291819020835180518594600402909201926121ba928492909101906152ec565b600185600481111561228a5761228a6156e1565b036122cd5760008981526007602090815260408220600901805460018101825590835291819020835180518594600402909201926121ba928492909101906152ec565b60038560048111156122e1576122e16156e1565b036109ca5760008981526007602090815260408220600b01805460018101825590835291819020835180518594600402909201926121ba928492909101906152ec565b505050505050505050565b6000546001600160a01b03163314806123905760005b60015481101561238e576001818154811061236257612362615c4f565b6000918252602090912001546001600160a01b03163303612386576001915061238e565b600101612345565b505b806123f05760405162461bcd60e51b815260206004820152602a60248201527f4f6e6c79206f776e6572206f722073746166662063616e2063616c6c207468696044820152693990333ab731ba34b7b760b11b60648201526084016107a9565b600080836004811115612405576124056156e1565b0361242c5750600085815260086020908152604080832087845290915290206004016124d9565b6002836004811115612440576124406156e1565b036124675750600085815260086020908152604080832087845290915290206006016124d9565b600183600481111561247b5761247b6156e1565b036124a25750600085815260086020908152604080832087845290915290206005016124d9565b60038360048111156124b6576124b66156e1565b036109ca5750600085815260086020908152604080832087845290915290206007015b805484106125295760405162461bcd60e51b815260206004820152601860248201527f496e76616c6964204d65646961204974656d20496e646578000000000000000060448201526064016107a9565b8054819061253990600190615d18565b8154811061254957612549615c4f565b906000526020600020906004020181858154811061256957612569615c4f565b9060005260206000209060040201600082018160000190805461258b90615ccc565b6125969291906153e9565b5060018201816001019080546125ab90615ccc565b6125b69291906153e9565b50600282810154908201805460ff9092169160ff191660018360048111156125e0576125e06156e1565b021790555060038201816003019080546125f990615ccc565b6126049291906153e9565b509050508080548061261857612618615d88565b600082815260208120600019909201916004830201906126388282615464565b612646600183016000615464565b60028201805460ff19169055612660600383016000615464565b50509055505050505050565b60008781526007602052604081208891805b600483015460ff821610156126d157826004018160ff16815481106126a5576126a5615c4f565b6000918252602090912001546001600160a01b031633036126c957600191506126d1565b60010161267e565b50806127455760405162461bcd60e51b815260206004820152603d60248201527f54686520616374696f6e2063616e206f6e6c7920626520706572666f726d656460448201527f206279206f7267616e697a657273206f66207468652070726f6a65637400000060648201526084016107a9565b60008085600481111561275a5761275a6156e1565b03612781575060008a81526008602090815260408083208c8452909152902060040161282e565b6002856004811115612795576127956156e1565b036127bc575060008a81526008602090815260408083208c8452909152902060060161282e565b60018560048111156127d0576127d06156e1565b036127f7575060008a81526008602090815260408083208c8452909152902060050161282e565b600385600481111561280b5761280b6156e1565b036109ca575060008a81526008602090815260408083208c845290915290206007015b8054891061287e5760405162461bcd60e51b815260206004820152601860248201527f496e76616c6964204d65646961204974656d20496e646578000000000000000060448201526064016107a9565b6000818a8154811061289257612892615c4f565b60009182526020918290208b5160049092020192506128b6918391908c01906152ec565b5087516128cc90600183019060208b01906152ec565b5086516128e290600383019060208a01906152ec565b50505050505050505050505050565b6000818152600760205260409020600c81015482919060ff1661297c5760405162461bcd60e51b815260206004820152602f60248201527f446f6e6174696f6e2063616e206f6e6c792068617070656e206f6e20616e206160448201527f7070726f7665642070726f6a656374000000000000000000000000000000000060648201526084016107a9565b600060018083015460ff1690811115612997576129976156e1565b03612afb57600681015442908111612a175760405162461bcd60e51b815260206004820152602d60248201527f446f6e6174696f6e2063616e6e6f742068617070656e206265666f726520736560448201527f6c656374656420706572696f640000000000000000000000000000000000000060648201526084016107a9565b81600701548110612a905760405162461bcd60e51b815260206004820152602c60248201527f446f6e6174696f6e2063616e6e6f742068617070656e2061667465722073656c60448201527f656374656420706572696f64000000000000000000000000000000000000000060648201526084016107a9565b600c820154610100900460ff16612af55760405162461bcd60e51b8152602060048201526024808201527f54686520446f6e6174696f6e2050726f6a65637420686173206265656e20636c6044820152631bdcd95960e21b60648201526084016107a9565b50612b7a565b600c810154610100900460ff16612b7a5760405162461bcd60e51b815260206004820152603160248201527f54686520446f6e6174696f6e2050726f6a65637420686173206265656e20636c60448201527f6f73656420746f20646f6e6174696f6e7300000000000000000000000000000060648201526084016107a9565b60008381526007602090815260408220600d8101805460018101825590845291832090910180546001600160a01b03191633179055600e8101805491923492612bc4908490615d00565b909155505033600090815260108201602052604081208054349290612bea908490615d00565b925050819055503460056000828254612c039190615d00565b9091555050604080516080810182523380825260208083018881524284860190815234606086018181526000868152600b865288812080546001808201835591835291879020895160049093020180546001600160a01b0319166001600160a01b03909316929092178255945194810194909455915160028401559051600390920191909155845192835290820152909186917fe555da28bdb778f65d22794d88927ebaeca03f7de9d1b7d39245bc8fb5ca078a910160405180910390a25050505050565b60606000826004811115612cde57612cde6156e1565b03612f3557600083815260076020908152604080832060080180548251818502810185019093528083529193909284015b82821015612f2a5783829060005260206000209060040201604051806080016040529081600082018054612d4290615ccc565b80601f0160208091040260200160405190810160405280929190818152602001828054612d6e90615ccc565b8015612dbb5780601f10612d9057610100808354040283529160200191612dbb565b820191906000526020600020905b815481529060010190602001808311612d9e57829003601f168201915b50505050508152602001600182018054612dd490615ccc565b80601f0160208091040260200160405190810160405280929190818152602001828054612e0090615ccc565b8015612e4d5780601f10612e2257610100808354040283529160200191612e4d565b820191906000526020600020905b815481529060010190602001808311612e3057829003601f168201915b5050509183525050600282015460209091019060ff166004811115612e7457612e746156e1565b6004811115612e8557612e856156e1565b8152602001600382018054612e9990615ccc565b80601f0160208091040260200160405190810160405280929190818152602001828054612ec590615ccc565b8015612f125780601f10612ee757610100808354040283529160200191612f12565b820191906000526020600020905b815481529060010190602001808311612ef557829003601f168201915b50505050508152505081526020019060010190612d0f565b505050509050613655565b6002826004811115612f4957612f496156e1565b03613195576000838152600760209081526040808320600a0180548251818502810185019093528083529193909284015b82821015612f2a5783829060005260206000209060040201604051806080016040529081600082018054612fad90615ccc565b80601f0160208091040260200160405190810160405280929190818152602001828054612fd990615ccc565b80156130265780601f10612ffb57610100808354040283529160200191613026565b820191906000526020600020905b81548152906001019060200180831161300957829003601f168201915b5050505050815260200160018201805461303f90615ccc565b80601f016020809104026020016040519081016040528092919081815260200182805461306b90615ccc565b80156130b85780601f1061308d576101008083540402835291602001916130b8565b820191906000526020600020905b81548152906001019060200180831161309b57829003601f168201915b5050509183525050600282015460209091019060ff1660048111156130df576130df6156e1565b60048111156130f0576130f06156e1565b815260200160038201805461310490615ccc565b80601f016020809104026020016040519081016040528092919081815260200182805461313090615ccc565b801561317d5780601f106131525761010080835404028352916020019161317d565b820191906000526020600020905b81548152906001019060200180831161316057829003601f168201915b50505050508152505081526020019060010190612f7a565b60018260048111156131a9576131a96156e1565b036133f557600083815260076020908152604080832060090180548251818502810185019093528083529193909284015b82821015612f2a578382906000526020600020906004020160405180608001604052908160008201805461320d90615ccc565b80601f016020809104026020016040519081016040528092919081815260200182805461323990615ccc565b80156132865780601f1061325b57610100808354040283529160200191613286565b820191906000526020600020905b81548152906001019060200180831161326957829003601f168201915b5050505050815260200160018201805461329f90615ccc565b80601f01602080910402602001604051908101604052809291908181526020018280546132cb90615ccc565b80156133185780601f106132ed57610100808354040283529160200191613318565b820191906000526020600020905b8154815290600101906020018083116132fb57829003601f168201915b5050509183525050600282015460209091019060ff16600481111561333f5761333f6156e1565b6004811115613350576133506156e1565b815260200160038201805461336490615ccc565b80601f016020809104026020016040519081016040528092919081815260200182805461339090615ccc565b80156133dd5780601f106133b2576101008083540402835291602001916133dd565b820191906000526020600020905b8154815290600101906020018083116133c057829003601f168201915b505050505081525050815260200190600101906131da565b6003826004811115613409576134096156e1565b036109ca576000838152600760209081526040808320600b0180548251818502810185019093528083529193909284015b82821015612f2a578382906000526020600020906004020160405180608001604052908160008201805461346d90615ccc565b80601f016020809104026020016040519081016040528092919081815260200182805461349990615ccc565b80156134e65780601f106134bb576101008083540402835291602001916134e6565b820191906000526020600020905b8154815290600101906020018083116134c957829003601f168201915b505050505081526020016001820180546134ff90615ccc565b80601f016020809104026020016040519081016040528092919081815260200182805461352b90615ccc565b80156135785780601f1061354d57610100808354040283529160200191613578565b820191906000526020600020905b81548152906001019060200180831161355b57829003601f168201915b5050509183525050600282015460209091019060ff16600481111561359f5761359f6156e1565b60048111156135b0576135b06156e1565b81526020016003820180546135c490615ccc565b80601f01602080910402602001604051908101604052809291908181526020018280546135f090615ccc565b801561363d5780601f106136125761010080835404028352916020019161363d565b820191906000526020600020905b81548152906001019060200180831161362057829003601f168201915b5050505050815250508152602001906001019061343a565b92915050565b6009602052816000526040600020818154811061367757600080fd5b90600052602060002001600091509150505481565b606060008260048111156136a2576136a26156e1565b03613901576000848152600860209081526040808320868452825280832060040180548251818502810185019093528083529193909284015b828210156138f6578382906000526020600020906004020160405180608001604052908160008201805461370e90615ccc565b80601f016020809104026020016040519081016040528092919081815260200182805461373a90615ccc565b80156137875780601f1061375c57610100808354040283529160200191613787565b820191906000526020600020905b81548152906001019060200180831161376a57829003601f168201915b505050505081526020016001820180546137a090615ccc565b80601f01602080910402602001604051908101604052809291908181526020018280546137cc90615ccc565b80156138195780601f106137ee57610100808354040283529160200191613819565b820191906000526020600020905b8154815290600101906020018083116137fc57829003601f168201915b5050509183525050600282015460209091019060ff166004811115613840576138406156e1565b6004811115613851576138516156e1565b815260200160038201805461386590615ccc565b80601f016020809104026020016040519081016040528092919081815260200182805461389190615ccc565b80156138de5780601f106138b3576101008083540402835291602001916138de565b820191906000526020600020905b8154815290600101906020018083116138c157829003601f168201915b505050505081525050815260200190600101906136db565b505050509050614039565b6002826004811115613915576139156156e1565b03613b69576000848152600860209081526040808320868452825280832060060180548251818502810185019093528083529193909284015b828210156138f6578382906000526020600020906004020160405180608001604052908160008201805461398190615ccc565b80601f01602080910402602001604051908101604052809291908181526020018280546139ad90615ccc565b80156139fa5780601f106139cf576101008083540402835291602001916139fa565b820191906000526020600020905b8154815290600101906020018083116139dd57829003601f168201915b50505050508152602001600182018054613a1390615ccc565b80601f0160208091040260200160405190810160405280929190818152602001828054613a3f90615ccc565b8015613a8c5780601f10613a6157610100808354040283529160200191613a8c565b820191906000526020600020905b815481529060010190602001808311613a6f57829003601f168201915b5050509183525050600282015460209091019060ff166004811115613ab357613ab36156e1565b6004811115613ac457613ac46156e1565b8152602001600382018054613ad890615ccc565b80601f0160208091040260200160405190810160405280929190818152602001828054613b0490615ccc565b8015613b515780601f10613b2657610100808354040283529160200191613b51565b820191906000526020600020905b815481529060010190602001808311613b3457829003601f168201915b5050505050815250508152602001906001019061394e565b6001826004811115613b7d57613b7d6156e1565b03613dd1576000848152600860209081526040808320868452825280832060050180548251818502810185019093528083529193909284015b828210156138f65783829060005260206000209060040201604051806080016040529081600082018054613be990615ccc565b80601f0160208091040260200160405190810160405280929190818152602001828054613c1590615ccc565b8015613c625780601f10613c3757610100808354040283529160200191613c62565b820191906000526020600020905b815481529060010190602001808311613c4557829003601f168201915b50505050508152602001600182018054613c7b90615ccc565b80601f0160208091040260200160405190810160405280929190818152602001828054613ca790615ccc565b8015613cf45780601f10613cc957610100808354040283529160200191613cf4565b820191906000526020600020905b815481529060010190602001808311613cd757829003601f168201915b5050509183525050600282015460209091019060ff166004811115613d1b57613d1b6156e1565b6004811115613d2c57613d2c6156e1565b8152602001600382018054613d4090615ccc565b80601f0160208091040260200160405190810160405280929190818152602001828054613d6c90615ccc565b8015613db95780601f10613d8e57610100808354040283529160200191613db9565b820191906000526020600020905b815481529060010190602001808311613d9c57829003601f168201915b50505050508152505081526020019060010190613bb6565b6003826004811115613de557613de56156e1565b036109ca576000848152600860209081526040808320868452825280832060070180548251818502810185019093528083529193909284015b828210156138f65783829060005260206000209060040201604051806080016040529081600082018054613e5190615ccc565b80601f0160208091040260200160405190810160405280929190818152602001828054613e7d90615ccc565b8015613eca5780601f10613e9f57610100808354040283529160200191613eca565b820191906000526020600020905b815481529060010190602001808311613ead57829003601f168201915b50505050508152602001600182018054613ee390615ccc565b80601f0160208091040260200160405190810160405280929190818152602001828054613f0f90615ccc565b8015613f5c5780601f10613f3157610100808354040283529160200191613f5c565b820191906000526020600020905b815481529060010190602001808311613f3f57829003601f168201915b5050509183525050600282015460209091019060ff166004811115613f8357613f836156e1565b6004811115613f9457613f946156e1565b8152602001600382018054613fa890615ccc565b80601f0160208091040260200160405190810160405280929190818152602001828054613fd490615ccc565b80156140215780601f10613ff657610100808354040283529160200191614021565b820191906000526020600020905b81548152906001019060200180831161400457829003601f168201915b50505050508152505081526020019060010190613e1e565b9392505050565b6008602090815260009283526040808420909152908252902080546001820154600283018054929360ff8316936101009093046001600160a01b03169290919061408990615ccc565b80601f01602080910402602001604051908101604052809291908181526020018280546140b590615ccc565b80156141025780601f106140d757610100808354040283529160200191614102565b820191906000526020600020905b8154815290600101906020018083116140e557829003601f168201915b50505050509080600301805461411790615ccc565b80601f016020809104026020016040519081016040528092919081815260200182805461414390615ccc565b80156141905780601f1061416557610100808354040283529160200191614190565b820191906000526020600020905b81548152906001019060200180831161417357829003601f168201915b50505050509080600801549080600901549080600a0154905088565b60008181526007602052604081208291805b600483015460ff8216101561421157826004018160ff16815481106141e5576141e5615c4f565b6000918252602090912001546001600160a01b031633036142095760019150614211565b6001016141be565b50806142855760405162461bcd60e51b815260206004820152603d60248201527f54686520616374696f6e2063616e206f6e6c7920626520706572666f726d656460448201527f206279206f7267616e697a657273206f66207468652070726f6a65637400000060648201526084016107a9565b6000848152600760205260409020600c810154610100900460ff166142aa5750614989565b600c8101805461ff0019169055600d81015460008190036142cc575050614989565b60008167ffffffffffffffff8111156142e7576142e76154f4565b604051908082528060200260200182016040528015614310578160200160208202803683370190505b50905060008267ffffffffffffffff81111561432e5761432e6154f4565b604051908082528060200260200182016040528015614357578160200160208202803683370190505b50905060005b8381101561442757600085600d01828154811061437c5761437c615c4f565b9060005260206000200160009054906101000a90046001600160a01b03169050808483815181106143af576143af615c4f565b60200260200101906001600160a01b031690816001600160a01b031681525050856010016000826001600160a01b03166001600160a01b031681526020019081526020016000205483838151811061440957614409615c4f565b6020908102919091010152508061441f81615c7b565b91505061435d565b50600a83111561485f5760005b61443f600185615d18565b8110156145e35760005b60016144558387615d18565b61445f9190615d18565b8110156145d05782614472826001615d00565b8151811061448257614482615c4f565b602002602001015183828151811061449c5761449c615c4f565b602002602001015110156145be57826144b6826001615d00565b815181106144c6576144c6615c4f565b60200260200101518382815181106144e0576144e0615c4f565b60200260200101518483815181106144fa576144fa615c4f565b602002602001018584600161450f9190615d00565b8151811061451f5761451f615c4f565b6020908102919091010191909152528361453a826001615d00565b8151811061454a5761454a615c4f565b602002602001015184828151811061456457614564615c4f565b602002602001015185838151811061457e5761457e615c4f565b60200260200101868460016145939190615d00565b815181106145a3576145a3615c4f565b6001600160a01b039384166020918202929092010152911690525b806145c881615c7b565b915050614449565b50806145db81615c7b565b915050614434565b50600060646145f3856005615d9e565b6145fd9190615dbd565b905060005b818110156146be578560110184828151811061462057614620615c4f565b6020908102919091018101518254600181018455600093845291832090910180546001600160a01b0319166001600160a01b039092169190911790558451600a919086908490811061467457614674615c4f565b6020908102919091018101516001600160a01b031682528181019290925260400160009081208054600181018255908252919020018a9055806146b681615c7b565b915050614602565b5060006146cb8286615d18565b9050806000036146e057505050505050614989565b60008167ffffffffffffffff8111156146fb576146fb6154f4565b604051908082528060200260200182016040528015614724578160200160208202803683370190505b5090506000835b878110156147955786818151811061474557614745615c4f565b602002602001015183838061475990615c7b565b94508151811061476b5761476b615c4f565b6001600160a01b03909216602092830291909101909101528061478d81615c7b565b91505061472b565b5060005b8381101561485557886012018382815181106147b7576147b7615c4f565b6020908102919091018101518254600181018455600093845291832090910180546001600160a01b0319166001600160a01b039092169190911790558351600a919085908490811061480b5761480b615c4f565b6020908102919091018101516001600160a01b031682528181019290925260400160009081208054600181018255908252919020018d90558061484d81615c7b565b915050614799565b5050505050614920565b60005b8381101561491e578460120183828151811061488057614880615c4f565b6020908102919091018101518254600181018455600093845291832090910180546001600160a01b0319166001600160a01b039092169190911790558351600a91908590849081106148d4576148d4615c4f565b6020908102919091018101516001600160a01b031682528181019290925260400160009081208054600181018255908252919020018990558061491681615c7b565b915050614862565b505b6004840154601285015460118601546149399190615d00565b6149439190615d00565b60138501805460ff191660ff9290921691909117905560405188907fd312a8f16f4214218cb0334da9a62aa94a5bf7c208659435e4b35b5a4b7d440890600090a2505050505b50505050565b60008281526007602052604081208391805b600483015460ff821610156149f457826004018160ff16815481106149c8576149c8615c4f565b6000918252602090912001546001600160a01b031633036149ec57600191506149f4565b6001016149a1565b5080614a685760405162461bcd60e51b815260206004820152603d60248201527f54686520616374696f6e2063616e206f6e6c7920626520706572666f726d656460448201527f206279206f7267616e697a657273206f66207468652070726f6a65637400000060648201526084016107a9565b6000858152600760205260409020600c0154859060ff16614af15760405162461bcd60e51b815260206004820152603160248201527f54686520616374696f6e2063616e206f6e6c792068617070656e206f6e20616e60448201527f20617070726f7665642070726f6a65637400000000000000000000000000000060648201526084016107a9565b6000868152600860209081526040808320888452825280832089845260079092529091206002600183015460ff166004811115614b3057614b306156e1565b14614ba35760405162461bcd60e51b815260206004820152603060248201527f52657175657374206d7573742062652066756c6c7920617070726f766564207460448201527f6f2077697468647261772066756e64730000000000000000000000000000000060648201526084016107a9565b816008015481600e01541015614c055760405162461bcd60e51b815260206004820152602160248201527f496e73756666696369656e742066756e647320696e207468652070726f6a65636044820152601d60fa1b60648201526084016107a9565b816008015481600f016000828254614c1d9190615d00565b9091555050600882015460068054600090614c39908490615d00565b9091555050600182018054600460ff19909116179081905560088301546040516101009092046001600160a01b0316916108fc82150291906000818181858888f19350505050158015614c90573d6000803e3d6000fd5b50877fef687a8f1519b4c5091105cbc704634d2f17927ba995f9044c74476dc623c046888460080154604051614cd0929190918252602082015260400190565b60405180910390a25050505050505050565b600080546001600160a01b0316331480614d445760005b600154811015614d425760018181548110614d1657614d16615c4f565b6000918252602090912001546001600160a01b03163303614d3a5760019150614d42565b600101614cf9565b505b919050565b600a602052816000526040600020818154811061367757600080fd5b60008681526007602052604081208791805b600483015460ff82161015614dca57826004018160ff1681548110614d9e57614d9e615c4f565b6000918252602090912001546001600160a01b03163303614dc25760019150614dca565b600101614d77565b5080614e3e5760405162461bcd60e51b815260206004820152603d60248201527f54686520616374696f6e2063616e206f6e6c7920626520706572666f726d656460448201527f206279206f7267616e697a657273206f66207468652070726f6a65637400000060648201526084016107a9565b600080856004811115614e5357614e536156e1565b03614e6f57506000898152600760205260409020600801614efb565b6002856004811115614e8357614e836156e1565b03614e9f57506000898152600760205260409020600a01614efb565b6001856004811115614eb357614eb36156e1565b03614ecf57506000898152600760205260409020600901614efb565b6003856004811115614ee357614ee36156e1565b036109ca57506000898152600760205260409020600b015b80548910614f4b5760405162461bcd60e51b815260206004820152601860248201527f496e76616c6964204d65646961204974656d20496e646578000000000000000060448201526064016107a9565b6000818a81548110614f5f57614f5f615c4f565b60009182526020918290208b516004909202019250614f83918391908c01906152ec565b508751614f9990600183019060208b01906152ec565b5086516112dd90600383019060208a01906152ec565b6000546001600160a01b03163314806150105760005b60015481101561500e5760018181548110614fe257614fe2615c4f565b6000918252602090912001546001600160a01b03163303615006576001915061500e565b600101614fc5565b505b806150705760405162461bcd60e51b815260206004820152602a60248201527f4f6e6c79206f776e6572206f722073746166662063616e2063616c6c207468696044820152693990333ab731ba34b7b760b11b60648201526084016107a9565b600080836004811115615085576150856156e1565b036150a15750600084815260076020526040902060080161512d565b60028360048111156150b5576150b56156e1565b036150d157506000848152600760205260409020600a0161512d565b60018360048111156150e5576150e56156e1565b036151015750600084815260076020526040902060090161512d565b6003836004811115615115576151156156e1565b036109ca57506000848152600760205260409020600b015b8054841061517d5760405162461bcd60e51b815260206004820152601860248201527f496e76616c6964204d65646961204974656d20496e646578000000000000000060448201526064016107a9565b8054819061518d90600190615d18565b8154811061519d5761519d615c4f565b90600052602060002090600402018185815481106151bd576151bd615c4f565b906000526020600020906004020160008201816000019080546151df90615ccc565b6151ea9291906153e9565b5060018201816001019080546151ff90615ccc565b61520a9291906153e9565b50600282810154908201805460ff9092169160ff19166001836004811115615234576152346156e1565b0217905550600382018160030190805461524d90615ccc565b6152589291906153e9565b509050508080548061526c5761526c615d88565b6000828152602081206000199092019160048302019061528c8282615464565b61529a600183016000615464565b60028201805460ff191690556152b4600383016000615464565b505090555050505050565b6001818101805460ff191682805b021790555050565b6001808201805460039260ff1990911690836152cd565b8280546152f890615ccc565b90600052602060002090601f01602090048101928261531a5760008555615360565b82601f1061533357805160ff1916838001178555615360565b82800160010185558215615360579182015b82811115615360578251825591602001919060010190615345565b5061536c92915061549a565b5090565b508054600082556004029060005260206000209081019061539191906154af565b50565b828054828255906000526020600020908101928215615360579160200282015b8281111561536057825182546001600160a01b0319166001600160a01b039091161782556020909201916001909101906153b4565b8280546153f590615ccc565b90600052602060002090601f0160209004810192826154175760008555615360565b82601f106154285780548555615360565b8280016001018555821561536057600052602060002091601f016020900482015b82811115615360578254825591600101919060010190615449565b50805461547090615ccc565b6000825580601f10615480575050565b601f01602090049060005260206000209081019061539191905b5b8082111561536c576000815560010161549b565b8082111561536c5760006154c38282615464565b6154d1600183016000615464565b60028201805460ff191690556154eb600383016000615464565b506004016154af565b634e487b7160e01b600052604160045260246000fd5b604051601f8201601f1916810167ffffffffffffffff81118282101715615533576155336154f4565b604052919050565b600082601f83011261554c57600080fd5b813567ffffffffffffffff811115615566576155666154f4565b615579601f8201601f191660200161550a565b81815284602083860101111561558e57600080fd5b816020850160208301376000918101602001919091529392505050565b803560058110614d4457600080fd5b60008060008060008060c087890312156155d357600080fd5b8635955060208701359450604087013567ffffffffffffffff808211156155f957600080fd5b6156058a838b0161553b565b9550606089013591508082111561561b57600080fd5b6156278a838b0161553b565b9450608089013591508082111561563d57600080fd5b5061564a89828a0161553b565b92505061565960a088016155ab565b90509295509295509295565b6000806040838503121561567857600080fd5b50508035926020909101359150565b60006020828403121561569957600080fd5b5035919050565b80356001600160a01b0381168114614d4457600080fd5b600080604083850312156156ca57600080fd5b6156d3836156a0565b946020939093013593505050565b634e487b7160e01b600052602160045260246000fd5b6000815180845260005b8181101561571d57602081850181015186830182015201615701565b8181111561572f576000602083870101525b50601f01601f19169290920160200192915050565b60006101808e835260028e1061575c5761575c6156e1565b8d60208401528060408401526157748184018e6156f7565b90508281036060840152615788818d6156f7565b9150508960808301528860a08301528760c083015286151560e08301526157b461010083018715159052565b84610120830152836101408301526157d261016083018460ff169052565b9d9c50505050505050505050505050565b6000806000606084860312156157f857600080fd5b833592506020840135915061580f604085016155ab565b90509250925092565b600082601f83011261582957600080fd5b8135602067ffffffffffffffff821115615845576158456154f4565b8160051b61585482820161550a565b928352848101820192828101908785111561586e57600080fd5b83870192505b8483101561589457615885836156a0565b82529183019190830190615874565b979650505050505050565b600080600080600080600060e0888a0312156158ba57600080fd5b8735600281106158c957600080fd5b9650602088013567ffffffffffffffff808211156158e657600080fd5b6158f28b838c0161553b565b975060408a013591508082111561590857600080fd5b6159148b838c0161553b565b965060608a013591508082111561592a57600080fd5b506159378a828b01615818565b979a969950949760808101359660a0820135965060c090910135945092505050565b600080600080600060a0868803121561597157600080fd5b85359450602086013567ffffffffffffffff8082111561599057600080fd5b61599c89838a0161553b565b955060408801359150808211156159b257600080fd5b6159be89838a0161553b565b945060608801359150808211156159d457600080fd5b506159e18882890161553b565b9250506159f0608087016155ab565b90509295509295909350565b60008060008060808587031215615a1257600080fd5b843593506020850135925060408501359150615a30606086016155ab565b905092959194509250565b600080600080600080600060e0888a031215615a5657600080fd5b873596506020880135955060408801359450606088013567ffffffffffffffff80821115615a8357600080fd5b615a8f8b838c0161553b565b955060808a0135915080821115615aa557600080fd5b615ab18b838c0161553b565b945060a08a0135915080821115615ac757600080fd5b50615ad48a828b0161553b565b925050615ae360c089016155ab565b905092959891949750929550565b60008060408385031215615b0457600080fd5b82359150615b14602084016155ab565b90509250929050565b60058110615391576153916156e1565b60006020808301818452808551808352604092508286019150828160051b87010184880160005b83811015615bd457603f19898403018552815160808151818652615b7a828701826156f7565b915050888201518582038a870152615b9282826156f7565b91505087820151615ba281615b1d565b8589015260609182015185820392860192909252615bc081836156f7565b968901969450505090860190600101615b54565b509098975050505050505050565b60006101008a8352615bf38a615b1d565b8960208401526001600160a01b0389166040840152806060840152615c1a818401896156f7565b90508281036080840152615c2e81886156f7565b60a0840196909652505060c081019290925260e09091015295945050505050565b634e487b7160e01b600052603260045260246000fd5b634e487b7160e01b600052601160045260246000fd5b600060018201615c8d57615c8d615c65565b5060010190565b634e487b7160e01b600052601260045260246000fd5b600060ff831680615cbd57615cbd615c94565b8060ff84160491505092915050565b600181811c90821680615ce057607f821691505b602082108103614d4257634e487b7160e01b600052602260045260246000fd5b60008219821115615d1357615d13615c65565b500190565b600082821015615d2a57615d2a615c65565b500390565b6000604082016040835280855480835260608501915086600052602092508260002060005b82811015615d795781546001600160a01b031684529284019260019182019101615d54565b50505092019290925292915050565b634e487b7160e01b600052603160045260246000fd5b6000816000190483118215151615615db857615db8615c65565b500290565b600082615dcc57615dcc615c94565b50049056fea164736f6c634300080e000a","opcodes":"PUSH1 0x80 PUSH1 0x40 MSTORE PUSH1 0x0 PUSH1 0x2 SSTORE PUSH1 0x0 PUSH1 0x3 SSTORE CALLVALUE DUP1 ISZERO PUSH2 0x1A JUMPI PUSH1 0x0 DUP1 REVERT JUMPDEST POP PUSH1 0x0 DUP1 SLOAD PUSH1 0x1 PUSH1 0x1 PUSH1 0xA0 SHL SUB NOT AND CALLER OR SWAP1 SSTORE PUSH2 0x5DDE DUP1 PUSH3 0x3D PUSH1 0x0 CODECOPY PUSH1 0x0 RETURN INVALID PUSH1 0x80 PUSH1 0x40 MSTORE PUSH1 0x4 CALLDATASIZE LT PUSH2 0x219 JUMPI PUSH1 0x0 CALLDATALOAD PUSH1 0xE0 SHR DUP1 PUSH4 0xA17A37DD GT PUSH2 0x11D JUMPI DUP1 PUSH4 0xDA1C6DAF GT PUSH2 0xB0 JUMPI DUP1 PUSH4 0xF49E7300 GT PUSH2 0x7F JUMPI DUP1 PUSH4 0xF7D6AB46 GT PUSH2 0x64 JUMPI DUP1 PUSH4 0xF7D6AB46 EQ PUSH2 0x674 JUMPI DUP1 PUSH4 0xFB812A0B EQ PUSH2 0x694 JUMPI DUP1 PUSH4 0xFCC686A9 EQ PUSH2 0x6B4 JUMPI PUSH1 0x0 DUP1 REVERT JUMPDEST DUP1 PUSH4 0xF49E7300 EQ PUSH2 0x61F JUMPI DUP1 PUSH4 0xF4C88B69 EQ PUSH2 0x644 JUMPI PUSH1 0x0 DUP1 REVERT JUMPDEST DUP1 PUSH4 0xDA1C6DAF EQ PUSH2 0x57B JUMPI DUP1 PUSH4 0xDA903D13 EQ PUSH2 0x5AB JUMPI DUP1 PUSH4 0xE25EDC31 EQ PUSH2 0x5DF JUMPI DUP1 PUSH4 0xE5253105 EQ PUSH2 0x5FF JUMPI PUSH1 0x0 DUP1 REVERT JUMPDEST DUP1 PUSH4 0xB219F916 GT PUSH2 0xEC JUMPI DUP1 PUSH4 0xB219F916 EQ PUSH2 0x4FB JUMPI DUP1 PUSH4 0xB42766FA EQ PUSH2 0x50E JUMPI DUP1 PUSH4 0xB97C6B59 EQ PUSH2 0x53B JUMPI DUP1 PUSH4 0xD630B812 EQ PUSH2 0x55B JUMPI PUSH1 0x0 DUP1 REVERT JUMPDEST DUP1 PUSH4 0xA17A37DD EQ PUSH2 0x48F JUMPI DUP1 PUSH4 0xA7DBCB76 EQ PUSH2 0x4A5 JUMPI DUP1 PUSH4 0xA80098B0 EQ PUSH2 0x4C5 JUMPI DUP1 PUSH4 0xB00D29E8 EQ PUSH2 0x4DB JUMPI PUSH1 0x0 DUP1 REVERT JUMPDEST DUP1 PUSH4 0x56AC0D65 GT PUSH2 0x1B0 JUMPI DUP1 PUSH4 0x708CDFE6 GT PUSH2 0x17F JUMPI DUP1 PUSH4 0x862E2FC8 GT PUSH2 0x164 JUMPI DUP1 PUSH4 0x862E2FC8 EQ PUSH2 0x443 JUMPI DUP1 PUSH4 0x88CD1B63 EQ PUSH2 0x459 JUMPI DUP1 PUSH4 0x8DA5CB5B EQ PUSH2 0x46F JUMPI PUSH1 0x0 DUP1 REVERT JUMPDEST DUP1 PUSH4 0x708CDFE6 EQ PUSH2 0x403 JUMPI DUP1 PUSH4 0x8398B7C1 EQ PUSH2 0x423 JUMPI PUSH1 0x0 DUP1 REVERT JUMPDEST DUP1 PUSH4 0x56AC0D65 EQ PUSH2 0x383 JUMPI DUP1 PUSH4 0x56C6EBFE EQ PUSH2 0x3A3 JUMPI DUP1 PUSH4 0x56F9C416 EQ PUSH2 0x3C3 JUMPI DUP1 PUSH4 0x67DBCA0E EQ PUSH2 0x3E3 JUMPI PUSH1 0x0 DUP1 REVERT JUMPDEST DUP1 PUSH4 0x3866B6A3 GT PUSH2 0x1EC JUMPI DUP1 PUSH4 0x3866B6A3 EQ PUSH2 0x2C1 JUMPI DUP1 PUSH4 0x3D31BDB4 EQ PUSH2 0x2E1 JUMPI DUP1 PUSH4 0x4B720BBF EQ PUSH2 0x32B JUMPI DUP1 PUSH4 0x5121959F EQ PUSH2 0x363 JUMPI PUSH1 0x0 DUP1 REVERT JUMPDEST DUP1 PUSH4 0x22043B5C EQ PUSH2 0x21E JUMPI DUP1 PUSH4 0x2B95B559 EQ PUSH2 0x240 JUMPI DUP1 PUSH4 0x3138F026 EQ PUSH2 0x269 JUMPI DUP1 PUSH4 0x3238D32F EQ PUSH2 0x289 JUMPI JUMPDEST PUSH1 0x0 DUP1 REVERT JUMPDEST CALLVALUE DUP1 ISZERO PUSH2 0x22A JUMPI PUSH1 0x0 DUP1 REVERT JUMPDEST POP PUSH2 0x23E PUSH2 0x239 CALLDATASIZE PUSH1 0x4 PUSH2 0x55BA JUMP JUMPDEST PUSH2 0x6D4 JUMP JUMPDEST STOP JUMPDEST CALLVALUE DUP1 ISZERO PUSH2 0x24C JUMPI PUSH1 0x0 DUP1 REVERT JUMPDEST POP PUSH2 0x256 PUSH1 0x4 SLOAD DUP2 JUMP JUMPDEST PUSH1 0x40 MLOAD SWAP1 DUP2 MSTORE PUSH1 0x20 ADD JUMPDEST PUSH1 0x40 MLOAD DUP1 SWAP2 SUB SWAP1 RETURN JUMPDEST CALLVALUE DUP1 ISZERO PUSH2 0x275 JUMPI PUSH1 0x0 DUP1 REVERT JUMPDEST POP PUSH2 0x23E PUSH2 0x284 CALLDATASIZE PUSH1 0x4 PUSH2 0x5665 JUMP JUMPDEST PUSH2 0xA1E JUMP JUMPDEST CALLVALUE DUP1 ISZERO PUSH2 0x295 JUMPI PUSH1 0x0 DUP1 REVERT JUMPDEST POP PUSH2 0x2A9 PUSH2 0x2A4 CALLDATASIZE PUSH1 0x4 PUSH2 0x5687 JUMP JUMPDEST PUSH2 0xE4F JUMP JUMPDEST PUSH1 0x40 MLOAD PUSH1 0x1 PUSH1 0x1 PUSH1 0xA0 SHL SUB SWAP1 SWAP2 AND DUP2 MSTORE PUSH1 0x20 ADD PUSH2 0x260 JUMP JUMPDEST CALLVALUE DUP1 ISZERO PUSH2 0x2CD JUMPI PUSH1 0x0 DUP1 REVERT JUMPDEST POP PUSH2 0x23E PUSH2 0x2DC CALLDATASIZE PUSH1 0x4 PUSH2 0x5665 JUMP JUMPDEST PUSH2 0xE79 JUMP JUMPDEST CALLVALUE DUP1 ISZERO PUSH2 0x2ED JUMPI PUSH1 0x0 DUP1 REVERT JUMPDEST POP PUSH2 0x301 PUSH2 0x2FC CALLDATASIZE PUSH1 0x4 PUSH2 0x56B7 JUMP JUMPDEST PUSH2 0x12EB JUMP JUMPDEST PUSH1 0x40 DUP1 MLOAD PUSH1 0x1 PUSH1 0x1 PUSH1 0xA0 SHL SUB SWAP1 SWAP6 AND DUP6 MSTORE PUSH1 0x20 DUP6 ADD SWAP4 SWAP1 SWAP4 MSTORE SWAP2 DUP4 ADD MSTORE PUSH1 0x60 DUP3 ADD MSTORE PUSH1 0x80 ADD PUSH2 0x260 JUMP JUMPDEST CALLVALUE DUP1 ISZERO PUSH2 0x337 JUMPI PUSH1 0x0 DUP1 REVERT JUMPDEST POP PUSH2 0x34B PUSH2 0x346 CALLDATASIZE PUSH1 0x4 PUSH2 0x5687 JUMP JUMPDEST PUSH2 0x133B JUMP JUMPDEST PUSH1 0x40 MLOAD PUSH2 0x260 SWAP13 SWAP12 SWAP11 SWAP10 SWAP9 SWAP8 SWAP7 SWAP6 SWAP5 SWAP4 SWAP3 SWAP2 SWAP1 PUSH2 0x5744 JUMP JUMPDEST CALLVALUE DUP1 ISZERO PUSH2 0x36F JUMPI PUSH1 0x0 DUP1 REVERT JUMPDEST POP PUSH2 0x23E PUSH2 0x37E CALLDATASIZE PUSH1 0x4 PUSH2 0x57E3 JUMP JUMPDEST PUSH2 0x14B2 JUMP JUMPDEST CALLVALUE DUP1 ISZERO PUSH2 0x38F JUMPI PUSH1 0x0 DUP1 REVERT JUMPDEST POP PUSH2 0x23E PUSH2 0x39E CALLDATASIZE PUSH1 0x4 PUSH2 0x5665 JUMP JUMPDEST PUSH2 0x1700 JUMP JUMPDEST CALLVALUE DUP1 ISZERO PUSH2 0x3AF JUMPI PUSH1 0x0 DUP1 REVERT JUMPDEST POP PUSH2 0x23E PUSH2 0x3BE CALLDATASIZE PUSH1 0x4 PUSH2 0x5687 JUMP JUMPDEST PUSH2 0x187A JUMP JUMPDEST CALLVALUE DUP1 ISZERO PUSH2 0x3CF JUMPI PUSH1 0x0 DUP1 REVERT JUMPDEST POP PUSH2 0x23E PUSH2 0x3DE CALLDATASIZE PUSH1 0x4 PUSH2 0x5665 JUMP JUMPDEST PUSH2 0x19F0 JUMP JUMPDEST CALLVALUE DUP1 ISZERO PUSH2 0x3EF JUMPI PUSH1 0x0 DUP1 REVERT JUMPDEST POP PUSH2 0x23E PUSH2 0x3FE CALLDATASIZE PUSH1 0x4 PUSH2 0x5665 JUMP JUMPDEST PUSH2 0x1A57 JUMP JUMPDEST CALLVALUE DUP1 ISZERO PUSH2 0x40F JUMPI PUSH1 0x0 DUP1 REVERT JUMPDEST POP PUSH2 0x23E PUSH2 0x41E CALLDATASIZE PUSH1 0x4 PUSH2 0x589F JUMP JUMPDEST PUSH2 0x1C28 JUMP JUMPDEST CALLVALUE DUP1 ISZERO PUSH2 0x42F JUMPI PUSH1 0x0 DUP1 REVERT JUMPDEST POP PUSH2 0x23E PUSH2 0x43E CALLDATASIZE PUSH1 0x4 PUSH2 0x5959 JUMP JUMPDEST PUSH2 0x2055 JUMP JUMPDEST CALLVALUE DUP1 ISZERO PUSH2 0x44F JUMPI PUSH1 0x0 DUP1 REVERT JUMPDEST POP PUSH2 0x256 PUSH1 0x5 SLOAD DUP2 JUMP JUMPDEST CALLVALUE DUP1 ISZERO PUSH2 0x465 JUMPI PUSH1 0x0 DUP1 REVERT JUMPDEST POP PUSH2 0x256 PUSH1 0x3 SLOAD DUP2 JUMP JUMPDEST CALLVALUE DUP1 ISZERO PUSH2 0x47B JUMPI PUSH1 0x0 DUP1 REVERT JUMPDEST POP PUSH1 0x0 SLOAD PUSH2 0x2A9 SWAP1 PUSH1 0x1 PUSH1 0x1 PUSH1 0xA0 SHL SUB AND DUP2 JUMP JUMPDEST CALLVALUE DUP1 ISZERO PUSH2 0x49B JUMPI PUSH1 0x0 DUP1 REVERT JUMPDEST POP PUSH2 0x256 PUSH1 0x2 SLOAD DUP2 JUMP JUMPDEST CALLVALUE DUP1 ISZERO PUSH2 0x4B1 JUMPI PUSH1 0x0 DUP1 REVERT JUMPDEST POP PUSH2 0x23E PUSH2 0x4C0 CALLDATASIZE PUSH1 0x4 PUSH2 0x59FC JUMP JUMPDEST PUSH2 0x232F JUMP JUMPDEST CALLVALUE DUP1 ISZERO PUSH2 0x4D1 JUMPI PUSH1 0x0 DUP1 REVERT JUMPDEST POP PUSH2 0x256 PUSH1 0x6 SLOAD DUP2 JUMP JUMPDEST CALLVALUE DUP1 ISZERO PUSH2 0x4E7 JUMPI PUSH1 0x0 DUP1 REVERT JUMPDEST POP PUSH2 0x23E PUSH2 0x4F6 CALLDATASIZE PUSH1 0x4 PUSH2 0x5A3B JUMP JUMPDEST PUSH2 0x266C JUMP JUMPDEST PUSH2 0x23E PUSH2 0x509 CALLDATASIZE PUSH1 0x4 PUSH2 0x5687 JUMP JUMPDEST PUSH2 0x28F1 JUMP JUMPDEST CALLVALUE DUP1 ISZERO PUSH2 0x51A JUMPI PUSH1 0x0 DUP1 REVERT JUMPDEST POP PUSH2 0x52E PUSH2 0x529 CALLDATASIZE PUSH1 0x4 PUSH2 0x5AF1 JUMP JUMPDEST PUSH2 0x2CC8 JUMP JUMPDEST PUSH1 0x40 MLOAD PUSH2 0x260 SWAP2 SWAP1 PUSH2 0x5B2D JUMP JUMPDEST CALLVALUE DUP1 ISZERO PUSH2 0x547 JUMPI PUSH1 0x0 DUP1 REVERT JUMPDEST POP PUSH2 0x256 PUSH2 0x556 CALLDATASIZE PUSH1 0x4 PUSH2 0x56B7 JUMP JUMPDEST PUSH2 0x365B JUMP JUMPDEST CALLVALUE DUP1 ISZERO PUSH2 0x567 JUMPI PUSH1 0x0 DUP1 REVERT JUMPDEST POP PUSH2 0x52E PUSH2 0x576 CALLDATASIZE PUSH1 0x4 PUSH2 0x57E3 JUMP JUMPDEST PUSH2 0x368C JUMP JUMPDEST CALLVALUE DUP1 ISZERO PUSH2 0x587 JUMPI PUSH1 0x0 DUP1 REVERT JUMPDEST POP PUSH2 0x256 PUSH2 0x596 CALLDATASIZE PUSH1 0x4 PUSH2 0x5687 JUMP JUMPDEST PUSH1 0x0 SWAP1 DUP2 MSTORE PUSH1 0x7 PUSH1 0x20 MSTORE PUSH1 0x40 SWAP1 KECCAK256 PUSH1 0xF ADD SLOAD SWAP1 JUMP JUMPDEST CALLVALUE DUP1 ISZERO PUSH2 0x5B7 JUMPI PUSH1 0x0 DUP1 REVERT JUMPDEST POP PUSH2 0x5CB PUSH2 0x5C6 CALLDATASIZE PUSH1 0x4 PUSH2 0x5665 JUMP JUMPDEST PUSH2 0x4040 JUMP JUMPDEST PUSH1 0x40 MLOAD PUSH2 0x260 SWAP9 SWAP8 SWAP7 SWAP6 SWAP5 SWAP4 SWAP3 SWAP2 SWAP1 PUSH2 0x5BE2 JUMP JUMPDEST CALLVALUE DUP1 ISZERO PUSH2 0x5EB JUMPI PUSH1 0x0 DUP1 REVERT JUMPDEST POP PUSH2 0x23E PUSH2 0x5FA CALLDATASIZE PUSH1 0x4 PUSH2 0x5687 JUMP JUMPDEST PUSH2 0x41AC JUMP JUMPDEST CALLVALUE DUP1 ISZERO PUSH2 0x60B JUMPI PUSH1 0x0 DUP1 REVERT JUMPDEST POP PUSH2 0x23E PUSH2 0x61A CALLDATASIZE PUSH1 0x4 PUSH2 0x5665 JUMP JUMPDEST PUSH2 0x498F JUMP JUMPDEST CALLVALUE DUP1 ISZERO PUSH2 0x62B JUMPI PUSH1 0x0 DUP1 REVERT JUMPDEST POP PUSH2 0x634 PUSH2 0x4CE2 JUMP JUMPDEST PUSH1 0x40 MLOAD SWAP1 ISZERO ISZERO DUP2 MSTORE PUSH1 0x20 ADD PUSH2 0x260 JUMP JUMPDEST CALLVALUE DUP1 ISZERO PUSH2 0x650 JUMPI PUSH1 0x0 DUP1 REVERT JUMPDEST POP PUSH2 0x256 PUSH2 0x65F CALLDATASIZE PUSH1 0x4 PUSH2 0x5687 JUMP JUMPDEST PUSH1 0x0 SWAP1 DUP2 MSTORE PUSH1 0x7 PUSH1 0x20 MSTORE PUSH1 0x40 SWAP1 KECCAK256 PUSH1 0xE ADD SLOAD SWAP1 JUMP JUMPDEST CALLVALUE DUP1 ISZERO PUSH2 0x680 JUMPI PUSH1 0x0 DUP1 REVERT JUMPDEST POP PUSH2 0x256 PUSH2 0x68F CALLDATASIZE PUSH1 0x4 PUSH2 0x56B7 JUMP JUMPDEST PUSH2 0x4D49 JUMP JUMPDEST CALLVALUE DUP1 ISZERO PUSH2 0x6A0 JUMPI PUSH1 0x0 DUP1 REVERT JUMPDEST POP PUSH2 0x23E PUSH2 0x6AF CALLDATASIZE PUSH1 0x4 PUSH2 0x55BA JUMP JUMPDEST PUSH2 0x4D65 JUMP JUMPDEST CALLVALUE DUP1 ISZERO PUSH2 0x6C0 JUMPI PUSH1 0x0 DUP1 REVERT JUMPDEST POP PUSH2 0x23E PUSH2 0x6CF CALLDATASIZE PUSH1 0x4 PUSH2 0x57E3 JUMP JUMPDEST PUSH2 0x4FAF JUMP JUMPDEST PUSH1 0x0 DUP7 DUP2 MSTORE PUSH1 0x7 PUSH1 0x20 MSTORE PUSH1 0x40 DUP2 KECCAK256 DUP8 SWAP2 DUP1 JUMPDEST PUSH1 0x4 DUP4 ADD SLOAD PUSH1 0xFF DUP3 AND LT ISZERO PUSH2 0x739 JUMPI DUP3 PUSH1 0x4 ADD DUP2 PUSH1 0xFF AND DUP2 SLOAD DUP2 LT PUSH2 0x70D JUMPI PUSH2 0x70D PUSH2 0x5C4F JUMP JUMPDEST PUSH1 0x0 SWAP2 DUP3 MSTORE PUSH1 0x20 SWAP1 SWAP2 KECCAK256 ADD SLOAD PUSH1 0x1 PUSH1 0x1 PUSH1 0xA0 SHL SUB AND CALLER SUB PUSH2 0x731 JUMPI PUSH1 0x1 SWAP2 POP PUSH2 0x739 JUMP JUMPDEST PUSH1 0x1 ADD PUSH2 0x6E6 JUMP JUMPDEST POP DUP1 PUSH2 0x7B2 JUMPI PUSH1 0x40 MLOAD PUSH3 0x461BCD PUSH1 0xE5 SHL DUP2 MSTORE PUSH1 0x20 PUSH1 0x4 DUP3 ADD MSTORE PUSH1 0x3D PUSH1 0x24 DUP3 ADD MSTORE PUSH32 0x54686520616374696F6E2063616E206F6E6C7920626520706572666F726D6564 PUSH1 0x44 DUP3 ADD MSTORE PUSH32 0x206279206F7267616E697A657273206F66207468652070726F6A656374000000 PUSH1 0x64 DUP3 ADD MSTORE PUSH1 0x84 ADD JUMPDEST PUSH1 0x40 MLOAD DUP1 SWAP2 SUB SWAP1 REVERT JUMPDEST PUSH1 0x0 PUSH1 0x40 MLOAD DUP1 PUSH1 0x80 ADD PUSH1 0x40 MSTORE DUP1 DUP10 DUP2 MSTORE PUSH1 0x20 ADD DUP9 DUP2 MSTORE PUSH1 0x20 ADD DUP7 PUSH1 0x4 DUP2 GT ISZERO PUSH2 0x7DD JUMPI PUSH2 0x7DD PUSH2 0x56E1 JUMP JUMPDEST DUP2 MSTORE PUSH1 0x20 ADD DUP8 SWAP1 MSTORE SWAP1 POP PUSH1 0x0 DUP6 PUSH1 0x4 DUP2 GT ISZERO PUSH2 0x7FB JUMPI PUSH2 0x7FB PUSH2 0x56E1 JUMP JUMPDEST SUB PUSH2 0x8AD JUMPI PUSH1 0x0 DUP11 DUP2 MSTORE PUSH1 0x8 PUSH1 0x20 SWAP1 DUP2 MSTORE PUSH1 0x40 DUP1 DUP4 KECCAK256 DUP13 DUP5 MSTORE DUP3 MSTORE DUP3 KECCAK256 PUSH1 0x4 SWAP1 DUP2 ADD DUP1 SLOAD PUSH1 0x1 DUP2 ADD DUP3 SSTORE SWAP1 DUP5 MSTORE SWAP3 DUP3 SWAP1 KECCAK256 DUP5 MLOAD DUP1 MLOAD DUP7 SWAP6 SWAP1 SWAP4 MUL SWAP1 SWAP2 ADD SWAP3 PUSH2 0x848 SWAP3 DUP5 SWAP3 SWAP1 SWAP2 ADD SWAP1 PUSH2 0x52EC JUMP JUMPDEST POP PUSH1 0x20 DUP3 DUP2 ADD MLOAD DUP1 MLOAD PUSH2 0x861 SWAP3 PUSH1 0x1 DUP6 ADD SWAP3 ADD SWAP1 PUSH2 0x52EC JUMP JUMPDEST POP PUSH1 0x40 DUP3 ADD MLOAD PUSH1 0x2 DUP3 ADD DUP1 SLOAD PUSH1 0xFF NOT AND PUSH1 0x1 DUP4 PUSH1 0x4 DUP2 GT ISZERO PUSH2 0x885 JUMPI PUSH2 0x885 PUSH2 0x56E1 JUMP JUMPDEST MUL OR SWAP1 SSTORE POP PUSH1 0x60 DUP3 ADD MLOAD DUP1 MLOAD PUSH2 0x8A5 SWAP2 PUSH1 0x3 DUP5 ADD SWAP2 PUSH1 0x20 SWAP1 SWAP2 ADD SWAP1 PUSH2 0x52EC JUMP JUMPDEST POP POP POP PUSH2 0xA12 JUMP JUMPDEST PUSH1 0x2 DUP6 PUSH1 0x4 DUP2 GT ISZERO PUSH2 0x8C1 JUMPI PUSH2 0x8C1 PUSH2 0x56E1 JUMP JUMPDEST SUB PUSH2 0x90C JUMPI PUSH1 0x0 DUP11 DUP2 MSTORE PUSH1 0x8 PUSH1 0x20 SWAP1 DUP2 MSTORE PUSH1 0x40 DUP1 DUP4 KECCAK256 DUP13 DUP5 MSTORE DUP3 MSTORE DUP3 KECCAK256 PUSH1 0x6 ADD DUP1 SLOAD PUSH1 0x1 DUP2 ADD DUP3 SSTORE SWAP1 DUP4 MSTORE SWAP2 DUP2 SWAP1 KECCAK256 DUP4 MLOAD DUP1 MLOAD DUP6 SWAP5 PUSH1 0x4 MUL SWAP1 SWAP3 ADD SWAP3 PUSH2 0x848 SWAP3 DUP5 SWAP3 SWAP1 SWAP2 ADD SWAP1 PUSH2 0x52EC JUMP JUMPDEST PUSH1 0x1 DUP6 PUSH1 0x4 DUP2 GT ISZERO PUSH2 0x920 JUMPI PUSH2 0x920 PUSH2 0x56E1 JUMP JUMPDEST SUB PUSH2 0x96B JUMPI PUSH1 0x0 DUP11 DUP2 MSTORE PUSH1 0x8 PUSH1 0x20 SWAP1 DUP2 MSTORE PUSH1 0x40 DUP1 DUP4 KECCAK256 DUP13 DUP5 MSTORE DUP3 MSTORE DUP3 KECCAK256 PUSH1 0x5 ADD DUP1 SLOAD PUSH1 0x1 DUP2 ADD DUP3 SSTORE SWAP1 DUP4 MSTORE SWAP2 DUP2 SWAP1 KECCAK256 DUP4 MLOAD DUP1 MLOAD DUP6 SWAP5 PUSH1 0x4 MUL SWAP1 SWAP3 ADD SWAP3 PUSH2 0x848 SWAP3 DUP5 SWAP3 SWAP1 SWAP2 ADD SWAP1 PUSH2 0x52EC JUMP JUMPDEST PUSH1 0x3 DUP6 PUSH1 0x4 DUP2 GT ISZERO PUSH2 0x97F JUMPI PUSH2 0x97F PUSH2 0x56E1 JUMP JUMPDEST SUB PUSH2 0x9CA JUMPI PUSH1 0x0 DUP11 DUP2 MSTORE PUSH1 0x8 PUSH1 0x20 SWAP1 DUP2 MSTORE PUSH1 0x40 DUP1 DUP4 KECCAK256 DUP13 DUP5 MSTORE DUP3 MSTORE DUP3 KECCAK256 PUSH1 0x7 ADD DUP1 SLOAD PUSH1 0x1 DUP2 ADD DUP3 SSTORE SWAP1 DUP4 MSTORE SWAP2 DUP2 SWAP1 KECCAK256 DUP4 MLOAD DUP1 MLOAD DUP6 SWAP5 PUSH1 0x4 MUL SWAP1 SWAP3 ADD SWAP3 PUSH2 0x848 SWAP3 DUP5 SWAP3 SWAP1 SWAP2 ADD SWAP1 PUSH2 0x52EC JUMP JUMPDEST PUSH1 0x40 MLOAD PUSH3 0x461BCD PUSH1 0xE5 SHL DUP2 MSTORE PUSH1 0x20 PUSH1 0x4 DUP3 ADD MSTORE PUSH1 0x17 PUSH1 0x24 DUP3 ADD MSTORE PUSH32 0x496E76616C6964206D65646961206974656D2074797065000000000000000000 PUSH1 0x44 DUP3 ADD MSTORE PUSH1 0x64 ADD PUSH2 0x7A9 JUMP JUMPDEST POP POP POP POP POP POP POP POP POP POP JUMP JUMPDEST PUSH1 0x0 DUP3 DUP2 MSTORE PUSH1 0x7 PUSH1 0x20 MSTORE PUSH1 0x40 DUP2 KECCAK256 DUP4 SWAP2 DUP1 JUMPDEST PUSH1 0x11 DUP4 ADD SLOAD PUSH1 0xFF DUP3 AND LT ISZERO PUSH2 0xA83 JUMPI DUP3 PUSH1 0x11 ADD DUP2 PUSH1 0xFF AND DUP2 SLOAD DUP2 LT PUSH2 0xA57 JUMPI PUSH2 0xA57 PUSH2 0x5C4F JUMP JUMPDEST PUSH1 0x0 SWAP2 DUP3 MSTORE PUSH1 0x20 SWAP1 SWAP2 KECCAK256 ADD SLOAD PUSH1 0x1 PUSH1 0x1 PUSH1 0xA0 SHL SUB AND CALLER SUB PUSH2 0xA7B JUMPI PUSH1 0x1 SWAP2 POP PUSH2 0xA83 JUMP JUMPDEST PUSH1 0x1 ADD PUSH2 0xA30 JUMP JUMPDEST POP DUP1 PUSH2 0xAE1 JUMPI PUSH1 0x0 JUMPDEST PUSH1 0x12 DUP4 ADD SLOAD PUSH1 0xFF DUP3 AND LT ISZERO PUSH2 0xADF JUMPI DUP3 PUSH1 0x12 ADD DUP2 PUSH1 0xFF AND DUP2 SLOAD DUP2 LT PUSH2 0xAB3 JUMPI PUSH2 0xAB3 PUSH2 0x5C4F JUMP JUMPDEST PUSH1 0x0 SWAP2 DUP3 MSTORE PUSH1 0x20 SWAP1 SWAP2 KECCAK256 ADD SLOAD PUSH1 0x1 PUSH1 0x1 PUSH1 0xA0 SHL SUB AND CALLER SUB PUSH2 0xAD7 JUMPI PUSH1 0x1 SWAP2 POP PUSH2 0xADF JUMP JUMPDEST PUSH1 0x1 ADD PUSH2 0xA8C JUMP JUMPDEST POP JUMPDEST DUP1 PUSH2 0xB3E JUMPI PUSH1 0x0 JUMPDEST PUSH1 0x4 DUP4 ADD SLOAD PUSH1 0xFF DUP3 AND LT ISZERO PUSH2 0xB3C JUMPI DUP3 PUSH1 0x4 ADD DUP2 PUSH1 0xFF AND DUP2 SLOAD DUP2 LT PUSH2 0xB10 JUMPI PUSH2 0xB10 PUSH2 0x5C4F JUMP JUMPDEST PUSH1 0x0 SWAP2 DUP3 MSTORE PUSH1 0x20 SWAP1 SWAP2 KECCAK256 ADD SLOAD PUSH1 0x1 PUSH1 0x1 PUSH1 0xA0 SHL SUB AND CALLER SUB PUSH2 0xB34 JUMPI PUSH1 0x1 SWAP2 POP PUSH2 0xB3C JUMP JUMPDEST PUSH1 0x1 ADD PUSH2 0xAE9 JUMP JUMPDEST POP JUMPDEST DUP1 PUSH2 0xBC5 JUMPI PUSH1 0x40 MLOAD PUSH3 0x461BCD PUSH1 0xE5 SHL DUP2 MSTORE PUSH1 0x20 PUSH1 0x4 DUP3 ADD MSTORE PUSH1 0x4B PUSH1 0x24 DUP3 ADD MSTORE PUSH32 0x5468697320616374696F6E2063616E206F6E6C7920626520706572666F726D65 PUSH1 0x44 DUP3 ADD MSTORE PUSH32 0x64206279206D656D62657273206F662054686520446F6E6120417070726F7661 PUSH1 0x64 DUP3 ADD MSTORE PUSH11 0x6C20436F6D6D6974746565 PUSH1 0xA8 SHL PUSH1 0x84 DUP3 ADD MSTORE PUSH1 0xA4 ADD PUSH2 0x7A9 JUMP JUMPDEST PUSH1 0x0 DUP6 DUP2 MSTORE PUSH1 0x8 PUSH1 0x20 SWAP1 DUP2 MSTORE PUSH1 0x40 DUP1 DUP4 KECCAK256 DUP8 DUP5 MSTORE SWAP1 SWAP2 MSTORE SWAP1 KECCAK256 DUP6 SWAP1 DUP6 SWAP1 PUSH1 0x4 PUSH1 0x1 DUP3 ADD SLOAD PUSH1 0xFF AND PUSH1 0x4 DUP2 GT ISZERO PUSH2 0xBFD JUMPI PUSH2 0xBFD PUSH2 0x56E1 JUMP JUMPDEST SUB PUSH2 0xC62 JUMPI PUSH1 0x40 MLOAD PUSH3 0x461BCD PUSH1 0xE5 SHL DUP2 MSTORE PUSH1 0x20 PUSH1 0x4 DUP3 ADD MSTORE PUSH1 0x2F PUSH1 0x24 DUP3 ADD MSTORE PUSH32 0x596F752063616E6E6F7420766F7465206F6E20616E20616C7265616479207769 PUSH1 0x44 DUP3 ADD MSTORE PUSH15 0x1D1A191C985DDB881C995C5D595CDD PUSH1 0x8A SHL PUSH1 0x64 DUP3 ADD MSTORE PUSH1 0x84 ADD PUSH2 0x7A9 JUMP JUMPDEST PUSH1 0x0 DUP1 JUMPDEST PUSH1 0xB DUP4 ADD SLOAD DUP2 LT ISZERO PUSH2 0xCC6 JUMPI CALLER PUSH1 0x1 PUSH1 0x1 PUSH1 0xA0 SHL SUB AND DUP4 PUSH1 0xB ADD DUP3 DUP2 SLOAD DUP2 LT PUSH2 0xC91 JUMPI PUSH2 0xC91 PUSH2 0x5C4F JUMP JUMPDEST PUSH1 0x0 SWAP2 DUP3 MSTORE PUSH1 0x20 SWAP1 SWAP2 KECCAK256 ADD SLOAD PUSH1 0x1 PUSH1 0x1 PUSH1 0xA0 SHL SUB AND SUB PUSH2 0xCB4 JUMPI PUSH1 0x1 SWAP2 POP PUSH2 0xCC6 JUMP JUMPDEST DUP1 PUSH2 0xCBE DUP2 PUSH2 0x5C7B JUMP JUMPDEST SWAP2 POP POP PUSH2 0xC66 JUMP JUMPDEST POP PUSH1 0x0 JUMPDEST PUSH1 0xC DUP4 ADD SLOAD DUP2 LT ISZERO PUSH2 0xD2A JUMPI CALLER PUSH1 0x1 PUSH1 0x1 PUSH1 0xA0 SHL SUB AND DUP4 PUSH1 0xC ADD DUP3 DUP2 SLOAD DUP2 LT PUSH2 0xCF5 JUMPI PUSH2 0xCF5 PUSH2 0x5C4F JUMP JUMPDEST PUSH1 0x0 SWAP2 DUP3 MSTORE PUSH1 0x20 SWAP1 SWAP2 KECCAK256 ADD SLOAD PUSH1 0x1 PUSH1 0x1 PUSH1 0xA0 SHL SUB AND SUB PUSH2 0xD18 JUMPI PUSH1 0x1 SWAP2 POP PUSH2 0xD2A JUMP JUMPDEST DUP1 PUSH2 0xD22 DUP2 PUSH2 0x5C7B JUMP JUMPDEST SWAP2 POP POP PUSH2 0xCCA JUMP JUMPDEST POP DUP1 ISZERO PUSH2 0xD88 JUMPI PUSH1 0x40 MLOAD PUSH3 0x461BCD PUSH1 0xE5 SHL DUP2 MSTORE PUSH1 0x20 PUSH1 0x4 DUP3 ADD MSTORE PUSH1 0x26 PUSH1 0x24 DUP3 ADD MSTORE PUSH32 0x596F75206861766520616C726561647920766F746564206F6E20746869732072 PUSH1 0x44 DUP3 ADD MSTORE PUSH6 0x195C5D595CDD PUSH1 0xD2 SHL PUSH1 0x64 DUP3 ADD MSTORE PUSH1 0x84 ADD PUSH2 0x7A9 JUMP JUMPDEST PUSH1 0x0 DUP10 DUP2 MSTORE PUSH1 0x8 PUSH1 0x20 SWAP1 DUP2 MSTORE PUSH1 0x40 DUP1 DUP4 KECCAK256 DUP12 DUP5 MSTORE SWAP1 SWAP2 MSTORE DUP2 KECCAK256 SWAP1 PUSH1 0x1 DUP3 ADD SLOAD PUSH1 0xFF AND PUSH1 0x4 DUP2 GT ISZERO PUSH2 0xDBB JUMPI PUSH2 0xDBB PUSH2 0x56E1 JUMP JUMPDEST EQ PUSH2 0xE08 JUMPI PUSH1 0x40 MLOAD PUSH3 0x461BCD PUSH1 0xE5 SHL DUP2 MSTORE PUSH1 0x20 PUSH1 0x4 DUP3 ADD MSTORE PUSH1 0x12 PUSH1 0x24 DUP3 ADD MSTORE PUSH32 0x52657175657374206973206E6F74206E65770000000000000000000000000000 PUSH1 0x44 DUP3 ADD MSTORE PUSH1 0x64 ADD PUSH2 0x7A9 JUMP JUMPDEST PUSH1 0xC DUP2 ADD DUP1 SLOAD PUSH1 0x1 DUP2 ADD DUP3 SSTORE PUSH1 0x0 SWAP2 DUP3 MSTORE PUSH1 0x20 DUP3 KECCAK256 ADD DUP1 SLOAD PUSH1 0x1 PUSH1 0x1 PUSH1 0xA0 SHL SUB NOT AND CALLER OR SWAP1 SSTORE PUSH1 0xA DUP3 ADD DUP1 SLOAD SWAP2 PUSH2 0xE3E DUP4 PUSH2 0x5C7B JUMP JUMPDEST SWAP2 SWAP1 POP SSTORE POP POP POP POP POP POP POP POP POP POP POP JUMP JUMPDEST PUSH1 0x1 DUP2 DUP2 SLOAD DUP2 LT PUSH2 0xE5F JUMPI PUSH1 0x0 DUP1 REVERT JUMPDEST PUSH1 0x0 SWAP2 DUP3 MSTORE PUSH1 0x20 SWAP1 SWAP2 KECCAK256 ADD SLOAD PUSH1 0x1 PUSH1 0x1 PUSH1 0xA0 SHL SUB AND SWAP1 POP DUP2 JUMP JUMPDEST PUSH1 0x0 DUP3 DUP2 MSTORE PUSH1 0x7 PUSH1 0x20 MSTORE PUSH1 0x40 DUP2 KECCAK256 DUP4 SWAP2 DUP1 JUMPDEST PUSH1 0x11 DUP4 ADD SLOAD PUSH1 0xFF DUP3 AND LT ISZERO PUSH2 0xEDE JUMPI DUP3 PUSH1 0x11 ADD DUP2 PUSH1 0xFF AND DUP2 SLOAD DUP2 LT PUSH2 0xEB2 JUMPI PUSH2 0xEB2 PUSH2 0x5C4F JUMP JUMPDEST PUSH1 0x0 SWAP2 DUP3 MSTORE PUSH1 0x20 SWAP1 SWAP2 KECCAK256 ADD SLOAD PUSH1 0x1 PUSH1 0x1 PUSH1 0xA0 SHL SUB AND CALLER SUB PUSH2 0xED6 JUMPI PUSH1 0x1 SWAP2 POP PUSH2 0xEDE JUMP JUMPDEST PUSH1 0x1 ADD PUSH2 0xE8B JUMP JUMPDEST POP DUP1 PUSH2 0xF3C JUMPI PUSH1 0x0 JUMPDEST PUSH1 0x12 DUP4 ADD SLOAD PUSH1 0xFF DUP3 AND LT ISZERO PUSH2 0xF3A JUMPI DUP3 PUSH1 0x12 ADD DUP2 PUSH1 0xFF AND DUP2 SLOAD DUP2 LT PUSH2 0xF0E JUMPI PUSH2 0xF0E PUSH2 0x5C4F JUMP JUMPDEST PUSH1 0x0 SWAP2 DUP3 MSTORE PUSH1 0x20 SWAP1 SWAP2 KECCAK256 ADD SLOAD PUSH1 0x1 PUSH1 0x1 PUSH1 0xA0 SHL SUB AND CALLER SUB PUSH2 0xF32 JUMPI PUSH1 0x1 SWAP2 POP PUSH2 0xF3A JUMP JUMPDEST PUSH1 0x1 ADD PUSH2 0xEE7 JUMP JUMPDEST POP JUMPDEST DUP1 PUSH2 0xF99 JUMPI PUSH1 0x0 JUMPDEST PUSH1 0x4 DUP4 ADD SLOAD PUSH1 0xFF DUP3 AND LT ISZERO PUSH2 0xF97 JUMPI DUP3 PUSH1 0x4 ADD DUP2 PUSH1 0xFF AND DUP2 SLOAD DUP2 LT PUSH2 0xF6B JUMPI PUSH2 0xF6B PUSH2 0x5C4F JUMP JUMPDEST PUSH1 0x0 SWAP2 DUP3 MSTORE PUSH1 0x20 SWAP1 SWAP2 KECCAK256 ADD SLOAD PUSH1 0x1 PUSH1 0x1 PUSH1 0xA0 SHL SUB AND CALLER SUB PUSH2 0xF8F JUMPI PUSH1 0x1 SWAP2 POP PUSH2 0xF97 JUMP JUMPDEST PUSH1 0x1 ADD PUSH2 0xF44 JUMP JUMPDEST POP JUMPDEST DUP1 PUSH2 0x1020 JUMPI PUSH1 0x40 MLOAD PUSH3 0x461BCD PUSH1 0xE5 SHL DUP2 MSTORE PUSH1 0x20 PUSH1 0x4 DUP3 ADD MSTORE PUSH1 0x4B PUSH1 0x24 DUP3 ADD MSTORE PUSH32 0x5468697320616374696F6E2063616E206F6E6C7920626520706572666F726D65 PUSH1 0x44 DUP3 ADD MSTORE PUSH32 0x64206279206D656D62657273206F662054686520446F6E6120417070726F7661 PUSH1 0x64 DUP3 ADD MSTORE PUSH11 0x6C20436F6D6D6974746565 PUSH1 0xA8 SHL PUSH1 0x84 DUP3 ADD MSTORE PUSH1 0xA4 ADD PUSH2 0x7A9 JUMP JUMPDEST PUSH1 0x0 DUP6 DUP2 MSTORE PUSH1 0x8 PUSH1 0x20 SWAP1 DUP2 MSTORE PUSH1 0x40 DUP1 DUP4 KECCAK256 DUP8 DUP5 MSTORE SWAP1 SWAP2 MSTORE SWAP1 KECCAK256 DUP6 SWAP1 DUP6 SWAP1 PUSH1 0x4 PUSH1 0x1 DUP3 ADD SLOAD PUSH1 0xFF AND PUSH1 0x4 DUP2 GT ISZERO PUSH2 0x1058 JUMPI PUSH2 0x1058 PUSH2 0x56E1 JUMP JUMPDEST SUB PUSH2 0x10BD JUMPI PUSH1 0x40 MLOAD PUSH3 0x461BCD PUSH1 0xE5 SHL DUP2 MSTORE PUSH1 0x20 PUSH1 0x4 DUP3 ADD MSTORE PUSH1 0x2F PUSH1 0x24 DUP3 ADD MSTORE PUSH32 0x596F752063616E6E6F7420766F7465206F6E20616E20616C7265616479207769 PUSH1 0x44 DUP3 ADD MSTORE PUSH15 0x1D1A191C985DDB881C995C5D595CDD PUSH1 0x8A SHL PUSH1 0x64 DUP3 ADD MSTORE PUSH1 0x84 ADD PUSH2 0x7A9 JUMP JUMPDEST PUSH1 0x0 DUP1 JUMPDEST PUSH1 0xB DUP4 ADD SLOAD DUP2 LT ISZERO PUSH2 0x1121 JUMPI CALLER PUSH1 0x1 PUSH1 0x1 PUSH1 0xA0 SHL SUB AND DUP4 PUSH1 0xB ADD DUP3 DUP2 SLOAD DUP2 LT PUSH2 0x10EC JUMPI PUSH2 0x10EC PUSH2 0x5C4F JUMP JUMPDEST PUSH1 0x0 SWAP2 DUP3 MSTORE PUSH1 0x20 SWAP1 SWAP2 KECCAK256 ADD SLOAD PUSH1 0x1 PUSH1 0x1 PUSH1 0xA0 SHL SUB AND SUB PUSH2 0x110F JUMPI PUSH1 0x1 SWAP2 POP PUSH2 0x1121 JUMP JUMPDEST DUP1 PUSH2 0x1119 DUP2 PUSH2 0x5C7B JUMP JUMPDEST SWAP2 POP POP PUSH2 0x10C1 JUMP JUMPDEST POP PUSH1 0x0 JUMPDEST PUSH1 0xC DUP4 ADD SLOAD DUP2 LT ISZERO PUSH2 0x1185 JUMPI CALLER PUSH1 0x1 PUSH1 0x1 PUSH1 0xA0 SHL SUB AND DUP4 PUSH1 0xC ADD DUP3 DUP2 SLOAD DUP2 LT PUSH2 0x1150 JUMPI PUSH2 0x1150 PUSH2 0x5C4F JUMP JUMPDEST PUSH1 0x0 SWAP2 DUP3 MSTORE PUSH1 0x20 SWAP1 SWAP2 KECCAK256 ADD SLOAD PUSH1 0x1 PUSH1 0x1 PUSH1 0xA0 SHL SUB AND SUB PUSH2 0x1173 JUMPI PUSH1 0x1 SWAP2 POP PUSH2 0x1185 JUMP JUMPDEST DUP1 PUSH2 0x117D DUP2 PUSH2 0x5C7B JUMP JUMPDEST SWAP2 POP POP PUSH2 0x1125 JUMP JUMPDEST POP DUP1 ISZERO PUSH2 0x11E3 JUMPI PUSH1 0x40 MLOAD PUSH3 0x461BCD PUSH1 0xE5 SHL DUP2 MSTORE PUSH1 0x20 PUSH1 0x4 DUP3 ADD MSTORE PUSH1 0x26 PUSH1 0x24 DUP3 ADD MSTORE PUSH32 0x596F75206861766520616C726561647920766F746564206F6E20746869732072 PUSH1 0x44 DUP3 ADD MSTORE PUSH6 0x195C5D595CDD PUSH1 0xD2 SHL PUSH1 0x64 DUP3 ADD MSTORE PUSH1 0x84 ADD PUSH2 0x7A9 JUMP JUMPDEST PUSH1 0x0 DUP10 DUP2 MSTORE PUSH1 0x8 PUSH1 0x20 SWAP1 DUP2 MSTORE PUSH1 0x40 DUP1 DUP4 KECCAK256 DUP12 DUP5 MSTORE SWAP1 SWAP2 MSTORE DUP2 KECCAK256 SWAP1 PUSH1 0x1 DUP3 ADD SLOAD PUSH1 0xFF AND PUSH1 0x4 DUP2 GT ISZERO PUSH2 0x1216 JUMPI PUSH2 0x1216 PUSH2 0x56E1 JUMP JUMPDEST EQ PUSH2 0x1263 JUMPI PUSH1 0x40 MLOAD PUSH3 0x461BCD PUSH1 0xE5 SHL DUP2 MSTORE PUSH1 0x20 PUSH1 0x4 DUP3 ADD MSTORE PUSH1 0x12 PUSH1 0x24 DUP3 ADD MSTORE PUSH32 0x52657175657374206973206E6F74206E65770000000000000000000000000000 PUSH1 0x44 DUP3 ADD MSTORE PUSH1 0x64 ADD PUSH2 0x7A9 JUMP JUMPDEST PUSH1 0xB DUP2 ADD DUP1 SLOAD PUSH1 0x1 DUP2 ADD DUP3 SSTORE PUSH1 0x0 SWAP2 DUP3 MSTORE PUSH1 0x20 DUP3 KECCAK256 ADD DUP1 SLOAD PUSH1 0x1 PUSH1 0x1 PUSH1 0xA0 SHL SUB NOT AND CALLER OR SWAP1 SSTORE PUSH1 0x9 DUP3 ADD DUP1 SLOAD SWAP2 PUSH2 0x1299 DUP4 PUSH2 0x5C7B JUMP JUMPDEST SWAP1 SWAP2 SSTORE POP POP PUSH1 0x0 DUP11 DUP2 MSTORE PUSH1 0x7 PUSH1 0x20 MSTORE PUSH1 0x40 DUP2 KECCAK256 PUSH1 0x13 DUP2 ADD SLOAD SWAP1 SWAP2 SWAP1 PUSH2 0x12C3 SWAP1 PUSH1 0x2 SWAP1 PUSH1 0xFF AND PUSH2 0x5CAA JUMP JUMPDEST PUSH1 0xFF AND SWAP1 POP DUP1 DUP4 PUSH1 0x9 ADD SLOAD GT ISZERO PUSH2 0x12DD JUMPI PUSH2 0x12DD DUP4 PUSH2 0x52BF JUMP JUMPDEST POP POP POP POP POP POP POP POP POP POP POP POP JUMP JUMPDEST PUSH1 0xB PUSH1 0x20 MSTORE DUP2 PUSH1 0x0 MSTORE PUSH1 0x40 PUSH1 0x0 KECCAK256 DUP2 DUP2 SLOAD DUP2 LT PUSH2 0x1307 JUMPI PUSH1 0x0 DUP1 REVERT JUMPDEST PUSH1 0x0 SWAP2 DUP3 MSTORE PUSH1 0x20 SWAP1 SWAP2 KECCAK256 PUSH1 0x4 SWAP1 SWAP2 MUL ADD DUP1 SLOAD PUSH1 0x1 DUP3 ADD SLOAD PUSH1 0x2 DUP4 ADD SLOAD PUSH1 0x3 SWAP1 SWAP4 ADD SLOAD PUSH1 0x1 PUSH1 0x1 PUSH1 0xA0 SHL SUB SWAP1 SWAP3 AND SWAP5 POP SWAP3 POP DUP5 JUMP JUMPDEST PUSH1 0x7 PUSH1 0x20 MSTORE PUSH1 0x0 SWAP1 DUP2 MSTORE PUSH1 0x40 SWAP1 KECCAK256 DUP1 SLOAD PUSH1 0x1 DUP3 ADD SLOAD PUSH1 0x2 DUP4 ADD DUP1 SLOAD SWAP3 SWAP4 PUSH1 0xFF SWAP1 SWAP3 AND SWAP3 PUSH2 0x1367 SWAP1 PUSH2 0x5CCC JUMP JUMPDEST DUP1 PUSH1 0x1F ADD PUSH1 0x20 DUP1 SWAP2 DIV MUL PUSH1 0x20 ADD PUSH1 0x40 MLOAD SWAP1 DUP2 ADD PUSH1 0x40 MSTORE DUP1 SWAP3 SWAP2 SWAP1 DUP2 DUP2 MSTORE PUSH1 0x20 ADD DUP3 DUP1 SLOAD PUSH2 0x1393 SWAP1 PUSH2 0x5CCC JUMP JUMPDEST DUP1 ISZERO PUSH2 0x13E0 JUMPI DUP1 PUSH1 0x1F LT PUSH2 0x13B5 JUMPI PUSH2 0x100 DUP1 DUP4 SLOAD DIV MUL DUP4 MSTORE SWAP2 PUSH1 0x20 ADD SWAP2 PUSH2 0x13E0 JUMP JUMPDEST DUP3 ADD SWAP2 SWAP1 PUSH1 0x0 MSTORE PUSH1 0x20 PUSH1 0x0 KECCAK256 SWAP1 JUMPDEST DUP2 SLOAD DUP2 MSTORE SWAP1 PUSH1 0x1 ADD SWAP1 PUSH1 0x20 ADD DUP1 DUP4 GT PUSH2 0x13C3 JUMPI DUP3 SWAP1 SUB PUSH1 0x1F AND DUP3 ADD SWAP2 JUMPDEST POP POP POP POP POP SWAP1 DUP1 PUSH1 0x3 ADD DUP1 SLOAD PUSH2 0x13F5 SWAP1 PUSH2 0x5CCC JUMP JUMPDEST DUP1 PUSH1 0x1F ADD PUSH1 0x20 DUP1 SWAP2 DIV MUL PUSH1 0x20 ADD PUSH1 0x40 MLOAD SWAP1 DUP2 ADD PUSH1 0x40 MSTORE DUP1 SWAP3 SWAP2 SWAP1 DUP2 DUP2 MSTORE PUSH1 0x20 ADD DUP3 DUP1 SLOAD PUSH2 0x1421 SWAP1 PUSH2 0x5CCC JUMP JUMPDEST DUP1 ISZERO PUSH2 0x146E JUMPI DUP1 PUSH1 0x1F LT PUSH2 0x1443 JUMPI PUSH2 0x100 DUP1 DUP4 SLOAD DIV MUL DUP4 MSTORE SWAP2 PUSH1 0x20 ADD SWAP2 PUSH2 0x146E JUMP JUMPDEST DUP3 ADD SWAP2 SWAP1 PUSH1 0x0 MSTORE PUSH1 0x20 PUSH1 0x0 KECCAK256 SWAP1 JUMPDEST DUP2 SLOAD DUP2 MSTORE SWAP1 PUSH1 0x1 ADD SWAP1 PUSH1 0x20 ADD DUP1 DUP4 GT PUSH2 0x1451 JUMPI DUP3 SWAP1 SUB PUSH1 0x1F AND DUP3 ADD SWAP2 JUMPDEST POP POP POP PUSH1 0x5 DUP5 ADD SLOAD PUSH1 0x6 DUP6 ADD SLOAD PUSH1 0x7 DUP7 ADD SLOAD PUSH1 0xC DUP8 ADD SLOAD PUSH1 0xE DUP9 ADD SLOAD PUSH1 0xF DUP10 ADD SLOAD PUSH1 0x13 SWAP1 SWAP10 ADD SLOAD SWAP8 SWAP9 SWAP5 SWAP8 SWAP4 SWAP7 POP SWAP2 SWAP5 POP PUSH1 0xFF DUP1 DUP3 AND SWAP5 PUSH2 0x100 SWAP1 SWAP3 DIV DUP2 AND SWAP4 AND DUP13 JUMP JUMPDEST PUSH1 0x0 DUP4 DUP2 MSTORE PUSH1 0x7 PUSH1 0x20 MSTORE PUSH1 0x40 DUP2 KECCAK256 SWAP1 SLOAD DUP5 SWAP2 SWAP1 PUSH1 0x1 PUSH1 0x1 PUSH1 0xA0 SHL SUB AND CALLER EQ DUP1 PUSH2 0x152D JUMPI PUSH1 0x0 JUMPDEST PUSH1 0x4 DUP4 ADD SLOAD PUSH1 0xFF DUP3 AND LT ISZERO PUSH2 0x152B JUMPI DUP3 PUSH1 0x4 ADD DUP2 PUSH1 0xFF AND DUP2 SLOAD DUP2 LT PUSH2 0x14FF JUMPI PUSH2 0x14FF PUSH2 0x5C4F JUMP JUMPDEST PUSH1 0x0 SWAP2 DUP3 MSTORE PUSH1 0x20 SWAP1 SWAP2 KECCAK256 ADD SLOAD PUSH1 0x1 PUSH1 0x1 PUSH1 0xA0 SHL SUB AND CALLER SUB PUSH2 0x1523 JUMPI PUSH1 0x1 SWAP2 POP PUSH2 0x152B JUMP JUMPDEST PUSH1 0x1 ADD PUSH2 0x14D8 JUMP JUMPDEST POP JUMPDEST DUP1 PUSH2 0x157C JUMPI PUSH1 0x0 JUMPDEST PUSH1 0x1 SLOAD DUP2 LT ISZERO PUSH2 0x157A JUMPI PUSH1 0x1 DUP2 DUP2 SLOAD DUP2 LT PUSH2 0x1552 JUMPI PUSH2 0x1552 PUSH2 0x5C4F JUMP JUMPDEST PUSH1 0x0 SWAP2 DUP3 MSTORE PUSH1 0x20 SWAP1 SWAP2 KECCAK256 ADD SLOAD PUSH1 0x1 PUSH1 0x1 PUSH1 0xA0 SHL SUB AND CALLER SUB PUSH2 0x1572 JUMPI PUSH1 0x1 SWAP2 POP JUMPDEST PUSH1 0x1 ADD PUSH2 0x1535 JUMP JUMPDEST POP JUMPDEST DUP1 PUSH2 0x15EF JUMPI PUSH1 0x40 MLOAD PUSH3 0x461BCD PUSH1 0xE5 SHL DUP2 MSTORE PUSH1 0x20 PUSH1 0x4 DUP3 ADD MSTORE PUSH1 0x3D PUSH1 0x24 DUP3 ADD MSTORE PUSH32 0x54686520616374696F6E2063616E206F6E6C7920626520706572666F726D6564 PUSH1 0x44 DUP3 ADD MSTORE PUSH32 0x206279206F7267616E697A657273206F66207468652070726F6A656374000000 PUSH1 0x64 DUP3 ADD MSTORE PUSH1 0x84 ADD PUSH2 0x7A9 JUMP JUMPDEST PUSH1 0x0 DUP5 PUSH1 0x4 DUP2 GT ISZERO PUSH2 0x1603 JUMPI PUSH2 0x1603 PUSH2 0x56E1 JUMP JUMPDEST SUB PUSH2 0x1635 JUMPI PUSH1 0x0 DUP7 DUP2 MSTORE PUSH1 0x8 PUSH1 0x20 SWAP1 DUP2 MSTORE PUSH1 0x40 DUP1 DUP4 KECCAK256 DUP9 DUP5 MSTORE SWAP1 SWAP2 MSTORE DUP2 KECCAK256 PUSH2 0x1630 SWAP2 PUSH1 0x4 SWAP1 SWAP2 ADD SWAP1 PUSH2 0x5370 JUMP JUMPDEST PUSH2 0x16F8 JUMP JUMPDEST PUSH1 0x2 DUP5 PUSH1 0x4 DUP2 GT ISZERO PUSH2 0x1649 JUMPI PUSH2 0x1649 PUSH2 0x56E1 JUMP JUMPDEST SUB PUSH2 0x1676 JUMPI PUSH1 0x0 DUP7 DUP2 MSTORE PUSH1 0x8 PUSH1 0x20 SWAP1 DUP2 MSTORE PUSH1 0x40 DUP1 DUP4 KECCAK256 DUP9 DUP5 MSTORE SWAP1 SWAP2 MSTORE DUP2 KECCAK256 PUSH2 0x1630 SWAP2 PUSH1 0x6 SWAP1 SWAP2 ADD SWAP1 PUSH2 0x5370 JUMP JUMPDEST PUSH1 0x1 DUP5 PUSH1 0x4 DUP2 GT ISZERO PUSH2 0x168A JUMPI PUSH2 0x168A PUSH2 0x56E1 JUMP JUMPDEST SUB PUSH2 0x16B7 JUMPI PUSH1 0x0 DUP7 DUP2 MSTORE PUSH1 0x8 PUSH1 0x20 SWAP1 DUP2 MSTORE PUSH1 0x40 DUP1 DUP4 KECCAK256 DUP9 DUP5 MSTORE SWAP1 SWAP2 MSTORE DUP2 KECCAK256 PUSH2 0x1630 SWAP2 PUSH1 0x5 SWAP1 SWAP2 ADD SWAP1 PUSH2 0x5370 JUMP JUMPDEST PUSH1 0x3 DUP5 PUSH1 0x4 DUP2 GT ISZERO PUSH2 0x16CB JUMPI PUSH2 0x16CB PUSH2 0x56E1 JUMP JUMPDEST SUB PUSH2 0x9CA JUMPI PUSH1 0x0 DUP7 DUP2 MSTORE PUSH1 0x8 PUSH1 0x20 SWAP1 DUP2 MSTORE PUSH1 0x40 DUP1 DUP4 KECCAK256 DUP9 DUP5 MSTORE SWAP1 SWAP2 MSTORE DUP2 KECCAK256 PUSH2 0x1630 SWAP2 PUSH1 0x7 SWAP1 SWAP2 ADD SWAP1 PUSH2 0x5370 JUMP JUMPDEST POP POP POP POP POP POP JUMP JUMPDEST PUSH1 0x0 SLOAD PUSH1 0x1 PUSH1 0x1 PUSH1 0xA0 SHL SUB AND CALLER EQ DUP1 PUSH2 0x1761 JUMPI PUSH1 0x0 JUMPDEST PUSH1 0x1 SLOAD DUP2 LT ISZERO PUSH2 0x175F JUMPI PUSH1 0x1 DUP2 DUP2 SLOAD DUP2 LT PUSH2 0x1733 JUMPI PUSH2 0x1733 PUSH2 0x5C4F JUMP JUMPDEST PUSH1 0x0 SWAP2 DUP3 MSTORE PUSH1 0x20 SWAP1 SWAP2 KECCAK256 ADD SLOAD PUSH1 0x1 PUSH1 0x1 PUSH1 0xA0 SHL SUB AND CALLER SUB PUSH2 0x1757 JUMPI PUSH1 0x1 SWAP2 POP PUSH2 0x175F JUMP JUMPDEST PUSH1 0x1 ADD PUSH2 0x1716 JUMP JUMPDEST POP JUMPDEST DUP1 PUSH2 0x17C1 JUMPI PUSH1 0x40 MLOAD PUSH3 0x461BCD PUSH1 0xE5 SHL DUP2 MSTORE PUSH1 0x20 PUSH1 0x4 DUP3 ADD MSTORE PUSH1 0x2A PUSH1 0x24 DUP3 ADD MSTORE PUSH32 0x4F6E6C79206F776E6572206F722073746166662063616E2063616C6C20746869 PUSH1 0x44 DUP3 ADD MSTORE PUSH10 0x3990333AB731BA34B7B7 PUSH1 0xB1 SHL PUSH1 0x64 DUP3 ADD MSTORE PUSH1 0x84 ADD PUSH2 0x7A9 JUMP JUMPDEST PUSH1 0x0 DUP4 DUP2 MSTORE PUSH1 0x8 PUSH1 0x20 SWAP1 DUP2 MSTORE PUSH1 0x40 DUP1 DUP4 KECCAK256 DUP6 DUP5 MSTORE SWAP1 SWAP2 MSTORE SWAP1 KECCAK256 PUSH1 0x1 DUP1 DUP3 ADD SLOAD PUSH1 0xFF AND PUSH1 0x4 DUP2 GT ISZERO PUSH2 0x17F4 JUMPI PUSH2 0x17F4 PUSH2 0x56E1 JUMP JUMPDEST EQ PUSH2 0x1867 JUMPI PUSH1 0x40 MLOAD PUSH3 0x461BCD PUSH1 0xE5 SHL DUP2 MSTORE PUSH1 0x20 PUSH1 0x4 DUP3 ADD MSTORE PUSH1 0x3E PUSH1 0x24 DUP3 ADD MSTORE PUSH32 0x596F752063616E206F6E6C792066756C6C7920617070726F7665206120726571 PUSH1 0x44 DUP3 ADD MSTORE PUSH32 0x7565737420617070726F7665642062792074686520636F6D6D69747465650000 PUSH1 0x64 DUP3 ADD MSTORE PUSH1 0x84 ADD PUSH2 0x7A9 JUMP JUMPDEST PUSH1 0x1 ADD DUP1 SLOAD PUSH1 0xFF NOT AND PUSH1 0x2 OR SWAP1 SSTORE POP POP POP JUMP JUMPDEST PUSH1 0x0 SLOAD PUSH1 0x1 PUSH1 0x1 PUSH1 0xA0 SHL SUB AND CALLER EQ DUP1 PUSH2 0x18DB JUMPI PUSH1 0x0 JUMPDEST PUSH1 0x1 SLOAD DUP2 LT ISZERO PUSH2 0x18D9 JUMPI PUSH1 0x1 DUP2 DUP2 SLOAD DUP2 LT PUSH2 0x18AD JUMPI PUSH2 0x18AD PUSH2 0x5C4F JUMP JUMPDEST PUSH1 0x0 SWAP2 DUP3 MSTORE PUSH1 0x20 SWAP1 SWAP2 KECCAK256 ADD SLOAD PUSH1 0x1 PUSH1 0x1 PUSH1 0xA0 SHL SUB AND CALLER SUB PUSH2 0x18D1 JUMPI PUSH1 0x1 SWAP2 POP PUSH2 0x18D9 JUMP JUMPDEST PUSH1 0x1 ADD PUSH2 0x1890 JUMP JUMPDEST POP JUMPDEST DUP1 PUSH2 0x193B JUMPI PUSH1 0x40 MLOAD PUSH3 0x461BCD PUSH1 0xE5 SHL DUP2 MSTORE PUSH1 0x20 PUSH1 0x4 DUP3 ADD MSTORE PUSH1 0x2A PUSH1 0x24 DUP3 ADD MSTORE PUSH32 0x4F6E6C79206F776E6572206F722073746166662063616E2063616C6C20746869 PUSH1 0x44 DUP3 ADD MSTORE PUSH10 0x3990333AB731BA34B7B7 PUSH1 0xB1 SHL PUSH1 0x64 DUP3 ADD MSTORE PUSH1 0x84 ADD PUSH2 0x7A9 JUMP JUMPDEST PUSH1 0x0 DUP3 DUP2 MSTORE PUSH1 0x7 PUSH1 0x20 MSTORE PUSH1 0x40 SWAP1 KECCAK256 PUSH1 0xC DUP2 ADD SLOAD DUP4 SWAP2 SWAP1 PUSH1 0xFF AND ISZERO PUSH2 0x19A1 JUMPI PUSH1 0x40 MLOAD PUSH3 0x461BCD PUSH1 0xE5 SHL DUP2 MSTORE PUSH1 0x20 PUSH1 0x4 DUP3 ADD MSTORE PUSH1 0x1C PUSH1 0x24 DUP3 ADD MSTORE PUSH32 0x50726F6A65637420697320616C726561647920417070726F7665642100000000 PUSH1 0x44 DUP3 ADD MSTORE PUSH1 0x64 ADD PUSH2 0x7A9 JUMP JUMPDEST PUSH1 0x0 DUP5 DUP2 MSTORE PUSH1 0x7 PUSH1 0x20 MSTORE PUSH1 0x40 DUP1 DUP3 KECCAK256 PUSH1 0xC DUP2 ADD DUP1 SLOAD PUSH1 0xFF NOT AND PUSH1 0x1 OR SWAP1 SSTORE SWAP1 MLOAD SWAP1 SWAP2 DUP7 SWAP2 PUSH32 0x5382406121492E13EB8B00A0122012025548DBD3B07F9B3184C26DB775732B22 SWAP2 SWAP1 LOG2 POP POP POP POP POP JUMP JUMPDEST PUSH1 0x0 DUP3 DUP2 MSTORE PUSH1 0x7 PUSH1 0x20 SWAP1 DUP2 MSTORE PUSH1 0x40 DUP1 DUP4 KECCAK256 PUSH1 0x8 DUP4 MSTORE DUP2 DUP5 KECCAK256 DUP6 DUP6 MSTORE SWAP1 SWAP3 MSTORE DUP3 KECCAK256 PUSH1 0x13 DUP3 ADD SLOAD SWAP2 SWAP3 SWAP1 SWAP2 PUSH2 0x1A28 SWAP1 PUSH1 0x2 SWAP1 PUSH1 0xFF AND PUSH2 0x5CAA JUMP JUMPDEST PUSH1 0xFF AND SWAP1 POP DUP1 DUP3 PUSH1 0x9 ADD SLOAD GT ISZERO PUSH2 0x1A47 JUMPI PUSH2 0x1A42 DUP3 PUSH2 0x52BF JUMP JUMPDEST PUSH2 0x1A50 JUMP JUMPDEST PUSH2 0x1A50 DUP3 PUSH2 0x52D5 JUMP JUMPDEST POP POP POP POP POP JUMP JUMPDEST PUSH1 0x0 DUP3 DUP2 MSTORE PUSH1 0x7 PUSH1 0x20 MSTORE PUSH1 0x40 DUP2 KECCAK256 DUP4 SWAP2 DUP1 JUMPDEST PUSH1 0x4 DUP4 ADD SLOAD PUSH1 0xFF DUP3 AND LT ISZERO PUSH2 0x1ABC JUMPI DUP3 PUSH1 0x4 ADD DUP2 PUSH1 0xFF AND DUP2 SLOAD DUP2 LT PUSH2 0x1A90 JUMPI PUSH2 0x1A90 PUSH2 0x5C4F JUMP JUMPDEST PUSH1 0x0 SWAP2 DUP3 MSTORE PUSH1 0x20 SWAP1 SWAP2 KECCAK256 ADD SLOAD PUSH1 0x1 PUSH1 0x1 PUSH1 0xA0 SHL SUB AND CALLER SUB PUSH2 0x1AB4 JUMPI PUSH1 0x1 SWAP2 POP PUSH2 0x1ABC JUMP JUMPDEST PUSH1 0x1 ADD PUSH2 0x1A69 JUMP JUMPDEST POP DUP1 PUSH2 0x1B30 JUMPI PUSH1 0x40 MLOAD PUSH3 0x461BCD PUSH1 0xE5 SHL DUP2 MSTORE PUSH1 0x20 PUSH1 0x4 DUP3 ADD MSTORE PUSH1 0x3D PUSH1 0x24 DUP3 ADD MSTORE PUSH32 0x54686520616374696F6E2063616E206F6E6C7920626520706572666F726D6564 PUSH1 0x44 DUP3 ADD MSTORE PUSH32 0x206279206F7267616E697A657273206F66207468652070726F6A656374000000 PUSH1 0x64 DUP3 ADD MSTORE PUSH1 0x84 ADD PUSH2 0x7A9 JUMP JUMPDEST PUSH1 0x0 DUP6 DUP2 MSTORE PUSH1 0x7 PUSH1 0x20 MSTORE PUSH1 0x40 SWAP1 KECCAK256 PUSH1 0xC ADD SLOAD DUP6 SWAP1 PUSH1 0xFF AND PUSH2 0x1BB9 JUMPI PUSH1 0x40 MLOAD PUSH3 0x461BCD PUSH1 0xE5 SHL DUP2 MSTORE PUSH1 0x20 PUSH1 0x4 DUP3 ADD MSTORE PUSH1 0x31 PUSH1 0x24 DUP3 ADD MSTORE PUSH32 0x54686520616374696F6E2063616E206F6E6C792068617070656E206F6E20616E PUSH1 0x44 DUP3 ADD MSTORE PUSH32 0x20617070726F7665642070726F6A656374000000000000000000000000000000 PUSH1 0x64 DUP3 ADD MSTORE PUSH1 0x84 ADD PUSH2 0x7A9 JUMP JUMPDEST PUSH1 0x0 DUP7 DUP2 MSTORE PUSH1 0x8 PUSH1 0x20 DUP2 DUP2 MSTORE PUSH1 0x40 DUP1 DUP5 KECCAK256 PUSH1 0x3 DUP1 SLOAD DUP7 MSTORE SWAP3 MSTORE DUP4 KECCAK256 DUP10 DUP2 SSTORE PUSH1 0x1 DUP2 ADD DUP1 SLOAD PUSH32 0xFFFFFFFFFFFFFFFFFFFFFF000000000000000000000000000000000000000000 AND CALLER PUSH2 0x100 MUL OR SWAP1 SSTORE SWAP2 DUP3 ADD DUP9 SWAP1 SSTORE DUP1 SLOAD SWAP2 SWAP3 PUSH2 0x1C1A DUP4 PUSH2 0x5C7B JUMP JUMPDEST SWAP2 SWAP1 POP SSTORE POP POP POP POP POP POP POP POP JUMP JUMPDEST PUSH1 0x0 SLOAD PUSH1 0x1 PUSH1 0x1 PUSH1 0xA0 SHL SUB AND CALLER EQ DUP1 PUSH2 0x1C89 JUMPI PUSH1 0x0 JUMPDEST PUSH1 0x1 SLOAD DUP2 LT ISZERO PUSH2 0x1C87 JUMPI PUSH1 0x1 DUP2 DUP2 SLOAD DUP2 LT PUSH2 0x1C5B JUMPI PUSH2 0x1C5B PUSH2 0x5C4F JUMP JUMPDEST PUSH1 0x0 SWAP2 DUP3 MSTORE PUSH1 0x20 SWAP1 SWAP2 KECCAK256 ADD SLOAD PUSH1 0x1 PUSH1 0x1 PUSH1 0xA0 SHL SUB AND CALLER SUB PUSH2 0x1C7F JUMPI PUSH1 0x1 SWAP2 POP PUSH2 0x1C87 JUMP JUMPDEST PUSH1 0x1 ADD PUSH2 0x1C3E JUMP JUMPDEST POP JUMPDEST DUP1 PUSH2 0x1CE9 JUMPI PUSH1 0x40 MLOAD PUSH3 0x461BCD PUSH1 0xE5 SHL DUP2 MSTORE PUSH1 0x20 PUSH1 0x4 DUP3 ADD MSTORE PUSH1 0x2A PUSH1 0x24 DUP3 ADD MSTORE PUSH32 0x4F6E6C79206F776E6572206F722073746166662063616E2063616C6C20746869 PUSH1 0x44 DUP3 ADD MSTORE PUSH10 0x3990333AB731BA34B7B7 PUSH1 0xB1 SHL PUSH1 0x64 DUP3 ADD MSTORE PUSH1 0x84 ADD PUSH2 0x7A9 JUMP JUMPDEST PUSH1 0x2 SLOAD PUSH1 0x0 SWAP1 DUP2 MSTORE PUSH1 0x7 PUSH1 0x20 MSTORE PUSH1 0x40 SWAP1 KECCAK256 PUSH1 0x1 DUP1 DUP3 ADD DUP1 SLOAD DUP12 SWAP3 PUSH1 0xFF NOT SWAP1 SWAP2 AND SWAP1 DUP4 DUP2 DUP2 GT ISZERO PUSH2 0x1D1B JUMPI PUSH2 0x1D1B PUSH2 0x56E1 JUMP JUMPDEST MUL OR SWAP1 SSTORE POP DUP8 MLOAD PUSH2 0x1D35 SWAP1 PUSH1 0x2 DUP4 ADD SWAP1 PUSH1 0x20 DUP12 ADD SWAP1 PUSH2 0x52EC JUMP JUMPDEST POP DUP7 MLOAD PUSH2 0x1D4B SWAP1 PUSH1 0x3 DUP4 ADD SWAP1 PUSH1 0x20 DUP11 ADD SWAP1 PUSH2 0x52EC JUMP JUMPDEST POP PUSH1 0x0 DUP1 JUMPDEST DUP8 MLOAD DUP2 LT ISZERO PUSH2 0x1DA6 JUMPI CALLER PUSH1 0x1 PUSH1 0x1 PUSH1 0xA0 SHL SUB AND DUP9 DUP3 DUP2 MLOAD DUP2 LT PUSH2 0x1D75 JUMPI PUSH2 0x1D75 PUSH2 0x5C4F JUMP JUMPDEST PUSH1 0x20 MUL PUSH1 0x20 ADD ADD MLOAD PUSH1 0x1 PUSH1 0x1 PUSH1 0xA0 SHL SUB AND SUB PUSH2 0x1D94 JUMPI PUSH1 0x1 SWAP2 POP PUSH2 0x1DA6 JUMP JUMPDEST DUP1 PUSH2 0x1D9E DUP2 PUSH2 0x5C7B JUMP JUMPDEST SWAP2 POP POP PUSH2 0x1D50 JUMP JUMPDEST POP DUP1 PUSH2 0x1EA9 JUMPI PUSH1 0x0 DUP8 MLOAD PUSH1 0x1 PUSH2 0x1DBC SWAP2 SWAP1 PUSH2 0x5D00 JUMP JUMPDEST PUSH8 0xFFFFFFFFFFFFFFFF DUP2 GT ISZERO PUSH2 0x1DD4 JUMPI PUSH2 0x1DD4 PUSH2 0x54F4 JUMP JUMPDEST PUSH1 0x40 MLOAD SWAP1 DUP1 DUP3 MSTORE DUP1 PUSH1 0x20 MUL PUSH1 0x20 ADD DUP3 ADD PUSH1 0x40 MSTORE DUP1 ISZERO PUSH2 0x1DFD JUMPI DUP2 PUSH1 0x20 ADD PUSH1 0x20 DUP3 MUL DUP1 CALLDATASIZE DUP4 CALLDATACOPY ADD SWAP1 POP JUMPDEST POP SWAP1 POP PUSH1 0x0 JUMPDEST DUP9 MLOAD DUP2 LT ISZERO PUSH2 0x1E62 JUMPI DUP9 DUP2 DUP2 MLOAD DUP2 LT PUSH2 0x1E1E JUMPI PUSH2 0x1E1E PUSH2 0x5C4F JUMP JUMPDEST PUSH1 0x20 MUL PUSH1 0x20 ADD ADD MLOAD DUP3 DUP3 DUP2 MLOAD DUP2 LT PUSH2 0x1E38 JUMPI PUSH2 0x1E38 PUSH2 0x5C4F JUMP JUMPDEST PUSH1 0x1 PUSH1 0x1 PUSH1 0xA0 SHL SUB SWAP1 SWAP3 AND PUSH1 0x20 SWAP3 DUP4 MUL SWAP2 SWAP1 SWAP2 ADD SWAP1 SWAP2 ADD MSTORE DUP1 PUSH2 0x1E5A DUP2 PUSH2 0x5C7B JUMP JUMPDEST SWAP2 POP POP PUSH2 0x1E03 JUMP JUMPDEST POP CALLER DUP2 DUP10 MLOAD DUP2 MLOAD DUP2 LT PUSH2 0x1E77 JUMPI PUSH2 0x1E77 PUSH2 0x5C4F JUMP JUMPDEST PUSH1 0x1 PUSH1 0x1 PUSH1 0xA0 SHL SUB SWAP1 SWAP3 AND PUSH1 0x20 SWAP3 DUP4 MUL SWAP2 SWAP1 SWAP2 ADD DUP3 ADD MSTORE DUP2 MLOAD PUSH2 0x1EA2 SWAP2 PUSH1 0x4 DUP7 ADD SWAP2 SWAP1 DUP5 ADD SWAP1 PUSH2 0x5394 JUMP JUMPDEST POP POP PUSH2 0x1EC0 JUMP JUMPDEST DUP7 MLOAD PUSH2 0x1EBE SWAP1 PUSH1 0x4 DUP5 ADD SWAP1 PUSH1 0x20 DUP11 ADD SWAP1 PUSH2 0x5394 JUMP JUMPDEST POP JUMPDEST PUSH1 0x1 PUSH1 0x2 SLOAD PUSH2 0x1ECF SWAP2 SWAP1 PUSH2 0x5D18 JUMP JUMPDEST DUP3 SSTORE PUSH1 0x5 DUP3 ADD DUP7 SWAP1 SSTORE PUSH1 0x6 DUP3 ADD DUP6 SWAP1 SSTORE PUSH1 0x7 DUP3 ADD DUP5 SWAP1 SSTORE PUSH1 0xC DUP3 ADD DUP1 SLOAD PUSH2 0xFFFF NOT AND SWAP1 SSTORE PUSH1 0x0 PUSH1 0xE DUP4 ADD DUP2 SWAP1 SSTORE PUSH1 0xF DUP4 ADD DUP2 SWAP1 SSTORE PUSH1 0x4 DUP1 SLOAD DUP9 SWAP3 SWAP1 PUSH2 0x1F15 SWAP1 DUP5 SWAP1 PUSH2 0x5D00 JUMP JUMPDEST SWAP1 SWAP2 SSTORE POP PUSH1 0x0 SWAP1 POP JUMPDEST PUSH1 0x4 DUP4 ADD SLOAD DUP2 LT ISZERO PUSH2 0x1FE8 JUMPI PUSH1 0x9 PUSH1 0x0 DUP5 PUSH1 0x4 ADD DUP4 DUP2 SLOAD DUP2 LT PUSH2 0x1F43 JUMPI PUSH2 0x1F43 PUSH2 0x5C4F JUMP JUMPDEST PUSH1 0x0 SWAP2 DUP3 MSTORE PUSH1 0x20 DUP1 DUP4 KECCAK256 SWAP1 SWAP2 ADD SLOAD PUSH1 0x1 PUSH1 0x1 PUSH1 0xA0 SHL SUB AND DUP4 MSTORE DUP3 DUP2 ADD SWAP4 SWAP1 SWAP4 MSTORE PUSH1 0x40 SWAP1 SWAP2 ADD DUP2 KECCAK256 PUSH1 0x2 SLOAD DUP2 SLOAD PUSH1 0x1 DUP2 ADD DUP4 SSTORE SWAP2 DUP4 MSTORE SWAP3 DUP3 KECCAK256 ADD SWAP2 SWAP1 SWAP2 SSTORE PUSH1 0x4 DUP5 ADD DUP1 SLOAD PUSH1 0xA SWAP3 SWAP2 SWAP1 DUP5 SWAP1 DUP2 LT PUSH2 0x1F9B JUMPI PUSH2 0x1F9B PUSH2 0x5C4F JUMP JUMPDEST PUSH1 0x0 SWAP2 DUP3 MSTORE PUSH1 0x20 DUP1 DUP4 KECCAK256 SWAP1 SWAP2 ADD SLOAD PUSH1 0x1 PUSH1 0x1 PUSH1 0xA0 SHL SUB AND DUP4 MSTORE DUP3 DUP2 ADD SWAP4 SWAP1 SWAP4 MSTORE PUSH1 0x40 SWAP1 SWAP2 ADD DUP2 KECCAK256 PUSH1 0x2 SLOAD DUP2 SLOAD PUSH1 0x1 DUP2 ADD DUP4 SSTORE SWAP2 DUP4 MSTORE SWAP3 SWAP1 SWAP2 KECCAK256 ADD SSTORE DUP1 PUSH2 0x1FE0 DUP2 PUSH2 0x5C7B JUMP JUMPDEST SWAP2 POP POP PUSH2 0x1F1E JUMP JUMPDEST POP PUSH1 0x2 DUP1 SLOAD SWAP1 PUSH1 0x0 PUSH2 0x1FF9 DUP4 PUSH2 0x5C7B JUMP JUMPDEST SWAP2 SWAP1 POP SSTORE POP PUSH1 0x1 PUSH1 0x2 SLOAD PUSH2 0x200D SWAP2 SWAP1 PUSH2 0x5D18 JUMP JUMPDEST PUSH32 0xD2A5012DC4BD19DC1ABEE5A94A684343C01B625110482B114FC5124F5E37CB9F DUP4 PUSH1 0x4 ADD DUP9 PUSH1 0x40 MLOAD PUSH2 0x2041 SWAP3 SWAP2 SWAP1 PUSH2 0x5D2F JUMP JUMPDEST PUSH1 0x40 MLOAD DUP1 SWAP2 SUB SWAP1 LOG2 POP POP POP POP POP POP POP POP POP POP JUMP JUMPDEST PUSH1 0x0 DUP6 DUP2 MSTORE PUSH1 0x7 PUSH1 0x20 MSTORE PUSH1 0x40 DUP2 KECCAK256 DUP7 SWAP2 DUP1 JUMPDEST PUSH1 0x4 DUP4 ADD SLOAD PUSH1 0xFF DUP3 AND LT ISZERO PUSH2 0x20BA JUMPI DUP3 PUSH1 0x4 ADD DUP2 PUSH1 0xFF AND DUP2 SLOAD DUP2 LT PUSH2 0x208E JUMPI PUSH2 0x208E PUSH2 0x5C4F JUMP JUMPDEST PUSH1 0x0 SWAP2 DUP3 MSTORE PUSH1 0x20 SWAP1 SWAP2 KECCAK256 ADD SLOAD PUSH1 0x1 PUSH1 0x1 PUSH1 0xA0 SHL SUB AND CALLER SUB PUSH2 0x20B2 JUMPI PUSH1 0x1 SWAP2 POP PUSH2 0x20BA JUMP JUMPDEST PUSH1 0x1 ADD PUSH2 0x2067 JUMP JUMPDEST POP DUP1 PUSH2 0x212E JUMPI PUSH1 0x40 MLOAD PUSH3 0x461BCD PUSH1 0xE5 SHL DUP2 MSTORE PUSH1 0x20 PUSH1 0x4 DUP3 ADD MSTORE PUSH1 0x3D PUSH1 0x24 DUP3 ADD MSTORE PUSH32 0x54686520616374696F6E2063616E206F6E6C7920626520706572666F726D6564 PUSH1 0x44 DUP3 ADD MSTORE PUSH32 0x206279206F7267616E697A657273206F66207468652070726F6A656374000000 PUSH1 0x64 DUP3 ADD MSTORE PUSH1 0x84 ADD PUSH2 0x7A9 JUMP JUMPDEST PUSH1 0x0 PUSH1 0x40 MLOAD DUP1 PUSH1 0x80 ADD PUSH1 0x40 MSTORE DUP1 DUP10 DUP2 MSTORE PUSH1 0x20 ADD DUP9 DUP2 MSTORE PUSH1 0x20 ADD DUP7 PUSH1 0x4 DUP2 GT ISZERO PUSH2 0x2159 JUMPI PUSH2 0x2159 PUSH2 0x56E1 JUMP JUMPDEST DUP2 MSTORE PUSH1 0x20 ADD DUP8 SWAP1 MSTORE SWAP1 POP PUSH1 0x0 DUP6 PUSH1 0x4 DUP2 GT ISZERO PUSH2 0x2177 JUMPI PUSH2 0x2177 PUSH2 0x56E1 JUMP JUMPDEST SUB PUSH2 0x221F JUMPI PUSH1 0x0 DUP10 DUP2 MSTORE PUSH1 0x7 PUSH1 0x20 SWAP1 DUP2 MSTORE PUSH1 0x40 DUP3 KECCAK256 PUSH1 0x8 ADD DUP1 SLOAD PUSH1 0x1 DUP2 ADD DUP3 SSTORE SWAP1 DUP4 MSTORE SWAP2 DUP2 SWAP1 KECCAK256 DUP4 MLOAD DUP1 MLOAD DUP6 SWAP5 PUSH1 0x4 MUL SWAP1 SWAP3 ADD SWAP3 PUSH2 0x21BA SWAP3 DUP5 SWAP3 SWAP1 SWAP2 ADD SWAP1 PUSH2 0x52EC JUMP JUMPDEST POP PUSH1 0x20 DUP3 DUP2 ADD MLOAD DUP1 MLOAD PUSH2 0x21D3 SWAP3 PUSH1 0x1 DUP6 ADD SWAP3 ADD SWAP1 PUSH2 0x52EC JUMP JUMPDEST POP PUSH1 0x40 DUP3 ADD MLOAD PUSH1 0x2 DUP3 ADD DUP1 SLOAD PUSH1 0xFF NOT AND PUSH1 0x1 DUP4 PUSH1 0x4 DUP2 GT ISZERO PUSH2 0x21F7 JUMPI PUSH2 0x21F7 PUSH2 0x56E1 JUMP JUMPDEST MUL OR SWAP1 SSTORE POP PUSH1 0x60 DUP3 ADD MLOAD DUP1 MLOAD PUSH2 0x2217 SWAP2 PUSH1 0x3 DUP5 ADD SWAP2 PUSH1 0x20 SWAP1 SWAP2 ADD SWAP1 PUSH2 0x52EC JUMP JUMPDEST POP POP POP PUSH2 0x2324 JUMP JUMPDEST PUSH1 0x2 DUP6 PUSH1 0x4 DUP2 GT ISZERO PUSH2 0x2233 JUMPI PUSH2 0x2233 PUSH2 0x56E1 JUMP JUMPDEST SUB PUSH2 0x2276 JUMPI PUSH1 0x0 DUP10 DUP2 MSTORE PUSH1 0x7 PUSH1 0x20 SWAP1 DUP2 MSTORE PUSH1 0x40 DUP3 KECCAK256 PUSH1 0xA ADD DUP1 SLOAD PUSH1 0x1 DUP2 ADD DUP3 SSTORE SWAP1 DUP4 MSTORE SWAP2 DUP2 SWAP1 KECCAK256 DUP4 MLOAD DUP1 MLOAD DUP6 SWAP5 PUSH1 0x4 MUL SWAP1 SWAP3 ADD SWAP3 PUSH2 0x21BA SWAP3 DUP5 SWAP3 SWAP1 SWAP2 ADD SWAP1 PUSH2 0x52EC JUMP JUMPDEST PUSH1 0x1 DUP6 PUSH1 0x4 DUP2 GT ISZERO PUSH2 0x228A JUMPI PUSH2 0x228A PUSH2 0x56E1 JUMP JUMPDEST SUB PUSH2 0x22CD JUMPI PUSH1 0x0 DUP10 DUP2 MSTORE PUSH1 0x7 PUSH1 0x20 SWAP1 DUP2 MSTORE PUSH1 0x40 DUP3 KECCAK256 PUSH1 0x9 ADD DUP1 SLOAD PUSH1 0x1 DUP2 ADD DUP3 SSTORE SWAP1 DUP4 MSTORE SWAP2 DUP2 SWAP1 KECCAK256 DUP4 MLOAD DUP1 MLOAD DUP6 SWAP5 PUSH1 0x4 MUL SWAP1 SWAP3 ADD SWAP3 PUSH2 0x21BA SWAP3 DUP5 SWAP3 SWAP1 SWAP2 ADD SWAP1 PUSH2 0x52EC JUMP JUMPDEST PUSH1 0x3 DUP6 PUSH1 0x4 DUP2 GT ISZERO PUSH2 0x22E1 JUMPI PUSH2 0x22E1 PUSH2 0x56E1 JUMP JUMPDEST SUB PUSH2 0x9CA JUMPI PUSH1 0x0 DUP10 DUP2 MSTORE PUSH1 0x7 PUSH1 0x20 SWAP1 DUP2 MSTORE PUSH1 0x40 DUP3 KECCAK256 PUSH1 0xB ADD DUP1 SLOAD PUSH1 0x1 DUP2 ADD DUP3 SSTORE SWAP1 DUP4 MSTORE SWAP2 DUP2 SWAP1 KECCAK256 DUP4 MLOAD DUP1 MLOAD DUP6 SWAP5 PUSH1 0x4 MUL SWAP1 SWAP3 ADD SWAP3 PUSH2 0x21BA SWAP3 DUP5 SWAP3 SWAP1 SWAP2 ADD SWAP1 PUSH2 0x52EC JUMP JUMPDEST POP POP POP POP POP POP POP POP POP JUMP JUMPDEST PUSH1 0x0 SLOAD PUSH1 0x1 PUSH1 0x1 PUSH1 0xA0 SHL SUB AND CALLER EQ DUP1 PUSH2 0x2390 JUMPI PUSH1 0x0 JUMPDEST PUSH1 0x1 SLOAD DUP2 LT ISZERO PUSH2 0x238E JUMPI PUSH1 0x1 DUP2 DUP2 SLOAD DUP2 LT PUSH2 0x2362 JUMPI PUSH2 0x2362 PUSH2 0x5C4F JUMP JUMPDEST PUSH1 0x0 SWAP2 DUP3 MSTORE PUSH1 0x20 SWAP1 SWAP2 KECCAK256 ADD SLOAD PUSH1 0x1 PUSH1 0x1 PUSH1 0xA0 SHL SUB AND CALLER SUB PUSH2 0x2386 JUMPI PUSH1 0x1 SWAP2 POP PUSH2 0x238E JUMP JUMPDEST PUSH1 0x1 ADD PUSH2 0x2345 JUMP JUMPDEST POP JUMPDEST DUP1 PUSH2 0x23F0 JUMPI PUSH1 0x40 MLOAD PUSH3 0x461BCD PUSH1 0xE5 SHL DUP2 MSTORE PUSH1 0x20 PUSH1 0x4 DUP3 ADD MSTORE PUSH1 0x2A PUSH1 0x24 DUP3 ADD MSTORE PUSH32 0x4F6E6C79206F776E6572206F722073746166662063616E2063616C6C20746869 PUSH1 0x44 DUP3 ADD MSTORE PUSH10 0x3990333AB731BA34B7B7 PUSH1 0xB1 SHL PUSH1 0x64 DUP3 ADD MSTORE PUSH1 0x84 ADD PUSH2 0x7A9 JUMP JUMPDEST PUSH1 0x0 DUP1 DUP4 PUSH1 0x4 DUP2 GT ISZERO PUSH2 0x2405 JUMPI PUSH2 0x2405 PUSH2 0x56E1 JUMP JUMPDEST SUB PUSH2 0x242C JUMPI POP PUSH1 0x0 DUP6 DUP2 MSTORE PUSH1 0x8 PUSH1 0x20 SWAP1 DUP2 MSTORE PUSH1 0x40 DUP1 DUP4 KECCAK256 DUP8 DUP5 MSTORE SWAP1 SWAP2 MSTORE SWAP1 KECCAK256 PUSH1 0x4 ADD PUSH2 0x24D9 JUMP JUMPDEST PUSH1 0x2 DUP4 PUSH1 0x4 DUP2 GT ISZERO PUSH2 0x2440 JUMPI PUSH2 0x2440 PUSH2 0x56E1 JUMP JUMPDEST SUB PUSH2 0x2467 JUMPI POP PUSH1 0x0 DUP6 DUP2 MSTORE PUSH1 0x8 PUSH1 0x20 SWAP1 DUP2 MSTORE PUSH1 0x40 DUP1 DUP4 KECCAK256 DUP8 DUP5 MSTORE SWAP1 SWAP2 MSTORE SWAP1 KECCAK256 PUSH1 0x6 ADD PUSH2 0x24D9 JUMP JUMPDEST PUSH1 0x1 DUP4 PUSH1 0x4 DUP2 GT ISZERO PUSH2 0x247B JUMPI PUSH2 0x247B PUSH2 0x56E1 JUMP JUMPDEST SUB PUSH2 0x24A2 JUMPI POP PUSH1 0x0 DUP6 DUP2 MSTORE PUSH1 0x8 PUSH1 0x20 SWAP1 DUP2 MSTORE PUSH1 0x40 DUP1 DUP4 KECCAK256 DUP8 DUP5 MSTORE SWAP1 SWAP2 MSTORE SWAP1 KECCAK256 PUSH1 0x5 ADD PUSH2 0x24D9 JUMP JUMPDEST PUSH1 0x3 DUP4 PUSH1 0x4 DUP2 GT ISZERO PUSH2 0x24B6 JUMPI PUSH2 0x24B6 PUSH2 0x56E1 JUMP JUMPDEST SUB PUSH2 0x9CA JUMPI POP PUSH1 0x0 DUP6 DUP2 MSTORE PUSH1 0x8 PUSH1 0x20 SWAP1 DUP2 MSTORE PUSH1 0x40 DUP1 DUP4 KECCAK256 DUP8 DUP5 MSTORE SWAP1 SWAP2 MSTORE SWAP1 KECCAK256 PUSH1 0x7 ADD JUMPDEST DUP1 SLOAD DUP5 LT PUSH2 0x2529 JUMPI PUSH1 0x40 MLOAD PUSH3 0x461BCD PUSH1 0xE5 SHL DUP2 MSTORE PUSH1 0x20 PUSH1 0x4 DUP3 ADD MSTORE PUSH1 0x18 PUSH1 0x24 DUP3 ADD MSTORE PUSH32 0x496E76616C6964204D65646961204974656D20496E6465780000000000000000 PUSH1 0x44 DUP3 ADD MSTORE PUSH1 0x64 ADD PUSH2 0x7A9 JUMP JUMPDEST DUP1 SLOAD DUP2 SWAP1 PUSH2 0x2539 SWAP1 PUSH1 0x1 SWAP1 PUSH2 0x5D18 JUMP JUMPDEST DUP2 SLOAD DUP2 LT PUSH2 0x2549 JUMPI PUSH2 0x2549 PUSH2 0x5C4F JUMP JUMPDEST SWAP1 PUSH1 0x0 MSTORE PUSH1 0x20 PUSH1 0x0 KECCAK256 SWAP1 PUSH1 0x4 MUL ADD DUP2 DUP6 DUP2 SLOAD DUP2 LT PUSH2 0x2569 JUMPI PUSH2 0x2569 PUSH2 0x5C4F JUMP JUMPDEST SWAP1 PUSH1 0x0 MSTORE PUSH1 0x20 PUSH1 0x0 KECCAK256 SWAP1 PUSH1 0x4 MUL ADD PUSH1 0x0 DUP3 ADD DUP2 PUSH1 0x0 ADD SWAP1 DUP1 SLOAD PUSH2 0x258B SWAP1 PUSH2 0x5CCC JUMP JUMPDEST PUSH2 0x2596 SWAP3 SWAP2 SWAP1 PUSH2 0x53E9 JUMP JUMPDEST POP PUSH1 0x1 DUP3 ADD DUP2 PUSH1 0x1 ADD SWAP1 DUP1 SLOAD PUSH2 0x25AB SWAP1 PUSH2 0x5CCC JUMP JUMPDEST PUSH2 0x25B6 SWAP3 SWAP2 SWAP1 PUSH2 0x53E9 JUMP JUMPDEST POP PUSH1 0x2 DUP3 DUP2 ADD SLOAD SWAP1 DUP3 ADD DUP1 SLOAD PUSH1 0xFF SWAP1 SWAP3 AND SWAP2 PUSH1 0xFF NOT AND PUSH1 0x1 DUP4 PUSH1 0x4 DUP2 GT ISZERO PUSH2 0x25E0 JUMPI PUSH2 0x25E0 PUSH2 0x56E1 JUMP JUMPDEST MUL OR SWAP1 SSTORE POP PUSH1 0x3 DUP3 ADD DUP2 PUSH1 0x3 ADD SWAP1 DUP1 SLOAD PUSH2 0x25F9 SWAP1 PUSH2 0x5CCC JUMP JUMPDEST PUSH2 0x2604 SWAP3 SWAP2 SWAP1 PUSH2 0x53E9 JUMP JUMPDEST POP SWAP1 POP POP DUP1 DUP1 SLOAD DUP1 PUSH2 0x2618 JUMPI PUSH2 0x2618 PUSH2 0x5D88 JUMP JUMPDEST PUSH1 0x0 DUP3 DUP2 MSTORE PUSH1 0x20 DUP2 KECCAK256 PUSH1 0x0 NOT SWAP1 SWAP3 ADD SWAP2 PUSH1 0x4 DUP4 MUL ADD SWAP1 PUSH2 0x2638 DUP3 DUP3 PUSH2 0x5464 JUMP JUMPDEST PUSH2 0x2646 PUSH1 0x1 DUP4 ADD PUSH1 0x0 PUSH2 0x5464 JUMP JUMPDEST PUSH1 0x2 DUP3 ADD DUP1 SLOAD PUSH1 0xFF NOT AND SWAP1 SSTORE PUSH2 0x2660 PUSH1 0x3 DUP4 ADD PUSH1 0x0 PUSH2 0x5464 JUMP JUMPDEST POP POP SWAP1 SSTORE POP POP POP POP POP POP JUMP JUMPDEST PUSH1 0x0 DUP8 DUP2 MSTORE PUSH1 0x7 PUSH1 0x20 MSTORE PUSH1 0x40 DUP2 KECCAK256 DUP9 SWAP2 DUP1 JUMPDEST PUSH1 0x4 DUP4 ADD SLOAD PUSH1 0xFF DUP3 AND LT ISZERO PUSH2 0x26D1 JUMPI DUP3 PUSH1 0x4 ADD DUP2 PUSH1 0xFF AND DUP2 SLOAD DUP2 LT PUSH2 0x26A5 JUMPI PUSH2 0x26A5 PUSH2 0x5C4F JUMP JUMPDEST PUSH1 0x0 SWAP2 DUP3 MSTORE PUSH1 0x20 SWAP1 SWAP2 KECCAK256 ADD SLOAD PUSH1 0x1 PUSH1 0x1 PUSH1 0xA0 SHL SUB AND CALLER SUB PUSH2 0x26C9 JUMPI PUSH1 0x1 SWAP2 POP PUSH2 0x26D1 JUMP JUMPDEST PUSH1 0x1 ADD PUSH2 0x267E JUMP JUMPDEST POP DUP1 PUSH2 0x2745 JUMPI PUSH1 0x40 MLOAD PUSH3 0x461BCD PUSH1 0xE5 SHL DUP2 MSTORE PUSH1 0x20 PUSH1 0x4 DUP3 ADD MSTORE PUSH1 0x3D PUSH1 0x24 DUP3 ADD MSTORE PUSH32 0x54686520616374696F6E2063616E206F6E6C7920626520706572666F726D6564 PUSH1 0x44 DUP3 ADD MSTORE PUSH32 0x206279206F7267616E697A657273206F66207468652070726F6A656374000000 PUSH1 0x64 DUP3 ADD MSTORE PUSH1 0x84 ADD PUSH2 0x7A9 JUMP JUMPDEST PUSH1 0x0 DUP1 DUP6 PUSH1 0x4 DUP2 GT ISZERO PUSH2 0x275A JUMPI PUSH2 0x275A PUSH2 0x56E1 JUMP JUMPDEST SUB PUSH2 0x2781 JUMPI POP PUSH1 0x0 DUP11 DUP2 MSTORE PUSH1 0x8 PUSH1 0x20 SWAP1 DUP2 MSTORE PUSH1 0x40 DUP1 DUP4 KECCAK256 DUP13 DUP5 MSTORE SWAP1 SWAP2 MSTORE SWAP1 KECCAK256 PUSH1 0x4 ADD PUSH2 0x282E JUMP JUMPDEST PUSH1 0x2 DUP6 PUSH1 0x4 DUP2 GT ISZERO PUSH2 0x2795 JUMPI PUSH2 0x2795 PUSH2 0x56E1 JUMP JUMPDEST SUB PUSH2 0x27BC JUMPI POP PUSH1 0x0 DUP11 DUP2 MSTORE PUSH1 0x8 PUSH1 0x20 SWAP1 DUP2 MSTORE PUSH1 0x40 DUP1 DUP4 KECCAK256 DUP13 DUP5 MSTORE SWAP1 SWAP2 MSTORE SWAP1 KECCAK256 PUSH1 0x6 ADD PUSH2 0x282E JUMP JUMPDEST PUSH1 0x1 DUP6 PUSH1 0x4 DUP2 GT ISZERO PUSH2 0x27D0 JUMPI PUSH2 0x27D0 PUSH2 0x56E1 JUMP JUMPDEST SUB PUSH2 0x27F7 JUMPI POP PUSH1 0x0 DUP11 DUP2 MSTORE PUSH1 0x8 PUSH1 0x20 SWAP1 DUP2 MSTORE PUSH1 0x40 DUP1 DUP4 KECCAK256 DUP13 DUP5 MSTORE SWAP1 SWAP2 MSTORE SWAP1 KECCAK256 PUSH1 0x5 ADD PUSH2 0x282E JUMP JUMPDEST PUSH1 0x3 DUP6 PUSH1 0x4 DUP2 GT ISZERO PUSH2 0x280B JUMPI PUSH2 0x280B PUSH2 0x56E1 JUMP JUMPDEST SUB PUSH2 0x9CA JUMPI POP PUSH1 0x0 DUP11 DUP2 MSTORE PUSH1 0x8 PUSH1 0x20 SWAP1 DUP2 MSTORE PUSH1 0x40 DUP1 DUP4 KECCAK256 DUP13 DUP5 MSTORE SWAP1 SWAP2 MSTORE SWAP1 KECCAK256 PUSH1 0x7 ADD JUMPDEST DUP1 SLOAD DUP10 LT PUSH2 0x287E JUMPI PUSH1 0x40 MLOAD PUSH3 0x461BCD PUSH1 0xE5 SHL DUP2 MSTORE PUSH1 0x20 PUSH1 0x4 DUP3 ADD MSTORE PUSH1 0x18 PUSH1 0x24 DUP3 ADD MSTORE PUSH32 0x496E76616C6964204D65646961204974656D20496E6465780000000000000000 PUSH1 0x44 DUP3 ADD MSTORE PUSH1 0x64 ADD PUSH2 0x7A9 JUMP JUMPDEST PUSH1 0x0 DUP2 DUP11 DUP2 SLOAD DUP2 LT PUSH2 0x2892 JUMPI PUSH2 0x2892 PUSH2 0x5C4F JUMP JUMPDEST PUSH1 0x0 SWAP2 DUP3 MSTORE PUSH1 0x20 SWAP2 DUP3 SWAP1 KECCAK256 DUP12 MLOAD PUSH1 0x4 SWAP1 SWAP3 MUL ADD SWAP3 POP PUSH2 0x28B6 SWAP2 DUP4 SWAP2 SWAP1 DUP13 ADD SWAP1 PUSH2 0x52EC JUMP JUMPDEST POP DUP8 MLOAD PUSH2 0x28CC SWAP1 PUSH1 0x1 DUP4 ADD SWAP1 PUSH1 0x20 DUP12 ADD SWAP1 PUSH2 0x52EC JUMP JUMPDEST POP DUP7 MLOAD PUSH2 0x28E2 SWAP1 PUSH1 0x3 DUP4 ADD SWAP1 PUSH1 0x20 DUP11 ADD SWAP1 PUSH2 0x52EC JUMP JUMPDEST POP POP POP POP POP POP POP POP POP POP POP POP POP JUMP JUMPDEST PUSH1 0x0 DUP2 DUP2 MSTORE PUSH1 0x7 PUSH1 0x20 MSTORE PUSH1 0x40 SWAP1 KECCAK256 PUSH1 0xC DUP2 ADD SLOAD DUP3 SWAP2 SWAP1 PUSH1 0xFF AND PUSH2 0x297C JUMPI PUSH1 0x40 MLOAD PUSH3 0x461BCD PUSH1 0xE5 SHL DUP2 MSTORE PUSH1 0x20 PUSH1 0x4 DUP3 ADD MSTORE PUSH1 0x2F PUSH1 0x24 DUP3 ADD MSTORE PUSH32 0x446F6E6174696F6E2063616E206F6E6C792068617070656E206F6E20616E2061 PUSH1 0x44 DUP3 ADD MSTORE PUSH32 0x7070726F7665642070726F6A6563740000000000000000000000000000000000 PUSH1 0x64 DUP3 ADD MSTORE PUSH1 0x84 ADD PUSH2 0x7A9 JUMP JUMPDEST PUSH1 0x0 PUSH1 0x1 DUP1 DUP4 ADD SLOAD PUSH1 0xFF AND SWAP1 DUP2 GT ISZERO PUSH2 0x2997 JUMPI PUSH2 0x2997 PUSH2 0x56E1 JUMP JUMPDEST SUB PUSH2 0x2AFB JUMPI PUSH1 0x6 DUP2 ADD SLOAD TIMESTAMP SWAP1 DUP2 GT PUSH2 0x2A17 JUMPI PUSH1 0x40 MLOAD PUSH3 0x461BCD PUSH1 0xE5 SHL DUP2 MSTORE PUSH1 0x20 PUSH1 0x4 DUP3 ADD MSTORE PUSH1 0x2D PUSH1 0x24 DUP3 ADD MSTORE PUSH32 0x446F6E6174696F6E2063616E6E6F742068617070656E206265666F7265207365 PUSH1 0x44 DUP3 ADD MSTORE PUSH32 0x6C656374656420706572696F6400000000000000000000000000000000000000 PUSH1 0x64 DUP3 ADD MSTORE PUSH1 0x84 ADD PUSH2 0x7A9 JUMP JUMPDEST DUP2 PUSH1 0x7 ADD SLOAD DUP2 LT PUSH2 0x2A90 JUMPI PUSH1 0x40 MLOAD PUSH3 0x461BCD PUSH1 0xE5 SHL DUP2 MSTORE PUSH1 0x20 PUSH1 0x4 DUP3 ADD MSTORE PUSH1 0x2C PUSH1 0x24 DUP3 ADD MSTORE PUSH32 0x446F6E6174696F6E2063616E6E6F742068617070656E2061667465722073656C PUSH1 0x44 DUP3 ADD MSTORE PUSH32 0x656374656420706572696F640000000000000000000000000000000000000000 PUSH1 0x64 DUP3 ADD MSTORE PUSH1 0x84 ADD PUSH2 0x7A9 JUMP JUMPDEST PUSH1 0xC DUP3 ADD SLOAD PUSH2 0x100 SWAP1 DIV PUSH1 0xFF AND PUSH2 0x2AF5 JUMPI PUSH1 0x40 MLOAD PUSH3 0x461BCD PUSH1 0xE5 SHL DUP2 MSTORE PUSH1 0x20 PUSH1 0x4 DUP3 ADD MSTORE PUSH1 0x24 DUP1 DUP3 ADD MSTORE PUSH32 0x54686520446F6E6174696F6E2050726F6A65637420686173206265656E20636C PUSH1 0x44 DUP3 ADD MSTORE PUSH4 0x1BDCD959 PUSH1 0xE2 SHL PUSH1 0x64 DUP3 ADD MSTORE PUSH1 0x84 ADD PUSH2 0x7A9 JUMP JUMPDEST POP PUSH2 0x2B7A JUMP JUMPDEST PUSH1 0xC DUP2 ADD SLOAD PUSH2 0x100 SWAP1 DIV PUSH1 0xFF AND PUSH2 0x2B7A JUMPI PUSH1 0x40 MLOAD PUSH3 0x461BCD PUSH1 0xE5 SHL DUP2 MSTORE PUSH1 0x20 PUSH1 0x4 DUP3 ADD MSTORE PUSH1 0x31 PUSH1 0x24 DUP3 ADD MSTORE PUSH32 0x54686520446F6E6174696F6E2050726F6A65637420686173206265656E20636C PUSH1 0x44 DUP3 ADD MSTORE PUSH32 0x6F73656420746F20646F6E6174696F6E73000000000000000000000000000000 PUSH1 0x64 DUP3 ADD MSTORE PUSH1 0x84 ADD PUSH2 0x7A9 JUMP JUMPDEST PUSH1 0x0 DUP4 DUP2 MSTORE PUSH1 0x7 PUSH1 0x20 SWAP1 DUP2 MSTORE PUSH1 0x40 DUP3 KECCAK256 PUSH1 0xD DUP2 ADD DUP1 SLOAD PUSH1 0x1 DUP2 ADD DUP3 SSTORE SWAP1 DUP5 MSTORE SWAP2 DUP4 KECCAK256 SWAP1 SWAP2 ADD DUP1 SLOAD PUSH1 0x1 PUSH1 0x1 PUSH1 0xA0 SHL SUB NOT AND CALLER OR SWAP1 SSTORE PUSH1 0xE DUP2 ADD DUP1 SLOAD SWAP2 SWAP3 CALLVALUE SWAP3 PUSH2 0x2BC4 SWAP1 DUP5 SWAP1 PUSH2 0x5D00 JUMP JUMPDEST SWAP1 SWAP2 SSTORE POP POP CALLER PUSH1 0x0 SWAP1 DUP2 MSTORE PUSH1 0x10 DUP3 ADD PUSH1 0x20 MSTORE PUSH1 0x40 DUP2 KECCAK256 DUP1 SLOAD CALLVALUE SWAP3 SWAP1 PUSH2 0x2BEA SWAP1 DUP5 SWAP1 PUSH2 0x5D00 JUMP JUMPDEST SWAP3 POP POP DUP2 SWAP1 SSTORE POP CALLVALUE PUSH1 0x5 PUSH1 0x0 DUP3 DUP3 SLOAD PUSH2 0x2C03 SWAP2 SWAP1 PUSH2 0x5D00 JUMP JUMPDEST SWAP1 SWAP2 SSTORE POP POP PUSH1 0x40 DUP1 MLOAD PUSH1 0x80 DUP2 ADD DUP3 MSTORE CALLER DUP1 DUP3 MSTORE PUSH1 0x20 DUP1 DUP4 ADD DUP9 DUP2 MSTORE TIMESTAMP DUP5 DUP7 ADD SWAP1 DUP2 MSTORE CALLVALUE PUSH1 0x60 DUP7 ADD DUP2 DUP2 MSTORE PUSH1 0x0 DUP7 DUP2 MSTORE PUSH1 0xB DUP7 MSTORE DUP9 DUP2 KECCAK256 DUP1 SLOAD PUSH1 0x1 DUP1 DUP3 ADD DUP4 SSTORE SWAP2 DUP4 MSTORE SWAP2 DUP8 SWAP1 KECCAK256 DUP10 MLOAD PUSH1 0x4 SWAP1 SWAP4 MUL ADD DUP1 SLOAD PUSH1 0x1 PUSH1 0x1 PUSH1 0xA0 SHL SUB NOT AND PUSH1 0x1 PUSH1 0x1 PUSH1 0xA0 SHL SUB SWAP1 SWAP4 AND SWAP3 SWAP1 SWAP3 OR DUP3 SSTORE SWAP5 MLOAD SWAP5 DUP2 ADD SWAP5 SWAP1 SWAP5 SSTORE SWAP2 MLOAD PUSH1 0x2 DUP5 ADD SSTORE SWAP1 MLOAD PUSH1 0x3 SWAP1 SWAP3 ADD SWAP2 SWAP1 SWAP2 SSTORE DUP5 MLOAD SWAP3 DUP4 MSTORE SWAP1 DUP3 ADD MSTORE SWAP1 SWAP2 DUP7 SWAP2 PUSH32 0xE555DA28BDB778F65D22794D88927EBAECA03F7DE9D1B7D39245BC8FB5CA078A SWAP2 ADD PUSH1 0x40 MLOAD DUP1 SWAP2 SUB SWAP1 LOG2 POP POP POP POP POP JUMP JUMPDEST PUSH1 0x60 PUSH1 0x0 DUP3 PUSH1 0x4 DUP2 GT ISZERO PUSH2 0x2CDE JUMPI PUSH2 0x2CDE PUSH2 0x56E1 JUMP JUMPDEST SUB PUSH2 0x2F35 JUMPI PUSH1 0x0 DUP4 DUP2 MSTORE PUSH1 0x7 PUSH1 0x20 SWAP1 DUP2 MSTORE PUSH1 0x40 DUP1 DUP4 KECCAK256 PUSH1 0x8 ADD DUP1 SLOAD DUP3 MLOAD DUP2 DUP6 MUL DUP2 ADD DUP6 ADD SWAP1 SWAP4 MSTORE DUP1 DUP4 MSTORE SWAP2 SWAP4 SWAP1 SWAP3 DUP5 ADD JUMPDEST DUP3 DUP3 LT ISZERO PUSH2 0x2F2A JUMPI DUP4 DUP3 SWAP1 PUSH1 0x0 MSTORE PUSH1 0x20 PUSH1 0x0 KECCAK256 SWAP1 PUSH1 0x4 MUL ADD PUSH1 0x40 MLOAD DUP1 PUSH1 0x80 ADD PUSH1 0x40 MSTORE SWAP1 DUP2 PUSH1 0x0 DUP3 ADD DUP1 SLOAD PUSH2 0x2D42 SWAP1 PUSH2 0x5CCC JUMP JUMPDEST DUP1 PUSH1 0x1F ADD PUSH1 0x20 DUP1 SWAP2 DIV MUL PUSH1 0x20 ADD PUSH1 0x40 MLOAD SWAP1 DUP2 ADD PUSH1 0x40 MSTORE DUP1 SWAP3 SWAP2 SWAP1 DUP2 DUP2 MSTORE PUSH1 0x20 ADD DUP3 DUP1 SLOAD PUSH2 0x2D6E SWAP1 PUSH2 0x5CCC JUMP JUMPDEST DUP1 ISZERO PUSH2 0x2DBB JUMPI DUP1 PUSH1 0x1F LT PUSH2 0x2D90 JUMPI PUSH2 0x100 DUP1 DUP4 SLOAD DIV MUL DUP4 MSTORE SWAP2 PUSH1 0x20 ADD SWAP2 PUSH2 0x2DBB JUMP JUMPDEST DUP3 ADD SWAP2 SWAP1 PUSH1 0x0 MSTORE PUSH1 0x20 PUSH1 0x0 KECCAK256 SWAP1 JUMPDEST DUP2 SLOAD DUP2 MSTORE SWAP1 PUSH1 0x1 ADD SWAP1 PUSH1 0x20 ADD DUP1 DUP4 GT PUSH2 0x2D9E JUMPI DUP3 SWAP1 SUB PUSH1 0x1F AND DUP3 ADD SWAP2 JUMPDEST POP POP POP POP POP DUP2 MSTORE PUSH1 0x20 ADD PUSH1 0x1 DUP3 ADD DUP1 SLOAD PUSH2 0x2DD4 SWAP1 PUSH2 0x5CCC JUMP JUMPDEST DUP1 PUSH1 0x1F ADD PUSH1 0x20 DUP1 SWAP2 DIV MUL PUSH1 0x20 ADD PUSH1 0x40 MLOAD SWAP1 DUP2 ADD PUSH1 0x40 MSTORE DUP1 SWAP3 SWAP2 SWAP1 DUP2 DUP2 MSTORE PUSH1 0x20 ADD DUP3 DUP1 SLOAD PUSH2 0x2E00 SWAP1 PUSH2 0x5CCC JUMP JUMPDEST DUP1 ISZERO PUSH2 0x2E4D JUMPI DUP1 PUSH1 0x1F LT PUSH2 0x2E22 JUMPI PUSH2 0x100 DUP1 DUP4 SLOAD DIV MUL DUP4 MSTORE SWAP2 PUSH1 0x20 ADD SWAP2 PUSH2 0x2E4D JUMP JUMPDEST DUP3 ADD SWAP2 SWAP1 PUSH1 0x0 MSTORE PUSH1 0x20 PUSH1 0x0 KECCAK256 SWAP1 JUMPDEST DUP2 SLOAD DUP2 MSTORE SWAP1 PUSH1 0x1 ADD SWAP1 PUSH1 0x20 ADD DUP1 DUP4 GT PUSH2 0x2E30 JUMPI DUP3 SWAP1 SUB PUSH1 0x1F AND DUP3 ADD SWAP2 JUMPDEST POP POP POP SWAP2 DUP4 MSTORE POP POP PUSH1 0x2 DUP3 ADD SLOAD PUSH1 0x20 SWAP1 SWAP2 ADD SWAP1 PUSH1 0xFF AND PUSH1 0x4 DUP2 GT ISZERO PUSH2 0x2E74 JUMPI PUSH2 0x2E74 PUSH2 0x56E1 JUMP JUMPDEST PUSH1 0x4 DUP2 GT ISZERO PUSH2 0x2E85 JUMPI PUSH2 0x2E85 PUSH2 0x56E1 JUMP JUMPDEST DUP2 MSTORE PUSH1 0x20 ADD PUSH1 0x3 DUP3 ADD DUP1 SLOAD PUSH2 0x2E99 SWAP1 PUSH2 0x5CCC JUMP JUMPDEST DUP1 PUSH1 0x1F ADD PUSH1 0x20 DUP1 SWAP2 DIV MUL PUSH1 0x20 ADD PUSH1 0x40 MLOAD SWAP1 DUP2 ADD PUSH1 0x40 MSTORE DUP1 SWAP3 SWAP2 SWAP1 DUP2 DUP2 MSTORE PUSH1 0x20 ADD DUP3 DUP1 SLOAD PUSH2 0x2EC5 SWAP1 PUSH2 0x5CCC JUMP JUMPDEST DUP1 ISZERO PUSH2 0x2F12 JUMPI DUP1 PUSH1 0x1F LT PUSH2 0x2EE7 JUMPI PUSH2 0x100 DUP1 DUP4 SLOAD DIV MUL DUP4 MSTORE SWAP2 PUSH1 0x20 ADD SWAP2 PUSH2 0x2F12 JUMP JUMPDEST DUP3 ADD SWAP2 SWAP1 PUSH1 0x0 MSTORE PUSH1 0x20 PUSH1 0x0 KECCAK256 SWAP1 JUMPDEST DUP2 SLOAD DUP2 MSTORE SWAP1 PUSH1 0x1 ADD SWAP1 PUSH1 0x20 ADD DUP1 DUP4 GT PUSH2 0x2EF5 JUMPI DUP3 SWAP1 SUB PUSH1 0x1F AND DUP3 ADD SWAP2 JUMPDEST POP POP POP POP POP DUP2 MSTORE POP POP DUP2 MSTORE PUSH1 0x20 ADD SWAP1 PUSH1 0x1 ADD SWAP1 PUSH2 0x2D0F JUMP JUMPDEST POP POP POP POP SWAP1 POP PUSH2 0x3655 JUMP JUMPDEST PUSH1 0x2 DUP3 PUSH1 0x4 DUP2 GT ISZERO PUSH2 0x2F49 JUMPI PUSH2 0x2F49 PUSH2 0x56E1 JUMP JUMPDEST SUB PUSH2 0x3195 JUMPI PUSH1 0x0 DUP4 DUP2 MSTORE PUSH1 0x7 PUSH1 0x20 SWAP1 DUP2 MSTORE PUSH1 0x40 DUP1 DUP4 KECCAK256 PUSH1 0xA ADD DUP1 SLOAD DUP3 MLOAD DUP2 DUP6 MUL DUP2 ADD DUP6 ADD SWAP1 SWAP4 MSTORE DUP1 DUP4 MSTORE SWAP2 SWAP4 SWAP1 SWAP3 DUP5 ADD JUMPDEST DUP3 DUP3 LT ISZERO PUSH2 0x2F2A JUMPI DUP4 DUP3 SWAP1 PUSH1 0x0 MSTORE PUSH1 0x20 PUSH1 0x0 KECCAK256 SWAP1 PUSH1 0x4 MUL ADD PUSH1 0x40 MLOAD DUP1 PUSH1 0x80 ADD PUSH1 0x40 MSTORE SWAP1 DUP2 PUSH1 0x0 DUP3 ADD DUP1 SLOAD PUSH2 0x2FAD SWAP1 PUSH2 0x5CCC JUMP JUMPDEST DUP1 PUSH1 0x1F ADD PUSH1 0x20 DUP1 SWAP2 DIV MUL PUSH1 0x20 ADD PUSH1 0x40 MLOAD SWAP1 DUP2 ADD PUSH1 0x40 MSTORE DUP1 SWAP3 SWAP2 SWAP1 DUP2 DUP2 MSTORE PUSH1 0x20 ADD DUP3 DUP1 SLOAD PUSH2 0x2FD9 SWAP1 PUSH2 0x5CCC JUMP JUMPDEST DUP1 ISZERO PUSH2 0x3026 JUMPI DUP1 PUSH1 0x1F LT PUSH2 0x2FFB JUMPI PUSH2 0x100 DUP1 DUP4 SLOAD DIV MUL DUP4 MSTORE SWAP2 PUSH1 0x20 ADD SWAP2 PUSH2 0x3026 JUMP JUMPDEST DUP3 ADD SWAP2 SWAP1 PUSH1 0x0 MSTORE PUSH1 0x20 PUSH1 0x0 KECCAK256 SWAP1 JUMPDEST DUP2 SLOAD DUP2 MSTORE SWAP1 PUSH1 0x1 ADD SWAP1 PUSH1 0x20 ADD DUP1 DUP4 GT PUSH2 0x3009 JUMPI DUP3 SWAP1 SUB PUSH1 0x1F AND DUP3 ADD SWAP2 JUMPDEST POP POP POP POP POP DUP2 MSTORE PUSH1 0x20 ADD PUSH1 0x1 DUP3 ADD DUP1 SLOAD PUSH2 0x303F SWAP1 PUSH2 0x5CCC JUMP JUMPDEST DUP1 PUSH1 0x1F ADD PUSH1 0x20 DUP1 SWAP2 DIV MUL PUSH1 0x20 ADD PUSH1 0x40 MLOAD SWAP1 DUP2 ADD PUSH1 0x40 MSTORE DUP1 SWAP3 SWAP2 SWAP1 DUP2 DUP2 MSTORE PUSH1 0x20 ADD DUP3 DUP1 SLOAD PUSH2 0x306B SWAP1 PUSH2 0x5CCC JUMP JUMPDEST DUP1 ISZERO PUSH2 0x30B8 JUMPI DUP1 PUSH1 0x1F LT PUSH2 0x308D JUMPI PUSH2 0x100 DUP1 DUP4 SLOAD DIV MUL DUP4 MSTORE SWAP2 PUSH1 0x20 ADD SWAP2 PUSH2 0x30B8 JUMP JUMPDEST DUP3 ADD SWAP2 SWAP1 PUSH1 0x0 MSTORE PUSH1 0x20 PUSH1 0x0 KECCAK256 SWAP1 JUMPDEST DUP2 SLOAD DUP2 MSTORE SWAP1 PUSH1 0x1 ADD SWAP1 PUSH1 0x20 ADD DUP1 DUP4 GT PUSH2 0x309B JUMPI DUP3 SWAP1 SUB PUSH1 0x1F AND DUP3 ADD SWAP2 JUMPDEST POP POP POP SWAP2 DUP4 MSTORE POP POP PUSH1 0x2 DUP3 ADD SLOAD PUSH1 0x20 SWAP1 SWAP2 ADD SWAP1 PUSH1 0xFF AND PUSH1 0x4 DUP2 GT ISZERO PUSH2 0x30DF JUMPI PUSH2 0x30DF PUSH2 0x56E1 JUMP JUMPDEST PUSH1 0x4 DUP2 GT ISZERO PUSH2 0x30F0 JUMPI PUSH2 0x30F0 PUSH2 0x56E1 JUMP JUMPDEST DUP2 MSTORE PUSH1 0x20 ADD PUSH1 0x3 DUP3 ADD DUP1 SLOAD PUSH2 0x3104 SWAP1 PUSH2 0x5CCC JUMP JUMPDEST DUP1 PUSH1 0x1F ADD PUSH1 0x20 DUP1 SWAP2 DIV MUL PUSH1 0x20 ADD PUSH1 0x40 MLOAD SWAP1 DUP2 ADD PUSH1 0x40 MSTORE DUP1 SWAP3 SWAP2 SWAP1 DUP2 DUP2 MSTORE PUSH1 0x20 ADD DUP3 DUP1 SLOAD PUSH2 0x3130 SWAP1 PUSH2 0x5CCC JUMP JUMPDEST DUP1 ISZERO PUSH2 0x317D JUMPI DUP1 PUSH1 0x1F LT PUSH2 0x3152 JUMPI PUSH2 0x100 DUP1 DUP4 SLOAD DIV MUL DUP4 MSTORE SWAP2 PUSH1 0x20 ADD SWAP2 PUSH2 0x317D JUMP JUMPDEST DUP3 ADD SWAP2 SWAP1 PUSH1 0x0 MSTORE PUSH1 0x20 PUSH1 0x0 KECCAK256 SWAP1 JUMPDEST DUP2 SLOAD DUP2 MSTORE SWAP1 PUSH1 0x1 ADD SWAP1 PUSH1 0x20 ADD DUP1 DUP4 GT PUSH2 0x3160 JUMPI DUP3 SWAP1 SUB PUSH1 0x1F AND DUP3 ADD SWAP2 JUMPDEST POP POP POP POP POP DUP2 MSTORE POP POP DUP2 MSTORE PUSH1 0x20 ADD SWAP1 PUSH1 0x1 ADD SWAP1 PUSH2 0x2F7A JUMP JUMPDEST PUSH1 0x1 DUP3 PUSH1 0x4 DUP2 GT ISZERO PUSH2 0x31A9 JUMPI PUSH2 0x31A9 PUSH2 0x56E1 JUMP JUMPDEST SUB PUSH2 0x33F5 JUMPI PUSH1 0x0 DUP4 DUP2 MSTORE PUSH1 0x7 PUSH1 0x20 SWAP1 DUP2 MSTORE PUSH1 0x40 DUP1 DUP4 KECCAK256 PUSH1 0x9 ADD DUP1 SLOAD DUP3 MLOAD DUP2 DUP6 MUL DUP2 ADD DUP6 ADD SWAP1 SWAP4 MSTORE DUP1 DUP4 MSTORE SWAP2 SWAP4 SWAP1 SWAP3 DUP5 ADD JUMPDEST DUP3 DUP3 LT ISZERO PUSH2 0x2F2A JUMPI DUP4 DUP3 SWAP1 PUSH1 0x0 MSTORE PUSH1 0x20 PUSH1 0x0 KECCAK256 SWAP1 PUSH1 0x4 MUL ADD PUSH1 0x40 MLOAD DUP1 PUSH1 0x80 ADD PUSH1 0x40 MSTORE SWAP1 DUP2 PUSH1 0x0 DUP3 ADD DUP1 SLOAD PUSH2 0x320D SWAP1 PUSH2 0x5CCC JUMP JUMPDEST DUP1 PUSH1 0x1F ADD PUSH1 0x20 DUP1 SWAP2 DIV MUL PUSH1 0x20 ADD PUSH1 0x40 MLOAD SWAP1 DUP2 ADD PUSH1 0x40 MSTORE DUP1 SWAP3 SWAP2 SWAP1 DUP2 DUP2 MSTORE PUSH1 0x20 ADD DUP3 DUP1 SLOAD PUSH2 0x3239 SWAP1 PUSH2 0x5CCC JUMP JUMPDEST DUP1 ISZERO PUSH2 0x3286 JUMPI DUP1 PUSH1 0x1F LT PUSH2 0x325B JUMPI PUSH2 0x100 DUP1 DUP4 SLOAD DIV MUL DUP4 MSTORE SWAP2 PUSH1 0x20 ADD SWAP2 PUSH2 0x3286 JUMP JUMPDEST DUP3 ADD SWAP2 SWAP1 PUSH1 0x0 MSTORE PUSH1 0x20 PUSH1 0x0 KECCAK256 SWAP1 JUMPDEST DUP2 SLOAD DUP2 MSTORE SWAP1 PUSH1 0x1 ADD SWAP1 PUSH1 0x20 ADD DUP1 DUP4 GT PUSH2 0x3269 JUMPI DUP3 SWAP1 SUB PUSH1 0x1F AND DUP3 ADD SWAP2 JUMPDEST POP POP POP POP POP DUP2 MSTORE PUSH1 0x20 ADD PUSH1 0x1 DUP3 ADD DUP1 SLOAD PUSH2 0x329F SWAP1 PUSH2 0x5CCC JUMP JUMPDEST DUP1 PUSH1 0x1F ADD PUSH1 0x20 DUP1 SWAP2 DIV MUL PUSH1 0x20 ADD PUSH1 0x40 MLOAD SWAP1 DUP2 ADD PUSH1 0x40 MSTORE DUP1 SWAP3 SWAP2 SWAP1 DUP2 DUP2 MSTORE PUSH1 0x20 ADD DUP3 DUP1 SLOAD PUSH2 0x32CB SWAP1 PUSH2 0x5CCC JUMP JUMPDEST DUP1 ISZERO PUSH2 0x3318 JUMPI DUP1 PUSH1 0x1F LT PUSH2 0x32ED JUMPI PUSH2 0x100 DUP1 DUP4 SLOAD DIV MUL DUP4 MSTORE SWAP2 PUSH1 0x20 ADD SWAP2 PUSH2 0x3318 JUMP JUMPDEST DUP3 ADD SWAP2 SWAP1 PUSH1 0x0 MSTORE PUSH1 0x20 PUSH1 0x0 KECCAK256 SWAP1 JUMPDEST DUP2 SLOAD DUP2 MSTORE SWAP1 PUSH1 0x1 ADD SWAP1 PUSH1 0x20 ADD DUP1 DUP4 GT PUSH2 0x32FB JUMPI DUP3 SWAP1 SUB PUSH1 0x1F AND DUP3 ADD SWAP2 JUMPDEST POP POP POP SWAP2 DUP4 MSTORE POP POP PUSH1 0x2 DUP3 ADD SLOAD PUSH1 0x20 SWAP1 SWAP2 ADD SWAP1 PUSH1 0xFF AND PUSH1 0x4 DUP2 GT ISZERO PUSH2 0x333F JUMPI PUSH2 0x333F PUSH2 0x56E1 JUMP JUMPDEST PUSH1 0x4 DUP2 GT ISZERO PUSH2 0x3350 JUMPI PUSH2 0x3350 PUSH2 0x56E1 JUMP JUMPDEST DUP2 MSTORE PUSH1 0x20 ADD PUSH1 0x3 DUP3 ADD DUP1 SLOAD PUSH2 0x3364 SWAP1 PUSH2 0x5CCC JUMP JUMPDEST DUP1 PUSH1 0x1F ADD PUSH1 0x20 DUP1 SWAP2 DIV MUL PUSH1 0x20 ADD PUSH1 0x40 MLOAD SWAP1 DUP2 ADD PUSH1 0x40 MSTORE DUP1 SWAP3 SWAP2 SWAP1 DUP2 DUP2 MSTORE PUSH1 0x20 ADD DUP3 DUP1 SLOAD PUSH2 0x3390 SWAP1 PUSH2 0x5CCC JUMP JUMPDEST DUP1 ISZERO PUSH2 0x33DD JUMPI DUP1 PUSH1 0x1F LT PUSH2 0x33B2 JUMPI PUSH2 0x100 DUP1 DUP4 SLOAD DIV MUL DUP4 MSTORE SWAP2 PUSH1 0x20 ADD SWAP2 PUSH2 0x33DD JUMP JUMPDEST DUP3 ADD SWAP2 SWAP1 PUSH1 0x0 MSTORE PUSH1 0x20 PUSH1 0x0 KECCAK256 SWAP1 JUMPDEST DUP2 SLOAD DUP2 MSTORE SWAP1 PUSH1 0x1 ADD SWAP1 PUSH1 0x20 ADD DUP1 DUP4 GT PUSH2 0x33C0 JUMPI DUP3 SWAP1 SUB PUSH1 0x1F AND DUP3 ADD SWAP2 JUMPDEST POP POP POP POP POP DUP2 MSTORE POP POP DUP2 MSTORE PUSH1 0x20 ADD SWAP1 PUSH1 0x1 ADD SWAP1 PUSH2 0x31DA JUMP JUMPDEST PUSH1 0x3 DUP3 PUSH1 0x4 DUP2 GT ISZERO PUSH2 0x3409 JUMPI PUSH2 0x3409 PUSH2 0x56E1 JUMP JUMPDEST SUB PUSH2 0x9CA JUMPI PUSH1 0x0 DUP4 DUP2 MSTORE PUSH1 0x7 PUSH1 0x20 SWAP1 DUP2 MSTORE PUSH1 0x40 DUP1 DUP4 KECCAK256 PUSH1 0xB ADD DUP1 SLOAD DUP3 MLOAD DUP2 DUP6 MUL DUP2 ADD DUP6 ADD SWAP1 SWAP4 MSTORE DUP1 DUP4 MSTORE SWAP2 SWAP4 SWAP1 SWAP3 DUP5 ADD JUMPDEST DUP3 DUP3 LT ISZERO PUSH2 0x2F2A JUMPI DUP4 DUP3 SWAP1 PUSH1 0x0 MSTORE PUSH1 0x20 PUSH1 0x0 KECCAK256 SWAP1 PUSH1 0x4 MUL ADD PUSH1 0x40 MLOAD DUP1 PUSH1 0x80 ADD PUSH1 0x40 MSTORE SWAP1 DUP2 PUSH1 0x0 DUP3 ADD DUP1 SLOAD PUSH2 0x346D SWAP1 PUSH2 0x5CCC JUMP JUMPDEST DUP1 PUSH1 0x1F ADD PUSH1 0x20 DUP1 SWAP2 DIV MUL PUSH1 0x20 ADD PUSH1 0x40 MLOAD SWAP1 DUP2 ADD PUSH1 0x40 MSTORE DUP1 SWAP3 SWAP2 SWAP1 DUP2 DUP2 MSTORE PUSH1 0x20 ADD DUP3 DUP1 SLOAD PUSH2 0x3499 SWAP1 PUSH2 0x5CCC JUMP JUMPDEST DUP1 ISZERO PUSH2 0x34E6 JUMPI DUP1 PUSH1 0x1F LT PUSH2 0x34BB JUMPI PUSH2 0x100 DUP1 DUP4 SLOAD DIV MUL DUP4 MSTORE SWAP2 PUSH1 0x20 ADD SWAP2 PUSH2 0x34E6 JUMP JUMPDEST DUP3 ADD SWAP2 SWAP1 PUSH1 0x0 MSTORE PUSH1 0x20 PUSH1 0x0 KECCAK256 SWAP1 JUMPDEST DUP2 SLOAD DUP2 MSTORE SWAP1 PUSH1 0x1 ADD SWAP1 PUSH1 0x20 ADD DUP1 DUP4 GT PUSH2 0x34C9 JUMPI DUP3 SWAP1 SUB PUSH1 0x1F AND DUP3 ADD SWAP2 JUMPDEST POP POP POP POP POP DUP2 MSTORE PUSH1 0x20 ADD PUSH1 0x1 DUP3 ADD DUP1 SLOAD PUSH2 0x34FF SWAP1 PUSH2 0x5CCC JUMP JUMPDEST DUP1 PUSH1 0x1F ADD PUSH1 0x20 DUP1 SWAP2 DIV MUL PUSH1 0x20 ADD PUSH1 0x40 MLOAD SWAP1 DUP2 ADD PUSH1 0x40 MSTORE DUP1 SWAP3 SWAP2 SWAP1 DUP2 DUP2 MSTORE PUSH1 0x20 ADD DUP3 DUP1 SLOAD PUSH2 0x352B SWAP1 PUSH2 0x5CCC JUMP JUMPDEST DUP1 ISZERO PUSH2 0x3578 JUMPI DUP1 PUSH1 0x1F LT PUSH2 0x354D JUMPI PUSH2 0x100 DUP1 DUP4 SLOAD DIV MUL DUP4 MSTORE SWAP2 PUSH1 0x20 ADD SWAP2 PUSH2 0x3578 JUMP JUMPDEST DUP3 ADD SWAP2 SWAP1 PUSH1 0x0 MSTORE PUSH1 0x20 PUSH1 0x0 KECCAK256 SWAP1 JUMPDEST DUP2 SLOAD DUP2 MSTORE SWAP1 PUSH1 0x1 ADD SWAP1 PUSH1 0x20 ADD DUP1 DUP4 GT PUSH2 0x355B JUMPI DUP3 SWAP1 SUB PUSH1 0x1F AND DUP3 ADD SWAP2 JUMPDEST POP POP POP SWAP2 DUP4 MSTORE POP POP PUSH1 0x2 DUP3 ADD SLOAD PUSH1 0x20 SWAP1 SWAP2 ADD SWAP1 PUSH1 0xFF AND PUSH1 0x4 DUP2 GT ISZERO PUSH2 0x359F JUMPI PUSH2 0x359F PUSH2 0x56E1 JUMP JUMPDEST PUSH1 0x4 DUP2 GT ISZERO PUSH2 0x35B0 JUMPI PUSH2 0x35B0 PUSH2 0x56E1 JUMP JUMPDEST DUP2 MSTORE PUSH1 0x20 ADD PUSH1 0x3 DUP3 ADD DUP1 SLOAD PUSH2 0x35C4 SWAP1 PUSH2 0x5CCC JUMP JUMPDEST DUP1 PUSH1 0x1F ADD PUSH1 0x20 DUP1 SWAP2 DIV MUL PUSH1 0x20 ADD PUSH1 0x40 MLOAD SWAP1 DUP2 ADD PUSH1 0x40 MSTORE DUP1 SWAP3 SWAP2 SWAP1 DUP2 DUP2 MSTORE PUSH1 0x20 ADD DUP3 DUP1 SLOAD PUSH2 0x35F0 SWAP1 PUSH2 0x5CCC JUMP JUMPDEST DUP1 ISZERO PUSH2 0x363D JUMPI DUP1 PUSH1 0x1F LT PUSH2 0x3612 JUMPI PUSH2 0x100 DUP1 DUP4 SLOAD DIV MUL DUP4 MSTORE SWAP2 PUSH1 0x20 ADD SWAP2 PUSH2 0x363D JUMP JUMPDEST DUP3 ADD SWAP2 SWAP1 PUSH1 0x0 MSTORE PUSH1 0x20 PUSH1 0x0 KECCAK256 SWAP1 JUMPDEST DUP2 SLOAD DUP2 MSTORE SWAP1 PUSH1 0x1 ADD SWAP1 PUSH1 0x20 ADD DUP1 DUP4 GT PUSH2 0x3620 JUMPI DUP3 SWAP1 SUB PUSH1 0x1F AND DUP3 ADD SWAP2 JUMPDEST POP POP POP POP POP DUP2 MSTORE POP POP DUP2 MSTORE PUSH1 0x20 ADD SWAP1 PUSH1 0x1 ADD SWAP1 PUSH2 0x343A JUMP JUMPDEST SWAP3 SWAP2 POP POP JUMP JUMPDEST PUSH1 0x9 PUSH1 0x20 MSTORE DUP2 PUSH1 0x0 MSTORE PUSH1 0x40 PUSH1 0x0 KECCAK256 DUP2 DUP2 SLOAD DUP2 LT PUSH2 0x3677 JUMPI PUSH1 0x0 DUP1 REVERT JUMPDEST SWAP1 PUSH1 0x0 MSTORE PUSH1 0x20 PUSH1 0x0 KECCAK256 ADD PUSH1 0x0 SWAP2 POP SWAP2 POP POP SLOAD DUP2 JUMP JUMPDEST PUSH1 0x60 PUSH1 0x0 DUP3 PUSH1 0x4 DUP2 GT ISZERO PUSH2 0x36A2 JUMPI PUSH2 0x36A2 PUSH2 0x56E1 JUMP JUMPDEST SUB PUSH2 0x3901 JUMPI PUSH1 0x0 DUP5 DUP2 MSTORE PUSH1 0x8 PUSH1 0x20 SWAP1 DUP2 MSTORE PUSH1 0x40 DUP1 DUP4 KECCAK256 DUP7 DUP5 MSTORE DUP3 MSTORE DUP1 DUP4 KECCAK256 PUSH1 0x4 ADD DUP1 SLOAD DUP3 MLOAD DUP2 DUP6 MUL DUP2 ADD DUP6 ADD SWAP1 SWAP4 MSTORE DUP1 DUP4 MSTORE SWAP2 SWAP4 SWAP1 SWAP3 DUP5 ADD JUMPDEST DUP3 DUP3 LT ISZERO PUSH2 0x38F6 JUMPI DUP4 DUP3 SWAP1 PUSH1 0x0 MSTORE PUSH1 0x20 PUSH1 0x0 KECCAK256 SWAP1 PUSH1 0x4 MUL ADD PUSH1 0x40 MLOAD DUP1 PUSH1 0x80 ADD PUSH1 0x40 MSTORE SWAP1 DUP2 PUSH1 0x0 DUP3 ADD DUP1 SLOAD PUSH2 0x370E SWAP1 PUSH2 0x5CCC JUMP JUMPDEST DUP1 PUSH1 0x1F ADD PUSH1 0x20 DUP1 SWAP2 DIV MUL PUSH1 0x20 ADD PUSH1 0x40 MLOAD SWAP1 DUP2 ADD PUSH1 0x40 MSTORE DUP1 SWAP3 SWAP2 SWAP1 DUP2 DUP2 MSTORE PUSH1 0x20 ADD DUP3 DUP1 SLOAD PUSH2 0x373A SWAP1 PUSH2 0x5CCC JUMP JUMPDEST DUP1 ISZERO PUSH2 0x3787 JUMPI DUP1 PUSH1 0x1F LT PUSH2 0x375C JUMPI PUSH2 0x100 DUP1 DUP4 SLOAD DIV MUL DUP4 MSTORE SWAP2 PUSH1 0x20 ADD SWAP2 PUSH2 0x3787 JUMP JUMPDEST DUP3 ADD SWAP2 SWAP1 PUSH1 0x0 MSTORE PUSH1 0x20 PUSH1 0x0 KECCAK256 SWAP1 JUMPDEST DUP2 SLOAD DUP2 MSTORE SWAP1 PUSH1 0x1 ADD SWAP1 PUSH1 0x20 ADD DUP1 DUP4 GT PUSH2 0x376A JUMPI DUP3 SWAP1 SUB PUSH1 0x1F AND DUP3 ADD SWAP2 JUMPDEST POP POP POP POP POP DUP2 MSTORE PUSH1 0x20 ADD PUSH1 0x1 DUP3 ADD DUP1 SLOAD PUSH2 0x37A0 SWAP1 PUSH2 0x5CCC JUMP JUMPDEST DUP1 PUSH1 0x1F ADD PUSH1 0x20 DUP1 SWAP2 DIV MUL PUSH1 0x20 ADD PUSH1 0x40 MLOAD SWAP1 DUP2 ADD PUSH1 0x40 MSTORE DUP1 SWAP3 SWAP2 SWAP1 DUP2 DUP2 MSTORE PUSH1 0x20 ADD DUP3 DUP1 SLOAD PUSH2 0x37CC SWAP1 PUSH2 0x5CCC JUMP JUMPDEST DUP1 ISZERO PUSH2 0x3819 JUMPI DUP1 PUSH1 0x1F LT PUSH2 0x37EE JUMPI PUSH2 0x100 DUP1 DUP4 SLOAD DIV MUL DUP4 MSTORE SWAP2 PUSH1 0x20 ADD SWAP2 PUSH2 0x3819 JUMP JUMPDEST DUP3 ADD SWAP2 SWAP1 PUSH1 0x0 MSTORE PUSH1 0x20 PUSH1 0x0 KECCAK256 SWAP1 JUMPDEST DUP2 SLOAD DUP2 MSTORE SWAP1 PUSH1 0x1 ADD SWAP1 PUSH1 0x20 ADD DUP1 DUP4 GT PUSH2 0x37FC JUMPI DUP3 SWAP1 SUB PUSH1 0x1F AND DUP3 ADD SWAP2 JUMPDEST POP POP POP SWAP2 DUP4 MSTORE POP POP PUSH1 0x2 DUP3 ADD SLOAD PUSH1 0x20 SWAP1 SWAP2 ADD SWAP1 PUSH1 0xFF AND PUSH1 0x4 DUP2 GT ISZERO PUSH2 0x3840 JUMPI PUSH2 0x3840 PUSH2 0x56E1 JUMP JUMPDEST PUSH1 0x4 DUP2 GT ISZERO PUSH2 0x3851 JUMPI PUSH2 0x3851 PUSH2 0x56E1 JUMP JUMPDEST DUP2 MSTORE PUSH1 0x20 ADD PUSH1 0x3 DUP3 ADD DUP1 SLOAD PUSH2 0x3865 SWAP1 PUSH2 0x5CCC JUMP JUMPDEST DUP1 PUSH1 0x1F ADD PUSH1 0x20 DUP1 SWAP2 DIV MUL PUSH1 0x20 ADD PUSH1 0x40 MLOAD SWAP1 DUP2 ADD PUSH1 0x40 MSTORE DUP1 SWAP3 SWAP2 SWAP1 DUP2 DUP2 MSTORE PUSH1 0x20 ADD DUP3 DUP1 SLOAD PUSH2 0x3891 SWAP1 PUSH2 0x5CCC JUMP JUMPDEST DUP1 ISZERO PUSH2 0x38DE JUMPI DUP1 PUSH1 0x1F LT PUSH2 0x38B3 JUMPI PUSH2 0x100 DUP1 DUP4 SLOAD DIV MUL DUP4 MSTORE SWAP2 PUSH1 0x20 ADD SWAP2 PUSH2 0x38DE JUMP JUMPDEST DUP3 ADD SWAP2 SWAP1 PUSH1 0x0 MSTORE PUSH1 0x20 PUSH1 0x0 KECCAK256 SWAP1 JUMPDEST DUP2 SLOAD DUP2 MSTORE SWAP1 PUSH1 0x1 ADD SWAP1 PUSH1 0x20 ADD DUP1 DUP4 GT PUSH2 0x38C1 JUMPI DUP3 SWAP1 SUB PUSH1 0x1F AND DUP3 ADD SWAP2 JUMPDEST POP POP POP POP POP DUP2 MSTORE POP POP DUP2 MSTORE PUSH1 0x20 ADD SWAP1 PUSH1 0x1 ADD SWAP1 PUSH2 0x36DB JUMP JUMPDEST POP POP POP POP SWAP1 POP PUSH2 0x4039 JUMP JUMPDEST PUSH1 0x2 DUP3 PUSH1 0x4 DUP2 GT ISZERO PUSH2 0x3915 JUMPI PUSH2 0x3915 PUSH2 0x56E1 JUMP JUMPDEST SUB PUSH2 0x3B69 JUMPI PUSH1 0x0 DUP5 DUP2 MSTORE PUSH1 0x8 PUSH1 0x20 SWAP1 DUP2 MSTORE PUSH1 0x40 DUP1 DUP4 KECCAK256 DUP7 DUP5 MSTORE DUP3 MSTORE DUP1 DUP4 KECCAK256 PUSH1 0x6 ADD DUP1 SLOAD DUP3 MLOAD DUP2 DUP6 MUL DUP2 ADD DUP6 ADD SWAP1 SWAP4 MSTORE DUP1 DUP4 MSTORE SWAP2 SWAP4 SWAP1 SWAP3 DUP5 ADD JUMPDEST DUP3 DUP3 LT ISZERO PUSH2 0x38F6 JUMPI DUP4 DUP3 SWAP1 PUSH1 0x0 MSTORE PUSH1 0x20 PUSH1 0x0 KECCAK256 SWAP1 PUSH1 0x4 MUL ADD PUSH1 0x40 MLOAD DUP1 PUSH1 0x80 ADD PUSH1 0x40 MSTORE SWAP1 DUP2 PUSH1 0x0 DUP3 ADD DUP1 SLOAD PUSH2 0x3981 SWAP1 PUSH2 0x5CCC JUMP JUMPDEST DUP1 PUSH1 0x1F ADD PUSH1 0x20 DUP1 SWAP2 DIV MUL PUSH1 0x20 ADD PUSH1 0x40 MLOAD SWAP1 DUP2 ADD PUSH1 0x40 MSTORE DUP1 SWAP3 SWAP2 SWAP1 DUP2 DUP2 MSTORE PUSH1 0x20 ADD DUP3 DUP1 SLOAD PUSH2 0x39AD SWAP1 PUSH2 0x5CCC JUMP JUMPDEST DUP1 ISZERO PUSH2 0x39FA JUMPI DUP1 PUSH1 0x1F LT PUSH2 0x39CF JUMPI PUSH2 0x100 DUP1 DUP4 SLOAD DIV MUL DUP4 MSTORE SWAP2 PUSH1 0x20 ADD SWAP2 PUSH2 0x39FA JUMP JUMPDEST DUP3 ADD SWAP2 SWAP1 PUSH1 0x0 MSTORE PUSH1 0x20 PUSH1 0x0 KECCAK256 SWAP1 JUMPDEST DUP2 SLOAD DUP2 MSTORE SWAP1 PUSH1 0x1 ADD SWAP1 PUSH1 0x20 ADD DUP1 DUP4 GT PUSH2 0x39DD JUMPI DUP3 SWAP1 SUB PUSH1 0x1F AND DUP3 ADD SWAP2 JUMPDEST POP POP POP POP POP DUP2 MSTORE PUSH1 0x20 ADD PUSH1 0x1 DUP3 ADD DUP1 SLOAD PUSH2 0x3A13 SWAP1 PUSH2 0x5CCC JUMP JUMPDEST DUP1 PUSH1 0x1F ADD PUSH1 0x20 DUP1 SWAP2 DIV MUL PUSH1 0x20 ADD PUSH1 0x40 MLOAD SWAP1 DUP2 ADD PUSH1 0x40 MSTORE DUP1 SWAP3 SWAP2 SWAP1 DUP2 DUP2 MSTORE PUSH1 0x20 ADD DUP3 DUP1 SLOAD PUSH2 0x3A3F SWAP1 PUSH2 0x5CCC JUMP JUMPDEST DUP1 ISZERO PUSH2 0x3A8C JUMPI DUP1 PUSH1 0x1F LT PUSH2 0x3A61 JUMPI PUSH2 0x100 DUP1 DUP4 SLOAD DIV MUL DUP4 MSTORE SWAP2 PUSH1 0x20 ADD SWAP2 PUSH2 0x3A8C JUMP JUMPDEST DUP3 ADD SWAP2 SWAP1 PUSH1 0x0 MSTORE PUSH1 0x20 PUSH1 0x0 KECCAK256 SWAP1 JUMPDEST DUP2 SLOAD DUP2 MSTORE SWAP1 PUSH1 0x1 ADD SWAP1 PUSH1 0x20 ADD DUP1 DUP4 GT PUSH2 0x3A6F JUMPI DUP3 SWAP1 SUB PUSH1 0x1F AND DUP3 ADD SWAP2 JUMPDEST POP POP POP SWAP2 DUP4 MSTORE POP POP PUSH1 0x2 DUP3 ADD SLOAD PUSH1 0x20 SWAP1 SWAP2 ADD SWAP1 PUSH1 0xFF AND PUSH1 0x4 DUP2 GT ISZERO PUSH2 0x3AB3 JUMPI PUSH2 0x3AB3 PUSH2 0x56E1 JUMP JUMPDEST PUSH1 0x4 DUP2 GT ISZERO PUSH2 0x3AC4 JUMPI PUSH2 0x3AC4 PUSH2 0x56E1 JUMP JUMPDEST DUP2 MSTORE PUSH1 0x20 ADD PUSH1 0x3 DUP3 ADD DUP1 SLOAD PUSH2 0x3AD8 SWAP1 PUSH2 0x5CCC JUMP JUMPDEST DUP1 PUSH1 0x1F ADD PUSH1 0x20 DUP1 SWAP2 DIV MUL PUSH1 0x20 ADD PUSH1 0x40 MLOAD SWAP1 DUP2 ADD PUSH1 0x40 MSTORE DUP1 SWAP3 SWAP2 SWAP1 DUP2 DUP2 MSTORE PUSH1 0x20 ADD DUP3 DUP1 SLOAD PUSH2 0x3B04 SWAP1 PUSH2 0x5CCC JUMP JUMPDEST DUP1 ISZERO PUSH2 0x3B51 JUMPI DUP1 PUSH1 0x1F LT PUSH2 0x3B26 JUMPI PUSH2 0x100 DUP1 DUP4 SLOAD DIV MUL DUP4 MSTORE SWAP2 PUSH1 0x20 ADD SWAP2 PUSH2 0x3B51 JUMP JUMPDEST DUP3 ADD SWAP2 SWAP1 PUSH1 0x0 MSTORE PUSH1 0x20 PUSH1 0x0 KECCAK256 SWAP1 JUMPDEST DUP2 SLOAD DUP2 MSTORE SWAP1 PUSH1 0x1 ADD SWAP1 PUSH1 0x20 ADD DUP1 DUP4 GT PUSH2 0x3B34 JUMPI DUP3 SWAP1 SUB PUSH1 0x1F AND DUP3 ADD SWAP2 JUMPDEST POP POP POP POP POP DUP2 MSTORE POP POP DUP2 MSTORE PUSH1 0x20 ADD SWAP1 PUSH1 0x1 ADD SWAP1 PUSH2 0x394E JUMP JUMPDEST PUSH1 0x1 DUP3 PUSH1 0x4 DUP2 GT ISZERO PUSH2 0x3B7D JUMPI PUSH2 0x3B7D PUSH2 0x56E1 JUMP JUMPDEST SUB PUSH2 0x3DD1 JUMPI PUSH1 0x0 DUP5 DUP2 MSTORE PUSH1 0x8 PUSH1 0x20 SWAP1 DUP2 MSTORE PUSH1 0x40 DUP1 DUP4 KECCAK256 DUP7 DUP5 MSTORE DUP3 MSTORE DUP1 DUP4 KECCAK256 PUSH1 0x5 ADD DUP1 SLOAD DUP3 MLOAD DUP2 DUP6 MUL DUP2 ADD DUP6 ADD SWAP1 SWAP4 MSTORE DUP1 DUP4 MSTORE SWAP2 SWAP4 SWAP1 SWAP3 DUP5 ADD JUMPDEST DUP3 DUP3 LT ISZERO PUSH2 0x38F6 JUMPI DUP4 DUP3 SWAP1 PUSH1 0x0 MSTORE PUSH1 0x20 PUSH1 0x0 KECCAK256 SWAP1 PUSH1 0x4 MUL ADD PUSH1 0x40 MLOAD DUP1 PUSH1 0x80 ADD PUSH1 0x40 MSTORE SWAP1 DUP2 PUSH1 0x0 DUP3 ADD DUP1 SLOAD PUSH2 0x3BE9 SWAP1 PUSH2 0x5CCC JUMP JUMPDEST DUP1 PUSH1 0x1F ADD PUSH1 0x20 DUP1 SWAP2 DIV MUL PUSH1 0x20 ADD PUSH1 0x40 MLOAD SWAP1 DUP2 ADD PUSH1 0x40 MSTORE DUP1 SWAP3 SWAP2 SWAP1 DUP2 DUP2 MSTORE PUSH1 0x20 ADD DUP3 DUP1 SLOAD PUSH2 0x3C15 SWAP1 PUSH2 0x5CCC JUMP JUMPDEST DUP1 ISZERO PUSH2 0x3C62 JUMPI DUP1 PUSH1 0x1F LT PUSH2 0x3C37 JUMPI PUSH2 0x100 DUP1 DUP4 SLOAD DIV MUL DUP4 MSTORE SWAP2 PUSH1 0x20 ADD SWAP2 PUSH2 0x3C62 JUMP JUMPDEST DUP3 ADD SWAP2 SWAP1 PUSH1 0x0 MSTORE PUSH1 0x20 PUSH1 0x0 KECCAK256 SWAP1 JUMPDEST DUP2 SLOAD DUP2 MSTORE SWAP1 PUSH1 0x1 ADD SWAP1 PUSH1 0x20 ADD DUP1 DUP4 GT PUSH2 0x3C45 JUMPI DUP3 SWAP1 SUB PUSH1 0x1F AND DUP3 ADD SWAP2 JUMPDEST POP POP POP POP POP DUP2 MSTORE PUSH1 0x20 ADD PUSH1 0x1 DUP3 ADD DUP1 SLOAD PUSH2 0x3C7B SWAP1 PUSH2 0x5CCC JUMP JUMPDEST DUP1 PUSH1 0x1F ADD PUSH1 0x20 DUP1 SWAP2 DIV MUL PUSH1 0x20 ADD PUSH1 0x40 MLOAD SWAP1 DUP2 ADD PUSH1 0x40 MSTORE DUP1 SWAP3 SWAP2 SWAP1 DUP2 DUP2 MSTORE PUSH1 0x20 ADD DUP3 DUP1 SLOAD PUSH2 0x3CA7 SWAP1 PUSH2 0x5CCC JUMP JUMPDEST DUP1 ISZERO PUSH2 0x3CF4 JUMPI DUP1 PUSH1 0x1F LT PUSH2 0x3CC9 JUMPI PUSH2 0x100 DUP1 DUP4 SLOAD DIV MUL DUP4 MSTORE SWAP2 PUSH1 0x20 ADD SWAP2 PUSH2 0x3CF4 JUMP JUMPDEST DUP3 ADD SWAP2 SWAP1 PUSH1 0x0 MSTORE PUSH1 0x20 PUSH1 0x0 KECCAK256 SWAP1 JUMPDEST DUP2 SLOAD DUP2 MSTORE SWAP1 PUSH1 0x1 ADD SWAP1 PUSH1 0x20 ADD DUP1 DUP4 GT PUSH2 0x3CD7 JUMPI DUP3 SWAP1 SUB PUSH1 0x1F AND DUP3 ADD SWAP2 JUMPDEST POP POP POP SWAP2 DUP4 MSTORE POP POP PUSH1 0x2 DUP3 ADD SLOAD PUSH1 0x20 SWAP1 SWAP2 ADD SWAP1 PUSH1 0xFF AND PUSH1 0x4 DUP2 GT ISZERO PUSH2 0x3D1B JUMPI PUSH2 0x3D1B PUSH2 0x56E1 JUMP JUMPDEST PUSH1 0x4 DUP2 GT ISZERO PUSH2 0x3D2C JUMPI PUSH2 0x3D2C PUSH2 0x56E1 JUMP JUMPDEST DUP2 MSTORE PUSH1 0x20 ADD PUSH1 0x3 DUP3 ADD DUP1 SLOAD PUSH2 0x3D40 SWAP1 PUSH2 0x5CCC JUMP JUMPDEST DUP1 PUSH1 0x1F ADD PUSH1 0x20 DUP1 SWAP2 DIV MUL PUSH1 0x20 ADD PUSH1 0x40 MLOAD SWAP1 DUP2 ADD PUSH1 0x40 MSTORE DUP1 SWAP3 SWAP2 SWAP1 DUP2 DUP2 MSTORE PUSH1 0x20 ADD DUP3 DUP1 SLOAD PUSH2 0x3D6C SWAP1 PUSH2 0x5CCC JUMP JUMPDEST DUP1 ISZERO PUSH2 0x3DB9 JUMPI DUP1 PUSH1 0x1F LT PUSH2 0x3D8E JUMPI PUSH2 0x100 DUP1 DUP4 SLOAD DIV MUL DUP4 MSTORE SWAP2 PUSH1 0x20 ADD SWAP2 PUSH2 0x3DB9 JUMP JUMPDEST DUP3 ADD SWAP2 SWAP1 PUSH1 0x0 MSTORE PUSH1 0x20 PUSH1 0x0 KECCAK256 SWAP1 JUMPDEST DUP2 SLOAD DUP2 MSTORE SWAP1 PUSH1 0x1 ADD SWAP1 PUSH1 0x20 ADD DUP1 DUP4 GT PUSH2 0x3D9C JUMPI DUP3 SWAP1 SUB PUSH1 0x1F AND DUP3 ADD SWAP2 JUMPDEST POP POP POP POP POP DUP2 MSTORE POP POP DUP2 MSTORE PUSH1 0x20 ADD SWAP1 PUSH1 0x1 ADD SWAP1 PUSH2 0x3BB6 JUMP JUMPDEST PUSH1 0x3 DUP3 PUSH1 0x4 DUP2 GT ISZERO PUSH2 0x3DE5 JUMPI PUSH2 0x3DE5 PUSH2 0x56E1 JUMP JUMPDEST SUB PUSH2 0x9CA JUMPI PUSH1 0x0 DUP5 DUP2 MSTORE PUSH1 0x8 PUSH1 0x20 SWAP1 DUP2 MSTORE PUSH1 0x40 DUP1 DUP4 KECCAK256 DUP7 DUP5 MSTORE DUP3 MSTORE DUP1 DUP4 KECCAK256 PUSH1 0x7 ADD DUP1 SLOAD DUP3 MLOAD DUP2 DUP6 MUL DUP2 ADD DUP6 ADD SWAP1 SWAP4 MSTORE DUP1 DUP4 MSTORE SWAP2 SWAP4 SWAP1 SWAP3 DUP5 ADD JUMPDEST DUP3 DUP3 LT ISZERO PUSH2 0x38F6 JUMPI DUP4 DUP3 SWAP1 PUSH1 0x0 MSTORE PUSH1 0x20 PUSH1 0x0 KECCAK256 SWAP1 PUSH1 0x4 MUL ADD PUSH1 0x40 MLOAD DUP1 PUSH1 0x80 ADD PUSH1 0x40 MSTORE SWAP1 DUP2 PUSH1 0x0 DUP3 ADD DUP1 SLOAD PUSH2 0x3E51 SWAP1 PUSH2 0x5CCC JUMP JUMPDEST DUP1 PUSH1 0x1F ADD PUSH1 0x20 DUP1 SWAP2 DIV MUL PUSH1 0x20 ADD PUSH1 0x40 MLOAD SWAP1 DUP2 ADD PUSH1 0x40 MSTORE DUP1 SWAP3 SWAP2 SWAP1 DUP2 DUP2 MSTORE PUSH1 0x20 ADD DUP3 DUP1 SLOAD PUSH2 0x3E7D SWAP1 PUSH2 0x5CCC JUMP JUMPDEST DUP1 ISZERO PUSH2 0x3ECA JUMPI DUP1 PUSH1 0x1F LT PUSH2 0x3E9F JUMPI PUSH2 0x100 DUP1 DUP4 SLOAD DIV MUL DUP4 MSTORE SWAP2 PUSH1 0x20 ADD SWAP2 PUSH2 0x3ECA JUMP JUMPDEST DUP3 ADD SWAP2 SWAP1 PUSH1 0x0 MSTORE PUSH1 0x20 PUSH1 0x0 KECCAK256 SWAP1 JUMPDEST DUP2 SLOAD DUP2 MSTORE SWAP1 PUSH1 0x1 ADD SWAP1 PUSH1 0x20 ADD DUP1 DUP4 GT PUSH2 0x3EAD JUMPI DUP3 SWAP1 SUB PUSH1 0x1F AND DUP3 ADD SWAP2 JUMPDEST POP POP POP POP POP DUP2 MSTORE PUSH1 0x20 ADD PUSH1 0x1 DUP3 ADD DUP1 SLOAD PUSH2 0x3EE3 SWAP1 PUSH2 0x5CCC JUMP JUMPDEST DUP1 PUSH1 0x1F ADD PUSH1 0x20 DUP1 SWAP2 DIV MUL PUSH1 0x20 ADD PUSH1 0x40 MLOAD SWAP1 DUP2 ADD PUSH1 0x40 MSTORE DUP1 SWAP3 SWAP2 SWAP1 DUP2 DUP2 MSTORE PUSH1 0x20 ADD DUP3 DUP1 SLOAD PUSH2 0x3F0F SWAP1 PUSH2 0x5CCC JUMP JUMPDEST DUP1 ISZERO PUSH2 0x3F5C JUMPI DUP1 PUSH1 0x1F LT PUSH2 0x3F31 JUMPI PUSH2 0x100 DUP1 DUP4 SLOAD DIV MUL DUP4 MSTORE SWAP2 PUSH1 0x20 ADD SWAP2 PUSH2 0x3F5C JUMP JUMPDEST DUP3 ADD SWAP2 SWAP1 PUSH1 0x0 MSTORE PUSH1 0x20 PUSH1 0x0 KECCAK256 SWAP1 JUMPDEST DUP2 SLOAD DUP2 MSTORE SWAP1 PUSH1 0x1 ADD SWAP1 PUSH1 0x20 ADD DUP1 DUP4 GT PUSH2 0x3F3F JUMPI DUP3 SWAP1 SUB PUSH1 0x1F AND DUP3 ADD SWAP2 JUMPDEST POP POP POP SWAP2 DUP4 MSTORE POP POP PUSH1 0x2 DUP3 ADD SLOAD PUSH1 0x20 SWAP1 SWAP2 ADD SWAP1 PUSH1 0xFF AND PUSH1 0x4 DUP2 GT ISZERO PUSH2 0x3F83 JUMPI PUSH2 0x3F83 PUSH2 0x56E1 JUMP JUMPDEST PUSH1 0x4 DUP2 GT ISZERO PUSH2 0x3F94 JUMPI PUSH2 0x3F94 PUSH2 0x56E1 JUMP JUMPDEST DUP2 MSTORE PUSH1 0x20 ADD PUSH1 0x3 DUP3 ADD DUP1 SLOAD PUSH2 0x3FA8 SWAP1 PUSH2 0x5CCC JUMP JUMPDEST DUP1 PUSH1 0x1F ADD PUSH1 0x20 DUP1 SWAP2 DIV MUL PUSH1 0x20 ADD PUSH1 0x40 MLOAD SWAP1 DUP2 ADD PUSH1 0x40 MSTORE DUP1 SWAP3 SWAP2 SWAP1 DUP2 DUP2 MSTORE PUSH1 0x20 ADD DUP3 DUP1 SLOAD PUSH2 0x3FD4 SWAP1 PUSH2 0x5CCC JUMP JUMPDEST DUP1 ISZERO PUSH2 0x4021 JUMPI DUP1 PUSH1 0x1F LT PUSH2 0x3FF6 JUMPI PUSH2 0x100 DUP1 DUP4 SLOAD DIV MUL DUP4 MSTORE SWAP2 PUSH1 0x20 ADD SWAP2 PUSH2 0x4021 JUMP JUMPDEST DUP3 ADD SWAP2 SWAP1 PUSH1 0x0 MSTORE PUSH1 0x20 PUSH1 0x0 KECCAK256 SWAP1 JUMPDEST DUP2 SLOAD DUP2 MSTORE SWAP1 PUSH1 0x1 ADD SWAP1 PUSH1 0x20 ADD DUP1 DUP4 GT PUSH2 0x4004 JUMPI DUP3 SWAP1 SUB PUSH1 0x1F AND DUP3 ADD SWAP2 JUMPDEST POP POP POP POP POP DUP2 MSTORE POP POP DUP2 MSTORE PUSH1 0x20 ADD SWAP1 PUSH1 0x1 ADD SWAP1 PUSH2 0x3E1E JUMP JUMPDEST SWAP4 SWAP3 POP POP POP JUMP JUMPDEST PUSH1 0x8 PUSH1 0x20 SWAP1 DUP2 MSTORE PUSH1 0x0 SWAP3 DUP4 MSTORE PUSH1 0x40 DUP1 DUP5 KECCAK256 SWAP1 SWAP2 MSTORE SWAP1 DUP3 MSTORE SWAP1 KECCAK256 DUP1 SLOAD PUSH1 0x1 DUP3 ADD SLOAD PUSH1 0x2 DUP4 ADD DUP1 SLOAD SWAP3 SWAP4 PUSH1 0xFF DUP4 AND SWAP4 PUSH2 0x100 SWAP1 SWAP4 DIV PUSH1 0x1 PUSH1 0x1 PUSH1 0xA0 SHL SUB AND SWAP3 SWAP1 SWAP2 SWAP1 PUSH2 0x4089 SWAP1 PUSH2 0x5CCC JUMP JUMPDEST DUP1 PUSH1 0x1F ADD PUSH1 0x20 DUP1 SWAP2 DIV MUL PUSH1 0x20 ADD PUSH1 0x40 MLOAD SWAP1 DUP2 ADD PUSH1 0x40 MSTORE DUP1 SWAP3 SWAP2 SWAP1 DUP2 DUP2 MSTORE PUSH1 0x20 ADD DUP3 DUP1 SLOAD PUSH2 0x40B5 SWAP1 PUSH2 0x5CCC JUMP JUMPDEST DUP1 ISZERO PUSH2 0x4102 JUMPI DUP1 PUSH1 0x1F LT PUSH2 0x40D7 JUMPI PUSH2 0x100 DUP1 DUP4 SLOAD DIV MUL DUP4 MSTORE SWAP2 PUSH1 0x20 ADD SWAP2 PUSH2 0x4102 JUMP JUMPDEST DUP3 ADD SWAP2 SWAP1 PUSH1 0x0 MSTORE PUSH1 0x20 PUSH1 0x0 KECCAK256 SWAP1 JUMPDEST DUP2 SLOAD DUP2 MSTORE SWAP1 PUSH1 0x1 ADD SWAP1 PUSH1 0x20 ADD DUP1 DUP4 GT PUSH2 0x40E5 JUMPI DUP3 SWAP1 SUB PUSH1 0x1F AND DUP3 ADD SWAP2 JUMPDEST POP POP POP POP POP SWAP1 DUP1 PUSH1 0x3 ADD DUP1 SLOAD PUSH2 0x4117 SWAP1 PUSH2 0x5CCC JUMP JUMPDEST DUP1 PUSH1 0x1F ADD PUSH1 0x20 DUP1 SWAP2 DIV MUL PUSH1 0x20 ADD PUSH1 0x40 MLOAD SWAP1 DUP2 ADD PUSH1 0x40 MSTORE DUP1 SWAP3 SWAP2 SWAP1 DUP2 DUP2 MSTORE PUSH1 0x20 ADD DUP3 DUP1 SLOAD PUSH2 0x4143 SWAP1 PUSH2 0x5CCC JUMP JUMPDEST DUP1 ISZERO PUSH2 0x4190 JUMPI DUP1 PUSH1 0x1F LT PUSH2 0x4165 JUMPI PUSH2 0x100 DUP1 DUP4 SLOAD DIV MUL DUP4 MSTORE SWAP2 PUSH1 0x20 ADD SWAP2 PUSH2 0x4190 JUMP JUMPDEST DUP3 ADD SWAP2 SWAP1 PUSH1 0x0 MSTORE PUSH1 0x20 PUSH1 0x0 KECCAK256 SWAP1 JUMPDEST DUP2 SLOAD DUP2 MSTORE SWAP1 PUSH1 0x1 ADD SWAP1 PUSH1 0x20 ADD DUP1 DUP4 GT PUSH2 0x4173 JUMPI DUP3 SWAP1 SUB PUSH1 0x1F AND DUP3 ADD SWAP2 JUMPDEST POP POP POP POP POP SWAP1 DUP1 PUSH1 0x8 ADD SLOAD SWAP1 DUP1 PUSH1 0x9 ADD SLOAD SWAP1 DUP1 PUSH1 0xA ADD SLOAD SWAP1 POP DUP9 JUMP JUMPDEST PUSH1 0x0 DUP2 DUP2 MSTORE PUSH1 0x7 PUSH1 0x20 MSTORE PUSH1 0x40 DUP2 KECCAK256 DUP3 SWAP2 DUP1 JUMPDEST PUSH1 0x4 DUP4 ADD SLOAD PUSH1 0xFF DUP3 AND LT ISZERO PUSH2 0x4211 JUMPI DUP3 PUSH1 0x4 ADD DUP2 PUSH1 0xFF AND DUP2 SLOAD DUP2 LT PUSH2 0x41E5 JUMPI PUSH2 0x41E5 PUSH2 0x5C4F JUMP JUMPDEST PUSH1 0x0 SWAP2 DUP3 MSTORE PUSH1 0x20 SWAP1 SWAP2 KECCAK256 ADD SLOAD PUSH1 0x1 PUSH1 0x1 PUSH1 0xA0 SHL SUB AND CALLER SUB PUSH2 0x4209 JUMPI PUSH1 0x1 SWAP2 POP PUSH2 0x4211 JUMP JUMPDEST PUSH1 0x1 ADD PUSH2 0x41BE JUMP JUMPDEST POP DUP1 PUSH2 0x4285 JUMPI PUSH1 0x40 MLOAD PUSH3 0x461BCD PUSH1 0xE5 SHL DUP2 MSTORE PUSH1 0x20 PUSH1 0x4 DUP3 ADD MSTORE PUSH1 0x3D PUSH1 0x24 DUP3 ADD MSTORE PUSH32 0x54686520616374696F6E2063616E206F6E6C7920626520706572666F726D6564 PUSH1 0x44 DUP3 ADD MSTORE PUSH32 0x206279206F7267616E697A657273206F66207468652070726F6A656374000000 PUSH1 0x64 DUP3 ADD MSTORE PUSH1 0x84 ADD PUSH2 0x7A9 JUMP JUMPDEST PUSH1 0x0 DUP5 DUP2 MSTORE PUSH1 0x7 PUSH1 0x20 MSTORE PUSH1 0x40 SWAP1 KECCAK256 PUSH1 0xC DUP2 ADD SLOAD PUSH2 0x100 SWAP1 DIV PUSH1 0xFF AND PUSH2 0x42AA JUMPI POP PUSH2 0x4989 JUMP JUMPDEST PUSH1 0xC DUP2 ADD DUP1 SLOAD PUSH2 0xFF00 NOT AND SWAP1 SSTORE PUSH1 0xD DUP2 ADD SLOAD PUSH1 0x0 DUP2 SWAP1 SUB PUSH2 0x42CC JUMPI POP POP PUSH2 0x4989 JUMP JUMPDEST PUSH1 0x0 DUP2 PUSH8 0xFFFFFFFFFFFFFFFF DUP2 GT ISZERO PUSH2 0x42E7 JUMPI PUSH2 0x42E7 PUSH2 0x54F4 JUMP JUMPDEST PUSH1 0x40 MLOAD SWAP1 DUP1 DUP3 MSTORE DUP1 PUSH1 0x20 MUL PUSH1 0x20 ADD DUP3 ADD PUSH1 0x40 MSTORE DUP1 ISZERO PUSH2 0x4310 JUMPI DUP2 PUSH1 0x20 ADD PUSH1 0x20 DUP3 MUL DUP1 CALLDATASIZE DUP4 CALLDATACOPY ADD SWAP1 POP JUMPDEST POP SWAP1 POP PUSH1 0x0 DUP3 PUSH8 0xFFFFFFFFFFFFFFFF DUP2 GT ISZERO PUSH2 0x432E JUMPI PUSH2 0x432E PUSH2 0x54F4 JUMP JUMPDEST PUSH1 0x40 MLOAD SWAP1 DUP1 DUP3 MSTORE DUP1 PUSH1 0x20 MUL PUSH1 0x20 ADD DUP3 ADD PUSH1 0x40 MSTORE DUP1 ISZERO PUSH2 0x4357 JUMPI DUP2 PUSH1 0x20 ADD PUSH1 0x20 DUP3 MUL DUP1 CALLDATASIZE DUP4 CALLDATACOPY ADD SWAP1 POP JUMPDEST POP SWAP1 POP PUSH1 0x0 JUMPDEST DUP4 DUP2 LT ISZERO PUSH2 0x4427 JUMPI PUSH1 0x0 DUP6 PUSH1 0xD ADD DUP3 DUP2 SLOAD DUP2 LT PUSH2 0x437C JUMPI PUSH2 0x437C PUSH2 0x5C4F JUMP JUMPDEST SWAP1 PUSH1 0x0 MSTORE PUSH1 0x20 PUSH1 0x0 KECCAK256 ADD PUSH1 0x0 SWAP1 SLOAD SWAP1 PUSH2 0x100 EXP SWAP1 DIV PUSH1 0x1 PUSH1 0x1 PUSH1 0xA0 SHL SUB AND SWAP1 POP DUP1 DUP5 DUP4 DUP2 MLOAD DUP2 LT PUSH2 0x43AF JUMPI PUSH2 0x43AF PUSH2 0x5C4F JUMP JUMPDEST PUSH1 0x20 MUL PUSH1 0x20 ADD ADD SWAP1 PUSH1 0x1 PUSH1 0x1 PUSH1 0xA0 SHL SUB AND SWAP1 DUP2 PUSH1 0x1 PUSH1 0x1 PUSH1 0xA0 SHL SUB AND DUP2 MSTORE POP POP DUP6 PUSH1 0x10 ADD PUSH1 0x0 DUP3 PUSH1 0x1 PUSH1 0x1 PUSH1 0xA0 SHL SUB AND PUSH1 0x1 PUSH1 0x1 PUSH1 0xA0 SHL SUB AND DUP2 MSTORE PUSH1 0x20 ADD SWAP1 DUP2 MSTORE PUSH1 0x20 ADD PUSH1 0x0 KECCAK256 SLOAD DUP4 DUP4 DUP2 MLOAD DUP2 LT PUSH2 0x4409 JUMPI PUSH2 0x4409 PUSH2 0x5C4F JUMP JUMPDEST PUSH1 0x20 SWAP1 DUP2 MUL SWAP2 SWAP1 SWAP2 ADD ADD MSTORE POP DUP1 PUSH2 0x441F DUP2 PUSH2 0x5C7B JUMP JUMPDEST SWAP2 POP POP PUSH2 0x435D JUMP JUMPDEST POP PUSH1 0xA DUP4 GT ISZERO PUSH2 0x485F JUMPI PUSH1 0x0 JUMPDEST PUSH2 0x443F PUSH1 0x1 DUP6 PUSH2 0x5D18 JUMP JUMPDEST DUP2 LT ISZERO PUSH2 0x45E3 JUMPI PUSH1 0x0 JUMPDEST PUSH1 0x1 PUSH2 0x4455 DUP4 DUP8 PUSH2 0x5D18 JUMP JUMPDEST PUSH2 0x445F SWAP2 SWAP1 PUSH2 0x5D18 JUMP JUMPDEST DUP2 LT ISZERO PUSH2 0x45D0 JUMPI DUP3 PUSH2 0x4472 DUP3 PUSH1 0x1 PUSH2 0x5D00 JUMP JUMPDEST DUP2 MLOAD DUP2 LT PUSH2 0x4482 JUMPI PUSH2 0x4482 PUSH2 0x5C4F JUMP JUMPDEST PUSH1 0x20 MUL PUSH1 0x20 ADD ADD MLOAD DUP4 DUP3 DUP2 MLOAD DUP2 LT PUSH2 0x449C JUMPI PUSH2 0x449C PUSH2 0x5C4F JUMP JUMPDEST PUSH1 0x20 MUL PUSH1 0x20 ADD ADD MLOAD LT ISZERO PUSH2 0x45BE JUMPI DUP3 PUSH2 0x44B6 DUP3 PUSH1 0x1 PUSH2 0x5D00 JUMP JUMPDEST DUP2 MLOAD DUP2 LT PUSH2 0x44C6 JUMPI PUSH2 0x44C6 PUSH2 0x5C4F JUMP JUMPDEST PUSH1 0x20 MUL PUSH1 0x20 ADD ADD MLOAD DUP4 DUP3 DUP2 MLOAD DUP2 LT PUSH2 0x44E0 JUMPI PUSH2 0x44E0 PUSH2 0x5C4F JUMP JUMPDEST PUSH1 0x20 MUL PUSH1 0x20 ADD ADD MLOAD DUP5 DUP4 DUP2 MLOAD DUP2 LT PUSH2 0x44FA JUMPI PUSH2 0x44FA PUSH2 0x5C4F JUMP JUMPDEST PUSH1 0x20 MUL PUSH1 0x20 ADD ADD DUP6 DUP5 PUSH1 0x1 PUSH2 0x450F SWAP2 SWAP1 PUSH2 0x5D00 JUMP JUMPDEST DUP2 MLOAD DUP2 LT PUSH2 0x451F JUMPI PUSH2 0x451F PUSH2 0x5C4F JUMP JUMPDEST PUSH1 0x20 SWAP1 DUP2 MUL SWAP2 SWAP1 SWAP2 ADD ADD SWAP2 SWAP1 SWAP2 MSTORE MSTORE DUP4 PUSH2 0x453A DUP3 PUSH1 0x1 PUSH2 0x5D00 JUMP JUMPDEST DUP2 MLOAD DUP2 LT PUSH2 0x454A JUMPI PUSH2 0x454A PUSH2 0x5C4F JUMP JUMPDEST PUSH1 0x20 MUL PUSH1 0x20 ADD ADD MLOAD DUP5 DUP3 DUP2 MLOAD DUP2 LT PUSH2 0x4564 JUMPI PUSH2 0x4564 PUSH2 0x5C4F JUMP JUMPDEST PUSH1 0x20 MUL PUSH1 0x20 ADD ADD MLOAD DUP6 DUP4 DUP2 MLOAD DUP2 LT PUSH2 0x457E JUMPI PUSH2 0x457E PUSH2 0x5C4F JUMP JUMPDEST PUSH1 0x20 MUL PUSH1 0x20 ADD ADD DUP7 DUP5 PUSH1 0x1 PUSH2 0x4593 SWAP2 SWAP1 PUSH2 0x5D00 JUMP JUMPDEST DUP2 MLOAD DUP2 LT PUSH2 0x45A3 JUMPI PUSH2 0x45A3 PUSH2 0x5C4F JUMP JUMPDEST PUSH1 0x1 PUSH1 0x1 PUSH1 0xA0 SHL SUB SWAP4 DUP5 AND PUSH1 0x20 SWAP2 DUP3 MUL SWAP3 SWAP1 SWAP3 ADD ADD MSTORE SWAP2 AND SWAP1 MSTORE JUMPDEST DUP1 PUSH2 0x45C8 DUP2 PUSH2 0x5C7B JUMP JUMPDEST SWAP2 POP POP PUSH2 0x4449 JUMP JUMPDEST POP DUP1 PUSH2 0x45DB DUP2 PUSH2 0x5C7B JUMP JUMPDEST SWAP2 POP POP PUSH2 0x4434 JUMP JUMPDEST POP PUSH1 0x0 PUSH1 0x64 PUSH2 0x45F3 DUP6 PUSH1 0x5 PUSH2 0x5D9E JUMP JUMPDEST PUSH2 0x45FD SWAP2 SWAP1 PUSH2 0x5DBD JUMP JUMPDEST SWAP1 POP PUSH1 0x0 JUMPDEST DUP2 DUP2 LT ISZERO PUSH2 0x46BE JUMPI DUP6 PUSH1 0x11 ADD DUP5 DUP3 DUP2 MLOAD DUP2 LT PUSH2 0x4620 JUMPI PUSH2 0x4620 PUSH2 0x5C4F JUMP JUMPDEST PUSH1 0x20 SWAP1 DUP2 MUL SWAP2 SWAP1 SWAP2 ADD DUP2 ADD MLOAD DUP3 SLOAD PUSH1 0x1 DUP2 ADD DUP5 SSTORE PUSH1 0x0 SWAP4 DUP5 MSTORE SWAP2 DUP4 KECCAK256 SWAP1 SWAP2 ADD DUP1 SLOAD PUSH1 0x1 PUSH1 0x1 PUSH1 0xA0 SHL SUB NOT AND PUSH1 0x1 PUSH1 0x1 PUSH1 0xA0 SHL SUB SWAP1 SWAP3 AND SWAP2 SWAP1 SWAP2 OR SWAP1 SSTORE DUP5 MLOAD PUSH1 0xA SWAP2 SWAP1 DUP7 SWAP1 DUP5 SWAP1 DUP2 LT PUSH2 0x4674 JUMPI PUSH2 0x4674 PUSH2 0x5C4F JUMP JUMPDEST PUSH1 0x20 SWAP1 DUP2 MUL SWAP2 SWAP1 SWAP2 ADD DUP2 ADD MLOAD PUSH1 0x1 PUSH1 0x1 PUSH1 0xA0 SHL SUB AND DUP3 MSTORE DUP2 DUP2 ADD SWAP3 SWAP1 SWAP3 MSTORE PUSH1 0x40 ADD PUSH1 0x0 SWAP1 DUP2 KECCAK256 DUP1 SLOAD PUSH1 0x1 DUP2 ADD DUP3 SSTORE SWAP1 DUP3 MSTORE SWAP2 SWAP1 KECCAK256 ADD DUP11 SWAP1 SSTORE DUP1 PUSH2 0x46B6 DUP2 PUSH2 0x5C7B JUMP JUMPDEST SWAP2 POP POP PUSH2 0x4602 JUMP JUMPDEST POP PUSH1 0x0 PUSH2 0x46CB DUP3 DUP7 PUSH2 0x5D18 JUMP JUMPDEST SWAP1 POP DUP1 PUSH1 0x0 SUB PUSH2 0x46E0 JUMPI POP POP POP POP POP POP PUSH2 0x4989 JUMP JUMPDEST PUSH1 0x0 DUP2 PUSH8 0xFFFFFFFFFFFFFFFF DUP2 GT ISZERO PUSH2 0x46FB JUMPI PUSH2 0x46FB PUSH2 0x54F4 JUMP JUMPDEST PUSH1 0x40 MLOAD SWAP1 DUP1 DUP3 MSTORE DUP1 PUSH1 0x20 MUL PUSH1 0x20 ADD DUP3 ADD PUSH1 0x40 MSTORE DUP1 ISZERO PUSH2 0x4724 JUMPI DUP2 PUSH1 0x20 ADD PUSH1 0x20 DUP3 MUL DUP1 CALLDATASIZE DUP4 CALLDATACOPY ADD SWAP1 POP JUMPDEST POP SWAP1 POP PUSH1 0x0 DUP4 JUMPDEST DUP8 DUP2 LT ISZERO PUSH2 0x4795 JUMPI DUP7 DUP2 DUP2 MLOAD DUP2 LT PUSH2 0x4745 JUMPI PUSH2 0x4745 PUSH2 0x5C4F JUMP JUMPDEST PUSH1 0x20 MUL PUSH1 0x20 ADD ADD MLOAD DUP4 DUP4 DUP1 PUSH2 0x4759 SWAP1 PUSH2 0x5C7B JUMP JUMPDEST SWAP5 POP DUP2 MLOAD DUP2 LT PUSH2 0x476B JUMPI PUSH2 0x476B PUSH2 0x5C4F JUMP JUMPDEST PUSH1 0x1 PUSH1 0x1 PUSH1 0xA0 SHL SUB SWAP1 SWAP3 AND PUSH1 0x20 SWAP3 DUP4 MUL SWAP2 SWAP1 SWAP2 ADD SWAP1 SWAP2 ADD MSTORE DUP1 PUSH2 0x478D DUP2 PUSH2 0x5C7B JUMP JUMPDEST SWAP2 POP POP PUSH2 0x472B JUMP JUMPDEST POP PUSH1 0x0 JUMPDEST DUP4 DUP2 LT ISZERO PUSH2 0x4855 JUMPI DUP9 PUSH1 0x12 ADD DUP4 DUP3 DUP2 MLOAD DUP2 LT PUSH2 0x47B7 JUMPI PUSH2 0x47B7 PUSH2 0x5C4F JUMP JUMPDEST PUSH1 0x20 SWAP1 DUP2 MUL SWAP2 SWAP1 SWAP2 ADD DUP2 ADD MLOAD DUP3 SLOAD PUSH1 0x1 DUP2 ADD DUP5 SSTORE PUSH1 0x0 SWAP4 DUP5 MSTORE SWAP2 DUP4 KECCAK256 SWAP1 SWAP2 ADD DUP1 SLOAD PUSH1 0x1 PUSH1 0x1 PUSH1 0xA0 SHL SUB NOT AND PUSH1 0x1 PUSH1 0x1 PUSH1 0xA0 SHL SUB SWAP1 SWAP3 AND SWAP2 SWAP1 SWAP2 OR SWAP1 SSTORE DUP4 MLOAD PUSH1 0xA SWAP2 SWAP1 DUP6 SWAP1 DUP5 SWAP1 DUP2 LT PUSH2 0x480B JUMPI PUSH2 0x480B PUSH2 0x5C4F JUMP JUMPDEST PUSH1 0x20 SWAP1 DUP2 MUL SWAP2 SWAP1 SWAP2 ADD DUP2 ADD MLOAD PUSH1 0x1 PUSH1 0x1 PUSH1 0xA0 SHL SUB AND DUP3 MSTORE DUP2 DUP2 ADD SWAP3 SWAP1 SWAP3 MSTORE PUSH1 0x40 ADD PUSH1 0x0 SWAP1 DUP2 KECCAK256 DUP1 SLOAD PUSH1 0x1 DUP2 ADD DUP3 SSTORE SWAP1 DUP3 MSTORE SWAP2 SWAP1 KECCAK256 ADD DUP14 SWAP1 SSTORE DUP1 PUSH2 0x484D DUP2 PUSH2 0x5C7B JUMP JUMPDEST SWAP2 POP POP PUSH2 0x4799 JUMP JUMPDEST POP POP POP POP POP PUSH2 0x4920 JUMP JUMPDEST PUSH1 0x0 JUMPDEST DUP4 DUP2 LT ISZERO PUSH2 0x491E JUMPI DUP5 PUSH1 0x12 ADD DUP4 DUP3 DUP2 MLOAD DUP2 LT PUSH2 0x4880 JUMPI PUSH2 0x4880 PUSH2 0x5C4F JUMP JUMPDEST PUSH1 0x20 SWAP1 DUP2 MUL SWAP2 SWAP1 SWAP2 ADD DUP2 ADD MLOAD DUP3 SLOAD PUSH1 0x1 DUP2 ADD DUP5 SSTORE PUSH1 0x0 SWAP4 DUP5 MSTORE SWAP2 DUP4 KECCAK256 SWAP1 SWAP2 ADD DUP1 SLOAD PUSH1 0x1 PUSH1 0x1 PUSH1 0xA0 SHL SUB NOT AND PUSH1 0x1 PUSH1 0x1 PUSH1 0xA0 SHL SUB SWAP1 SWAP3 AND SWAP2 SWAP1 SWAP2 OR SWAP1 SSTORE DUP4 MLOAD PUSH1 0xA SWAP2 SWAP1 DUP6 SWAP1 DUP5 SWAP1 DUP2 LT PUSH2 0x48D4 JUMPI PUSH2 0x48D4 PUSH2 0x5C4F JUMP JUMPDEST PUSH1 0x20 SWAP1 DUP2 MUL SWAP2 SWAP1 SWAP2 ADD DUP2 ADD MLOAD PUSH1 0x1 PUSH1 0x1 PUSH1 0xA0 SHL SUB AND DUP3 MSTORE DUP2 DUP2 ADD SWAP3 SWAP1 SWAP3 MSTORE PUSH1 0x40 ADD PUSH1 0x0 SWAP1 DUP2 KECCAK256 DUP1 SLOAD PUSH1 0x1 DUP2 ADD DUP3 SSTORE SWAP1 DUP3 MSTORE SWAP2 SWAP1 KECCAK256 ADD DUP10 SWAP1 SSTORE DUP1 PUSH2 0x4916 DUP2 PUSH2 0x5C7B JUMP JUMPDEST SWAP2 POP POP PUSH2 0x4862 JUMP JUMPDEST POP JUMPDEST PUSH1 0x4 DUP5 ADD SLOAD PUSH1 0x12 DUP6 ADD SLOAD PUSH1 0x11 DUP7 ADD SLOAD PUSH2 0x4939 SWAP2 SWAP1 PUSH2 0x5D00 JUMP JUMPDEST PUSH2 0x4943 SWAP2 SWAP1 PUSH2 0x5D00 JUMP JUMPDEST PUSH1 0x13 DUP6 ADD DUP1 SLOAD PUSH1 0xFF NOT AND PUSH1 0xFF SWAP3 SWAP1 SWAP3 AND SWAP2 SWAP1 SWAP2 OR SWAP1 SSTORE PUSH1 0x40 MLOAD DUP9 SWAP1 PUSH32 0xD312A8F16F4214218CB0334DA9A62AA94A5BF7C208659435E4B35B5A4B7D4408 SWAP1 PUSH1 0x0 SWAP1 LOG2 POP POP POP POP JUMPDEST POP POP POP POP JUMP JUMPDEST PUSH1 0x0 DUP3 DUP2 MSTORE PUSH1 0x7 PUSH1 0x20 MSTORE PUSH1 0x40 DUP2 KECCAK256 DUP4 SWAP2 DUP1 JUMPDEST PUSH1 0x4 DUP4 ADD SLOAD PUSH1 0xFF DUP3 AND LT ISZERO PUSH2 0x49F4 JUMPI DUP3 PUSH1 0x4 ADD DUP2 PUSH1 0xFF AND DUP2 SLOAD DUP2 LT PUSH2 0x49C8 JUMPI PUSH2 0x49C8 PUSH2 0x5C4F JUMP JUMPDEST PUSH1 0x0 SWAP2 DUP3 MSTORE PUSH1 0x20 SWAP1 SWAP2 KECCAK256 ADD SLOAD PUSH1 0x1 PUSH1 0x1 PUSH1 0xA0 SHL SUB AND CALLER SUB PUSH2 0x49EC JUMPI PUSH1 0x1 SWAP2 POP PUSH2 0x49F4 JUMP JUMPDEST PUSH1 0x1 ADD PUSH2 0x49A1 JUMP JUMPDEST POP DUP1 PUSH2 0x4A68 JUMPI PUSH1 0x40 MLOAD PUSH3 0x461BCD PUSH1 0xE5 SHL DUP2 MSTORE PUSH1 0x20 PUSH1 0x4 DUP3 ADD MSTORE PUSH1 0x3D PUSH1 0x24 DUP3 ADD MSTORE PUSH32 0x54686520616374696F6E2063616E206F6E6C7920626520706572666F726D6564 PUSH1 0x44 DUP3 ADD MSTORE PUSH32 0x206279206F7267616E697A657273206F66207468652070726F6A656374000000 PUSH1 0x64 DUP3 ADD MSTORE PUSH1 0x84 ADD PUSH2 0x7A9 JUMP JUMPDEST PUSH1 0x0 DUP6 DUP2 MSTORE PUSH1 0x7 PUSH1 0x20 MSTORE PUSH1 0x40 SWAP1 KECCAK256 PUSH1 0xC ADD SLOAD DUP6 SWAP1 PUSH1 0xFF AND PUSH2 0x4AF1 JUMPI PUSH1 0x40 MLOAD PUSH3 0x461BCD PUSH1 0xE5 SHL DUP2 MSTORE PUSH1 0x20 PUSH1 0x4 DUP3 ADD MSTORE PUSH1 0x31 PUSH1 0x24 DUP3 ADD MSTORE PUSH32 0x54686520616374696F6E2063616E206F6E6C792068617070656E206F6E20616E PUSH1 0x44 DUP3 ADD MSTORE PUSH32 0x20617070726F7665642070726F6A656374000000000000000000000000000000 PUSH1 0x64 DUP3 ADD MSTORE PUSH1 0x84 ADD PUSH2 0x7A9 JUMP JUMPDEST PUSH1 0x0 DUP7 DUP2 MSTORE PUSH1 0x8 PUSH1 0x20 SWAP1 DUP2 MSTORE PUSH1 0x40 DUP1 DUP4 KECCAK256 DUP9 DUP5 MSTORE DUP3 MSTORE DUP1 DUP4 KECCAK256 DUP10 DUP5 MSTORE PUSH1 0x7 SWAP1 SWAP3 MSTORE SWAP1 SWAP2 KECCAK256 PUSH1 0x2 PUSH1 0x1 DUP4 ADD SLOAD PUSH1 0xFF AND PUSH1 0x4 DUP2 GT ISZERO PUSH2 0x4B30 JUMPI PUSH2 0x4B30 PUSH2 0x56E1 JUMP JUMPDEST EQ PUSH2 0x4BA3 JUMPI PUSH1 0x40 MLOAD PUSH3 0x461BCD PUSH1 0xE5 SHL DUP2 MSTORE PUSH1 0x20 PUSH1 0x4 DUP3 ADD MSTORE PUSH1 0x30 PUSH1 0x24 DUP3 ADD MSTORE PUSH32 0x52657175657374206D7573742062652066756C6C7920617070726F7665642074 PUSH1 0x44 DUP3 ADD MSTORE PUSH32 0x6F2077697468647261772066756E647300000000000000000000000000000000 PUSH1 0x64 DUP3 ADD MSTORE PUSH1 0x84 ADD PUSH2 0x7A9 JUMP JUMPDEST DUP2 PUSH1 0x8 ADD SLOAD DUP2 PUSH1 0xE ADD SLOAD LT ISZERO PUSH2 0x4C05 JUMPI PUSH1 0x40 MLOAD PUSH3 0x461BCD PUSH1 0xE5 SHL DUP2 MSTORE PUSH1 0x20 PUSH1 0x4 DUP3 ADD MSTORE PUSH1 0x21 PUSH1 0x24 DUP3 ADD MSTORE PUSH32 0x496E73756666696369656E742066756E647320696E207468652070726F6A6563 PUSH1 0x44 DUP3 ADD MSTORE PUSH1 0x1D PUSH1 0xFA SHL PUSH1 0x64 DUP3 ADD MSTORE PUSH1 0x84 ADD PUSH2 0x7A9 JUMP JUMPDEST DUP2 PUSH1 0x8 ADD SLOAD DUP2 PUSH1 0xF ADD PUSH1 0x0 DUP3 DUP3 SLOAD PUSH2 0x4C1D SWAP2 SWAP1 PUSH2 0x5D00 JUMP JUMPDEST SWAP1 SWAP2 SSTORE POP POP PUSH1 0x8 DUP3 ADD SLOAD PUSH1 0x6 DUP1 SLOAD PUSH1 0x0 SWAP1 PUSH2 0x4C39 SWAP1 DUP5 SWAP1 PUSH2 0x5D00 JUMP JUMPDEST SWAP1 SWAP2 SSTORE POP POP PUSH1 0x1 DUP3 ADD DUP1 SLOAD PUSH1 0x4 PUSH1 0xFF NOT SWAP1 SWAP2 AND OR SWAP1 DUP2 SWAP1 SSTORE PUSH1 0x8 DUP4 ADD SLOAD PUSH1 0x40 MLOAD PUSH2 0x100 SWAP1 SWAP3 DIV PUSH1 0x1 PUSH1 0x1 PUSH1 0xA0 SHL SUB AND SWAP2 PUSH2 0x8FC DUP3 ISZERO MUL SWAP2 SWAP1 PUSH1 0x0 DUP2 DUP2 DUP2 DUP6 DUP9 DUP9 CALL SWAP4 POP POP POP POP ISZERO DUP1 ISZERO PUSH2 0x4C90 JUMPI RETURNDATASIZE PUSH1 0x0 DUP1 RETURNDATACOPY RETURNDATASIZE PUSH1 0x0 REVERT JUMPDEST POP DUP8 PUSH32 0xEF687A8F1519B4C5091105CBC704634D2F17927BA995F9044C74476DC623C046 DUP9 DUP5 PUSH1 0x8 ADD SLOAD PUSH1 0x40 MLOAD PUSH2 0x4CD0 SWAP3 SWAP2 SWAP1 SWAP2 DUP3 MSTORE PUSH1 0x20 DUP3 ADD MSTORE PUSH1 0x40 ADD SWAP1 JUMP JUMPDEST PUSH1 0x40 MLOAD DUP1 SWAP2 SUB SWAP1 LOG2 POP POP POP POP POP POP POP POP JUMP JUMPDEST PUSH1 0x0 DUP1 SLOAD PUSH1 0x1 PUSH1 0x1 PUSH1 0xA0 SHL SUB AND CALLER EQ DUP1 PUSH2 0x4D44 JUMPI PUSH1 0x0 JUMPDEST PUSH1 0x1 SLOAD DUP2 LT ISZERO PUSH2 0x4D42 JUMPI PUSH1 0x1 DUP2 DUP2 SLOAD DUP2 LT PUSH2 0x4D16 JUMPI PUSH2 0x4D16 PUSH2 0x5C4F JUMP JUMPDEST PUSH1 0x0 SWAP2 DUP3 MSTORE PUSH1 0x20 SWAP1 SWAP2 KECCAK256 ADD SLOAD PUSH1 0x1 PUSH1 0x1 PUSH1 0xA0 SHL SUB AND CALLER SUB PUSH2 0x4D3A JUMPI PUSH1 0x1 SWAP2 POP PUSH2 0x4D42 JUMP JUMPDEST PUSH1 0x1 ADD PUSH2 0x4CF9 JUMP JUMPDEST POP JUMPDEST SWAP2 SWAP1 POP JUMP JUMPDEST PUSH1 0xA PUSH1 0x20 MSTORE DUP2 PUSH1 0x0 MSTORE PUSH1 0x40 PUSH1 0x0 KECCAK256 DUP2 DUP2 SLOAD DUP2 LT PUSH2 0x3677 JUMPI PUSH1 0x0 DUP1 REVERT JUMPDEST PUSH1 0x0 DUP7 DUP2 MSTORE PUSH1 0x7 PUSH1 0x20 MSTORE PUSH1 0x40 DUP2 KECCAK256 DUP8 SWAP2 DUP1 JUMPDEST PUSH1 0x4 DUP4 ADD SLOAD PUSH1 0xFF DUP3 AND LT ISZERO PUSH2 0x4DCA JUMPI DUP3 PUSH1 0x4 ADD DUP2 PUSH1 0xFF AND DUP2 SLOAD DUP2 LT PUSH2 0x4D9E JUMPI PUSH2 0x4D9E PUSH2 0x5C4F JUMP JUMPDEST PUSH1 0x0 SWAP2 DUP3 MSTORE PUSH1 0x20 SWAP1 SWAP2 KECCAK256 ADD SLOAD PUSH1 0x1 PUSH1 0x1 PUSH1 0xA0 SHL SUB AND CALLER SUB PUSH2 0x4DC2 JUMPI PUSH1 0x1 SWAP2 POP PUSH2 0x4DCA JUMP JUMPDEST PUSH1 0x1 ADD PUSH2 0x4D77 JUMP JUMPDEST POP DUP1 PUSH2 0x4E3E JUMPI PUSH1 0x40 MLOAD PUSH3 0x461BCD PUSH1 0xE5 SHL DUP2 MSTORE PUSH1 0x20 PUSH1 0x4 DUP3 ADD MSTORE PUSH1 0x3D PUSH1 0x24 DUP3 ADD MSTORE PUSH32 0x54686520616374696F6E2063616E206F6E6C7920626520706572666F726D6564 PUSH1 0x44 DUP3 ADD MSTORE PUSH32 0x206279206F7267616E697A657273206F66207468652070726F6A656374000000 PUSH1 0x64 DUP3 ADD MSTORE PUSH1 0x84 ADD PUSH2 0x7A9 JUMP JUMPDEST PUSH1 0x0 DUP1 DUP6 PUSH1 0x4 DUP2 GT ISZERO PUSH2 0x4E53 JUMPI PUSH2 0x4E53 PUSH2 0x56E1 JUMP JUMPDEST SUB PUSH2 0x4E6F JUMPI POP PUSH1 0x0 DUP10 DUP2 MSTORE PUSH1 0x7 PUSH1 0x20 MSTORE PUSH1 0x40 SWAP1 KECCAK256 PUSH1 0x8 ADD PUSH2 0x4EFB JUMP JUMPDEST PUSH1 0x2 DUP6 PUSH1 0x4 DUP2 GT ISZERO PUSH2 0x4E83 JUMPI PUSH2 0x4E83 PUSH2 0x56E1 JUMP JUMPDEST SUB PUSH2 0x4E9F JUMPI POP PUSH1 0x0 DUP10 DUP2 MSTORE PUSH1 0x7 PUSH1 0x20 MSTORE PUSH1 0x40 SWAP1 KECCAK256 PUSH1 0xA ADD PUSH2 0x4EFB JUMP JUMPDEST PUSH1 0x1 DUP6 PUSH1 0x4 DUP2 GT ISZERO PUSH2 0x4EB3 JUMPI PUSH2 0x4EB3 PUSH2 0x56E1 JUMP JUMPDEST SUB PUSH2 0x4ECF JUMPI POP PUSH1 0x0 DUP10 DUP2 MSTORE PUSH1 0x7 PUSH1 0x20 MSTORE PUSH1 0x40 SWAP1 KECCAK256 PUSH1 0x9 ADD PUSH2 0x4EFB JUMP JUMPDEST PUSH1 0x3 DUP6 PUSH1 0x4 DUP2 GT ISZERO PUSH2 0x4EE3 JUMPI PUSH2 0x4EE3 PUSH2 0x56E1 JUMP JUMPDEST SUB PUSH2 0x9CA JUMPI POP PUSH1 0x0 DUP10 DUP2 MSTORE PUSH1 0x7 PUSH1 0x20 MSTORE PUSH1 0x40 SWAP1 KECCAK256 PUSH1 0xB ADD JUMPDEST DUP1 SLOAD DUP10 LT PUSH2 0x4F4B JUMPI PUSH1 0x40 MLOAD PUSH3 0x461BCD PUSH1 0xE5 SHL DUP2 MSTORE PUSH1 0x20 PUSH1 0x4 DUP3 ADD MSTORE PUSH1 0x18 PUSH1 0x24 DUP3 ADD MSTORE PUSH32 0x496E76616C6964204D65646961204974656D20496E6465780000000000000000 PUSH1 0x44 DUP3 ADD MSTORE PUSH1 0x64 ADD PUSH2 0x7A9 JUMP JUMPDEST PUSH1 0x0 DUP2 DUP11 DUP2 SLOAD DUP2 LT PUSH2 0x4F5F JUMPI PUSH2 0x4F5F PUSH2 0x5C4F JUMP JUMPDEST PUSH1 0x0 SWAP2 DUP3 MSTORE PUSH1 0x20 SWAP2 DUP3 SWAP1 KECCAK256 DUP12 MLOAD PUSH1 0x4 SWAP1 SWAP3 MUL ADD SWAP3 POP PUSH2 0x4F83 SWAP2 DUP4 SWAP2 SWAP1 DUP13 ADD SWAP1 PUSH2 0x52EC JUMP JUMPDEST POP DUP8 MLOAD PUSH2 0x4F99 SWAP1 PUSH1 0x1 DUP4 ADD SWAP1 PUSH1 0x20 DUP12 ADD SWAP1 PUSH2 0x52EC JUMP JUMPDEST POP DUP7 MLOAD PUSH2 0x12DD SWAP1 PUSH1 0x3 DUP4 ADD SWAP1 PUSH1 0x20 DUP11 ADD SWAP1 PUSH2 0x52EC JUMP JUMPDEST PUSH1 0x0 SLOAD PUSH1 0x1 PUSH1 0x1 PUSH1 0xA0 SHL SUB AND CALLER EQ DUP1 PUSH2 0x5010 JUMPI PUSH1 0x0 JUMPDEST PUSH1 0x1 SLOAD DUP2 LT ISZERO PUSH2 0x500E JUMPI PUSH1 0x1 DUP2 DUP2 SLOAD DUP2 LT PUSH2 0x4FE2 JUMPI PUSH2 0x4FE2 PUSH2 0x5C4F JUMP JUMPDEST PUSH1 0x0 SWAP2 DUP3 MSTORE PUSH1 0x20 SWAP1 SWAP2 KECCAK256 ADD SLOAD PUSH1 0x1 PUSH1 0x1 PUSH1 0xA0 SHL SUB AND CALLER SUB PUSH2 0x5006 JUMPI PUSH1 0x1 SWAP2 POP PUSH2 0x500E JUMP JUMPDEST PUSH1 0x1 ADD PUSH2 0x4FC5 JUMP JUMPDEST POP JUMPDEST DUP1 PUSH2 0x5070 JUMPI PUSH1 0x40 MLOAD PUSH3 0x461BCD PUSH1 0xE5 SHL DUP2 MSTORE PUSH1 0x20 PUSH1 0x4 DUP3 ADD MSTORE PUSH1 0x2A PUSH1 0x24 DUP3 ADD MSTORE PUSH32 0x4F6E6C79206F776E6572206F722073746166662063616E2063616C6C20746869 PUSH1 0x44 DUP3 ADD MSTORE PUSH10 0x3990333AB731BA34B7B7 PUSH1 0xB1 SHL PUSH1 0x64 DUP3 ADD MSTORE PUSH1 0x84 ADD PUSH2 0x7A9 JUMP JUMPDEST PUSH1 0x0 DUP1 DUP4 PUSH1 0x4 DUP2 GT ISZERO PUSH2 0x5085 JUMPI PUSH2 0x5085 PUSH2 0x56E1 JUMP JUMPDEST SUB PUSH2 0x50A1 JUMPI POP PUSH1 0x0 DUP5 DUP2 MSTORE PUSH1 0x7 PUSH1 0x20 MSTORE PUSH1 0x40 SWAP1 KECCAK256 PUSH1 0x8 ADD PUSH2 0x512D JUMP JUMPDEST PUSH1 0x2 DUP4 PUSH1 0x4 DUP2 GT ISZERO PUSH2 0x50B5 JUMPI PUSH2 0x50B5 PUSH2 0x56E1 JUMP JUMPDEST SUB PUSH2 0x50D1 JUMPI POP PUSH1 0x0 DUP5 DUP2 MSTORE PUSH1 0x7 PUSH1 0x20 MSTORE PUSH1 0x40 SWAP1 KECCAK256 PUSH1 0xA ADD PUSH2 0x512D JUMP JUMPDEST PUSH1 0x1 DUP4 PUSH1 0x4 DUP2 GT ISZERO PUSH2 0x50E5 JUMPI PUSH2 0x50E5 PUSH2 0x56E1 JUMP JUMPDEST SUB PUSH2 0x5101 JUMPI POP PUSH1 0x0 DUP5 DUP2 MSTORE PUSH1 0x7 PUSH1 0x20 MSTORE PUSH1 0x40 SWAP1 KECCAK256 PUSH1 0x9 ADD PUSH2 0x512D JUMP JUMPDEST PUSH1 0x3 DUP4 PUSH1 0x4 DUP2 GT ISZERO PUSH2 0x5115 JUMPI PUSH2 0x5115 PUSH2 0x56E1 JUMP JUMPDEST SUB PUSH2 0x9CA JUMPI POP PUSH1 0x0 DUP5 DUP2 MSTORE PUSH1 0x7 PUSH1 0x20 MSTORE PUSH1 0x40 SWAP1 KECCAK256 PUSH1 0xB ADD JUMPDEST DUP1 SLOAD DUP5 LT PUSH2 0x517D JUMPI PUSH1 0x40 MLOAD PUSH3 0x461BCD PUSH1 0xE5 SHL DUP2 MSTORE PUSH1 0x20 PUSH1 0x4 DUP3 ADD MSTORE PUSH1 0x18 PUSH1 0x24 DUP3 ADD MSTORE PUSH32 0x496E76616C6964204D65646961204974656D20496E6465780000000000000000 PUSH1 0x44 DUP3 ADD MSTORE PUSH1 0x64 ADD PUSH2 0x7A9 JUMP JUMPDEST DUP1 SLOAD DUP2 SWAP1 PUSH2 0x518D SWAP1 PUSH1 0x1 SWAP1 PUSH2 0x5D18 JUMP JUMPDEST DUP2 SLOAD DUP2 LT PUSH2 0x519D JUMPI PUSH2 0x519D PUSH2 0x5C4F JUMP JUMPDEST SWAP1 PUSH1 0x0 MSTORE PUSH1 0x20 PUSH1 0x0 KECCAK256 SWAP1 PUSH1 0x4 MUL ADD DUP2 DUP6 DUP2 SLOAD DUP2 LT PUSH2 0x51BD JUMPI PUSH2 0x51BD PUSH2 0x5C4F JUMP JUMPDEST SWAP1 PUSH1 0x0 MSTORE PUSH1 0x20 PUSH1 0x0 KECCAK256 SWAP1 PUSH1 0x4 MUL ADD PUSH1 0x0 DUP3 ADD DUP2 PUSH1 0x0 ADD SWAP1 DUP1 SLOAD PUSH2 0x51DF SWAP1 PUSH2 0x5CCC JUMP JUMPDEST PUSH2 0x51EA SWAP3 SWAP2 SWAP1 PUSH2 0x53E9 JUMP JUMPDEST POP PUSH1 0x1 DUP3 ADD DUP2 PUSH1 0x1 ADD SWAP1 DUP1 SLOAD PUSH2 0x51FF SWAP1 PUSH2 0x5CCC JUMP JUMPDEST PUSH2 0x520A SWAP3 SWAP2 SWAP1 PUSH2 0x53E9 JUMP JUMPDEST POP PUSH1 0x2 DUP3 DUP2 ADD SLOAD SWAP1 DUP3 ADD DUP1 SLOAD PUSH1 0xFF SWAP1 SWAP3 AND SWAP2 PUSH1 0xFF NOT AND PUSH1 0x1 DUP4 PUSH1 0x4 DUP2 GT ISZERO PUSH2 0x5234 JUMPI PUSH2 0x5234 PUSH2 0x56E1 JUMP JUMPDEST MUL OR SWAP1 SSTORE POP PUSH1 0x3 DUP3 ADD DUP2 PUSH1 0x3 ADD SWAP1 DUP1 SLOAD PUSH2 0x524D SWAP1 PUSH2 0x5CCC JUMP JUMPDEST PUSH2 0x5258 SWAP3 SWAP2 SWAP1 PUSH2 0x53E9 JUMP JUMPDEST POP SWAP1 POP POP DUP1 DUP1 SLOAD DUP1 PUSH2 0x526C JUMPI PUSH2 0x526C PUSH2 0x5D88 JUMP JUMPDEST PUSH1 0x0 DUP3 DUP2 MSTORE PUSH1 0x20 DUP2 KECCAK256 PUSH1 0x0 NOT SWAP1 SWAP3 ADD SWAP2 PUSH1 0x4 DUP4 MUL ADD SWAP1 PUSH2 0x528C DUP3 DUP3 PUSH2 0x5464 JUMP JUMPDEST PUSH2 0x529A PUSH1 0x1 DUP4 ADD PUSH1 0x0 PUSH2 0x5464 JUMP JUMPDEST PUSH1 0x2 DUP3 ADD DUP1 SLOAD PUSH1 0xFF NOT AND SWAP1 SSTORE PUSH2 0x52B4 PUSH1 0x3 DUP4 ADD PUSH1 0x0 PUSH2 0x5464 JUMP JUMPDEST POP POP SWAP1 SSTORE POP POP POP POP POP JUMP JUMPDEST PUSH1 0x1 DUP2 DUP2 ADD DUP1 SLOAD PUSH1 0xFF NOT AND DUP3 DUP1 JUMPDEST MUL OR SWAP1 SSTORE POP POP JUMP JUMPDEST PUSH1 0x1 DUP1 DUP3 ADD DUP1 SLOAD PUSH1 0x3 SWAP3 PUSH1 0xFF NOT SWAP1 SWAP2 AND SWAP1 DUP4 PUSH2 0x52CD JUMP JUMPDEST DUP3 DUP1 SLOAD PUSH2 0x52F8 SWAP1 PUSH2 0x5CCC JUMP JUMPDEST SWAP1 PUSH1 0x0 MSTORE PUSH1 0x20 PUSH1 0x0 KECCAK256 SWAP1 PUSH1 0x1F ADD PUSH1 0x20 SWAP1 DIV DUP2 ADD SWAP3 DUP3 PUSH2 0x531A JUMPI PUSH1 0x0 DUP6 SSTORE PUSH2 0x5360 JUMP JUMPDEST DUP3 PUSH1 0x1F LT PUSH2 0x5333 JUMPI DUP1 MLOAD PUSH1 0xFF NOT AND DUP4 DUP1 ADD OR DUP6 SSTORE PUSH2 0x5360 JUMP JUMPDEST DUP3 DUP1 ADD PUSH1 0x1 ADD DUP6 SSTORE DUP3 ISZERO PUSH2 0x5360 JUMPI SWAP2 DUP3 ADD JUMPDEST DUP3 DUP2 GT ISZERO PUSH2 0x5360 JUMPI DUP3 MLOAD DUP3 SSTORE SWAP2 PUSH1 0x20 ADD SWAP2 SWAP1 PUSH1 0x1 ADD SWAP1 PUSH2 0x5345 JUMP JUMPDEST POP PUSH2 0x536C SWAP3 SWAP2 POP PUSH2 0x549A JUMP JUMPDEST POP SWAP1 JUMP JUMPDEST POP DUP1 SLOAD PUSH1 0x0 DUP3 SSTORE PUSH1 0x4 MUL SWAP1 PUSH1 0x0 MSTORE PUSH1 0x20 PUSH1 0x0 KECCAK256 SWAP1 DUP2 ADD SWAP1 PUSH2 0x5391 SWAP2 SWAP1 PUSH2 0x54AF JUMP JUMPDEST POP JUMP JUMPDEST DUP3 DUP1 SLOAD DUP3 DUP3 SSTORE SWAP1 PUSH1 0x0 MSTORE PUSH1 0x20 PUSH1 0x0 KECCAK256 SWAP1 DUP2 ADD SWAP3 DUP3 ISZERO PUSH2 0x5360 JUMPI SWAP2 PUSH1 0x20 MUL DUP3 ADD JUMPDEST DUP3 DUP2 GT ISZERO PUSH2 0x5360 JUMPI DUP3 MLOAD DUP3 SLOAD PUSH1 0x1 PUSH1 0x1 PUSH1 0xA0 SHL SUB NOT AND PUSH1 0x1 PUSH1 0x1 PUSH1 0xA0 SHL SUB SWAP1 SWAP2 AND OR DUP3 SSTORE PUSH1 0x20 SWAP1 SWAP3 ADD SWAP2 PUSH1 0x1 SWAP1 SWAP2 ADD SWAP1 PUSH2 0x53B4 JUMP JUMPDEST DUP3 DUP1 SLOAD PUSH2 0x53F5 SWAP1 PUSH2 0x5CCC JUMP JUMPDEST SWAP1 PUSH1 0x0 MSTORE PUSH1 0x20 PUSH1 0x0 KECCAK256 SWAP1 PUSH1 0x1F ADD PUSH1 0x20 SWAP1 DIV DUP2 ADD SWAP3 DUP3 PUSH2 0x5417 JUMPI PUSH1 0x0 DUP6 SSTORE PUSH2 0x5360 JUMP JUMPDEST DUP3 PUSH1 0x1F LT PUSH2 0x5428 JUMPI DUP1 SLOAD DUP6 SSTORE PUSH2 0x5360 JUMP JUMPDEST DUP3 DUP1 ADD PUSH1 0x1 ADD DUP6 SSTORE DUP3 ISZERO PUSH2 0x5360 JUMPI PUSH1 0x0 MSTORE PUSH1 0x20 PUSH1 0x0 KECCAK256 SWAP2 PUSH1 0x1F ADD PUSH1 0x20 SWAP1 DIV DUP3 ADD JUMPDEST DUP3 DUP2 GT ISZERO PUSH2 0x5360 JUMPI DUP3 SLOAD DUP3 SSTORE SWAP2 PUSH1 0x1 ADD SWAP2 SWAP1 PUSH1 0x1 ADD SWAP1 PUSH2 0x5449 JUMP JUMPDEST POP DUP1 SLOAD PUSH2 0x5470 SWAP1 PUSH2 0x5CCC JUMP JUMPDEST PUSH1 0x0 DUP3 SSTORE DUP1 PUSH1 0x1F LT PUSH2 0x5480 JUMPI POP POP JUMP JUMPDEST PUSH1 0x1F ADD PUSH1 0x20 SWAP1 DIV SWAP1 PUSH1 0x0 MSTORE PUSH1 0x20 PUSH1 0x0 KECCAK256 SWAP1 DUP2 ADD SWAP1 PUSH2 0x5391 SWAP2 SWAP1 JUMPDEST JUMPDEST DUP1 DUP3 GT ISZERO PUSH2 0x536C JUMPI PUSH1 0x0 DUP2 SSTORE PUSH1 0x1 ADD PUSH2 0x549B JUMP JUMPDEST DUP1 DUP3 GT ISZERO PUSH2 0x536C JUMPI PUSH1 0x0 PUSH2 0x54C3 DUP3 DUP3 PUSH2 0x5464 JUMP JUMPDEST PUSH2 0x54D1 PUSH1 0x1 DUP4 ADD PUSH1 0x0 PUSH2 0x5464 JUMP JUMPDEST PUSH1 0x2 DUP3 ADD DUP1 SLOAD PUSH1 0xFF NOT AND SWAP1 SSTORE PUSH2 0x54EB PUSH1 0x3 DUP4 ADD PUSH1 0x0 PUSH2 0x5464 JUMP JUMPDEST POP PUSH1 0x4 ADD PUSH2 0x54AF JUMP JUMPDEST PUSH4 0x4E487B71 PUSH1 0xE0 SHL PUSH1 0x0 MSTORE PUSH1 0x41 PUSH1 0x4 MSTORE PUSH1 0x24 PUSH1 0x0 REVERT JUMPDEST PUSH1 0x40 MLOAD PUSH1 0x1F DUP3 ADD PUSH1 0x1F NOT AND DUP2 ADD PUSH8 0xFFFFFFFFFFFFFFFF DUP2 GT DUP3 DUP3 LT OR ISZERO PUSH2 0x5533 JUMPI PUSH2 0x5533 PUSH2 0x54F4 JUMP JUMPDEST PUSH1 0x40 MSTORE SWAP2 SWAP1 POP JUMP JUMPDEST PUSH1 0x0 DUP3 PUSH1 0x1F DUP4 ADD SLT PUSH2 0x554C JUMPI PUSH1 0x0 DUP1 REVERT JUMPDEST DUP2 CALLDATALOAD PUSH8 0xFFFFFFFFFFFFFFFF DUP2 GT ISZERO PUSH2 0x5566 JUMPI PUSH2 0x5566 PUSH2 0x54F4 JUMP JUMPDEST PUSH2 0x5579 PUSH1 0x1F DUP3 ADD PUSH1 0x1F NOT AND PUSH1 0x20 ADD PUSH2 0x550A JUMP JUMPDEST DUP2 DUP2 MSTORE DUP5 PUSH1 0x20 DUP4 DUP7 ADD ADD GT ISZERO PUSH2 0x558E JUMPI PUSH1 0x0 DUP1 REVERT JUMPDEST DUP2 PUSH1 0x20 DUP6 ADD PUSH1 0x20 DUP4 ADD CALLDATACOPY PUSH1 0x0 SWAP2 DUP2 ADD PUSH1 0x20 ADD SWAP2 SWAP1 SWAP2 MSTORE SWAP4 SWAP3 POP POP POP JUMP JUMPDEST DUP1 CALLDATALOAD PUSH1 0x5 DUP2 LT PUSH2 0x4D44 JUMPI PUSH1 0x0 DUP1 REVERT JUMPDEST PUSH1 0x0 DUP1 PUSH1 0x0 DUP1 PUSH1 0x0 DUP1 PUSH1 0xC0 DUP8 DUP10 SUB SLT ISZERO PUSH2 0x55D3 JUMPI PUSH1 0x0 DUP1 REVERT JUMPDEST DUP7 CALLDATALOAD SWAP6 POP PUSH1 0x20 DUP8 ADD CALLDATALOAD SWAP5 POP PUSH1 0x40 DUP8 ADD CALLDATALOAD PUSH8 0xFFFFFFFFFFFFFFFF DUP1 DUP3 GT ISZERO PUSH2 0x55F9 JUMPI PUSH1 0x0 DUP1 REVERT JUMPDEST PUSH2 0x5605 DUP11 DUP4 DUP12 ADD PUSH2 0x553B JUMP JUMPDEST SWAP6 POP PUSH1 0x60 DUP10 ADD CALLDATALOAD SWAP2 POP DUP1 DUP3 GT ISZERO PUSH2 0x561B JUMPI PUSH1 0x0 DUP1 REVERT JUMPDEST PUSH2 0x5627 DUP11 DUP4 DUP12 ADD PUSH2 0x553B JUMP JUMPDEST SWAP5 POP PUSH1 0x80 DUP10 ADD CALLDATALOAD SWAP2 POP DUP1 DUP3 GT ISZERO PUSH2 0x563D JUMPI PUSH1 0x0 DUP1 REVERT JUMPDEST POP PUSH2 0x564A DUP10 DUP3 DUP11 ADD PUSH2 0x553B JUMP JUMPDEST SWAP3 POP POP PUSH2 0x5659 PUSH1 0xA0 DUP9 ADD PUSH2 0x55AB JUMP JUMPDEST SWAP1 POP SWAP3 SWAP6 POP SWAP3 SWAP6 POP SWAP3 SWAP6 JUMP JUMPDEST PUSH1 0x0 DUP1 PUSH1 0x40 DUP4 DUP6 SUB SLT ISZERO PUSH2 0x5678 JUMPI PUSH1 0x0 DUP1 REVERT JUMPDEST POP POP DUP1 CALLDATALOAD SWAP3 PUSH1 0x20 SWAP1 SWAP2 ADD CALLDATALOAD SWAP2 POP JUMP JUMPDEST PUSH1 0x0 PUSH1 0x20 DUP3 DUP5 SUB SLT ISZERO PUSH2 0x5699 JUMPI PUSH1 0x0 DUP1 REVERT JUMPDEST POP CALLDATALOAD SWAP2 SWAP1 POP JUMP JUMPDEST DUP1 CALLDATALOAD PUSH1 0x1 PUSH1 0x1 PUSH1 0xA0 SHL SUB DUP2 AND DUP2 EQ PUSH2 0x4D44 JUMPI PUSH1 0x0 DUP1 REVERT JUMPDEST PUSH1 0x0 DUP1 PUSH1 0x40 DUP4 DUP6 SUB SLT ISZERO PUSH2 0x56CA JUMPI PUSH1 0x0 DUP1 REVERT JUMPDEST PUSH2 0x56D3 DUP4 PUSH2 0x56A0 JUMP JUMPDEST SWAP5 PUSH1 0x20 SWAP4 SWAP1 SWAP4 ADD CALLDATALOAD SWAP4 POP POP POP JUMP JUMPDEST PUSH4 0x4E487B71 PUSH1 0xE0 SHL PUSH1 0x0 MSTORE PUSH1 0x21 PUSH1 0x4 MSTORE PUSH1 0x24 PUSH1 0x0 REVERT JUMPDEST PUSH1 0x0 DUP2 MLOAD DUP1 DUP5 MSTORE PUSH1 0x0 JUMPDEST DUP2 DUP2 LT ISZERO PUSH2 0x571D JUMPI PUSH1 0x20 DUP2 DUP6 ADD DUP2 ADD MLOAD DUP7 DUP4 ADD DUP3 ADD MSTORE ADD PUSH2 0x5701 JUMP JUMPDEST DUP2 DUP2 GT ISZERO PUSH2 0x572F JUMPI PUSH1 0x0 PUSH1 0x20 DUP4 DUP8 ADD ADD MSTORE JUMPDEST POP PUSH1 0x1F ADD PUSH1 0x1F NOT AND SWAP3 SWAP1 SWAP3 ADD PUSH1 0x20 ADD SWAP3 SWAP2 POP POP JUMP JUMPDEST PUSH1 0x0 PUSH2 0x180 DUP15 DUP4 MSTORE PUSH1 0x2 DUP15 LT PUSH2 0x575C JUMPI PUSH2 0x575C PUSH2 0x56E1 JUMP JUMPDEST DUP14 PUSH1 0x20 DUP5 ADD MSTORE DUP1 PUSH1 0x40 DUP5 ADD MSTORE PUSH2 0x5774 DUP2 DUP5 ADD DUP15 PUSH2 0x56F7 JUMP JUMPDEST SWAP1 POP DUP3 DUP2 SUB PUSH1 0x60 DUP5 ADD MSTORE PUSH2 0x5788 DUP2 DUP14 PUSH2 0x56F7 JUMP JUMPDEST SWAP2 POP POP DUP10 PUSH1 0x80 DUP4 ADD MSTORE DUP9 PUSH1 0xA0 DUP4 ADD MSTORE DUP8 PUSH1 0xC0 DUP4 ADD MSTORE DUP7 ISZERO ISZERO PUSH1 0xE0 DUP4 ADD MSTORE PUSH2 0x57B4 PUSH2 0x100 DUP4 ADD DUP8 ISZERO ISZERO SWAP1 MSTORE JUMP JUMPDEST DUP5 PUSH2 0x120 DUP4 ADD MSTORE DUP4 PUSH2 0x140 DUP4 ADD MSTORE PUSH2 0x57D2 PUSH2 0x160 DUP4 ADD DUP5 PUSH1 0xFF AND SWAP1 MSTORE JUMP JUMPDEST SWAP14 SWAP13 POP POP POP POP POP POP POP POP POP POP POP POP POP JUMP JUMPDEST PUSH1 0x0 DUP1 PUSH1 0x0 PUSH1 0x60 DUP5 DUP7 SUB SLT ISZERO PUSH2 0x57F8 JUMPI PUSH1 0x0 DUP1 REVERT JUMPDEST DUP4 CALLDATALOAD SWAP3 POP PUSH1 0x20 DUP5 ADD CALLDATALOAD SWAP2 POP PUSH2 0x580F PUSH1 0x40 DUP6 ADD PUSH2 0x55AB JUMP JUMPDEST SWAP1 POP SWAP3 POP SWAP3 POP SWAP3 JUMP JUMPDEST PUSH1 0x0 DUP3 PUSH1 0x1F DUP4 ADD SLT PUSH2 0x5829 JUMPI PUSH1 0x0 DUP1 REVERT JUMPDEST DUP2 CALLDATALOAD PUSH1 0x20 PUSH8 0xFFFFFFFFFFFFFFFF DUP3 GT ISZERO PUSH2 0x5845 JUMPI PUSH2 0x5845 PUSH2 0x54F4 JUMP JUMPDEST DUP2 PUSH1 0x5 SHL PUSH2 0x5854 DUP3 DUP3 ADD PUSH2 0x550A JUMP JUMPDEST SWAP3 DUP4 MSTORE DUP5 DUP2 ADD DUP3 ADD SWAP3 DUP3 DUP2 ADD SWAP1 DUP8 DUP6 GT ISZERO PUSH2 0x586E JUMPI PUSH1 0x0 DUP1 REVERT JUMPDEST DUP4 DUP8 ADD SWAP3 POP JUMPDEST DUP5 DUP4 LT ISZERO PUSH2 0x5894 JUMPI PUSH2 0x5885 DUP4 PUSH2 0x56A0 JUMP JUMPDEST DUP3 MSTORE SWAP2 DUP4 ADD SWAP2 SWAP1 DUP4 ADD SWAP1 PUSH2 0x5874 JUMP JUMPDEST SWAP8 SWAP7 POP POP POP POP POP POP POP JUMP JUMPDEST PUSH1 0x0 DUP1 PUSH1 0x0 DUP1 PUSH1 0x0 DUP1 PUSH1 0x0 PUSH1 0xE0 DUP9 DUP11 SUB SLT ISZERO PUSH2 0x58BA JUMPI PUSH1 0x0 DUP1 REVERT JUMPDEST DUP8 CALLDATALOAD PUSH1 0x2 DUP2 LT PUSH2 0x58C9 JUMPI PUSH1 0x0 DUP1 REVERT JUMPDEST SWAP7 POP PUSH1 0x20 DUP9 ADD CALLDATALOAD PUSH8 0xFFFFFFFFFFFFFFFF DUP1 DUP3 GT ISZERO PUSH2 0x58E6 JUMPI PUSH1 0x0 DUP1 REVERT JUMPDEST PUSH2 0x58F2 DUP12 DUP4 DUP13 ADD PUSH2 0x553B JUMP JUMPDEST SWAP8 POP PUSH1 0x40 DUP11 ADD CALLDATALOAD SWAP2 POP DUP1 DUP3 GT ISZERO PUSH2 0x5908 JUMPI PUSH1 0x0 DUP1 REVERT JUMPDEST PUSH2 0x5914 DUP12 DUP4 DUP13 ADD PUSH2 0x553B JUMP JUMPDEST SWAP7 POP PUSH1 0x60 DUP11 ADD CALLDATALOAD SWAP2 POP DUP1 DUP3 GT ISZERO PUSH2 0x592A JUMPI PUSH1 0x0 DUP1 REVERT JUMPDEST POP PUSH2 0x5937 DUP11 DUP3 DUP12 ADD PUSH2 0x5818 JUMP JUMPDEST SWAP8 SWAP11 SWAP7 SWAP10 POP SWAP5 SWAP8 PUSH1 0x80 DUP2 ADD CALLDATALOAD SWAP7 PUSH1 0xA0 DUP3 ADD CALLDATALOAD SWAP7 POP PUSH1 0xC0 SWAP1 SWAP2 ADD CALLDATALOAD SWAP5 POP SWAP3 POP POP POP JUMP JUMPDEST PUSH1 0x0 DUP1 PUSH1 0x0 DUP1 PUSH1 0x0 PUSH1 0xA0 DUP7 DUP9 SUB SLT ISZERO PUSH2 0x5971 JUMPI PUSH1 0x0 DUP1 REVERT JUMPDEST DUP6 CALLDATALOAD SWAP5 POP PUSH1 0x20 DUP7 ADD CALLDATALOAD PUSH8 0xFFFFFFFFFFFFFFFF DUP1 DUP3 GT ISZERO PUSH2 0x5990 JUMPI PUSH1 0x0 DUP1 REVERT JUMPDEST PUSH2 0x599C DUP10 DUP4 DUP11 ADD PUSH2 0x553B JUMP JUMPDEST SWAP6 POP PUSH1 0x40 DUP9 ADD CALLDATALOAD SWAP2 POP DUP1 DUP3 GT ISZERO PUSH2 0x59B2 JUMPI PUSH1 0x0 DUP1 REVERT JUMPDEST PUSH2 0x59BE DUP10 DUP4 DUP11 ADD PUSH2 0x553B JUMP JUMPDEST SWAP5 POP PUSH1 0x60 DUP9 ADD CALLDATALOAD SWAP2 POP DUP1 DUP3 GT ISZERO PUSH2 0x59D4 JUMPI PUSH1 0x0 DUP1 REVERT JUMPDEST POP PUSH2 0x59E1 DUP9 DUP3 DUP10 ADD PUSH2 0x553B JUMP JUMPDEST SWAP3 POP POP PUSH2 0x59F0 PUSH1 0x80 DUP8 ADD PUSH2 0x55AB JUMP JUMPDEST SWAP1 POP SWAP3 SWAP6 POP SWAP3 SWAP6 SWAP1 SWAP4 POP JUMP JUMPDEST PUSH1 0x0 DUP1 PUSH1 0x0 DUP1 PUSH1 0x80 DUP6 DUP8 SUB SLT ISZERO PUSH2 0x5A12 JUMPI PUSH1 0x0 DUP1 REVERT JUMPDEST DUP5 CALLDATALOAD SWAP4 POP PUSH1 0x20 DUP6 ADD CALLDATALOAD SWAP3 POP PUSH1 0x40 DUP6 ADD CALLDATALOAD SWAP2 POP PUSH2 0x5A30 PUSH1 0x60 DUP7 ADD PUSH2 0x55AB JUMP JUMPDEST SWAP1 POP SWAP3 SWAP6 SWAP2 SWAP5 POP SWAP3 POP JUMP JUMPDEST PUSH1 0x0 DUP1 PUSH1 0x0 DUP1 PUSH1 0x0 DUP1 PUSH1 0x0 PUSH1 0xE0 DUP9 DUP11 SUB SLT ISZERO PUSH2 0x5A56 JUMPI PUSH1 0x0 DUP1 REVERT JUMPDEST DUP8 CALLDATALOAD SWAP7 POP PUSH1 0x20 DUP9 ADD CALLDATALOAD SWAP6 POP PUSH1 0x40 DUP9 ADD CALLDATALOAD SWAP5 POP PUSH1 0x60 DUP9 ADD CALLDATALOAD PUSH8 0xFFFFFFFFFFFFFFFF DUP1 DUP3 GT ISZERO PUSH2 0x5A83 JUMPI PUSH1 0x0 DUP1 REVERT JUMPDEST PUSH2 0x5A8F DUP12 DUP4 DUP13 ADD PUSH2 0x553B JUMP JUMPDEST SWAP6 POP PUSH1 0x80 DUP11 ADD CALLDATALOAD SWAP2 POP DUP1 DUP3 GT ISZERO PUSH2 0x5AA5 JUMPI PUSH1 0x0 DUP1 REVERT JUMPDEST PUSH2 0x5AB1 DUP12 DUP4 DUP13 ADD PUSH2 0x553B JUMP JUMPDEST SWAP5 POP PUSH1 0xA0 DUP11 ADD CALLDATALOAD SWAP2 POP DUP1 DUP3 GT ISZERO PUSH2 0x5AC7 JUMPI PUSH1 0x0 DUP1 REVERT JUMPDEST POP PUSH2 0x5AD4 DUP11 DUP3 DUP12 ADD PUSH2 0x553B JUMP JUMPDEST SWAP3 POP POP PUSH2 0x5AE3 PUSH1 0xC0 DUP10 ADD PUSH2 0x55AB JUMP JUMPDEST SWAP1 POP SWAP3 SWAP6 SWAP9 SWAP2 SWAP5 SWAP8 POP SWAP3 SWAP6 POP JUMP JUMPDEST PUSH1 0x0 DUP1 PUSH1 0x40 DUP4 DUP6 SUB SLT ISZERO PUSH2 0x5B04 JUMPI PUSH1 0x0 DUP1 REVERT JUMPDEST DUP3 CALLDATALOAD SWAP2 POP PUSH2 0x5B14 PUSH1 0x20 DUP5 ADD PUSH2 0x55AB JUMP JUMPDEST SWAP1 POP SWAP3 POP SWAP3 SWAP1 POP JUMP JUMPDEST PUSH1 0x5 DUP2 LT PUSH2 0x5391 JUMPI PUSH2 0x5391 PUSH2 0x56E1 JUMP JUMPDEST PUSH1 0x0 PUSH1 0x20 DUP1 DUP4 ADD DUP2 DUP5 MSTORE DUP1 DUP6 MLOAD DUP1 DUP4 MSTORE PUSH1 0x40 SWAP3 POP DUP3 DUP7 ADD SWAP2 POP DUP3 DUP2 PUSH1 0x5 SHL DUP8 ADD ADD DUP5 DUP9 ADD PUSH1 0x0 JUMPDEST DUP4 DUP2 LT ISZERO PUSH2 0x5BD4 JUMPI PUSH1 0x3F NOT DUP10 DUP5 SUB ADD DUP6 MSTORE DUP2 MLOAD PUSH1 0x80 DUP2 MLOAD DUP2 DUP7 MSTORE PUSH2 0x5B7A DUP3 DUP8 ADD DUP3 PUSH2 0x56F7 JUMP JUMPDEST SWAP2 POP POP DUP9 DUP3 ADD MLOAD DUP6 DUP3 SUB DUP11 DUP8 ADD MSTORE PUSH2 0x5B92 DUP3 DUP3 PUSH2 0x56F7 JUMP JUMPDEST SWAP2 POP POP DUP8 DUP3 ADD MLOAD PUSH2 0x5BA2 DUP2 PUSH2 0x5B1D JUMP JUMPDEST DUP6 DUP10 ADD MSTORE PUSH1 0x60 SWAP2 DUP3 ADD MLOAD DUP6 DUP3 SUB SWAP3 DUP7 ADD SWAP3 SWAP1 SWAP3 MSTORE PUSH2 0x5BC0 DUP2 DUP4 PUSH2 0x56F7 JUMP JUMPDEST SWAP7 DUP10 ADD SWAP7 SWAP5 POP POP POP SWAP1 DUP7 ADD SWAP1 PUSH1 0x1 ADD PUSH2 0x5B54 JUMP JUMPDEST POP SWAP1 SWAP9 SWAP8 POP POP POP POP POP POP POP POP JUMP JUMPDEST PUSH1 0x0 PUSH2 0x100 DUP11 DUP4 MSTORE PUSH2 0x5BF3 DUP11 PUSH2 0x5B1D JUMP JUMPDEST DUP10 PUSH1 0x20 DUP5 ADD MSTORE PUSH1 0x1 PUSH1 0x1 PUSH1 0xA0 SHL SUB DUP10 AND PUSH1 0x40 DUP5 ADD MSTORE DUP1 PUSH1 0x60 DUP5 ADD MSTORE PUSH2 0x5C1A DUP2 DUP5 ADD DUP10 PUSH2 0x56F7 JUMP JUMPDEST SWAP1 POP DUP3 DUP2 SUB PUSH1 0x80 DUP5 ADD MSTORE PUSH2 0x5C2E DUP2 DUP9 PUSH2 0x56F7 JUMP JUMPDEST PUSH1 0xA0 DUP5 ADD SWAP7 SWAP1 SWAP7 MSTORE POP POP PUSH1 0xC0 DUP2 ADD SWAP3 SWAP1 SWAP3 MSTORE PUSH1 0xE0 SWAP1 SWAP2 ADD MSTORE SWAP6 SWAP5 POP POP POP POP POP JUMP JUMPDEST PUSH4 0x4E487B71 PUSH1 0xE0 SHL PUSH1 0x0 MSTORE PUSH1 0x32 PUSH1 0x4 MSTORE PUSH1 0x24 PUSH1 0x0 REVERT JUMPDEST PUSH4 0x4E487B71 PUSH1 0xE0 SHL PUSH1 0x0 MSTORE PUSH1 0x11 PUSH1 0x4 MSTORE PUSH1 0x24 PUSH1 0x0 REVERT JUMPDEST PUSH1 0x0 PUSH1 0x1 DUP3 ADD PUSH2 0x5C8D JUMPI PUSH2 0x5C8D PUSH2 0x5C65 JUMP JUMPDEST POP PUSH1 0x1 ADD SWAP1 JUMP JUMPDEST PUSH4 0x4E487B71 PUSH1 0xE0 SHL PUSH1 0x0 MSTORE PUSH1 0x12 PUSH1 0x4 MSTORE PUSH1 0x24 PUSH1 0x0 REVERT JUMPDEST PUSH1 0x0 PUSH1 0xFF DUP4 AND DUP1 PUSH2 0x5CBD JUMPI PUSH2 0x5CBD PUSH2 0x5C94 JUMP JUMPDEST DUP1 PUSH1 0xFF DUP5 AND DIV SWAP2 POP POP SWAP3 SWAP2 POP POP JUMP JUMPDEST PUSH1 0x1 DUP2 DUP2 SHR SWAP1 DUP3 AND DUP1 PUSH2 0x5CE0 JUMPI PUSH1 0x7F DUP3 AND SWAP2 POP JUMPDEST PUSH1 0x20 DUP3 LT DUP2 SUB PUSH2 0x4D42 JUMPI PUSH4 0x4E487B71 PUSH1 0xE0 SHL PUSH1 0x0 MSTORE PUSH1 0x22 PUSH1 0x4 MSTORE PUSH1 0x24 PUSH1 0x0 REVERT JUMPDEST PUSH1 0x0 DUP3 NOT DUP3 GT ISZERO PUSH2 0x5D13 JUMPI PUSH2 0x5D13 PUSH2 0x5C65 JUMP JUMPDEST POP ADD SWAP1 JUMP JUMPDEST PUSH1 0x0 DUP3 DUP3 LT ISZERO PUSH2 0x5D2A JUMPI PUSH2 0x5D2A PUSH2 0x5C65 JUMP JUMPDEST POP SUB SWAP1 JUMP JUMPDEST PUSH1 0x0 PUSH1 0x40 DUP3 ADD PUSH1 0x40 DUP4 MSTORE DUP1 DUP6 SLOAD DUP1 DUP4 MSTORE PUSH1 0x60 DUP6 ADD SWAP2 POP DUP7 PUSH1 0x0 MSTORE PUSH1 0x20 SWAP3 POP DUP3 PUSH1 0x0 KECCAK256 PUSH1 0x0 JUMPDEST DUP3 DUP2 LT ISZERO PUSH2 0x5D79 JUMPI DUP2 SLOAD PUSH1 0x1 PUSH1 0x1 PUSH1 0xA0 SHL SUB AND DUP5 MSTORE SWAP3 DUP5 ADD SWAP3 PUSH1 0x1 SWAP2 DUP3 ADD SWAP2 ADD PUSH2 0x5D54 JUMP JUMPDEST POP POP POP SWAP3 ADD SWAP3 SWAP1 SWAP3 MSTORE SWAP3 SWAP2 POP POP JUMP JUMPDEST PUSH4 0x4E487B71 PUSH1 0xE0 SHL PUSH1 0x0 MSTORE PUSH1 0x31 PUSH1 0x4 MSTORE PUSH1 0x24 PUSH1 0x0 REVERT JUMPDEST PUSH1 0x0 DUP2 PUSH1 0x0 NOT DIV DUP4 GT DUP3 ISZERO ISZERO AND ISZERO PUSH2 0x5DB8 JUMPI PUSH2 0x5DB8 PUSH2 0x5C65 JUMP JUMPDEST POP MUL SWAP1 JUMP JUMPDEST PUSH1 0x0 DUP3 PUSH2 0x5DCC JUMPI PUSH2 0x5DCC PUSH2 0x5C94 JUMP JUMPDEST POP DIV SWAP1 JUMP INVALID LOG1 PUSH5 0x736F6C6343 STOP ADDMOD 0xE STOP EXP "},"methodIdentifiers":{"addDonationProjectMediaItem(uint256,string,string,string,uint8)":"8398b7c1","addWithdrawalRequestMediaItem(uint256,uint256,string,string,string,uint8)":"22043b5c","approveDonationProject(uint256)":"56c6ebfe","approveWithdrawalRequest(uint256,uint256)":"3866b6a3","clearWithdrawalRequestMediaItems(uint256,uint256,uint8)":"5121959f","committeeProjects(address,uint256)":"f7d6ab46","createDonationProject(uint8,string,string,address[],uint256,uint256,uint256)":"708cdfe6","createWithdrawalRequest(uint256,uint256)":"67dbca0e","deleteDonationProjectMediaItem(uint256,uint256,uint8)":"fcc686a9","deleteWithdrawalRequestMediaItem(uint256,uint256,uint256,uint8)":"a7dbcb76","donaStaff(uint256)":"3238d32f","donationHistory(address,uint256)":"3d31bdb4","donationProjects(uint256)":"4b720bbf","editDonationProjectMediaItem(uint256,uint256,string,string,string,uint8)":"fb812a0b","editWithdrawalRequestMediaItem(uint256,uint256,uint256,string,string,string,uint8)":"b00d29e8","finalizeDonations(uint256)":"e25edc31","fullyApproveWithdrawalRequest(uint256,uint256)":"56ac0d65","getDonationProjectMediaItems(uint256,uint8)":"b42766fa","getProjectDonatedFunds(uint256)":"f4c88b69","getProjectWithdrawnFunds(uint256)":"da1c6daf","getWithdrawalRequestMediaItems(uint256,uint256,uint8)":"d630b812","isUserDonaStaff()":"f49e7300","makeDonation(uint256)":"b219f916","numberOfDonationProjects()":"a17a37dd","numberOfWithdrawalRequests()":"88cd1b63","organizingProjects(address,uint256)":"b97c6b59","owner()":"8da5cb5b","recalculateWithdrawalRequestVotes(uint256,uint256)":"56f9c416","rejectWithdrawalRequest(uint256,uint256)":"3138f026","totalDonationsReceived()":"862e2fc8","totalDonationsUtilized()":"a80098b0","totalTargetAmount()":"2b95b559","withdrawFunds(uint256,uint256)":"e5253105","withdrawalRequests(uint256,uint256)":"da903d13"}}}}}