{
  "_format": "hh-sol-artifact-1",
  "contractName": "DonaTheta",
  "sourceName": "contracts/DonaTheta.sol",
  "abi": [
    {
      "inputs": [],
      "stateMutability": "nonpayable",
      "type": "constructor"
    },
    {
      "anonymous": false,
      "inputs": [
        {
          "indexed": true,
          "internalType": "uint256",
          "name": "projectId",
          "type": "uint256"
        },
        {
          "indexed": false,
          "internalType": "address",
          "name": "donor",
          "type": "address"
        },
        {
          "indexed": false,
          "internalType": "uint256",
          "name": "amount",
          "type": "uint256"
        }
      ],
      "name": "DonationMade",
      "type": "event"
    },
    {
      "anonymous": false,
      "inputs": [
        {
          "indexed": true,
          "internalType": "uint256",
          "name": "projectId",
          "type": "uint256"
        }
      ],
      "name": "DonationProjectApproved",
      "type": "event"
    },
    {
      "anonymous": false,
      "inputs": [
        {
          "indexed": true,
          "internalType": "uint256",
          "name": "projectId",
          "type": "uint256"
        },
        {
          "indexed": false,
          "internalType": "address[]",
          "name": "organizers",
          "type": "address[]"
        },
        {
          "indexed": false,
          "internalType": "uint256",
          "name": "donationTarget",
          "type": "uint256"
        }
      ],
      "name": "DonationProjectCreated",
      "type": "event"
    },
    {
      "anonymous": false,
      "inputs": [
        {
          "indexed": true,
          "internalType": "uint256",
          "name": "projectId",
          "type": "uint256"
        }
      ],
      "name": "DonationProjectFinalized",
      "type": "event"
    },
    {
      "anonymous": false,
      "inputs": [
        {
          "indexed": true,
          "internalType": "uint256",
          "name": "projectId",
          "type": "uint256"
        },
        {
          "indexed": false,
          "internalType": "uint256",
          "name": "requestId",
          "type": "uint256"
        },
        {
          "indexed": false,
          "internalType": "uint256",
          "name": "amount",
          "type": "uint256"
        }
      ],
      "name": "WithdrawalExecuted",
      "type": "event"
    },
    {
      "inputs": [
        {
          "internalType": "address",
          "name": "member",
          "type": "address"
        }
      ],
      "name": "addDonaStaffMember",
      "outputs": [],
      "stateMutability": "nonpayable",
      "type": "function"
    },
    {
      "inputs": [
        {
          "internalType": "uint256",
          "name": "projectId",
          "type": "uint256"
        },
        {
          "internalType": "string",
          "name": "name",
          "type": "string"
        },
        {
          "internalType": "string",
          "name": "description",
          "type": "string"
        },
        {
          "internalType": "string",
          "name": "url",
          "type": "string"
        },
        {
          "internalType": "enum DonaTheta.MediaItemType",
          "name": "mediaItemType",
          "type": "uint8"
        }
      ],
      "name": "addDonationProjectMediaItem",
      "outputs": [],
      "stateMutability": "nonpayable",
      "type": "function"
    },
    {
      "inputs": [
        {
          "internalType": "uint256",
          "name": "projectId",
          "type": "uint256"
        },
        {
          "internalType": "uint256",
          "name": "requestId",
          "type": "uint256"
        },
        {
          "internalType": "string",
          "name": "name",
          "type": "string"
        },
        {
          "internalType": "string",
          "name": "description",
          "type": "string"
        },
        {
          "internalType": "string",
          "name": "url",
          "type": "string"
        },
        {
          "internalType": "enum DonaTheta.MediaItemType",
          "name": "mediaItemType",
          "type": "uint8"
        }
      ],
      "name": "addWithdrawalRequestMediaItem",
      "outputs": [],
      "stateMutability": "nonpayable",
      "type": "function"
    },
    {
      "inputs": [
        {
          "internalType": "uint256",
          "name": "projectId",
          "type": "uint256"
        }
      ],
      "name": "approveDonationProject",
      "outputs": [],
      "stateMutability": "nonpayable",
      "type": "function"
    },
    {
      "inputs": [
        {
          "internalType": "uint256",
          "name": "projectId",
          "type": "uint256"
        },
        {
          "internalType": "uint256",
          "name": "requestId",
          "type": "uint256"
        }
      ],
      "name": "approveWithdrawalRequest",
      "outputs": [],
      "stateMutability": "nonpayable",
      "type": "function"
    },
    {
      "inputs": [
        {
          "internalType": "uint256",
          "name": "projectId",
          "type": "uint256"
        },
        {
          "internalType": "uint256",
          "name": "requestId",
          "type": "uint256"
        },
        {
          "internalType": "enum DonaTheta.MediaItemType",
          "name": "mediaItemType",
          "type": "uint8"
        }
      ],
      "name": "clearWithdrawalRequestMediaItems",
      "outputs": [],
      "stateMutability": "nonpayable",
      "type": "function"
    },
    {
      "inputs": [
        {
          "internalType": "enum DonaTheta.DonationPeriodType",
          "name": "donationPeriodType",
          "type": "uint8"
        },
        {
          "internalType": "string",
          "name": "projectName",
          "type": "string"
        },
        {
          "internalType": "string",
          "name": "projectDescription",
          "type": "string"
        },
        {
          "internalType": "address[]",
          "name": "organizers",
          "type": "address[]"
        },
        {
          "internalType": "uint256",
          "name": "donationTarget",
          "type": "uint256"
        },
        {
          "internalType": "uint256",
          "name": "startDonationDate",
          "type": "uint256"
        },
        {
          "internalType": "uint256",
          "name": "endDonationDate",
          "type": "uint256"
        }
      ],
      "name": "createDonationProject",
      "outputs": [],
      "stateMutability": "nonpayable",
      "type": "function"
    },
    {
      "inputs": [
        {
          "internalType": "uint256",
          "name": "projectId",
          "type": "uint256"
        },
        {
          "internalType": "string",
          "name": "requestName",
          "type": "string"
        },
        {
          "internalType": "string",
          "name": "requestDescription",
          "type": "string"
        },
        {
          "internalType": "uint256",
          "name": "amount",
          "type": "uint256"
        }
      ],
      "name": "createWithdrawalRequest",
      "outputs": [],
      "stateMutability": "nonpayable",
      "type": "function"
    },
    {
      "inputs": [
        {
          "internalType": "uint256",
          "name": "projectId",
          "type": "uint256"
        },
        {
          "internalType": "uint256",
          "name": "mediaItemIndex",
          "type": "uint256"
        },
        {
          "internalType": "enum DonaTheta.MediaItemType",
          "name": "mediaItemType",
          "type": "uint8"
        }
      ],
      "name": "deleteDonationProjectMediaItem",
      "outputs": [],
      "stateMutability": "nonpayable",
      "type": "function"
    },
    {
      "inputs": [
        {
          "internalType": "uint256",
          "name": "projectId",
          "type": "uint256"
        },
        {
          "internalType": "uint256",
          "name": "requestId",
          "type": "uint256"
        },
        {
          "internalType": "uint256",
          "name": "mediaItemIndex",
          "type": "uint256"
        },
        {
          "internalType": "enum DonaTheta.MediaItemType",
          "name": "mediaItemType",
          "type": "uint8"
        }
      ],
      "name": "deleteWithdrawalRequestMediaItem",
      "outputs": [],
      "stateMutability": "nonpayable",
      "type": "function"
    },
    {
      "inputs": [
        {
          "internalType": "uint256",
          "name": "",
          "type": "uint256"
        }
      ],
      "name": "donaStaff",
      "outputs": [
        {
          "internalType": "address",
          "name": "",
          "type": "address"
        }
      ],
      "stateMutability": "view",
      "type": "function"
    },
    {
      "inputs": [
        {
          "internalType": "uint256",
          "name": "projectId",
          "type": "uint256"
        },
        {
          "internalType": "uint256",
          "name": "mediaItemIndex",
          "type": "uint256"
        },
        {
          "internalType": "string",
          "name": "name",
          "type": "string"
        },
        {
          "internalType": "string",
          "name": "description",
          "type": "string"
        },
        {
          "internalType": "string",
          "name": "url",
          "type": "string"
        },
        {
          "internalType": "enum DonaTheta.MediaItemType",
          "name": "mediaItemType",
          "type": "uint8"
        }
      ],
      "name": "editDonationProjectMediaItem",
      "outputs": [],
      "stateMutability": "nonpayable",
      "type": "function"
    },
    {
      "inputs": [
        {
          "internalType": "uint256",
          "name": "projectId",
          "type": "uint256"
        },
        {
          "internalType": "uint256",
          "name": "requestId",
          "type": "uint256"
        },
        {
          "internalType": "uint256",
          "name": "mediaItemIndex",
          "type": "uint256"
        },
        {
          "internalType": "string",
          "name": "name",
          "type": "string"
        },
        {
          "internalType": "string",
          "name": "description",
          "type": "string"
        },
        {
          "internalType": "string",
          "name": "url",
          "type": "string"
        },
        {
          "internalType": "enum DonaTheta.MediaItemType",
          "name": "mediaItemType",
          "type": "uint8"
        }
      ],
      "name": "editWithdrawalRequestMediaItem",
      "outputs": [],
      "stateMutability": "nonpayable",
      "type": "function"
    },
    {
      "inputs": [
        {
          "internalType": "uint256",
          "name": "_projectId",
          "type": "uint256"
        }
      ],
      "name": "finalizeDonations",
      "outputs": [],
      "stateMutability": "nonpayable",
      "type": "function"
    },
    {
      "inputs": [],
      "name": "getDonaStaffMembers",
      "outputs": [
        {
          "internalType": "address[]",
          "name": "",
          "type": "address[]"
        }
      ],
      "stateMutability": "view",
      "type": "function"
    },
    {
      "inputs": [
        {
          "internalType": "uint256",
          "name": "projectId",
          "type": "uint256"
        },
        {
          "internalType": "enum DonaTheta.MediaItemType",
          "name": "mediaItemType",
          "type": "uint8"
        }
      ],
      "name": "getDonationProjectMediaItems",
      "outputs": [
        {
          "components": [
            {
              "internalType": "string",
              "name": "name",
              "type": "string"
            },
            {
              "internalType": "string",
              "name": "description",
              "type": "string"
            },
            {
              "internalType": "enum DonaTheta.MediaItemType",
              "name": "mediaItemType",
              "type": "uint8"
            },
            {
              "internalType": "string",
              "name": "url",
              "type": "string"
            }
          ],
          "internalType": "struct DonaTheta.MediaItem[]",
          "name": "",
          "type": "tuple[]"
        }
      ],
      "stateMutability": "view",
      "type": "function"
    },
    {
      "inputs": [
        {
          "internalType": "uint256",
          "name": "projectId",
          "type": "uint256"
        },
        {
          "internalType": "uint8",
          "name": "requestType",
          "type": "uint8"
        }
      ],
      "name": "getDonationProjectNumericalDetails",
      "outputs": [
        {
          "internalType": "uint256",
          "name": "",
          "type": "uint256"
        }
      ],
      "stateMutability": "view",
      "type": "function"
    },
    {
      "inputs": [
        {
          "internalType": "uint256",
          "name": "projectId",
          "type": "uint256"
        },
        {
          "internalType": "uint256",
          "name": "requestType",
          "type": "uint256"
        }
      ],
      "name": "getDonationProjectTextDetails",
      "outputs": [
        {
          "internalType": "string",
          "name": "",
          "type": "string"
        }
      ],
      "stateMutability": "view",
      "type": "function"
    },
    {
      "inputs": [],
      "name": "getUnapprovedDonationProjects",
      "outputs": [
        {
          "internalType": "uint256[]",
          "name": "",
          "type": "uint256[]"
        }
      ],
      "stateMutability": "view",
      "type": "function"
    },
    {
      "inputs": [
        {
          "internalType": "uint256",
          "name": "requestType",
          "type": "uint256"
        }
      ],
      "name": "getUserProjects",
      "outputs": [
        {
          "internalType": "uint256[]",
          "name": "",
          "type": "uint256[]"
        }
      ],
      "stateMutability": "view",
      "type": "function"
    },
    {
      "inputs": [
        {
          "internalType": "uint256",
          "name": "projectId",
          "type": "uint256"
        },
        {
          "internalType": "uint256",
          "name": "requestId",
          "type": "uint256"
        },
        {
          "internalType": "enum DonaTheta.MediaItemType",
          "name": "mediaItemType",
          "type": "uint8"
        }
      ],
      "name": "getWithdrawalRequestMediaItems",
      "outputs": [
        {
          "components": [
            {
              "internalType": "string",
              "name": "name",
              "type": "string"
            },
            {
              "internalType": "string",
              "name": "description",
              "type": "string"
            },
            {
              "internalType": "enum DonaTheta.MediaItemType",
              "name": "mediaItemType",
              "type": "uint8"
            },
            {
              "internalType": "string",
              "name": "url",
              "type": "string"
            }
          ],
          "internalType": "struct DonaTheta.MediaItem[]",
          "name": "",
          "type": "tuple[]"
        }
      ],
      "stateMutability": "view",
      "type": "function"
    },
    {
      "inputs": [
        {
          "internalType": "uint256",
          "name": "projectId",
          "type": "uint256"
        },
        {
          "internalType": "uint256",
          "name": "requestId",
          "type": "uint256"
        },
        {
          "internalType": "uint8",
          "name": "requestType",
          "type": "uint8"
        }
      ],
      "name": "getWithdrawalRequestNumericalDetails",
      "outputs": [
        {
          "internalType": "uint256",
          "name": "",
          "type": "uint256"
        }
      ],
      "stateMutability": "view",
      "type": "function"
    },
    {
      "inputs": [
        {
          "internalType": "uint256",
          "name": "projectId",
          "type": "uint256"
        },
        {
          "internalType": "uint256",
          "name": "requestId",
          "type": "uint256"
        }
      ],
      "name": "getWithdrawalRequestOwner",
      "outputs": [
        {
          "internalType": "address",
          "name": "",
          "type": "address"
        }
      ],
      "stateMutability": "view",
      "type": "function"
    },
    {
      "inputs": [
        {
          "internalType": "uint256",
          "name": "projectId",
          "type": "uint256"
        },
        {
          "internalType": "uint256",
          "name": "requestId",
          "type": "uint256"
        },
        {
          "internalType": "uint8",
          "name": "requestType",
          "type": "uint8"
        }
      ],
      "name": "getWithdrawalRequestTextDetails",
      "outputs": [
        {
          "internalType": "string",
          "name": "",
          "type": "string"
        }
      ],
      "stateMutability": "view",
      "type": "function"
    },
    {
      "inputs": [],
      "name": "isUserDonaStaff",
      "outputs": [
        {
          "internalType": "bool",
          "name": "",
          "type": "bool"
        }
      ],
      "stateMutability": "view",
      "type": "function"
    },
    {
      "inputs": [
        {
          "internalType": "uint256",
          "name": "projectId",
          "type": "uint256"
        }
      ],
      "name": "makeDonation",
      "outputs": [],
      "stateMutability": "payable",
      "type": "function"
    },
    {
      "inputs": [],
      "name": "numberOfDonationProjects",
      "outputs": [
        {
          "internalType": "uint256",
          "name": "",
          "type": "uint256"
        }
      ],
      "stateMutability": "view",
      "type": "function"
    },
    {
      "inputs": [],
      "name": "owner",
      "outputs": [
        {
          "internalType": "address",
          "name": "",
          "type": "address"
        }
      ],
      "stateMutability": "view",
      "type": "function"
    },
    {
      "inputs": [
        {
          "internalType": "uint256",
          "name": "projectId",
          "type": "uint256"
        },
        {
          "internalType": "uint256",
          "name": "requestId",
          "type": "uint256"
        }
      ],
      "name": "rejectWithdrawalRequest",
      "outputs": [],
      "stateMutability": "nonpayable",
      "type": "function"
    },
    {
      "inputs": [],
      "name": "totalDonationsReceived",
      "outputs": [
        {
          "internalType": "uint256",
          "name": "",
          "type": "uint256"
        }
      ],
      "stateMutability": "view",
      "type": "function"
    },
    {
      "inputs": [],
      "name": "totalDonationsUtilized",
      "outputs": [
        {
          "internalType": "uint256",
          "name": "",
          "type": "uint256"
        }
      ],
      "stateMutability": "view",
      "type": "function"
    },
    {
      "inputs": [],
      "name": "totalTargetAmount",
      "outputs": [
        {
          "internalType": "uint256",
          "name": "",
          "type": "uint256"
        }
      ],
      "stateMutability": "view",
      "type": "function"
    },
    {
      "inputs": [
        {
          "internalType": "uint256",
          "name": "projectId",
          "type": "uint256"
        },
        {
          "internalType": "uint256",
          "name": "requestId",
          "type": "uint256"
        }
      ],
      "name": "withdrawFunds",
      "outputs": [],
      "stateMutability": "nonpayable",
      "type": "function"
    }
  ],
  "bytecode": "0x6080604052600060025534801561001557600080fd5b50600080546001600160a01b03191633179055615d7a80620000386000396000f3fe6080604052600436106101fe5760003560e01c8063a17a37dd1161011d578063c2d1a1af116100b0578063e52531051161007f578063fb812a0b11610064578063fb812a0b14610653578063fcc686a914610673578063fec3afed1461069357600080fd5b8063e52531051461060e578063f49e73001461062e57600080fd5b8063c2d1a1af1461058c578063d630b812146105ae578063dd931eec146105ce578063e25edc31146105ee57600080fd5b8063b00d29e8116100ec578063b00d29e81461050c578063b219f9161461052c578063b42766fa1461053f578063b7aebde21461056c57600080fd5b8063a17a37dd14610493578063a7dbcb76146104a9578063a80098b0146104c9578063a98b15f0146104df57600080fd5b806356c6ebfe11610195578063862e2fc811610164578063862e2fc8146103f257806387a7fcbc146104085780638da5cb5b146104515780639eef250c1461047157600080fd5b806356c6ebfe1461037257806359f822ae14610392578063708cdfe6146103b25780638398b7c1146103d257600080fd5b806331b03254116101d157806331b03254146102da5780633238d32f146102fa5780633866b6a3146103325780635121959f1461035257600080fd5b806322043b5c146102035780632a957529146102255780632b95b559146102915780633138f026146102ba575b600080fd5b34801561020f57600080fd5b5061022361021e366004615559565b6106b3565b005b34801561023157600080fd5b5061022361024036600461561b565b6001805480820182556000919091527fb10e2d527612073b26eecdfd717e6a320cf44b4afac2b0732d9fcbe2b7fa0cf60180546001600160a01b0319166001600160a01b0392909216919091179055565b34801561029d57600080fd5b506102a760035481565b6040519081526020015b60405180910390f35b3480156102c657600080fd5b506102236102d5366004615636565b6109fd565b3480156102e657600080fd5b506102a76102f5366004615669565b610e7f565b34801561030657600080fd5b5061031a61031536600461569e565b610f59565b6040516001600160a01b0390911681526020016102b1565b34801561033e57600080fd5b5061022361034d366004615636565b610f83565b34801561035e57600080fd5b5061022361036d3660046156b7565b6113f0565b34801561037e57600080fd5b5061022361038d36600461569e565b61163e565b34801561039e57600080fd5b506102a76103ad3660046156e3565b61186d565b3480156103be57600080fd5b506102236103cd366004615796565b6119b5565b3480156103de57600080fd5b506102236103ed366004615850565b611cfa565b3480156103fe57600080fd5b506102a760045481565b34801561041457600080fd5b5061031a610423366004615636565b600091825260086020908152604080842092845291905290206001015461010090046001600160a01b031690565b34801561045d57600080fd5b5060005461031a906001600160a01b031681565b34801561047d57600080fd5b50610486611fd4565b6040516102b191906158f3565b34801561049f57600080fd5b506102a760025481565b3480156104b557600080fd5b506102236104c4366004615937565b61202c565b3480156104d557600080fd5b506102a760055481565b3480156104eb57600080fd5b506104ff6104fa366004615669565b612369565b6040516102b191906159c3565b34801561051857600080fd5b506102236105273660046159d6565b612454565b61022361053a36600461569e565b6126d9565b34801561054b57600080fd5b5061055f61055a366004615a8c565b612a30565b6040516102b19190615ac5565b34801561057857600080fd5b50610223610587366004615b8e565b6133bd565b34801561059857600080fd5b506105a16135e2565b6040516102b19190615c03565b3480156105ba57600080fd5b5061055f6105c93660046156b7565b613643565b3480156105da57600080fd5b506104866105e936600461569e565b613ff0565b3480156105fa57600080fd5b5061022361060936600461569e565b6140c7565b34801561061a57600080fd5b50610223610629366004615636565b6148aa565b34801561063a57600080fd5b50610643614bfc565b60405190151581526020016102b1565b34801561065f57600080fd5b5061022361066e366004615559565b614c62565b34801561067f57600080fd5b5061022361068e3660046156b7565b614eac565b34801561069f57600080fd5b506104ff6106ae366004615636565b6151bc565b60008681526007602052604081208791805b600483015460ff8216101561071857826004018160ff16815481106106ec576106ec615c44565b6000918252602090912001546001600160a01b031633036107105760019150610718565b6001016106c5565b50806107915760405162461bcd60e51b815260206004820152603d60248201527f54686520616374696f6e2063616e206f6e6c7920626520706572666f726d656460448201527f206279206f7267616e697a657273206f66207468652070726f6a65637400000060648201526084015b60405180910390fd5b600060405180608001604052808981526020018881526020018660048111156107bc576107bc615aaf565b8152602001879052905060008560048111156107da576107da615aaf565b0361088c5760008a81526008602090815260408083208c8452825282206004908101805460018101825590845292829020845180518695909302909101926108279284929091019061528b565b506020828101518051610840926001850192019061528b565b50604082015160028201805460ff1916600183600481111561086457610864615aaf565b02179055506060820151805161088491600384019160209091019061528b565b5050506109f1565b60028560048111156108a0576108a0615aaf565b036108eb5760008a81526008602090815260408083208c845282528220600601805460018101825590835291819020835180518594600402909201926108279284929091019061528b565b60018560048111156108ff576108ff615aaf565b0361094a5760008a81526008602090815260408083208c845282528220600501805460018101825590835291819020835180518594600402909201926108279284929091019061528b565b600385600481111561095e5761095e615aaf565b036109a95760008a81526008602090815260408083208c845282528220600701805460018101825590835291819020835180518594600402909201926108279284929091019061528b565b60405162461bcd60e51b815260206004820152601760248201527f496e76616c6964206d65646961206974656d20747970650000000000000000006044820152606401610788565b50505050505050505050565b60008281526007602052604081208391805b601283015460ff82161015610a6257826012018160ff1681548110610a3657610a36615c44565b6000918252602090912001546001600160a01b03163303610a5a5760019150610a62565b600101610a0f565b5080610ac05760005b601383015460ff82161015610abe57826013018160ff1681548110610a9257610a92615c44565b6000918252602090912001546001600160a01b03163303610ab65760019150610abe565b600101610a6b565b505b80610b1d5760005b600483015460ff82161015610b1b57826004018160ff1681548110610aef57610aef615c44565b6000918252602090912001546001600160a01b03163303610b135760019150610b1b565b600101610ac8565b505b80610ba45760405162461bcd60e51b815260206004820152604b60248201527f5468697320616374696f6e2063616e206f6e6c7920626520706572666f726d6560448201527f64206279206d656d62657273206f662054686520446f6e6120417070726f766160648201526a6c20436f6d6d697474656560a81b608482015260a401610788565b60008581526008602090815260408083208784529091529020859085906003600182015460ff166003811115610bdc57610bdc615aaf565b03610c415760405162461bcd60e51b815260206004820152602f60248201527f596f752063616e6e6f7420766f7465206f6e20616e20616c726561647920776960448201526e1d1a191c985ddb881c995c5d595cdd608a1b6064820152608401610788565b6000805b600b830154811015610ca557336001600160a01b031683600b018281548110610c7057610c70615c44565b6000918252602090912001546001600160a01b031603610c935760019150610ca5565b80610c9d81615c70565b915050610c45565b5060005b600c830154811015610d0957336001600160a01b031683600c018281548110610cd457610cd4615c44565b6000918252602090912001546001600160a01b031603610cf75760019150610d09565b80610d0181615c70565b915050610ca9565b508015610d675760405162461bcd60e51b815260206004820152602660248201527f596f75206861766520616c726561647920766f746564206f6e20746869732072604482015265195c5d595cdd60d21b6064820152608401610788565b60008981526008602090815260408083208b8452909152812090600182015460ff166003811115610d9a57610d9a615aaf565b14610de75760405162461bcd60e51b815260206004820152601260248201527f52657175657374206973206e6f74206e657700000000000000000000000000006044820152606401610788565b600c810180546001810182556000918252602082200180546001600160a01b03191633179055600a8201805491610e1d83615c70565b909155505060008a81526007602052604081206014810154909190610e479060029060ff16615c9f565b60ff1690508083600a01541115610e71576001808401805460029260ff1990911690835b02179055505b505050505050505050505050565b60008160ff16600003610eae575060008381526008602081815260408084208685529091529091200154610f52565b8160ff16600103610edc57506000838152600860209081526040808320858452909152902060090154610f52565b8160ff16600203610f0a575060008381526008602090815260408083208584529091529020600a0154610f52565b60405162461bcd60e51b815260206004820152601460248201527f496e76616c6964205265717565737420547970650000000000000000000000006044820152606401610788565b9392505050565b60018181548110610f6957600080fd5b6000918252602090912001546001600160a01b0316905081565b60008281526007602052604081208391805b601283015460ff82161015610fe857826012018160ff1681548110610fbc57610fbc615c44565b6000918252602090912001546001600160a01b03163303610fe05760019150610fe8565b600101610f95565b50806110465760005b601383015460ff8216101561104457826013018160ff168154811061101857611018615c44565b6000918252602090912001546001600160a01b0316330361103c5760019150611044565b600101610ff1565b505b806110a35760005b600483015460ff821610156110a157826004018160ff168154811061107557611075615c44565b6000918252602090912001546001600160a01b0316330361109957600191506110a1565b60010161104e565b505b8061112a5760405162461bcd60e51b815260206004820152604b60248201527f5468697320616374696f6e2063616e206f6e6c7920626520706572666f726d6560448201527f64206279206d656d62657273206f662054686520446f6e6120417070726f766160648201526a6c20436f6d6d697474656560a81b608482015260a401610788565b60008581526008602090815260408083208784529091529020859085906003600182015460ff16600381111561116257611162615aaf565b036111c75760405162461bcd60e51b815260206004820152602f60248201527f596f752063616e6e6f7420766f7465206f6e20616e20616c726561647920776960448201526e1d1a191c985ddb881c995c5d595cdd608a1b6064820152608401610788565b6000805b600b83015481101561122b57336001600160a01b031683600b0182815481106111f6576111f6615c44565b6000918252602090912001546001600160a01b031603611219576001915061122b565b8061122381615c70565b9150506111cb565b5060005b600c83015481101561128f57336001600160a01b031683600c01828154811061125a5761125a615c44565b6000918252602090912001546001600160a01b03160361127d576001915061128f565b8061128781615c70565b91505061122f565b5080156112ed5760405162461bcd60e51b815260206004820152602660248201527f596f75206861766520616c726561647920766f746564206f6e20746869732072604482015265195c5d595cdd60d21b6064820152608401610788565b60008981526008602090815260408083208b8452909152812090600182015460ff16600381111561132057611320615aaf565b1461136d5760405162461bcd60e51b815260206004820152601260248201527f52657175657374206973206e6f74206e657700000000000000000000000000006044820152606401610788565b600b810180546001810182556000918252602082200180546001600160a01b03191633179055600982018054916113a383615c70565b909155505060008a815260076020526040812060148101549091906113cd9060029060ff16615c9f565b60ff1690508083600901541115610e71576001838101805460ff19168280610e6b565b600083815260076020526040812090548491906001600160a01b031633148061146b5760005b600483015460ff8216101561146957826004018160ff168154811061143d5761143d615c44565b6000918252602090912001546001600160a01b031633036114615760019150611469565b600101611416565b505b806114ba5760005b6001548110156114b8576001818154811061149057611490615c44565b6000918252602090912001546001600160a01b031633036114b057600191505b600101611473565b505b8061152d5760405162461bcd60e51b815260206004820152603d60248201527f54686520616374696f6e2063616e206f6e6c7920626520706572666f726d656460448201527f206279206f7267616e697a657273206f66207468652070726f6a6563740000006064820152608401610788565b600084600481111561154157611541615aaf565b03611573576000868152600860209081526040808320888452909152812061156e9160049091019061530f565b611636565b600284600481111561158757611587615aaf565b036115b4576000868152600860209081526040808320888452909152812061156e9160069091019061530f565b60018460048111156115c8576115c8615aaf565b036115f5576000868152600860209081526040808320888452909152812061156e9160059091019061530f565b600384600481111561160957611609615aaf565b036109a9576000868152600860209081526040808320888452909152812061156e9160079091019061530f565b505050505050565b6000546001600160a01b031633148061169f5760005b60015481101561169d576001818154811061167157611671615c44565b6000918252602090912001546001600160a01b03163303611695576001915061169d565b600101611654565b505b806116ff5760405162461bcd60e51b815260206004820152602a60248201527f4f6e6c79206f776e6572206f722073746166662063616e2063616c6c207468696044820152693990333ab731ba34b7b760b11b6064820152608401610788565b6000828152600760205260409020600c81015483919060ff16156117655760405162461bcd60e51b815260206004820152601c60248201527f50726f6a65637420697320616c726561647920417070726f76656421000000006044820152606401610788565b6000848152600760205260408120600c8101805460ff19166001179055905b60065481101561183a5785600682815481106117a2576117a2615c44565b90600052602060002001540361182857600680546117c290600190615cc1565b815481106117d2576117d2615c44565b9060005260206000200154600682815481106117f0576117f0615c44565b600091825260209091200155600680548061180d5761180d615cd8565b6001900381819060005260206000200160009055905561183a565b8061183281615c70565b915050611784565b5060405185907f5382406121492e13eb8b00a0122012025548dbd3b07f9b3184c26db775732b2290600090a25050505050565b60008160ff1660000361188f57506000828152600760205260409020546119af565b8160ff166001036118b257506000828152600760205260409020600501546119af565b8160ff166002036118d557506000828152600760205260409020600f01546119af565b8160ff166003036118f857506000828152600760205260409020601001546119af565b8160ff1660040361191b57506000828152600760205260409020600e01546119af565b8160ff1660050361193e57506000828152600760205260409020600601546119af565b8160ff166006036119625750600082815260076020819052604090912001546119af565b8160ff1660070361198557506000828152600760205260409020600d01546119af565b8160ff16600803610f0a575060008281526007602090815260408083203384526011019091529020545b92915050565b6002546000908152600760205260409020600180820180548a9260ff199091169083818111156119e7576119e7615aaf565b02179055508651611a0190600283019060208a019061528b565b508551611a17906003830190602089019061528b565b506000805b8651811015611a7257336001600160a01b0316878281518110611a4157611a41615c44565b60200260200101516001600160a01b031603611a605760019150611a72565b80611a6a81615c70565b915050611a1c565b5080611b7557600086516001611a889190615cee565b67ffffffffffffffff811115611aa057611aa0615493565b604051908082528060200260200182016040528015611ac9578160200160208202803683370190505b50905060005b8751811015611b2e57878181518110611aea57611aea615c44565b6020026020010151828281518110611b0457611b04615c44565b6001600160a01b039092166020928302919091019091015280611b2681615c70565b915050611acf565b503381885181518110611b4357611b43615c44565b6001600160a01b039092166020928302919091018201528151611b6e91600486019190840190615333565b5050611b8c565b8551611b8a9060048401906020890190615333565b505b6002548255600582018590556006820184905560078201839055600c8201805461ffff191690556000600f83018190556010830181905560038054879290611bd5908490615cee565b90915550600090505b6004830154811015611ca85760096000846004018381548110611c0357611c03615c44565b60009182526020808320909101546001600160a01b03168352828101939093526040909101812060025481546001810183559183529282200191909155600484018054600a92919084908110611c5b57611c5b615c44565b60009182526020808320909101546001600160a01b031683528281019390935260409091018120600254815460018101835591835292909120015580611ca081615c70565b915050611bde565b5060025460068054600181810183556000929092527ff652222313e28459528d920b65115c16c04f3efc82aaedc97be59f3f377c0d3f01829055611cec9190615cee565b600255505050505050505050565b60008581526007602052604081208691805b600483015460ff82161015611d5f57826004018160ff1681548110611d3357611d33615c44565b6000918252602090912001546001600160a01b03163303611d575760019150611d5f565b600101611d0c565b5080611dd35760405162461bcd60e51b815260206004820152603d60248201527f54686520616374696f6e2063616e206f6e6c7920626520706572666f726d656460448201527f206279206f7267616e697a657273206f66207468652070726f6a6563740000006064820152608401610788565b60006040518060800160405280898152602001888152602001866004811115611dfe57611dfe615aaf565b815260200187905290506000856004811115611e1c57611e1c615aaf565b03611ec4576000898152600760209081526040822060080180546001810182559083529181902083518051859460040290920192611e5f9284929091019061528b565b506020828101518051611e78926001850192019061528b565b50604082015160028201805460ff19166001836004811115611e9c57611e9c615aaf565b021790555060608201518051611ebc91600384019160209091019061528b565b505050611fc9565b6002856004811115611ed857611ed8615aaf565b03611f1b5760008981526007602090815260408220600a0180546001810182559083529181902083518051859460040290920192611e5f9284929091019061528b565b6001856004811115611f2f57611f2f615aaf565b03611f72576000898152600760209081526040822060090180546001810182559083529181902083518051859460040290920192611e5f9284929091019061528b565b6003856004811115611f8657611f86615aaf565b036109a95760008981526007602090815260408220600b0180546001810182559083529181902083518051859460040290920192611e5f9284929091019061528b565b505050505050505050565b6060600680548060200260200160405190810160405280929190818152602001828054801561202257602002820191906000526020600020905b81548152602001906001019080831161200e575b5050505050905090565b6000546001600160a01b031633148061208d5760005b60015481101561208b576001818154811061205f5761205f615c44565b6000918252602090912001546001600160a01b03163303612083576001915061208b565b600101612042565b505b806120ed5760405162461bcd60e51b815260206004820152602a60248201527f4f6e6c79206f776e6572206f722073746166662063616e2063616c6c207468696044820152693990333ab731ba34b7b760b11b6064820152608401610788565b60008083600481111561210257612102615aaf565b036121295750600085815260086020908152604080832087845290915290206004016121d6565b600283600481111561213d5761213d615aaf565b036121645750600085815260086020908152604080832087845290915290206006016121d6565b600183600481111561217857612178615aaf565b0361219f5750600085815260086020908152604080832087845290915290206005016121d6565b60038360048111156121b3576121b3615aaf565b036109a95750600085815260086020908152604080832087845290915290206007015b805484106122265760405162461bcd60e51b815260206004820152601860248201527f496e76616c6964204d65646961204974656d20496e64657800000000000000006044820152606401610788565b8054819061223690600190615cc1565b8154811061224657612246615c44565b906000526020600020906004020181858154811061226657612266615c44565b9060005260206000209060040201600082018160000190805461228890615d06565b612293929190615388565b5060018201816001019080546122a890615d06565b6122b3929190615388565b50600282810154908201805460ff9092169160ff191660018360048111156122dd576122dd615aaf565b021790555060038201816003019080546122f690615d06565b612301929190615388565b509050508080548061231557612315615cd8565b600082815260208120600019909201916004830201906123358282615403565b612343600183016000615403565b60028201805460ff1916905561235d600383016000615403565b50509055505050505050565b60608160ff166000036124225760008481526008602090815260408083208684529091529020600201805461239d90615d06565b80601f01602080910402602001604051908101604052809291908181526020018280546123c990615d06565b80156124165780601f106123eb57610100808354040283529160200191612416565b820191906000526020600020905b8154815290600101906020018083116123f957829003601f168201915b50505050509050610f52565b8160ff16600103610f0a5760008481526008602090815260408083208684529091529020600301805461239d90615d06565b60008781526007602052604081208891805b600483015460ff821610156124b957826004018160ff168154811061248d5761248d615c44565b6000918252602090912001546001600160a01b031633036124b157600191506124b9565b600101612466565b508061252d5760405162461bcd60e51b815260206004820152603d60248201527f54686520616374696f6e2063616e206f6e6c7920626520706572666f726d656460448201527f206279206f7267616e697a657273206f66207468652070726f6a6563740000006064820152608401610788565b60008085600481111561254257612542615aaf565b03612569575060008a81526008602090815260408083208c84529091529020600401612616565b600285600481111561257d5761257d615aaf565b036125a4575060008a81526008602090815260408083208c84529091529020600601612616565b60018560048111156125b8576125b8615aaf565b036125df575060008a81526008602090815260408083208c84529091529020600501612616565b60038560048111156125f3576125f3615aaf565b036109a9575060008a81526008602090815260408083208c845290915290206007015b805489106126665760405162461bcd60e51b815260206004820152601860248201527f496e76616c6964204d65646961204974656d20496e64657800000000000000006044820152606401610788565b6000818a8154811061267a5761267a615c44565b60009182526020918290208b51600490920201925061269e918391908c019061528b565b5087516126b490600183019060208b019061528b565b5086516126ca90600383019060208a019061528b565b50505050505050505050505050565b6000818152600760205260409020600c81015482919060ff166127645760405162461bcd60e51b815260206004820152602f60248201527f446f6e6174696f6e2063616e206f6e6c792068617070656e206f6e20616e206160448201527f7070726f7665642070726f6a65637400000000000000000000000000000000006064820152608401610788565b600060018083015460ff169081111561277f5761277f615aaf565b036128e3576006810154429081116127ff5760405162461bcd60e51b815260206004820152602d60248201527f446f6e6174696f6e2063616e6e6f742068617070656e206265666f726520736560448201527f6c656374656420706572696f64000000000000000000000000000000000000006064820152608401610788565b816007015481106128785760405162461bcd60e51b815260206004820152602c60248201527f446f6e6174696f6e2063616e6e6f742068617070656e2061667465722073656c60448201527f656374656420706572696f6400000000000000000000000000000000000000006064820152608401610788565b600c820154610100900460ff166128dd5760405162461bcd60e51b8152602060048201526024808201527f54686520446f6e6174696f6e2050726f6a65637420686173206265656e20636c6044820152631bdcd95960e21b6064820152608401610788565b50612962565b600c810154610100900460ff166129625760405162461bcd60e51b815260206004820152603160248201527f54686520446f6e6174696f6e2050726f6a65637420686173206265656e20636c60448201527f6f73656420746f20646f6e6174696f6e730000000000000000000000000000006064820152608401610788565b60008381526007602090815260408220600e8101805460018101825590845291832090910180546001600160a01b03191633179055600f81018054919234926129ac908490615cee565b9091555050336000908152601182016020526040812080543492906129d2908490615cee565b9250508190555034600460008282546129eb9190615cee565b90915550506040805133815234602082015285917fe555da28bdb778f65d22794d88927ebaeca03f7de9d1b7d39245bc8fb5ca078a910160405180910390a250505050565b60606000826004811115612a4657612a46615aaf565b03612c9d57600083815260076020908152604080832060080180548251818502810185019093528083529193909284015b82821015612c925783829060005260206000209060040201604051806080016040529081600082018054612aaa90615d06565b80601f0160208091040260200160405190810160405280929190818152602001828054612ad690615d06565b8015612b235780601f10612af857610100808354040283529160200191612b23565b820191906000526020600020905b815481529060010190602001808311612b0657829003601f168201915b50505050508152602001600182018054612b3c90615d06565b80601f0160208091040260200160405190810160405280929190818152602001828054612b6890615d06565b8015612bb55780601f10612b8a57610100808354040283529160200191612bb5565b820191906000526020600020905b815481529060010190602001808311612b9857829003601f168201915b5050509183525050600282015460209091019060ff166004811115612bdc57612bdc615aaf565b6004811115612bed57612bed615aaf565b8152602001600382018054612c0190615d06565b80601f0160208091040260200160405190810160405280929190818152602001828054612c2d90615d06565b8015612c7a5780601f10612c4f57610100808354040283529160200191612c7a565b820191906000526020600020905b815481529060010190602001808311612c5d57829003601f168201915b50505050508152505081526020019060010190612a77565b5050505090506119af565b6002826004811115612cb157612cb1615aaf565b03612efd576000838152600760209081526040808320600a0180548251818502810185019093528083529193909284015b82821015612c925783829060005260206000209060040201604051806080016040529081600082018054612d1590615d06565b80601f0160208091040260200160405190810160405280929190818152602001828054612d4190615d06565b8015612d8e5780601f10612d6357610100808354040283529160200191612d8e565b820191906000526020600020905b815481529060010190602001808311612d7157829003601f168201915b50505050508152602001600182018054612da790615d06565b80601f0160208091040260200160405190810160405280929190818152602001828054612dd390615d06565b8015612e205780601f10612df557610100808354040283529160200191612e20565b820191906000526020600020905b815481529060010190602001808311612e0357829003601f168201915b5050509183525050600282015460209091019060ff166004811115612e4757612e47615aaf565b6004811115612e5857612e58615aaf565b8152602001600382018054612e6c90615d06565b80601f0160208091040260200160405190810160405280929190818152602001828054612e9890615d06565b8015612ee55780601f10612eba57610100808354040283529160200191612ee5565b820191906000526020600020905b815481529060010190602001808311612ec857829003601f168201915b50505050508152505081526020019060010190612ce2565b6001826004811115612f1157612f11615aaf565b0361315d57600083815260076020908152604080832060090180548251818502810185019093528083529193909284015b82821015612c925783829060005260206000209060040201604051806080016040529081600082018054612f7590615d06565b80601f0160208091040260200160405190810160405280929190818152602001828054612fa190615d06565b8015612fee5780601f10612fc357610100808354040283529160200191612fee565b820191906000526020600020905b815481529060010190602001808311612fd157829003601f168201915b5050505050815260200160018201805461300790615d06565b80601f016020809104026020016040519081016040528092919081815260200182805461303390615d06565b80156130805780601f1061305557610100808354040283529160200191613080565b820191906000526020600020905b81548152906001019060200180831161306357829003601f168201915b5050509183525050600282015460209091019060ff1660048111156130a7576130a7615aaf565b60048111156130b8576130b8615aaf565b81526020016003820180546130cc90615d06565b80601f01602080910402602001604051908101604052809291908181526020018280546130f890615d06565b80156131455780601f1061311a57610100808354040283529160200191613145565b820191906000526020600020905b81548152906001019060200180831161312857829003601f168201915b50505050508152505081526020019060010190612f42565b600382600481111561317157613171615aaf565b036109a9576000838152600760209081526040808320600b0180548251818502810185019093528083529193909284015b82821015612c9257838290600052602060002090600402016040518060800160405290816000820180546131d590615d06565b80601f016020809104026020016040519081016040528092919081815260200182805461320190615d06565b801561324e5780601f106132235761010080835404028352916020019161324e565b820191906000526020600020905b81548152906001019060200180831161323157829003601f168201915b5050505050815260200160018201805461326790615d06565b80601f016020809104026020016040519081016040528092919081815260200182805461329390615d06565b80156132e05780601f106132b5576101008083540402835291602001916132e0565b820191906000526020600020905b8154815290600101906020018083116132c357829003601f168201915b5050509183525050600282015460209091019060ff16600481111561330757613307615aaf565b600481111561331857613318615aaf565b815260200160038201805461332c90615d06565b80601f016020809104026020016040519081016040528092919081815260200182805461335890615d06565b80156133a55780601f1061337a576101008083540402835291602001916133a5565b820191906000526020600020905b81548152906001019060200180831161338857829003601f168201915b505050505081525050815260200190600101906131a2565b60008481526007602052604081208591805b600483015460ff8216101561342257826004018160ff16815481106133f6576133f6615c44565b6000918252602090912001546001600160a01b0316330361341a5760019150613422565b6001016133cf565b50806134965760405162461bcd60e51b815260206004820152603d60248201527f54686520616374696f6e2063616e206f6e6c7920626520706572666f726d656460448201527f206279206f7267616e697a657273206f66207468652070726f6a6563740000006064820152608401610788565b6000878152600760205260409020600c0154879060ff1661351f5760405162461bcd60e51b815260206004820152603160248201527f54686520616374696f6e2063616e206f6e6c792068617070656e206f6e20616e60448201527f20617070726f7665642070726f6a6563740000000000000000000000000000006064820152608401610788565b6000888152600760209081526040808320600d015460088352818420818552835292208a815560018101805460ff19169055895190916135669160028401918c019061528b565b50875161357c90600383019060208b019061528b565b506001810180547fffffffffffffffffffffff0000000000000000000000000000000000000000ff1633610100021790556008810187905560008a8152600760205260408120600d018054916135d183615c70565b919050555050505050505050505050565b6060600180548060200260200160405190810160405280929190818152602001828054801561202257602002820191906000526020600020905b81546001600160a01b0316815260019091019060200180831161361c575050505050905090565b6060600082600481111561365957613659615aaf565b036138b8576000848152600860209081526040808320868452825280832060040180548251818502810185019093528083529193909284015b828210156138ad57838290600052602060002090600402016040518060800160405290816000820180546136c590615d06565b80601f01602080910402602001604051908101604052809291908181526020018280546136f190615d06565b801561373e5780601f106137135761010080835404028352916020019161373e565b820191906000526020600020905b81548152906001019060200180831161372157829003601f168201915b5050505050815260200160018201805461375790615d06565b80601f016020809104026020016040519081016040528092919081815260200182805461378390615d06565b80156137d05780601f106137a5576101008083540402835291602001916137d0565b820191906000526020600020905b8154815290600101906020018083116137b357829003601f168201915b5050509183525050600282015460209091019060ff1660048111156137f7576137f7615aaf565b600481111561380857613808615aaf565b815260200160038201805461381c90615d06565b80601f016020809104026020016040519081016040528092919081815260200182805461384890615d06565b80156138955780601f1061386a57610100808354040283529160200191613895565b820191906000526020600020905b81548152906001019060200180831161387857829003601f168201915b50505050508152505081526020019060010190613692565b505050509050610f52565b60028260048111156138cc576138cc615aaf565b03613b20576000848152600860209081526040808320868452825280832060060180548251818502810185019093528083529193909284015b828210156138ad578382906000526020600020906004020160405180608001604052908160008201805461393890615d06565b80601f016020809104026020016040519081016040528092919081815260200182805461396490615d06565b80156139b15780601f10613986576101008083540402835291602001916139b1565b820191906000526020600020905b81548152906001019060200180831161399457829003601f168201915b505050505081526020016001820180546139ca90615d06565b80601f01602080910402602001604051908101604052809291908181526020018280546139f690615d06565b8015613a435780601f10613a1857610100808354040283529160200191613a43565b820191906000526020600020905b815481529060010190602001808311613a2657829003601f168201915b5050509183525050600282015460209091019060ff166004811115613a6a57613a6a615aaf565b6004811115613a7b57613a7b615aaf565b8152602001600382018054613a8f90615d06565b80601f0160208091040260200160405190810160405280929190818152602001828054613abb90615d06565b8015613b085780601f10613add57610100808354040283529160200191613b08565b820191906000526020600020905b815481529060010190602001808311613aeb57829003601f168201915b50505050508152505081526020019060010190613905565b6001826004811115613b3457613b34615aaf565b03613d88576000848152600860209081526040808320868452825280832060050180548251818502810185019093528083529193909284015b828210156138ad5783829060005260206000209060040201604051806080016040529081600082018054613ba090615d06565b80601f0160208091040260200160405190810160405280929190818152602001828054613bcc90615d06565b8015613c195780601f10613bee57610100808354040283529160200191613c19565b820191906000526020600020905b815481529060010190602001808311613bfc57829003601f168201915b50505050508152602001600182018054613c3290615d06565b80601f0160208091040260200160405190810160405280929190818152602001828054613c5e90615d06565b8015613cab5780601f10613c8057610100808354040283529160200191613cab565b820191906000526020600020905b815481529060010190602001808311613c8e57829003601f168201915b5050509183525050600282015460209091019060ff166004811115613cd257613cd2615aaf565b6004811115613ce357613ce3615aaf565b8152602001600382018054613cf790615d06565b80601f0160208091040260200160405190810160405280929190818152602001828054613d2390615d06565b8015613d705780601f10613d4557610100808354040283529160200191613d70565b820191906000526020600020905b815481529060010190602001808311613d5357829003601f168201915b50505050508152505081526020019060010190613b6d565b6003826004811115613d9c57613d9c615aaf565b036109a9576000848152600860209081526040808320868452825280832060070180548251818502810185019093528083529193909284015b828210156138ad5783829060005260206000209060040201604051806080016040529081600082018054613e0890615d06565b80601f0160208091040260200160405190810160405280929190818152602001828054613e3490615d06565b8015613e815780601f10613e5657610100808354040283529160200191613e81565b820191906000526020600020905b815481529060010190602001808311613e6457829003601f168201915b50505050508152602001600182018054613e9a90615d06565b80601f0160208091040260200160405190810160405280929190818152602001828054613ec690615d06565b8015613f135780601f10613ee857610100808354040283529160200191613f13565b820191906000526020600020905b815481529060010190602001808311613ef657829003601f168201915b5050509183525050600282015460209091019060ff166004811115613f3a57613f3a615aaf565b6004811115613f4b57613f4b615aaf565b8152602001600382018054613f5f90615d06565b80601f0160208091040260200160405190810160405280929190818152602001828054613f8b90615d06565b8015613fd85780601f10613fad57610100808354040283529160200191613fd8565b820191906000526020600020905b815481529060010190602001808311613fbb57829003601f168201915b50505050508152505081526020019060010190613dd5565b60608160000361405b57336000908152600960209081526040918290208054835181840281018401909452808452909183018282801561404f57602002820191906000526020600020905b81548152602001906001019080831161403b575b50505050509050919050565b81600103610f0a57336000908152600a60209081526040918290208054835181840281018401909452808452909183018282801561404f576020028201919060005260206000209081548152602001906001019080831161403b5750505050509050919050565b919050565b60008181526007602052604081208291805b600483015460ff8216101561412c57826004018160ff168154811061410057614100615c44565b6000918252602090912001546001600160a01b03163303614124576001915061412c565b6001016140d9565b50806141a05760405162461bcd60e51b815260206004820152603d60248201527f54686520616374696f6e2063616e206f6e6c7920626520706572666f726d656460448201527f206279206f7267616e697a657273206f66207468652070726f6a6563740000006064820152608401610788565b6000848152600760205260409020600c810154610100900460ff166141c557506148a4565b600c8101805461ff0019169055600e81015460008190036141e75750506148a4565b60008167ffffffffffffffff81111561420257614202615493565b60405190808252806020026020018201604052801561422b578160200160208202803683370190505b50905060008267ffffffffffffffff81111561424957614249615493565b604051908082528060200260200182016040528015614272578160200160208202803683370190505b50905060005b8381101561434257600085600e01828154811061429757614297615c44565b9060005260206000200160009054906101000a90046001600160a01b03169050808483815181106142ca576142ca615c44565b60200260200101906001600160a01b031690816001600160a01b031681525050856011016000826001600160a01b03166001600160a01b031681526020019081526020016000205483838151811061432457614324615c44565b6020908102919091010152508061433a81615c70565b915050614278565b50600a83111561477a5760005b61435a600185615cc1565b8110156144fe5760005b60016143708387615cc1565b61437a9190615cc1565b8110156144eb578261438d826001615cee565b8151811061439d5761439d615c44565b60200260200101518382815181106143b7576143b7615c44565b602002602001015110156144d957826143d1826001615cee565b815181106143e1576143e1615c44565b60200260200101518382815181106143fb576143fb615c44565b602002602001015184838151811061441557614415615c44565b602002602001018584600161442a9190615cee565b8151811061443a5761443a615c44565b60209081029190910101919091525283614455826001615cee565b8151811061446557614465615c44565b602002602001015184828151811061447f5761447f615c44565b602002602001015185838151811061449957614499615c44565b60200260200101868460016144ae9190615cee565b815181106144be576144be615c44565b6001600160a01b039384166020918202929092010152911690525b806144e381615c70565b915050614364565b50806144f681615c70565b91505061434f565b506000606461450e856005615d3a565b6145189190615d59565b905060005b818110156145d9578560120184828151811061453b5761453b615c44565b6020908102919091018101518254600181018455600093845291832090910180546001600160a01b0319166001600160a01b039092169190911790558451600a919086908490811061458f5761458f615c44565b6020908102919091018101516001600160a01b031682528181019290925260400160009081208054600181018255908252919020018a9055806145d181615c70565b91505061451d565b5060006145e68286615cc1565b9050806000036145fb575050505050506148a4565b60008167ffffffffffffffff81111561461657614616615493565b60405190808252806020026020018201604052801561463f578160200160208202803683370190505b5090506000835b878110156146b05786818151811061466057614660615c44565b602002602001015183838061467490615c70565b94508151811061468657614686615c44565b6001600160a01b0390921660209283029190910190910152806146a881615c70565b915050614646565b5060005b8381101561477057886013018382815181106146d2576146d2615c44565b6020908102919091018101518254600181018455600093845291832090910180546001600160a01b0319166001600160a01b039092169190911790558351600a919085908490811061472657614726615c44565b6020908102919091018101516001600160a01b031682528181019290925260400160009081208054600181018255908252919020018d90558061476881615c70565b9150506146b4565b505050505061483b565b60005b83811015614839578460130183828151811061479b5761479b615c44565b6020908102919091018101518254600181018455600093845291832090910180546001600160a01b0319166001600160a01b039092169190911790558351600a91908590849081106147ef576147ef615c44565b6020908102919091018101516001600160a01b031682528181019290925260400160009081208054600181018255908252919020018990558061483181615c70565b91505061477d565b505b6004840154601385015460128601546148549190615cee565b61485e9190615cee565b60148501805460ff191660ff9290921691909117905560405188907fd312a8f16f4214218cb0334da9a62aa94a5bf7c208659435e4b35b5a4b7d440890600090a2505050505b50505050565b60008281526007602052604081208391805b600483015460ff8216101561490f57826004018160ff16815481106148e3576148e3615c44565b6000918252602090912001546001600160a01b03163303614907576001915061490f565b6001016148bc565b50806149835760405162461bcd60e51b815260206004820152603d60248201527f54686520616374696f6e2063616e206f6e6c7920626520706572666f726d656460448201527f206279206f7267616e697a657273206f66207468652070726f6a6563740000006064820152608401610788565b6000858152600760205260409020600c0154859060ff16614a0c5760405162461bcd60e51b815260206004820152603160248201527f54686520616374696f6e2063616e206f6e6c792068617070656e206f6e20616e60448201527f20617070726f7665642070726f6a6563740000000000000000000000000000006064820152608401610788565b60008681526008602090815260408083208884528252808320898452600790925290912060018083015460ff166003811115614a4a57614a4a615aaf565b14614abd5760405162461bcd60e51b815260206004820152603060248201527f52657175657374206d7573742062652066756c6c7920617070726f766564207460448201527f6f2077697468647261772066756e6473000000000000000000000000000000006064820152608401610788565b816008015481600f01541015614b1f5760405162461bcd60e51b815260206004820152602160248201527f496e73756666696369656e742066756e647320696e207468652070726f6a65636044820152601d60fa1b6064820152608401610788565b8160080154816010016000828254614b379190615cee565b9091555050600882015460058054600090614b53908490615cee565b9091555050600182018054600360ff19909116179081905560088301546040516101009092046001600160a01b0316916108fc82150291906000818181858888f19350505050158015614baa573d6000803e3d6000fd5b50877fef687a8f1519b4c5091105cbc704634d2f17927ba995f9044c74476dc623c046888460080154604051614bea929190918252602082015260400190565b60405180910390a25050505050505050565b600080546001600160a01b03163314806140c25760005b600154811015614c5c5760018181548110614c3057614c30615c44565b6000918252602090912001546001600160a01b03163303614c545760019150614c5c565b600101614c13565b50919050565b60008681526007602052604081208791805b600483015460ff82161015614cc757826004018160ff1681548110614c9b57614c9b615c44565b6000918252602090912001546001600160a01b03163303614cbf5760019150614cc7565b600101614c74565b5080614d3b5760405162461bcd60e51b815260206004820152603d60248201527f54686520616374696f6e2063616e206f6e6c7920626520706572666f726d656460448201527f206279206f7267616e697a657273206f66207468652070726f6a6563740000006064820152608401610788565b600080856004811115614d5057614d50615aaf565b03614d6c57506000898152600760205260409020600801614df8565b6002856004811115614d8057614d80615aaf565b03614d9c57506000898152600760205260409020600a01614df8565b6001856004811115614db057614db0615aaf565b03614dcc57506000898152600760205260409020600901614df8565b6003856004811115614de057614de0615aaf565b036109a957506000898152600760205260409020600b015b80548910614e485760405162461bcd60e51b815260206004820152601860248201527f496e76616c6964204d65646961204974656d20496e64657800000000000000006044820152606401610788565b6000818a81548110614e5c57614e5c615c44565b60009182526020918290208b516004909202019250614e80918391908c019061528b565b508751614e9690600183019060208b019061528b565b508651610e7190600383019060208a019061528b565b6000546001600160a01b0316331480614f0d5760005b600154811015614f0b5760018181548110614edf57614edf615c44565b6000918252602090912001546001600160a01b03163303614f035760019150614f0b565b600101614ec2565b505b80614f6d5760405162461bcd60e51b815260206004820152602a60248201527f4f6e6c79206f776e6572206f722073746166662063616e2063616c6c207468696044820152693990333ab731ba34b7b760b11b6064820152608401610788565b600080836004811115614f8257614f82615aaf565b03614f9e5750600084815260076020526040902060080161502a565b6002836004811115614fb257614fb2615aaf565b03614fce57506000848152600760205260409020600a0161502a565b6001836004811115614fe257614fe2615aaf565b03614ffe5750600084815260076020526040902060090161502a565b600383600481111561501257615012615aaf565b036109a957506000848152600760205260409020600b015b8054841061507a5760405162461bcd60e51b815260206004820152601860248201527f496e76616c6964204d65646961204974656d20496e64657800000000000000006044820152606401610788565b8054819061508a90600190615cc1565b8154811061509a5761509a615c44565b90600052602060002090600402018185815481106150ba576150ba615c44565b906000526020600020906004020160008201816000019080546150dc90615d06565b6150e7929190615388565b5060018201816001019080546150fc90615d06565b615107929190615388565b50600282810154908201805460ff9092169160ff1916600183600481111561513157615131615aaf565b0217905550600382018160030190805461514a90615d06565b615155929190615388565b509050508080548061516957615169615cd8565b600082815260208120600019909201916004830201906151898282615403565b615197600183016000615403565b60028201805460ff191690556151b1600383016000615403565b505090555050505050565b60608160000361526757600083815260076020526040902060020180546151e290615d06565b80601f016020809104026020016040519081016040528092919081815260200182805461520e90615d06565b801561525b5780601f106152305761010080835404028352916020019161525b565b820191906000526020600020905b81548152906001019060200180831161523e57829003601f168201915b505050505090506119af565b81600103610f0a57600083815260076020526040902060030180546151e290615d06565b82805461529790615d06565b90600052602060002090601f0160209004810192826152b957600085556152ff565b82601f106152d257805160ff19168380011785556152ff565b828001600101855582156152ff579182015b828111156152ff5782518255916020019190600101906152e4565b5061530b929150615439565b5090565b5080546000825560040290600052602060002090810190615330919061544e565b50565b8280548282559060005260206000209081019282156152ff579160200282015b828111156152ff57825182546001600160a01b0319166001600160a01b03909116178255602090920191600190910190615353565b82805461539490615d06565b90600052602060002090601f0160209004810192826153b657600085556152ff565b82601f106153c757805485556152ff565b828001600101855582156152ff57600052602060002091601f016020900482015b828111156152ff5782548255916001019190600101906153e8565b50805461540f90615d06565b6000825580601f1061541f575050565b601f01602090049060005260206000209081019061533091905b5b8082111561530b576000815560010161543a565b8082111561530b5760006154628282615403565b615470600183016000615403565b60028201805460ff1916905561548a600383016000615403565b5060040161544e565b634e487b7160e01b600052604160045260246000fd5b604051601f8201601f1916810167ffffffffffffffff811182821017156154d2576154d2615493565b604052919050565b600082601f8301126154eb57600080fd5b813567ffffffffffffffff81111561550557615505615493565b615518601f8201601f19166020016154a9565b81815284602083860101111561552d57600080fd5b816020850160208301376000918101602001919091529392505050565b8035600581106140c257600080fd5b60008060008060008060c0878903121561557257600080fd5b8635955060208701359450604087013567ffffffffffffffff8082111561559857600080fd5b6155a48a838b016154da565b955060608901359150808211156155ba57600080fd5b6155c68a838b016154da565b945060808901359150808211156155dc57600080fd5b506155e989828a016154da565b9250506155f860a0880161554a565b90509295509295509295565b80356001600160a01b03811681146140c257600080fd5b60006020828403121561562d57600080fd5b610f5282615604565b6000806040838503121561564957600080fd5b50508035926020909101359150565b803560ff811681146140c257600080fd5b60008060006060848603121561567e57600080fd5b833592506020840135915061569560408501615658565b90509250925092565b6000602082840312156156b057600080fd5b5035919050565b6000806000606084860312156156cc57600080fd5b83359250602084013591506156956040850161554a565b600080604083850312156156f657600080fd5b8235915061570660208401615658565b90509250929050565b600082601f83011261572057600080fd5b8135602067ffffffffffffffff82111561573c5761573c615493565b8160051b61574b8282016154a9565b928352848101820192828101908785111561576557600080fd5b83870192505b8483101561578b5761577c83615604565b8252918301919083019061576b565b979650505050505050565b600080600080600080600060e0888a0312156157b157600080fd5b8735600281106157c057600080fd5b9650602088013567ffffffffffffffff808211156157dd57600080fd5b6157e98b838c016154da565b975060408a01359150808211156157ff57600080fd5b61580b8b838c016154da565b965060608a013591508082111561582157600080fd5b5061582e8a828b0161570f565b979a969950949760808101359660a0820135965060c090910135945092505050565b600080600080600060a0868803121561586857600080fd5b85359450602086013567ffffffffffffffff8082111561588757600080fd5b61589389838a016154da565b955060408801359150808211156158a957600080fd5b6158b589838a016154da565b945060608801359150808211156158cb57600080fd5b506158d8888289016154da565b9250506158e76080870161554a565b90509295509295909350565b6020808252825182820181905260009190848201906040850190845b8181101561592b5783518352928401929184019160010161590f565b50909695505050505050565b6000806000806080858703121561594d57600080fd5b84359350602085013592506040850135915061596b6060860161554a565b905092959194509250565b6000815180845260005b8181101561599c57602081850181015186830182015201615980565b818111156159ae576000602083870101525b50601f01601f19169290920160200192915050565b602081526000610f526020830184615976565b600080600080600080600060e0888a0312156159f157600080fd5b873596506020880135955060408801359450606088013567ffffffffffffffff80821115615a1e57600080fd5b615a2a8b838c016154da565b955060808a0135915080821115615a4057600080fd5b615a4c8b838c016154da565b945060a08a0135915080821115615a6257600080fd5b50615a6f8a828b016154da565b925050615a7e60c0890161554a565b905092959891949750929550565b60008060408385031215615a9f57600080fd5b823591506157066020840161554a565b634e487b7160e01b600052602160045260246000fd5b602080825282518282018190526000919060409081850190600581811b8701840188860187805b85811015615b7e57603f198b8503018752825160808151818752615b1282880182615976565b9150508a8201518682038c880152615b2a8282615976565b91505089820151878110615b4c57634e487b7160e01b85526021600452602485fd5b868b015260609182015186820392870192909252615b6a8183615976565b988b01989550505091880191600101615aec565b50919a9950505050505050505050565b60008060008060808587031215615ba457600080fd5b84359350602085013567ffffffffffffffff80821115615bc357600080fd5b615bcf888389016154da565b94506040870135915080821115615be557600080fd5b50615bf2878288016154da565b949793965093946060013593505050565b6020808252825182820181905260009190848201906040850190845b8181101561592b5783516001600160a01b031683529284019291840191600101615c1f565b634e487b7160e01b600052603260045260246000fd5b634e487b7160e01b600052601160045260246000fd5b600060018201615c8257615c82615c5a565b5060010190565b634e487b7160e01b600052601260045260246000fd5b600060ff831680615cb257615cb2615c89565b8060ff84160491505092915050565b600082821015615cd357615cd3615c5a565b500390565b634e487b7160e01b600052603160045260246000fd5b60008219821115615d0157615d01615c5a565b500190565b600181811c90821680615d1a57607f821691505b602082108103614c5c57634e487b7160e01b600052602260045260246000fd5b6000816000190483118215151615615d5457615d54615c5a565b500290565b600082615d6857615d68615c89565b50049056fea164736f6c634300080e000a",
  "linkReferences": {},
  "deployedLinkReferences": {}
}